:020000040800F2
:1000000018130020293F0008A9180008AB180008A1
:10001000B5180008BF180008C91800080000000043
:10002000000000000000000000000000D3180008DD
:10003000DD18000800000000E7180008FD1800089F
:10004000593F00085D3F0008613F0008653F000818
:10005000693F00086D3F0008713F0008753F0008C8
:10006000793F00087D3F0008813F0008853F000878
:10007000893F00088D3F0008913F00086D19000876
:1000800055190008953F0008993F00089D3F00085A
:10009000A13F0008A53F0008A93F0008AD3F0008A8
:1000A000B13F0008B53F0008B93F0008BD3F000858
:1000B000F3180008E9180008C13F0008C53F000810
:1000C000C93F0008CD3F0008D13F0008D53F0008D8
:1000D000D93F00081719000821190008DD3F000862
:1000E000E13F0008E53F0008E93F000838B504009B
:1000F00000252078C00740F10D81DFF8040C00686E
:1001000010F00C0004280BD0DFF8F40B006810F09E
:100110000C0008282AD1DFF8E80B0068C00325D5B9
:100120004FF48040B0FA80F050F02000C0B2400997
:10013000C0B2012803D1DFF8EC0B006806E04FF4F1
:100140008040B0FA80F0DFF8E00B00684FF48041A7
:10015000B1FA81F111F01F01C840C00740F1DA8007
:100160006068002840F0D6800120A6E3DFF8B40BD9
:10017000006830F48030DFF8AC1B0860DFF8A40BB7
:10018000006830F48020DFF89C1B086000F012FE4D
:1001900005004FF48040B0FA80F050F02000C0B26B
:1001A0004009C0B2012803D1DFF8780B006806E0EF
:1001B0004FF48040B0FA80F0DFF86C0B00684FF429
:1001C0008041B1FA81F111F01F01C840C00706D586
:1001D00000F0F0FD401B6528DBD303206DE3606871
:1001E000B0F5803F08D1DFF83C0B006850F4803058
:1001F000DFF8301B086038E06068002810D1DFF8B5
:10020000240B006830F48030DFF8181B0860DFF83A
:10021000140B006830F48020DFF8081B086024E02D
:100220006068B0F5A02F10D1DFF8F80A006850F42C
:100230008020DFF8F01A0860DFF8E80A006850F460
:100240008030DFF8E01A08600FE0DFF8D80A0068B5
:1002500030F48030DFF8CC1A0860DFF8C80A006894
:1002600030F48020DFF8BC1A08606068002828D0CD
:1002700000F0A0FD05004FF48040B0FA80F050F08F
:100280002000C0B24009C0B2012803D1DFF8940AAF
:10029000006806E04FF48040B0FA80F0DFF8880A8A
:1002A00000684FF48041B1FA81F111F01F01C8409C
:1002B000C0072FD400F07EFD401B6528DBD3032050
:1002C000FBE200F077FD05004FF48040B0FA80F0CB
:1002D00050F02000C0B24009C0B2012803D1DFF8BD
:1002E000440A006806E04FF48040B0FA80F0DFF87E
:1002F000380A00684FF48041B1FA81F111F01F0112
:10030000C840C00706D500F055FD401B6528DBD36B
:100310000320D2E22078800740F1BF80DFF8E009B7
:10032000006810F00C0F0BD0DFF8D409006810F053
:100330000C00082839D1DFF8C8090068C00334D49C
:100340005FF08040B0FA80F050F02000C0B2400969
:10035000C0B2012803D1DFF8CC09006806E05FF0E5
:100360008040B0FA80F0DFF8C00900685FF080419B
:10037000B1FA81F111F01F01C840C00704D520690E
:10038000012801D0012098E2DFF8980900685FF0A9
:10039000F851B1FA81F130F0F800626912FA01F116
:1003A0000843DFF88019086077E02069002842D010
:1003B00001205FF00041B1FA81F1DFF8702942F8C5
:1003C000210000F0F7FC05005FF08040B0FA80F0FB
:1003D00050F02000C0B24009C0B2012803D1DFF8BC
:1003E0004409006806E05FF08040B0FA80F0DFF872
:1003F000380900685FF08041B1FA81F111F01F0106
:10040000C840C00706D400F0D5FC401B0328DBD34E
:10041000032052E2DFF80C0900685FF0F851B1FAEE
:1004200081F130F0F800626912FA01F10843DFF857
:10043000F418086031E000205FF00041B1FA81F16A
:10044000DFF8E82842F8210000F0B4FC05005FF076
:100450008040B0FA80F050F02000C0B24009C0B235
:10046000012803D1DFF8BC08006806E05FF0804097
:10047000B0FA80F0DFF8B00800685FF08041B1FAB0
:1004800081F111F01F01C840C00706D500F092FCB1
:10049000401B0328DBD303200FE22078000754D54C
:1004A000A06900282AD001205FF00041B1FA81F153
:1004B000DFF87C2842F8210000F07CFC05005FF0AA
:1004C0008040B0FA80F05FF08040B0FA80F0DFF852
:1004D000580800685FF08041B1FA81F111F01F0106
:1004E000C840C00706D400F065FC401B0328E6D3D3
:1004F0000320E2E1012000F060FC26E000205FF034
:100500000041B1FA81F1DFF8282842F8210000F01B
:1005100051FC05005FF08040B0FA80F05FF0804051
:10052000B0FA80F0DFF8000800685FF08041B1FAAF
:1005300081F111F01F01C840C00706D500F03AFC58
:10054000401B0328E6D30320B7E12078400740F1A1
:10055000FE80DFF8E007006850F08050DFF8D41725
:100560000860DFF8D007006810F080500090009815
:10057000DFF8C407006850F48070DFF8BC1708602B
:1005800000F018FC0500DFF8B0070068C00506D4CD
:1005900000F010FC401B6528F5D303208DE1DFF847
:1005A0009C07006840084000DFF890170860DFF8FB
:1005B0008C07006830F00400DFF88017086000F056
:1005C000F9FB05005FF08040B0FA80F05FF08040FA
:1005D000B0FA80F050F04000C0B24009C0B202282A
:1005E00003D1DFF85807006802E0DFF83C07006835
:1005F0005FF08041B1FA81F111F01F01C840C007DE
:1006000008D500F0D7FB401B41F289318842D9D38D
:10061000032052E1E068012808D1DFF820070068D4
:1006200050F00100DFF81417086037E0E068002898
:1006300010D1DFF80807006840084000DFF8FC161A
:100640000860DFF8F806006830F00400DFF8EC1608
:10065000086023E0E068052810D1DFF8E0060068B4
:1006600050F00400DFF8D4160860DFF8D006006808
:1006700050F00100DFF8C41608600FE0DFF8BC0698
:10068000006840084000DFF8B4160860DFF8AC06E8
:10069000006830F00400DFF8A4160860E068002865
:1006A0002AD000F087FB05005FF08040B0FA80F0B0
:1006B0005FF08040B0FA80F050F04000C0B24009D6
:1006C000C0B2022803D1DFF87406006802E0DFF848
:1006D000580600685FF08041B1FA81F111F01F0106
:1006E000C840C00733D400F065FB401B41F289319C
:1006F0008842D9D30320E0E000F05CFB05005FF006
:100700008040B0FA80F05FF08040B0FA80F050F0A6
:100710004000C0B24009C0B2022803D1DFF81C0675
:10072000006802E0DFF8000600685FF08041B1FA7F
:1007300081F111F01F01C840C00708D500F03AFB55
:10074000401B41F289318842D9D30320B5E0E069EA
:10075000002800F0B180DFF8A805006810F00C0058
:10076000082800F0A780E069022875D100208021C8
:10077000B1FA81F1DFF8B42542F8210000F01AFB4C
:1007800005004020B0FA80F050F02000C0B24009CF
:10079000C0B2012803D1DFF88C05006805E04020D5
:1007A000B0FA80F0DFF8800500684021B1FA81F1ED
:1007B00011F01F01C840C00706D500F0FBFA401B2E
:1007C0000328DED3032078E0206AB0F5803F09D10A
:1007D000DFF82C05006830F40030A1680843DFF82A
:1007E00020150860DFF81805006830F47410216ADD
:1007F0000843616A0843DFF808150860012080217A
:10080000B1FA81F1DFF8242542F8210000F0D2FA94
:1008100005004020B0FA80F050F02000C0B240093E
:10082000C0B2012803D1DFF8FC04006805E04020D5
:10083000B0FA80F0DFF8F00400684021B1FA81F1ED
:1008400011F01F01C840C00736D400F0B3FA401BB6
:100850000328DED3032030E000208021B1FA81F1AB
:10086000DFF8C82442F8210000F0A4FA0500402077
:10087000B0FA80F050F02000C0B24009C0B20128A8
:1008800003D1DFF8A004006805E04020B0FA80F052
:10089000DFF8940400684021B1FA81F111F01F01E2
:1008A000C840C00708D500F085FA401B0328DED3F6
:1008B000032002E0012000E0002032BD70B50400FA
:1008C0000D000026DFF87804006810F00700A84249
:1008D00080F0CE80DFF868040068C008C0002843BC
:1008E000DFF85C140860DFF85804006810F00700B7
:1008F000A84201D0012099E12078800709D5DFF8CE
:100900004404006830F0F000A1680843DFF83414B4
:1009100008602078C00740F16E816068012820D10E
:100920004FF48040B0FA80F050F02000C0B240098F
:10093000C0B2012803D1DFF8EC03006806E04FF4F1
:100940008040B0FA80F0DFF8E00300684FF48041A7
:10095000B1FA81F111F01F01C840C00743D4012052
:1009600064E1606802281DD14020B0FA80F050F0A8
:100970002000C0B24009C0B2012803D1DFF8A403AF
:10098000006805E04020B0FA80F0DFF89C030068C2
:100990004021B1FA81F111F01F01C840C00722D4F3
:1009A000012043E15FF08040B0FA80F050F0200079
:1009B000C0B24009C0B2012803D1DFF86803006863
:1009C00006E05FF08040B0FA80F0DFF85C0300687A
:1009D0005FF08041B1FA81F111F01F01C840C007FA
:1009E00001D4012022E1DFF85C0300688008800068
:1009F00061680843DFF84C13086000F0DBF906007B
:100A00006068012810D1DFF83C03006810F00C008A
:100A1000042800F0F08000F0CDF9801B41F289310C
:100A20008842F0D3032001E16068022810D1DFF88A
:100A30001403006810F00C00082800F0DC8000F0BF
:100A4000B9F9801B41F289318842F0D30320EDE0EF
:100A5000DFF8F002006810F00C0F00F0CC8000F01E
:100A6000A9F9801B41F289318842F1D30320DDE0EE
:100A70002078800709D5DFF8CC02006830F0F0005C
:100A8000A1680843DFF8BC1208602078C00740F175
:100A9000A380606801281FD14FF48040B0FA80F035
:100AA00050F02000C0B24009C0B2012802D19D48D8
:100AB000006806E04FF48040B0FA80F0DFF868028A
:100AC00000684FF48041B1FA81F111F01F01C84074
:100AD000C00741D40120A9E0606802281CD1402051
:100AE000B0FA80F050F02000C0B24009C0B2012836
:100AF00002D18C48006805E04020B0FA80F0DFF8B1
:100B0000280200684021B1FA81F111F01F01C840AC
:100B1000C00721D4012089E05FF08040B0FA80F066
:100B200050F02000C0B24009C0B2012802D17D4877
:100B3000006806E05FF08040B0FA80F0DFF8E8017E
:100B400000685FF08041B1FA81F111F01F01C840E7
:100B5000C00701D4012069E0DFF8E80100688008DF
:100B6000800061680843DFF8DC11086000F022F9BA
:100B70000600606801280FD1DFF8C801006810F096
:100B80000C00042828D000F015F9801B41F28931AF
:100B90008842F1D3032049E0606802280ED16948F9
:100BA000006810F00C00082816D000F003F9801B34
:100BB00041F289318842F2D3032037E0614800686E
:100BC00010F00C0F08D000F0F5F8801B41F28931CD
:100BD0008842F3D3032029E059480068C008C000C8
:100BE0002843574908605648006810F00700A8429B
:100BF00001D001201AE02078400707D5514800684D
:100C000030F4E060E16808434E490860207800074E
:100C100008D54C48006830F46050216950EAC100A2
:100C2000484908600F2000F0ADF8002070BDF0B515
:100C300085B001A84449102200F0E0F8434800883C
:100C4000ADF80000002100220023002400202C4DDC
:100C50002D68290011F00C05042D02D0082D03D0B9
:100C600026E03B4D280025E001AD11F470164FF44D
:100C70007057B7FA87F7FE40755D2C00CD0311D58C
:100C80001F4D2D686E4615F400354FF48047B7FAB6
:100C900087F7FD40AD5D2A002D4DB5FBF2F56543AC
:100CA0002B0003E02B4D05FB04F52B00180001E0A1
:100CB000274D280005B0F0BD80B5FFF7B8FF1049FB
:100CC00009685FF07062B2FA82F2234B11F0F00112
:100CD000D140C95CC840214908602048006802BD75
:100CE00080B5FFF7E9FF064909685FF46002B2FAD0
:100CF00082F2194B11F4E061D140C95CC84002BDD9
:100D00000410024080B5FFF7D7FF0E4909685FF471
:100D1000E012B2FA82F2104B11F46051D140C95C7A
:100D2000C84002BD001002402410024000004242B0
:100D3000800442421C10024000700040201002401B
:100D40000020024004100240083F00086E1F000807
:100D500000127A0000093D00183F000858010020E9
:100D600080B51C48006850F010001A490860032044
:100D700000F0E6F80F2000F005F800F002F800207F
:100D800002BD704710B50400FFF796FF4FF47A716B
:100D9000B0FBF1F000F0FBF8002221005FF0FF3023
:100DA00000F0D4F8002010BD0B480068401C0A4930
:100DB0000860704708480068704711B581B000248A
:100DC000FFF7F8FF0400FFF7F5FF001B01998842C9
:100DD000F9D313BD00200240040F002062B38B073B
:100DE00008D0521E11F8013B00F8013B00F02480AE
:100DF0008B07F6D1830740F0208000BF103A07D35D
:100E000030B4B1E83810103AA0E83810F9D230BC4C
:100E1000530724BFB1E80810A0E8081044BF51F8F8
:100E2000043B40F8043BD20724BF31F8022B20F8E2
:100E3000022B44BF0B7803707047083A07D3B1E820
:100E40000810083A40F8043B40F804CBF7D25307A7
:100E5000E4E70268531C03601170704710F007024A
:100E60004E4B1B6819004FF6FF0319404C4B53EAD9
:100E700002231943494B1960704748480068C0F382
:100E800002207047012110F01F029140454A40B2F4
:100E9000430942F823107047012110F01F029140CE
:100EA000414A40B2430942F82310704710B440B29F
:100EB000002808D50A013D4B40B210F00F04E3189A
:100EC00003F8042C03E00A01394B40B2C25410BCB1
:100ED000704770B4030013F00704D4F10706052E21
:100EE00001D3042001E0D4F10700261D072E01D212
:100EF000002500E0E51E012616FA00F0401E08401D
:100F0000A8400121A940491E1140084370BC704708
:100F100010B50400601EB0F1807F01D301200EE007
:100F2000601E244908600F215FF0FF30FFF7BEFF0D
:100F3000002021490860072020490860002010BDDA
:100F400010B504002000FFF789FF10BDF8B50400BC
:100F50000D0016000027FFF790FF07003200290060
:100F60003800FFF7B6FF0100200040B2FFF79EFFF8
:100F7000F1BD10B50400200040B2FFF783FF10BDA3
:100F800010B50400200040B2FFF786FF10BD10B579
:100F900004002000FFF7BCFF10BD00000CED00E0D6
:100FA0000000FA0500E100E080E100E018ED00E05B
:100FB00000E400E014E000E018E000E010E000E0F1
:100FC00010B50400002C01D1012030E0A0690028F8
:100FD000FFD194F83900002805D1002084F83800AA
:100FE000200000F0CFFB022084F839002068C068A0
:100FF00030F400502168C860200000F038FB206801
:10100000006930F49040216808612068406930F040
:101010002A00216848612068C06850F400502168A7
:10102000C8600020E063012084F83900002010BD72
:1010300010B50400002C01D101201DE0022084F82D
:1010400039002068C06830F400502168C860002072
:101050002168C8600020216808610020216848617B
:10106000200000F0F8FB0020E063002084F8390045
:10107000002084F83800002010BD2DE9F84304005A
:101080000D0016001F005FF0000994F8390081463A
:10109000B9F1010F02D0B9F1220F69D1002D02D0B0
:1010A000B6B2002E01D1012063E094F83800012887
:1010B00001D102205DE0012084F838000020E063C7
:1010C00094F83900222803D1322084F8390002E054
:1010D000122084F83900A684E684E08C00282DD004
:1010E000E08C401EE084A068B0F5805F17D13B0023
:1010F00000228021200000F092F9002801D0032076
:1011000037E0A846B8F80000C005C00D2168486067
:101110002069002801D1AD1CDFE76D1CDDE73B0035
:1011200000228021200000F07AF9002801D003205D
:101130001FE02878216848606D1CCEE73B00002244
:101140004021200000F06BF9002801D0032010E0BE
:1011500094F83900322803D1222084F8390002E0C3
:10116000012084F83900002084F83800002000E0D5
:101170000220BDE8F2832DE9F84304000D001600BB
:101180001F005FF0000994F839008146B9F1010FA2
:1011900002D0B9F1120F6ED1002D02D0B6B2002EDE
:1011A00001D1012068E094F83800012801D1022023
:1011B00062E0012084F838000020E06394F83900F0
:1011C000122803D1322084F8390002E0222084F86A
:1011D0003900A685E685E08D00283CD0E08D401ED4
:1011E000E085A068B0F5805F1CD13B000022202183
:1011F000200000F014F9002801D003203CE0A846AC
:101200002069002807D120684068C005C00DA8F8F3
:101210000000AD1CDFE720684068C0B2A8F80000FD
:101220006D1CD8E73B0000222021200000F0F7F8D9
:10123000002801D003201FE02069002804D1206885
:10124000406828706D1CC6E72068406810F07F0079
:1012500028706D1CBFE794F83900322803D11220A2
:1012600084F8390002E0012084F83900002084F875
:101270003800002000E00220BDE8F28330B4030013
:10128000002493F839000400012C01D0122C36D12F
:10129000002902D092B2002A01D1012030E093F857
:1012A0003800012801D102202AE0012083F838000B
:1012B00099629A85DA850020D86393F8390012285C
:1012C00003D1322083F8390002E0222083F839006C
:1012D000002083F838001868C06850F480701D68DA
:1012E000E8601868406950F001001D68686118687E
:1012F000C06850F020001D68E860002000E0022077
:1013000030BC704770B582B004000025002620680C
:10131000006810F0010005002068C06810F48070BB
:101320000600002D05D0002E03D0E06B50F0010028
:10133000E06320680068400810F0010005002068A4
:10134000406910F001000600002D05D0002E03D0EA
:10135000E06B50F00400E06320680068800810F043
:1013600001000500002D05D0002E03D0E06B50F0E9
:101370000200E06320680068C00810F0010005006A
:10138000002D05D0002E03D0E06B50F00800E06384
:1013900020680068400910F0010005002068C0685E
:1013A00010F020000600002D04D0002E02D02000F6
:1013B00000F0FBF820680068C00910F0010005008B
:1013C0002068C06810F080000600002D04D0002EB8
:1013D00002D0200000F094F820680068800910F026
:1013E000010005002068C06810F040000600002DD4
:1013F00004D0002E02D0200000F0BFF8E06B0028DF
:101400000CD0206800680090206840680090009828
:10141000012084F83900200000F077FA73BD2DE92F
:10142000F04104000D0016001F005FF00008FFF7F8
:10143000C1FC8046F6B2002E2FD1206800682840FB
:10144000A8425AD017F1010FF7D0002F05D0FFF7AF
:10145000B1FCB0EB08008742EFD22068C06830F0E2
:1014600080002168C8602068C06830F020002168D2
:10147000C8602068C06830F480702168C860206847
:1014800040694008400021684861012084F8390023
:10149000002084F83800032030E0206800682840ED
:1014A000A8422AD117F1010FF7D0002F05D0FFF77E
:1014B00081FCB0EB08008742EFD22068C06830F0B2
:1014C00080002168C8602068C06830F02000216872
:1014D000C8602068C06830F480702168C8602068E7
:1014E00040694008400021684861012084F83900C3
:1014F000002084F83800032000E00020BDE8F081DF
:1015000010B40100002391F839000300122B01D020
:10151000322B2FD18868B0F5805F11D1086A0200A4
:101520001088C005C00D0C6860600869002803D1F0
:10153000086A801C086209E0086A401C086205E02D
:10154000086A441C0C6200780C686060C88C401EFD
:10155000C884C88C00280BD10868C06830F08000AF
:101560000C68E0600868C06850F040000C68E060FB
:10157000002000E0022010BC704710B50400206875
:10158000C06830F040002168C86094F83900322803
:1015900003D1222084F8390002E0012084F83900C8
:1015A000200000F0B1F9002010BD70B50400002645
:1015B00094F839000600222E01D0322E55D1A068B1
:1015C000B0F5805F15D1A06A05002069002808D118
:1015D00020684068C005C00D2880A06A801CA062F9
:1015E00019E020684068C0B22880A06A401CA06250
:1015F00011E02069002806D1A06A411CA16221687F
:101600004968017007E0A06A411CA162216849682D
:1016100011F07F010170E08D401EE085E08D002813
:1016200021D12068C06830F020002168C86094F89B
:101630003900322803D1122084F839000EE02068E6
:10164000C06830F480702168C86020684069400834
:10165000400021684861012084F83900200000F032
:1016600052F9002002E0002000E0022070BDF8B531
:10167000040000252068006930F44050E168084308
:1016800021680861A0682169084361690843050071
:101690002068C0683949084028432168C86020682C
:1016A000406930F44070A1690843216848612068AE
:1016B0003349884230D1FFF725FB0700FFF722FBB3
:1016C0000600FFF71FFB192101FB07F1626892007A
:1016D000B1FBF2F16422B1FBF2F1192202FB06F236
:1016E00063689B00B2FBF3F21923584363689B00C5
:1016F000B0FBF3F06423B0FBF3F0642303FB102092
:10170000000132306422B0FBF2F010F00F0050EA1A
:101710000110216888602FE0FFF7E2FA0700FFF769
:10172000DFFA0600FFF7DCFA192101FB07F1626816
:101730009200B1FBF2F16422B1FBF2F1192202FB3B
:1017400006F263689B00B2FBF3F219235843636807
:101750009B00B0FBF3F06423B0FBF3F0642303FBC6
:101760001020000132306422B0FBF2F010F00F00C4
:1017700050EA011021688860F1BD0000F3E9FFFF25
:101780000038014010B586B004004248844260D160
:101790004148006850F004003F4908603E48006836
:1017A00010F00400009000983B48006850F00400DE
:1017B000394908603848006810F00400009000982B
:1017C0003548006850F4804033490860324800686A
:1017D00010F48040009000982F48006850F00100FD
:1017E0002D4908602C48006810F001000090009816
:1017F0002A48006830F0300050F010002749086097
:101800004FF4007001900220029001200390032009
:10181000049001A9224800F0C1F84FF480600190C3
:101820000020029001A91E4800F0B8F84FF4805043
:101830000190022003900120029001A9184800F0B5
:10184000ADF8002201212520FFF780FB2520FFF7BE
:1018500090FB06B010BD10B504000E48844218D1AC
:101860001048006850F480400E4908600D48006838
:1018700030F480400B4908604FF40071084800F0D4
:10188000EAF94FF48061064800F0E5F92520FFF7FA
:1018900077FB10BD3C0D00201810024004000140F1
:1018A000000801400C100240704780B5002000F095
:1018B0008DFAFBE780B5002000F088FAFBE780B5E1
:1018C000002000F083FAFBE780B5002000F07EFAEC
:1018D000FBE780B5002000F079FA01BD80B500205B
:1018E00000F074FA01BD704780B5274800F080FA17
:1018F00001BD80B5254800F07BFA01BD80B5FFF73A
:1019000053FA01BD70477047704710B504002000BE
:1019100000F084FD10BD80B51D48FFF7F3FC01BD4C
:1019200080B51C480068FFF7EDFC01BD0068400D64
:1019300010F0010070470068400C10F00100704783
:10194000416851F4001141607047416851F4003121
:101950004160704780B51048FFF7E8FF012804D1C7
:101960000D48FFF7EDFF00F0C7FB01BD80B50A4849
:10197000FFF7E1FF012804D10748FFF7E6FF00F079
:10198000F7FB01BD00000000BC0D0020F80D002099
:101990003C0D0020080F0020000002402DE9F84116
:1019A00000230024002500265FF0000E5FF0000CED
:1019B0006246102A80F04D815FF0010C1CFA02FC97
:1019C0006346D1F800C013EA0C0C64469C4240F018
:1019D0003E81D1F804C0BCF1000F3DD0BCF1010F35
:1019E00024D0BCF1020F2BD0BCF1030F4CD0BCF1C2
:1019F000110F1FD0BCF1120F28D0DFF89083C4451F
:101A00002AD0DFF88C83C44526D0DFF88883C4450C
:101A100022D0DFF88483C4451ED0DFF88083C4451C
:101A20001AD0DFF87C83C44516D031E0D1F80CC061
:101A300066462DE0D1F80CC01CF1040C664627E088
:101A4000D1F80CC01CF1080C664621E0D1F80CC09E
:101A50001CF10C0C66461BE0D1F808C0BCF1000F6D
:101A600003D15FF0040C66460DE0D1F808C0BCF16C
:101A7000010F04D15FF0080C6646036103E05FF0DC
:101A8000080C6646436103E05FF0000C6646FFE722
:101A9000FF2C01D8070000E0071DFF2C02D85FEAE9
:101AA000820E03E0B2F1080C5FEA8C0ED7F800C09A
:101AB0005FF00F0818FA0EF83CEA080C16FA0EF858
:101AC00058EA0C0CC7F800C0D1F804C05FEACC0C8F
:101AD00040F1BD80DFF8CCC2DCF800C05CF0010C46
:101AE000DFF8C082C8F800C0DFF8B8C2DCF800C078
:101AF0001CF00108CDF80080DDF800C0DFF8A8C2B6
:101B00005FEA92085CF828C065465FF00F0C12F09F
:101B100003085FFA88F85FEA88081CFA08FC35EACF
:101B20000C05DFF888C2604502D15FF0000C16E0BA
:101B3000DFF87CC2604502D15FF0010C0FE0DFF8F6
:101B400074C2604502D15FF0020C08E0DFF868C2A1
:101B5000604502D15FF0030C01E05FF0040C12F06D
:101B600003085FFA88F85FEA88081CFA08FC5CEA58
:101B70000505DFF834C25FEA92084CF82850D1F826
:101B800004C05FEACC3C0AD5DFF830C2DCF800C004
:101B900054EA0C0CDFF82482C8F800C009E0DFF832
:101BA0001CC2DCF800C03CEA040CDFF81082C8F864
:101BB00000C0D1F804C05FEA8C3C0AD5DFF800C24F
:101BC000DCF800C054EA0C0CDFF8F481C8F800C05F
:101BD00009E0DFF8ECC1DCF800C03CEA040CDFF8F7
:101BE000E081C8F800C0D1F804C05FEACC2C0AD567
:101BF000DFF8D0C1DCF800C054EA0C0CDFF8C48177
:101C0000C8F800C009E0DFF8BCC1DCF800C03CEA5D
:101C1000040CDFF8B081C8F800C0D1F804C05FEA56
:101C20008C2C0AD5DFF8A0C1DCF800C054EA0C0CFB
:101C3000DFF89481C8F800C009E0DFF88CC1DCF857
:101C400000C03CEA040CDFF88081C8F800C0521CD8
:101C5000AFE6BDE8F181F0B50022002300240026A4
:101C60000F00D740002F00F08680012797400F40DB
:101C70003B00002B7DD0FF2B01D8050000E0051DA7
:101C8000FF2B01D8960002E0B2F10806B6002F68DB
:101C90005FF00F0C1CFA06FC37EA0C075FF0040C2F
:101CA0001CFA06FC5CEA07072F60C7689F43C76001
:101CB0003D4F5FEA920C57F82C703C000F2712F052
:101CC000030C5FFA8CFC5FEA8C0C17FA0CF73C40B3
:101CD000364FB84201D100270FE0354FB84201D14D
:101CE00001270AE0334FB84201D1022705E0324F05
:101CF000B84201D1032700E0042712F0030C5FFA79
:101D00008CFC5FEA8C0C17FA0CF7BC4231D10F2720
:101D100012F0030C5FFA8CFC5FEA8C0C17FA0CF7DC
:101D20003C00214F5FEA920C57F82C70A743DFF874
:101D300078C05FEA920E4CF82E70204F3F689F43A8
:101D4000DFF878C0CCF800701D4F3F689F43DFF884
:101D500070C0CCF800701B4F3F689F43DFF864C031
:101D6000CCF80070184F3F689F43DFF85CC0CCF898
:101D70000070521C74E7F0BDD2B2002A02D089B2C2
:101D8000016102E089B20B04036170470000111089
:101D9000000012100000211000002210000031107D
:101DA00000003210181002400800014000080140F5
:101DB000000C0140001001400014014000040140EB
:101DC00004040140080401400C04014010B5040063
:101DD00001220548E4B230F814100448E4B250F887
:101DE0002400FFF7C9FF10BDAE25000854010020F4
:101DF00010B504002068006980071AD52068C06803
:101E0000800716D57FF00200216808610120207646
:101E10002068806910F0030F03D0200000F0A4F8C0
:101E200005E0200000F09FF8200000F09EF8002060
:101E300020762068006940071AD52068C0684007EE
:101E400016D57FF004002168086102202076206802
:101E5000806910F4407F03D0200000F085F805E091
:101E6000200000F080F8200000F07FF800202076AD
:101E70002068006900071AD52068C068000716D5D9
:101E80007FF0080021680861042020762068C0697E
:101E900010F0030F03D0200000F066F805E02000EA
:101EA00000F061F8200000F060F800202076206843
:101EB0000069C0061AD52068C068C00616D57FF034
:101EC000100021680861082020762068C06910F49D
:101ED000407F03D0200000F047F805E0200000F02C
:101EE00042F8200000F041F80020207620680069C8
:101EF000C0070AD52068C068C00706D57FF001007A
:101F0000216808612000FFF7FDFC206800690006D9
:101F10000AD52068C068000606D57FF080002168D9
:101F20000861200000F041FB2068006940060AD5E6
:101F30002068C068400606D57FF04000216808612F
:101F4000200000F013F82068006980060AD5206898
:101F5000C068800606D57FF0200021680861200057
:101F600000F022FB10BD70477047704770470102B8
:101F700038B5DFF85804006850F00100DFF84C1461
:101F80000860DFF84804006810F001000090009835
:101F90000020DFF83C1448600020DFF8341488602B
:101FA0000020DFF82C14C8600020DFF8241408613A
:101FB0000020DFF81C1448612020DFF81414886129
:101FC0004FF48050DFF80814C861DFF80804DFF828
:101FD00000140860DFF8F80300F0EAFA002801D0E6
:101FE00000F02DFA002200211020FEF7AFFF102094
:101FF000FEF7BFFFDFF8E043DFF8E05301232A00DC
:102000002100DFF8CC0300F06FFBDFF8C4030068A9
:10201000006850F00200DFF8B81309680860DFF8C4
:10202000B0030068006850F00100DFF8A4130968ED
:102030000860DFF89803006850F00100DFF88C13A7
:102040000860DFF88803006810F001000090009835
:102050000020DFF88C1348600020DFF884138860CC
:102060000020DFF87C13C8600020DFF874130861DB
:102070000020DFF86C1348612020DFF864138861CA
:102080004FF48050DFF85813C861DFF85803DFF8C9
:1020900050130860DFF8480300F08AFA002801D0E6
:1020A00000F0CDF9002200210F20FEF74FFF0F2096
:1020B000FEF75FFFDFF830030400DFF830030500B0
:1020C00001232A002100DFF8180300F00DFBDFF8E0
:1020D00010030068006850F00200DFF8041309687C
:1020E0000860DFF8FC020068006850F00100DFF8CB
:1020F000F0120968086031BD0120DFF8F41281F8A0
:1021000038000020DFF8E812C863DFF8D002DFF8FB
:10211000E01208620120DFF8D81288840120DFF87D
:10212000D012C884DFF8C80290F83900222805D1FF
:102130003220DFF8BC1281F8390004E01220DFF809
:10214000B01281F839000020DFF8A41281F83800BD
:10215000DFF89C020068C06850F08000DFF8901241
:102160000968C8600020DFF8881281F838007047DD
:102170000120DFF88012096881F838000020DFF8BC
:1021800074120968C863DFF86402DFF8681209682E
:1021900008620120DFF85C12096888840120DFF8FA
:1021A00054120968C884DFF84C02006890F83900BE
:1021B000222806D13220DFF83C12096881F8390064
:1021C00005E01220DFF82C12096881F839000020A0
:1021D000DFF82012096881F83800DFF8180200687B
:1021E0000068C06850F08000DFF8081209680968CC
:1021F000C860704780B54FF48061DFF8FC0100F0E3
:1022000085FADFF8F801407810F0F100DFF8EC1102
:10221000487000207A49087000F07BF800F007F859
:102220003221784800F07EFAFFF7A2FE01BD734824
:10223000007850F00800714908707048007850F03C
:1022400080006E4908706D48007810F0BF006B493F
:1022500008706A48407810F0F10068494870002022
:102260006649487400206549C87400206349887431
:102270000020624948606148407810F0FE005F49E4
:102280004870FF205D49C87502205C49087502202E
:102290005A49487500205949887500205749C86037
:1022A0005948006850F001005749086056480068D6
:1022B00050F00200544908605348D0F8020030F052
:1022C00080505149C1F802004F48C07910F0DF003A
:1022D0004D49C8714C48807950F001004A498871D5
:1022E0004948C07910F0EF004749C8714648C079A5
:1022F00010F0BF004449C8714348C07910F07F0016
:102300004149C8714048007A10F0FE003E49087209
:10231000704770B53D48C07910F0C7003B49C8719F
:1023200000203A49C1F8A40000203849C1F89800BB
:1023300000203649C1F8A00000203449C1F8B0009F
:1023400000203249C1F8A80000203049A1F89000CF
:1023500000202E49C1F8B40000202C49C1F8BC006F
:1023600000202A49C1F8C0000020284948730020F5
:102370002649C1F8C40000202449A1F88C0005209A
:102380002249A1F8920001240025214E2A002100B3
:10239000300000F0D7F970BD80B500224FF48051B5
:1023A0001C48FFF7E9FC012210491148FEF766FFBF
:1023B000002803D0184800F0F9F905E01248006839
:1023C00050F400501049086001BD00001410024094
:1023D000340E00206C00024004440040120F002024
:1023E0006C0E002058000240043801403E0B0020D3
:1023F0003C0D0020080F00207C0D0020D80E00208E
:10240000100F0020900D0020F00E0020F00A002098
:10241000110F002000080140483E000810B50400DC
:1024200000F00DF810BD70B54FF480640025DFF8A2
:1024300064612A002100300000F084F970BD80B58D
:102440000020FFF7C3FC01BD10B504002748007849
:10245000C0F30010C0B2002808D124480078C0F3AF
:102460008010C0B2002801D105203EE0DFF81C0139
:10247000006810F4407F01D0102036E0DFF80C0136
:10248000006850F48050DFF804110860A4B2002CFA
:1024900005D1DFF8040100F089F91F2025E04FF491
:1024A0007A73220092B2DFF8EC10DFF8F000FEF74A
:1024B000E4FD002807D0FFF7C2FFDFF8E40000F0DA
:1024C00075F90F2011E0DFF8C400006830F4805087
:1024D000DFF8B8100860DFF8B4000068C0F34030DF
:1024E000002801D1FFF758FF002010BDD80E0020B2
:1024F00070B504000D000026FFF795FF2B002200A9
:102500002849244800F064F9224800F07BF94FF490
:102510007A73020092B21F492048FEF7AEFD0028F0
:1025200003D0FFF78CFF0F2005E0062000F004F831
:1025300006003000C0B270BDF0B591B00400402577
:1025400000266F4632002900380000F0FBF8002713
:10255000A4B2412C15DA4FF47A73220092B2694684
:102560000E48FEF708FE002803D0FFF768FF0F2093
:1025700009E007A1684600F060F9002801D10D20AC
:1025800001E03800C0B211B0F0BD0000F00E002034
:102590004F4B000060050020283E00083C0D002045
:1025A000983E0008D43E00087047704700002000A5
:1025B00001000022002901D1012024E091F821002E
:1025C000002802D1002081F82000022081F821009B
:1025D0000868006802006FF30D1248688B681843A2
:1025E000CB6818430B6918434B6918438B69184330
:1025F000CB69184302430868026000204863012049
:1026000081F821000020704710B504002F483049A0
:1026100008602F48446000202D49886000202C4924
:10262000C86000202A4908614FF4807028498861F9
:102630000C202749486100202549C8612448FEF73D
:10264000F7FC002801D0FFF7FAFE2148FEF7B8FC9E
:10265000002801D0FFF7F3FE1D480068406950F0E4
:1026600040001B490968486110BD38B5040019488D
:10267000007850F010001749087021001648FFF745
:1026800037FF0500FFF7CFFE1449154800F0A0F80A
:10269000134800F0B7F880B2FFF7D6FE0500FFF749
:1026A000C2FE10490E4800F093F80D4800F0AAF859
:1026B00080B2FFF7C9FE0500EDB2002D02D1200067
:1026C000FFF7A2FFFFF768FE31BD000000380140B0
:1026D0003C0D0020D80E0020F83E0008503F0008B6
:1026E00060050020383F000810B404686360446847
:1026F000102C04D10468A2600468E16003E004685F
:10270000A1600468E26010BC704700008160002294
:1027100002600022C26000224260014A02617047EA
:102720006001002008231A0001FB02F383800023CC
:1027300003800023C38000234380014B83607047E4
:102740006009002062F30F2262F31F42401810F06C
:10275000030308D0C91A1FD3DB0748BF00F8012DB7
:1027600028BF20F8022D130030B414461546103946
:1027700028BF20E93C00FAD8490728BF20E90C000F
:1027800048BF40F8042D890028BF20F8022D48BF1B
:1027900000F8012D30BC7047C91818BF00F8012D92
:1027A000CB0728BF00F8012D704700000EB400B51C
:1027B00082B003A9009102466B4601210348784488
:1027C0000A3000F043F806BC5DF810FBE516000087
:1027D0000CB41CB5044604A801900A46009401AB51
:1027E000694607487844183000F030F8009A002114
:1027F000117000285CBF0098001B16BC5DF80CFB34
:1028000053E6FFFF00F10103810704D010F8011B1C
:1028100089B18107FAD10268B2F10131914311F017
:10282000803F04BF50F8042FF6E710F8011B11B1E8
:1028300010F8011BFBE7C01A704738B504000D0003
:102840002900200000F0D4FB32BD00002DE9F04F3C
:1028500080460FF2847095B092461D46D0E9002361
:10286000CDE9132303AE00200391B0610DF13409CB
:1028700000E0A2440020ADF8020013AB4FF0FF329D
:1028800051460DF1020000F0C9FB0446012C05DAA7
:102890009AF80000441EA441E443E40FBDF802008E
:1028A00025280CBFA4F1010BA346BBF1010F0EDBE1
:1028B000574617F8011B0398C0470028039000F003
:1028C000CE81B069401CBBF1010BB061F1D1BDF804
:1028D0000200252804D10020F0603061706105E01D
:1028E0000028C6D1B069BCE140F001001AF8011F10
:1028F0002029F9D023290DD02B2904D02D2906D049
:1029000030290AD00CE040F0020080B2EEE740F03F
:102910000400FAE740F00800F7E740F01000F4E7A1
:102920002A290FD12968296051F8042B2960002A2F
:10293000326204D5514240F00400316280B20AF1A3
:10294000010A15E0002131620CE0316A6FF00043AA
:10295000994205D001EB810302EB4301303931622A
:102960000AF1010A9AF80020A2F130010A29ECD3F9
:102970009AF800102E2903D04FF0FF31F16122E0C8
:102980001AF8011F2A2908D1296829600AF1010AC9
:1029900051F8042B2960F26115E00021F1610CE08F
:1029A000F1696FF00043994205D001EB810302EB1E
:1029B00043013039F1610AF1010A9AF80020A2F1CD
:1029C00030010A29ECD3B0840FF214609AF8001099
:1029D00000F034FB08B11AF8010B8DF832009DF8B5
:1029E0003200682804BF9AF80000682804D16220E9
:1029F0008DF832000AF1010A0DA8B0601AF8014BF7
:102A0000252C13D0582C40D0632C00F09880642CD7
:102A100018BF692C71D06F2C37D0702C2BD0732C31
:102A20000AD0752C18BF782C2FD0ABE00120F060B5
:102A300025208DF83400AFE09DF832006C2828681E
:102A4000286014D050F8044B28607460F769002F98
:102A500004D52046FFF7D6FE074606E03A46002199
:102A6000204600F0F7FA00B1071B376194E050F8F8
:102A7000042B28607FE02868286050F8041B286039
:102A800002910DA87060782155E09DF832006C2805
:102A90000DD0712818BF6A2809D12868C01D20F000
:102AA00007022A60D2E9000108322A6004E029689E
:102AB000296051F8040B296002909DF832006828C3
:102AC00002D102A8008803E0622802D102A800789F
:102AD000029096F82400000728D5029830B344F0FD
:102AE0002000782822D1F068302100F80910401C1D
:102AF000411CF16000F8094018E09DF832002946B9
:102B000000F0B2F80028029002D5F0682D2109E00B
:102B1000B08C810702D5F0682B2103E0C00705D5F2
:102B2000F068202100F80910401CF0600DA8F16841
:102B300008187060214602A800F0CFF92CE09DF83B
:102B400032006C2809D00120F0602868286050F815
:102B5000041B28608DF834101EE02868286001AA44
:102B600050F8041B2860ADF804100020ADF80600F2
:102B70004FF0FF30F06102A9404600F09BF80028BA
:102B80000AD56CE00120F06025208DF834001CB1DE
:102B90000220F06089F80140306AF168401A7169DA
:102BA000401A3169441A96F8240040070FD42020B7
:102BB0008DF80000002708E001236A4602A940467C
:102BC00000F0F2F900284AD17F1CA742F4DBF76835
:102BD0000DF1340B0AE01BF8011B0398C0470028D5
:102BE00003903CD0B069401CB0617F1E002FF2D131
:102BF00030208DF800004FF0000B776908E00123CA
:102C00006A4602A9404600F0CFF940BB0BF1010B28
:102C1000BB45F4DB3769D6F804B009E01BF8011BAB
:102C20000398C0470390D0B1B069401CB0617F1ECB
:102C3000002FF3D196F8240040077FF51BAE20202B
:102C40008DF8000000E07F1CA742BFF613AE012301
:102C50006A4602A9404600F0A7F90028F3D04FF0D9
:102C6000FF3015B0BDE8F08F622815D068280CD071
:102C70006C2818BF742816D07A2814D10A680A6004
:102C800052F8040B0A60002170470A680A6052F883
:102C9000040B0A6000B20BE00A680A6052F8040BE9
:102CA0000A6040B204E00A680A6052F8040B0A6045
:102CB000C11770472DE9F44F0D4694B0D5F820A008
:102CC000BAF1000F804648BF6FF0004A00F0EEF9FD
:102CD000696A401801900FF21030D0E90023CDE965
:102CE000022395F82800400702D40198412805D214
:102CF00040200DF110090190002607E000F0DCF9FA
:102D00005FEA0009F8D1AAE7AAEB040ABAF1010FB9
:102D1000C0F28B801498018802AA0DF1010000F026
:102D200023FA0028044600F18E801498008810B918
:102D3000641E00F18880A24577DB2869019922187A
:102D4000914260D26E624042A969401A6969461A8E
:102D500095F8280040070FD420208DF800000027A8
:102D600008E001236A462946404600F01DF9002884
:102D700069D17F1CB742F4DB2F69CB460AE01BF810
:102D8000011B6868C047002868605CD0E869401C87
:102D9000E8617F1E002FF2D130208DF800004FF047
:102DA000000BAF6909E001236A462946404600F05E
:102DB000FBF8002847D10BF1010BBB45F3DB6F6932
:102DC000D5F808B009E01BF8011B6868C0476860C7
:102DD000C8B3E869401CE8617F1E002FF3D195F865
:102DE000280040070DD520208DF8000007E00123C2
:102DF0006A462946404600F0D7F820BB7F1CB74200
:102E0000F5DB00262E61224628690DF101014844B8
:102E1000FDF7E4FF2869201828611498801C14909D
:102E2000801E008800287FF46FAF686A2969401A05
:102E3000A969401A6969A0EB010A95F828004007C2
:102E400010D400240CE04FF0FF363EE068682021EB
:102E5000C04700286860F6D0E869401CE861641C3F
:102E60005445F3DB2B694A462946404600F09CF85E
:102E70000028E8D1AC69002709E068683021C04724
:102E800000286860DFD0E869401CE8617F1CA74229
:102E9000F3DB6B69AA682946404600F085F80028F4
:102EA000D1D195F8280040070DD5002409E06868C5
:102EB0002021C04700286860C5D0E869401CE8614F
:102EC000641C5445F3DB2E616E6204A881451CBF6F
:102ED000484600F057F93046C3E6F0B4C2686F299F
:102EE00008BF082405D041F02003782B14BF0A2422
:102EF000102418230668642918BF6929374602D1AF
:102F0000002E48BF7F425FB9056A4DB9082C27D112
:102F100090F82810090723D530211723D1751FE019
:102F2000B7FBF4F604FB16773037FFB25D1E3A2F7D
:102F3000A4BFA1F1510C6744AF542B46370003D016
:102F400085689E18B542EBD3082C09D190F828105B
:102F5000090705D5995C302902D05B1E30219954B0
:102F60009A188260C3F11801026A4161914208DA3D
:102F7000511A81614FF6EF72018D11400185F0BC4D
:102F80007047002A0ED590F8282002F01402102A6B
:102F900008D1426A0369D21A8369D21A531A012BE3
:102FA000A8BF8361F0BC7047F8B504460D461646CD
:102FB0001F46002004E0E869401CE8617F1E0020F5
:102FC00047B116F8011B6868A04700286860F2D175
:102FD0004FF0FF30F2BD00000000000000000000D4
:102FE000686C747A4C0000000000000000000000D3
:102FF00070B50C46257835B970BD11F8013F1678CB
:10300000B34206D0401C294600F018F828B101460A
:10301000224612F8013F002BEFD170BDF8B50446EF
:103020000D4616461F4600F0EDF83B46324629464F
:10303000204601B0BDE8F04000F0FBB80278C9B20C
:103040008A421AB11CBF10F8012FF9E718BF0020FF
:1030500070470000C9B2830706D0521E22D310F871
:10306000013B9942F7D11FE0083A13D302F1040261
:1030700041EA012141EA014150F8043B121F21BFFE
:103080004B40A3F1013C2CEA030C1CF0803FF3D031
:10309000C9B2001F083210F8013B521E28BF91EA46
:1030A000030FF8D818BF0120401E704780B500F00C
:1030B000A9F8012002BD000070B5054605F10F001A
:1030C000C408C046C046E400A54232D2082C04D24F
:1030D000082402E0083000F055F822480268110088
:1030E0000CD1011D0A6802B31368A34238BF111D39
:1030F000F8D310E01D68A5420DD2191D0B68002BF6
:10310000F8D11268011D00E0191D0B6893420CD024
:103110001D68A542F8D361B10D682A68A2F10803C1
:10312000A3420AD26A680A600FE000F0A5F80028FE
:10313000D0D1C046C046002070BD63190B60121B81
:103140006E685E600B681A602C60096800291DBFFC
:103150004A68002A091D00210160C046C04605F1E9
:10316000080070BDFC0E002070B504460D461646E2
:1031700000F048F8324629462046BDE8704000F08D
:103180004BB8000000B9704738B5A0F108042068BA
:10319000082833D310F0070F30D1C046C046184876
:1031A000416809B18C4203D26160446017E019465E
:1031B0004B680BB1A342FAD30B685D18AC421BD32A
:1031C000A54204D12268D2180A600C4607E04A687A
:1031D0001AB123681B199A420ED362604C60616871
:1031E00051B1226813198B4206D10023036008688D
:1031F0008018206048686060C046C04631BD00004D
:10320000FC0E002080B5DFF80C0000F04BF8806960
:1032100002BD00000800002030B430B90FF24800B1
:10322000D0E90045C2E900451BE00170012030BC37
:10323000704730B431B90FF23800D0E90045C3E926
:1032400000450EE01AB930BC6FF00100704708B1BC
:103250000A7802800978481E804130BCC043C00F04
:103260007047002030BC70470000000000000000E4
:1032700000000000000000000749086808B10020B5
:1032800070470648C008C00008600549C908C90061
:10329000091A0160704700BF0C0F00201F130020A7
:1032A000181500207047000010B50024FDF758FDE8
:1032B00000F036F85FF4E130FFF7A6F95FF4E13093
:1032C000FFF7D3F900F08AF85FF4E1316B4800F0C2
:1032D00060F86A4800F0ECF86948FFF767FA694857
:1032E000FFF764FA6848FFF761FA6848FFF75EFA8B
:1032F0006748FFF75BFA6348FFF758FA6548FFF73E
:1033000055FA654800F0DAF80400E4B2002C04D065
:103310006248FFF74BFA002001E000BFFDE710BD57
:1033200000B58FB06846142100F0D0F805A8282118
:1033300000F0CCF8012005905FF48030069000206A
:1033400008900020099010200A9000200790022089
:103350000C905FF480300D905FF4E0100E9005A8A3
:10336000FCF7C4FE002800D0FEE70F2000900220EA
:10337000019000200290002004904FF480600390A0
:1033800002216846FDF79AFA002800D0FEE70FB048
:1033900000BD38B504000D00414820606560002084
:1033A000A0600020E060002020610020A0610C20CF
:1033B00060612000FDF73CFE002801D0FFF73FF8D8
:1033C0002000FDF7FDFD002801D0FFF738F8206848
:1033D000406950F040002168486131BD00B585B0BA
:1033E0003048006850F004002E4908602D480068FD
:1033F00010F00400009000982A48006850F0040083
:10340000284908602748006810F0040000900098E0
:103410002548006850F400302349086022480068BD
:1034200010F40030009000981E48006850F0010031
:103430001C4908601B48006810F0010000900098CB
:1034400004200190022002900120039003200490A8
:1034500001A91648FEF7A2FA082001900020029068
:1034600001A91248FEF79AFA012200212620FDF751
:103470006DFD2620FDF77DFD05B000BDFC0C002094
:10348000243C0008E43C0008203D00085C3D0008A6
:10349000983D0008643C0008A40E0020E83E0008A7
:1034A00000440040181002401C1002400008014077
:1034B00001490860704700BF080F002038B50400BC
:1034C0000025FEF797FE2800C0B232BD002200F0B2
:1034D00001B8000000B500BF1300964694461039AD
:1034E00028BFA0E80C50FAD85FEA417C28BF0CC086
:1034F00048BF40F8042BC90728BF20F8022B48BF5B
:1035000000F8012B00BD000010B4364A002113461C
:1035100053F8084B844205D1002342F8313002EBC6
:10352000C10113E053F8084B491C84421EBF491CDB
:1035300053F8084B84421EBF491C53F8084B844281
:10354000EAD0491C1029E3D310BC70474B6010BC73
:10355000704770B4234C0023254655F8086B8E4203
:1035600009D1014604EBC303012A04BF5A6851186C
:10357000596070BC704755F8086B5B1C8E421EBFCB
:103580005B1C55F8086B8E421EBF5B1C55F8086B20
:103590008E42E6D05B1C102BDFD370BC704710B49A
:1035A000104A0021134653F8084B844204D102EB21
:1035B000C10010BC4068704753F8084B491C844256
:1035C0001EBF491C53F8084B84421EBF491C53F8C8
:1035D000084B8442EBD0491C1029E4D310BC0020D6
:1035E00070470000DC0B00202DE9F04104460D4639
:1035F00020780321084216461F4658D0204600F086
:103600009AF8002853D115B1D5E900018619012F88
:103610003DD12088C00416D5A16904F13D022046A1
:1036200000F0A6F8626A804602B92269E168204685
:1036300000F09EF8A6EB08010E1AA26AE168204687
:1036400000F096F8361A46BB20884FF440510842E5
:103650000ED06068E0602061A06260616068E06236
:1036600004F13D00A06104F12400E06100206062EB
:103670002DB1D5E9020104F13002C2E90001208830
:103680004CF6FF61084020800020BDE8F081022F49
:1036900003D04FB916F1010F09D094F903003A464F
:1036A000314600F06AF8064616F1010FCCD100F061
:1036B0008BF8232101604FF0FF30BDE8F08100005E
:1036C00038B500F087F80446208880042ED5656858
:1036D00009E04A1B294600F08DF810F1010F18BFD0
:1036E00000280CD04519E16894F903008D42F0D30D
:1036F0000022002100F07EF810F1010F0DD160686A
:10370000E0606061E062208840F400702080204624
:1037100000F061F84FF0FF3032BD6568E56065612B
:10372000E5624DF6FF71208808402080204600F0B9
:1037300052F8002032BDF8B5A0B9C046C0460024FA
:103740000A4D08264FF0FF37286820B1FFF7B8FF71
:10375000002848BF3C462D1D761EF5D1C046C04608
:103760002046F2BDBDE8F240AAE700003401002087
:10377000914234BF501A0020704730B583B0040026
:103780000D00012A02D1FFF70AFF07E0022A07D144
:1037900000940020019069460C20ABBE2D1801E07A
:1037A000002A0CD10094019569460A20ABBE00287E
:1037B00005D1002221002800FFF7CBFE01E0002008
:1037C000C04303B030BD00000148FFF76BBD0000EF
:1037D0005C0100207047704701B55FF0FF330122A4
:1037E000694603480068FDF748FC009802BD0000E8
:1037F000080F0020F8B504000D001600012C04D0BD
:10380000022C02D05FF0FF3009E000200700B74231
:1038100004D2785DFFF7E0FF7F1CF8E73000F2BDCF
:10382000816807E002681168536889185B18C360F3
:1038300008320260C2689142F4D04A1C8260087863
:1038400070472DE9FF4D00F1080100910027026843
:10385000520801EBC2010191B84600210291039187
:103860000168490800EBC101406800F0010501F161
:103870000804400804EBC00630E06846FFF7D0FFBC
:103880004FFA80FA0AE0009801680818009902903F
:10389000496808180390009808300090029803992E
:1038A0008842F0D010F801BB029047450CD1B442D9
:1038B00008BF00F01DF8276805B14F44606800EBB1
:1038C000070808344745F2D0BAF1000F07F801BBEA
:1038D0000AD51AF1010AE8D14745CED1B442CCD17C
:1038E000304604B0BDE8F08DBAF1010AD6D5F3E751
:1038F000012000F001B8000080B5C046C046024A71
:1039000011001820ABBEFBE72600020010B50446EC
:10391000E0686169884252D3218849F202020A4074
:10392000022A08D008044CBF4FF400704FF48440C2
:10393000084320803CE001F4C041B1F5C04F06D1FE
:10394000A168884203D32046FFF7F5FE80BB20889C
:103950004FF44061084202BF606804F13D018842B3
:1039600017D14FF40070FFF7A7FB606030B904F186
:103970003D006060E060401CA0600AE0218841F0EA
:1039800040012180E060A06200F500716068A160E4
:10399000E06260682061A0686061207840070AD515
:1039A00002220021204600F00CF810F1010F02D194
:1039B0004FF0FF3010BD208840F4C0402080002030
:1039C00010BD70B50C461546FFF704FF06462B46A2
:1039D00022460021FFF708FE04463046FFF7FBFEB3
:1039E000204670BD0178090626D51C4A13680021BF
:1039F000834203D1002342F821301BE053680121A8
:103A000083421EBF022193688342F3D0D36803210F
:103A100083421EBF042113698342EBD05369052101
:103A200083421EBF0621936983421EBF0721D369CB
:103A30008342DFD0FFF7A6BB002101804FF0FF31AA
:103A4000C17000F13D014160C1600161816241616D
:103A5000C162816100F12401C1617047340100201D
:103A600038B5044603212078084202D06056002869
:103A700009D5C046C0462046FFF7B4FFC046C04641
:103A80004FF0FF3527E02046FFF755FE0546C046BC
:103A9000C0462078400644BF6068FFF773FB0020F3
:103AA000606094F90300022804D900F016F808B108
:103AB0004FF0FF35A06B48B100F01CF808B14FF093
:103AC000FF35A06BFFF75EFB0020A0632046FFF7E9
:103AD00089FFC046C046284632BD10B582B00200FC
:103AE000009269460220ABBE04001000FFF70CFDF7
:103AF000200016BD00B583B00090FEF783FE019054
:103B000069460E20ABBE03B000BD0000134800683C
:103B100050F001001149086011480068114908403F
:103B20000F4908600D4800680F4908400B490860BC
:103B30000A48006830F48020084908600848006896
:103B400030F4FE00064908605FF41F000749086072
:103B50005FF00060064908607047000000100240F6
:103B6000041002400000FFF8FFFFF6FE08100240BC
:103B700008ED00E010B5144C206808B1FFF770FFA5
:103B8000606808B1FFF76CFFA06808B1FFF768FF35
:103B9000E06808B1FFF764FF206908B1FFF760FF34
:103BA000606908B1FFF75CFFA06908B1FFF758FF33
:103BB000E06908B1FFF754FFBDE810400022002182
:103BC0004FF0FF30FFF716BE3401002038B5054630
:103BD0000846FFF7FFFD0446E0686169884204D3A8
:103BE0002046FFF793FE002810D4E068401CE060F8
:103BF00000F8015D2088010504D440050CD5EDB224
:103C00000A2D09D12046FFF796FD28B12046FFF77F
:103C1000E2FD4FF0FF3032BD2046FFF7DCFDE8B299
:103C200032BD00000D0A0A2F2A2A2A2A2A2A2A2A05
:103C30002A2A2A2A2A2A2A2A2A2A2A2A2A2A2A2AE4
:103C40002A2A2A2A2A2A2A2A2A2A2A2A2A2A2A2AD4
:103C50002A2A2A2A2A2A2A2A2A2A2A2A2A2A2A2AC4
:103C60000A0000000D202A2A2A2A2A2A2A2A2A2A79
:103C70002A2A2A2A2A2A2A2A2A2A2A2A2A2A2A2AA4
:103C80002A2A2A2A2A2A2A2A2A2A2A2A2A2A2A2A94
:103C90002A2A2A2A2A2A2A2A2A2A2A2A2A2F0A0DBC
:103CA0000A00000019E050F8041BCB0744BFA9F13B
:103CB00001035918121F0023042A41F8043BF9D2CA
:103CC0005FEA827C0B4604D54FF0000CA1F800C0DF
:103CD0009B1CD10744BF0021197050F8042B002A07
:103CE000E1D170470D202A202020202020202020F4
:103CF00020202020202020202020202020202020C4
:103D000020202020202020202020202020202020B3
:103D1000202020202020202020202020202A0A00CF
:103D20000D202A20582D435542452D5749464931EB
:103D300020457870616E73696F6E20536F6674777B
:103D40006172652076332E302E32202020202020F4
:103D50002020202020202020202A0A000D202A2098
:103D6000436F6E736F6C65204170706C6963617432
:103D7000696F6E202020202020202020202020205D
:103D80002020202020202020202020202020202033
:103D900020202020202A0A000D202A2053656E644E
:103DA00020415420636F6D6D616E647320746F20C9
:103DB00053505746206D6F64756C65206469726559
:103DC00063746C79202020202020202020202020B7
:103DD000202A0A0010B5074979441831064C7C4462
:103DE000163404E00A68081D511888470146A142AC
:103DF000F8D110BD0800000030000000A9FEFFFF50
:103E0000B40D0000600100200000000037FAFFFF41
:103E10000200000002000000D40100008400000045
:103E200000000020600100004552524F5220696E90
:103E30002055534152545F5472616E736D69745FC3
:103E400041545F436D64210048414C5F55415254D9
:103E5000785F526563656976655F49542045727283
:103E60006F72000000F00BF8002801D0FFF7B2FFDE
:103E70000020C046C046FFF717FA00F002F8012004
:103E8000704700F001B800000746FFF773FE3846A0
:103E9000FFF732FDFBE7000048414C5F55415254AB
:103EA0005F5472616E736D6974204572726F720037
:103EB00038B504460D46284600F006F8A84218BF5B
:103EC0000024204632BD00000149FFF77FBE00BF3D
:103ED000B400002041542B532E534346473D2573D5
:103EE0002C25640D000000004572726F7220696E0F
:103EF00020436F6E66696700636F6E736F6C653128
:103F00005F73706565640000020304050607080915
:103F10000A0B0C0D0E0F101000000000010203042C
:103F200001020304060708090148804701480047C9
:103F30000D3B0008453F000841542B4346554E3D7C
:103F4000300D0000C046C046C046C046FFF78AFF9D
:103F5000415426570D000000FFF7FEBFFFF7FEBFDC
:103F6000FFF7FEBFFFF7FEBFFFF7FEBFFFF7FEBF85
:103F7000FFF7FEBFFFF7FEBFFFF7FEBFFFF7FEBF75
:103F8000FFF7FEBFFFF7FEBFFFF7FEBFFFF7FEBF65
:103F9000FFF7FEBFFFF7FEBFFFF7FEBFFFF7FEBF55
:103FA000FFF7FEBFFFF7FEBFFFF7FEBFFFF7FEBF45
:103FB000FFF7FEBFFFF7FEBFFFF7FEBFFFF7FEBF35
:103FC000FFF7FEBFFFF7FEBFFFF7FEBFFFF7FEBF25
:103FD000FFF7FEBFFFF7FEBFFFF7FEBFFFF7FEBF15
:103FE000FFF7FEBFFFF7FEBFFFF7FEBF8C001F010C
:103FF000040000B1000020B2000020B1000020B198
:10400000000020B1000020B100002098000020E056
:10401000001F02040101AC0C0020FC0C0020AC0CC1
:104020000020AC0C0020AC0C0020F1000020D800D7
:104030000020E0001F020802025C0C0020AC0C0013
:10404000205C0C00205C0C00205C0C002031010086
:104050002018010020E0000B74000020B4000020B4
:10406000F4000020EB000608014000A24A04FC0016
:0400000508003F456B
:00000001FF
