:020000040800F2
:10000000602B0020D1B50008C96F0008CB6F000835
:10001000D56F0008DF6F0008E96F000800000000DE
:10002000000000000000000000000000F36F000866
:10003000FD6F000800000000077000081D70000838
:10004000D1B70008D5B70008D9B70008DDB7000858
:10005000E1B70008E5B70008E9B70008EDB7000808
:10006000F1B70008F5B70008F9B70008FDB70008B8
:1000700001B8000805B8000809B800080DB8000864
:1000800011B8000815B8000819B8000800000000F1
:100090000000000000000000000000001DB8000883
:1000A00021B8000825B8000829B800082DB80008B4
:1000B000137000080970000831B8000835B800084E
:1000C00039B800083DB8000841B8000845B8000834
:1000D00049B800085970000863700008000000006B
:1000E0004DB8000851B8000855B8000800000000DD
:1000F00000000000000000000000000059B80008E7
:10010000000000005DB8000861B8000865B800088C
:1001100000000000000000000000000000000000DF
:1001200069B800086DB8000871B8000875B8000813
:1001300079B8000800000000000000000000000086
:100140000000000000000000000000007DB8000872
:1001500081B8000885B8000889B800088DB8000883
:1001600091B8000895B800080000000000000000E9
:10017000000000000000000000000000000000007F
:100180000000000099B80008000000000000000016
:100190009DB800082DE9F0410400002503F09BFC08
:1001A000E4B222001349144803F048FEFF2013492B
:1001B000C875114803F05CFE80B203F0A2FC050094
:1001C000EDB2002D02D02800C0B210E001260027B9
:1001D000DFF82C803A003100404603F069FE074802
:1001E000C07D0E2801D000BFF9E72800C0B2BDE8ED
:1001F000F08100009CB6000800040020BC2600200E
:10020000D32600202DE9F04F8BB0040000250020FC
:10021000029020780500DFF8500D0068C0F38040A0
:1002200000280FD1EDB2002D0CD0DFF8400DDFF823
:10023000401D09680D54DFF8380D0068401CDFF8D8
:10024000301D0860DFF82C0D03F020FFDFF81C0DD7
:10025000DFF81C1D0968081810F8020C0D2840F082
:100260000E84DFF8080DDFF8081D0968081810F87B
:10027000010C0A2840F00384DFF8EC0C0068C0F39E
:100280000070002840F0FB83DFF8E40D007810F0E8
:100290000100002840F0F383DFF8D81DDFF8CC0C14
:1002A00003F003FF002863D002F0D0FF72B6DFF83E
:1002B000BC0C01F0B3FC62B602F0BEFFDFF8A80C84
:1002C0000068C00F002810D172B6DFF8B00DD0E979
:1002D000082311001A00DFF8A80D03F03BFE62B6F8
:1002E000DFF8900C03F0D2FE1AE0DFF87C0C006817
:1002F000C0F34000002813D1DFF8780C03F0C6FEED
:10030000DFF8640C006840004008DFF85C1C0860FF
:10031000DFF8540C006850F00200DFF84C1C086055
:10032000DFF8440CD0F80100C0F34060002807D18A
:10033000DFF8340C006840004008DFF82C1C08602F
:100340000020DFF82C1C0860DFF81C0C006810F09F
:100350000260B0F1026F09D1DFF80C0C006830F0D8
:100360000060DFF8041C086000F06CBC01F03FBCCA
:10037000DFF8101DDFF8F40B03F097FE002800F003
:10038000C481DFF8041DDFF8E40B03F08EFE0600E5
:1003900000282CD030798DF8040070798DF8050094
:1003A0009DF804000A219DF8052001FB0020DFF8DC
:1003B000CC1C91F8211060F30301DFF8C00C80F829
:1003C00021100F20DFF8B41C81F8260072B6DFF888
:1003D000AC0CD0E9082311001A00DFF8A40C03F0DC
:1003E000B9FD62B6DFF88C0B03F050FE6BE1DFF86D
:1003F0009C1CDFF8780B03F058FE0600002800F084
:10040000A980707A8DF80000B07A8DF80100F07A3A
:100410008DF80200307B8DF803009DF801000D2857
:1004200007D19DF800003038DFF8641CC1F898004F
:1004300044E09DF802000D280DD19DF800000A212E
:100440009DF8012001FB0020B0F50470DFF8401C8E
:10045000C1F8980032E09DF803000D2814D19DF8F2
:10046000000064219DF801200A235A4301FB00206B
:100470009DF8021050FA81F0DFF8181C0818DFF818
:10048000101CC1F8980019E09DF800004FF47A7133
:100490009DF8012064235A4301FB00209DF80210BF
:1004A0000A2202FB01009DF8031050FA81F0DFF8E8
:1004B000E81B0818DFF8D81BC1F89800DFF8D00B4C
:1004C000D0F89800002808D0DFF89C0A006850F4A3
:1004D0008030DFF8941A0860F5E0DFF8B40BD0F84C
:1004E0009800002840F0EF80DFF8A40BDFF8A01B95
:1004F0000978C1F3C201C9B2081890F8D9000028E0
:100500001FD0DFF8980BDFF8881B0978C1F3C20110
:10051000C9B2085C002808D00221DFF8740B00780B
:10052000C0F3C200C0B203F08EFADFF8640BDFF84C
:10053000601B0978C1F3C201C9B20818002180F814
:10054000D910DFF8240A006830F01000DFF8181A1C
:100550000860B8E015A1DFF8140A03F0A6FD060054
:10056000002825D00320DFF8141B81F82600300076
:1005700003F07EFCB0F10B0716F10308DFF8209BB7
:100580003A004146484603F099FD72B6DFF8EC2A7E
:10059000D2E908010A000100DFF8E40A03F0DAFCFE
:1005A00062B6DFF8D00903F071FD8CE0203D200039
:1005B000DFF8BC0A0078C0F34000C0B2002865D064
:1005C000DFF8AC0A4078C0F30010C0B2002872D047
:1005D000DFF8BC0AC079C0F3C200C0B200280DD059
:1005E000DFF8AC0AC07910F0C70110F03800083805
:1005F00010F038000843DFF8981AC871DFF8700A65
:10060000007810F0FD00DFF8681A08700020DFF8AD
:100610008C1ADFF87C2A527912F00F025054DFF85E
:10062000700A407910F00F00DFF8641A0871DFF8E3
:10063000400A407810F0EF00DFF8341A48700220CA
:10064000DFF82C1A0875DFF82009807910F0010016
:1006500000280AD0DFF81009D0F8010050F000504F
:10066000DFF80419C1F8010007E0DFF8FC08807921
:1006700050F00100DFF8F0188871DFF8EC0800682E
:1006800030F01000DFF8E018086014E00220DFF816
:10069000EC1981F8260072B6DFF8E009D0E90823EA
:1006A00011001A00DFF8D80903F054FC62B6DFF835
:1006B000C40803F0EBFCDFF8B809007810F0FD0087
:1006C000DFF8AC1908700020DFF8A41808604FF4B8
:1006D00000775FF00008DFF89498424639004846FA
:1006E00003F0E6FBDFF88008006810F00260B0F16C
:1006F000026F08D1DFF87008006830F00060DFF8A2
:10070000681808609EE201F072BADFF8F41CDFF8A6
:100710005C0803F0CAFC002800F0EA80DFF8E41C63
:10072000DFF8480803F0C1FC002836D0DFF8D80C09
:1007300003F000FDDFF83809007810F0FD00DFF865
:1007400030190870DFF82809407810F0EF00DFF862
:1007500020194870DFF81008807910F00100002897
:1007600007D1DFF80408807950F00100DFF8F817AE
:1007700088710120DFF81819DFF81429527912F076
:100780000F02511881F8D900DFF8DC07006830F05B
:100790001000DFF8D417086088E0DFF8701CDFF87D
:1007A000CC0703F082FC002807D1DFF8641CDFF8D7
:1007B000BC0703F07AFC002831D0DFF8AC070068F2
:1007C000C0F3C040002871D0DFF89C07006830F407
:1007D0000020DFF894170860DFF88C07006830F01D
:1007E0001000DFF884170860DFF87C07006830F439
:1007F0000010DFF874170860DFF86C07006830F449
:100800008020DFF8641708600020DFF88418A1F862
:100810008E000020DFF87818C1F8AC0046E0DFF861
:10082000F41BDFF8480703F040FC002803D0DFF892
:10083000E80B03F07FFC0820DFF8401881F8260061
:1008400072B6DFF83808D0E9082311001A00DFF883
:10085000300803F07FFB62B6DFF8180703F016FCE0
:10086000DFF804070068C0F30010002807D0DFF8A5
:10087000F806006830F01000DFF8EC160860DFF8CA
:10088000E806D0F80200C0F3007000280ED0DFF8B0
:10089000D806D0F8020030F08050DFF8CC16C1F84E
:1008A00002000020DFF8E817C1F8C4000020DFF8DC
:1008B000C01608604FF400775FF00008DFF8AC96D0
:1008C00042463900484603F0F3FADFF89C06006818
:1008D00010F00260B0F1026F08D1DFF88C060068FA
:1008E00030F00060DFF880160860ABE101F07FB9FE
:1008F000DFF8F01DDFF8740603F0D7FB002859D0AD
:10090000DFF8E41DDFF8640603F0CFFB0600002EDD
:1009100004D00020DFF87817487203E00120DFF8E8
:10092000701748729DA1DFF8440603F0BEFB060075
:10093000002E04D00020DFF85817887203E0012051
:10094000DFF84C1788720420DFF8301781F8260092
:1009500072B6DFF82807D0E9082311001A00DFF883
:10096000200703F0F7FA62B6DFF8080603F08EFB03
:100970000020DFF8FC1508604FF400775FF00008F6
:10098000DFF8E89542463900484603F091FADFF86F
:10099000D805006810F00260B0F1026F08D1DFF8EE
:1009A000C805006830F00060DFF8BC15086049E158
:1009B00001F01DB9DFF8B005006810F00260B0F179
:1009C000026F3BD1DFF8A005D0F80100C0F38060D2
:1009D000002833D1DFF8B806B0F89000002814D012
:1009E00072B6DFF8AC06B0F89010DFF8900603F0AE
:1009F000C3FC62B6DFF89806B0F890705FF00008AC
:100A000042463900200003F053FADFF85C05D0F8C5
:100A1000020050F00050DFF85015C1F80200DFF876
:100A20004805006830F00060DFF83C150860DFF82A
:100A300040050068DFF85816A1F89400DFF830068A
:100A4000007810F00100002840F0FC80DFF820065C
:100A50000078C0F34010C0B2002800F0F3800020FE
:100A6000DFF80C1508604FF400775FF00008DFF83E
:100A7000FC9442463900484603F01AFAE2E0DFF8F7
:100A8000E8040068C0F38000002800F08980DFF8E7
:100A9000741DDFF8D80403F008FB002850D1DFF8FC
:100AA000681DDFF8C80403F000FB002848D1DFF818
:100AB0005C1DDFF8B80403F0F8FA002840D1DFF835
:100AC000501DDFF8A80403F0F0FA002838D1DFF851
:100AD000441DDFF8980403F0E8FA002830D1DFF86D
:100AE000381DDFF8880403F0E0FA002828D1DFF889
:100AF0002C1DDFF8780403F0D8FA002820D1DFF8A5
:100B0000201DDFF8680403F0D0FA002818D1DFF8C0
:100B1000141DDFF8580403F0C8FA002810D1DFF8DC
:100B2000081DDFF8480403F0C0FA002808D1DFF8F8
:100B3000FC1CDFF8380403F0B8FA002800F08280CB
:100B4000DFF82404006850F08050DFF81C140860BF
:100B5000DFF81404006850F48020DFF80C140860FB
:100B6000DFF80404006830F00400DFF8FC130860CC
:100B70000520DFF81C15A1F89200DFF8EC03D0F88F
:100B8000020030F08050DFF8E013C1F802000020CE
:100B9000DFF8FC14C1F8C40001F029B86F757400C7
:100BA000DFF8C803DFF8C8130968081810F8010C4B
:100BB00009281CD1DFF8B403DFF8B413096808185A
:100BC00010F8020C3A2812D1DFF8A003DFF8A013C6
:100BD0000968081810F8030C312808D1DFF88803D9
:100BE000006850F08040DFF8801308602AE0DFF8EA
:100BF0007803C07910F0010000280ED0DFF86C03F4
:100C0000DFF86C130968081810F8010C002819D1D6
:100C10000020DFF85C13086014E0DFF8540300687C
:100C2000B0F5FF7F0ED90020DFF8441308604FF4C1
:100C300000775FF00008DFF83493424639004846F9
:100C400003F036F9C8480068C0F38040C00740F19F
:100C50000A81C548D0F80200C0F34070C00700F117
:100C60000281DFF82C04B0F89000DFF82414A1F81A
:100C70009400BF480068DFF81814B1F8941010FA17
:100C800081F0B0F5007F25D3B9480068DFF8001483
:100C9000B1F8941010FA81F0A0F2FF1772B6390083
:100CA000DFF8D80303F068FB62B65FF00008B048D5
:100CB0000068201A00F2FF1942463900484603F046
:100CC000F7F840F2FF10AA490968401ADFF8C0138C
:100CD000A1F89400DFF8B803B0F89470DFF8148E30
:100CE000A248A349096811EB00093A004146484669
:100CF00003F0E4F99E480068DFF89413B1F894100B
:100D000010FA81F09A49086099480068012804D1D6
:100D1000964800780D2800F06A87DFF8DC1D9348BC
:100D200003F0C3F900280ED08F48006830F000604F
:100D30008D4908608C48D0F8010030F080608A4905
:100D4000C1F801008FE0CA480078C00700F18B802D
:100D500085480068C0F30070C00700F184808348B4
:100D60000078002800F07F80804800780D287AD134
:100D70007E4840780A2876D1C548D0F89C000228E1
:100D800071D07948D0F8010050F080607649C1F800
:100D90000100B9A1DFF8640D03F087F9060000280F
:100DA0003BD07248301A871CDFF8541DDFF84C0D19
:100DB00003F07BF900280BD0B2496C48381803F0D7
:100DC00074F90600002E03D06848301A801D070011
:100DD00067480068C01B002817D072B664480068D6
:100DE000C11BA64803F0C8FA62B661480068B0EBC0
:100DF00007085FF000095D4817EB000A4A464146C4
:100E0000504603F055F85A4807605748D0F801009B
:100E100030F080605449C1F801005348006850F038
:100E20000060514908605248006840F2FF11884252
:100E300019D14D48D0F80100C0F38060002812D0CD
:100E40004948D0F8010030F080604749C1F80100FE
:100E50004548006830F000604349086040F2FF10E8
:100E60008B49A1F894004048006810F00260B0F58A
:100E7000001F40F0D3827E48007850F001007C498A
:100E800008708348D0F8A8008149B1F8941010FA8E
:100E900081F07F49C1F8A800DFF85C1C33487C4A28
:100EA000B2F892201018401F03F0FFF80600002E41
:100EB00000F0F8802D482E490968081810F8020C37
:100EC0000D2840F0EF80294829490968081810F8D2
:100ED000010C0A2840F0E680DFF8181D234803F0D3
:100EE000E4F8060000281BD0F07E00280DD01F4833
:100EF000371A1F48006817F11B01B0EB010872B6E2
:100F000041465E4803F038FA62B65948407850F0DE
:100F10000100574948700D205D4981F8D80047E02D
:100F2000DFF8E014114803F0C0F80600002823D0D1
:100F3000F07D00280DD00D48371A0D48006817F1D4
:100F40001701B0EB010872B641464C4803F014FAA1
:100F500062B601204E494E4A527912F00F025118E2
:100F600081F8D90024E000BF10270020941E002043
:100F70004C27002010250020DFF87C1CDFF87C0CBB
:100F800003F093F80600002812D0F07D00280FD05F
:100F9000DFF8680C371ADFF8680C006817F11701E2
:100FA000B0EB010872B64146344803F0E5F962B689
:100FB00000203749C1F8A80000203549C1F8980041
:100FC00000203349C1F89C0005203149A1F8920066
:100FD000DFF8300C006830F40010DFF8281C0860DF
:100FE000DFF8200C006830F01000DFF8181C0860F3
:100FF000DFF8100C006830F48020DFF8081C08606F
:1010000000201B4948601A48007810F0FE0018497B
:101010000870DFF8F00B0068C0F3C040002815D05E
:10102000DFF8E00B006830F40020DFF8D81B086020
:1010300000201749C1F8A000DFF8C80B006850F085
:101040000100DFF8C01B086002F0C6FDDFF8B00B3E
:1010500007685FF00008DFF8A49B42463900484665
:1010600002F026FF0020DFF8981B086000F0BFBDEB
:10107000BC26002030B700080D0A0000F024002034
:101080000425002038B7000840B70008A8B60008BB
:101090002422002030EBFFFFB02FFFFF2427002089
:1010A00032220020DFF8580B0068062808D3002EF3
:1010B00006D1DFF84C0B0068DFF8501BA1F8920056
:1010C000DFF8480BD0F8A800DFF8401BD1F89C10DF
:1010D0008842C0F02081DFF8340BD0F89C00DFF8A4
:1010E0002C1BD1F8A810884225D2DFF8200BD0F8AD
:1010F000A800DFF8181BD1F89C10471A72B6390007
:10110000DFF8340E03F038F962B65FF00008DFF85C
:10111000EC0ADFF8EC1A0968C91B11EB000942461A
:101120003900484602F0C4FEDFF8D40A0068C01B4C
:10113000DFF8CC1A0860DFF8C80A0068DFF8CC1ABC
:10114000A1F88E00DFF8C40AD0F89C00DFF8BC1AC2
:10115000C1F8AC00DFF8A80A0768DFF8A08ADFF85A
:10116000B09A3A004146484602F0A8FF0020DFF856
:10117000901A08600020DFF8941AC1F8A800002037
:10118000DFF8881AC1F898000020DFF8801AC1F84B
:101190009C000020DFF8741AA1F894000520DFF805
:1011A0006C1AA1F89200DFF85C0A006830F0006069
:1011B000DFF8501A0860DFF84C0A006830F480202D
:1011C000DFF8401A0860DFF8440AC07850F00700E2
:1011D000DFF8381AC870DFF82C0A0068C0F3C04086
:1011E000002830D00020DFF8241AC1F8A000DFF872
:1011F0001C0A407810F0C700DFF8101A4870DFF8BA
:10120000140A4068002806D0DFF8080A4068401E2B
:10121000DFF8001A4860DFF8FC094068002809D1AF
:10122000DFF8E009006850F00100DFF8D819086025
:1012300002F0D2FCDFF8CC09006830F48000DFF85F
:10124000C41908601CE0DFF8BC09006850F4800095
:10125000DFF8B0190860DFF8B4090078C0B2C00840
:10126000DFF8A819497860F3C501DFF8A0094170DB
:10127000DFF8A009007850F00200DFF89819087034
:10128000DFF88009006830F40010DFF87819086092
:10129000DFF88009007810F0FE00DFF87819087098
:1012A00001F0E1FFDFF85C090068C0F3C0400028EE
:1012B0001AD0DFF85009D0F8010050F08050DFF864
:1012C0004419C1F80100DFF83C09006830F0100053
:1012D000DFF830190860DFF82C09006830F40020CE
:1012E000DFF82019086009E0DFF81809D0F80100DC
:1012F00050F00060DFF80C19C1F801004FF40077DE
:101300005FF00008DFF8F49842463900484602F0E2
:10131000CFFD00F06CBCDFF8E8080068B0F5FF7F97
:101320006DD90520DFF8E418A1F89200DFF8DC0899
:10133000D0F89C00DFF8D418C1F8AC0040F2FF10E0
:10134000DFF8C818A1F88E00DFF8B4080768DFF8E6
:10135000AC88DFF8BC983A004146484602F0AEFE41
:101360000020DFF89C1808600520DFF8A018A1F81D
:101370009200DFF89808C07850F00700DFF88C186A
:10138000C87001F070FF4FF400795FF0000ADFF8D9
:101390006CB852464946584602F08AFDDFF86408A8
:1013A0000068C0F3C040002812D0DFF86008407821
:1013B00010F0C700DFF854184870DFF84808D0F87C
:1013C000010050F08050DFF83C18C1F8010016E031
:1013D000DFF838080078C0B2C008DFF83018497864
:1013E00060F3C501DFF824084170DFF81808D0F871
:1013F000010050F00060DFF80C18C1F80100F6E3BE
:1014000048B700081CB2000890AB0008F0AD000817
:1014100034AD000850B7000844AF0008DFF8E40717
:101420000068C0F30070002800F00282DFF8E407D3
:10143000007850F00100DFF8DC170870DFF8D817EB
:10144000DFF8B807DFF8C427B2F892201018401F61
:1014500002F02BFE0600002800F0AB80F079002897
:1014600023D0DFF89807371ADFF894070068B91D12
:10147000B0EB010872B64146DFF8BC0A02F07CFF0F
:1014800062B65FF00009DFF87407381810F1070A38
:101490004A464146504602F00BFDDFF864070068FB
:1014A000B0EB0800DFF858170860DFF85407006851
:1014B000DFF85817A1F88E00DFF844070768DFF857
:1014C0003C87DFF84C973A004146484602F0F6FD6B
:1014D000DFF82C070068DFF83417A1F88A00DFF87E
:1014E0003407407850F00100DFF828174870DFF823
:1014F0001407006830F48020DFF808170860DFF870
:101500000407006830F08050DFF8F816086001F03A
:10151000AAFE0020DFF8F41681F8D800DFF8F40600
:10152000007810F0FE00DFF8EC160870DFF8D40643
:10153000006830F00060DFF8CC160860DFF8C40601
:10154000006830F01000DFF8BC1608600520DFF8F6
:10155000BC16A1F89200DFF8A806D0F800905FF062
:10156000000ADFF898B652464946584602F0A0FCF9
:101570000020DFF88C160860DFF888060068C0F3EA
:10158000407000280AD0DFF87C06D0F8020050F046
:101590000070DFF87016C1F802009BE0DFF8640607
:1015A000D0F8020050F08070DFF85816C1F8020041
:1015B00090E0DFF8841BDFF84406DFF85026B2F82D
:1015C00092201018401F02F070FD0600002800F065
:1015D0008180DFF83006006830F48020DFF82416C0
:1015E0000860DFF81806DFF818160968081810F800
:1015F000020C0D286ED1DFF80406DFF80416096826
:10160000081810F8010C0A2864D1DFF808064078A1
:1016100050F00100DFF8FC1548700D20DFF8EC15E4
:1016200081F8D800DFF8EC05007810F0FE00DFF854
:10163000E4150870DFF8CC05006830F48020DFF88E
:10164000C4150860DFF8BC05006830F00060DFF802
:10165000B41508600020DFF8A81508600520DFF841
:10166000AC15A1F89200DFF89C05006830F08050BE
:10167000DFF890150860DFF88C05006830F0100086
:10168000DFF8801508604FF400775FF00008DFF89E
:101690006C9542463900484602F00AFCDFF86405C2
:1016A0000068C0F3407000280AD0DFF85805D0F871
:1016B000020030F00070DFF84C15C1F8020009E0BC
:1016C000DFF84005D0F8020030F08070DFF8341504
:1016D000C1F80200DFF828050068062806D30120BB
:1016E00005E000BF58B7000860B700080020002ED2
:1016F00001D1012100E00021C0B2084206D0DFF88C
:1017000000050068DFF80415A1F89200DFF8F00486
:10171000006840F2FF11884272D1DFF8E4040068EB
:101720000A90DFF8D8040990DFF8E4740A9A09995E
:10173000380002F0C3FC06200890DFF8000A07908A
:10174000DFF8FC79089A0799380002F0B7FC062008
:10175000069000200590DFF8E479059A0699380094
:1017600002F0A6FB4FF40070049000200390DFF815
:101770008C74039A0499380002F09AFB0627DFF86C
:10178000C089DFF878943A004146484602F096FC5A
:101790005FF006095FF0000ADFF8A4B95246494637
:1017A000584602F085FB0620DFF854140860052037
:1017B000DFF85814A1F8920040F2F910DFF84C1449
:1017C000A1F88A0001F04FFDDFF838040068C0F38B
:1017D000407000280AD0DFF82C04D0F8020050F046
:1017E0000070DFF82014C1F8020009E0DFF81404EB
:1017F000D0F8020050F08070DFF80814C1F8020041
:10180000F5E100BF68B7000870B70008E0B3000852
:1018100078B70008F4B30008B0B50008C0B50008F8
:1018200034B2000860B0000808B400084CB20008E8
:10183000DFF8D003006810F09040B0F1804F40F026
:101840008281DFF8B803DFF8B8130968081810F8C8
:10185000020C0D2840F06481DFF8A003DFF8A0132C
:101860000968081810F8010C0A2840F05981DFF8BF
:10187000D40802F0DEFDDFF89403407BDFF88C1320
:10188000097B884280F0DA80DFF8BC18DFF86C034F
:1018900002F00BFC0600002E10D0B0798DF800008D
:1018A000F0798DF801009DF800000A219DF80120D3
:1018B00001FB00201038DFF894180870DFF88C085E
:1018C0000078DFF88C180968D04A527B2C2303FB80
:1018D00002110870DFF87C18C84802F0E6FB060029
:1018E000002E0FD0F0798DF80000307A8DF80100CD
:1018F0009DF800000A219DF8012001FB0020B0F5B1
:1019000004700290DFF848080068C049497B2C2227
:1019100002FB0100029949424160DFF83C18B748D8
:1019200002F0C3FB0600002E26D00720DFF82C189B
:101930000870DFF828080078805D27281CD0DFF8C1
:1019400010080068B149497B2C2202FB0100DFF836
:101950000C1809780818DFF804180978895D4170B7
:10196000DFF8F8070078401CDFF8F0170870DFF8A0
:10197000EC0700782328DCD1DFF8E4179F4802F059
:1019800094FB0600002E0BD0DFF8C40700689F49C7
:10199000497B2C2202FB0100012180F826100AE07D
:1019A000DFF8AC0700689949497B2C2202FB010053
:1019B000002180F82610DFF8AC17904802F075FB84
:1019C0000600002E0BD0DFF8880700688F49497B9E
:1019D0002C2202FB0100012180F827100AE0DFF829
:1019E000700700688949497B2C2202FB0100002115
:1019F00080F82710DFF87017804802F056FB0600C9
:101A0000002E0BD0DFF8480700688049497B2C2264
:101A100002FB0100012180F828100AE0DFF83007FE
:101A200000687A49497B2C2202FB0100002180F8E2
:101A300028107648407B401C74494873DFF8F8163C
:101A40006E4802F032FB0600002E24D04FF40077DF
:101A50005FF00008DFF8A49142463900484602F0E2
:101A600027FA0020664908606A48407850F0010073
:101A7000684948706348006830F0804061490860F8
:101A80006048006830F480605E4908600D205F495E
:101A900081F8D800ABE0DFF8D416584802F005FB17
:101AA00000282FD05748006830F4806055490860FE
:101AB0000020564948730020514908605548407835
:101AC00050F00100534948704E48006830F08040A3
:101AD0004C49086000204D4981F8D8004FF4007748
:101AE0005FF00008DFF8149142463900484602F0E2
:101AF000DFF97CE0941C002080B70008961E0020CF
:101B0000B4B6000800203E4908604FF400775FF04B
:101B10000008DFF8E89042463900484602F0C8F96C
:101B200037480068B0F5FF7F0DD9002034490860C0
:101B30004FF400775FF00008DFF8C09042463900AC
:101B4000484602F0B5F92F48006810F04060B0F147
:101B5000806F4CD12CA002F0EDFADFF81416274864
:101B600002F0A3FA060000282DD02648006830F4C1
:101B7000802024490860214821490968081810F884
:101B8000020C0D281FD11D481D490968081810F8BE
:101B9000010C0A2817D1DFF8DC0502F0CBFA19484E
:101BA000006830F080601749086000201449086020
:101BB0004FF400775FF00008DFF8409042463900AC
:101BC000484602F075F90E48006840F2FF1188425D
:101BD0000DD100200A4908604FF400775FF000083B
:101BE000DFF8189042463900484602F061F90BB020
:101BF000BDE8F08F7CB0000864B20008941E00209D
:101C00004C270020102700202A000000242200205A
:101C1000941A0020BC26002038B700082DE9FC47A4
:101C20000400250026004FF0FF08002E00F08182FE
:101C3000DFF84415280002F038FA0600002E00F004
:101C4000788270798DF80400B0798DF805009DF8E0
:101C500005003A2804D19DF80400303880460BE096
:101C60009DF804000A2110FB01F09DF8051050FAC0
:101C700081F0B0F504708046AF4880F820800120E4
:101C8000AD4981F826000FFA88F84046002803285D
:101C900040F22B82001F012840F24182801E012861
:101CA00040F22382801E012840F23982801E00F01B
:101CB0002982401E012840F23282801E012840F213
:101CC0001482801E00F02B82401E032840F20D82F9
:101CD000001F00F02482401E00F00782401E0128F1
:101CE00040F21D82C01E00F00082401E012840F21A
:101CF0001682801E00F09F81801E00F0F681401E3B
:101D0000012840F20C82801E012840F2EE81801EE4
:101D1000012840F20482801E00F0E781401E00F09E
:101D2000FE81401E00F0E181401E042840F2F78150
:101D3000401F012840F2D981001F052840F2D581BB
:101D4000801F20D0801E00F0AA81401E2FD0401E90
:101D500000F01381401E00F02C81401E012840F24B
:101D60009281C01E31D0801E00F0BF81401E00F065
:101D7000A681401E00F0AE81001F00F07081801E21
:101D800000F0B381CCE1DFF8F413280002F08DF904
:101D9000060070798DF800009DF80000664991F802
:101DA000211060F30301644880F82110B8E1B07D90
:101DB0008DF800009DF800005F4991F8211060F354
:101DC00003015D4880F82110AAE1DFF8B403006840
:101DD000C00F002804D0DFF8AC0302F0ABF9A8E193
:101DE000DFF89C03D0F80100C0F30060002805D0A4
:101DF0000020DFF89413C1F8A40011E0DFF880039D
:101E0000006850F01000DFF878130860DFF8700306
:101E1000D0F8010050F08070DFF86413C1F80100C1
:101E2000DFF85813280002F040F90600002E00F0F9
:101E3000A38070798DF800009DF8000030383E498D
:101E400081F82200307A8DF80000707A8DF8010058
:101E5000B07A8DF80200F07A8DF803009DF800004A
:101E60003A2806D1F0798DF80000307A8DF801001B
:101E70002EE09DF801003A2809D1F0798DF8000094
:101E8000307A8DF80100707A8DF8020020E09DF81C
:101E900002003A280CD1F0798DF80000307A8DF8E4
:101EA0000100707A8DF80200B07A8DF803000FE01F
:101EB0009DF803003A280BD1F0798DF80000307AB4
:101EC0008DF80100707A8DF80200B07A8DF8030069
:101ED0009DF801003A2805D19DF8000030381649D8
:101EE000888444E09DF802003A280DD19DF8000056
:101EF0000A2110FB01F09DF8011050FA81F0B0F5B5
:101F000004700D49888432E09DF803003A2815D109
:101F10009DF80000642110FB01F09DF801100A22D9
:101F200011FB02009DF8021050FA81F041F2D041FD
:101F3000401A014988841AE0F02400209DF800002E
:101F40004FF47A7110FB01F09DF80110642211FB2F
:101F500002009DF802100A2211FB02009DF80310F6
:101F600050FA81F000F53C50B030884988848848A8
:101F70004068401C86494860D2E08548007850F0AF
:101F80008000834908708248007810F0DF008049A3
:101F9000087000207E4948607948006830F00200EF
:101FA000774908607648006850F00040744908603E
:101FB000B6E07748007810F07F00754908707448E3
:101FC000007850F02000724908706D48006830F0C9
:101FD00002006B4908606A48006850F00040684998
:101FE000086067480078C00708D569480078C0B223
:101FF000C009C0B2002801D101F0EEFD60480068C0
:10200000C0F3C040002815D005205F49A1F8920018
:102010005B48006850F480205949086058480068BF
:1020200050F40010564908605748D0F8A0005649AF
:10203000C1F89C0074E05749280002F036F8060009
:1020400011200700222F06DAB85D4F49791881F870
:102050003E007F1CF6E70B204D49C87560E04E49F5
:10206000280002F022F8060011200700222F06DACD
:10207000B85D4549791881F83E007F1CF6E70C20D1
:102080004349C8754CE03E480068C00F002805D0A1
:102090003B480068400040083949086040E00020A3
:1020A0003E4908703648006830F002003449086044
:1020B0003348006850F000403149086030E00A20A1
:1020C000324981F826002E48C07950F001002C4991
:1020D000C87125E009202D4981F826002848C079DB
:1020E00010F0FE002649C8711AE02548006830F05B
:1020F0000200234908602248006850F0004020494F
:1021000008600DE01E480068C0F30010002805D0EC
:102110001B48006830F010001949086000E0FFE734
:102120004FF400795FF0000A52464946280001F05A
:10213000BFFEBDE8F387000048B700088D1C0020F3
:102140002C2700203C03002088B700085C270020D3
:102150004827002090B7000898B700085B270020A8
:10216000A0B70008A8B70008B0B70008B8B70008C3
:10217000C0B600081CB4000830B70008C0B700089B
:1021800010270020C8B7000824220020F0240020D7
:10219000BC260020CCB60008D8B60008582700207E
:1021A00070B54FF48061DFF8900201F0D5FFDFF8E1
:1021B0008C02407810F0F100DFF8801248700020A7
:1021C0009F49087000F022F900F08AF800F016F834
:1021D00032219C4801F0A0FE01F02EF808240025D1
:1021E000994E2A002100300001F062FE974802F06B
:1021F00059F9002801D001F07DFC70BD8F480078AE
:1022000050F008008D4908708C48007850F080002C
:102210008A4908708948007810F0BF008749087023
:102220008648407810F0F1008449487000208349C6
:10223000487400208149C8740020804988740020B7
:102240007E4948607D48407810F0FE007B49487028
:10225000FF207A49C875022078490875022077491D
:10226000487500207549887500207449C860784811
:10227000006850F00100764908607548006850F029
:102280000200734908607248D0F8020030F08050B4
:102290006F49C1F802006E48C07910F0DF006C4948
:1022A000C8716B48807950F00100694988716848AD
:1022B000C07910F0EF006649C8716548C07910F028
:1022C000BF006349C8716248C07910F07F0060495F
:1022D000C8715F48007A10F0FE005D4908727047CF
:1022E00070B55C48C07910F0C7005A49C871002029
:1022F0005849C1F8A40000205649C1F898000020B0
:102300005449C1F8A00000205249C1F8B000002093
:102310005049C1F8A80000204E49A1F890000020C3
:102320004C49C1F8B40000204A49C1F8BC00002063
:102330004849C1F8C000002046494873002045497B
:10234000C1F8C40000204349A1F88C000520414990
:10235000A1F892004FF4006400253F4E2A002100AE
:10236000300001F0A5FD70BD80B5002000903B4815
:10237000006850F00400394908603848006810F0DF
:10238000040000900098002000903448006850F04D
:102390000100324908603148006810F001000090E7
:1023A00000984FF480502449086301202249486373
:1023B00001202149886303201F49C863284929480F
:1023C00002F09AF900201E490870FF201B49C875C9
:1023D00000224FF48051234802F013FBC82002F082
:1023E00069FB01224FF480511E4802F00AFB3220A3
:1023F00002F060FB4FF480511A4802F060FA0F4877
:10240000C07D0E2801D000BFF9E701BD80B50022D4
:102410004FF48051144802F0F4FA01221349144891
:1024200002F092FC002805D10948006850F40050E1
:102430000749086001BD0000F0240020BC260020F0
:10244000582700200425002024270020B425002040
:102450001027002024220020000C002030380240E9
:1024600020250020000802400000024072220020C7
:10247000742500202DE9F04182B004000025DFF82A
:10248000F40D0068C0F30010002840F05F8472B6BD
:10249000DFF8F40D01F0A9FDDFF8F01D886262B6E7
:1024A000DFF8E80D806A002800F05084DFF8DC0DCA
:1024B000806A807901283BD0022800F02B84032811
:1024C00000F02884042800F02584062800F0FD8010
:1024D000082800F00D84092800F02F840A2800F055
:1024E0002B840C2800F021830D2800F07E830E2819
:1024F00000F091820F2842D0102800F09A81142811
:1025000000F04F81152800F01082162800F083801B
:10251000172800F0CE811B2800F08A811C2800F0CB
:1025200059821D280BD0242800F0A58300F00EBC92
:10253000DFF8580D806A00F0FFFF00F007BCDFF8FD
:102540004C0D806A407810F00F00DFF8441D0978C8
:1025500060F30201DFF8380D01700020DFF8341D50
:102560008875DFF8300D407850F00100DFF8241D49
:1025700048700020DFF8181D81F8D800E6E3DFF886
:10258000100DC07910F0C701083010F03800084372
:10259000DFF8FC1CC871DFF8F80CC079C0F3C2008A
:1025A000C0B209280DDBDFF8EC0C407850F00100D8
:1025B000DFF8E01C48700420DFF8D41C81F8D80054
:1025C000C4E30120DFF8D01DDFF8C02C926A5278F6
:1025D00012F00F025054DFF8B40C806A407810F00B
:1025E0000F00DFF8AC1C097860F30201DFF8A00CE3
:1025F00001700020DFF89C1C8875DFF8980C40788B
:1026000050F00100DFF88C1C48700020DFF8801CBF
:1026100081F8D8009AE3DFF8780C007A10F0F8011E
:10262000401C10F007000843DFF8641C0872DFF854
:10263000440CD0F8020030F08050DFF8381CC1F8AC
:1026400002000020DFF8481CC1F8C400DFF8400C8D
:10265000007A10F0070005280DDBDFF8380C407811
:1026600050F00100DFF82C1C48700420DFF8201C1B
:1026700081F8D8006AE30120DFF8201DDFF80C2C78
:10268000926A527812F00F025054DFF8000C806A00
:10269000407810F00F00DFF8F81BC97960F30201F1
:1026A000DFF8EC0BC1710020DFF8E81B8875DFF85C
:1026B000E40B407850F00100DFF8D81B4870002090
:1026C000DFF8CC1B81F8D80040E301F004FADFF812
:1026D000C00BC07A012811D1DFF8B40BD0F8B800D4
:1026E0000090DFF8AC0B436EDFF8A40B026EDFF84E
:1026F000BC1CDFF8500D01F0A1FB15E0DFF8900BDA
:10270000C07A002810D1DFF8880BD0F8B80000900C
:10271000DFF87C0B436EDFF8780B026EDFF8901C5D
:10272000DFF8200D01F08AFBDFF8180D01F0A0FBA7
:1027300080B201F0E6F90500EDB2002D23D10020B2
:10274000DFF84C1BC1F8C400DFF8280BD0F80200FA
:1027500050F08050DFF81C1BC1F80200DFF8140BAA
:10276000006850F01000DFF80C1B0860DFF8040B65
:10277000006850F00400DFF8FC1A08600620DFF85B
:10278000141B88750CE00D20DFF8041B81F8D800BD
:10279000DFF8000B407850F00100DFF8F81A4870BD
:1027A000D4E201F098F9DFF8E80AB0F88430DFF8F5
:1027B000E00A807810F00702DFF8B81CDFF8840C1C
:1027C00001F03CFBDFF87C0C01F052FB80B201F021
:1027D00098F90500EDB2002D19D101F07CF9DFF870
:1027E000B00AB0F88460DFF8A80AD0F88070DFF88B
:1027F000548C32003900404601F060FC72B6DFF8BC
:10280000900AB0F8840001F07CF9050062B6EDB2E0
:10281000002D0CD0DFF87C0A407850F00100DFF882
:10282000741A48700D20DFF8681A81F8D8008DE21C
:102830008CE201F050F9DFF8580AC06E0090DFF822
:10284000500AD0F8B830DFF8480A026EDFF8BC1C36
:10285000DFF8F00B01F0F2FADFF8E80B01F008FB0B
:1028600080B201F04EF90500EDB2002D0DD0DFF879
:10287000240A407850F00100DFF8181A48700D2043
:10288000DFF80C1A81F8D80012E01020DFF8041AE3
:1028900088750020DFF8F819C1F8C400DFF8D40902
:1028A000D0F8020050F08050DFF8C819C1F80200DB
:1028B0004CE201F010F9DFF8D809C36EDFF8D00957
:1028C000D0F8B820DFF8481CDFF8780B01F0B6FA32
:1028D000DFF8700B01F0CCFA80B201F012F90500BC
:1028E000EDB2002D0DD0DFF8AC09407850F00100BA
:1028F000DFF8A01948700D20DFF8941981F8D8008E
:1029000012E01720DFF88C1988750020DFF8801995
:10291000C1F8C400DFF85C09D0F8020050F0805024
:10292000DFF85019C1F8020010E2DFF86C0ADFF896
:102930005C19896A497811F00F01085C002844D0BD
:1029400001F0C9F8DFF84409806A407810F00F02FE
:10295000DFF8C01BDFF8EC0A01F070FADFF8E40AD8
:1029600001F086FA80B201F0CCF80500EDB2002D3E
:102970002FD10020DFF8181981F8D800DFF8F4080B
:10298000006850F01000DFF8EC180860DFF8FC0871
:10299000806A407810F00F00DFF8F418497960F38E
:1029A0000301DFF8EC084171DFF8E808407850F0E7
:1029B0001000DFF8E0184870DFF8D808007850F011
:1029C0000200DFF8D018087003E0DFF84C0B01F0CC
:1029D000B1FBBBE101F07FF8DFF8401BDFF8640AD0
:1029E00001F02CFADFF85C0A01F042FA80B201F043
:1029F00088F80500EDB2002D0CD10020DFF890180A
:102A000081F8D800DFF86C08006850F01000DFF89B
:102A1000641808609AE101F05EF8DFF87408B0F815
:102A20008430DFF86C08026FDFF8F41ADFF8140A5C
:102A300001F004FADFF80C0A01F01AFA80B201F092
:102A400060F80500EDB2002D0DD0DFF848084078A1
:102A500050F00100DFF83C1848700D20DFF8301806
:102A600081F8D80060E000F0EFFC0500EDB2002D29
:102A70000CD0DFF82008407850F00100DFF814187F
:102A800048700D20DFF8081881F8D800DFF800083A
:102A9000B0F88430DFF8F807026FDFF8881ADFF843
:102AA000A40901F0CBF9DFF89C0901F0E1F980B24B
:102AB00001F027F80500EDB2002D0CD0DFF8D407A7
:102AC000407850F00100DFF8CC1748700D20DFF897
:102AD000C01781F8D80000F0FEFFDFF8B407B0F8A7
:102AE0008460DFF8AC07D0F88070DFF858893200D6
:102AF0003900404601F0E2FADFF8480901F0B8F980
:102B000080B200F0FEFF0500EDB2002D0CD0DFF822
:102B10008407407850F00100DFF8781748700D20E6
:102B2000DFF86C1781F8D80010E100F0D4FFDFF86F
:102B30006007006F002806D1DFF8EC19DFF8040900
:102B400001F07CF91FE0DFF84807006E002809D18A
:102B5000DFF83C07026FDFF8D419DFF8E80801F06E
:102B60006DF910E0DFF82807D0F8B8000090DFF822
:102B70002007036FDFF81807026EDFF8B419DFF8DB
:102B8000C40801F05BF9DFF8BC0801F071F980B20C
:102B900000F0B7FF0500EDB2002D18D1DFF8D40624
:102BA000006850F00050DFF8CC160860DFF8C4066B
:102BB000006850F48020DFF8BC160860DFF8B40627
:102BC000006850F08050DFF8AC1608600CE0DFF8C9
:102BD000C406407850F00100DFF8B81648700D20A8
:102BE000DFF8AC1681F8D800B0E000F074FFDFF831
:102BF000A00690F97C0010F1010F23D1DFF89006B8
:102C000090F97D0010F1010F1CD1DFF88406006FF0
:102C1000002804D0DFF87806406F002812D1DFF8D2
:102C20007006006F00280DD0DFF86406406F0028A2
:102C300008D1DFF85C06026FDFF8F818DFF8040847
:102C400001F0FCF8DFF8FC0701F012F980B200F0A7
:102C500058FF0500EDB2002D0CD0DFF838064078A3
:102C600050F00100DFF82C1648700D20DFF8201618
:102C700081F8D8006AE000F02EFFDFF81406D0F8E3
:102C8000B8000090DFF80806036FDFF80406026E54
:102C9000DFF8F01CDFF8AC0701F0D0F8DFF8A4078C
:102CA00001F0E6F880B200F02CFF0500EDB2002D37
:102CB00010D1DFF8C005006850F08060DFF8B4156F
:102CC0000860DFF8B005006850F48020DFF8A41534
:102CD00008600CE0DFF8BC05407850F00100DFF838
:102CE000B41548700D20DFF8A81581F8D8002DE044
:102CF000DFF8A005407850F00100DFF89815487023
:102D00000D20DFF88C1581F8D8000020DFF884153D
:102D100088751BE0DFF87C05407850F00100DFF893
:102D2000741548700020DFF8681581F8D80000207D
:102D3000DFF86015887509E008E0DFF838050068FD
:102D400050F04000DFF82C150860FFE7DFF824059D
:102D50000068C0F3004000280FD0DFF818050068B5
:102D600030F48030DFF80C150860DFF82405D0F867
:102D7000980080B202F0DBFD39E1DFF8F80400686A
:102D8000C0F38050002812D0DFF808050078C0F3A7
:102D9000C000C0B200280AD0DFF8D804006830F4C0
:102DA0008000DFF8D014086002F00BFE1FE1DFF8AE
:102DB000C404D0F80100C0F3C06000282CD0DFF8B4
:102DC000B404D0F8010030F00060DFF8A814C1F8B6
:102DD0000100DFF8BC04B0F88E000090DFF8B0040A
:102DE000D0F8AC30DFF8F82BDFF8A4044078C0F35B
:102DF000C200010049B25FF0FF3003F074FA4FF4F3
:102E000000760027DFF8D88B3A003100404601F009
:102E10004FF800F031FAEAE0DFF85804D0F801008A
:102E2000C0F30070002831D0DFF84804D0F801006A
:102E300030F08050DFF83C14C1F80100DFF8500496
:102E4000B0F88E000090DFF84804D0F8AC30DFF81E
:102E5000902BDFF83C044078C0F3C200010049B277
:102E6000DFF82C0490F9030040F3020040B203F0B5
:102E70003AFA4FF400760027DFF8648B3A0031000D
:102E8000404601F015F800F0F7F9B0E0DFF8E40390
:102E9000D0F80100C0F3807000281CD0DFF8F804DF
:102EA000DFF8EC13897911F00701085C002807D0DE
:102EB0000221DFF8DC03807910F0070000F0C3FD89
:102EC000DFF8B003D0F8010030F08040DFF8A41341
:102ED000C1F801008BE0DFF89C03D0F80100C0F3DB
:102EE0004070002813D00221DFF8F80A03F024FA1A
:102EF0000220DFF8A0130875DFF87803D0F801008E
:102F000030F00050DFF86C13C1F801006FE0DFF81B
:102F10006403D0F80200C0F3006000282AD0DFF874
:102F20005403D0F8020030F08070DFF84813C1F885
:102F30000200DFF840030068C0F34070002804D0AE
:102F4000DFF89C0A00F079FF07E0DFF84403B0F8EF
:102F50008A10DFF88C0A00F06FFF4FF4007600272C
:102F6000DFF87C8A3A003100404600F0A1FF00F013
:102F700083F93CE0BF48D0F80200C0F3406000286D
:102F800018D0DFF85C0A00F058FF4FF400760027F5
:102F9000DFF84C8A3A003100404600F089FF00F02B
:102FA0006BF9B448D0F8020030F00070B149C1F8B4
:102FB00002001CE0AF480068C0F38030002808D051
:102FC00000F038FFAB48006830F48040A949086041
:102FD0000DE0A8480068C0F3C030002807D000F01A
:102FE0002AFFA448006830F40040A2490860A948BC
:102FF000C07D002800F09380012800F0978002280F
:1030000000F09B80032800F09F80042800F0A3803C
:10301000052800F0A780062800F0B280072800F0FD
:10302000B680082800F0BA8009284AD00A2854D06F
:103030000B2858D00C285ED00D2800F09A800E285E
:103040002BD00F2800F0F680102800F0AE80112859
:1030500000F0B980122800F0BD80132800F0C18074
:10306000142800F0E780152800F0A680162800F04C
:10307000BF80172800F0C380182800F0C7801928E7
:1030800000F0CB801A2800F0CF801B283BD01C28F2
:103090003FD0FF2800F0CE80CCE07E484078C0F3DF
:1030A0004200C0B202280BD17A48407810F0F101FA
:1030B000801C10F00E0008437649487003F04CF96C
:1030C000B8E0DFF8DC090078002805D10120DFF83E
:1030D000D019087003F048F9ACE000F0A6FEFF201C
:1030E0006C49C875A6E0DFF8BC0900F09FFEFF2020
:1030F0006849C8759EE0DFF8AC0900F098FEFF2033
:103100006449C87596E003F037F9FF206149C87536
:1031100090E003F031F9FF205E49C8758AE0FF2096
:103120005C49C875112000F07EFE83E0FF205949FC
:10313000C875142000F077FE7CE0FF205549C87563
:10314000132000F070FE75E0FF205249C87515206D
:1031500000F069FE6EE0FF204E49C875162000F0B1
:1031600062FE67E0FF204B49C8751B2000F05BFE44
:1031700060E0FF204749C8751C2000F054FE59E06C
:10318000FF204449C875172000F04CFE52E0FF2094
:103190004049C875122000F045FE4BE0FF203D4934
:1031A000C875182000F03EFE44E0FF203949C8757C
:1031B0001D2000F039FE3DE0FF203649C8751E2075
:1031C00000F032FE36E0FF203249C875192000F0C9
:1031D0002BFE2FE0FF202F49C8751A2000F024FE97
:1031E00028E0FF202B49C875062000F01DFE21E0D5
:1031F000FF202849C8751F2000F01AFE1AE0FF20A2
:103200002449C875202000F013FE13E0FF20214957
:10321000C875212000F00CFE0CE0FF201D49C87588
:10322000222000F005FE05E0FF201A49C87500F0D5
:1032300000FEFFE7BDE8F3810020164988601548CD
:10324000007850F0040013490870704700201149BD
:1032500088601048007810F0FB000E4908700120CB
:103260000C49487470470B48007810F0F700094982
:1032700008707047102700200648007850F00800BA
:10328000044908707047000004250020F024002045
:1032900024220020BC26002080B5DFF89C0900789D
:1032A000C0F38000C0B2002809D0DFF88C09007894
:1032B000C0F3C000C0B2002801D000F0E2F8DFF88F
:1032C000DC09D0F80200C0F38060002811D0DFF8DC
:1032D000200800F053FF00280BD0DFF8C009D0F819
:1032E000020030F08060DFF8B419C1F80200FFF787
:1032F0008DF8DFF8A8090068C0F34010002819D045
:10330000DFF8B408D0F8C000411CDFF8AC28C2F8E0
:10331000C01040F26C7188420CD3DFF8800900685D
:1033200030F02000DFF8741908600020DFF88818FA
:10333000C1F8C000DFF86409D0F80200C0F3C06033
:10334000002828D0DFF87008D0F8BC00411CDFF856
:103350006828C2F8BC10B0F5FA6F1CD3DFF83C093E
:103360000068C0F30020002808D0DFF830090068AA
:1033700050F48070DFF8241908600AE0DFF81C09B7
:103380000068C0F30020002803D11B20DFF8A81834
:10339000C87500F013FC01BD24270020542700202D
:1033A0000121DFF89428D17470470000BCB10008F7
:1033B000D4B1000810B50400DFF8E008006830F46C
:1033C0000050DFF8D8180860FFF740FF72B6DFF84A
:1033D0005418DFF81C0700F0E7FE62B6FFF72CFF79
:1033E000DFF80C0700F0C2FE002811D0DFF8AC08AF
:1033F000D0F8020050F08060DFF8A018C1F8020099
:1034000001224FF48051DFF8280801F0FAFA17E0A2
:10341000DFF888080068C0F30030002810D10122CE
:10342000DFF80018DFF80C0801F08EFC002807D147
:10343000DFF86808006850F40050DFF86018086092
:1034400010BD000000040020DFF8DC07407810F019
:103450000100002801D100BFF6E7DFF8CC07407873
:1034600010F0FE00DFF8C0174870DFF84C0790F846
:10347000D800704768B3000810B5040000F03AFBAC
:1034800010BD80B572B6DFF8680600F0ACFEDFF85C
:103490002817886762B6DFF82007806F002804D0FD
:1034A000DFF81407806FFCF7ADFEDFF8F007D0F807
:1034B0000100C0F30060002825D0DFF8FC06D0F83A
:1034C000A400401CDFF8F016C1F8A400DFF8E806FD
:1034D000D0F8A400332816D30020DFF8DC16C1F89A
:1034E000A400DFF8B807D0F8010030F08070DFF8F2
:1034F000AC17C1F80100DFF8A407006830F0100035
:10350000DFF89817086001BD0000000028B000082F
:10351000ECB1000860B5000804B2000870B50008FE
:103520007CB3000890B3000890B6000880B500088E
:10353000E4AE000890B5000810B504002078042817
:103540005BD005285ED0082861D0092864D00A28FD
:1035500067D00B286AD00C286DD00F2870D01428A3
:1035600073D0162876D0172879D018287CD01A283E
:1035700000F07F801B2800F081801F2800F08380EE
:10358000202800F08580232800F0BE80242800F049
:10359000C480262800F0C680282800F0D080292882
:1035A00000F0D2802A2800F0D8802B2800F0DA80A2
:1035B0002C2800F0DC80372800F0DE803A2800F06C
:1035C00019813D2800F086813E2800F090813F2837
:1035D00000F09E81402800F02381422800F0C7813E
:1035E000432800F09A81442800F0A081452800F08B
:1035F000AA81462800F0B081C2E10720DFF8281632
:10360000C875BDE10020DFF82016C875B8E10120BB
:10361000DFF81416C875B3E10220DFF80C16C87580
:10362000AEE10320DFF80016C875A9E10420DFF839
:10363000F815C875A4E10620DFF8EC15C8759FE100
:103640000820DFF8E415C8759AE11120DFF8D815D5
:10365000C87595E11220DFF8D015C87590E11320E8
:10366000DFF8C415C8758BE10920DFF8BC15C875F3
:1036700086E10A20DFF8B015C87581E10520DFF882
:10368000A815C8757CE10D20DFF89C15C87577E199
:10369000DFF894054078C0F34200C0B202280BDA8C
:1036A000DFF88405407810F0F101801C10F00E0066
:1036B0000843DFF874154870DFF86C05007850F0A7
:1036C0001000DFF8641508700E20DFF85C15C8756F
:1036D000DFF804070068C0F38010002813D0DFF87B
:1036E000F806006830F04000DFF8EC160860DFF8FC
:1036F000E806006830F40070DFF8DC1608601C2073
:10370000DFF82415C8753BE1DFF8CC06006830F41B
:103710008060DFF8C416086032E11620DFF8081573
:10372000C8752DE1DFF80005007810F0EF00DFF834
:10373000F81408700F20DFF8F014C87520E110208D
:10374000DFF8E414C8751BE10020DFF8541308709B
:103750001520DFF8D414C87512E11720DFF8C8145B
:10376000C8750DE11820DFF8C014C87508E11920EC
:10377000DFF8B414C87503E1DFF85C060068C0F335
:10378000405000280FD0DFF85006006830F40010D9
:10379000DFF844160860DFF84006006830F4802047
:1037A000DFF834160860607810F00F00DFF80814B6
:1037B000097860F3C501DFF800040170DFF81C062A
:1037C000DFF8F4130978C1F3C201C9B2085C00281C
:1037D0000FD0DFF80406006850F48000DFF8F81519
:1037E0000860DFF8F405006850F01000DFF8E81515
:1037F0000860C5E0607810F00F00DFF8BC1389792D
:1038000060F30201DFF8B0038171DFF8CC05D0F876
:10381000010050F08040DFF8C015C1F80100AFE0B2
:10382000A088DFF89413C1F8A000DFF8AC050068A9
:1038300050F40020DFF8A0150860DFF89C05006850
:1038400050F01000DFF890150860DFF8DC03007816
:10385000C0F34010C0B200281ED1A07801280AD1C0
:10386000DFF87405006840084000DFF86C15086058
:1038700000F0C5F92DE0DFF86005006830F40020A5
:10388000DFF854150860DFF85005006830F01000CC
:10389000DFF8441508601CE0DFF83C05006850F4D0
:1038A0008020DFF8341508600520DFF80C13A1F83C
:1038B0009200DFF82405006850F40010DFF81815B6
:1038C0000860DFF8F402D0F8A000DFF8EC12C1F8CD
:1038D0009C0055E0DFF80005006850F48040DFF8F8
:1038E000F81408600120DFF8F814087048E0DFF8E9
:1038F000E804006850F40040DFF8DC1408600020A1
:10390000DFF8E01408700020DFF8D414087037E006
:103910001A20DFF81413C87532E0DFF8BC04006821
:1039200050F40070DFF8B014086029E0DFF8A80454
:10393000006830F40070DFF8A01408601C20DFF885
:10394000E812C8751CE0DFF89004006850F480703D
:10395000DFF88414086013E0DFF87C04006830F4BA
:103960008070DFF87414086000F018F908E0DFF8E0
:103970006804006850F08000DFF85C140860FFE71E
:1039800010BD000044B0000870B504000D00160022
:1039900000F08AF8DFF82002A0F88450DFF818025F
:1039A000C0F88060DFF81002807864F30200DFF86E
:1039B000081288701420DFF8741281F8260072B69D
:1039C000DFF86802D0E9082311001A00DFF81804B4
:1039D00000F0C0FA62B6DFF8140400F057FB70BDC7
:1039E000941A002028220020F8B504000D001600CB
:1039F0001F0000F059F8704804666F48C0F8B850CE
:103A00006D48C666FFB2022F05D11020DFF81C12E8
:103A100081F8260007E0FFB2012F04D11E20DFF855
:103A20000C1281F8260072B68048D0E908231100F4
:103A30001A00DFF8B40300F08DFA62B6DFF8AC03C9
:103A400000F024FBF1BD38B504000D0000F02CF8A7
:103A5000EDB2022D04D11520744981F8260006E04C
:103A6000EDB2012D03D12320704981F826006F4863
:103A700090F8210064F303006C4981F8210072B6CC
:103A80006A48D0E9082311001A00DFF85C0300F04F
:103A900061FA62B6DFF8540300F0F8FA31BD0000B5
:103AA00058270020732200206348007810F001009E
:103AB00000280DD160480078C0F34000C0B2002853
:103AC00008D05D484078C0F30010C0B2002801D192
:103AD00000BFE9E7704770B54FF400640025DFF8D8
:103AE00010632A002100300000F0E2F970BD0000F0
:103AF000F024002080B5002002F0D0FCFEF786FC08
:103B000001BD10B5040048480078C0F30010C0B2F1
:103B1000002808D144480078C0F38010C0B20028C3
:103B200001D1052039E0DFF8B002006810F4407FD1
:103B300001D0102031E0DFF8A002006850F480507E
:103B4000DFF894120860A4B2002C05D1DFF8B402AB
:103B500000F0F0FA1F2020E04FF47A73220092B2B6
:103B6000DFF88C12334801F00DF8002803D0FFF77E
:103B7000C1FF0F2011E0DFF86002006830F48050D0
:103B8000DFF854120860DFF850020068C0F34030DC
:103B9000002801D1FEF73AFC002010BD3F48D0F8C4
:103BA000020050F000603D49C1F8020000200249C7
:103BB000C1F8BC0070470000242200203748D0F82C
:103BC000020030F000603549C1F802000020DFF843
:103BD0003812C1F8BC00704710B50024FFF77BFF16
:103BE000DFF82812DFF8080200F028F9DFF80002F9
:103BF00000F03EF980B2FFF784FF040010BD10B55D
:103C00000024FFF768FFDFF80812DFF8E40100F096
:103C100015F9DFF8DC0100F02BF980B2FFF771FF36
:103C2000040010BD72220020BC260020F0240020D9
:103C30000000024074250020BC2600202DE9F0473A
:103C4000040088460026FFF746FF220069496848BD
:103C500000F0F4F8664800F00BF980B2FFF751FF6E
:103C60000600F6B2002E15D1FFF7EEFB0600624803
:103C700000F0FEF80500604F2A003900404600F0D1
:103C80001DFA5FF00009DFF870A14A46290050468E
:103C900000F00EF93000C0B2BDE8F0871027002018
:103CA00070B504000D000026FFF715FF2B00220061
:103CB00058494F4800F0C2F84D4800F0D9F880B29A
:103CC000FFF71FFF0600F6B2002E02D1FFF7BCFB84
:103CD00006003000C0B270BD70B504000D000026B3
:103CE000FFF7F9FE2B0022004B49414800F0A6F8EF
:103CF0003F4800F0BDF880B2FFF703FF0600F6B2C0
:103D0000002E02D1FFF7A0FB06003000C0B270BD4C
:103D100038B504000025FFF7DEFE2200374934489D
:103D200000F08CF8324800F0A3F880B2FFF7E9FE0B
:103D30000500EDB2002D02D1FFF786FB050028003B
:103D4000C0B232BD38B504000025FFF7C4FE220022
:103D50002B49274800F072F8254800F089F880B216
:103D6000FFF7CFFE0500EDB2002D02D1FFF76CFB8F
:103D700005002800C0B232BD10B50024FFF7ABFE2D
:103D800026491B4800F05AF8194800F071F880B233
:103D9000FFF7B7FE0400E4B2002C02D1FFF754FB9A
:103DA00004002000C0B210BD10B50024FFF793FE40
:103DB0001B490F4800F042F80D4800F059F880B256
:103DC000FFF79FFE0400E4B2002C02D1FFF73CFB9A
:103DD00004002000C0B210BD1027002024270020BE
:103DE000592700205A2700200425002010250020F4
:103DF00000040020A0B5000832220020A4B300086F
:103E000004AF000824AF00082422002010B70008E7
:103E100018B70008B8B30008CCB3000820B70008F2
:103E200028B7000870477047704770477047704761
:103E30007047704770477047704770470CB41CB5A7
:103E4000044604A801900A46009401AB694607485D
:103E50007844183002F036FB009A002111700028D7
:103E60005CBF0098001B16BC5DF80CFB3B0000001B
:103E700000F10103810704D010F8011B89B181070B
:103E8000FAD10268B2F10131914311F0803F04BFD1
:103E900050F8042FF6E710F8011B11B110F8011BC0
:103EA000FBE7C01A70470268531C0360117070472B
:103EB00062F30F2262F31F42401810F0030308D090
:103EC000C91A1FD3DB0748BF00F8012D28BF20F80F
:103ED000022D130030B414461546103928BF20E9CE
:103EE0003C00FAD8490728BF20E90C0048BF40F839
:103EF000042D890028BF20F8022D48BF00F8012DAD
:103F000030BC7047C91818BF00F8012DCB0728BF77
:103F100000F8012D7047200008231A0012FB01F35E
:103F20008380002303800023C38000234380554BFC
:103F3000836070478188C088B0EBD10F01D1012028
:103F400000E000207047C088002801D1012000E077
:103F50000020704776B504002000FFF7EBFF002833
:103F600042D16088C0080600A06810EBC600BDF80A
:103F700004108180A06810EBC6009DF802108170CB
:103F8000A06810EBC6009DF80110A26812EBC602F3
:103F9000527861F303024270A06810EBC600A1687A
:103FA00011EBC601497811F00F019DF8012012F0C4
:103FB000F002114341709DF80000A16801F836003D
:103FC000A06810EBC6009DF806108171E088401CC7
:103FD000E080608808306080A0880500608890FBE1
:103FE000F5F105FB1100608073BD70B50400200081
:103FF000FFF7A9FF002801D0002042E02088C00878
:104000000600A06810EBC60080881F498880A06861
:1040100010EBC600407810F00F001B49497860F3A0
:10402000030119484170A06810EBC6004078C0B287
:1040300000091549497811F00F0151EA00101249A1
:104040004870A06810EBC60080780F498870A0689F
:1040500010F836000C490870A06810EBC600807993
:1040600009498871208808302080E088401EE0805F
:10407000A0880500208890FBF5F105FB1100208049
:10408000014870BD942000201C2700200021818061
:1040900000218171417811F0F00151F00901417066
:1040A0000921817063210170704738B504000D004B
:1040B0002900200002F0D8FD32BD000062B38B075A
:1040C00008D0521E11F8013B00F8013B00F024809B
:1040D0008B07F6D1830740F0208000BF103A07D34A
:1040E00030B4B1E83810103AA0E83810F9D230BC3A
:1040F000530724BFB1E80810A0E8081044BF51F8E6
:10410000043B40F8043BD20724BF31F8022B20F8CF
:10411000022B44BF0B7803707047083A07D3B1E80D
:104120000810083A40F8043B40F804CBF7D2530794
:10413000E4E700000EB400B582B003A90091024686
:104140006B460121034878440A3002F0BBF906BCF3
:104150005DF810FB297100008160002202600022DE
:10416000C26000224260804A02617047C068B0F5B8
:104170004E7F01DB012000E000207047C068C928A5
:1041800001DA012000E000207047C068B0F5806FC0
:1041900001D1012000E000207047C068002801D153
:1041A000012000E000207047F8B504000D00200059
:1041B000FFF7EBFF002815D1E068401CE060606865
:1041C000411C61600126216947183200290038002E
:1041D000FFF774FF60684FF4806190FBF1F202FB1F
:1041E00011026260F1BD2DE9F84F04005F4805003F
:1041F0002000FFF7D2FF002801D00020B1E04FF4EB
:1042000000760027DFF864813A0031004046FFF76E
:104210004FFE57480068C0F38040002800F08580BA
:10422000D4F804B0E068C8282EDAE0685149A1F853
:104230009000206883450BDB20684E49B1F8906000
:1042400021694718320039002800FFF737FF16E0D0
:1042500026682068D6F58067216910EB01083A00CE
:1042600041462800FFF72AFF2068D4F81090281A4A
:1042700010F5806A5A4649465046FFF71FFF6068AE
:1042800020600020E0606BE02068834510DB206840
:10429000C82621694718320039002800FFF70EFFB1
:1042A0002068C83020602068BBEB0000E06037E089
:1042B0002068C830B0F5806F12DA2068C8262169FE
:1042C0004718320039002800FFF7F8FE2068C83090
:1042D00020602068D0F580601BEB0000E0601FE0EC
:1042E00026682068D6F58061009121694718009AF8
:1042F00039002800FFF7E2FE2068B6F54E78D4F8C2
:104300001090281A10F5806A424649465046FFF739
:10431000D5FEB6F54E7020602068BBEB0000E06073
:10432000C8201449A1F890001AE0206801262169EC
:104330004718320039002800FFF7C0FE2068401CF3
:104340002060E068401EE06001200A49A1F890006A
:1043500020684FF4806190FBF1F202FB11022260B1
:104360002800BDE8F28F000000140020941C0020FB
:10437000102700202422002010B4426803685B1A32
:10438000002B0FD403685B1A03600368934203DABF
:104390000368D31AC3600FE00368D3F58063D318B2
:1043A000C36009E00368D1F58064E3180360036823
:1043B000D3F58063D318C36010BC704738B502F0E2
:1043C00069FC0446208880042ED5656809E04A1BF4
:1043D000294602F0A7FC10F1010F18BF00280CD0ED
:1043E0004519E16894F903008D42F0D300220021C1
:1043F00002F098FC10F1010F0DD16068E06060617F
:10440000E062208840F400702080204602F043FCE7
:104410004FF0FF3032BD6568E5606561E5624DF6DD
:10442000FF71208808402080204602F034FC0020E4
:1044300032BDF8B5A0B9C046C04600240A4D0826D2
:104440004FF0FF37286820B1FFF7B8FF002848BFBA
:104450003C462D1D761EF5D1C046C0462046F2BD15
:10446000BDE8F240AAE70000BC03002010B504003C
:10447000002C01D1012014E094F83900002805D166
:10448000002084F83800200002F053FD022084F858
:104490003900211D206800F0D3F8012084F839008C
:1044A000002010BD01000868C06850F001000A68D3
:1044B000D0600868006850F001000A6810600020B1
:1044C000704710B504002068006980071AD520687D
:1044D000C068800716D57FF00200216808610120BE
:1044E00020762068806910F0030F03D0200000F0D0
:1044F000A4F805E0200000F09FF8200000F09EF8EE
:10450000002020762068006940071AD52068C0681E
:10451000400716D57FF0040021680861022020764C
:104520002068806910F4407F03D0200000F085F8F7
:1045300005E0200000F080F8200000F07FF8002067
:1045400020762068006900071AD52068C068000737
:1045500016D57FF0080021680861042020762068C5
:10456000C06910F0030F03D0200000F066F805E0EA
:10457000200000F061F8200000F060F800202076B4
:1045800020680069C0061AD52068C068C00616D524
:104590007FF0100021680861082020762068C0693B
:1045A00010F4407F03D0200000F047F805E0200021
:1045B00000F042F8200000F041F80020207620684A
:1045C0000069C0070AD52068C068C00706D57FF01B
:1045D000010021680861200002F02CFD20680069BC
:1045E00000060AD52068C068000606D57FF0800066
:1045F00021680861200002F044FD2068006940063F
:104600000AD52068C068400606D57FF040002168C2
:104610000861200000F013F82068006980060AD5C0
:104620002068C068800606D57FF0200021680861F8
:10463000200002F025FD10BD70477047704770479D
:10464000002203681A00DFF8943098420CD0B0F1D1
:10465000804F09D0DFF88830984205D0214B98422E
:1046600002D0214B984201D1012300E00023DBB2AC
:10467000002B03D032F070024B681A43174B98425C
:1046800014D0B0F1804F11D0154B98420ED0154B7D
:1046900098420BD0144B984208D0144B984205D046
:1046A000134B984202D0134B984201D1012300E0F2
:1046B0000023DBB2002B03D032F44072CB681A43E4
:1046C00002608B68C3620B688362044B984201D11D
:1046D0000B69036301234361704700000000014040
:1046E0000004004000080040000C00400040014071
:1046F0000044014000480140F8B400230024002594
:1047000000263200102A80F0D8800126964033001F
:104710000E681E4034009C4240F0CD804E68022E50
:1047200002D04E68122E16D1D60810EB8606366AD5
:1047300035000F2612F00707FFB2BF00BE40B54399
:104740000E6912F00707FFB2BF00BE403543D6081E
:1047500010EB860635620668350003261700FFB2A7
:104760007F00BE40B5430E7916F003061700FFB276
:104770007F00BE40354305604E68012E08D04E686C
:10478000022E05D04E68112E02D04E68122E19D17D
:104790008668350003261700FFB27F00BE40B54390
:1047A000CE681700FFB27F00BE4035438560466883
:1047B000350001269640B5434E68C6F30016964074
:1047C00035434560C668350003261700FFB27F00F9
:1047D000BE40B5438E681700FFB27F00BE40354330
:1047E000C5604E68F60066D5002600968A4E36688B
:1047F00056F48046884F3E60874E366816F48046F1
:104800000096009E854E970856F8276035000F26C3
:1048100012F00307FFB2BF00BE40B543804EB04266
:1048200001D1002614E07F4EB04201D101260FE0F5
:104830007D4EB04201D102260AE07C4EB04201D149
:10484000032605E07A4EB04201D1042600E0072697
:10485000F6B212F00307FFB2BF00BE4035436F4E01
:10486000970846F82750734E36683500A5434E68C2
:10487000F60300D525436F4E35606F4E3668350020
:10488000A5434E68B60300D525436B4E35606B4E8D
:1048900036683500A5434E68F60200D52543674EBD
:1048A0003560674E36683500A5434E68B60200D5C0
:1048B0002543634E3560521C24E7F1BC7047F0B5C8
:1048C00000220023002400263500102D80F098805F
:1048D0000126AE40320012EA01063300934240F056
:1048E0008D8006680327AC465FFA8CFC5FEA4C0CAF
:1048F00017FA0CF7BE430660EE0810EB8606EF08C9
:1049000010EB87073F6A5FF00F0C15F0070E5FFA98
:104910008EFE5FEA8E0E1CFA0EFC37EA0C07376239
:1049200086680327AC465FFA8CFC5FEA4C0C17FAEA
:104930000CF7BE43866046680127AF40BE43466021
:10494000C6680327AC465FFA8CFC5FEA4C0C17FA8A
:104950000CF7BE43C660314EAF0856F827603400EE
:104960000F2615F00307FFB2BF00BE4034402C4EA7
:10497000B04201D1002614E02A4EB04201D10126F6
:104980000FE0294EB04201D102260AE0274EB04284
:1049900001D1032605E0264EB04201D1042600E0F5
:1049A0000726F6B215F00307FFB2BF00BE40B442BF
:1049B00024D10F2615F00307FFB2BF00BE4034001C
:1049C000164EAF0856F82760A643144F5FEA950CC1
:1049D00047F82C60174E36689E43164F3E60164EC1
:1049E00036689E43144F3E60144E36689E43134F04
:1049F0003E60134E36689E43114F3E606D1C64E767
:104A0000F0BDD2B2002A02D089B2816102E089B23F
:104A10000B048361704700004438024008380140AD
:104A2000000002400004024000080240000C024066
:104A300000100240003C0140043C0140083C0140A1
:104A40000C3C014080B52248006850F400702049B9
:104A500008601F48006850F480601D4908601C48C9
:104A6000006850F480701A490860032002F07CFB53
:104A70000F2000F004F802F0B7FB002002BD10B5D3
:104A80000400144800684FF47A71B0FBF1F002F0B2
:104A900092FB002221005FF0FF3002F06BFB002050
:104AA00010BD0D480068401C0B49086070470A485B
:104AB0000068704711B581B00024FFF7F8FF0400CB
:104AC000FFF7F5FF001B01998842F9D313BD0000E1
:104AD000003C0240F40300204027002010B50400F1
:104AE000002C01D1012033E0A0690028FFD194F807
:104AF0003900002805D1002084F83800200002F099
:104B000027F9242084F839002068C06830F4005068
:104B10002168C860200000F0E9FA2068006930F4DC
:104B20009040216808612068406930F02A002168BF
:104B300048612068C06850F400502168C8600020B7
:104B4000E063202084F83900202084F83A00002017
:104B500010BD10B50400002C01D1012011E024206B
:104B600084F83900200002F0C5F90020E06300203D
:104B700084F83900002084F83A00002084F83800D6
:104B8000002010BD2DE9F84304000D0016001F00A1
:104B90005FF0000994F8390020285FD1002D02D081
:104BA000B6B2002E01D1012059E094F83800012856
:104BB00001D1022053E0012084F838000020E06396
:104BC000212084F83900FFF772FF8146A684E6842D
:104BD000E08C00282FD0E08C401EE084A068B0F567
:104BE000805F18D100974B4600228021200000F002
:104BF00092F9002801D0032031E0A846B8F800005F
:104C0000C005C00D216848602069002801D1AD1C95
:104C1000DEE76D1CDCE700974B4600228021200078
:104C200000F079F9002801D0032018E028782168E5
:104C300048606D1CCCE700974B46002240212000C5
:104C400000F069F9002801D0032008E0202084F852
:104C50003900002084F83800002000E00220BDE880
:104C6000F2832DE9F84304000D0016001F005FF0E9
:104C7000000994F83A00202863D1002D02D0B6B282
:104C8000002E01D101205DE094F83800012801D107
:104C9000022057E0012084F838000020E063222041
:104CA00084F83A00FFF703FF8146A685E685E08D8C
:104CB00000283ED0E08D401EE085A068B0F5805F02
:104CC0001DD100974B4600222021200000F023F93F
:104CD000002801D0032035E0A8462069002807D12C
:104CE00020684068C005C00DA8F80000AD1CDEE7D4
:104CF00020684068C0B2A8F800006D1CD7E7009794
:104D00004B4600222021200000F005F9002801D0A8
:104D1000032017E02069002804D12068406828702B
:104D20006D1CC4E72068406810F07F0028706D1C7F
:104D3000BDE7202084F83A00002084F838000020E5
:104D400000E00220BDE8F28310B4030093F83A00BB
:104D5000202828D1002902D092B2002A01D10120B6
:104D600022E093F83800012801D102201CE0012044
:104D700083F8380099629A85DA850020D86322206A
:104D800083F83A00002083F838001868406950F032
:104D900001001C6860611868C06850F490701C685D
:104DA000E060002000E0022010BC70472DE9F843CD
:104DB0000400206805682068C668206847695FF0BD
:104DC00000085FF0000915F00F008046B8F1000FF1
:104DD00018D1A80605D5B00603D5200000F036F995
:104DE00096E0E8060ED5F0060CD50020009020686D
:104DF000006800902068406800900098200000F053
:104E000089F885E0B8F1000F72D0F80702D416F4E3
:104E1000907F6DD015F00100C0B2002805D0F005DC
:104E200003D5E06B50F00100E063680708D517F088
:104E30000100C0B2002803D0E06B50F00200E06334
:104E4000A80708D517F00100C0B2002803D0E06B16
:104E500050F00400E063280708D517F00100C0B245
:104E6000002803D0E06B50F00800E063E06B0028FE
:104E70003DD0A80604D5B00602D5200000F0E6F823
:104E800020684069800910F001008146E06B00074E
:104E900002D4B9F1000F25D0200000F074F820688A
:104EA000406940061AD52068406930F0400021680A
:104EB0004861606B00280DD00FF2ED00616B086552
:104EC000606B02F003FA002811D0606B616B096D12
:104ED00088470CE0200002F0B9F808E0200002F05A
:104EE000B5F804E0200002F0B1F80020E0630FE024
:104EF000280605D5300603D5200000F060F807E04D
:104F0000680605D5700603D5200000F08FF8FFE78E
:104F1000BDE8F18370472DE9F04104000D00160053
:104F20001F00DDF81880206800682840A84201D1E1
:104F3000012000E00020F6B2B04221D118F1010FAB
:104F4000F1D0B8F1000F04D0FFF7B1FDC01B8045D0
:104F5000E9D22068C06830F4D0702168C860206849
:104F600040694008400021684861202084F83900E9
:104F7000202084F83A00002084F83800032000E064
:104F80000020BDE8F0810168C96831F490710268C1
:104F9000D1600168496949084900026851612021CE
:104FA00080F83A107047000038B50400A56B002067
:104FB000E8850020E884280002F048F831BD0100AF
:104FC00091F8390021282FD18868B0F5805F11D180
:104FD000086A02001088C005C00D0B685860086997
:104FE000002803D1086A801C086209E0086A401C96
:104FF000086205E0086A431C0B6200780B68586081
:10500000C88C401EC884C88C00280BD10868C068B2
:1050100030F080000B68D8600868C06850F040002D
:105020000B68D860002000E00220704710B5040033
:105030002068C06830F040002168C860202084F8F3
:105040003900200001F0FCFF002010BD38B504003D
:1050500094F83A00222847D1A068B0F5805F15D1B6
:10506000A06A05002069002808D120684068C005B2
:10507000C00D2880A06A801CA06219E020684068EA
:10508000C0B22880A06A401CA06211E020690028FC
:1050900006D1A06A411CA16221684968017007E03D
:1050A000A06A411CA1622168496811F07F0101706A
:1050B000E08D401EE085E08D002813D12068C06897
:1050C00030F490702168C860206840694008400052
:1050D00021684861202084F83A00200001F0A4FFF4
:1050E000002002E0002000E0022032BD2DE9F8435C
:1050F0000400002520680069050035F44055E0688B
:105100000543206805612068C0680500BC4805406B
:10511000A0682169084361690843E16908430543C0
:105120002068C56020684069050035F44075A069B5
:10513000054320684561E069B0F5004F40F0B0805C
:105140002068B049884203D02068AF49884253D1D3
:1051500002F01EFC814602F01BFC804602F018FCA7
:10516000070002F015FC060002F012FC192101FBF9
:1051700009F162685200B1FBF2F16422B1FBF2F175
:10518000192202FB08F263685B00B2FBF3F21923F9
:1051900003FB07F367687F00B3FBF7F36427B3FBF8
:1051A000F7F3642707FB1322D20032326423B2FBE9
:1051B000F3F212F0F802520012EB0111192202FB75
:1051C00006F263685B00B2FBF3F21923584363688D
:1051D0005B00B0FBF3F06423B0FBF3F0642303FB4C
:1051E0001020C00032306422B0FBF2F010F0070053
:1051F00040182168886000E102F0BAFB814602F0A5
:10520000B7FB804602F0B4FB070002F0B1FB0600DA
:1052100002F0AEFB192101FB09F162685200B1FBFB
:10522000F2F16422B1FBF2F1192202FB08F2636889
:105230005B00B2FBF3F2192303FB07F367687F00FF
:10524000B3FBF7F36427B3FBF7F3642707FB1322E1
:10525000D20032326423B2FBF3F212F0F8025200B1
:1052600012EB0111192202FB06F263685B00B2FB2C
:10527000F3F21923584363685B00B0FBF3F0642337
:10528000B0FBF3F0642303FB1020C0003230642233
:10529000B0FBF2F010F00700401821688860ACE025
:1052A00020685849884203D020685749884252D123
:1052B00002F06EFB814602F06BFB804602F068FB59
:1052C000070002F065FB060002F062FB192101FBFA
:1052D00009F162689200B1FBF2F16422B1FBF2F1D4
:1052E000192202FB08F263689B00B2FBF3F2192358
:1052F00003FB07F36768BF00B3FBF7F36427B3FB57
:10530000F7F3642707FB1322120132326423B2FB46
:10531000F3F212F0F00212EB0111192202FB06F275
:1053200063689B00B2FBF3F21923584363689B0048
:10533000B0FBF3F06423B0FBF3F0642303FB102015
:10534000000132306422B0FBF2F010F00F00401880
:105350002168886051E002F00BFB814602F008FBF7
:10536000804602F005FB070002F002FB060002F097
:10537000FFFA192101FB09F162689200B1FBF2F119
:105380006422B1FBF2F1192202FB08F263689B0070
:10539000B2FBF3F2192303FB07F36768BF00B3FB0B
:1053A000F7F36427B3FBF7F3642707FB132212011B
:1053B00032326423B2FBF3F212F0F00212EB01116D
:1053C000192202FB06F263689B00B2FBF3F2192379
:1053D000584363689B00B0FBF3F06423B0FBF3F029
:1053E000642303FB1020000132306422B0FBF2F092
:1053F00010F00F00401821688860BDE8F1830000BC
:10540000F369FFFF001001400014014038B50400AB
:105410000025DFF82C06FEF78DFEDFF82806FEF7E4
:1054200089FEDFF82406FEF785FEDFF82006FEF78A
:1054300081FEFCF7B5FE012000F0E6FBFCF794FFCF
:10544000FEF79AFC0500EDB2002D02D02800C0B294
:105450002EE20121DFF8F805FEF73EFC0500EDB273
:10546000002D02D02800C0B222E2206B00280BD011
:10547000216BDFF8E005FEF72FFC0500EDB2002DF3
:1054800002D02800C0B213E20021DFF8CC05FEF7FD
:1054900023FC0500EDB2002D02D02800C0B207E2C7
:1054A0002078002802D001281AD033E00021DFF84C
:1054B000AC05FEF711FC0500EDB2002D02D028006E
:1054C000C0B2F5E1DFF89815DFF89805FEF7E8FBC4
:1054D0000500EDB2002D02D02800C0B2E8E119E0CD
:1054E0000121DFF87805FEF7F7FB0500EDB2002D8E
:1054F00002D02800C0B2DBE1DFF86C15DFF86405EC
:10550000FEF7CEFB0500EDB2002D02D02800C0B2A0
:10551000CEE1FFE76078002803D002286FD025D3C2
:10552000B6E00021DFF84405FEF7D6FB0500EDB23A
:10553000002D02D02800C0B2BAE10021DFF830050A
:10554000FEF7CAFB0500EDB2002D02D02800C0B264
:10555000AEE10021DFF81C05FEF7BEFB0500EDB251
:10556000002D02D02800C0B2A2E191E00121DFF8B5
:10557000FC04FEF7B1FB0500EDB2002D02D02800BF
:10558000C0B295E10B21DFF8F004FEF7A5FB0500A2
:10559000EDB2002D02D02800C0B289E10021DFF871
:1055A000DC04FEF799FB0500EDB2002D02D02800C7
:1055B000C0B27DE10021DFF8C804FEF78DFB0500D5
:1055C000EDB2002D02D02800C0B271E10021DFF859
:1055D000A004FEF781FB0500EDB2002D02D02800EB
:1055E000C0B265E10021DFF88C04FEF775FB050011
:1055F000EDB2002D02D02800C0B259E148E00121EF
:10560000DFF86804FEF768FB0500EDB2002D02D05C
:105610002800C0B24CE10C21DFF85C04FEF75CFB13
:105620000500EDB2002D02D02800C0B240E10A21F1
:10563000DFF84804FEF750FB0500EDB2002D02D064
:105640002800C0B234E10121DFF83404FEF744FB46
:105650000500EDB2002D02D02800C0B228E10121E2
:10566000DFF80C04FEF738FB0500EDB2002D02D088
:105670002800C0B21CE10021DFF8F803FEF72CFB84
:105680000500EDB2002D02D02800C0B210E1FFE706
:10569000A078002803280FD8A078062101FB00F18C
:1056A000DFF85404FEF718FB0500EDB2002D02D020
:1056B0002800C0B2FCE0FFE7E078002802280CD800
:1056C000E178DFF83804FEF707FB0500EDB2002DA6
:1056D00002D02800C0B2EBE0FFE7606800280BD0E2
:1056E0006168DFF81C04FEF7DBFA0500EDB2002D5F
:1056F00002D02800C0B2DBE0A06800280BD0A1686F
:10570000DFF80004FEF7CCFA0500EDB2002D02D060
:105710002800C0B2CCE0E06800280BD0E168DFF8D8
:10572000E803FEF7BDFA0500EDB2002D02D0280017
:10573000C0B2BDE0206900280BD02169DFF8CC039E
:10574000FEF7AEFA0500EDB2002D02D02800C0B27F
:10575000AEE0606900280BD06169DFF8B403FEF7A2
:105760009FFA0500EDB2002D02D02800C0B29FE0E4
:10577000E06900280BD0E169DFF89803FEF790FAA2
:105780000500EDB2002D02D02800C0B290E0206AE2
:1057900000280BD0216ADFF88003FEF781FA0500AC
:1057A000EDB2002D02D02800C0B281E0606A00286E
:1057B0000FD0606A4FF47A7101FB00F1DFF85C03EF
:1057C000FEF78AFA0500EDB2002D02D02800C0B223
:1057D0006EE0A06A00280BD0A16ADFF84403FEF750
:1057E0007BFA0500EDB2002D02D02800C0B25FE0C8
:1057F00094F82C0000280CD094F82C10DFF8EC035F
:10580000FEF76AFA0500EDB2002D02D02800C0B202
:105810004EE0FEF760F9DFF8D813DFF8D803FEF7A3
:105820000DFBDFF8D003FEF723FB80B2FEF769F92A
:105830000500EDB2002D08D1FDF706FE0500EDB222
:10584000002D02D02800C0B232E0FEF744F9DFF8A4
:10585000A813DFF8A003FEF7F1FADFF89803FEF7CC
:1058600007FB80B2FEF74DF90500EDB2002D08D11F
:10587000FDF7EAFD0500EDB2002D02D02800C0B210
:1058800016E0206B002804D0206B02F0DAF8FCF759
:10589000BDFDFCF769FD002000F0B6F9DFF85C0300
:1058A000FEF748FCDFF85C03FEF7C3FD2800C0B23A
:1058B00032BD2DE9F04104000D0016001F005FF01D
:1058C00000080223320029002000FEF78DF8FDF7C2
:1058D000BBFD8046DFF82803007810F00700387021
:1058E0004046C0B2BDE8F081F8B504000D001600D6
:1058F0000027DFF89003E4B2205C002801D10520E6
:1059000014E0ADB2B5F57F7F02DCADB2002D01D160
:1059100004200BE03200290089B22000C0B2FEF75B
:1059200033F8FDF791FD07003800C0B2F2BD38B57D
:105930000400002500F078F8A4B22300DFF8C002CC
:105940000078C0F3C202D2B2DFF82C13DFF8A40251
:10595000FEF774FADFF89C02FEF78AFA80B2FEF7CF
:10596000D0F80500EDB2002D28D1DFF8140300684F
:10597000C0F30010002807D1DFF80403006850F0DE
:105980001000DFF8FC120860A4B2DFF87402C0F85F
:105990009C400520DFF86812A1F89200DFF8E002D1
:1059A000006850F48020DFF8D8120860DFF8D002D9
:1059B000006850F40010DFF8C81208602800C0B278
:1059C00032BD80B5FEF787F800F02EF8DFF8AC02A4
:1059D000DFF82C120978C1F3C201C9B2085C0028B3
:1059E00021D0DFF89C020068C0F30010002807D126
:1059F000DFF88C02006850F01000DFF884120860B5
:105A0000DFF8FC010078C0F3C202D2B2DFF87812EE
:105A1000DFF87802FEF712FADFF87002FEF728FAD4
:105A200080B2FEF76EF801BDDFF864020078C0B204
:105A3000C009C0B2002801D100BFF5E770470000DF
:105A400074B10008B8AF0008C4AE000804B3000881
:105A5000A0B40008B0B4000830B60008C0B4000814
:105A60003CB6000818B3000848B60008D0B40008D7
:105A7000E0B40008F0B400088CB100082CB30008B2
:105A8000A4B1000870B504000D000026DFF8040280
:105A90000460ADB2B5F5807F01DD04202AE05848EE
:105AA0000573DFF8DC010068C0F38020002801D016
:105AB00007201FE0DFF8C801006850F48060DFF8BD
:105AC000C0110860FEF707F8DFF8CC11DFF8BC0161
:105AD000FEF7B4F9DFF8B401FEF7CAF980B2FEF7B9
