:020000040800F2
:10000000301D0020F19F0008E56F0008E76F000831
:1000100000000000000000000000000000000000E0
:10002000000000000000000000000000F16F000868
:10003000FB6F000800000000057000081B7000083E
:10004000577A0008BF7C0008EF7C0008A37F0008F7
:10005000FF8000087B880008A38A0008D38A000874
:10006000AF8D0008778F0008BF9000082F9200081E
:10007000AB9A0008BB9A0008000000000770000857
:10008000000000009B9C0008000000000000000031
:100090001170000800000000DDA10008DFA10008C9
:1000A000E1A10008E3A10008E5A1000857700008DD
:1000B00061700008E7A10008E9A10008EBA10008B1
:1000C000F1B5002403F021FC684602781249134878
:1000D00003F0D2FDFF201249C875104803F0E8FD77
:1000E00080B203F02AFC0400E4B2002C02D020000D
:1000F000C0B20FE0012500260A4F32002900380067
:1001000003F0DEFD0648C07D0E2801D000BFF9E7F0
:100110002000C0B2F2BD0000A8A0000878070020AF
:100120008C180020A3180020F1B58EB0002069467D
:100130008872002004900E98007869468872D3482F
:1001400003F0E8FD01004903C90F00290ED16846FC
:10015000807A00280AD06846807ACD49CD4A126854
:100160008854CC480068401CCA490860CA4803F05B
:10017000B3FEC748C74909684018801E00780D289B
:1001800001D000F01BFCC248C24909684018401E5B
:1001900000780A2801D000F011FCBC4803F0BAFD39
:1001A0000100C900C90F002901D000F007FCBB48BD
:1001B00000780100C907C90F002901D000F0FEFB3B
:1001C000B749B34803F097FE002867D002F06AFFF2
:1001D00072B6AF4801F08AFC62B602F057FFAB4836
:1001E00003F098FDC00F00280CD172B6AA4803C8CE
:1001F0000A000100D54803F0C0FD62B6A64803F02E
:100200006BFE1BE0A14803F085FD01008907C90FC3
:10021000002913D1A04803F05FFE9C4803F07AFD4B
:100220009A494000400803F06FFE984803F072FDC1
:10023000020096490220104303F066FECC4803F00A
:1002400069FD01008901C90F002907D18F4803F01A
:1002500061FD8E494000400803F056FE00208D49A4
:1002600008608A4803F056FD01008902C90F002981
:1002700012D0864803F04EFD01000901C90F002984
:100280000AD0824803F046FD02008049D74810405A
:1002900003F03AFE00F05DFC01F0F2FBD4497C482B
:1002A00003F029FE002800D1AEE1D249784803F0DE
:1002B00022FE0400002825D0684621790172607969
:1002C00002A94870CC480178F02008406946097AB4
:1002D0000A22514302AA527889180907090F0143DB
:1002E000C54801700F20C549087072B66A4803C836
:1002F0000A000100954803F040FD62B6664803F02D
:10030000EBFD4CE1BE49624803F0F5FD0400002816
:1003100000D197E06846617A0170A07A694648701A
:10032000E07A69468870207B6946C87068464078E4
:100330000D2805D1684600783038D14908603AE088
:10034000684680780D280BD1684600780A2148431A
:10035000694649784018CB494018C94908602AE0E5
:100360006846C0780D2810D168460078642148435B
:10037000694649780A2251434018694689784018ED
:10038000C1494018BE49086015E068460078FA2166
:1003900089004843694649786422514340186946B8
:1003A00089780A22514340186946C9784018D649CD
:1003B0004018B3490860B248006800280AD03348A2
:1003C00003F0A8FC0200314980204002104303F0F2
:1003D0009BFDE4E0AA480068002800D0DFE0CB489D
:1003E000CA490978C9B2C9084907490F4018D93024
:1003F000007800281DD0C648C4490978C9B2C90888
:100400004907490F405C002808D00221BF48007806
:10041000C0B2C0084007400F03F02EFABB48BB49EA
:100420000978C9B2C9084907490F4018D9300021D5
:100430000170164803F06EFC14491022904303F03B
:1004400063FDACE0B3A1124803F055FD04000028A1
:1004500028D0032069490870200003F029FC05001A
:100460000B3D2600F61CAC4F2A003100380003F08B
:1004700055FD72B6084803C80A000100334803F06E
:100480007CFC62B6044803F027FD88E0E0180020F9
:100490000C1200201C190020681700208C18002066
:1004A00034A100089D480078C0B240080100C90787
:1004B000C90F00295ED099484078C0B200090100F8
:1004C000C907C90F002964D09048C079C0B2C008DC
:1004D0004007400F00280BD08C48C079C72101404D
:1004E00038220240083A3820104008438749C87132
:1004F0008A480078FD210140884801700020844925
:10050000824A52791207120F8854804840790007B6
:10051000000F7E49087181484078EF2101407F48F3
:10052000417002207D4908757D4880790100C90726
:10053000C90F00290CD00E4803F0ECFB02000C4957
:1005400080208005104303F0DFFC07E05C170020EB
:10055000734880790121014371488171704803F02B
:10056000D9FB6F491022904303F0CEFC11E000BF8D
:10057000E118002002202149087072B6C74803C85C
:100580000A000100C64803F0F8FB62B6C34803F056
:10059000A3FC62480078FD21014060480170002002
:1005A000C04908608025AD000026BF4F32002900F9
:1005B000380003F085FB5A4803F0ACFB01008902C8
:1005C000C90F00291ED0564803F0A4FB0100090101
:1005D000C90F002916D0524803F09CFB0200504975
:1005E0000248104003F090FCB3E200BFFFFFFFF7AA
:1005F0003CA1000844A10008691700206E170020E4
:10060000B4A0000801F03CFAA849A74803F073FC25
:10061000002800D1EAE0A649A34803F06CFC0028BA
:1006200034D0A44803F0A8FC3C480078FD210140E8
:100630003A48017039484078EF210140374841700D
:10064000374880790100C907C90F002905D134480E
:100650008079012101433248817101202B492B4AC5
:1006600052791207120F8918D93108702C4803F0FB
:1006700051FB2B491022904303F046FC8EE000BF53
:10068000A4140020F0FDFFFF30EBFFFFBC498648BB
:1006900003F031FC002805D1BA49834803F02BFC54
:1006A00000283FD01E4803F035FB01000903C90FA5
:1006B000002973D01A4803F02DFB02001849B248F4
:1006C000104003F021FC164803F024FB14491022CB
:1006D000904303F019FC124803F01CFB0200104980
:1006E000AA48104003F010FC0D4803F013FB020071
:1006F0000B49A748104003F007FC0020A5490880DB
:100700000020A549086049E0B02FFFFF0C1400202D
:10071000F4180020203D20001A1400208C1800201E
:10072000E01800209D49604803F0E5FB002802D056
:100730009B4803F021FC08209A49087072B657487C
:1007400003C80A000100564803F017FB62B653487D
:1007500003F0C2FB944803F0DDFA0100C906C90F9B
:10076000002907D0904803F0D5FA8F491022904312
:1007700003F0CAFB8D4803F0CDFA0100C900C90F90
:1007800000290BD0894803F0C5FA02008749884840
:10079000104003F0B9FB0020864908600020414961
:1007A00008608025AD0000263F4F32002900380048
:1007B00003F086FA7C4803F0ADFA01008902C90F04
:1007C000002911D0784803F0A5FA01000901C90FEA
:1007D000002909D0744803F09DFA02007249764856
:1007E000104003F091FBB4E101F04AF9CA492E48E8
:1007F00003F081FB002861D0C8492B4803F07BFB44
:100800000400002C03D00020C549487202E00120FA
:10081000C3494872C3A1244803F06DFB0400002CB7
:1008200003D00020BE49887202E00120BC498872D2
:1008300004205C49087072B6184803C80A00010019
:10084000174803F09AFA62B6144803F045FB0020FB
:10085000144908608025AD000026134F320029009E
:10086000380003F02DFA504803F054FA01008902D1
:10087000C90F002920D04C4803F04CFA01000901AF
:10088000C90F002918D0484803F044FA020046492D
:100890004948104003F038FB5BE100BF68170020B7
:1008A0005C1700201C1900200C1200204CA100082D
:1008B0000C9C0008A095000801F0E2F83A4803F00B
:1008C00029FA01008902C90F00293AD0364803F0FD
:1008D00021FA01000901C90F002932D0924803F022
:1008E00019FA01004901C90F00292AD1C748008817
:1008F00000280FD072B6C54801888C4803F070FC00
:1009000062B6C248058800260E9F320029003800D2
:1009100003F0D6F9254803F0FDF9020023498020B1
:100920008005104303F0F0FA1F4803F0F3F90200CA
:100930001D492148104003F0E7FAC1480068C14949
:100940000880C14800780100C907C90F002900D0FC
:10095000FFE0BD480078C0B240090100C907C90FD7
:10096000002900D1F5E00020B54908608025AD00E0
:100970000026B64F32002900380003F0A1F9E8E064
:100980000098000844970008FFFFF7FFFFFFDFFF14
:10099000FFFFFBFF9A140020B814002054A10008A8
:1009A000309900086E170020E0180020E21800209F
:1009B000FFFFFFEFD0140020FFFFFFF7A44803F074
:1009C000A9F901004907C90F00296FD0A1499F4823
:1009D00003F091FA00283CD19F499C4803F08BFA20
:1009E000002836D19D49994803F085FA002830D176
:1009F0009B49964803F07FFA00282AD199499348E9
:100A000003F079FA002824D19749904803F073FA4B
:100A100000281ED195498D4803F06DFA002818D1A1
:100A200093498A4803F067FA002812D19149874810
:100A300003F061FA00280CD18F49844803F05BFA77
:100A4000002806D18D49814803F055FA002800D1CD
:100A50007FE07F4803F05EF902007D498020400579
:100A6000104303F051FA7A4803F054F90200784930
:100A70008020C002104303F047FA754803F04AF99A
:100A800073490422904303F03FFA05207C49088013
:100A90007C4803F03FF902007A497B48104003F09C
:100AA00033FA00207949086000F0EAFF674864499A
:100AB00009684018401E007809281AD16348604927
:100AC00009684018801E00783A2812D15F485C49B6
:100AD00009684018C01E007831280AD15C4803F02C
:100AE00019F902005A498020C005104303F00CFA9E
:100AF0002FE0D348C0790100C907C90F002917D0DA
:100B000052484F4909684018401E0078002820D1FB
:100B100000204B4908601CE05CA1000864A10008AB
:100B20000C1400206F757400E11800204817002095
:100B300043480068D34988420BD3002040490860ED
:100B40008025AD000026414F32002900380003F017
:100B5000B7F8BB4803F0DEF801004903C90F0029CC
:100B600000D12DE1474803F0D5F801008900C90FF5
:100B7000002900D024E12548008832490880304807
:100B800000683049098840188021890088421ED3B6
:100B90002B4800682B4909884018CC49451872B683
:100BA0002900CB4803F01CFB62B600260E982449AE
:100BB0000968401AB349471832002900380003F089
:100BC0007FF8B0481E490968401A1E4908801D4830
:100BD0000588C04E1D481A49096847182A00310087
:100BE000380003F09BF91648006816490988401838
:100BF0001349086012480068012805D1134800789D
:100C00000D2801D100F03CFFB34901E09C14002005
:100C10000E4803F070F900283AD0894803F07AF8BA
:100C200002008749AD48104003F06EF9AC4803F06C
:100C300071F80200AA49AB48104003F065F9BFE023
:100C40001C190020A01400208C1800200C12002079
:100C5000E01800206CA1000874A10008EC9D0008B9
:100C60007CA10008009E0008D09F0008E09F0008BB
:100C7000249C00084C9A0008149E00083C9C000824
:100C80009E140020E2180020FFFFFFEFD014002088
:100C9000CF4800780100C907C90F002900D08FE0B4
:100CA000674803F037F80100C900C90F002900D0D8
:100CB00086E0C8480078002800D181E0C548007867
:100CC0000D287DD1C34840780A2879D1C2480068F0
:100CD000022875D0824803F01DF802008049802068
:100CE000C004104303F010F9BCA1BD4803F003F9A0
:100CF0000400002838D0B748251AAD1CB949B848B7
:100D000003F0F9F800280BD0B749B248401903F0B6
:100D1000F2F80400002C03D0AE48201A801D050014
:100D2000B2480068401B002815D072B6AF48006872
:100D3000411B674803F054FA62B6AC480068401B98
:100D400001900026A348471932000199380002F0AB
:100D5000B7FFA6480560624802F0DCFF0200604968
:100D60006048104003F0D0F8354802F0D3FF02008D
:100D7000334980200005104303F0C6F89B48006803
:100D8000404988421CD1564802F0C4FF0100490185
:100D9000C90F002914D0524802F0BCFF020050498C
:100DA0005048104003F0B0F8254802F0B3FF0200AD
:100DB00023494A48104003F0A7F83248DC4908802C
:100DC0001F4802F0A7FF01000901C90F002900D048
:100DD000A0E21B4802F09EFF01008902C90F002912
:100DE00000D197E27A4800780121014378480170E8
:100DF000D0480068CE4909884018CE490860364975
:100E00007448CD4A12888018401F03F074F804001B
:100E1000002C00D1ECE06F48744909684018801E2E
:100E200000780D2800D0E3E06A487049096840184E
:100E3000401E00780A2800D0DAE0C04902E000BF76
:100E4000E0180020634803F056F8040000281BD087
:100E5000E07E00280CD05F48251A6448016828000D
:100E60001B300E1A72B63100194803F0B9F962B698
:100E70005748407801210143554841700D20D84919
:100E8000087048E0FF010000D649524803F033F8EB
:100E90000400002828D0E07D00280CD04D48251AF9
:100EA00052480168280017300E1A72B631000848FF
:100EB00003F096F962B60120D649D64A5279120754
:100EC000120F8918D931087025E000BF01FEFFFF1D
:100ED000481700200C10002084A10008FFFFFFF736
:100EE000E1180020FFFFFFFBCB493A4803F003F86D
:100EF000040000280FD0E07D00280CD03548251ACA
:100F00003A480168280017300E1A72B63100C348FB
:100F100003F066F962B60020864908600020C049E7
:100F2000086000202C490860052083490880BD48DE
:100F300002F0F0FE0200BB49BB48104002F0E4FFA3
:100F4000B84802F0E7FEB7491022904302F0DCFFF8
:100F5000B44802F0DFFE0200B249B448104002F08B
:100F6000D3FF00201A49486019480078FE2101404B
:100F700017480170AB4802F0CDFE01000903C90F0C
:100F8000002916D0A74802F0C5FE0200A549D8489E
:100F9000104002F0B9FF0020D6490860A14802F0D5
:100FA000B9FE02009F490120104302F0ADFF02F09C
:100FB00041FD0E4805680026064F32002900380022
:100FC00002F07EFE00200949086000F059FD00BFD4
:100FD0008C1800200C120020A81400200D0A00001C
:100FE0000E120020C0A000083CA100081C1900201F
:100FF000C1480068062805D3002C03D1BE4800680C
:101000004D4908804B480068BC490968884200D2B5
:101010000EE1BA4800684749096888421AD2454833
:101020000068B6490968451A72B629007B4803F082
:10103000D7F862B60026B248AF490968491B47187D
:1010400032002900380002F03BFEAB480068401B2C
:10105000A9490860A8480068AA490880A74800680C
:10106000A9490860A4480568A54EA84F2A00310088
:10107000380002F053FF00209F49086000202D49EE
:10108000086000206649086000209C490860002034
:1010900027490880052028490880624802F03AFE66
:1010A000020060499A48104002F02EFF5D4802F0AD
:1010B00031FE02005B495D48104002F025FF5548B3
:1010C000C078072101435348C170564802F022FE00
:1010D00001000903C90F002932D0002085490860AA
:1010E0004C484078C72101404A484170E248406876
:1010F000002804D0E0484068401EDF494860DE48D0
:10110000406800280AD1474802F004FE0200454921
:101110000120104302F0F8FE02F08CFC414802F07E
:10112000F9FD02003F49D548104002F0EDFE22E0F3
:10113000A0140020B41400209E140020689A000817
:10114000384802F0E7FD020036498020C003104312
:1011500002F0DAFE2F484078C72101402D48007880
:10116000382202400A432B484270C34800780221CB
:101170000143C14801702B4802F0CCFD020029490F
:101180002948104002F0C0FEBB480078FE21014013
:10119000B948017001F093FF224802F0BBFD010045
:1011A0000903C90F00291FD0B54802F0B3FD0200A2
:1011B000B34980204005104302F0A6FE194802F012
:1011C000A9FD18491022904302F09EFE154802F036
:1011D000A1FD020013494648104002F095FE0DE0C3
:1011E000E41400200C9C0008A54802F093FD0200C6
:1011F000A34980200005104302F086FE8025AD0043
:1012000000263F4F32002900380002F059FD00F05F
:1012100037FC00BF0C140020549C00084817002025
:10122000A4140020E0180020FFFFDFFFFFFFFBFFFA
:1012300031480068D649884259D30520D5490880ED
:101240002E48006830490860D1482E4908802A4855
:10125000006801902A4803902C4D019A03992800B8
:1012600002F05CFE0020244908600520C94908807E
:10127000C948C07807210143C748C17001F01FFF6A
:101280008025AD0000261E4F32002900380002F0F4
:1012900017FDC24802F03EFD01000903C90F0029F5
:1012A00010D0BD484078C7210140BB484170744808
:1012B00002F030FD0200724980204005104302F028
:1012C00023FE14E0B4484078C7210140B2480078BA
:1012D000382202400A43B0484270694802F01AFDC1
:1012E0000200674980200005104302F00DFEC7E3AD
:1012F000FFFFF7FFAC1400201C190020A8140020E9
:101300000C1200209A140020B81400200C0E0020AB
:10131000FFFFFFF7A14802F0FDFC0100C900C90F63
:10132000002900D1D0E154480078012101435248FE
:1013300001709B49D748974A12888018401F02F0D5
:10134000DAFD0400002800D19CE0E07900281ED0DE
:10135000D048251AD04801682800801D081A01903D
:1013600072B60199CD4802F03BFF62B60198039036
:101370000026C8484719FF1D32000399380002F0C3
:101380009FFCC54800680199401AC3490860C248DB
:101390000068C3490880C04800680190BD480390B8
:1013A000C04D019A0399280002F0B8FDBA480068C0
:1013B000BD49088030484078012101432E484170E2
:1013C000764802F0A7FC02007449B848104002F0C9
:1013D0009BFD724802F09EFC02007049B448104028
:1013E00002F092FD01F06BFE0020B2490870224825
:1013F0000078FE21014020480170684802F08AFC14
:1014000002006649AC48104002F07EFD634802F0DD
:1014100081FC62491022904302F076FD05205D496F
:1014200008809D48056800269A4F32002900380040
:1014300002F046FC002098490860584802F06AFC17
:1014400001008900C90F00290AD09C4802F062FC03
:1014500002009A4980208004104302F055FD91E07B
:10146000964802F057FC0200944980204004104343
:1014700002F04AFD86E000BF8C180020FFFFBFFF8E
:10148000E11800208E498348424A12888018401F84
:1014900002F031FD0400002874D0404802F03AFC0C
:1014A00002003E498148104002F02EFD79487A49F9
:1014B00009684018801E00780D2863D17548764968
:1014C00009684018401E00780A285BD17D484078A2
:1014D000012101437B4841700D207649087079480D
:1014E0000078FE210140774801702C4802F012FC80
:1014F00002002A496D48104002F006FD274802F01C
:1015000009FC020025496C48104002F0FDFC002057
:101510006149086005201F490880204802F0FAFB55
:1015200002001E496248104002F0EEFC1B4802F027
:10153000F1FB1A491022904302F0E6FC8025AD0031
:101540000026544F32002900380002F0B9FB13483E
:1015500002F0E0FB01008900C90F002909D05748BB
:1015600002F0D8FB02005549C748104002F0CCFCFD
:1015700008E0524802F0CEFB02005049C348104038
:1015800002F0C2FC4448006806280BD301200AE0A0
:10159000FF0100009E1400200C140020E018002021
:1015A0003CA100080020002C01D1012100E0002115
:1015B000C0B2084203D038480068D4490880364891
:1015C0000068D349884264D13348006801903148AB
:1015D0000390344D019A0399280002F09FFC0620E5
:1015E0000C90CC480B90CC4D0C9A0B99280002F033
:1015F00095FC06200A9000200990C64D099A0A9988
:10160000280002F05DFB80208000089000200790F9
:10161000204D079A0899280002F052FB06200690F8
:10162000BD4805901B4D069A0599280002F076FCEE
:1016300006260025B84F2A003100380002F040FB92
:101640000620154908600520B0490880FF20FA30BF
:101650001549088001F033FDB04802F05BFB010042
:101660008900C90F00290AD0144802F053FB020078
:10167000124980208004104302F046FC09E00F4824
:1016800002F048FB02000D4980204004104302F0A4
:101690003BFCF5E10C1200201C190020481700202B
:1016A0009A1400200C0E002096140020FFFFFBFF70
:1016B000FFFFFFEFE4140020FFFFFFF7E218002018
:1016C0004CA100088C180020944802F023FB010074
:1016D0000901C90F002900D076E1904802F01AFBF9
:1016E00001004900C90F002900D16DE18C488D49E6
:1016F00009684018801E00780D2800D053E1884802
:10170000884909684018401E00780A2800D04AE13C
:10171000854802F0C3FDDB48407BDA49097B8842FB
:1017200000D3C4E0D8497E4802F0E5FB0400002C59
:101730000FD06846A1790170E07969464870684623
:1017400000780A2148436946497840181038CF4943
:101750000870CE480078CE490968CA4A527B2C23CB
:101760005A438854CB496E4802F0C5FB0400002C54
:101770000FD06846E1790170207A69464870684662
:1017800000780A214843694649784018C249401800
:101790000490BF480068BB49497B2C225143401844
:1017A00004994A424260BD495D4802F0A4FB04002E
:1017B000002C1ED00720BA490870B9480078205C78
:1017C000272816D0B2480068AE49497B2C225143E5
:1017D0004018B34909784018B1490978615C4170F3
:1017E000AF480078401CAE490870AD480078232807
:1017F000E3D1AC494A4802F07EFB0400002C0AD039
:10180000A34800689F49497B2C2251434018263049
:101810000121017009E09E4800689A49497B2C2209
:10182000514340182630002101709F493C4802F086
:1018300062FB0400002C0AD0954800689149497B5E
:101840002C225143401827300121017009E09048B3
:1018500000688C49497B2C225143401827300021D5
:10186000017092492E4802F046FB0400002C0FD074
:10187000874800688349497B2C225143401828300F
:10188000012101700EE000BFFFFFFFFDFFFFFFFE23
:101890007F4800687B49497B2C22514340182830FF
:1018A000002101707748407B401C7649487380498D
:1018B0001B4802F020FB0400002C37D08025AD002F
:1018C0000026174F32002900380002F0F9F90020F5
:1018D00014490860774840780121014375484170F8
:1018E0000E4802F017FA02000C497348104002F04B
:1018F0000BFB0A4802F00EFA020008496F4810403C
:1019000002F002FB0D206E490870B9E09E14002021
:10191000FF01000005100020FC180020E018002046
:101920000C1200201C190020B402002065496648F2
:1019300002F0E1FA00282AD0644802F0EBF9020034
:1019400062495E48104002F0DFFA00204D494873BA
:1019500000205F49086057484078012101435548FD
:1019600041705A4802F0D6F90200584952481040D6
:1019700002F0CAFA0020524908708025AD00002606
:10198000514F32002900380002F09AF978E0002027
:101990004F4908608025AD0000264B4F32002900DA
:1019A000380002F08DF94A4800684A4988420BD352
:1019B0000020474908608025AD000026424F3200D4
:1019C0002900380002F07CF9404802F0A3F9010038
:1019D0000901C90F002953D13C4802F09BF90100CD
:1019E0004901C90F00294BD03BA002F0C5FA3B4981
:1019F000354802F080FA0400002830D0334802F065
:101A000089F9020031493648104002F07DFA2E482B
:101A10002F4909684018801E00780D281FD12A48D8
:101A20002B4909684018401E00780A2817D12D4814
:101A300002F0A2FA254802F06DF9020023492A4873
:101A4000104002F061FA0020214908608025AD00B5
:101A500000261D4F32002900380002F031F91C48E1
:101A600000681C4988420BD1002019490860802574
:101A7000AD000026144F32002900380002F020F992
:101A80000FB0F0BD0C1400208CA100082D1900200F
:101A90001819002094A10008F0FDFFFF9CA1000888
:101AA0002C190020A4A10008ACA10008B4A10008D2
:101AB0004CA100088C180020FFFFFFBFFFFBFFFFB9
:101AC000E4140020BCA100080C120020E018002043
:101AD0001C190020FF0100002A000000CCA0000813
:101AE000FFFFFBFF289E0008FFFFFFFBF1B584B05E
:101AF000049E049DFF27002D00D1A9E2BC493000BF
:101B000002F0F9F90500002D00D1A1E268466979DB
:101B10000171A87901A9487001A840783A2804D138
:101B200068460079303807000AE0684600790A21E3
:101B3000414301A84078081884218900401A070011
:101B40003800AC4908700120AB4908703FB238003A
:101B50000028032800D84CE2001F012800D86CE2BE
:101B6000801E012800D844E2801E012800D864E2CB
:101B7000801E00D150E2401E012800D85DE2801E88
:101B8000012800D835E2801E00D156E2401E03280D
:101B900000D82EE2001F00D14FE2401E00D128E203
:101BA000401E012800D848E2C01E00D121E2401E9C
:101BB000012800D841E2801E00D1ADE1801E00D195
:101BC00017E2401E012800D837E2801E012800D805
:101BD0000FE2801E012800D82FE2801E00D108E20B
:101BE000401E00D129E2401E00D102E2401E04281E
:101BF00000D822E2401F012800D8FAE1001F052882
:101C000000D8F6E1801F20D0801E00D1C7E1401E21
:101C10002FD0401E00D10DE1401E00D12CE1401E0E
:101C2000012800D8ACE1C01E32D0801E00D1E0E116
:101C3000401E00D1C9E1401E00D1D0E1001F00D1FB
:101C40007EE1801E00D1D4E1F8E1C749300002F006
:101C500052F90500684669790170C4480178F0209E
:101C60000840694609780907090F0143BF48017018
:101C7000E4E16846A97D0170BC480178F020084085
:101C8000694609780907090F0143B8480170D5E191
:101C9000B74802F03FF8C00F002803D0B54802F063
:101CA0006BF9D5E1B44802F035F80100C901C90F5C
:101CB000002903D00020B149086012E0AC4802F0CE
:101CC00029F80200AA491020104302F01DF9AA4881
:101CD00002F020F80200A84980204004104302F0DE
:101CE00013F9A149300002F006F90500002D00D1DA
:101CF0009FE0684669790170684600783038D549B8
:101D000008706846297A0170687A69464870A87A2E
:101D100069468870E87A6946C870684600783A284B
:101D200006D16846E9790170287A694648702EE044
:101D3000684640783A2809D16846E9790170287ADE
:101D400069464870687A6946887020E068468078FD
:101D50003A280CD16846E9790170287A69464870BA
:101D6000687A69468870A87A6946C8700FE0684644
:101D7000C0783A280BD16846E9790170287A69461B
:101D80004870687A69468870A87A6946C87068465B
:101D900040783A2805D1684600783038AE498884C2
:101DA00042E0684680783A280CD1684600780A21DB
:101DB000414368464078081884218900401AA649A2
:101DC000888431E06846C0783A2817D1684601789F
:101DD00064204843694649780A224A438018694684
:101DE000897840189D49401A9B4988841CE000BFAF
:101DF00034A10008681700206E170020684601789B
:101E0000FA20800048436946497864224A43801892
:101E1000694689780A224A4380186946C978401879
:101E20008F4940188C4988848E484068401C8D49F1
:101E3000486003E18B4800788021014389480170A4
:101E400088480078DF2101408648017000208549DC
:101E50004860474801F05EFF45490222904302F086
:101E600053F8434801F056FF020041498020000624
:101E7000104302F049F8E1E07A4800784006400E4D
:101E8000784908707748007820210143754801702F
:101E9000374801F03FFF36490222904302F034F800
:101EA000334801F037FF020031498020000610431B
:101EB00002F02AF82E4801F02DFFC00708D5694826
:101EC0000078C0B2C009C0B2002801D101F0B2FD53
:101ED000274801F01FFF01000903C90F00291AD08C
:101EE000052061490880224801F014FF02002049C2
:101EF0008020C002104302F007F81D4801F00AFFDD
:101F000002001B4980208003104301F0FDFF574869
:101F100000685749086091E05649300001F0EBFF36
:101F2000050011200400222C06DA285D5249091907
:101F30003E310870641CF6E70B204A49C8757DE005
:101F40004E49300001F0D7FF050011200400222C7B
:101F500006DA285D484909193E310870641CF6E725
:101F60000C204049C87569E0C4A100086917002029
:101F7000E0180020CCA10008E1180020B0140020D7
:101F80003F4801F0C7FEC00F002807D03C4801F0D1
:101F9000C1FE3B494000400801F0B6FF4EE0002082
:101FA00038490870364801F0B5FE354902229043A1
:101FB00001F0AAFF324801F0ADFE02003049802056
:101FC0000006104301F0A0FF38E00A202E490870F7
:101FD0002B48C079012101432948C1712EE0092015
:101FE000294908702648C079FE2101402448C17162
:101FF00024E0234801F08EFE21490222904301F0A3
:1020000083FF1F4801F086FE02001D498020000664
:10201000104301F079FF11E0194801F07BFE010047
:10202000C906C90F002907D0154801F073FE1449ED
:102030001022904301F068FF00E0FFE7802080005D
:10204000039000200290029A0399300001F038FEBC
:1020500005B0F0BD6A17002048170020D01400001A
:10206000B02F00008C1800209E140020AC1400201B
:10207000A8140020D8A000080C140020E4A0000838
:10208000E0180020281900206E17002070B580216C
:10209000C9006C4801F082FF6B484078F121014093
:1020A0006948417000206949087000F025F900F086
:1020B00092F800F016F80A21654801F03BFE00F0A6
:1020C000E5FF082500248B4E22002900300001F096
:1020D000F7FD964802F01FF9002801D001F026FC18
:1020E00070BD00B55848007808210143564801707A
:1020F00055480078802101435348017052480078C8
:10210000BF210140504801704F484078F121014003
:102110004D48417000204C49487400204A49C87419
:102120000020494988740020474948604648407863
:10213000FE21014044484170FF204349C8750220F8
:102140004149087502204049487500203E4988757C
:1021500000203D49C860764801F0DCFD7449012249
:102160000243100001F0D0FE714801F0D3FD704928
:1021700002220243100001F0C7FE6E4801F0CAFDC2
:102180006C496D4A0240100001F0BEFE6848C079FB
:10219000DF2101406648C171654880790121014312
:1021A000634881716248C079EF2101406048C17184
:1021B0005F48C079BF2101405D48C1715C48C0796A
:1021C0004006400E5A49C8715948007AFE21014024
:1021D0005748017200BD70B55848C079C721014009
:1021E0005648C171002056490860002055490860D2
:1021F00000205549086000205449086000205449D7
:1022000008600020534908800020534908600020DE
:10221000524908600020524908600020474948732D
:1022200000205049086000204F49088005204F4990
:102230000880012400254E4E2A002100300001F0C4
:102240003FFD70BD481700208C1800202819002081
:102250005C17002080B547480068042101434548C9
:1022600001604448006804210840009000984148FB
:102270000068012101433F4801603E4800680100B9
:10228000C907C90F00910098802040013A490863AE
:1022900001203949486301203749886303203649C2
:1022A000C8633649364802F029F9002035490870DC
:1022B000FF203549C875002280214901304802F0CD
:1022C000ADFAC82002F0F8FA0122802149012C4819
:1022D00002F0A4FA322002F0EFFA802149012848E6
:1022E00002F0F5F92848C07D0E2801D000BFF9E7BB
:1022F00001BD0000F418002080B5002280214901B2
:10230000A020C00502F08AFA01222049204802F0EC
:1023100056FC002809D1064801F0FCFC0449802243
:1023200092010243100001F0EFFD01BD8C17002067
:10233000E0180020E2180020FFFFFFEF0C1400203F
:10234000B0140020A4140020AC140020BC14002001
:10235000B41400209C140020C0140020C8140020D5
:10236000CC140020D0140020981400209E140020CB
:102370002B1900202C10024048170020781700204D
:1023800000080050281900208C1800205A14002042
:10239000E8150020F1B582B00024A74801F0BAFC8E
:1023A0000100C906C90F002900D0CBE372B6A348CB
:1023B00001F038FDA249886262B6A148806A00280F
:1023C00000D1BFE39E48806A8079401E34D0401E11
:1023D000022800D895E3001F00D1D5E0801E00D16F
:1023E00082E3401E00D19EE3401E00D19AE3801E8E
:1023F00000D1A6E2401E00D102E3401E00D138E227
:10240000401E39D0401E00D153E1001F00D119E118
:10241000401E00D1B4E1401E6DD0401E00D17AE1D3
:10242000001F00D144E1401E00D105E2401E08D04B
:10243000C01F00D11EE385E38148806A00F090FF51
:1024400080E37F48806A40780007000FC949097817
:10245000F8220A404007400F1043C6490870002088
:10246000C5498875C448407801210143C24841707C
:102470000020C249087065E3BE48C079C721014009
:102480000830382202400A43BA48C271B948C079BC
:10249000C0B2C0084007400F092809DBB6484078A1
:1024A00001210143B44841700420B449087049E354
:1024B0000120D849624A926A52781207120F885452
:1024C0005F48806A40780007000FAA490978F8221F
:1024D0000A404007400F1043A64908700020A64953
:1024E0008875A548407801210143A3484170002028
:1024F000A249087026E39F48007AF8210140401C59
:102500004007400F08439B490872C34801F002FC92
:102510000200C149C148104001F0F6FC0020C0494A
:1025200008609448007A4007400F052809DB92486C
:102530004078012101439048417004208F49087080
:1025400000E30120B7493E4A926A52781207120FFF
:1025500088543B48806A40780007000F8549C97954
:10256000F8220A404007400F10438249C8710020FA
:102570008149887580484078012101437E48417037
:1025800000207E490870DDE201F0BFF97948C07A89
:1025900001280BD1A448006800907648436E754826
:1025A000026EA249A24801F067FB0EE07148C07AB2
:1025B00000280AD19C48006800906E48436E6D4820
:1025C000026E9C499A4801F057FB994801F070FB54
:1025D00080B201F0B2F90400E4B2002C22D1002054
:1025E0008F4908608C4801F095FB02008A498020E1
:1025F0004005104301F088FC0F4801F08BFB0200FE
:102600000D491020104301F07FFC0B4801F082FBC4
:10261000020009490420104301F076FC06205649C7
:10262000887508E00D20554908705348407801210D
:1026300001435148417085E2E01800205C170020FA
:102640004817002001F061F9C9480388494880789B
:102650004207520FC749764801F00EFB744801F05B
:1026600027FB80B201F069F90400E4B2002C12D11A
:1026700001F04BF9BE480688D94805686C4F320016
:102680002900380001F04AFC72B6B948008801F010
:1026900054F9040062B6E4B2002C08D03648407801
:1026A00001210143344841700D203449087049E24A
:1026B00048E201F02AF92F48C06E00905A4803689A
:1026C0002C48026EC7495A4801F0D6FA584801F022
:1026D000EFFA80B201F031F90400E4B2002C09D025
:1026E0002548407801210143234841700D202349AA
:1026F00008700FE0102020498875002048490860C4
:10270000454801F007FB0200434980204005104383
:1027100001F0FAFB16E201F0F8F81648C36E4248E1
:102720000268B149424801F0A7FA414801F0C0FAF5
:1027300080B201F002F90400E4B2002C09D00E4886
:102740004078012101430C4841700D200B4908706D
:102750000FE01720084988750020314908602E488D
:1027600001F0D8FA02002C4980204005104301F006
:10277000CBFBE7E10C1400208C180020E4140020AF
:102780002448D749896A49780907090F405C00281D
:102790003BD001F0BAF8D248806A40780207120FA5
:1027A000D049234801F068FA214801F081FA80B24B
:1027B00001F0C3F80400E4B2002C29D10020D7496D
:1027C0000870D74801F0A6FA0200D549102010433E
:1027D00001F09AFBC248806A40780007000FD74991
:1027E0004979F0220A400007000F1043D34948718D
:1027F000D348407810210143D1484170D048007837
:1028000002210143CE48017002E0DA4801F0B4FB36
:1028100098E100BFF4180020E2180020FFFFFFEF4E
:10282000D014002024190020C4140020AC9B000800
:1028300078070020C49B000801F067F8CE49CF4814
:1028400001F01AFACD4801F033FA80B201F075F8C0
:102850000400E4B2002C0BD10020B0490870B0484D
:1028600001F058FA0200AE491020104301F04CFB71
:1028700068E101F04AF83E480388B048026FCF494A
:10288000BE4801F0F9F9BD4801F012FA80B201F03A
:1028900054F80400E4B2002C09D0A9484078012182
:1028A0000143A74841700D209C49087048E000F0A2
:1028B000E7FC0400E4B2002C08D0A14840780121D4
:1028C00001439F4841700D209449087028480388AF
:1028D0009A48026FBA49A94801F0CEF9A74801F019
:1028E000E7F980B201F029F80400E4B2002C08D026
:1028F0009348407801210143914841700D20874958
:10290000087001F002F81A480688354805689B4FA0
:1029100032002900380001F001FB984801F0C8F9A5
:1029200080B201F00AF80400E4B2002C08D0844818
:10293000407801210143824841700D207749087099
:1029400000E100F0E2FF7D48006F002804D19D49BE
:102950008A4801F091F91AE07848006E00280BD1FE
:102960007648026F9849854801F086F90FE000BF6C
:1029700090140020749D00089448006800906F48EF
:10298000036F6E48026E92497C4801F075F97B48EE
:1029900001F08EF980B200F0D0FF0400E4B2002C08
:1029A00024D15F4801F0B6F902005D49802080051E
:1029B000104301F0A9FA5A4801F0ACF90200584955
:1029C0008020C002104301F09FFA554801F0A2F99F
:1029D0000200534980204005104301F095FA0EE0B3
:1029E0008C140020149A0008DC9B0008544840789E
:1029F00001210143524841700D2048490870A1E06F
:102A000000F083FF4D487C2140560021C943884295
:102A10001CD14A487D2140560021C943884215D126
:102A20004648006F002803D04448406F00280DD16D
:102A30004248006F002809D04048406F002805D167
:102A40003E48026FD8494D4801F016F94B4801F055
:102A50002FF980B200F071FF0400E4B2002C08D01E
:102A60003748407801210143354841700D202B49FA
:102A7000087067E000F049FF5448006800902F4854
:102A8000036F2E48026ED3493C4801F0F5F83B48ED
:102A900001F00EF980B200F050FF0400E4B2002C07
:102AA00014D11F4801F036F902001D498020C004EE
:102AB000104301F029FA1A4801F02CF902001849D4
:102AC0008020C002104301F01FFA08E01C48407843
:102AD000012101431A4841700D201049087031E06E
:102AE00048170020809F00081548407801210143C5
:102AF000134841700D20094908700020104988755D
:102B000020E00F484078012101430D48417000202A
:102B10000249087000200A49887513E0E414002077
:102B2000E01800200EE0AC4801F0F4F80200AA49D9
:102B30004020104301F0E8F904E000BF0C1400202D
:102B40008C180020A44801F0E5F80100C903C90F62
:102B5000002915D0A04801F0DDF802009E499F48E9
:102B6000104001F0D1F99E48006880B202F044FFA5
:102B700051E100BFF49B0008909F000878070020F7
:102B8000954801F0C7F801004902C90F002921D07A
:102B900094480078C0B2C0080100C907C90F0029D5
:102BA00018D08D4801F0B6F802008B498E481040CD
:102BB00001F0AAF902F06AFF2DE100BF889D00082C
:102BC0009C9D00089CA00008A09F0008C414002041
:102BD000D0980008854801F09DF801000901C90F4F
:102BE000002926D0814801F095F802007F49C448A9
:102BF000104001F089F9C34800880090C24803687A
:102C0000C24AC3484078C0B2C0084007400F010024
:102C100049B20020C04303F083FB8026B6000025A4
:102C2000BA4F2A003100380001F04AF800F050FA9B
:102C3000F1E06E4801F06EF80100C900C90F0029EB
:102C400029D06A4801F066F802006849B14810408E
:102C500001F05AF9AB4800880090AB480368AB4AD2
:102C6000AB484078C0B2C0084007400F010049B2ED
:102C7000A748C0784007401740B203F051FB8026B8
:102C8000B6000025A14F2A003100380001F018F8E5
:102C900000F01EFABFE0554801F03CF80100490081
:102CA000C90F002918D09C48994989794907490FCB
:102CB000405C002806D00221954880794007400FEB
:102CC00000F0DAFD494801F025F802004749934831
:102CD000104001F019F99EE0444801F01BF8010092
:102CE0008900C90F002910D002218D4803F040FB54
:102CF00002203C4908753D4801F00CF802003B49B0
:102D00008848104001F000F985E0874801F002F89A
:102D10000100C901C90F002925D0834800F0FAFF3E
:102D2000020081498148104001F0EEF82A4800F085
:102D3000F1FF01008900C90F002903D0734800F09A
:102D40009AFF04E07A480188704800F093FF8026DB
:102D5000B60000256D4F2A003100380000F0B0FFAA
:102D600000F0B6F957E0704800F0D4FF0100890187
:102D7000C90F00291AD0654800F07DFF8026B600F3
:102D80000025624F2A003100380000F099FF00F062
:102D90009FF9654800F0BEFF02006349C04810403B
:102DA00001F0B2F837E000BFB09F00080A4800F019
:102DB000B1FF01004904C90F002919D000F058FFE4
:102DC000054800F0A7FF02000349C048104001F089
:102DD0009BF820E0309A0008E0180020FFFFFEFF7B
:102DE000A41400208C180020FFFFBFFFE118002072
:102DF000BB4800F08FFF01000904C90F00290AD069
:102E000000F037FFB64800F085FF0200B449B5482E
:102E1000104001F079F8B448C07D002800D1A9E045
:102E2000012800D1ADE0022800D1B1E0032800D193
:102E3000B5E0042800D1B9E0052800D1BDE006289E
:102E400000D1C8E0072800D1CCE0082800D1D0E0AC
:102E500009284BD00A286DD00B2871D00C2876D0C9
:102E60000D2800D1B0E00E282BD00F2800D10CE1A6
:102E7000102800D1C4E0112800D1CFE0122800D1E1
:102E8000D3E0132800D1D7E0142800D1FDE01528A5
:102E900000D1BCE0162800D1D5E0172800D1D9E038
:102EA000182800D1DDE0192800D1E1E01A2800D16E
:102EB000E5E01B2852D01C2856D0FF2800D1E4E0C2
:102EC000E3E089484078C0B240084007400F02283C
:102ED0000BD185484078F1210140801C0E22024030
:102EE0000A438148427003F055FACEE0BF480078AB
:102EF000002804D10120BD49087003F055FAC4E050
:102F0000FFFFFFF79A140020B81400200C0E0020D9
:102F10000C140020FFFFFFEFF4180020FFFFFFBF9D
:102F200010140020FFFFFFDFE2180020FFFFFFFE6C
:102F30009614002000F097FEFF206B49C875A4E0AE
:102F4000AB4800F091FEFF206749C8759DE0A84896
:102F500000F08BFEFF206449C87596E003F02EFA5E
:102F6000FF206149C87590E003F028FAFF205E4910
:102F7000C8758AE0FF205C49C875112000F071FE19
:102F800083E0FF205849C875142000F06AFE7CE0F9
:102F9000FF205549C875132000F063FE75E0FF203F
:102FA0005149C875152000F05CFE6EE0FF204E49C7
:102FB000C875162000F055FE67E0FF204A49C87525
:102FC0001B2000F04EFE60E0FF204749C8751C2022
:102FD00000F047FE59E0FF204349C875172000F074
:102FE0003FFE52E0FF204049C875122000F038FE35
:102FF0004BE0FF203C49C875182000F031FE44E04A
:10300000FF203949C8751D2000F02CFE3DE0FF204F
:103010003549C8751E2000F025FE36E0FF203249F4
:10302000C875192000F01EFE2FE0FF202E49C8753C
:103030001A2000F017FE28E0FF202B49C875062053
:1030400000F010FE21E0FF202749C8751F2000F086
:103050000DFE1AE0FF202449C875202000F006FE6E
:1030600013E0FF202049C875212000F0FFFD0CE08F
:10307000FF201D49C875222000F0F8FD05E0FF2063
:103080001949C87500F0F3FDFFE7F7BD00201649A8
:103090008860154800780421014313480170704787
:1030A000FFFFFFFD0020104988600F480078FB21DA
:1030B00001400D48017001200B49487470470A48CF
:1030C0000078F7210140084801707047FFBFFFFFFB
:1030D000054800780821014303480170704700004B
:1030E000E0180020FF7FFFFF8C18002080B58C487F
:1030F0000078C0B280080100C907C90F00290AD0B2
:1031000087480078C0B2C0080100C907C90F00296C
:1031100001D000F0CDF8834800F0FCFD010049012A
:10312000C90F00290FD0804800F04CFF00280AD0BA
:103130007C4800F0EFFD7B497C4A0240100000F023
:10314000E3FEFFF7D9F87A4800F0E4FD01008906B4
:10315000C90F002913D0774800680100491C754A3F
:103160001160754988420AD3714800F0D3FD704957
:103170002022904300F0C8FE00206E490860694894
:1031800000F0C8FD01000901C90F002929D06B48D2
:1031900000680100491C694A1160FA21C90088428F
:1031A0001FD3634800F0B6FD0100C905C90F00290F
:1031B0000AD05F4800F0AEFD5D4980225200024314
:1031C000100000F0A1FE0AE0594800F0A3FD010044
:1031D000C905C90F002902D11B205149C87500F04B
:1031E0001BFC01BD01214E4AD174704728190020F3
:1031F0005B14002010B504004D4800F08BFD4C49D5
:103200004F4A0240100000F07FFEFFF74BFF72B6FE
:103210004C49454800F0F0FE62B6FFF737FF4248E0
:1032200000F0C6FE002811D03E4800F073FD0200F9
:103230003C498020C004104300F066FE012280213A
:103240004901A020C00501F0E9FA18E0384800F073
:1032500061FD0100C904C90F002910D101223949BB
:10326000394801F0ACFC002809D1314800F052FD8A
:1032700002002F4980208001104300F045FE10BD60
:1032800000B5274840780100C907C90F002901D1BE
:1032900000BFF6E722484078FE21014020484170F7
:1032A0002A48007800BD10B5040000F03FFB10BDB7
:1032B00080B572B61C4800F0BDFE2549886762B62D
:1032C0002348806F002803D02148806FFCF72CFF33
:1032D000204800F01FFD0100C901C90F00291CD0C2
:1032E0001D480068401C1C4908601B4800683328C2
:1032F00013D3002018490860164800F00BFD15494B
:10330000164A0240100000F0FFFD094800F002FDDF
:1033100007491022904300F0F7FD01BD00000000B6
:103320008C180020E218002048170020FFFFFFFB48
:10333000E0180020CC1400206C070000C814002006
:10334000FFDFFFFF5A140020E8150020E4140020DE
:103350000C140020E1180020B0140020FFFFFFFE35
:1033600010B504002078042857D0052859D0082823
:103370005BD009285DD00A285FD00B2861D00C28CB
:1033800063D00F2865D0142867D0162869D0172875
:103390006BD018286DD01A286FD01B2871D01F2829
:1033A00073D0202875D0232800D1AAE0242800D18A
:1033B000B1E0262800D1B2E0282800D1B9E02928C0
:1033C00000D1BAE02A2800D1BEE02B2800D1BFE00E
:1033D0002C2800D1C0E0372800D1C1E03A2800D124
:1033E00003E13D2800D172E13E2800D17DE13F2874
:1033F00000D18BE1402800D10EE1422800D1BBE191
:10340000432800D186E1442800D18EE1452800D12F
:1034100098E1462800D1A0E1B8E10720D549C87558
:10342000B4E10020D349C875B0E10120D149C87585
:10343000ACE10220CF49C875A8E10320CD49C87589
:10344000A4E10420CB49C875A0E10620C949C8758C
:103450009CE10820C749C87598E11120C549C87585
:1034600094E11220C349C87590E11320C149C87581
:103470008CE10920BF49C87588E10A20BD49C8759B
:1034800084E10520BB49C87580E10D20B949C875A4
:103490007CE1B8484078C0B240084007400F02289D
:1034A00009DAB4484078F1210140801C0E22024024
:1034B0000A43B0484270AF48007810210143AD483C
:1034C00001700E20AB49C875B44800F023FC010020
:1034D0004906C90F002913D0B04800F01BFCAF49C2
:1034E0004022904300F010FDAC4800F013FC0200B5
:1034F000AA49A748104000F007FD1C209D49C87547
:1035000044E1A64800F006FC0200A449A14810408E
:1035100000F0FAFC3AE116209649C87536E1954864
:103520000078EF210140934801700F209149C87540
:103530002CE110208F49C87528E1002096490870B9
:1035400015208C49C87521E117208A49C8751DE1ED
:1035500018208849C87519E119208649C87515E1F0
:103560008E4800F0D7FB01008902C90F002911D055
:103570008A4800F0CFFB020088498948104000F0DB
:10358000C3FC864800F0C6FB020084498548104011
:1035900000F0BAFC60780007000F83490978C72261
:1035A0000A40C0003821014011437F480170914812
:1035B0007D490978C9B2C9084907490F405C00280C
:1035C00012D0764800F0A6FB020074498020C003A8
:1035D000104300F099FC714800F09CFB02006F4919
:1035E0001020104300F090FCD0E060780007000F3E
:1035F0006D498979F8220A404007400F10436A4913
:1036000088717D4800F086FB02007B498020C00560
:10361000104300F079FCB9E0A088784908605F4861
:1036200000F078FB02005D4980200003104300F0A9
:103630006BFC5A4800F06EFB020058491020104302
:1036400000F062FC4B480078C0B240090100C90795
:10365000C90F00291FD1A07801280AD14F4800F0D6
:1036600059FB4E490122904300F04EFC00F0F2F964
:103670002CE04A4800F04EFB0200484960481040E8
:1036800000F042FC454800F045FB444910229043BD
:1036900000F03AFC1AE0414800F03CFB02003F49D0
:1036A0008020C002104300F02FFC052055490880FF
:1036B0003A4800F02FFB0200384980208003104375
:1036C00000F022FC4D4800684F4908605EE0334836
:1036D00000F020FB020031498020C001104300F0BF
:1036E00013FC01204949087050E02C4800F012FBFF
:1036F00002002A4980200002104300F005FC00204F
:10370000434908700020414908703FE01A201949D8
:10371000C8753BE0214800F0FDFA02001F498020F7
:103720008000104300F0F0FB30E01C4800F0F2FA9B
:1037300002001A491648104000F0E6FB1C200D4913
:10374000C87523E0154800F0E5FA0200134980200F
:103750004000104300F0D8FB18E0104800F0DAFAFF
:1037600002000E492B48104000F0CEFB00F042F959
:103770000CE000BF8C180020084800F0CBFA0200D3
:1037800006498020104300F0BFFBFFE710BD00009A
:10379000FFFDFFFFFFFBFFFF28190020E0180020BE
:1037A000FFFFDFFFFFFFFBFF0C14002070B50600DA
:1037B0000D00140000F08CF82E480580424804608B
:1037C00042488078F82101407007400F08433F4984
:1037D000887014202549087072B6514803C80A0041
:1037E0000100234800F0C9FA62B64D4800F074FBAE
:1037F00070BD0000F4180020E1180020AC14002077
:10380000FFFFF7FF9E140020A814002029190020B4
:103810002A190020FFFEFFFFF8B506000D00140076
:103820001F0000F055F8294806660F480560274834
:10383000C466FFB2022F03D110200C49087005E0C6
:10384000FFB2012F02D11E200849087072B6344819
:1038500003C80A000100064800F08FFA62B630483B
:1038600000F03AFBF1BD0000C41400206E170020E8
:103870005C1700209014002038B505000C0000F003
:1038800027F8E4B2022C03D115202649087005E080
:10389000E4B2012C02D12320224908705D4800784F
:1038A000F02101402807000F08435A49087072B6FA
:1038B0001B4803C80A0001001B4800F05EFA62B60C
:1038C000174800F009FB31BD8C1400200C140020B7
:1038D00000B5684800780100C907C90F002911D157
:1038E00064480078C0B240080100C907C90F002928
:1038F0000AD060484078C0B200090100C907C90F6A
:10390000002901D100BFE4E700BD70B58024E400C8
:103910000025594E2A002100300000F0D1F970BD79
:10392000681700206E1700205C17002080B500206B
:1039300002F096FDFEF7E0FC01BD10B504004D4815
:103940000078C0B200090100C907C90F00290AD1D7
:1039500048480078C0B280090100C907C90F002992
:1039600001D1052045E0AF4800F0D4F901008905F8
:10397000C90F002907D1AB4800F0CCF90100C905F7
:10398000C90F002901D0102033E0A64800F0C2F989
:103990000200A44980204001104300F0B5FAA4B20F
:1039A000002C04D1914800F0E7FA1F2021E0FA230F
:1039B0009B00220092B230498D4800F0F2FF0028AF
:1039C00003D0FFF7B3FF0F2013E0964800F0A2F9F1
:1039D000020094499448104000F096FA914800F093
:1039E00099F901008904C90F002901D1FEF784FC6F
:1039F000002010BD00B58D4800F08CF98B49802265
:103A000012050243100000F07FFA00208B49086085
:103A100000BD00006917002000B5844800F07AF965
:103A20008249834A0240100000F06EFA0020834968
:103A3000086000BD10B50024FFF767FF7D4980488E
:103A400000F01AF97E4800F033F980B2FFF775FFF5
:103A5000040010BD10B50024FFF757FF76497848E1
:103A600000F00AF9764800F023F980B2FFF765FF0D
:103A7000040010BD8C18002078070020F3B583B037
:103A80000024FFF742FF039A6E496D4800F0F4F8F6
:103A90006B4800F00DF980B2FFF74FFF0400E4B26D
:103AA000002C18D1FFF7ECFB04001B4800F000F9D4
:103AB000009000980290184D049E029A2900300050
:103AC00000F02CFA009801900026134F3200019963
:103AD000380000F0F5F82000C0B205B0F0BD0000DD
:103AE00070B506000D000024FFF70FFF2B00320019
:103AF0005549534800F0C0F8514800F0D9F880B259
:103B0000FFF71BFF0400E4B2002C02D1FFF7B8FB63
:103B100004002000C0B270BD1A14002070B5060069
:103B20000D000024FFF7F1FE2B0032004749444806
:103B300000F0A2F8424800F0BBF880B2FFF7FDFEAB
:103B40000400E4B2002C02D1FFF79AFB040020002D
:103B5000C0B270BD38B505000024FFF7D6FE2A00BC
:103B60003B49374800F088F8354800F0A1F880B2AA
:103B7000FFF7E3FE0400E4B2002C02D1FFF780FB64
:103B800004002000C0B232BD38B505000024FFF7A4
:103B9000BCFE2A002F492A4800F06EF8284800F0A1
:103BA00087F880B2FFF7C9FE0400E4B2002C02D10E
:103BB000FFF766FB04002000C0B232BD10B5002440
:103BC000FFF7A3FE24491E4800F056F81C4800F0F9
:103BD0006FF880B2FFF7B1FE0400E4B2002C02D10E
:103BE000FFF74EFB04002000C0B210BD1099000882
:103BF000E815002010B50024FFF787FE174910488C
:103C000000F03AF80E4800F053F880B2FFF795FE46
:103C10000400E4B2002C02D1FFF732FB04002000C4
:103C2000C0B210BDE0180020FFEFFFFFE218002037
:103C3000FFFFFFF714A100081CA10008C814002012
:103C400078070020C09F0008C49D0008D89D000888
:103C5000B09D0008F098000824A100082CA10008DD
:103C6000704770477047704770477047704770479C
:103C700070477047704770470CB41CB5040004A827
:103C80000190009401AB0A006946084878441C3052
:103C900002F0FAFB0021009A1170002801D400986C
:103CA000001B02B0019910BC03B008477F00000060
:103CB000010000E0491C0A78002AFBD1081A70476D
:103CC0001206130A1A43130C1A4300BF094205D007
:103CD000830705D00270401C491EF9D170470000CF
:103CE000130030B414001500103902D310393CC051
:103CF000FCD2490700D30CC000D504C0890002D310
:103D00000280801C002900D5027030BC7047000082
:103D10000022E5E7C3788278417800781B021A43D5
:103D2000090212040843104370470268531C0360E1
:103D30001170704710B408231A0013000C0063437D
:103D40008380002303800023C38000234380604BD3
:103D5000836010BC704700B58188C088C90888425C
:103D600001D1012000E0002000BD00B5C08800287E
:103D700001D1012000E0002000BD76B50400200044
:103D8000FFF7E9FF00284CD16088C0080500A06853
:103D9000082169434018694689888180A068082104
:103DA00069434018694689788170A0680821694391
:103DB0004018A16808226A4389184A78F021114006
:103DC0006A4652781207120F0A434270A06808210F
:103DD00069434018A16808226A438918497809078D
:103DE000090F6A465278F02313400B43437068462C
:103DF0000078A16808226A438854A06808216943B2
:103E00004018694689798171E088401CE0806088AB
:103E100008306080A08806006088310002F05EFFF4
:103E2000618073BD70B504002000FFF79EFF00287D
:103E300001D000204AE02088C0080500A0680821C1
:103E400069434018808823498880A0680821694315
:103E5000401840780007000F1E494978F0220A40B8
:103E60000007000F10431B494870A06808216943F0
:103E700040184078C0B20009164949780907090F6F
:103E80000001084313494870A0680821694340189D
:103E9000807810498870A06808216943405C0D490A
:103EA0000870A06808216943401880790949887121
:103EB000208808302080E088401EE080A08806002E
:103EC0002088310002F00AFF2180024870BD000006
:103ED00058160020EC1800200021818000218171FB
:103EE0004178F0220A400921114341700921817073
:103EF00063210170704738B505000C0021002800CF
:103F000002F046FF32BD200084460870000A487067
:103F1000000A8870000AC87060467047124207D0D5
:103F20008B0706D00B78491C0370401C521EF7D833
:103F30007047830706D00B78491C0370401C521E43
:103F4000F9D1704770B4103A03D378C9103A78C0E9
:103F5000FBD2530701D318C918C001D508C908C03E
:103F6000D20704D30B880380891C801C002A01D54A
:103F70000B78037070BC70470EB400B582B003A913
:103F800000916B4602000121034878440A3002F098
:103F90007BFA029906B00847ED5C000081600022C0
:103FA00002600022C26000224260884A02617047BB
:103FB00000B5C068CE218900884201DB012000E005
:103FC000002000BD00B5C068C92801DA012000E06A
:103FD000002000BD00B5C0688021C900884201D121
:103FE000012000E0002000BD00B5C068002801D11C
:103FF000012000E0002000BDF8B504000D00200005
:10400000FFF7E8FF002814D1E068401CE06060681A
:104010000100491C6160012621690F183200290046
:104020003800FFF77BFF60688021C90002F056FE70
:104030006160F1BDF0B585B00400654800902000D6
:10404000FFF7D2FF002801D00020BCE08025AD00A2
:1040500000265F4F320029003800FFF731FE5D482F
:10406000FFF758FE01004903C90F002900D190E075
:104070006768E068C82833DAE06857490880206834
:1040800087420CDB206854490988019121690D1889
:10409000009E019A29003000FFF740FF1BE02568D1
:1040A00020688021C900491B0191216908180290EC
:1040B000009E019A02993000FFF730FF20682169C5
:1040C00003910099081A8021C90046183A00039903
:1040D0003000FFF723FF606820600020E06071E09F
:1040E0002068874211DB2068C825216908180190E3
:1040F000009E2A0001993000FFF710FF2068C830A9
:1041000020602068381AE0603FE02068C8308021D5
:10411000C900884214DA2068C8252169081801906E
:10412000009E2A0001993000FFF7F8FE2068C83091
:1041300020608020C0002168401AC019E06024E09F
:10414000256820688021C900491B01912169081850
:104150000390009E019A03993000FFF7DFFE20686C
:104160001E4949190291216904910099081A802178
:10417000C9004618029A04993000FFF7CFFE17488D
:10418000401920602068381AE060C8201249088071
:1041900018E02068012521690E18009F2A003100CF
:1041A0003800FFF7BBFE2068401C2060E068401E1E
:1041B000E06001200849088020688021C90002F0E1
:1041C0008DFD2160009805B0F0BD0000780300204F
:1041D0000C100020E01800209C140020C8FCFFFFF9
:1041E00010B5426803685B1A002B10D403685B1A91
:1041F00003600368934203DA0368D31AC36012E0D2
:104200008023DB0004681B1B9B18C3600BE0036862
:104210008024E400641A1B1903608023DB00046817
:104220001B1B9B18C36010BD70B502F0CDFD0400D0
:10423000208880042DD565680026F64308E04A1BD7
:10424000290002F009FEB0420DD000280BD02D1835
:1042500003202056E1688D42F1D30022002102F0B4
:10426000FBFDB0420DD16068E0606061E0622088D3
:104270008021890001432180200002F0A6FD30004A
:1042800070BD6568E5606561E5622088114901409F
:104290002180200002F099FD002070BDF8B50028B3
:1042A00015D1C046C04600240B4D08260027FF4309
:1042B0002868002804D0FFF7B7FF002800D53C008D
:1042C0002D1D761EF4D1C046C0462000F2BDFFF77A
:1042D000ABFFF2BDFFDF00003403002010B5040087
:1042E000002C01D1012015E03520205C002805D1EB
:1042F000002034216054200002F043FE02203521CA
:1043000060542100091D206800F0BBF80120352110
:104310006054002010BD01000868C06801220243FB
:104320000868C260086800680122024308680260E9
:104330000020704710B504002068006980071BD575
:104340002068C068800717D50220C0432168086133
:1043500001202075206880698007800F002803D025
:10436000200000F08BF805E0200000F086F8200027
:1043700000F085F8002020752068006940071CD5F2
:104380002068C068400718D50420C0432168086130
:104390000220207520688069C02189000140002921
:1043A00003D0200000F06AF805E0200000F065F876
:1043B000200000F064F800202075206800690007E4
:1043C0001BD52068C068000717D50820C0432168A6
:1043D0000861042020752068C0698007800F0028CC
:1043E00003D0200000F04AF805E0200000F045F876
:1043F000200000F044F80020207520680069C00605
:104400001CD52068C068C00618D51020C04321689C
:104410000861082020752068C069C021890001401A
:10442000002903D0200000F029F805E0200000F06A
:1044300024F8200000F023F800202075206800698F
:10444000C0070AD52068C068C00706D50120C04350
:1044500021680861200002F0ECFD20680069400638
:104460000AD52068C068400606D54020C0432168B0
:104470000861200000F004F810BD704770477047D5
:10448000704700B5002203681A008023DB059842BC
:1044900005D0174B984202D0164B984201D1012308
:1044A00000E00023DBB2002B04D070239A431300FA
:1044B0004A681A438023DB05984205D00C4B98428A
:1044C00002D00C4B984201D1012300E00023DBB263
:1044D000002B05D01300084A1A401300CA681A437B
:1044E00002608B68C3620B6883620123436100BD75
:1044F0000008014000140140FFFCFFFFF0B502007E
:104500000023002400250868D840002800D1DDE001
:10451000086801269E4006403400002C00D1D3E0FC
:104520004868022802D0486812281BD1D8080426FF
:1045300070431018006A05000F201E007607760FE2
:1045400004277E43B040854308691E007607760F36
:1045500004277E43B04028430500D8080426704352
:10456000101805624868012808D04868022805D05C
:104570004868112802D0486812281CD190680500AC
:1045800003201E0002277E43B0408543C8681E00FA
:1045900002277E43B040284305009560506805001F
:1045A00001209840854348680600F606F60F9E40B5
:1045B0002E43350055601068050003201E000227B9
:1045C0007E43B040854308798007800F1E00022794
:1045D0007E43B040284305001560D06805000320E5
:1045E0001E0002277E43B040854388681E000227D4
:1045F0007E43B04028430500D5604868C00063D5BD
:104600008B480068012606438948066089489E0851
:1046100004277E43805905000F201E00B607B60F01
:1046200004277E43B0408543A020C005824201D1CB
:10463000002014E08048824201D101200FE07F4831
:10464000824201D102200AE07D48824201D103204A
:1046500005E07C48824201D1052000E006201E00D2
:10466000B607B60F04277E43B040284305007148C3
:104670009E0804277E438551734800680500A543C2
:104680004868C00300D525436F4805606F4800683F
:104690000500A5434868800300D525436B480560A5
:1046A0006B4800680500A5434868C00200D5254353
:1046B00067480560674800680500A54348688002B0
:1046C00000D52543634805605B1C1CE7F0BDF8B5C9
:1046D0000022002300240D00D540002D00D19CE0D5
:1046E000012595400D402B00002B00D193E006687A
:1046F0000327BC46150002277D436746AF40BE43F3
:104700000660D5080426754345190095D50804268A
:10471000754345192F6A0F25AC4615006E07760FB5
:1047200004256E436546B540AF43009D2F62866801
:104730000327BC46150002277D436746AF40BE43B2
:104740008660456801269640B5434560C6680327E4
:10475000BC46150002277D436746AF40BE43C66096
:10476000344D960804277E43AD592C000F251600C2
:10477000B607B60F04277E43B54025402C00A02580
:10478000ED05A84201D1002514E02B4DA84201D12E
:1047900001250FE0294DA84201D102250AE0284D4C
:1047A000A84201D1032505E0264DA84201D10525E7
:1047B00000E006251600B607B60F04277E43B54075
:1047C000AC4228D10F251600B607B60F04277E434A
:1047D000B5402C00174D960804277E43AE59A643DA
:1047E000144FBC46950804277D4367467E51164DFD
:1047F0002D689D43144E3560144D2D689D43134E16
:104800003560134D2D689D43114E3560114D2D6857
:104810009D43104E3560521C5DE7F1BD00B5D2B22C
:10482000002A02D089B2816101E089B2816200BDB3
:1048300034100240080001400004005000080050FD
:10484000000C0050001C0050000401400404014012
:10485000080401400C04014080B51E480068402156
:1048600001431C4801601B48006802218843194924
:104870000860032000F005F800F002F8002002BDF7
:10488000704710B5040003F00EF8FA21890002F019
:1048900028FA03F0CAF8002221000020C04303F0E8
:1048A000ACF8002010BD0C480068401C0A490860A4
:1048B000704709480068704711B581B00024FFF7C0
:1048C000F8FF0400FFF7F5FF001B01998842F9D3B8
:1048D00013BD0000002002401019002010B5040094
:1048E000002C01D1012033E0A0690028FFD169200C
:1048F000205C002805D1002068216054200002F0CF
:10490000C1FA0220692160542068006801218843AF
:1049100021680860200000F0FFFA606A002802D0D9
:10492000200000F0C9FC206840680A490140206866
:104930004160206880682A21884321688860206857
:1049400000680121014320680160200000F082FC22
:1049500010BD0000FFB7FFFF10B50400002C01D10F
:1049600001201DE0022069216054206800680121B7
:1049700088432168086000202168086000202168C1
:104980004860002021688860200002F0D8FA0020EA
:10499000E0660020692160540020682160540020F6
:1049A00010BDF8B505000C0016001F006920285C3A
:1049B000012803D06920285C222863D1002C02D072
:1049C000B6B2002E01D101205DE06820285C0128EC
:1049D00001D1022057E00120682168540020E866D8
:1049E0006920285C222803D132206921685402E022
:1049F00012206921685450202E5252202E525220EB
:104A0000285A002824D05220285A401E5221685289
:104A10003B0000228021280000F0C6FC002801D0C5
:104A2000032030E0A8688021490188420BD1286921
:104A3000002808D1009400980088C005C00D29689E
:104A40008862A41CDBE7207829688862641CD6E7AA
:104A50003B0000224021280000F0A6FC002801D0E5
:104A6000032010E06920285C322803D1222069212C
:104A7000685402E0012069216854002068216854CC
:104A8000002000E00220F2BDF8B582B004000D0065
:104A900016006920205C012804D06920205C1228BF
:104AA00000D08AE0002D02D0B6B2002E01D1012044
:104AB00084E06820205C012801D102207EE00120F2
:104AC000682160540020E0666920205C122803D130
:104AD00032206921605402E022206921605458206C
:104AE00026525A202652A0688021490188420AD1C4
:104AF0002069002803D16B485C21605220E0FF2030
:104B00005C2160521CE0A06800280AD120690028BE
:104B100003D1FF205C21605212E07F205C216052B3
:104B20000EE0A06880214905884209D1206900284B
:104B300003D17F205C21605202E03F205C21605263
:104B40005C20205A07005A20205A002825D05A20DD
:104B5000205A401E5A216052029B00222021200030
:104B600000F022FC002801D0032027E0A06880216B
:104B7000490188420AD12069002807D100952068A0
:104B8000406A384000990880AD1CDCE72068406A24
:104B90003900014029706D1CD5E76920205C32285E
:104BA00003D112206921605402E001206921605480
:104BB000002068216054002000E00220FEBD10B5F6
:104BC00003006920185C012803D06920185C1228B2
:104BD00066D1002902D092B2002A01D1012060E002
:104BE0006820185C012801D102205AE001206824C5
:104BF0001855596558201A525A201A52986880241C
:104C00006401A0420AD11869002803D125485C2418
:104C1000185320E0FF205C2418531CE098680028FB
:104C20000AD11869002803D1FF205C24185312E030
:104C30007F205C2418530EE0986880246405A0420D
:104C400009D11869002803D17F205C24185302E0A1
:104C50003F205C2418530020D8666920185C122875
:104C600003D132206924185502E022206924185506
:104C70001868006880246400044318680460186899
:104C80008068012404431868846000206824185553
:104C9000186800682024044318680460002000E0BD
:104CA000022010BDFF01000010B504002068C0699B
:104CB000C0070DD520680068C00509D5012021680E
:104CC0000862E06E01210143E16601206921605420
:104CD0002068C06980070DD520688068C00709D5A5
:104CE000022021680862E06E04210143E166012090
:104CF000692160542068C06940070DD5206880682C
:104D0000C00709D5042021680862E06E0221014332
:104D1000E1660120692160542068C06900070DD553
:104D200020688068C00709D5082021680862E06E05
:104D300008210143E166012069216054E06E0028EA
:104D400002D0200002F081F92068C069C0020DD5B0
:104D500020688068400209D58020400321680862ED
:104D6000012069216054200002F074FE2068C069AF
:104D7000800606D520680068800602D5200000F075
:104D80006EF82068C069000606D520680068000635
:104D900002D5200000F00CF82068C069400606D556
:104DA00020680068400602D5200000F040F810BDE1
:104DB00000B501006920085C122803D06920085C56
:104DC000322832D15220085A00280DD108680068D4
:104DD000802398430B6818600868006840230343E9
:104DE00008680360002021E0886880235B01984206
:104DF0000DD1086900280AD1C86C02001088C005CE
:104E0000C00D0B689862C86C801CC86406E0C86C52
:104E100003005B1CCB6400780B6898625220085A30
:104E2000401E5223C852002000E0022000BD10B5F1
:104E300004002068006840218843216808606920D8
:104E4000205C322803D122206921605402E0012035
:104E500069216054200002F0F2F8002010BD70B506
:104E600004005C20265A6920205C222803D0692097
:104E7000205C32284BD1A0688021490188420CD1A6
:104E80002069002809D1606D05002068406A304023
:104E90002880606D801C606508E0606D0100491C21
:104EA00061652168496A32000A4002705A20205A1E
:104EB000401E5A2160525A20205A002825D12068CD
:104EC000C0698006FBD420680068202188432168DF
:104ED00008606920205C322803D1122069216054C7
:104EE0000EE0206800680B490140206801602068DE
:104EF000806801218843216888600120692160540D
:104F0000200002F090F8002002E0002000E00220E3
:104F100070BD0000FFFEFFFFFEB504000020029000
:104F20000025002600272068B7498842FFD0A068E6
:104F30002169014360690843E169014302912068E6
:104F40000068B2490140029808432168086020685F
:104F50004068AF490140E068084321684860A069A3
:104F600002902068A849884203D00298216A014330
:104F7000029120688068B349014002980843216883
:104F800088602068B049884218D1B048006880071E
:104F9000800F002805D0022806D008D3032809D0A6
:104FA0000BE0012005004BE00220050048E0042052
:104FB000050045E00820050042E041E02068A449E2
:104FC000884219D1A14800680C210140002906D06F
:104FD00004290AD0082905D00C2909D00BE00020AB
:104FE00005002DE0022005002AE00420050027E04E
:104FF0000820050024E023E02068834988421FD16F
:1050000092480068C0210901014000290CD080208D
:10501000C00081420ED080200001814207D0C02014
:105020000001814209D00BE00020050008E00220C9
:10503000050005E00420050002E008200500FFE768
:1050400020687149884268D12800002806D00228CB
:105050001CD004283AD0082850D05DE002F033FC80
:1050600002F0FAFC0022904B02F006FD0090019144
:10507000606802F0F1FC02000B000098019902F058
:10508000BDFD02F01DFE2168C860DAE087480068B7
:10509000C0060DD5606802F0DFFC02000B000020A6
:1050A000834902F0ABFD02F00BFE2168C8600CE002
:1050B000606802F0D1FC02000B0000207D4902F084
:1050C0009DFD02F0FDFD2168C860BAE002F07EFBA4
:1050D00002F0C2FC0022744B02F0CEFC0090019161
:1050E000606802F0B9FC02000B000098019902F020
:1050F00085FD02F0E5FD2168C860A2E0606802F06D
:10510000ABFC02000B000020A34902F077FD02F087
:10511000D7FD2168C86094E093E0E069802109022E
:1051200088424AD12800002808D001280FD0022840
:1051300016D0042824D008282BD031E002F0C3FB7D
:1051400002214843616801F0CCFD070028E002F02D
:10515000C9FB02214843616801F0C3FD07001FE05D
:1051600052480068C00605D58C48616801F0B9FD59
:10517000070004E08A48616801F0B3FD07000FE012
:1051800002F024FB02214843616801F0AAFD0700F8
:1051900006E080204002616801F0A3FD0700FFE700
:1051A0008048384006003807000FC0B24008C0B23F
:1051B0000643B6B22068C66043E02800002808D045
:1051C00001280ED0022814D004282AD0082830D074
:1051D00037E002F078FB616801F083FD2168C86068
:1051E0002FE002F07FFB616801F07BFD2168C86061
:1051F00027E02E480068C0060CD5A248616801F07F
:1052000070FD2168C8600BE000480040F369FFEFC3
:10521000FFCFFFFF9C48616801F063FD2168C86013
:105220000FE002F0D3FA616801F05BFD2168C8600D
:1052300007E080200002616801F053FD2168C8602A
:10524000FFE7F7BDFFF4FFFF003801404C100240BC
:105250000044004010B504002068006800070AD52B
:105260008A4B002280218903200000F09DF800284D
:1052700001D0032017E02068006840070AD5834B5F
:1052800000228021C903200000F08EF8002801D000
:10529000032008E00020682160540020E06601201F
:1052A00069216054002010BD0000704000100240D1
:1052B0008084CE418084EE4100B52421415CC90741
:1052C00007D501684968724A0A40816A1143026839
:1052D00051602421415C890707D5016849686D4AFE
:1052E0000A40C16A1143026851602421415C4907A8
:1052F00007D501684968684A0A40016B1143026892
:1053000051602421415C090707D501684968634A57
:105310000A40416B1143026851602421415CC90677
:1053200007D5016889685E4A0A40816B11430268AB
:1053300091602421415C890607D501688968594A32
:105340000A40C16B1143026891602421415C490607
:1053500014D501684968544A0A40016C1143026837
:105360005160016C80225203914207D10168496863
:105370004E4A0A40416C1143026851602421415C4D
:10538000090607D501684968494A0A40816C1143FA
:105390000268516000BD00000000604100127A0008
:1053A0000048E801F0FF0000F4B504000F001D0004
:1053B0000026FFF77EFA06006846007800282FD105
:1053C0002068C0693840B8425AD00020C0438542A6
:1053D000F6D0002D04D0FFF76CFA801B8542EFD287
:1053E0002068006880218843216808602068006880
:1053F0002021884321680860206800682D49014009
:1054000020680160206880680121884321688860E5
:10541000012069216054002068216054032030E09D
:105420002068C0693840B8422AD10020C043854274
:10543000F6D0002D04D0FFF73CFA801B8542EFD256
:10544000206800688021884321680860206800681F
:1054500020218843216808602068006815490140C0
:105460002068016020688068012188432168886085
:10547000012069216054002068216054032000E06D
:105480000020F2BD00093D000024F400F0550000AA
:10549000FFFFFDFFFFFFFEFFFFFFFBFFFF7FFFFFA3
:1054A000FFEFFFFFFFDFFFFFFFFFEFFFFFFF9FFFAC
:1054B000FFFFF7FFFFFEFFFF38B504000025B048EF
:1054C000FEF75AFDAF48FEF757FDAF48FEF754FD13
:1054D000AE48FEF751FDFCF7D9FD012000F0DCFBE2
:1054E000FCF7B8FEFEF76AFB0500EDB2002D02D016
:1054F0002800C0B223E20121A548FEF70FFB0500FA
:10550000EDB2002D02D02800C0B218E2206B0028B6
:105510000AD0216BAD48FEF701FB0500EDB2002D6E
:1055200002D02800C0B20AE20021A948FEF7F6FA2C
:105530000500EDB2002D02D02800C0B2FFE12078B6
:10554000002802D0012817D02DE00021AF48FEF737
:10555000E5FA0500EDB2002D02D02800C0B2EEE160
:10556000AB49AC48FEF7BCFA0500EDB2002D02D005
:105570002800C0B2E3E116E00121A448FEF7CEFA0C
:105580000500EDB2002D02D02800C0B2D7E1B2492B
:10559000A048FEF7A5FA0500EDB2002D02D02800C4
:1055A000C0B2CCE1FFE76078002803D0022866D0C3
:1055B00022D3A7E00021A948FEF7B0FA0500EDB21A
:1055C000002D02D02800C0B2B9E10021B348FEF797
:1055D000A5FA0500EDB2002D02D02800C0B2AEE160
:1055E0000021AF48FEF79AFA0500EDB2002D02D077
:1055F0002800C0B2A3E185E001219848FEF78EFAA9
:105600000500EDB2002D02D02800C0B297E10B21B9
:10561000A448FEF783FA0500EDB2002D02D0280061
:10562000C0B28CE10021B948FEF778FA0500EDB26E
:10563000002D02D02800C0B281E10021B448FEF75D
:105640006DFA0500EDB2002D02D02800C0B276E15F
:1056500000219248FEF762FA0500EDB2002D02D05B
:105660002800C0B26BE100218D48FEF757FA050013
:10567000EDB2002D02D02800C0B260E142E001216D
:105680007648FEF74BFA0500EDB2002D02D0280057
:10569000C0B254E10C218348FEF740FA0500EDB298
:1056A000002D02D02800C0B249E10A219748FEF738
:1056B00035FA0500EDB2002D02D02800C0B23EE15F
:1056C00001219348FEF72AFA0500EDB2002D02D021
:1056D0002800C0B233E101217048FEF71FFA05002F
:1056E000EDB2002D02D02800C0B228E100216C48A4
:1056F000FEF714FA0500EDB2002D02D02800C0B26A
:105700001DE1FFE7A078002803280DD8A178062026
:1057100041438B48FEF702FA0500EDB2002D02D09E
:105720002800C0B20BE1FFE7E078002802280BD880
:10573000E1788448FEF7F2F90500EDB2002D02D0C1
:105740002800C0B2FBE0FFE7606800280AD061686B
:105750007D48FEF7C5F90500EDB2002D02D0280006
:10576000C0B2ECE0A068002814D0A1687748FEF72A
:10577000B7F90500EDB2002D0CD02800C0B2DEE074
:10578000649B0008A4990008B0980008109D0008C8
:10579000C09E0008E06800280AD0E1686C48FEF767
:1057A0009FF90500EDB2002D02D02800C0B2C6E07E
:1057B000206900280ED021696648FEF791F905009E
:1057C000EDB2002D06D02800C0B2B8E0D09E00088F
:1057D0003CA00008606900280AD061695E48FEF7B5
:1057E0007FF90500EDB2002D02D02800C0B2A6E07E
:1057F000E069002810D0E1695848FEF771F905000A
:10580000EDB2002D08D02800C0B298E0E09E00085C
:1058100048A00008249D0008206A00280AD0216AB8
:105820004F48FEF75DF90500EDB2002D02D02800CB
:10583000C0B284E0606A002812D0616AFA20800059
:1058400041434848FEF76AF90500EDB2002D07D044
:105850002800C0B273E000BF54A00008F09E00080A
:10586000A06A00280AD0A16A3F48FEF757F9050050
:10587000EDB2002D02D02800C0B260E02C20205CE8
:10588000002811D02C20215C3848FEF747F905008C
:10589000EDB2002D08D02800C0B250E0009F0008F3
:1058A000109F00087C9B0008FEF72FF83049314814
:1058B000FEF7E2F92F48FEF7FBF980B2FEF73DF85C
:1058C0000500EDB2002D08D1FDF7DAFC0500EDB2C0
:1058D000002D02D02800C0B231E0FEF716F82649AC
:1058E0002448FEF7C9F92348FEF7E2F980B2FEF733
:1058F00024F80500EDB2002D0CD1FDF7C1FC050028
:10590000EDB2002D06D02800C0B218E0389D000886
:10591000949B0008206B002804D0206B02F00AFA48
:10592000FCF7EAFCFCF796FC002000F0B5F91F48F4
:10593000FEF722FB1E48FEF7B1FC2800C0B232BDC4
:10594000209F000860A000086CA0000878A0000854
:10595000FCA0000804A1000884A00008309F0008F3
:10596000409F0008C0990008509F00084C9D000807
:10597000DC990008780700200CA10008F2B50600A9
:1059800017001D00002402233A0000993000FDF7A3
:1059900043FFFDF775FC0400554800784007400FB1
:1059A00028702000C0B2F2BD00000000F899000885
:1059B000B4020020F8B505000E00170000244D4881
:1059C000EDB2405D002801D1052014E0B6B24A488E
:1059D000864202DAB6B2002E01D104200BE03A0072
:1059E000310089B22800C0B2FDF7E0FEFDF748FCA7
:1059F00004002000C0B2F2BD38B50500002400F05C
:105A000081F8ADB22B003A480078C0B2C008420716
:105A1000520F42493A48FEF72FF93948FEF748F944
:105A200080B2FDF78AFF0400E4B2002C2AD13C4882
:105A3000FEF770F90100C906C90F002908D13848DE
:105A4000FEF768F90200364910201043FEF75CFAB1
:105A5000ADB2344805600520334908803048FEF770
:105A600059F902002E498020C0021043FEF74CFA7B
:105A70002B48FEF74FF9020029498020800310438C
:105A8000FEF742FA2000C0B232BD000080B5FDF73B
:105A90003CFF00F037F8174815490978C9B2C90822
:105AA0004907490F405C002820D01448FEF732F91E
:105AB0000100C906C90F002908D11048FEF72AF9CC
:105AC0000E49102202431000FEF71EFA0848007823
:105AD000C0B2C0084207520F14491548FEF7CCF86F
