:020000040800F2
:1000000008040020E51300080D140008111400086E
:1000100015140008191400081D1400080000000041
:100020000000000000000000000000002114000893
:10003000251400080000000029140008F51300082A
:100040002D14000831140008351400083914000874
:100050003D14000841140008451400084914000824
:100060004D140008511400085514000859140008D4
:100070005D14000861140008651400086914000884
:100080006D14000871140008751400087914000834
:100090007D140008811400088514000889140008E4
:1000A0008D14000891140008951400089914000894
:1000B0009D140008A1140008A5140008A914000844
:1000C000AD140008B1140008B5140008B9140008F4
:1000D000BD140008C1140008C5140008C9140008A4
:1000E000CD140008D1140008D5140008D914000854
:1000F000DD140008E1140008E5140008E914000804
:10010000ED140008F1140008F5140008F9140008B3
:10011000FD14000801150008051500080915000860
:100120000D1500081115000815150008191500080F
:100130001D150008211500082515000829150008BF
:100140002D1500083115000835150008391500086F
:100150003D1500084115000845150008491500081F
:100160004D150008511500085515000859150008CF
:100170005D15000861150008651500080000000005
:10018000691500086D15000870B582B004000025DF
:100190002078C00640F1D680DFF8200A006810F011
:1001A0000C0F40F08080DFF8100A0068800704D54B
:1001B000A069002801D101204DE3DFF8FC090068A7
:1001C000000705D5DFF8F009006810F0F00005E041
:1001D000DFF8F4090068000910F0F000216A884295
:1001E00024D2206A00F0F4FC002801D0012032E380
:1001F000DFF8C409006850F00800DFF8BC19086097
:10020000DFF8B409006830F0F000216A0843DFF835
:10021000A8190860DFF8B409006830F47F40E1698C
:1002200050EA0120DFF8A419086023E0DFF888090C
:10023000006850F00800DFF880190860DFF87809DE
:10024000006830F0F000216A0843DFF86C1908609C
:10025000DFF87809006830F47F40E16950EA012056
:10026000DFF868190860206A00F0B2FC002801D0AD
:100270000120F0E200F0E5FBDFF8401909685FF0CB
:100280007062B2FA82F2DFF8E83911F0F0010E0084
:10029000D640F15C0200CA40DFF8280902600F2056
:1002A00000F00BFD4EE0A069002834D0DFF808090B
:1002B000006850F00100DFF80019086000F015FD3B
:1002C0000500DFF8F4080068800706D400F00DFD93
:1002D000401B0328F5D30320BDE2DFF8DC080068EB
:1002E00050F00800DFF8D0180860DFF8CC0800688C
:1002F00030F0F000216A0843DFF8BC180860DFF82E
:10030000CC08006830F47F40E16950EA0120DFF852
:10031000BC18086016E0DFF8A0080068400840003C
:10032000DFF89418086000F0E0FC0500DFF88808AA
:100330000068800706D500F0D8FC401B0328F5D3E1
:10034000032088E22078C00740F1A180DFF86C0824
:10035000006810F00C0008280DD0DFF86008006875
:1003600010F00C000C2812D1DFF85408006810F0CF
:10037000030003280BD1DFF840080068800340F138
:1003800086806068002840F08280012063E2DFF808
:100390002808006830F48030DFF81C180860DFF8A7
:1003A0001808006830F48020DFF80C18086000F0AE
:1003B0009CFC0500DFF800080068800308D500F009
:1003C00094FC401B41F289318842F3D3032042E27E
:1003D0006068B0F5803F08D1DFF8DC07006850F4B2
:1003E0008030DFF8D41708602CE06068B0F5A02FEB
:1003F00018D1DFF8C407006830F48030DFF8B81790
:100400000860DFF8B407006850F48020DFF8A81710
:100410000860DFF8A407006850F48030DFF8981710
:1004200008600FE0DFF89007006830F48030DFF8F4
:1004300088170860DFF88007006830F48020DFF854
:10044000781708606068002810D000F04EFC0500A6
:10045000DFF864070068800319D400F046FC401BF5
:1004600041F289318842F3D30320F4E100F03DFCEE
:100470000500DFF844070068800308D500F035FC6C
:10048000401B41F289318842F3D30320E3E1207815
:1004900080076FD5DFF82407006810F00C000428EF
:1004A0000DD0DFF81807006810F00C000C2820D1E0
:1004B000DFF80C07006810F00300022819D1DFF8FC
:1004C000F8060068400504D5E068002801D1012045
:1004D000C1E1DFF8F8060068F821B1FA81F130F0E7
:1004E000F850226912FA01F10843DFF8E0160860BB
:1004F00040E0E068002826D0DFF8BC06006850F431
:100500008070DFF8B416086000F0EFFB0500DFF83C
:10051000A8060068400506D400F0E7FB401B03284E
:10052000F5D3032097E1DFF8A4060068F821B1FABB
:1005300081F130F0F850226912FA01F10843DFF836
:100540008C16086016E0DFF87006006830F48070E2
:10055000DFF86416086000F0C8FB0500DFF85806F5
:100560000068400506D500F0C0FB401B0328F5D30A
:10057000032070E12078000730D56069002816D08C
:10058000DFF84406006850F00100DFF83C16086010
:1005900000F0ABFB0500DFF83006006880071DD4D3
:1005A00000F0A3FB401B0328F5D3032053E1DFF841
:1005B0001806006840084000DFF80C16086000F0DC
:1005C00094FB0500DFF800060068800706D500F000
:1005D0008CFB401B0328F5D303203CE12078400727
:1005E00040F1AF800026DFF88C060068C00010D410
:1005F000DFF88006006850F08050DFF87816086059
:10060000DFF87006006810F080500090009801201C
:100610000600DFF864060068C00516D4DFF8580647
:10062000006850F48070DFF85016086000F05DFB41
:100630000500DFF844060068C00506D400F055FB4D
:10064000401B0328F5D3032005E1A068012808D149
:10065000DFF82806006850F00100DFF82016086077
:100660003FE0A068002810D1DFF8100600684008BD
:100670004000DFF808160860DFF80006006830F078
:100680000400DFF8F81508602BE0A068052818D1F1
:10069000DFF8E805006840084000DFF8E015086072
:1006A000DFF8D805006850F00400DFF8D0150860C6
:1006B000DFF8C805006850F00100DFF8C0150860D9
:1006C0000FE0DFF8B805006840084000DFF8AC151F
:1006D0000860DFF8A805006830F00400DFF89C151A
:1006E0000860A068002810D000F0FFFA0500DFF8CD
:1006F0008C050068800719D400F0F7FA401B41F21E
:1007000089318842F3D30320A5E000F0EEFA05001A
:10071000DFF868050068800708D500F0E6FA401B9E
:1007200041F289318842F3D3032094E0F6B2012EDE
:1007300007D1DFF84005006830F08050DFF834154D
:100740000860606A002800F08580DFF870040068A7
:1007500010F00C000C287BD0606A022850D1DFF822
:100760005804006830F08070DFF84C14086000F026
:10077000BCFA0500DFF840040068800106D500F0EF
:10078000B4FA401B0328F5D3032064E0E06A401E5E
:10079000216B090251EA0010616B090950EA4140DE
:1007A000A16A0843A16B891E0905490D4905084343
:1007B000E16B891E090611F07E410843DFF8001441
:1007C0000860DFF8F403006850F08070DFF8E81389
:1007D0000860DFF8EC03006850F08070DFF8E01389
:1007E000086000F082FA0500DFF8CC0300688001A1
:1007F00030D400F07AFA401B0328F5D303202AE016
:10080000DFF8B403006830F08070DFF8AC130860E4
:10081000DFF8AC03006880088000DFF8A4130860EC
:10082000DFF89C030068DFF858140840DFF89013E5
:10083000086000F05AFA0500DFF87C0300688001C8
:1008400008D500F052FA401B0328F5D3032002E03C
:10085000012000E0002076BDF8B504000D00002660
:10086000DFF82004006810F00700A84211D2DFF87A
:1008700014040068C008C0002843DFF808140860AA
:10088000DFF80004006810F00700A84201D0012042
:10089000D6E02078800709D5DFF82003006830F023
:1008A000F000A1680843DFF8141308602078C0073F
:1008B00079D56068022806D1DFF8FC020068800361
:1008C0001CD40120BCE06068032806D1DFF8E802F0
:1008D0000068800112D40120B2E06068002806D1CF
:1008E000DFF8D4020068800708D40120A8E0DFF810
:1008F000C8020068400501D40120A1E0DFF8BC0275
:1009000000688008800061680843DFF8B012086062
:1009100000F0EBF90600606802280FD1DFF89C02B6
:10092000006810F00C0008283DD000F0DEF9801BB4
:1009300041F289318842F1D3032081E060680328C5
:100940000FD1DFF87802006810F00C000C282AD0D4
:1009500000F0CBF9801B41F289318842F1D30320AA
:100960006EE0606800280ED1DFF85002006810F0D9
:100970000C0F18D000F0B9F9801B41F28931884280
:10098000F2D303205CE0DFF83402006810F00C00C2
:10099000042808D000F0A9F9801B41F2893188426F
:1009A000F1D303204CE0DFF8DC02006810F0070010
:1009B000854211D2DFF8CC020068C008C00028438D
:1009C000DFF8C0120860DFF8BC02006810F0070012
:1009D000A84201D0012033E02078400709D5DFF894
:1009E000DC01006830F4E060E1680843DFF8CC1116
:1009F0000860207800070AD5DFF8C001006830F4ED
:100A00006050216950EAC100DFF8B011086000F0C1
:100A100018F8DFF8A81109685FF07062B2FA82F284
:100A2000DFF84C3211F0F0010F00D740F95C020002
:100A3000CA40DFF8540202600F2000F03EF90020A7
:100A4000F2BDF0B50021002200230224022500207F
:100A50005A4E366816F00C0F0BD0584E366816F00A
:100A60000C060C2E2ED1564E366816F00306012EBB
:100A700028D1514E366836070DD4DFF84C61366800
:100A800016F470665FF47007B7FA87F7B4463CFA5D
:100A900007FC61460BE0484E366816F0F0065FF042
:100AA0007067B7FA87F7B4463CFA07FC6146DFF88F
:100AB000DC6156F82110414E366816F00C0F14D147
:100AC000080012E03D4E366816F00C06042E03D1E5
:100AD000DFF8BC61300008E0384E366816F00C06CE
:100AE000082E02D1DFF8AC613000344E366816F0C3
:100AF0000C060C2E5FD1324E366816F0030633001A
:100B00002F4E366816F070065FF06067B7FA87F709
:100B1000B4463CFA07FC1CF1010635001E00022E0B
:100B200002D0032E13D025E0254E3668DFF8607121
:100B3000B7FBF5F716F4FE465FF47E0CBCFA8CFCAE
:100B4000B6463EFA0CFE0EFB07F6320022E01C4EC3
:100B50003668DFF84071B7FBF5F716F4FE465FF430
:100B60007E0CBCFA8CFCB6463EFA0CFE0EFB07F679
:100B700032000FE0124E3668B1FBF5F716F4FE4670
:100B80005FF47E0CBCFA8CFCB6463EFA0CFE0EFB03
:100B900007F632000A4E366816F0C0666027B7FACC
:100BA00087F7B4463CFA07FC1CF1010676003400D6
:100BB000B2FBF4F63000F0BD001002400810024015
:100BC0000C1002400000002094100240041002406B
:100BD00070B582B004000025002626480068C000D9
:100BE00003D500F08BF8050014E02248006850F0AF
:100BF0008050204908601F48006810F08050009025
:100C0000009800F07BF805001A48006830F080502A
:100C100018490860B5F5007F09D1812C15D3A12CA6
:100C200002D30220060010E0012006000DE0812C16
:100C300002D30320060008E0802C02D10220060027
:100C400003E0702C01D1012006000E480068C008A6
:100C5000C00030430B4908600A48006810F00700E4
:100C6000B04201D0012000E0002076BD000000006D
:100C7000D413000858100240007000409010024049
:100C8000FFFFEEFE0020024000000020D41200080A
:100C90000024F40000127A0080B51548006850F472
:100CA000807013490860032000F08EF80F2000F0D8
:100CB00004F800F0BBF8002002BD10B504000D4898
:100CC00000684FF47A71B0FBF1F000F096F8002262
:100CD00021005FF0FF3000F07DF8002010BD0648D5
:100CE0000068401C0449086070470348006870476A
:100CF000002002400000002004000020DFF808006F
:100D0000006810F4C06070470070004010F00702E7
:100D10003F4B1B6819004FF6FF0319403D4B53EA48
:100D2000022319433A4B1960704739480068C0F3F1
:100D30000220704710B440B2002808D50A01364B93
:100D400040B210F00F04E31803F8042C03E00A018A
:100D5000324B40B2C25410BC704770B4030013F061
:100D60000704D4F10706052E01D3042001E0D4F1D5
:100D70000700261D072E01D2002500E0E51E0126F2
:100D800016FA00F0401E0840A8400121A940491E63
:100D90001140084370BC704710B50400601EB0F1EC
:100DA000807F01D301200EE0601E1D4908600F21E5
:100DB0005FF0FF30FFF7BEFF00201A4908600720F0
:100DC00019490860002010BD10B504002000FFF78D
:100DD0009DFF10BDF8B504000D0016000027FFF7B9
:100DE000A4FF0700320029003800FFF7B6FF01001A
:100DF000200040B2FFF79EFFF1BD10B504002000B7
:100E0000FFF7CAFF10BD80B500F001F801BD7047C3
:100E10000CED00E00000FA0518ED00E000E400E051
:100E200014E000E018E000E010E000E080B50720EA
:100E3000FFF7CAFF002200215FF0FF30FFF7CAFF73
:100E400001BD000078B40022002300240D682E00AC
:100E5000D640002E00F0EE800D6801269640354009
:100E60002B00002B00F0E4804D68022D02D04D686D
:100E7000122D16D1D50810EB85052D6A2C000F25F3
:100E800012F00706F6B2B600B540AC430D6912F099
:100E90000706F6B2B600B5402C43D50810EB850521
:100EA0002C6205682C0003251600F6B27600B540CA
:100EB000AC430D7915F003051600F6B27600B54087
:100EC0002C4304604D68012D08D04D68022D05D0DB
:100ED0004D68112D02D04D68122D19D185682C0056
:100EE00003251600F6B27600B540AC43CD68160077
:100EF000F6B27600B5402C43846045682C0001258D
:100F00009540AC434D68C5F3001595402C434460B3
:100F10000D7915F00305032D0AD1C56A2C000125B2
:100F20009540AC434D68C5F3C00595402C43C46261
:100F3000C5682C0003251600F6B27600B540AC4318
:100F40008D681600F6B27600B5402C43C4604D683B
:100F5000ED006DD5434D2D6855F00105414E3560CE
:100F6000404D2D6815F001050095009D3E4D9608F9
:100F700055F826502C000F2512F00306F6B2B600E5
:100F8000B540AC43B0F1904F01D100251EE0374D84
:100F9000A84201D1012519E0354DA84201D1022511
:100FA00014E0344DA84201D103250FE0324DA84290
:100FB00001D104250AE0314DA84201D1052505E003
:100FC0002F4DA84201D1062500E0072512F00306A7
:100FD000F6B2B600B5402C43234D960845F826409E
:100FE000284D2D682C009C434D68ED0300D51C4313
:100FF000244D2C60244D2D682C009C434D68AD037E
:1010000000D51C43204D2C60204D2D682C009C43A6
:101010004D68ED0200D51C431C4D2C601C4D2D6805
:101020002C009C434D68AD0200D51C43184D2C602C
:10103000521C0BE771BC70470200136989B20B4266
:1010400002D00123180001E000231800C0B270474D
:10105000D2B2002A02D089B2816101E089B28162F4
:101060007047000060100240080001400004004882
:1010700000080048000C0048001000480014004818
:101080000018004800040140040401400804014025
:101090000C04014080B5FFF7FFFD00F01DF800F0E3
:1010A00050F808215FF09040FFF7C6FF0200D2B26F
:1010B0004FF400715FF09040FFF7CAFF4FF480617A
:1010C0005FF09040FFF7B8FF0200D2B204215FF05A
:1010D0009040FFF7BDFFE4E700B595B000A81421EC
:1010E00000F084F805A83D4991EC100B80EC100B42
:1010F0001020059001200B9060200D9000200C9096
:1011000002200E9001200F900120109028201190B5
:1011100002201490072012900420139005A8FFF7D6
:1011200033F80F200090032001900020029000204F
:10113000039000200490042100A8FFF78DFB15B058
:1011400000BD00B587B02648006850F0040024496F
:1011500008602348006810F00400009000982048C0
:10116000006850F001001E4908601D48006810F03A
:101170000100009000981A48006850F002001849D9
:1011800008601748006810F00200009000984FF4C3
:1011900000500190134802900020039001A91248CA
:1011A000FFF750FE4FF409700190012002900020DB
:1011B00003900020049001A95FF09040FFF742FEE9
:1011C0004FF481600190002002900020039001A95B
:1011D0005FF09040FFF736FE07B000BD94120008A4
:1011E0004C1002400000121000080048002200F0DD
:1011F00001B8000000B500BF1300964694461039B0
:1012000028BFA0E80C50FAD85FEA417C28BF0CC088
:1012100048BF40F8042BC90728BF20F8022B48BF5D
:1012200000F8012B00BD00001348006850F4700066
:10123000114908601148006850F001000F4908602A
:1012400000200F4908600D4800680E4908400B490E
:1012500008604FF400600C4908600848006830F4EA
:101260008020064908600020084908605FF000609F
:10127000074908607047000088ED00E00010024058
:1012800008100240FFFFF6EA0C100240181002405E
:1012900008ED00E000000000000000000000000079
:1012A000000000000000000000000000000000003E
:1012B000000000000000000000000000000000002E
:1012C000000000000000000000000000000000001E
:1012D00000000000A0860100400D0300801A0600F7
:1012E00000350C0040420F0080841E0000093D00C4
:1012F00000127A000024F40000366E010048E80174
:10130000006CDC0210B450F8041B79B10268436829
:1013100012180830DC0744BFA9F10104E31852F8A1
:10132000044B43F8044B091FF9D1ECE710BC70479C
:1013300010B5074979441831064C7C44163404E052
:101340000A68081D511888470146A142F8D110BD0E
:101350002C0000003C0000004EF68851CEF2000147
:10136000086840F470000860BFF34F8FBFF36F8FC1
:101370004FF00070E1EE100A7047000089FFFFFF98
:1013800008000000EC010000000000200000000048
:1013900000F00BF8002801D0FFF7CAFF0020C0467C
:1013A000C046FFF777FE00F002F80120704700F01A
:1013B00001B800000746384600F002F8FBE70000DD
:1013C00080B5C046C046024A11001820ABBEFBE7FC
:1013D00026000200000000000000000001020304DB
:1013E00006070809014880470148004729120008FC
:1013F0000114000880B5FFF772FCFFF704FD01BD82
:10140000C046C046FFF7A8FFFFF7C2FFFFF7FEBFC9
:10141000FFF7FEBFFFF7FEBFFFF7FEBFFFF7FEBF00
:10142000FFF7FEBFFFF7FEBFFFF7FEBFFFF7FEBFF0
:10143000FFF7FEBFFFF7FEBFFFF7FEBFFFF7FEBFE0
:10144000FFF7FEBFFFF7FEBFFFF7FEBFFFF7FEBFD0
:10145000FFF7FEBFFFF7FEBFFFF7FEBFFFF7FEBFC0
:10146000FFF7FEBFFFF7FEBFFFF7FEBFFFF7FEBFB0
:10147000FFF7FEBFFFF7FEBFFFF7FEBFFFF7FEBFA0
:10148000FFF7FEBFFFF7FEBFFFF7FEBFFFF7FEBF90
:10149000FFF7FEBFFFF7FEBFFFF7FEBFFFF7FEBF80
:1014A000FFF7FEBFFFF7FEBFFFF7FEBFFFF7FEBF70
:1014B000FFF7FEBFFFF7FEBFFFF7FEBFFFF7FEBF60
:1014C000FFF7FEBFFFF7FEBFFFF7FEBFFFF7FEBF50
:1014D000FFF7FEBFFFF7FEBFFFF7FEBFFFF7FEBF40
:1014E000FFF7FEBFFFF7FEBFFFF7FEBFFFF7FEBF30
:1014F000FFF7FEBFFFF7FEBFFFF7FEBFFFF7FEBF20
:10150000FFF7FEBFFFF7FEBFFFF7FEBFFFF7FEBF0F
:10151000FFF7FEBFFFF7FEBFFFF7FEBFFFF7FEBFFF
:10152000FFF7FEBFFFF7FEBFFFF7FEBFFFF7FEBFEF
:10153000FFF7FEBFFFF7FEBFFFF7FEBFFFF7FEBFDF
:10154000FFF7FEBFFFF7FEBFFFF7FEBFFFF7FEBFCF
:10155000FFF7FEBFFFF7FEBFFFF7FEBFFFF7FEBFBF
:10156000FFF7FEBFFFF7FEBFFFF7FEBFFFF7FEBFAF
:0815700000093D00000000002D
:0400000508001401DA
:00000001FF
