:020000040800F2
:10000000302A0020FD11010861A1000863A1000849
:100010006DA1000877A1000881A100080000000080
:100020000000000000000000000000008BA100089C
:1000300095A10008000000009FA10008B5A10008DC
:10004000D5160108D9160108DD160108E1160108C8
:10005000E5160108E9160108ED160108F116010878
:10006000F5160108F9160108FD1601080117010827
:100070001DA2000853A2000889A20008B5A200082A
:1000800005170108091701080D17010811170108C4
:1000900015170108191701081D17010813A20008F8
:1000A0002117010825170108291701082D17010834
:1000B000ABA10008A1A100083117010835170108FC
:1000C000391701083D1701084117010845170108B4
:1000D00049170108EDA10008F7A100084D17010814
:1000E0005117010855170108591701085D17010834
:1000F0006117010865170108691701086D170108E4
:100100007117010875170108791701087D17010893
:100110008117010885170108891701088D17010843
:100120009117010895170108991701089D170108F3
:10013000A1170108A5170108A9170108AD170108A3
:10014000B1170108B5170108B9170108BD17010853
:10015000C1170108C5170108C9170108CD17010803
:10016000D1170108D5170108D9170108DD170108B3
:10017000E1170108E5170108E91701080000000070
:10018000ED170108F11701082DE9F8430400DFF825
:100190007018DFF870080068DFF86C28D2F8C82003
:1001A000101802F041FC050000281DD1DFF85C1892
:1001B000DFF850080068DFF85028D2F8C82010187F
:1001C00002F032FC050000280ED1DFF84418DFF8F9
:1001D00034080068DFF83028D2F8C820101802F080
:1001E00023FC0500002818D0DFF818080068281A3A
:1001F000DFF81418D1F8C810611888420DD2DFF862
:100200000818D1F8C810411A0C00DFF80818C9798D
:1002100051F08001DFF8FC27D171DFF8E8070068B2
:10022000DFF8E417D1F8C810081802F005FC060042
:10023000A64208D23400DFF8DC07C07950F0800015
:10024000DFF8D017C871DFF8D0070068001BDFF8AF
:10025000C8170860DFF8B007D0F8C8002018DFF82A
:10026000A817C1F8C800DFF8A007D0F8C800B0F59B
:10027000006F27D3DFF89007D0F8CC00D0F50067E7
:100280005FF00008DFF89407DFF87C17D1F8CC1096
:1002900011EB000942463900484602F0F7FB002006
:1002A000DFF86417C1F8CC00DFF85C07D0F8C800AD
:1002B0004FF40061B0FBF1F202FB1102DFF84807D6
:1002C000C0F8C820DFF84007D0F8C800002817D0D1
:1002D000DFF83407D0F8C800DFF82C17D1F8CC10BD
:1002E000471A5FF00008DFF83407DFF81C17D1F871
:1002F000CC1011EB000942463900484602F0C6FB1B
:10030000DFF80407D0F8C800DFF8FC16C1F8CC000D
:10031000BDE8F18370B5DFF8EC060068DFF8E81699
:10032000D1F8C810085C002826D000F0F9F8DFF8F2
:10033000D806D0F8C80000281ED0DFF8CC06D0F8C8
:10034000C800DFF8C416D1F8CC10441A0025DFF835
:10035000B4060068DFF8B016D1F8CC100E182A00E9
:100360002100300002F092FBDFF89C06D0F8C800B4
:10037000DFF89416C1F8CC0070BDDFF88C16D1F808
:10038000C8104118DFF88026C2F8C810DFF87816C8
:10039000D1F8C810B1F5006F05D94FF40061DFF84E
:1003A0006826C2F8C81070472DE9F0410500DFF853
:1003B0005806D0F8C800DFF8681609680818B0F5C4
:1003C000006F4CD328000600DFF83C06D0F8C800C8
:1003D000DFF84C1609680818B0F50064DFF8280645
:1003E000D0F8C800D0F50060DFF834160860F6B227
:1003F0003000002806D0012814D0042812D0052887
:100400001FD02CE0DFF81C0602F016FB0027DFF8F7
:100410001416001B10EB01083A002100404602F0C0
:1004200035FB1CE00027DFF8FC05DFF8F415096850
:100430000818B0F105083A002100404602F026FBFA
:100440000DE00027DFF8DC05DFF8D415096811EBB3
:1004500000083A002100404602F018FBFFE7BDE823
:10046000F08170B5DFF8A005D0F8C800B0F5006FD6
:100470000AD0DFF89405D0F8C800DFF8A4150968A1
:100480000818B0F5006F49D1DFF87C05D0F8C80036
:10049000DFF88C1509680818B0F5006F1ED1DFF879
:1004A0006805D0F8C800D0F50060DFF87C1508605A
:1004B000DFF874050468DFF84C050068DFF84815BC
:1004C000D1F8C8100D18DFF864652200290030004B
:1004D00002F014FB0120DFF858150870DFF828053A
:1004E000D0F8CC00D0F500640025DFF818050068CE
:1004F000DFF81415D1F8CC100E182A0021003000B6
:1005000002F0C4FA0020DFF80015C1F8C80000208E
:10051000DFF8F414C1F8CC00012000E0002070BD29
:10052000F0B583B0DFF8EC04C07950F00800DFF8D4
:10053000E414C871DFF8DC04C079C0F3C000C0B2B5
:10054000002800F04782DFF8BC040068DFF8B81428
:10055000D1F8C810085C002800F03C82C8250026AD
:10056000DFF8C07432002900380002F08FFADFF89B
:1005700094040068DFF89014D1F8C810081804003B
:10058000DFF89C040090DFF89C3401AADFF8A41483
:10059000200002F0EFFA00284DD00020FFF704FF02
:1005A000DFF860040068DFF86014D1F8C81008189C
:1005B000DFF86C140968081810F8010C0D2815D123
:1005C000DFF85C040068401CFFF7D7FEDFF8542416
:1005D0000199002000F038FADFF82C04D0F8C800A8
:1005E000B0F5006FA6D3FFF73CFFA3E7FFF739FF95
:1005F00000289FD1DFF82404DFF80C14D1F8C810CC
:10060000081802F019FA0500DFF8FC03D0F8C8005A
:100610002818B0F5006F05D1DFF804040560FFF776
:1006200020FF87E7DFF8EC03C07910F0F700DFF870
:10063000E413C8717EE7DFF8E833DFF8E823DFF87A
:10064000F813200002F096FA002851D00120FFF79D
:10065000ABFEDFF8B0030068DFF8AC13D1F8C810C8
:10066000DFF8BC2312685118081810F8010C0D2887
:1006700018D1DFF8AC030068401CFFF77EFEDFF8FE
:10068000A423DFF89C030168012000F0DDF9DFF806
:100690007803D0F8C800B0F5006F7FF44BAFFFF7D8
:1006A000E0FE47E7FFF7DDFE00287FF443AFDFF809
:1006B0006C03DFF85413D1F8C810081802F0BCF925
:1006C0000500DFF84403D0F8C8002818B0F5006F23
:1006D00005D1DFF84C030560FFF7C3FE2AE7DFF81A
:1006E0003403C07910F0F700DFF82813C87121E750
:1006F000DFF82C33DFF82C23DFF84013200002F062
:1007000039FA00286ED00420FFF74EFEDFF8F4021D
:100710000068BD49D1F8C810DFF8042312685118E9
:10072000081810F8010C0D283CD1BA48006810F0E8
:10073000A05F06D022005FF0FF31052000F084F9B1
:10074000F8E6B7480068401CFFF717FEABA1B548B4
:1007500002F06AF9002806D0B24A5FF0FF310220A9
:1007600000F072F914E0B649AE4802F05DF90028D5
:1007700006D0AC4A5FF0FF31032000F065F907E0D6
:10078000A84802F059F90100A64A042000F05CF9DB
:100790009D48D0F8C800B0F5006F7FF4CBAEFFF7EE
:1007A00060FEC7E6FFF75DFE00287FF4C3AE9B48FE
:1007B0009549D1F8C810081802F03EF90500924892
:1007C000D0F8C8002818B0F5006F04D1944805602F
:1007D000FFF747FEAEE68F48C07910F0F7008D496D
:1007E000C871A7E692480078012812D18948C079DB
:1007F000C0B2C009C0B200280BD08648007A50F0C1
:100800000100844908728348C07910F07F00814953
:10081000C8718048006810F0815F40F0C2807D4858
:10082000C079C0B2C009C0B2002840F0BA807C4B89
:100830007C4A8449200002F09DF9724800687249A0
:10084000D1F8C810085C0A2802D100207449086059
:100850000520FFF7A9FD6B4800686B49D1F8C81067
:100860006F4A12685118085C0A2840F08E806C4864
:100870000068401CFFF781FD6D480078002874D0A7
:1008800068496A4802F088F96848040064480090A2
:10089000644B01AA6749200002F06CF9002805D0DA
:1008A000604A0199002000F0CFF83DE05C4B5D4AC2
:1008B0006149200002F05EF9002806D0594A5848E4
:1008C0000168012000F0C0F82EE0554B554A5B4905
:1008D000200002F04FF9002820D048A1514802F032
:1008E000A3F8002806D04F4A5FF0FF31022000F045
:1008F000ABF819E052494B4802F096F8002806D0B0
:10090000484A5FF0FF31032000F09EF80CE0454AB2
:100910005FF0FF31042000F097F805E0434A4048BB
:100920000168052000F090F8642500263F4F320052
:100930002900380002F0AAF800203B490860002096
:100940003B4908703348007A10F00100002812D0AB
:100950003048C07950F080002E49C8712D48007A87
:1009600010F0FE002B49087205E02E4A2C48016861
:10097000052000F069F82448D0F8C800B0F5006FF1
:100980007FF4D8ADFFF76DFDD4E5FFF76AFD0028D1
:100990007FF4D0AD1F48C07910F0F7001D49C87131
:1009A000C8E51C48C079C0B2C009C0B200280AD04E
:1009B0001848C07910F07F001649C87116480068C1
:1009C000FFF7E2FBB6E522005FF0FF31052000F003
:1009D0003BF8AFE50F48C079C0F3C000C0B20028B3
:1009E00001D1012003E00B48C079C0F3C0000949E0
:1009F000C97960F3C3010748C171F7BD4F4B0000CF
:100A000078160108F0010020901D002080160108D2
:100A1000881601089C250020F8250020000A0020E7
:100A2000F4250020441F0020F02500207C1E00201B
:100A30002A260020D00D0108AC110108BC110108C4
:100A400090160108981601082DE9F34FA3B016007F
:100A5000DFF8AC0D02F068F923988DF81500DFF887
:100A6000A40D0068DFF86C1E084240F038879DF83E
:100A7000150000280AD0022800F06A8169D30428F2
:100A800000F0C680C0F0268600F028BF03F0C8FB47
:100A900072B63100249801F0A7FD62B603F0B1FBF5
:100AA000DFF8600D0068C00F002810D172B6DFF8C3
:100AB000580ED0E9082311001A00DFF8500E02F09A
:100AC00097F862B6DFF8380D02F02EF91AE0DFF879
:100AD000340D0068C0F34000002813D1DFF8200D6A
:100AE00002F022F9DFF81C0D006840004008DFF832
:100AF000141D0860DFF80C0D006850F00200DFF8EC
:100B0000041D0860DFF8FC0CD0F80100C0F3406061
:100B1000002807D1DFF8EC0C006840004008DFF83F
:100B2000E41C08600020DFF8E81D0860DFF8D40C42
:100B30000068C0F34050002809D0DFF8C80C0068F6
:100B400030F00060DFF8BC1C086000F0FDBE01F072
:100B500030BDDFF8BC0D006800280DD04FF40074E4
:100B60000027DFF8B08D3A002100404601F08EFFEB
:100B70000020DFF89C1D0860DFF89C1DDFF8940D55
:100B800003F0BEFF3100DFF8940D03F0B9FFDFF88A
:100B9000800D006824990818DFF8741D0860DFF8DC
:100BA000640C0068C0F3800000282FD0DFF8540CDC
:100BB000006850F08050DFF84C1C0860DFF8440CEF
:100BC000006830F00400DFF83C1C0860DFF8340CEB
:100BD000D0F8020030F08050DFF8281CC1F8020085
:100BE0000020DFF8F41DC1F8C4000020DFF8201D4C
:100BF0000860DFF8200D01F01FFF04000027DFF878
:100C0000148D3A002100404601F040FF00F09CBEE8
:100C100006AADFF8C81D300001F0ACFF002820D084
:100C20000698DFF8B41D097B884204DA0698DFF8DD
:100C3000A81D087305E0DFF8A00D007BDFF8981D04
:100C40000873DFF89C1DDFF89C0D03F059FFDFF8F7
:100C5000B40B006850F08040DFF8A81B086001F07A
:100C6000A8BC07AB08AADFF8801D300001F082FFA6
:100C7000002849D00020DFF8601DC1F8A800DFF887
:100C8000840B006850F40010DFF8781B0860DFF870
:100C9000480DD0F8C800002818D0DFF83C0DD0F877
:100CA000C800DFF8341DD1F8CC10441A0027DFF853
:100CB0003C0D0068DFF8201DD1F8CC1011EB0008C6
:100CC0003A002100404601F0E1FE14E0DFF8080D93
:100CD000D0F8CC00D0F580640027DFF8100D006854
:100CE000DFF8F41CD1F8CC1011EB00083A00210019
:100CF000404601F0CBFEDFF8E00CD0F8C800DFF88A
:100D0000D81CC1F8CC0021E0DFF8E41CDFF8040CAB
:100D1000DFF8FC2B1268101803F0F2FEDFF8F00B7E
:100D20000068401DDFF8E81B08603100DFF8E40BC5
:100D3000DFF8DC2B1268101803F0E2FEDFF8D00BAE
:100D4000006824990818DFF8C81B086000F0FCBD93
:100D5000DFF8A01CDFF8BC0B01F066FE05000028E0
:100D600049D0DFF8A00AD0F8020030F08050DFF858
:100D7000941AC1F802000020DFF85C1CC1F8C4001E
:100D80003A21DFF8900B03F0DDFE040060788DF867
:100D900016009DF81600DFF8701B91F8211060F323
:100DA0000301DFF8640B80F821100F20DFF8581BD7
:100DB00081F8260072B6DFF8500BD0E90823110045
:100DC0001A00DFF8480B01F013FF62B6DFF8300AB3
:100DD00001F0AAFF4FF400775FF00008DFF8349BC2
:100DE00042463900484601F051FE0020DFF8201B42
:100DF000086000F053BCDFF8001CDFF8180B01F0AE
:100E000013FE050000283FD0DFF8F809D0F80200F3
:100E100030F08050DFF8EC19C1F802000020DFF854
:100E2000B81BC1F8C400BFA1DFF8E80A03F092FEC6
:100E30000400BCA1002003F08DFE040020788DF892
:100E400016009DF81600DFF8C01A91F8211060F323
:100E50000301DFF8B40A80F821101D20DFF8A81A7A
:100E600081F8260072B6DFF8A00AD0E90823110045
:100E70001A00DFF8980A01F0BBFE62B6DFF88009BD
:100E800001F052FF00F00ABCDFF8701BDFF8840AA3
:100E900001F0CAFD0500002800F0A880A1A1DFF83C
:100EA000740A03F057FE04009EA1002003F052FED6
:100EB000040020788DF8100060788DF81100A0787B
:100EC0008DF81200E0788DF813009DF811000D28C0
:100ED00007D19DF810003038DFF8FC1AC1F89800EF
:100EE00044E09DF812000D280DD19DF810000A2154
:100EF0009DF8112001FB0020B0F50470DFF8D81A2E
:100F0000C1F8980032E09DF813000D2814D19DF827
:100F1000100064219DF811200A235A4301FB002090
:100F20009DF8121050FA81F0DFF8481E0818DFF81B
:100F3000A81AC1F8980019E09DF810004FF47A71D2
:100F40009DF8112064235A4301FB00209DF81210E4
:100F50000A2202FB01009DF8131050FA81F0DFF81D
:100F6000181E0818DFF8701AC1F89800DFF8680A30
:100F7000D0F89800002810D0DFF88808006850F4F6
:100F80000030DFF880180860DFF87808006850F457
:100F90008010DFF87018086080E3DFF83C0AD0F8B2
:100FA0009800002840F07A83DFF82C0ADFF8281A2E
:100FB0000978C1F3C201C9B2081890F8D900002815
:100FC0000BD0DFF8140ADFF8101A0978C1F3C20158
:100FD000C9B20818002180F8D910DFF82808006885
:100FE00030F01000DFF81C18086057E392A1DFF81A
:100FF000240901F019FD0500002800F0958049A1A1
:10100000DFF8100903F0A6FD040046A1002003F05C
:10101000A1FD040020788DF8100060788DF8110093
:10102000A0788DF81200E0788DF813009DF811007B
:101030000D2807D19DF810003038DFF89C19C1F851
:10104000980044E09DF812000D280DD19DF8100085
:101050000A219DF8112001FB0020B0F50470DFF893
:101060007819C1F8980032E09DF813000D2814D1CA
:101070009DF8100064219DF811200A235A4301FBBA
:1010800000209DF8121050FA81F0DFF8E81C0818D3
:10109000DFF84419C1F8980019E09DF810004FF4EA
:1010A0007A719DF8112064235A4301FB00209DF8BA
:1010B00012100A2202FB01009DF8131050FA81F071
:1010C000DFF8B41C0818DFF81019C1F89800DFF831
:1010D0000809D0F89800002808D0DFF82807006831
:1010E00050F48030DFF81C1708600DE0DFF8E808E6
:1010F000D0F89800002807D1DFF80807006830F022
:101100001000DFF8001708604FF400775FF0000868
:10111000DFF8009842463900484601F0B7FC01F07C
:1011200048BA00BF3A000000BEA1DFF8E80701F0AE
:101130007BFC0500002800F0EF80BBA1DFF8D4079E
:1011400003F008FD0400B8A1002003F003FD040033
:1011500020788DF8100060788DF81100A0788DF857
:101160001200E0788DF813009DF811000D2807D1CA
:101170009DF810003038DFF86018C1F8980044E09E
:101180009DF812000D280DD19DF810000A219DF840
:10119000112001FB0020B0F50470DFF83C18C1F805
:1011A000980032E09DF813000D2814D19DF810002E
:1011B00064219DF811200A235A4301FB00209DF869
:1011C000121050FA81F0DFF8AC1B0818DFF808188D
:1011D000C1F8980019E09DF810004FF47A719DF85D
:1011E000112064235A4301FB00209DF812100A22AB
:1011F00002FB01009DF8131050FA81F0DFF8781B14
:101200000818DFF8D417C1F89800DFF8CC07D0F839
:101210009800002812D0DFF8EC05807950F0020029
:10122000DFF8E0158871DFF8DC05006850F4002075
:10123000DFF8D01508605FE04B510000DFF8980739
:10124000D0F89800002857D1DFF8C40607685FF08F
:101250000008DFF8C09642463900484601F016FC07
:101260000020DFF8AC160860DFF89805C079C0F3FD
:101270004000C0B2002837D0DFF85C07DFF858170D
:10128000497811F00701052202FB0100DFF8481739
:101290000978C1F3C201C9B2081890F8E10000282A
:1012A00022D0DFF834070078C0F3C200010049B251
:1012B000DFF82407407810F0070040B203F0B6FAD8
:1012C000DFF81407DFF81017497811F0070105223D
:1012D00002FB0100DFF800170978C1F3C201C9B2AF
:1012E0000818002180F8E110DFF81805006830F0D8
:1012F0001000DFF8101508604FF400775FF0000869
:10130000DFF8109642463900484601F0BFFB002046
:10131000DFF8FC150860C1E1DFF8241EDFF8F405F2
:1013200001F082FB050000284DD0DFF8D804D0F88A
:10133000020030F08050DFF8CC14C1F80200002029
:10134000DFF89416C1F8C40037A1DFF8C80503F030
:1013500001FC040034A1002003F0FCFB0400207811
:101360008DF816009DF81600DFF89C1591F82110F5
:1013700060F30301DFF8900580F821101620DFF8F4
:10138000881581F8260072B6DFF87C05D0E90823BD
:1013900011001A00DFF8740501F02AFC62B6DFF8CC
:1013A000600401F0C1FC4FF400775FF00008DFF843
:1013B000649542463900484601F068FB0020DFF89A
:1013C000501508606AE1DFF8401EDFF8480501F0BB
:1013D0002BFB0500002808D1DFF8301EDFF83405AC
:1013E00001F022FB0500002847D010A1DFF82405FA
:1013F00003F0B0FB04000DA1002003F0ABFB0400E0
:101400000AA1002003F0A6FB04002700DFF8008EED
:1014100038780D280CD0387888F800007F1C18F137
:101420000108F5E7445100003A0000003D000000CB
:101430000320DFF8D41481F8260072B6DFF8C82440
:10144000D2E908010A000100DFF8C00401F0D0FB76
:1014500062B6DFF8AC0301F067FC4FF400795FF08F
:10146000000ADFF8B0B452464946584601F00EFB78
:101470000020DFF89C14086010E1DFF8981DDFF809
:10148000940401F0D1FA002850D0D1A1DFF88404EF
:1014900003F060FB0400CEA1002003F05BFB04001E
:1014A000CBA1002003F056FB040020783038DFF891
:1014B00028154872C6A1002003F04CFB04002078D8
:1014C0003038DFF8141588720420DFF83C1481F8F6
:1014D000260072B6DFF83004D0E9082311001A00A4
:1014E000DFF8280401F084FB62B6C54801F01CFC5B
:1014F0000020DFF81C1408604FF400775FF000084C
:10150000DFF8109442463900484601F0BFFABD4862
:101510000068C0F34050002806D0BA48006830F098
:101520000060B8490860B9E001F043B8DFF8E80CA2
:101530000078C0F34000C0B2002800F08180DFF8DE
:10154000D80C4078C0F30010C0B200285BD0DFF8A0
:101550008804C079C0F3C200C0B200280DD0DFF803
:101560007804C07910F0C70110F03800083810F086
:1015700038000843DFF86014C871DFF89C0C00786D
:1015800010F0FD00DFF8901C0870DFF84C04407983
:1015900010F00F01DFF8880C03F002FB0020DFF8E9
:1015A000841CDFF83424527912F00F025054DFF813
:1015B0002804407910F00F00DFF81C140871DFF8E0
:1015C000580C407810F0EF00DFF84C1C48708D4844
:1015D000807910F00100002808D08A48D0F8010076
:1015E00050F000508749C1F8010005E08548807936
:1015F00050F00100834988718248006830F0100083
:10160000804908602DE0DFF8100C4078C0F34010EE
:10161000C0B2002825D07B48C07910F0FD00794980
:10162000C8717848006830F0100076490860DFF82B
:10163000E80B407810F0DF00DFF8DC1B487010E0AA
:101640000220B14981F8260072B6AF48D0E90823DC
:1016500011001A00AD4801F0CBFA62B6684801F0FB
:1016600063FBDFF8B40B007810F0FD00DFF8A81B77
:10167000087064480068C0F3802000280ED06148DC
:10168000006830F480605F4908600020D2494873E8
:101690005C48006830F080405A49086000209C494E
:1016A00008604FF400740027DFF868823A002100D8
:1016B000404601F0EBF953480068C0F34050002861
:1016C00006D05048006830F000604E4908603BE1A9
:1016D00000F06FBFDFF88C1D300001F0A5F9002885
:1016E0006AD0DFF8841D8B4801F09EF905000028C0
:1016F00032D0DFF8780D03F053FADFF81C0B407896
:1017000010F0DF00DFF8101B4870DFF80C0B0078DA
:1017100010F0FD00DFF8001B08703A48C079C0F3F4
:101720004000C0B2002810D0AB48AB494979C1F3A2
:101730000211C9B2052202FB0100A749497911F043
:101740000F010818012180F8E1102E48006830F0E0
:1017500010002C490860A0E0DFF85C0E03F020FACE
:10176000DFF8B40A007810F0FD00DFF8AC1A08705A
:10177000DFF8A40A407810F0EF00DFF89C1A4870F8
:101780002048807910F00100002805D11D4880799B
:1017900050F001001B49887101208F498E4A52790F
:1017A00012F00F02511881F8D9001648006830F085
:1017B00010001449086070E0DFF85C0A4078C0F35C
:1017C0004010C0B200281FD0DFF8F01D02E000BFBB
:1017D0003A0000004F4801F027F9002814D0DFF844
:1017E000380A407810F0DF00DFF82C1A4870DFF874
:1017F000280A007810F0FD00DFF81C1A087015E0C8
:10180000042400209C250020DFF8B41D300001F0E6
:101810000BF900280AD07048B0F88400DFF8A41D46
:101820000860DFF8A00D0068FEF7AEFC082036491E
:1018300081F8260072B63448D0E9082311001A0056
:10184000324801F0D5F962B6DFF87C0D01F06CFA90
:10185000DFF8780D0068C0F30010002807D0DFF82B
:101860006C0D006830F01000DFF8601D0860DFF8D4
:101870005C0DD0F80200C0F3007000280DD0DFF836
:101880004C0DD0F8020030F08050DFF8401DC1F858
:10189000020000205049C1F8C40000201C49086023
:1018A0004FF400740027DFF86C803A0021004046B6
:1018B00001F0ECF8DFF8140D0068C0F34050002888
:1018C0000AD0DFF8080D006830F00060DFF8FC1C7B
:1018D000086039E00000205400F06BBE34E0DFF80F
:1018E000EC0CC07910F00100002819D0DFF8E40CEE
:1018F00007490968081810F8010C002824D10020B5
:101900000349086020E000BFE4230020F823002002
:10191000FC250020001A002080160108051A00206E
:10192000DFF8B40C0068B0F5FF7F0DD90020DFF8B8
:10193000A81C08604FF400740027DFF8988C3A0068
:101940002100404601F0A2F8DFF8800C0068C0F3E7
:101950004050002800F0128200271F48D0F8A8004D
:101960001D49D1F89C10884280F008821F48006809
:101970001949D1F8C810085C002800F0FF811B4805
:1019800000681549D1F8C810081805001248D0F8A9
:101990009C001149D1F8A810401A0400B4F5007F4A
:1019A00002D94FF4007700E027000B48D0F8C800B8
:1019B000D0F500600400BC4200D227000648B0F811
:1019C0008A0017FA80F0B0F5007F19D90248B0F804
:1019D0008A00D0F5007713E0901D0020E40D010887
:1019E000F0F9000850220020CC110108F00100207D
:1019F0008816010874150108DC110108801501081A
:101A0000DFF8F40DD0F8C8003818B0F5006F0FD02B
:101A1000785D00280CD1DFF8C40BDFF8DC1DD1F8AD
:101A2000C810081801F008F8B84201D20700FFE713
:101A3000DFF8AC0BDFF8C01DB1F88A1011EB00081D
:101A40003A002900404601F059F8DFF8940B3818A5
:101A500010F8010C002809D1DFF8840B00F0ECFF2E
:101A6000DFF8941DB1F88A10401A0700DFF8880DDE
:101A7000D0F8A8003818DFF8801DC1F8A800DFF8FA
:101A8000780DB0F88A003818DFF86C1DA1F88A00CC
:101A9000DFF8640DD0F8C8003818DFF85C1DC1F815
:101AA000C800DFF8540DD0F8C800DFF84C1DD1F89D
:101AB000CC10B0EB01085FF00009DFF8280B0068DC
:101AC000DFF8341DD1F8CC1011EB000A4A4641462C
:101AD000504600F0DBFFDFF8200DD0F8C800DFF83B
:101AE000181DC1F8CC00DFF8100DD0F8C800B0F513
:101AF000006F09D10020DFF8001DC1F8C8000020E8
:101B0000DFF8F41CC1F8CC00DFF8EC0CD0F8A8002A
:101B1000DFF8E41CD1F89C108842C0F0B680DFF8F2
:101B2000AC0A0068C0F3C04000282AD0DFF89C0A45
:101B3000807950F02000DFF8941A8871DFF88C0A61
:101B4000006830F48000DFF8841A0860DFF8A80C21
:101B50000078C0B2C008DFF8A01C497860F3C50166
:101B6000DFF8940C4170DFF8900C90F90100DFF879
:101B7000881C91F9031060F30201DFF87C0CC1703E
:101B800024E0DFF8480A006850F48000DFF83C1ACF
:101B90000860DFF8380A807910F0DF00DFF82C1ACF
:101BA0008871DFF8540CC07850F00700DFF8481C4B
:101BB000C870DFF8440C0078C0B2C008DFF8381CE9
:101BC000497860F3C501DFF8300C4170DFF8A80DEB
:101BD000007850F00200DFF8A01D0870DFF8EC0973
:101BE000006830F40010DFF8E4190860DFF8DC0961
:101BF0000068C0F3C04000281BD0DFF8FC0BB0F831
:101C00008A000090DFF8F00BD0F89C30DFF8D02984
:101C1000DFF8E40B4078C0F3C200010049B2DFF8FE
:101C2000D80B90F9030040F3020040B203F0D0F962
:101C30001AE0DFF8C40BB0F88A000090DFF8B80BA8
:101C4000D0F89C30DFF89829DFF8AC0B4078C0F36F
:101C5000C200010049B2DFF8A00B90F9030040F385
:101C6000020040B203F0B4F90020DFF88C1BA1F8A9
:101C70008A004FF400785FF00009DFF864A94A4653
:101C80004146504600F002FF78E0DFF86C0BB0F8F8
:101C90008A00B0F5007F7FF460AEDFF85C0B00785F
:101CA000C0B2C008DFF8501B497860F3C501DFF807
:101CB000480B4170DFF814090068C0F3C0400028E9
:101CC00026D0DFF8340B90F90100DFF82C1B91F9D6
:101CD000031060F30201DFF8200BC1704FF40070B5
:101CE0000090DFF8140BD0F89C30DFF8F428DFF810
:101CF000080B4078C0F3C200010049B2DFF8F80ACF
:101D000090F9030040F3020040B203F061F920E0D3
:101D1000DFF8E40AC07850F00700DFF8DC1AC8707A
:101D20004FF400700090DFF8D00AD0F89C30DFF854
:101D3000B028DFF8C40A4078C0F3C200010049B2FD
:101D4000DFF8B40A90F9030040F3020040B203F058
:101D50003FF90020DFF8A01AA1F88A004FF40078BC
:101D60005FF00009DFF878A84A464146504600F087
:101D70008DFEF2E530EBFFFFB02FFFFFDFF84C08E0
:101D80000068C0F30070002800F03183DFF85408C9
:101D90000068DFF8641AD1F8C810085C002800F069
:101DA0002083DFF82808C079C0F30010C0B20028F3
:101DB00040F01783DFF82408DFF83C1AD1F8C81088
:101DC000081800F039FE0400DFF82C0AD0F8C8002B
:101DD0002018B0F5006F06D9DFF81C0AD0F8C8004B
:101DE000D0F50064FFE7B4F5007F02DB4FF4007428
:101DF000FFE7DFF8040AB0F88A0014FA80F0B0F5C3
:101E0000007F06DDDFF8F009B0F88A00D0F5007435
:101E1000FFE7DFF8D0070068DFF8DC19D1F8C81059
:101E20000F18DFF8BC07DFF8D019B1F88A1011EBF2
:101E3000000822003900404600F060FEDFF8B809D3
:101E4000B0F88A002018DFF8B019A1F88A00DFF88E
:101E5000841BDFF88C0700F0E7FD0500002800F088
:101E6000D580DFF8740B02F09BFEDFF87407281AA8
:101E70000090DFF86C0700F0DFFD0099471A5FF073
:101E80000008DFF85C07009911EB000942463900B1
:101E9000484600F0FBFD0098DFF85C19A1F88A00C5
:101EA000DFF85409B0F88A00DFF84C19B1F88C104B
:101EB000884214D2DFF84009B0F88A000930DFF810
:101EC0003819B1F88C10401AFEF757FADFF8FC0603
:101ED000C07950F02000DFF8F416C87107E00098D0
:101EE000DFF81419B1F88C10401AFEF746FADFF843
:101EF0000809D0F8C800DFF80019D1F8CC10471A4B
:101F00005FF00008DFF8DC060068DFF8EC18D1F8B5
:101F1000CC1011EB000942463900484600F0B6FDEE
:101F2000DFF8D408D0F8C800DFF8CC18C1F8CC002E
:101F300000200090DFF8C008D0F8C800B0F5006FAE
:101F400009D10020DFF8B018C1F8C8000020DFF880
:101F5000A818C1F8CC00DFF8A008B0F88A10DFF8A4
:101F6000800602F0CAFD0020DFF88C18A1F88A0074
:101F70000020DFF88418A1F88C00DFF85006C07943
:101F800050F01000DFF84416C871DFF84006006812
:101F900030F08050DFF834160860DFF83006006853
:101FA00030F08060DFF8241608604FF400775FF0AF
:101FB0000008DFF82C9642463900484600F066FDDE
:101FC000DFF80806C079C0F34010C0B2002814D072
:101FD000DFF8F805C07910F0DF00DFF8F015C87100
:101FE000DFF89409407850F00100DFF88C19487050
:101FF0000020DFF8041881F8D800DFF8D005006869
:1020000030F01000DFF8C4150860BFE6DFF8CC1927
:10201000DFF8CC0500F008FD0500002800F0D280B4
:10202000DFF8BC052F1A7DA1DFF8B405381800F0E1
:10203000FBFC0500002800F08580DFF8A40502F015
:10204000AFFDDFF89C0902F0ABFDDFF89405281A1C
:10205000801C0700DFF8A007B0F88C00381AFEF7E4
:102060008CF9DFF81409407850F00100DFF8081906
:1020700048700D20DFF8801781F8D800DFF84C0594
:10208000006830F08050DFF844150860DFF83C0548
:10209000C07950F01000DFF83415C871DFF8580728
:1020A000D0F8C800DFF85017D1F8CC10B0EB010819
:1020B0005FF00009DFF82C050068DFF83C17D1F865
:1020C000CC1011EB000A4A464146504600F0DEFCB7
:1020D000DFF82407D0F8C800DFF81C17C1F8CC00DF
:1020E000DFF81407D0F8C800B0F5006F09D1002060
:1020F000DFF80417C1F8C8000020DFF8FC16C1F8AB
:10210000CC004FF400785FF00009DFF8D4A44A4611
:102110004146504600F0BAFC0020DFF8DC16A1F87A
:102120008A000020DFF8D016A1F88C00DFF89C04AC
:10213000006830F01000DFF89414086026E600BF55
:10214000EC1101082000FEF718F9DFF8AC06D0F812
:10215000C800DFF8A416D1F8CC10B0EB01085FF08E
:102160000009DFF880040068DFF88C16D1F8CC1085
:1021700011EB000A4A464146504600F087FCDFF862
:102180007806D0F8C800DFF87016C1F8CC00DFF888
:102190006806B0F88A00DFF86016A1F88C00DFF856
:1021A0005806D0F8C800B0F5006F7FF4EFAD0020FE
:1021B000DFF84416C1F8C8000020DFF83C16C1F86B
:1021C000CC00E3E5DFF83006B0F88A00B0F5007F18
:1021D00040F0C980DFF82006B0F88C00B0F5FC7F35
:1021E00022DC08275FF00008DFF8F8974246390044
:1021F000484600F04BFCDFF80006B0F88C00D0F544
:10220000FC70FEF7BAF82DE08C150108981501084E
:102210009E1D0020A4150108702500200D0A000055
:1022200034060108BC2500200827DFF8B887DFF84E
:10223000B8973A004146484600F060FC2000FEF79F
:102240009CF85FF008095FF0000ADFF898B7524683
:102250004946584600F01AFCDC48C07950F040006E
:10226000DA49C871DFF89005D0F8C800DFF88815A2
:10227000D1F8CC10471A5FF00008DA480068DFF8A0
:102280007815D1F8CC1011EB0009424639004846C8
:1022900000F0FCFBDFF86005D0F8C800DFF8581547
:1022A000C1F8CC004FF4FC70DFF84C15A1F88A009F
:1022B000DFF84405D0F8C800B0F5006F09D1002060
:1022C000DFF83415C1F8C8000020DFF82C15C1F87C
:1022D000CC00DFF82405B0F88A10C14802F00DFCEC
:1022E0000020DFF81415A1F88A000020DFF8081597
:1022F000A1F88C004FF400775FF00008DFF8E0925F
:1023000042463900484600F0C1FBB048C079C0F3EE
:102310008010C0B200283FF439AD0827DFF8C88626
:10232000DFF8BC923A004146484600F0E7FB08203F
:10233000DFF8C414A1F88A000820DFF8BC14A1F863
:102340008C005FF00A095FF0000ADFF89CB6524685
:102350004946584600F09AFB9C48C07910F0BF00EF
:102360009A49C87112E52000FEF707F8DFF88804E3
:10237000B0F88A00DFF88014A1F88C00DFF8780448
:10238000D0F8C800DFF87014D1F8CC10471A5FF00D
:10239000000894480068DFF86014D1F8CC1011EB05
:1023A000000942463900484600F070FBDFF8480457
:1023B000D0F8C800DFF84014C1F8CC00DFF83804CA
:1023C000D0F8C800B0F5006F7FF4E0AC0020DFF873
:1023D0002814C1F8C8000020DFF81C14C1F8CC0094
:1023E000D4E47A48C07910F0EF007849C871774892
:1023F0000068C0F38070002800F0DB8074A130001A
:1024000000F012FB002833D07048006830F08040A4
:102410006E4908606D48006830F480606B49086060
:102420000020DFF8D4134873642400270DF124083A
:102430003A002100404600F029FB0220DFF8AC15ED
:1024400081F8260072B6DFF8A405D0E90823110050
:102450001A00DFF89C0500F0CBFB62B65A4800F08A
:1024600063FC99E0F80D0108B01501087CFC000838
:10247000DFF88403407BDFF88013097B884280F01B
:102480008B80DD48407B8DF8140052480390DFF8C4
:10249000640500689DF814102C2202FB010008302E
:1024A0000290DFF8500500689DF814102C2202FB02
:1024B0000100001D0190DFF83C0500689DF8141034
:1024C0002C2202FB0100009009AB05AADFF82815B9
:1024D000300000F04FFB9DF81400C7494873DFF847
:1024E0001C153C4800F0A0FA0500002D0BD0DFF8C9
:1024F00004050068C049497B2C2202FB0100012130
:1025000080F826100AE0DFF8EC040068BA49497B3D
:102510002C2202FB0100002180F82610DFF8E014D5
:102520002C4800F081FA0500002D0BD0DFF8C40420
:102530000068B149497B2C2202FB0100012180F88F
:1025400027100AE0DFF8AC040068AB49497B2C2275
:1025500002FB0100002180F82710DFF8A8141D48B5
:1025600000F062FA0500002D0BD0DFF88804006847
:10257000A149497B2C2202FB0100012180F828108F
:102580000AE0DFF8700400689B49497B2C2202FBBB
:102590000100002180F8281000200F4908604FF446
:1025A00000740027DFF82C803A002100404600F03C
:1025B0006DFA25B0BDE8F08FF8FA00084C0B010861
:1025C000640B0108F8250020042400209C2500202D
:1025D0004F4B0D00001A0020FC250020000A0020AF
:1025E00000160020F00100202DE9F84304000D0042
:1025F0004FF0FF0920008146DFF8F00380F82090BB
:102600000120DFF8E81381F826000FFA89F948461F
:102610000028032840F29281001F012840F2A8817F
:10262000801E012840F28A81801E012840F2A0818C
:10263000801E00F09081401E012840F29981801E8A
:10264000012840F27B81801E00F09281401E032809
:1026500040F27481001F00F08B81401E00F06E81FB
:10266000401E012840F28481C01E00F06781401E98
:10267000012840F27D81801E00F09680801E00F0CF
:102680005D81401E012840F27381801E012840F2C6
:102690005581801E012840F26B81801E00F04E8122
:1026A000401E00F06581401E00F04881401E042855
:1026B00040F25E81401F012840F24081001F052842
:1026C00040F23C81801F1FD0C01E5AD0C01E00F0B7
:1026D0009580401E00F0B880801E00F00981801EA9
:1026E00000F02C81401E00F01381401E00F01B8181
:1026F000001F6DD0801E00F021810E3800F0D280C6
:10270000401E00F0E28034E1BF49280000F08CF95F
:10271000060070793A2817D1B0798DF800009DF83D
:102720000000B24991F8211060F30301AF4880F82E
:102730002110AE4890F8210010F00F0050F09000EA
:10274000AA4981F821001BE070798DF80000F0792A
:102750008DF80100A54890F8210010F00F009DF8B9
:10276000001050EA0110A14981F821009DF80100F4
:102770009E4991F8211060F303019C4880F82110D4
:10278000F7E0A249280000F04FF90600F0798DF833
:1027900000009DF80000954991F8211060F30301B5
:1027A000924880F82110E4E09949280000F03CF9B3
:1027B000060011200700222F06DAB85D0E497918AD
:1027C00081F83E007F1CF6E70B206B49C875D0E00E
:1027D0009049280000F028F9060011200700222F58
:1027E00006DAB85D0449791881F83E007F1CF6E7E7
:1027F0000C206149C875BCE0901D00203A212800DA
:1028000002F0A0F9804698F801003038774991F835
:10281000211060F30301754880F82110002088F82A
:1028200000003A21280002F08DF9804698F8010056
:1028300030386E4991F8211011F00F0151EA001063
:102840006A4981F8210094E03A21280002F07AF9DF
:102850008046002088F800003A21280002F072F932
:10286000804698F801003038604991F8211060F3F3
:1028700003015E4880F82110002088F800003A210A
:10288000280002F05FF9804698F801003038574977
:1028900091F8211011F00F0151EA0010534981F80D
:1028A000210066E05849280000F0BEF80600707963
:1028B0008DF800009DF800004C4991F8211060F35C
:1028C00003014A4880F8211053E05049280000F0E5
:1028D000ABF80600F0798DF800009DF80000434940
:1028E00091F8211060F30301404880F8211040E086
:1028F0000020494908704948006830F00200474903
:1029000008604648006850F000404449086030E0E4
:102910000A20364981F826004048C07950F001006D
:102920003E49C87125E00920304981F826003B481E
:10293000C07910F0FE003949C8711AE037480068C4
:1029400030F00200354908603448006850F000401B
:10295000324908600DE031480068C0F300100028DB
:1029600005D02E48006830F010002C49086000E0C7
:10297000FFE7BDE8F183000070250020F8B50400F2
:102980000D0016001F0001F07FFF2548A0F88460AD
:102990002348C0F880702248807865F302002049FF
:1029A00088701F48807864F3C5001D4988701B201B
:1029B0000E4981F8260072B60C48D0E908231100B0
:1029C0001A000B4800F014F962B6164800F0ACF992
:1029D000F1BD0000BC15010854060108C815010826
:1029E000A0160108F8170020A8250020E4230020E5
:1029F000F8230020E025002050220020A81601081E
:102A0000B0160108B8160108C0160108C81601085A
:102A1000D4150108E0150108182600209C25002087
:102A2000901D00200424002038B504000D0029006A
:102A3000200002F09FFB32BD00F10103810704D0AA
:102A400010F8011B89B18107FAD10268B2F1013196
:102A5000914311F0803F04BF50F8042FF6E710F8BF
:102A6000011B11B110F8011BFBE7C01A7047036886
:102A70001AB95A1E026008467047197800290FBF1C
:102A80004FF0FF30591C01601878704762F30F2235
:102A900062F31F42401810F0030308D0C91A1FD375
:102AA000DB0748BF00F8012D28BF20F8022D1300D6
:102AB00030B414461546103928BF20E93C00FAD836
:102AC000490728BF20E90C0048BF40F8042D8900C1
:102AD00028BF20F8022D48BF00F8012D30BC7047F8
:102AE000C91818BF00F8012DCB0728BF00F8012D29
:102AF00070470268531C03601170704762B38B0704
:102B000008D0521E11F8013B00F8013B00F0248070
:102B10008B07F6D1830740F0208000BF103A07D31F
:102B200030B4B1E83810103AA0E83810F9D230BC0F
:102B3000530724BFB1E80810A0E8081044BF51F8BB
:102B4000043B40F8043BD20724BF31F8022B20F8A5
:102B5000022B44BF0B7803707047083A07D3B1E8E3
:102B60000810083A40F8043B40F804CBF7D253076A
:102B7000E4E720000DB400B582B004A800900A4636
:102B80006B4603A9034878440A3002F027FB06BCD1
:102B90005DF810FBDBFEFFFF024600E0521C1378DD
:102BA000002BFBD111F8013B137012F8013B002BF5
:102BB000F8D1704708231A0012FB01F38380002329
:102BC00003800023C38000234380554B83607047FC
:102BD0008188C088B0EBD10F01D1012000E0002036
:102BE0007047C088002801D1012000E00020704714
:102BF00076B504002000FFF7EBFF002842D1608883
:102C0000C0080600A06810EBC600BDF80410818063
:102C1000A06810EBC6009DF802108170A06810EB50
:102C2000C6009DF80110A26812EBC602527861F34B
:102C300003024270A06810EBC600A16811EBC60148
:102C4000497811F00F019DF8012012F0F0021143B4
:102C500041709DF80000A16801F83600A06810EBF3
:102C6000C6009DF806108171E088401CE0806088F5
:102C700008306080A0880500608890FBF5F105FBB6
:102C80001100608073BD70B504002000FFF7A9FF3C
:102C9000002801D0002042E02088C0080600A0687B
:102CA00010EBC60080881F498880A06810EBC60022
:102CB000407810F00F001B49497860F30301194870
:102CC0004170A06810EBC6004078C0B200091549F9
:102CD000497811F00F0151EA001012494870A068BC
:102CE00010EBC60080780F498870A06810F8360095
:102CF0000C490870A06810EBC600807909498871FA
:102D0000208808302080E088401EE080A0880500F0
:102D1000208890FBF5F105FB11002080014870BD73
:102D2000001C0020B4250020002181800021817139
:102D3000417811F0F00151F00901417009218170D1
:102D4000632101707047FF0070B54FF48061DFF8B8
:102D5000B00202F0D7FFDFF8AC02407810F0F100CB
:102D6000A84948700020A849087000F038F900F020
:102D70008AF800F016F83221A448FFF71BFF01F093
:102D800040FA08240025A24E2A0021003000FFF757
:102D90007DFEA04802F0DEFF002801D001F097FD83
:102DA00070BD9848007850F0080096490870954822
:102DB000007850F08000934908709248007810F035
:102DC000BF00904908708F48407810F0F1008D499D
:102DD000487000208B49487400208A49C87400203C
:102DE000884988740020874948608648407810F0F8
:102DF000FE0084494870FF208249C875022081493D
:102E0000087502207F49487500207E49887500209A
:102E10007C49C8608048006850F001007E49086025
:102E20007D48006850F002007B4908607A48D0F87D
:102E3000020030F080507849C1F802007648C0792D
:102E400010F0DF007449C8717348807950F00100B8
:102E5000714988717048C07910F0EF006E49C871EF
:102E60006D48C07910F0BF006B49C8716A48C079DD
:102E700010F07F006849C8716748007A10F0FE00C2
:102E800065490872704770B56448C07910F0C70092
:102E90006249C87100206149C1F8A40000205F495F
:102EA000C1F8980000205D49C1F8A00000205B49EE
:102EB000C1F8B00000205949C1F8A80000205749C6
:102EC000A1F8900000205549C1F8B40000205349F2
:102ED000C1F8BC0000205149C1F8C00000204F4992
:102EE000487300204D49C1F8C40000204B49A1F8A7
:102EF0008C000A204949A1F892004FF40064002593
:102F0000474E2A0021003000FFF7C0FD70BD80B59C
:102F10004448006850F00200424908604148006897
:102F200010F00200009000983E48006850F0010048
:102F30003C4908603B48006810F001000090009890
:102F40004FF480702E49086301202D494863012009
:102F50002B49886303202A49C86333495FF09040B6
:102F600003F03AF8002028490870FF202549C87569
:102F700000224FF480715FF0904003F0D5F9C82033
:102F800003F02BFA01224FF480715FF0904003F0C0
:102F9000CBF9322003F021FA4FF480715FF09040BA
:102FA00003F013F91748C07D0E2801D000BFF9E7E0
:102FB00001BD80B500224FF480515FF0904003F0D6
:102FC000B3F9012219491A4803F074FB002805D10E
:102FD0001148006850F400500F49086001BD80B5E9
:102FE0004FF400620E49124803F0CAFB002805D1D5
:102FF0000948006850F400500749086001BD00000E
:10300000E42300207025002018260020F82300204B
:10301000BC250020682400209C250020901D002055
:10302000000A00204C10024014240020DE1D002065
:103030007C2100202DE9F04182B004000025DFF85A
:103040001C0E0068C0F30010002840F0C78572B65F
:10305000DFF80C0EFFF717FEDFF8081E886262B675
:10306000DFF8000E806A002800F0B885DFF8F40D64
:10307000806A8079012844D0022800F099850328CD
:1030800000F09685042800F09385062800F06E81F4
:10309000072800F00881082800F07885092800F04A
:1030A00096850A2800F092850C2800F078840D2877
:1030B00000F0CD840E2800F020840F2849D010287D
:1030C00000F08F82142800F0BD81152800F04A839B
:1030D000162800F08C80172800F0C3821B2800F00F
:1030E000F8811C2800F093831D2811D01E2800F0C1
:1030F0003C82232800F0F182242800F00A8500F0A9
:103100006DBDDFF8600D806A01F0EEF800F066BD7D
:10311000DFF8500D806A407810F00F00DFF8AC1D2A
:10312000097860F30201DFF8A40D01700020DFF8D8
:10313000A01D8875DFF8980D407850F00100DFF889
:10314000901D48700020DFF8841D81F8D80000F041
:1031500045BDDFF8780DC07910F0C701083010F0D8
:1031600038000843DFF8641DC871DFF8600DC079CE
:10317000C0F3C200C0B209280EDBDFF8540D40785E
:1031800050F00100DFF8481D48700420DFF83C1DB6
:1031900081F8D80000F022BD0120DFF8381DDFF8EB
:1031A000C42C926A527812F00F025054DFF8B40C1B
:1031B000806A407810F00F00DFF8101D097860F386
:1031C0000201DFF8080D01700020DFF8041D88758A
:1031D000DFF8FC0C407850F00100DFF8F41C487078
:1031E0000020DFF8E81C81F8D80000F0F7BCDFF819
:1031F000DC0C007A10F0F801401C10F007000843C6
:10320000DFF8C81C0872DFF8540CD0F8020030F068
:103210008050DFF8481CC1F802000020DFF8AC1C29
:10322000C1F8C400DFF8A40C007A10F007000528EC
:103230000EDBDFF89C0C407850F00100DFF8901CAA
:1032400048700420DFF8841C81F8D80000F0C6BC68
:103250000120DFF8041EDFF80C2C926A527812F07D
:103260000F025054DFF8FC0B806A407810F00F001A
:10327000DFF8581CC97960F30201DFF8500CC17106
:103280000020DFF84C1C8875DFF8440C407850F0C3
:103290000100DFF83C1C48700020DFF8301C81F88A
:1032A000D80000F09BBC01F006FBDFF8200CC07AD0
:1032B00001280CD1DFF8140C436EDFF8100C026EFD
:1032C000DFF8981DDFF8980D03F098FF10E0DFF8A5
:1032D000FC0BC07A00280BD1DFF8F00B436EDFF84F
:1032E000EC0B026EDFF87C1DDFF8740D03F086FF37
:1032F000DFF86C0DFFF7A0FB80B201F0EDFA0500DE
:10330000EDB2002D23D10020DFF8C01BC1F8C400AE
:10331000DFF8480BD0F8020050F08050DFF83C1B7B
:10332000C1F80200DFF8340B006850F01000DFF83D
:103330002C1B0860DFF8240B006850F00400DFF855
:103340001C1B08600720DFF8881B88750CE00D2027
:10335000DFF8781B81F8D800DFF8740B407850F064
:103360000100DFF86C1B487000F038BC01F0A3FAD4
:10337000DFF8580BC07A012811D1DFF8500BD0F8D4
:10338000B8000090DFF8440B436EDFF8400B026E8C
:10339000DFF8E41DDFF8C80C03F030FF15E0DFF8BC
:1033A0002C0BC07A002810D1DFF8200BD0F8B80021
:1033B0000090DFF8180B436EDFF8100B026EDFF899
:1033C000BC1DDFF89C0C03F019FFDFF8940CFFF72D
:1033D00033FB80B201F080FA0500EDB2002D23D15D
:1033E0000020DFF8E81AC1F8C400DFF8700AD0F84E
:1033F000020050F08050DFF8641AC1F80200DFF8D4
:103400005C0A006850F01000DFF8501A0860DFF81E
:103410004C0A006850F00400DFF8401A08600620EB
:10342000DFF8AC1A88750CE00D20DFF8A01A81F8DF
:10343000D800DFF89C0A407850F00100DFF8901ABD
:103440004870CBE301F037FADFF8800AB0F8843037
:10345000DFF8780A807810F00702DFF8C01DDFF887
:10346000000C03F0CBFEDFF8F80BFFF7E5FA80B2B3
:1034700001F032FA0500EDB2002D19D101F01BFA6E
:10348000DFF8480AB0F88460DFF8400AD0F88070AE
:10349000DFF8CC8B320039004046FFF72FFB72B6C5
:1034A000DFF8280AB0F8840001F016FA050062B6C9
:1034B000EDB2002D0CD0DFF8180A407850F0010072
:1034C000DFF80C1A48700D20DFF8001A81F8D800D8
:1034D00084E301F0F0F9DFF8F409B0F8840000901B
:1034E000DFF8E809807810F00703DFF8E00980785A
:1034F000C0F3C202D2B2DFF8601DDFF8640B03F044
:103500007DFEDFF85C0BFFF797FA80B201F0E4F97B
:103510000500EDB2002D17D101F0CDF9DFF8AC09AF
:10352000B0F88460DFF8A409D0F88070DFF8308B41
:10353000320039004046FFF7E1FADFF89009B0F8B1
:10354000840001F0C9F90500EDB2002D0CD0DFF8C0
:103550008009407850F00100DFF8741948700D20A0
:10356000DFF8681981F8D80038E301F0A4F9DFF832
:103570005C09D0F8B830DFF85409026EDFF8DC1CC3
:10358000DFF8DC0A03F03AFEDFF8D40AFFF754FA5A
:1035900080B201F0A1F90500EDB2002D0DD0DFF8E9
:1035A0003009407850F00100DFF8241948700D20F0
:1035B000DFF8181981F8D80012E01E20DFF8101982
:1035C00088750020DFF80419C1F8C400DFF88C0802
:1035D000D0F8020050F08050DFF88018C1F80200E7
:1035E000FCE201F068F9DFF8E408C06E0090DFF853
:1035F000DC08D0F8B830DFF8D408026EDFF8601CC1
:10360000DFF85C0A03F0FAFDDFF8540AFFF714FA5A
:1036100080B201F061F90500EDB2002D0DD0DFF8A8
:10362000B008407850F00100DFF8A41848700D2071
:10363000DFF8981881F8D80012E01020DFF8901811
:1036400088750020DFF88418C1F8C400DFF80C0882
:10365000D0F8020050F08050DFF80018C1F80200E6
:10366000BCE201F028F9DFF86408C36EDFF85C08FB
:10367000D0F8B820DFF8EC1BDFF8E40903F0BEFD5A
:10368000DFF8DC09FFF7D8F980B201F025F9050071
:10369000EDB2002D0DD0DFF83808407850F0010071
:1036A000DFF82C1848700D20DFF8201881F8D800BA
:1036B00012E01720DFF8181888750020DFF80C18C2
:1036C000C1F8C400DFF89407D0F8020050F0805031
:1036D000DFF88817C1F8020080E201F0ECF8DFF8AB
:1036E0008407806A407810F00F02DFF8881BDFF84B
:1036F000700903F083FDDFF86809FFF79DF980B2D8
:1037000001F0EAF80500EDB2002D2AD10020DFF823
:10371000BC1781F8D800DFF84407006850F01000AB
:10372000DFF838170860DFF83C07806A407810F04F
:103730000F00DFF89817497960F30301DFF88C0771
:103740004171DFF88C07407850F04000DFF88017B7
:103750004870DFF87C07007850F00200DFF870173F
:1037600008703BE2DFF86C07DFF8F816896A4978E1
:1037700011F00F01085C002844D001F09CF8DFF83C
:10378000E406806A407810F00F02DFF81C1BDFF8B7
:10379000D00803F033FDDFF8C808FFF74DF980B219
:1037A00001F09AF80500EDB2002D2FD10020DFF8CE
:1037B0001C1781F8D800DFF8A406006850F010004C
:1037C000DFF898160860DFF89C06806A407810F0F1
:1037D0000F00DFF8F816497960F30301DFF8EC0613
:1037E0004171DFF8EC06407850F01000DFF8E01689
:1037F0004870DFF8DC06007850F00200DFF8D016E1
:10380000087003E0DFF8B80A01F0CAF9E6E101F058
:1038100052F8DFF84408DFF84C16896A4978C9B2D3
:103820000909C9B2085C002866D0DFF83806806A4A
:10383000407810F00F0009281AD0DFF82806806AB7
:10384000407810F00F03DFF81C06806A4078C0B2A1
:103850000209D2B2DFF86C1ADFF8040803F0CEFCDC
:10386000DFF8F805C07950F00200DFF8F015C871F4
:10387000DFF8EC07FFF7E0F880B201F02DF8050063
:10388000EDB2002D38D10020DFF8401681F8D800C5
:10389000DFF8C805006850F01000DFF8C0150860B8
:1038A000DFF8C005806A4078C0B20009DFF81C1656
:1038B000497960F30611DFF814064171DFF8A405B9
:1038C000806A407810F00F00DFF80016497960F345
:1038D0000301DFF8F8054171DFF8F405407850F096
:1038E0002000DFF8EC154870DFF8E405007850F0B0
:1038F0000200DFF8DC15087070E100F0DCFFDFF893
:10390000CC05B0F88430DFF8C405026FDFF8B819D1
:10391000DFF84C0703F072FCDFF84407FFF78CF880
:1039200080B200F0D9FF0500EDB2002D0DD0DFF818
:10393000A005407850F00100DFF8941548700D2084
:10394000DFF8881581F8D80028E000F0B4FFDFF830
:103950007C05B0F88460DFF87405D0F88070DFF87B
:103960000087320039004046FFF7C8F8DFF8F0065C
:10397000FFF762F880B200F0AFFF0500EDB2002D56
:103980000CD0DFF84C05407850F00100DFF840150E
:1039900048700D20DFF8341581F8D8001EE100F0E2
:1039A0008AFFDFF82805006F002806D1DFF81C1910
:1039B000DFF8AC0603F022FC1FE0DFF81005006E14
:1039C000002809D1DFF80405026FDFF80419DFF8D9
:1039D000900603F013FC10E0DFF8F004D0F8B80014
:1039E0000090DFF8E804036FDFF8E004026EDFF810
:1039F000E418DFF86C0603F001FCDFF86406FFF75B
:103A00001BF880B200F068FF0500EDB2002D10D168
:103A1000DFF84804006850F00050DFF840140860F8
:103A2000DFF83804006850F08050DFF83014086088
:103A30000CE0DFF89C04407850F00100DFF89014AF
:103A400048700D20DFF8841481F8D800C6E000F03B
:103A500032FFDFF8780490F97C0010F1010F31D1CA
:103A6000DFF8680490F97D0010F1010F2AD1DFF82A
:103A70005C04006F002811D0DFF85004406F00286C
:103A80000CD0DFF84804436FDFF84004026FDFF822
:103A90004818DFF8CC0503F0B1FB21E0DFF82C0477
:103AA000006F00281CD0DFF82404406F002817D1D5
:103AB000DFF81804026FDFF82418DFF8A40503F01C
:103AC0009DFB0DE0DFF8040490F97D30DFF8FC0386
:103AD00090F97C20DFF80818DFF8840503F08EFBEE
:103AE000DFF87C05FEF7A8FF80B200F0F5FE0500C8
:103AF000EDB2002D0CD0DFF8D803407850F0010073
:103B0000DFF8CC1348700D20DFF8C01381F8D8001F
:103B100064E000F0D0FEDFF8B403D0F8B800009005
:103B2000DFF8A803036FDFF8A403026EDFF8B41711
:103B3000DFF82C0503F062FBDFF82405FEF77CFFBD
:103B400080B200F0C9FE0500EDB2002D10D1C348CF
:103B5000006850F08060C1490860C048006850F0BB
:103B60008050BE4908602420DFF8641388750CE09B
:103B7000DFF85C03407850F00100DFF85413487020
:103B80000D20DFF8481381F8D80027E0DFF8400364
:103B9000407850F00100DFF8381348700D20DFF84E
:103BA0002C1381F8D8000020DFF82413887515E065
:103BB000C748407850F00100C54948700020C3490B
:103BC00081F8D8000020C249887507E006E0A348C4
:103BD000006850F04000A1490860FFE79F48006876
:103BE000C0F3004000280CD09C48006830F48030BE
:103BF0009A490860B548D0F8980080B203F098FD63
:103C0000B0E196488079C0F34000C0B200280CD0E3
:103C10009248807910F0FD0090498871AB48D0F847
:103C2000980080B203F0B7FD9CE18C480068C0F3B7
:103C3000805000280FD0A6480078C0F3C000C0B262
:103C4000002808D08548006830F480008349086067
:103C500003F01EFE86E181488079C0F34010C0B2B7
:103C600000280FD09A480078C0F3C000C0B20028E6
:103C700008D07A48807910F0DF007849887103F025
:103C800036FE6FE175488079C0B2C009C0B2002825
:103C90000FD08F480078C0F3C000C0B2002808D011
:103CA0006E48807910F07F006C49887103F054FEF3
:103CB00058E16A480068C0F3404000280CD06748CB
:103CC000006830F40030654908608048D0F89800FA
:103CD00080B203F09DFD45E16048D0F80100C00FBF
:103CE000002813D05D48D0F80100400040085B492F
:103CF000C1F80100012175488079C0F3C200C0B24B
:103D000000F066FD0220724908752BE15348D0F897
:103D10000100C0F3C060002827D05048D0F801004F
:103D200030F000604D49C1F801006848B0F88E00DD
:103D300000906648D0F8AC30DFF8482A63484078F5
:103D4000C0F3C200010049B25FF0FF3001F040F95A
:103D50004FF400760027DFF82C8A3A003100404605
:103D6000FEF794FE00F06DFAFCE03C48D0F801004C
:103D7000C0F3007000282BD03848D0F8010030F094
:103D800080503649C1F801005048B0F88E000090CC
:103D90004E48D0F8AC30DFF8EC294C484078C0F3FE
:103DA000C200010049B2494890F9030040F3020003
:103DB00040B201F00DF94FF400760027DFF8C48916
:103DC0003A0031004046FEF761FE00F03AFAC9E0E1
:103DD0002248D0F80100C0F38070002817D03D4879
:103DE0003A49897911F00701085C002806D00221C0
:103DF0003648807910F0070000F0EAFC1748D0F848
:103E0000010030F080401549C1F80100AAE01348D4
:103E1000D0F80100C0F34070002825D02C48007D68
:103E2000012805D10121DFF8600900F064FE08E0F7
:103E30002748007D022804D10221DFF84C0900F058
:103E40005AFE0220224908750448D0F8010030F0DB
:103E500000500249C1F8010084E000BF9C25002009
:103E6000F8230020E4230020DFF85C09D0F80200EA
:103E7000C0F3006000282FD0DFF84C09D0F8020012
:103E800030F08070DFF84019C1F80200DFF838091F
:103E90000068C0F34070002804D0DFF8E80800F0A4
:103EA0002DFE06E00948B0F88A10DFF8D80800F0C7
:103EB00024FE4FF400760027DFF8C8883A0031006E
:103EC0004046FEF7E3FD00F0BCF94BE0901D0020FA
:103ED00070250020BC250020DFF8EC08D0F8020097
:103EE000C0F3406000281AD0DFF8980800F006FE02
:103EF0004FF400760027DFF88C883A003100404606
:103F0000FEF7C4FD00F09DF9DFF8BC08D0F8020010
:103F100030F00070DFF8B018C1F8020022E0DFF8DE
:103F2000A8080068C0F3803000280AD001F085F8A6
:103F3000DFF89408006830F48040DFF88C180860DF
:103F400010E0DFF884080068C0F3C030002809D012
:103F500001F07BF8DFF87008006830F40040DFF80B
:103F600068180860DFF81C09C07D002800F0A380F5
:103F7000012800F0A880022800F0AD80032800F09E
:103F8000B280042800F0B780052800F0BC80062825
:103F900000F0C980072800F0CE80082800F0D38008
:103FA00009284DD00A285FD00B2864D00C286BD08C
:103FB0000D2800F0B0800E282BD00F2800F01F81B4
:103FC000102800F0C880112800F0DA80122800F0D4
:103FD000DF80132800F0E480142800F010811528F9
:103FE00000F0C180162800F0E380172800F0E88078
:103FF000182800F0ED80192800F0F2801A2800F04F
:10400000F7801B2849D01C284ED0FF2800F0F780ED
:10401000F5E0DFF870084078C0F34200C0B2022833
:104020000DD1DFF86008407810F0F101801C10F02D
:104030000E000843DFF84C18487000F0F6FFDEE091
:10404000DFF888070078002805D10120DFF87C1709
:10405000087000F0EEFFD2E006260020EC0A01080E
:1040600000020020040B010800F043FDFF20DFF8F0
:104070001418C875C3E0DFF8B00700F0EEFFFF20AA
:10408000DFF80018C875BAE0DFF89C0700F0F1FF10
:10409000FF20DFF8F017C875B1E000F030FDFF2019
:1040A000DFF8E017C875AAE000F029FDFF20DFF86F
:1040B000D417C875A3E0FF20DFF8C817C875112012
:1040C00000F015FD9BE0FF20DFF8B817C87514203D
:1040D00000F00DFD93E0FF20DFF8A817C87513204E
:1040E00000F005FD8BE0FF20DFF89817C87515205C
:1040F00000F0FDFC83E0FF20DFF88817C87516206C
:1041000000F0F5FC7BE0FF20DFF87817C8751B2076
:1041100000F0EDFC73E0FF20DFF86817C8751C2085
:1041200000F0E5FC6BE0FF20DFF85817C87517209A
:1041300000F0DCFC63E0FF20DFF84817C8751220B0
:1041400000F0D4FC5BE0FF20DFF83817C8751820BA
:1041500000F0CCFC53E0FF20DFF82817C8751D20C5
:1041600000F0C6FC4BE0FF20DFF81817C8751E20D2
:1041700000F0BEFC43E000BF74050108940501088F
:10418000FF20DFF80017C875192000F0B1FC36E0F9
:10419000FF20DFF8F016C8751A2000F0A9FC2EE009
:1041A000FF20DFF8E016C875062000F0A1FC26E02D
:1041B000FF20DFF8D016C8751F2000F09BFC1EE022
:1041C000FF20DFF8C016C875202000F093FC16E031
:1041D000FF20DFF8B016C875212000F08BFC0EE040
:1041E000FF20DFF8A016C875222000F083FC06E04F
:1041F000FF20DFF89016C87500F07EFCFFE7BDE8F1
:10420000F3810020DFF87C168860DFF878060078FC
:1042100050F00400DFF86C16087070471C0D0108A0
:104220000020DFF860168860DFF85806007810F08C
:10423000FB00DFF8501608700120DFF848164874BC
:104240007047DFF84006007850F00800DFF83416B9
:1042500008707047000000001C0B01088808010866
:10426000A4080108300D01080121DFF83427D174BA
:1042700070470000440D0108DFF80806407810F090
:104280000100002801D100BFF6E7DFF8F80540780B
:1042900010F0FE00DFF8EC154870DFF8D80690F853
:1042A000D8007047000000006C11010810B5040030
:1042B00000F00DFB10BD10B50400FCF72BF810BD8D
:1042C000340B0108580D01086C0D01084415010854
:1042D0007C110108B4050108800D01088C1101084A
:1042E0009C110108D405010810B5040020780428A9
:1042F00064D0052867D008286AD009286DD00A281C
:1043000070D00B2873D00C2876D00F2879D01428C1
:104310007CD0162800F07F80172800F081801828B4
:1043200000F083801A2800F0A1801B2800F0A380F1
:104330001F2800F0A580202800F0A780232800F087
:10434000E080242800F0E680262800F0E880282875
:1043500000F0F280292800F0F4802A2800F0FA808A
:104360002B2800F0FC802C2800F0FE80372800F07D
:1043700000813A2800F063813D2800F077813E28D3
:1043800000F081813F2800F09A81402800F06D8183
:10439000422800F0BD81432800F09681442800F0B7
:1043A0009C81452800F0A481462800F0A881582867
:1043B00000F0B581592800F0D081E2E10720DFF854
:1043C000C414C875DDE10020DFF8B814C875D8E161
:1043D0000120DFF8B014C875D3E10220DFF8A4147F
:1043E000C875CEE10320DFF89C14C875C9E104202C
:1043F000DFF89014C875C4E10620DFF88814C8758A
:10440000BFE10820DFF87C14C875BAE11120DFF89D
:104410007414C875B5E11220DFF86814C875B0E1EE
:104420001320DFF86014C875ABE1DFF84805007AA7
:1044300010F0E701083010F018000843DFF83415D9
:104440000872DFF83005007AC0F3C100C0B202285C
:104450000BD10920DFF82C14C875DFF81805007A95
:1044600010F0E700DFF80C1508728AE10A20DFF887
:104470001414C87585E10520DFF80814C87580E1BB
:104480000D20DFF80014C8757BE1DFF8F8034078F1
:10449000C0F34200C0B202280BDADFF8E80340782C
:1044A00010F0F101801C10F00E000843DFF8D41367
:1044B0004870DFF8D003007850F01000DFF8C41324
:1044C00008700E20DFF8BC13C875DFF8FC02006826
:1044D000C0F38010002813D0DFF8EC02006830F041
:1044E0004000DFF8E4120860DFF8DC02006830F416
:1044F0000070DFF8D41208601C20DFF88813C8753C
:104500003FE1DFF8C402006830F48060DFF8B812E1
:10451000086036E11620DFF86C13C87531E1DFF86A
:104520006403007810F0EF00DFF8581308700F20D4
:10453000DFF85013C87524E11020DFF84813C87560
:104540001FE10020DFF8841208701520DFF8341313
:10455000C87516E11720DFF82C13C87511E1182073
:10456000DFF82013C8750CE11920DFF81813C8759F
:1045700007E1DFF854020068C0F34050002840F023
:1045800000816078C0B20009C0B2092826D16078E5
:1045900010F00F00DFF8DC13097860F3C501DFF8D5
:1045A000D4030170DFF80805DFF8C8130978C1F3F8
:1045B000C201C9B2085C002840D0DFF80C020068D4
:1045C00050F48000DFF800120860DFF8FC0100689A
:1045D00050F01000DFF8F01108602FE06078C0B2F2
:1045E0000009DFF89013497860F30201DFF88403D3
:1045F0004170607810F00F00DFF87813097860F3ED
:10460000C501DFF870030170DFF8A804DFF8641358
:10461000497811F00701085C00280FD0DFF8A801E5
:10462000807950F02000DFF8A0118871DFF8980140
:10463000006850F01000DFF890110860A1E0607889
:1046400010F00F00DFF82C13897960F30201DFF816
:1046500024038171DFF87001D0F8010050F0804030
:10466000DFF86411C1F801008BE08AE0DFF858013F
:10467000006850F48040DFF8501108600120DFF836
:10468000381408707DE0607810F00F00010049B226
:104690006078C0B2000940B200F0C8F8DFF8280125
:1046A000006850F40040DFF8201108600020DFF8B7
:1046B0000C1408700020DFF80014087061E01A2064
:1046C000DFF8C011C8755CE0DFF8FC00006850F44A
:1046D0000070DFF8F410086053E03B48006830F4E5
:1046E0000070394908601C20DFF89811C87548E04F
:1046F0003548006850F480703349086041E0324822
:10470000006830F480703049086000F035F938E016
:104710002D48006850F080002B49086031E02A489D
:104720000068C0F3405000282BD1607810F00F00D3
:10473000DFF84012097860F3C501DFF83802017034
:104740002148807950F080001F4988711E48006818
:1047500050F010001C49086013E0607810F00F0062
:10476000DFF81012897960F3C501DFF80802817162
:104770001548D0F8010050F000401349C1F801007D
:10478000FFE710BD00160020941D002038B504007E
:104790000D0000F079F87748C0F8B8407548C56654
:1047A00017207C4981F8260072B67A48D0E90823A0
:1047B00011001A00DFF80803FEF71AFA62B6DFF8F4
:1047C0000403FEF7B1FA31BD9C2500201826002015
:1047D00038B504000D0000F057F8EDB2022D04D1F9
:1047E00015206C4981F8260006E0EDB2012D03D1B9
:1047F0002320684981F82600664890F8210064F378
:104800000300644981F8210072B66248D0E90823A8
:1048100011001A00DFF8A802FEF7EAF962B6DFF825
:10482000A402FEF781FA31BDDF1D002038B5040077
:104830000D0000F029F8574890F8210010F00F0003
:1048400050EA0410534981F82100524890F82100A1
:1048500065F303004F4981F821001C204D4981F880
:10486000260072B64B48D0E9082311001A00DFF881
:104870005002FEF7BDF962B6DFF84802FEF754FABF
:1048800031BD0000702500204548007810F001007F
:1048900000280DD142480078C0F34000C0B2002883
:1048A00008D03F484078C0F30010C0B2002801D1C2
:1048B00000BFE9E7704770B54FF400640025DFF8EA
:1048C00008622A0021003000FEF7E0F870BD80B5D4
:1048D000002003F067FA01BD10B504002F480078EE
:1048E000C0F30010C0B2002808D12C480078C0F3F3
:1048F0008010C0B2002801D1052039E0DFF8D401D2
:10490000006810F4407F01D0102031E0DFF8C401CE
:10491000006850F48050DFF8BC110860A4B2002C8D
:1049200005D1DFF8B40100F03BF91F2020E04FF47F
:104930007A73220092B2DFF89011174801F0C5FD9A
:10494000002803D0FFF7C3FF0F2011E0DFF8840138
:10495000006830F48050DFF87C110860DFF87401E3
:104960000068C0F34030002801D1FEF722FB002090
:1049700010BD0000901D00200A48D0F8020050F041
:1049800000600849C1F802000020DFF85011C1F8AA
:10499000BC007047E42300207C210020702500200B
:1049A000702500209C25002070B504000D00002615
:1049B000FFF781FF2B0022004949434802F01EFC0B
:1049C0004148FEF739F880B2FFF786FF0600F6B2DD
:1049D000002E02D1FFF750FC06003000C0B270BDBF
:1049E00070B504000D000026FFF765FF2B002200C4
:1049F0003C49354802F002FC3348FEF71DF880B20E
:104A0000FFF76AFF0600F6B2002E02D1FFF734FC72
:104A100006003000C0B270BD38B504000025FFF7B5
:104A20004AFF22002949284802F0E8FB2648FEF701
:104A300003F880B2FFF750FF0500EDB2002D02D160
:104A4000FFF71AFC05002800C0B232BD38B50400DB
:104A50000025FFF730FF22001D491B4802F0CEFB66
:104A60001948FDF7E9FF80B2FFF736FF0500EDB208
:104A7000002D02D1FFF700FC05002800C0B232BDB6
:104A800010B50024FFF717FF17490F4802F0B6FBD7
:104A90000D48FDF7D1FF80B2FFF71EFF0400E4B21E
:104AA000002C02D1FFF7E8FB04002000C0B210BDCB
:104AB000BC25002006260020192600201A260020EA
:104AC000F82300200424002000020020940D010897
:104AD000F40501089C25002014060108901D002003
:104AE000A80D0108BC0D010850150108704770475A
:104AF00070477047704770477047704770477047FE
:104B00005FEA000C830706D011F8013B00F8013B77
:104B1000B3B18307F8D10A68B2F1013323EA020383
:104B200013F0803F02BF40F8042B51F8042FF3E745
:104B300011F8013B00F8013B13B111F8013BF9E713
:104B40006046704738B504000D002900200003F0CE
:104B50003DF932BD70B504460D46104803F042F9E8
:104B6000064644B12946204603F03DF90419207851
:104B700030B9306070BD3468002CF3D1002070BDB6
:104B80002946204603F040F90019017811B10021AF
:104B900000F8011B3060204670BD00BFF40100200A
:104BA0000EB400B582B003A9009102466B46012104
:104BB000034878440A3003F039F906BC5DF810FB6D
:104BC000BDBF00002DE9F04782B00024A5A54FF439
:104BD000FA46DFF8C004006850F00100DFF8B414B2
:104BE0000860DFF8B004006810F001000090009841
:104BF00001F0CCFB00F0E4F803F0E4FF00F034F93E
:104C00005FF4E131DFF8900400F00DF9DFF888047B
:104C100004F072F800F078F90400E4B2002C05D03A
:104C2000DFF87804FFF7BCFF0020C7E00020DFF8C2
:104C3000701448700220DFF8681488700120DFF8D3
:104C40006014C8700220DFF85C1408705FF4E13073
:104C500003F0DAFFDFF85004FFF7A2FFDFF84004AB
:104C600002F0E6FA0400E4B2002C05D0DFF83C04C0
:104C7000FFF796FF0020A1E0DFF83404FFF790FF74
:104C8000DFF82004007800280DD001280CD002287D
:104C900000F08880032819D005284AD006285ED065
:104CA00007283DD089E0EBE7DFF80804FFF778FF3D
:104CB000DFF804040278DFF80414DFF8040402F0DB
:104CC00003FF0220DFF8DC130870D9E7DFF8F403F4
:104CD000FFF766FFDFF8F00302F0ECFF0700DFF8F4
:104CE000E813DFF8E803FFF75BFF5FF014085FF0FD
:104CF0000009DFF8D4A34A4641465046FDF7C6FEF8
:104D0000DFF8C40303F005F80700DFF8BC13DFF891
:104D1000C003FFF745FF0520DFF888130870AFE7F1
:104D2000DFF8B003FFF73CFF0220DFF878130870CC
:104D3000A6E7DFF8A403FFF733FFDFF8A02329007D
:104D4000300002F02FFE0700FFB2002F03D1DFF882
:104D50009003FFF725FF0220D249087090E7DFF8A3
:104D60008403FFF71DFFDFF88003FDF765FEDFF822
:104D70007C130880DFF87033DFF870030288DFF8F7
:104D800070030178D548007802F021FE0700FFB2D9
:104D9000002F03D1DFF85C03FFF702FF0220C149B7
:104DA00008706DE789A0FFF7FBFED34803F0E5FF2D
:104DB0004FF4FA7001F011FB62E761E7BDE8F68796
:104DC00000B597B06846142103F0F4FF05A844210C
:104DD00003F0F0FF1020059001200B9060200D9053
:104DE00000200C9002200F900120109001201190C3
:104DF0002820129002201590072013900420149070
:104E000005A803F0DBFF0F20009003200190002095
:104E1000029000200390002004900421684604F0D2
:104E2000F1FA17B000BD38B504000D00B34820609A
:104E300065600020A0600020E0600020206100206C
:104E4000A0610C206061200001F017FB002801D058
:104E5000FFF73DFD200001F0D1FA002801D0FFF757
:104E600036FD31BD7400000000B587B08948006888
:104E700050F00100874908608648006810F0010082
:104E8000009000988348006850F001008149086054
:104E90008048006810F00100009000989848006871
:104EA00050F40030964908609548006810F40030CE
:104EB000009000989348006850F001009149086004
:104EC0009048006810F001000090009804200190C4
:104ED00002200290012003900320049007200590F7
:104EE00001A95FF0904001F077F8082001900020C0
:104EF0000290022002900720059001A95FF09040E7
:104F000001F06AF807B000BDF8B500247E48FFF74D
:104F100047FE7E48FFF744FE7D48FFF741FE7D488F
:104F2000FFF73EFE7C48FFF73BFE7848FFF738FE70
:104F30007A48FFF735FE7A48FFF732FE6E4803F0F5
:104F40001CFF784951A004F091FC7648007879283C
:104F50001DD10120744908707448FFF721FE66488E
:104F600003F00BFF002072490870724947A004F05B
:104F70007DFC6F49087046A0FFF712FE6C48007870
:104F8000272814D16C48FFF70BFE04201DE06B4866
:104F9000FFF706FE6A480068FDF74EFD0500684809
:104FA0000668644F2A0031003800FDF7A7FD654808
:104FB000FFF7F6FD6448FFF7F3FD6448FFF7F0FDE7
:104FC0006348FFF7EDFD2000C0B2F2BD2E000000E7
:104FD0002DE9F04704000D0016001F00DDF82080C9
:104FE0005C48FFF7DDFD5FF03209DFF8FCA04A46C0
:104FF00031005046FDF782FD3B48FFF7D1FD6DB211
:1050000029005548FFF7CCFD39005448FFF7C8FD8B
:1050100041465348FFF7C4FD374803F0AEFE34481D
:1050200005702E480470BDE8F08701201D49087006
:10503000704703201B490870704780B54948FFF747
:10504000AFFD2D4803F099FE01BD80B54648FFF73E
:10505000A7FD294803F091FE01BD10B504004348A7
:10506000FFF79EFD2000FFF79BFD234803F085FE20
:1050700010BD10B504003E48FFF792FD2000FFF779
:105080008FFD1D4803F079FE10BD00002573000060
:105090000D0A00004C1002400C210020F408010809
:1050A000E024002012260020C0FF00080C0E01089A
:1050B00074060108E4FF0008FC0100201C0E010832
:1050C00038120108A00B0108882500200C090108EE
:1050D000240901083C0901080800010817260020DE
:1050E00074020108940201082824002004260020EC
:1050F00016260020B40201083C01002000440040B4
:1051000058100240601002409CF700081CF800088C
:1051100058F8000894F80008D0F800080CF90008C6
:105120002C0001081326002015260020D4020108B7
:1051300014260020482500202CFB00085CFB0008FA
:10514000E40100208CF60008D0F6000814F70008EF
:1051500058F70008F4020108B40B01082C0E0108EE
:10516000C80B01085000010874000108140301086D
:105170003403010870B50C46257835B970BD11F8B7
:10518000013F1678B34206D0401C294604F080FB4C
:1051900028B10146224612F8013F002BEFD170BD25
:1051A00003460846C2680169521C491E0029016174
:1051B000C26003D400680122002118474FF0FF307D
:1051C0007047034608461146C268521E11F1010F8E
:1051D000C26002D000680022184770472DE9F047EE
:1051E00088B0054600914FF0FF36186801903446AC
:1051F0000020039002920FF604370FF6F8286FF0A4
:10520000004902E00298401C02900298007804F0E5
:1052100054FBB0B10398401C039001220098002178
:10522000A847824604F049FB0028F3D10398401EAA
:105230001AF1010F0390E5D0009800225146A847CB
:10524000E0E7DDF808A09AF8000030B9002CB8BFFC
:105250000024204608B0BDE8F08725280BD10AF1CC
:105260000100029000782A2816D10298401C029072
:10527000401E007811E00398401C03900122009822
:105280000021A8479AF800108842BBD00246694620
:105290002846FFF796FFD9E700208DF81C00002074
:1052A00005900AE00599494505D001EB810302EB21
:1052B000430130390591401C029002980278A2F116
:1052C00030010A29EED306960178404604F0E0FA50
:1052D00020B10298401C0290401E00788DF81D00FD
:1052E0009DF81D00682801BF02990A78682A62208B
:1052F00006D06C2802BF029908786C2804D171206E
:105300008DF81D00481C029002980178384604F080
:10531000BFFAA8B90398401C03900122009800210D
:10532000A847824604F0C9FA0028F3D10398401E2A
:105330001AF1010F039003D0009800225146A847AC
:105340006946284600F010F8012803DA002C3FF5E2
:1053500081AF7EE7002C48BF00249DF81E00002886
:105360003FF450AF641C4DE770B505460C46002075
:10537000A077A0680078253858D01C3823D0001FAB
:10538000022820D913381AD0C01E66D0801F1AD028
:10539000801E12D0401E12D0401E022813D9001FBA
:1053A0000DD0401F13D0401E012808D9001F3BD04C
:1053B000801E04D0C01E02D055E000224FE02846D7
:1053C000BDE870402EE12846BDE8704021E2207F14
:1053D000002835D1607F622808D0682816D06A2856
:1053E0000BD06C2819D0712807D016E0606850F8EF
:1053F000041B6060E068087022E0606850F8042BCD
:105400006060E068C117C2E9000119E0606850F807
:10541000041B6060E068088012E0606850F8041BBC
:105420006060E06808600BE0012218E0E068401C62
:10543000E060012220680021A8470646252E01D100
:10544000012070BD324621462846FFF7BAFE16F10C
:10545000010F08D14FF0FF3070BD4FF0FF322846EA
:10546000BDE8704001E0002070BD2DE9F04F174607
:105470000025002F83B080460E464FF0000927D547
:10548000B068401CB06000785E2806D1B068401C4F
:10549000B060401E0078019000E00195B46820786B
:1054A0005D280CBF601C20465D2104F0F1F9002846
:1054B00000F0AF80011B0091B0600098032807DB6B
:1054C000821E2D21601C04F003FA08B14FF001097F
:1054D0007069012804DA002F14BF6FF0004001202A
:1054E0003061307F60B9706850F804AB706007E0DD
:1054F0000AF801BB0120B077B069401EB0610225F7
:105500003069401E3061F0680ED4401CF06001220A
:1055100030680021C04783461BF1010F63D0012F83
:1055200007DB04F0CAF916E0401CF0604FF0FF3BC7
:1055300059E0002F50D5B9F1000F0FD10198009A12
:1055400000285946204604D104F0C2F900284AD068
:1055500042E004F0BDF9002845D13DE00199009AF0
:105560000029C0B2214624D107E00B789842A4BF9D
:105570008B78834230DAC91CD21E032A09D34B78B8
:105580002D2BF2D011F8013B834218BF521EF4D1EB
:1055900022E042B311F8013B834218BF521EF8D1FA
:1055A0001AE00B789842A4BF8B7883421BDAC91C9F
:1055B000D21E032A0ED34B782D2BF2D011F8013BCB
:1055C000834218BF521EF4D10DE011F8013B834213
:1055D00009D0521E002AF8D1307F00288FD1B0693F
:1055E000002885D101255A4631464046FFF7E9FD9E
:1055F0000FB1022D09D0022D10D0E80702D41BF103
:10560000010F06D14FF0FF3009E0307F30B9B069AB
:1056100008B9002003E000208AF80000012003B050
:10562000BDE8F08F2DE9F0430C4689B080466069F3
:105630000128B8BF6FF000402061E9464046FFF7FF
:10564000AFFD05462B2D18BF2D2D08D18DF800502C
:1056500021464046FFF7A4FD0DF101090546A0686B
:1056600000780027642814BF75280A260DD0692801
:1056700008BF002609D06F2808BF082605D070286B
:105680001ABF40F0200078281026302D19D121466D
:105690004046FFF785FD054645F020000127C0B2D2
:1056A00078280BD1002E18BF102E13D1214640466A
:1056B000FFF776FD1026054600270BE056B90826B1
:1056C00008E006BB0A261EE0206801220021C04730
:1056D00005460127302D0BD12069411EE06821616C
:1056E000401C0029E060EFD54FF0FF35012700E0B6
:1056F0004FB1302009F8010B05E02068012200219C
:10570000C0470546012715F1010F23D0E9B26129F1
:10571000A8BF573909DA4129A8BF373905DAA1F1FD
:1057200030020A2A34BF3039FF21C9B2F0B28142B7
:1057300010D20DF11F00814538BF09F8015B2069C7
:10574000411EE0682161401C0029E060D5D54FF082
:10575000FF3501272A4621464046FFF732FD3FB973
:10576000E9450ABF15F1010F00204FF0FF304DE071
:10577000002089F80000207F002846D1A06800782A
:10578000642818BF692807D132460021684604F012
:105790001BF90122A2770AE032460021684604F094
:1057A000C3F90122A277A2681278702A28D0627FFA
:1057B000622A0CD0682A17D06A2A0ED06C2A19D017
:1057C000712A0AD0742A18BF7A2A13D018E06268A6
:1057D00052F8043B6260187017E0626852F8043BAC
:1057E0006260C3E9000110E0626852F8043B626045
:1057F00018800AE0626852F8043B6260186004E0B6
:10580000626852F8043B62601860012009B0BDE88C
:10581000F0832DE9F04F0C4693B081466069012872
:10582000B8BF6FF00040206100254846FFF7B8FC84
:1058300007462B2F18BF2D2F0DF1080B08D18DF81F
:10584000087021464846FFF7ABFC0DF1090B0746EF
:105850000026302F4FF00A0818D121464846FFF79E
:105860009FFC074647F02000C0B2782840F0F18046
:1058700030200BF8010B214678200BF8010B4FF07C
:1058800010084846FFF78CFC0746E3E047F020008D
:10589000C0B26E285BD10BF8010B21464846FFF7DA
:1058A0007FFC074647F02000C0B26128A84640F0C0
:1058B000E9810BF8010B21464846FFF771FC0746CA
:1058C00047F02000C0B26E2840F0DC8121464846F7
:1058D000FFF766FC0246282A19D021464846FFF702
:1058E00070FC6E200BF8010B00208BF80000207F6D
:1058F000002840F0FA81B8F10B0F80F2D4812A46DB
:10590000002102A804F0ECF9CDE90001D6E1E1683C
:105910002069491C401E00282061E16005D42068F0
:1059200001220021C847824601E04FF0FF3A50466D
:1059300003F0B9FF00285746E9D1AAF130000A2840
:10594000E5D35F2FE3D0292F40F09C81C9E7692878
:1059500040F092800BF8010B21464846FFF720FCEF
:10596000074647F02000C0B26E28A84640F08A8162
:105970000BF8010B21464846FFF712FC074647F09B
:105980002000C0B2662840F07D8121464846FFF7DE
:1059900007FC40F02001C9B2692906D00246214621
:1059A0004846FFF70EFC66209CE721464846FFF775
:1059B000F7FB074647F02000C0B26E2840F0628136
:1059C000E1682069491C401E00282061E16005D47F
:1059D000206801220021C847074601E04FF0FF3749
:1059E00047F02000C0B2692840F04C81E16820698E
:1059F000491C401E00282061E16005D42068012276
:105A00000021C847074601E04FF0FF3747F020006C
:105A1000C0B2742840F03681E1682069491C401EFC
:105A200000282061E16005D4206801220021C847D8
:105A3000074601E04FF0FF3747F02000C0B2792859
:105A400040F0208166204DE7206801220021C847F0
:105A500007460126302F0BD12069411EE0682161E5
:105A6000401C0029E060EFD54FF0FF37012600E031
:105A700016B130200BF8010BAA4605E02068012280
:105A80000021C8470746012617F1010F24D0F8B2BC
:105A90006128A8BF573809DA4128A8BF373805DA86
:105AA000A0F130010A2934BF3038FF20C0B2404590
:105AB00012D2BAF1240FBABF0BF8017B0AF1010A26
:105AC0006D1C2069411EE0682161401C0029E060D6
:105AD000D4D54FF0FF37012604F021F9406A007851
