:020000040800F2
:10000000B01F0020755300080D2A00080F2A0008B1
:10001000192A0008232A00082D2A000800000000E1
:10002000000000000000000000000000372A000867
:10003000412A0008000000004B2A0008612A00083D
:10004000AD530008B1530008B5530008B953000878
:10005000BD530008C1530008C5530008C953000828
:10006000CD530008D1530008D5530008D9530008D8
:10007000DD530008E1530008E5530008A92A0008F1
:10008000912A0008E9530008ED530008F1530008D5
:10009000F5530008F9530008FD5300080154000807
:1000A00005540008095400080D54000811540008B4
:1000B000572A00084D2A0008155400081954000852
:1000C0001D54000821540008255400082954000834
:1000D0002D5400087B2A0008852A000831540008A6
:1000E00035540008395400083D54000841540008B4
:1000F00045540008495400084D5400085154000864
:1001000055540008595400085D5400086154000813
:1001100065540008695400086D54000871540008C3
:1001200075540008795400087D5400088154000873
:1001300085540008895400088D5400089154000823
:1001400095540008995400089D540008A1540008D3
:10015000A5540008A9540008AD540008B154000883
:10016000B5540008B9540008BD540008C154000833
:10017000C5540008C9540008CD5400080000000010
:10018000D1540008D55400082DE9F04FA1B08046A5
:10019000002017461D4602910B900DF1440A6FF0A6
:1001A00000490AE017F8011B0298C0470028029096
:1001B00000F0AB820B98401C0B90387808B90B9874
:1001C000A5E22528EED10020059006900790089022
:1001D00009900A9001E040F0010017F8011F202962
:1001E000F9D023290DD02B2904D02D2906D0302970
:1001F0000AD00CE040F0020080B2EEE740F00400CC
:10020000FAE740F00800F7E740F01000F4E72A2989
:100210000ED12968296051F8042B2960002A0D921B
:1002200004D5514240F004000D9180B27F1C11E0D2
:1002300000210D9109E00D99494505D001EB81039D
:1002400002EB430130390D917F1C3A78A2F1300165
:100250000A29F0D339782E2903D04FF0FF310C91C1
:100260001DE017F8011F2A2907D1296829607F1C82
:1002700051F8042B29600C9211E000210C9109E047
:100280000C99494505D001EB810302EB430130395C
:100290000C917F1C3A78A2F130010A29F0D3ADF815
:1002A00038000FF66040397800F03EFE08B117F8CC
:1002B000010B8DF83A009DF83A00682802BF3978A2
:1002C0006829622005D06C2804BF38786C2803D1D7
:1002D00071208DF83A007F1C11A8049017F8014B8B
:1002E000B4F1250029D01C3800F0C280001F02287C
:1002F00040F2BE80133800F0E380093800F0B88087
:10030000801E00F04A81401E00F02381401E02281A
:1003100040F2AE80001F00F01C81401F79D0401ECB
:1003200000F0CE80401E24D0C01E0BD0801E00F0F6
:10033000C780C01E00F0C48039E125208DF844003C
:1003400001203DE12868286050F8046B286003967E
:100350000C9C002C04D5304600F0F2FD044606E06B
:1003600022460021304600F007FE00B1841B0694AF
:1003700027E1296829603C2451F8040B29600021F9
:10038000CDE9000111A80390DDE90001049E11B937
:1003900008B90C9AB2B10206120FA0EB0212303269
:1003A000D2B2631E3A2AA8BF273200099A5540EA02
:1003B0000170090908BF00281C4603D0039AA3193D
:1003C0009A42E8D3A0190390C4F13C010C9806911D
:1003D000814209DA401A08904FF6EF71BDF83800F3
:1003E0000840ADF83800ECE0002840F1EA809DF8C4
:1003F000380000F01400102840F0E3800D98059AB2
:10040000801A089A801A441A012CC0F2DA800894E3
:10041000D7E09DF83A0062281AD0682806D06A28EA
:100420000CD06C281CD0712808D019E028682860EE
:1004300050F8041B28600B980880C2E028682860E8
:1004400050F8042B28600B98C117C2E90001B8E0EE
:100450002868286050F8041B28600B980870B0E0EA
:100460002868286050F8041B28600B980860A8E0F2
:100470002868C01D20F007022A60D2E90001083276
:100480002A60CDE90001002902D505982D210AE056
:10049000BDF83800810702D505982B2103E0C0077D
:1004A00005D50598202100F80A10401C059011A8D8
:1004B0000599081803902146684600F0E5F980E0A8
:1004C0009DF83A006C280DD0712818BF6A2809D110
:1004D0002868C01D20F007022A60D2E90001083216
:1004E0002A6005E02968296051F8040B2960002181
:1004F000CDE900019DF83A00682803D1DDE900014B
:1005000080B20BE0622803D1DDE90001C0B205E052
:10051000742818BF7A2804D1DDE900010021CDE953
:1005200000019DF8380000072ED5DDE90001002903
:1005300008BF002828D044F02000782824D105984E
:10054000302100F80A10401C411C059100F80A40B7
:100550001AE09DF83A00294600F0DCF8CDE90001E8
:10056000002902DA05982D210AE0BDF8380081073C
:1005700002D505982B2103E0C00705D50598202159
:1005800000F80A10401C059011A80599081803905E
:100590002146684600F0F5F813E001200590286830
:1005A000286050F8041B28608DF8441009E02520CD
:1005B0008DF84400012005901CB18AF8014002200A
:1005C00005900D980599401A0899401A0699401A05
:1005D0000999401A0799401A0A99441A9DF8380057
:1005E000400710D420208DF84000002609E00123A8
:1005F00010AA6946404600F06EFC002840F0858055
:10060000761CA642F3DB059E0DF1440B0AE01BF8B5
:10061000011B0298C0470028029076D00B98401C1E
:100620000B90761E002EF2D130208DF840004FF056
:10063000000B089E09E0012310AA6946404600F01D
:100640004AFC002861D10BF1010BB345F3DB069E98
:10065000DDF80CB00AE01BF8011B0298C047002827
:10066000029052D00B98401C0B90761E002EF2D1B7
:1006700030208DF840004FF0000B099E09E0012367
:1006800010AA6946404600F026FC00283DD10BF137
:10069000010BB345F3DB03980699079E01EB000BB2
:1006A00009E01BF8011B0298C047029068B30B9841
:1006B000401C0B90761E002EF3D130208DF84000A8
:1006C0004FF0000B0A9E08E0012310AA694640463D
:1006D00000F001FCC8B90BF1010BB345F4DB9DF848
:1006E000380040077FF569AD20208DF840000026D6
:1006F00000E0761CA642BFF660AD012310AA694651
:10070000404600F0E8FB0028F3D04FF0FF3021B066
:10071000BDE8F08F622826D068281DD06A2808D04E
:100720006C2827D0712804D0742823D07A280CD0C4
:1007300020E00868C01D20F007000860D0E9002311
:10074000083008601946104670470A680A6052F877
:10075000040B0A60002170470A680A6052F8040B13
:100760000A6000B20BE00A680A6052F8040B0A60E3
:1007700040B204E00A680A6052F8040B0A60C1172C
:1007800070472DE9FA4E05460A462F696F2A08BFC1
:10079000082405D041F02000782814BF0A24102432
:1007A0003C26D5E90001642A18BF692A81468A4699
:1007B00005D1002903DAD9F100096AEB4A0ABAF136
:1007C000000F08BFB9F1000F0CD1286B50B9082CED
:1007D00036D195F83800000732D530203B2687F80F
:1007E0003B002DE0E31748465146224600F0F0FB5F
:1007F000A4FB0023A9EB02023032D2B2A6F1010B16
:100800003A2A5E4603DB9DF80030513B9A180BF8FC
:10081000072081465FEA010A08BFB9F1000F03D043
:10082000E868F1198842DDD3082C09D195F8380021
:10083000000705D5F05D302802D0761E3020F05537
:10084000C6F13C00A861F119E960296B884208DA19
:10085000081A28624FF6EF71288F08402887BDE8F4
:10086000F38E00290ED595F8381001F014011029E7
:1008700008D1696B6A69891A2A6A891A0E1A012EC7
:10088000A8BF2E62BDE8F38E2DE9F24F04468EB06C
:10089000D4E90001CDE9020104AF9DF8380040F031
:1008A000200BBBF1610F0AD0206B002848BF062047
:1008B00004D408BFBBF1670F01D101202063616838
:1008C000C1F30A5040F2FF7290421CD1080304BFEA
:1008D0002068002809D10320A0619DF83800613804
:1008E0001A2836D30FF2306108E00320A0619DF88A
:1008F000380061381A2829D30FF21461E068032206
:1009000000F0DEFBBEE1012816DA204600F013FC01
:10091000012811DB00250020BBF1610F20D1E16827
:10092000302201F8012B4A1CE2609DF83820612A30
:100930000CBF782258220FE0626840F2FE3161F36A
:100940001E52451A62604FF0FF30E5E70FF2BC51CE
:10095000D4E70FF2C051D1E70A706169891C616167
:1009600010B90026002584E1BBF1610F40F09780AB
:10097000206B00284CBF2126461CD4E900ABDDE9E2
:1009800002010022002300F0F7FB36B23ABF8BF0E1
:100990000040CDE902A0CDE902AB06F101082D1F10
:1009A0008DF810200DF1110700E0C71DB8F1010FFF
:1009B00033DBDDE902010022002300F0F5FB2CD23D
:1009C0001C2102A800F008FCDDE9020100F08EFC09
:1009D000A8F10708B8F1010F814609DB00F0B2FC6D
:1009E00002460B46DDE9020100F0C4FCCDE902013C
:1009F000F81D072105E009F00F0200F8012D4FEA6C
:100A00002919B9F1010F01DB491EF4D5491E5CBF5C
:100A1000002200F8012DF9D5C7E70DF11100391AB0
:100A2000B142B8BF0E4636B230000DF111072FD4D7
:100A3000884206DA04A9411849780829A8BF0F217D
:100A400000DA002104AA821800E0761E12F80139AB
:100A5000401E8B42F9D00F2904D104A941184A78CD
:100A6000521C4A70002802D504AF761C2D1D36B2E8
:100A7000701E0DD4C1190A783032D2B23A2A03DB83
:100A80009DF838303A3B9A18401E01F80129F2D5FA
:100A9000206B002840F1ED80701E2063E9E0DDE965
:100AA00002010022002300F067FB3CBF81F00041FF
:100AB000CDE902012DB247F2975068434B49DFF868
:100AC000309190FBF1F52DB2C5F1070ABAF1010F93
:100AD00090461CDBDDE902675FEACA7007D5424633
:100AE0004B463046394600F005FD06460F46404667
:100AF000494642464B464FEA6A0A00F0FBFCBAF10F
:100B0000000F80468946E7D1CDE9026724E0CAF1AB
:100B1000000A0026374F14E05FEACA7007D5424644
:100B20004B463046394600F0E5FC06460F46404647
:100B3000494642464B4600F0DDFC4FEA6A0A8046D1
:100B40008946BAF1000FE7D1DDE9020132463B46A2
:100B500000F0A2FDCDE90201BBF1660F0CBF05F16B
:100B60000A000620216BDFF890904618142EA8BFCB
:100B7000132630208DF810000DF11107012E3DDBFA
:100B8000DDE9020100F0C8FB07F1080104220A2395
:100B9000B0FBF3F303EB8307A0EB4700303001F821
:100BA000010C0A20B3FBF0F000EB8007A3EB470336
:100BB0003033521E01F8023DE9D1083E012E01F109
:100BC0000807DBDBDDE9020100F0A6FB00F0C4FB57
:100BD00002460B46DDE9020100F0CCFB00224B4649
:100BE00000F088FCCDE90201CAE700BFA086010041
:100BF000000024400000F03F84D797410DF1110020
:100C0000381A0DF1110702E0401E6D1E7F1C397865
:100C10003029F9D0BBF1660F02D12DB2691C04E076
:100C2000BBF1650F0CBF01210021226B8E1836B27B
:100C3000B042B8BF064636B231001AD4814204DA57
:100C4000C85D3528A8BF392000DA3020CA19521EE5
:100C500000E0761E12F80139491E8342F9D0392886
:100C600002D1C85D401CC855002902D57F1E761CE4
:100C70006D1C2DB29DF83810009533B23A462046CF
:100C800000F003F80FB0BDE8F08F2DE9F04786B013
:100C900006468A4690461D4600F047FE012D406AF2
:100CA000376B90F8009002DA01250FF270284AF0B5
:100CB0002000BDF93840662808BF641C12D06728A0
:100CC00076D114F1040F79DBBC4277DA96F838005C
:100CD000641C000702D4BD42B8BF2F4624B23F1B9C
:100CE00048BF002724B2F068B169012C21DA4A1C00
:100CF00030230B54012F03DA96F83810090702D578
:100D000002F80090521CB261E742B8BF7C4224B2A4
:100D10006142E7197162AF42B8BF3D46B3692DB277
:100D2000F5612A464146181800F0CAF9781BB062EE
:100D3000BAE00818A54216DA2A46414600F0C0F982
:100D4000B1696918601B012FB161706203DA96F80E
:100D50003800000705D5F06801F80090F069401CE4
:100D6000F061B762A0E02246414600F0A9F9B069FF
:100D700020182D1B012F03DA96F83810090703D528
:100D8000F16800F80190401C2DB2B061AF42B8BFCD
:100D90003D46F068B3692DB22A4604EB08011818E5
:100DA00000F08EF9B0692818B061781B70627BE0A2
:100DB000BAF1610F14D14FF0700A16E0BD4204DAA7
:100DC00096F83810090758BF2F467F1E48BF0027E6
:100DD000BAF1670F14BF4FF0450A4FF0650A04E0FF
:100DE000BAF1410F08BF4FF0500AB169F0684A1CD0
:100DF000B261012F18F8013B0B5403DA96F8381052
:100E0000090715D5531CB36102F80090012F0FDBC1
:100E10006D1E2DB2AF42B8BF3D462DB22A464146A7
:100E2000181800F04DF9B0692818B061781B70628D
:100E3000F068B1690918200081F800A004D42B20C3
:100E4000487001F1020804E02D224A7001F1020805
:100E50006442002502AF08E00A22684600F07EFDE9
:100E6000019807F8010B6D1C009C21B20129F3DAEF
:100E7000022D06DA4AF02000652804BF302008F869
:100E8000010B4DB9302008F8010B07E06D1E02A8D8
:100E9000285C303008F8010B012DF7DAF068B169F1
:100EA0000818A8EB0000F06196F8380000F0140074
:100EB00010280DD17069B1690818716A0818F169B4
:100EC0000818B16A0818716B8842BCBF081A3062F2
:100ED00006B0BDE8F087F8B504460D4616461F4635
:100EE000002004E0E86A401CE8627F1E002047B151
:100EF00016F8011BA868A0470028A860F2D14FF09F
:100F0000FF30F2BD686A6C747A4C00006E616E004E
:100F10004E414E00696E6600494E46003000026840
:100F2000531C0360117070470278C9B28A421AB12B
:100F30001CBF10F8012FF9E718BF002070472000F0
:100F400000F10103810704D010F8011B89B181076A
:100F5000FAD10268B2F10131914311F0803F04BF30
:100F600050F8042FF6E710F8011B11B110F8011B1F
:100F7000FBE7C01A70470000C9B2830706D0521EB3
:100F800022D310F8013B9942F7D11FE0083A13D35E
:100F900002F1040241EA012141EA014150F8043B17
:100FA000121F21BF4B40A3F1013C2CEA030C1CF0A3
:100FB000803FF3D0C9B2001F083210F8013B521E27
:100FC00028BF91EA030FF8D818BF0120401E7047D0
:100FD0001B4213D1094236D12AB18446B0FBF2F04C
:100FE00002FB10C2704700F0C1BCFCD300220023FA
:100FF00070470B000200002100207047904271EB07
:10100000030CF6D370B5B1FA81F4B3FA83F52C1B57
:10101000A340C4F1200532FA05F63343A2405FF045
:101020000046E64002E05B085FEA3202841A71EB98
:10103000030524BF204629467641F4D302000B0065
:101040003000002170BD012ACFD970B5140C20D01A
:10105000B1FA81F4B2FA82F5C4F120046419B4F152
:101060002006D6D3B2405FF00044F440002502E0F1
:1010700052085FEA3303C61A71EB020E24BF3046F2
:10108000714664416D41F3D302000B00200029003A
:1010900070BD0C46B1FBF2F102FB11452D0445EA8F
:1010A0001045B5FBF2F402FB145580B240EA054549
:1010B000B5FBF2F002FB105240EA044070BD0000A4
:1010C00062B38B0708D0521E11F8013B00F8013BB8
:1010D00000F024808B07F6D1830740F0208000BF0A
:1010E000103A07D330B4B1E83810103AA0E83810FD
:1010F000F9D230BC530724BFB1E80810A0E80810AB
:1011000044BF51F8043B40F8043BD20724BF31F8F8
:10111000022B20F8022B44BF0B7803707047083A6B
:1011200007D3B1E80810083A40F8043B40F804CB74
:10113000F7D25307E4E730B4436803F000420121DB
:101140001B031B0B436004BF0368002B08D10DE099
:101150000368DD0F45EA440444605B000360491EF8
:101160004468E302F4D523031B0B436043681A432E
:101170004260084630BC70474FF4001C1CEB410F26
:1011800094BF1CEB430F09E041EA030C50EA4C0CFE
:1011900052EA0C0C03D2994208BF9042704714BF28
:1011A0008B428242704700004FF4001C1CEB410F41
:1011B00094BF1CEB430F09E041EA030C50EA4C0CCE
:1011C00052EA0C0C03D28B4208BF8242704714BF14
:1011D000994290427047000070B504460D46606821
:1011E000C0F30A5040F2FF71884207D160680003E3
:1011F00004BF2068002817D0022070BD20B9204607
:10120000FFF799FF012866DA012D0FDB40F2FF712D
:10121000091A8D420AD3606800284CBF9FED2F0B3E
:101220009FED300B84ED000B012070BD4142A942BF
:10123000616806DA6FF31E51401941EA00506060A0
:1012400040E0401E63684519012205F1350062F354
:101250001F53352801F00041636003D36160002013
:10126000206070BD002015F11F0F04DA2068236094
:101270000022203562606A4212D0401E25688041FB
:10128000C2F12003C0439D4045EAD07025686668DE
:10129000D54006FA03F32B4323606368D3406360B1
:1012A00062680A43B0F1004F626003D80DD1207824
:1012B000C0070AD52068401C2060206828B96068F3
:1012C000401C60604FF0FF3070BD6068884204BF12
:1012D00020680028F6D1002070BD00BF000000008B
:1012E0000000F0FF000000000000F07FF446400D19
:1012F00040EAC120490006D200F014F8004248BF7D
:101300006FF00040604700F00DF84FF00041884258
:101310008CBF084640426047400D40EAC12049006A
:1013200080F00D8040F00040490DA1F58061491C1E
:1013300005D4D1F11F0154BFC840C01770474FF00A
:1013400000007047010040F10980F446404200F07F
:1013500005F851F000416047010000BF09D0B0FA24
:1013600080F18840C91CC1F58461090501EBD021D9
:1013700040057047F0B44FF0004591EA030F44BFB9
:101380006B4000F0F5BA00BF841A71EB030604D27B
:101390006E40001BB141121973414FF4001C1CEB4D
:1013A000410F34BF7CEB430684E00C0DA4EB1356D5
:1013B000362E7DDC012E43DC45EAC32343EA52533B
:1013C00012BFD20292025B08240545EAC12141EA1C
:1013D0005051D2EBC020994125D407D1B0FA80F604
:1013E00010FA06F164D00020203608E0B1FA81F648
:1013F000B140C6F1200220FA02F21143B0404FEA98
:10140000F474B4EB465434F001064FEA74040AD87D
:10141000D6F50016760D04F00044F04061FA06F2AD
:101420005040F1404840C00A40EA415021F000419C
:1014300028BF5FEA500550F1000044EBD12137E0AE
:1014400045EAC323DB0A45EAC121C90AB6F12005F2
:101450000EDD42EA0242120CC5F1200603FA06F63E
:10146000EB4042EA06056D42984161F100010DE052
:1014700062FA06F5F240554063FA06FC82EA0C0275
:10148000F3405A406D42904161EB030111F4801F1B
:1014900005D1641E620502D06D004041494121F42E
:1014A0008011430875F1004350F1000041EB0451F5
:1014B000F0BC70471CEB410F15D223F0004352EAF9
:1014C00043060BD04FEA4C0CBCEB410F04D80C0D7B
:1014D000661E342EB7DDEBE7801A994150EA4106CB
:1014E00008BF0021E4E708BF1CEB430F28BF6FF0E3
:1014F0000001DDE7B0B581EA030C0CF0004C40F2CE
:10150000FF7515EA11541DBF15EA1357AC42AF42DF
:1015100039E0E41923EA455343F48013C90241F04A
:10152000004141EA505EC7021100A7FB02020028F9
:101530004FF00000EEFB01204FF00001E3FB07211C
:1015400018BF42F00102401800214941E3FB0E019F
:10155000A4F580640F0302D252004041494154F186
:1015600001046CDD470872F1004250F1000051EBBC
:101570000451A1F580115CBF41EA0C01B0BD4CEAF9
:1015800005510020B0BD05EA1357AC4214BFAF426D
:1015900041E050EA410E1CBF52EA430E02E06146B0
:1015A0000020B0BD24423C441BD15FEA070EF6D0B8
:1015B000090302BF01460020AEF1140EB1FA81F713
:1015C000AEEB070401FA07FE0C37C7F1200100FA61
:1015D00007F7C8404EEA000E23EA455343F4801350
:1015E000A2E733F00043B3FA83F704BFB2FA82FEF6
:1015F00077440B3FE41BB7F1200E2FBF02FA0EF326
:10160000BB40C7F1200E22FA0EFE38BF43EA0E039C
:10161000BA40641C82E750EA410E14BF52EA430EFE
:101620006FF000014FF4001717EB430F8ABF194604
:1016300017EB410FB5E74CEA05510020B0BDD4F1DE
:101640000104B4F120070FDAC4F12007520828BFC3
:1016500042F0010210FA07F501FA07F7E1BF2A4349
:10166000E0403843E1400FE0352C98DCC7F120041E
:1016700052EA400220FA07F218BF42F0010231FAA2
:1016800007F0A1400A43002172F1004250F100002E
:1016900051EB0C01B0BD00002DE9F04140F2FF75A7
:1016A00081EA030C0CF0004C15EA11541DBF15EA39
:1016B0001357AC42AF42E9E0BC41C1F31301C3F39D
:1016C0001303801A994143F4801304D2641E40002E
:1016D000494180185941C90241EA5051B1FBF3F622
:1016E00003FB1611A2FB0675D7EBC020A94102D25D
:1016F000761E80185941C90241EA5051B1FBF3FEF0
:1017000003FB1E11A2FB0E75D7EBC020A94103D22B
:10171000AEF1010E80185941890241EA90517605D7
:1017200046EA8E2EB1FBF3F603FB1611A2FB0675FB
:10173000D7EB8020A94102D2761E80185941C902F8
:1017400041EA50514EEA060EB1FBF3F603FB1611C7
:10175000A2FB0675D7EBC020A94102D2761E8018E5
:101760005941C90241EA5051B1FBF3F703FB17118C
:10177000A2FB0735D3EBC020A94167F100070CBFDE
:10178000004247F0010766F3D5274FEA1E31B8083B
:1017900014F5806414DDBD0775F1004250EB0E5066
:1017A00051EB045111F5801F5CBF41EA0C01BDE80B
:1017B000F0814CF07F6141F0E0410020BDE8F08114
:1017C000BD076D0840EA0E5041F48011D4F10104C8
:1017D000B4F120060ADAC4F120060200E04001FA62
:1017E00006F3E1401843B24015430EE0342C14DCFC
:1017F000C6F1200445EA40056D0820FA06F21543BB
:1018000021FA06F0A1400D43002175F1004250F18C
:10181000000051EB0C01BDE8F08100205FEA0C01F3
:10182000BDE8F081CFB992185B41B3FA83F704BFEA
:10183000B2FA82F6BF190B3FB7F120062FBF02FAAA
:1018400006F3BB40C7F1200622FA06F638BF334341
:10185000BA401CB1E419641E2FE77F4231F0004109
:10186000B1FA81F404BFB0FA80F6A4190B3CB4F1CC
:1018700020062FBF00FA06F1A140C4F1200620FA8D
:1018800006F638BF3143A0403C1B16E7AC421ABFF6
:1018900005EA1357AF4214E050EA41061CBF52EA72
:1018A0004306BFE750EA4107304661461CBF41EAA4
:1018B0000551BDE8F08152EA430C08BFC143BDE8C1
:1018C000F08100204FF4001616EB410F98BF16EB85
:1018D000430F08BF16EB410F24BFC14305E016EBD1
:1018E000430F0CBF61464CEA0551BDE8F081000092
:1018F00080B5134800F0A6F80FF24C020FF2440135
:101900000160426241600FF24402826381600FF223
:101910004402C1600161416181618162C162016310
:101920004163C2630164416401BD10B5044800F025
:1019300089F80446206808B9FFF7DAFF204610BD91
:1019400000000020000000002E00000066616C73A3
:1019500065000000747275650000000091FBF2F3F1
:1019600003FB1211C0E9003170470000704700000E
:10197000841A71EB030603D2001BB14112197341A3
:101980004FF4001C1CEB410F34BF7CEB430443E0DD
:101990000C0DA4EB1356352E50DC45EAC323DB0AAD
:1019A00045EAC121C912B6F120050DDD63FA05F63D
:1019B000EB4086EA0305124218BF45F00105C01846
:1019C00051F100010CD213E062FA06F5F2405540E5
:1019D000F3415A40B340F3405A408018594107D36D
:1019E00049085FEA30005FEA350528BF45F0010588
:1019F00001F58011420875F1004250F1000041EB01
:101A00000451F0BC4FF4001C1CEB410F38BF704771
:101A10000020090D090570471CEB410F10D252EA56
:101A200043060BD0BCEB410F05D80C0DAB43661E33
:101A3000342EB5DD02E0AB4380185941F0BC70474D
:101A4000F0BC70477047000010B50400002C01D1B5
:101A5000012037E0A0690028FFD194F86900002830
:101A600005D1002084F86800200000F03DFE24200D
:101A700084F8690020680068400840002168086018
:101A8000200000F06CFA012801D101201AE0606A00
:101A9000002802D0200000F09DFC2068406830F44F
:101AA0009040216848602068806830F02A002168F2
:101AB00088602068006850F00100216808602000FC
:101AC00000F0F5FC10BD10B50400002C01D1012080
:101AD00020E0242084F86900206800684008400065
:101AE00021680860002021680860002021684860A3
:101AF000002021688860200000F05CFE0020E06685
:101B0000002084F86900002084F86A00002084F82E
:101B10006800002010BD2DE9F84304000D001600F8
:101B20001F005FF0000994F86900202857D1002DAC
:101B300002D0B6B2002E01D1012051E094F8680025
:101B4000012801D102204BE0012084F86800002028
:101B5000E066212084F8690000F07AFE8146A4F84E
:101B60005060A4F85260B4F85200002824D0B4F8B1
:101B70005200401EA4F8520000974B4600228021DC
:101B8000200000F0CBFC002801D0032028E0A06852
:101B9000B0F5805F0BD12069002808D1A846B8F8BD
:101BA0000000C005C00D21680885AD1CDBE7287862
:101BB000216808856D1CD6E700974B46002240211E
:101BC000200000F0ABFC002801D0032008E020201A
:101BD00084F86900002084F86800002000E00220FA
:101BE000BDE8F2832DE9F04782B004000D00160035
:101BF0001F005FF0000A94F86A0020287DD1002DB4
:101C000002D0B6B2002E01D1012077E094F868002E
:101C1000012801D1022071E0012084F86800002031
:101C2000E066222084F86A0000F012FE8246A4F8E2
:101C30005860A4F85A60A068B0F5805F0BD12069A5
:101C4000002804D140F2FF10A4F85C001FE0FF2040
:101C5000A4F85C001BE0A06800280AD120690028D5
:101C600003D1FF20A4F85C0011E07F20A4F85C0001
:101C70000DE0A068B0F1805F09D12069002803D190
:101C80007F20A4F85C0002E03F20A4F85C00B4F8D8
:101C90005C008146B4F85A00002826D0B4F85A00F7
:101CA000401EA4F85A00009753460022202120002D
:101CB00000F034FC002801D003201FE0A068B0F53C
:101CC000805F0BD12069002808D1A8462068808C4D
:101CD00019EA0000A8F80000AD1CDBE72068808C42
:101CE00019EA000028706D1CD4E7202084F86A00EF
:101CF000002084F86800002000E00220BDE8F6879C
:101D000010B4030093F86A0020285CD1002902D0A7
:101D100092B2002A01D1012056E093F86800012810
:101D200001D1022050E0012083F868005965A3F832
:101D30005820A3F85A209868B0F5805F0BD1186935
:101D4000002804D140F2FF10A3F85C001FE0FF2040
:101D5000A3F85C001BE0986800280AD118690028E5
:101D600003D1FF20A3F85C0011E07F20A3F85C0002
:101D70000DE09868B0F1805F09D11869002803D19F
:101D80007F20A3F85C0002E03F20A3F85C00002065
:101D9000D866222083F86A00002083F8680018685B
:101DA000006850F480701C6820601868806850F0EB
:101DB00001001C68A0601868006850F020001C68D2
:101DC0002060002000E0022010BC70472DE9F041A7
:101DD00004002068C5692068066815F00F00804679
:101DE000B8F1000F12D1A80605D5B00603D5200022
:101DF00000F031FCB0E0E80608D5F00606D510206A
:101E000021680862200000F0A9F8A5E02068806839
:101E10000700B8F1000F7AD040F20110074276D0E7
:101E200015F00100C0B2002808D0F00506D5012049
:101E300021680862E06E50F00100E066A8070BD54B
:101E400017F00100C0B2002806D002202168086205
:101E5000E06E50F00400E06668070BD517F0010053
:101E6000C0B2002806D0042021680862E06E50F05D
:101E70000200E06628070DD5B00604D417F0010073
:101E8000C0B2002806D0082021680862E06E50F039
:101E90000800E066E06E002838D0A80604D5B00639
:101EA00002D5200000F0D7FBE06E000703D42068C5
:101EB0008068400625D5200000F068FB2068806817
:101EC00040061AD52068806830F04000216888609C
:101ED000606E00280DD00FF2D560616E8863606E71
:101EE00000F050FD002811D0606E616E896B88474C
:101EF0000CE0200000F0BBFD08E0200000F0B7FD82
:101F000004E0200000F0B3FD0020E06624E020683B
:101F100080680700E8020FD578020DD55FF48010C5
:101F200021680862202084F86900202084F86A0073
:101F3000200000F0D1FD0FE0280605D5300603D5BE
:101F4000200000F040FB07E0680605D5700603D5C9
:101F5000200000F070FBFFE7BDE8F08170472DE93D
:101F6000F84304000027102500265FF000095FF009
:101F700000082068DFF834148842FFD0A068216987
:101F8000084361690843E169084307002068006865
:101F9000DFF81C1408403843216808602068406856
:101FA00030F44050E168084321684860A0690700A8
:101FB0002068DFF8F813884201D0206A07432068C0
:101FC000806830F430603843216888602068DFF82A
:101FD000E41388421BD1DFF8E003006810F003002F
:101FE000002805D0022806D008D3032809D00BE02A
:101FF00001200500B4E002200500B1E00420050046
:10200000AEE008200500ABE010200500A8E0206845
:10201000DFF8A81388421CD1DFF89C03006810F099
:102020000C00002806D004280AD0082805D00C2867
:1020300009D00BE00020050092E0022005008FE0AF
:10204000042005008CE00820050089E01020050030
:1020500086E02068DFF8681388421CD1DFF8580357
:10206000006810F03000002806D010280AD0202880
:1020700005D0302809D00BE00020050070E00220D8
:1020800005006DE0042005006AE00820050067E017
:102090001020050064E02068CA4988421BD1C64868
:1020A000006810F0C000002806D040280AD0802820
:1020B00005D0C02809D00BE00020050050E0022028
:1020C00005004DE0042005004AE00820050047E037
:1020D0001020050044E02068BB4988421ED1B64864
:1020E000006810F44070002809D0B0F5807F0CD053
:1020F000B0F5007F06D0B0F5407F09D00BE000209E
:1021000005002DE0022005002AE00420050027E05C
:102110000820050024E01020050021E02068A349E4
:1021200088421DD1A448006810F44060002809D0FE
:10213000B0F5806F0CD0B0F5006F06D0B0F5406FF1
:1021400009D00BE0002005000AE00220050007E0AE
:102150000420050004E00820050001E0102005002F
:102160002068924988427DD100200700EDB2280006
:10217000002806D0022808D0042809D008280BD04F
:102180000EE001F073F907000CE09048070009E049
:1021900001F0BBF8070005E04FF40040070001E044
:1021A00001208046002F00F0FC8060680321484336
:1021B000874205D360684FF480514843B84202D249
:1021C00001208046EDE0EDB22800002806D002286C
:1021D00014D004281FD008282DD035E001F046F98E
:1021E00002004FF48073606840080021E3FB0201A5
:1021F00062680023FEF7ECFE070027E060684208F3
:102200000023734800211018594162680023FEF72B
:10221000DFFE07001AE001F078F802004FF4807347
:10222000606840080021E3FB020162680023FEF7BA
:10223000CFFE07000AE06068400810F50000616802
:10224000B0FBF1F0070001E001208046B7F5407FC8
:1022500005D3B7F5801F02D22068C760A1E0012036
:1022600080469EE0E069B0F5004F4FD1EDB2280006
:10227000002808D0012811D002281AD0042823D021
:1022800008282CD034E001F0F1F86168490811EB1E
:1022900040006168B0FBF1F081462BE001F0F6F8F8
:1022A0006168490811EB40006168B0FBF1F08146BC
:1022B00020E06068400800F1F47010F5904061681B
:1022C000B0FBF1F0814615E001F01FF861684908A4
:1022D00011EB40006168B0FBF1F081460AE06068F4
:1022E000400810F580306168B0FBF1F0814601E0F4
:1022F000012080464FF6F07010EA09000600C9F38D
:1023000042000643B6B22068C6604AE0EDB228003B
:10231000002808D0012812D002281CD0042827D079
:10232000082831D03BE001F0A1F8616810EB5100C2
:102330006168B0FBF1F080B22168C86031E001F063
:10234000A5F8616810EB51006168B0FBF1F080B254
:102350002168C86025E06068400800F5740010F549
:1023600010506168B0FBF1F080B22168C86018E0DD
:1023700000F0CBFF616810EB51006168B0FBF1F039
:1023800080B22168C8600CE06068400810F5004029
:102390006168B0FBF1F080B22168C86001E0012003
:1023A00080464046C0B2BDE8F28300000080004095
:1023B000F369FFEF003801408810024000440040FC
:1023C00000480040004C0040005000400024F40051
:1023D000000024F490F82410C90707D50168496863
:1023E00031F40031826A11430268516090F8241080
:1023F000890707D50168496831F48031C26A114301
:102400000268516090F82410490707D501684968AF
:1024100031F48021026B11430268516090F824105E
:10242000090707D50168496831F40041426B11433F
:102430000268516090F82410C90607D501688968C0
:1024400031F48051826B11430268916090F824103E
:10245000890607D50168896831F40051C26B1143C0
:102460000268916090F82410490613D50168496804
:1024700031F48011026C114302685160016CB1F5B6
:10248000801F07D10168496831F4C001426C1143D3
:102490000268516090F82410090607D50168496860
:1024A00031F40021826C114302685160704738B5E5
:1024B000040000250020E06600F0CAF9050020684D
:1024C000006800070DD57FF07E4000902B000022B1
:1024D0005FF40011200000F021F8002801D0032053
:1024E0001BE02068006840070DD57FF07E4000901B
:1024F0002B0000225FF48001200000F00FF800287C
:1025000001D0032009E0202084F86900202084F80D
:102510006A00002084F86800002032BD2DE9F041F7
:1025200004000D0016001F00DDF818802068C06947
:102530002840A84201D1012000E00020F6B2B042BC
:1025400021D118F1010FF1D0B8F1000F04D000F043
:102550007FF9C01B8045E9D22068006830F4D07054
:102560002168086020688068400840002168886011
:10257000202084F86900202084F86A00002084F874
:102580006800032000E00020BDE8F081202180F8F1
:102590006A100168096831F490710268116001687D
:1025A00089684908490002689160704738B504009D
:1025B000A56A0020A5F85A000020A5F852002800BE
:1025C00000F055FA31BD010091F86900212830D1A1
:1025D000B1F8520000280DD10868006830F0800082
:1025E0000B6818600868006850F040000B681860BD
:1025F00000201FE08868B0F5805F0DD108690028D1
:102600000AD1C86C02001088C005C00D0B6818857F
:10261000C86C801CC86405E0C86C431CCB6400789F
:102620000B681885B1F85200401EA1F85200002036
:1026300000E00220704710B504002068006830F008
:10264000400021680860202084F86900200000F024
:102650000DFA002010BDF8B50400B4F85C6094F8E1
:102660006A00222837D12068808C0700A068B0F566
:10267000805F0BD12069002808D1606D050016EA43
:1026800007002880606D801C606505E0606D411C5E
:10269000616516EA07010170B4F85A00401EA4F8FB
:1026A0005A00B4F85A00002813D12068006830F4AA
:1026B00090702168086020688068400840002168A8
:1026C0008860202084F86A00200000F0CEF9002005
:1026D00008E0002006E02068008B50F00800216828
:1026E00008830220F2BD000010B586B00400444803
:1026F00084425DD14048006850F001003E490860C6
:102700003D48006810F00100009000983A480068C9
:1027100050F00100384908603748006810F00100A7
:10272000009000983548006850F4804033490860B4
:102730003248006810F48040009000982F480068EC
:1027400050F001002D4908602C48006810F001008D
:10275000009000984FF40070019002200290002039
:102760000390072005900320049001A95FF090409A
:1027700000F00CFF4FF4806001900720059001A944
:102780005FF0904000F002FF4FF480500190012074
:1027900003900720059001A95FF0904000F0F6FE3D
:1027A00000220321252001F027F9252001F037F927
:1027B00006B010BD10B50400114884421AD111486A
:1027C000006850F480400F4908600E48006830F4FB
:1027D00080400C4908604FF400715FF0904000F0B9
:1027E000CEFF4FF480615FF0904000F0C8FF2520DD
:1027F00001F01CF910BD00004C10024060100240B6
:10280000E01800204010024080B5032001F0EEF8EF
:102810000F2000F005F800F002F8002002BD70471C
:1028200010B50400124800684FF47A71B0FBF1F063
:1028300001F003F9002221005FF0FF3001F0DCF825
:10284000002010BD0B480068401C0A490860704712
:1028500008480068704738B504000025FFF7F8FF06
:102860000500FFF7F5FF401BA042FAD331BD000081
:102870006C0100209C1B002010B4010000220029E4
:1028800001D101206DE08868B0F5804F0868364BB3
:1028900098420AD20868354B18181423B0FBF3F09D
:1028A000800048643248086409E00868314B181811
:1028B0001423B0FBF3F0800048642F480864022022
:1028C00081F825000868006802006FF30D1288681F
:1028D000CB6818430B6918434B6918438B6918433D
:1028E000CB6918430B6A1843024308680260886882
:1028F000B0F5804F24D0086C1D4B984210D11F4872
:1029000000680F234C6CA34098431C4B18601B4875
:1029100000684B684C6CA3401843184B18600FE0DC
:10292000174800680F234C6CA3409843144B186061
:10293000134800684B684C6CA3401843104B186058
:102940000020C862002008630020486300208863DC
:102950000020C863012081F82500002081F82400B0
:10296000002010BC7047000008040240F8FFFDBFC3
:1029700000000240F8FBFDBF00040240A800024036
:10298000A804024038B50400002594F82500022868
:1029900004D00420E063012005001FE020680068E7
:1029A00030F00E0021680860206800684008400090
:1029B00021680860206C40680121626C91400843E6
:1029C000216C4860012084F82500002084F8240050
:1029D000A06B002802D02000A16B88472800C0B25D
:1029E00032BD00000068400C10F001007047006824
:1029F000400D10F001007047416851F40031416012
:102A00007047416851F4001141607047704780B5CC
:102A1000002001F02BF8FBE780B5002001F026F83C
:102A2000FBE780B5002001F021F8FBE780B500202E
:102A300001F01CF8FBE780B5002001F017F801BD9C
:102A400080B5002001F012F801BD704780B51D4827
:102A500001F020F801BD80B51B4801F01BF801BD55
:102A600080B5FFF7EFFE01BD70477047704710B5A6
:102A70000400200001F09AFB10BD80B51348FFF759
:102A8000A5F901BD80B512480068FFF79FF901BDA7
:102A900080B51048FFF7ABFF012804D10D48FFF7C0
:102AA000B0FF01F002FA01BD80B50A48FFF79AFFB6
:102AB000012804D10748FFF79FFF01F028FA01BD64
:102AC00000000000C41A0020001B0020E0180020B5
:102AD000A01B0020000002407047000070B582B0CB
:102AE000040000252078C00640F1D380DFF8C0093B
:102AF000006810F00C0F7DD1DFF8B0090068800786
:102B000004D5A069002801D101200AE3DFF89C095F
:102B10000068000705D5DFF89409006810F0F000A0
:102B200005E0DFF8380A0068000910F0F000216ABB
:102B3000884224D2206A00F0BFFC002801D0012086
:102B4000EFE2DFF86809006850F00800DFF85C1970
:102B50000860DFF85809006830F0F000216A084387
:102B6000DFF848190860DFF8F809006830F47F40A2
:102B7000E16950EA0120DFF8E819086023E0DFF896
:102B80002C09006850F00800DFF820190860DFF811
:102B90001C09006830F0F000216A0843DFF80C19C6
:102BA0000860DFF8BC09006830F47F40E16950EA52
:102BB0000120DFF8AC190860206A00F07DFC0028D5
:102BC00001D00120ADE200F0A0FBDFF8E4180968B5
:102BD0005FF07062B2FA82F2DFF8883911F0F0012A
:102BE000D140C95CC840DFF8701908600F20FFF7BA
:102BF00017FE4EE0A069002834D0DFF8B008006866
:102C000050F00100DFF8A4180860FFF721FE05006E
:102C1000DFF898080068800706D4FFF719FE401B0C
:102C20000328F5D303207CE2DFF88008006850F029
:102C30000800DFF878180860DFF87008006830F0E6
:102C4000F000216A0843DFF864180860DFF8100913
:102C5000006830F47F40E16950EA0120DFF8001994
:102C6000086016E0DFF84408006840084000DFF81C
:102C70003C180860FFF7ECFD0500DFF8300800683D
:102C8000800706D5FFF7E4FD401B0328F5D303209A
:102C900047E22078C00771D5DFF81408006810F00B
:102CA0000C0008280DD0DFF80808006810F00C00B0
:102CB0000C2810D1DFF8FC07006810F0030003288F
:102CC00009D1DFF8E8070068800357D5606800285D
:102CD00054D1012025E26068B0F5803F08D1DFF8CB
:102CE000CC07006850F48030DFF8C017086024E09B
:102CF0006068B0F5A02F10D1DFF8B007006850F47D
:102D00008020DFF8A8170860DFF8A007006850F4FB
:102D10008030DFF8981708600FE0DFF89007006850
:102D200030F48030DFF884170860DFF8800700682F
:102D300030F48020DFF874170860606800280ED037
:102D4000FFF786FD0500DFF864070068800315D4EF
:102D5000FFF77EFD401B6528F5D30320E1E1FFF777
:102D600077FD0500DFF844070068800306D5FFF70C
:102D70006FFD401B6528F5D30320D2E12078800742
:102D80006FD5DFF82C07006810F00C0004280DD078
:102D9000DFF81C07006810F00C000C2820D1DFF8C9
:102DA0001407006810F00300022819D1DFF8FC06B0
:102DB0000068400504D5E068002801D10120B0E199
:102DC000DFF89C070068F821B1FA81F130F0F85083
:102DD000226912FA01F10843DFF88417086040E025
:102DE000E068002826D0DFF8C406006850F4807040
:102DF000DFF8B8160860FFF72BFD0500DFF8AC061A
:102E00000068400506D4FFF723FD401B0328F5D3D7
:102E1000032086E1DFF848070068F821B1FA81F164
:102E200030F0F850226912FA01F10843DFF8301748
:102E3000086016E0DFF87406006830F48070DFF890
:102E40006C160860FFF704FD0500DFF860060068F7
:102E5000400506D5FFF7FCFC401B0328F5D30320F3
:102E60005FE12078000730D56069002816D0DFF8D0
:102E7000EC06006850F00100DFF8E0160860FFF78C
:102E8000E7FC0500DFF8D406006880071DD4FFF7D3
:102E9000DFFC401B0328F5D3032042E1DFF8BC062A
:102EA000006840084000DFF8B4160860FFF7D0FC67
:102EB0000500DFF8A8060068800706D5FFF7C8FC04
:102EC000401B0328F5D303202BE12078400740F175
:102ED00093800026DFF890060068C00010D4DFF869
:102EE0008806006850F08050DFF87C160860DFF834
:102EF0007806006810F080500090009801200600CD
:102F0000DFF868060068C00516D4DFF860060068C0
:102F100050F48070DFF854160860FFF799FC050044
:102F2000DFF848060068C00506D4FFF791FC401B97
:102F30000328F5D30320F4E0A068012808D1DFF8C6
:102F40003006006850F00100DFF82416086023E026
:102F5000A068052810D1DFF81806006850F00400BA
:102F6000DFF80C160860DFF80806006850F0010072
:102F7000DFF8FC1508600FE0DFF8F4050068400892
:102F80004000DFF8EC150860DFF8E405006830F079
:102F90000400DFF8DC150860A068002810D0FFF7F7
:102FA00057FC0500DFF8C8050068800719D4FFF753
:102FB0004FFC401B41F289318842F3D30320B0E03B
:102FC000FFF746FC0500DFF8A8050068800708D574
:102FD000FFF73EFC401B41F289318842F3D30320C6
:102FE0009FE0F6B2012E07D1DFF87C05006830F0D3
:102FF0008050DFF874150860A06A002800F0908007
:10300000DFF8AC04006810F00C000C2800F086809B
:10301000A06A022850D1DFF89404006830F0807074
:10302000DFF888140860FFF713FC0500DFF87C0464
:103030000068800106D5FFF70BFC401B0328F5D381
:1030400003206EE0206B401E616B090251EA001004
:10305000A16B090950EA4140E16A0843E16B891E0E
:103060000905490D49050843216C891E090611F01F
:103070007E410843DFF83C140860DFF83004006844
:1030800050F08070DFF824140860DFF8280400682E
:1030900050F08070DFF81C140860FFF7D9FB0500C2
:1030A000DFF80804006880013AD4FFF7D1FB401B29
:1030B0000328F5D3032034E0DFF8F003006830F094
:1030C0008070DFF8E8130860DFF8E00300680001B3
:1030D0000CD4DFF8D8030068800007D4DFF8D403ED
:1030E000006880088000DFF8CC130860DFF8C403B4
:1030F0000068DFF880140840DFF8B8130860FFF7B5
:10310000A7FB0500DFF8A4030068800108D5FFF7DE
:103110009FFB401B0328F5D3032002E0012000E0C1
:10312000002076BD70B504000D000026DFF84804CD
:10313000006810F00700A84211D2DFF83C040068D4
:10314000C008C0002843DFF830140860DFF8280406
:10315000006810F00700A84201D00120D4E02078D8
:10316000800709D5DFF84803006830F0F000A16857
:103170000843DFF83C1308602078C00779D5606801
:10318000022806D1DFF82403006880031CD4012044
:10319000BAE06068032806D1DFF8100300688001F8
:1031A00012D40120B0E06068002806D1DFF8FC02EC
:1031B0000068800708D40120A6E0DFF8F00200686C
:1031C000400501D401209FE0DFF8E4020068800898
:1031D000800061680843DFF8D8120860FFF738FB09
:1031E0000600606802280FD1DFF8C402006810F002
:1031F0000C0008283DD0FFF72BFB801B41F28931E2
:103200008842F1D303207FE0606803280FD1DFF804
:10321000A002006810F00C000C282AD0FFF718FB61
:10322000801B41F289318842F1D303206CE0606851
:1032300000280ED1DFF87802006810F00C0F18D0CB
:10324000FFF706FB801B41F289318842F2D303204D
:103250005AE0DFF85C02006810F00C00042808D087
:10326000FFF7F6FA801B41F289318842F1D303203F
:103270004AE0DFF80403006810F00700854211D22D
:10328000DFF8F4020068C008C0002843DFF8E81245
:103290000860DFF8E402006810F00700A84201D0DF
:1032A000012031E02078400709D5DFF804020068EA
:1032B00030F4E060E1680843DFF8F411086020783A
:1032C00000070AD5DFF8E801006830F46050216992
:1032D00050EAC100DFF8D811086000F016F8DFF8F6
:1032E000D01109685FF07062B2FA82F2DFF87432CE
:1032F00011F0F001D140C95CC840DFF85C120860F1
:103300000F20FFF78DFA002070BDF0B400210022DD
:103310000023022402250020654E366816F00C0FAB
:103320000BD0634E366816F00C060C2E2AD1614E77
:10333000366816F00306012E24D15C4E3668360737
:103340000BD4DFF81862366816F470665FF4700705
:10335000B7FA87F7FE40310009E0544E366816F0A0
:10336000F0065FF07067B7FA87F7FE403100DFF8CC
:103370000C6256F821104E4E366816F00C0F14D120
:10338000080012E04A4E366816F00C06042E03D1EF
:10339000DFF8EC61300008E0454E366816F00C06A8
:1033A000082E02D1DFF8DC613000414E366816F09D
:1033B0000C060C2E55D13F4E366816F0030633002E
:1033C0003C4E366816F070065FF06067B7FA87F714
:1033D000FE40761C35001E00022E02D0032E12D0B5
:1033E00022E0344E3668DFF89871B7FBF5F716F433
:1033F000FE465FF47E0CBCFA8CFC36FA0CF606FB3B
:1034000007F632001FE02B4E36685E4FB7FBF5F72C
:1034100016F4FE465FF47E0CBCFA8CFC36FA0CF611
:1034200006FB07F632000EE0224E3668B1FBF5F7D8
:1034300016F4FE465FF47E0CBCFA8CFC36FA0CF6F1
:1034400006FB07F632001B4E366816F0C066602792
:10345000B7FA87F7FE40761C76003400B2FBF4F62C
:103460003000F0BC70473C480068704780B5FFF7FB
:10347000FAFF0F4909685FF46002B2FA82F2424B28
:1034800011F4E061D140C95CC84002BD80B5FFF7CE
:10349000EAFF074909685FF4E012B2FA82F23A4B98
:1034A00011F46051D140C95CC84002BD0010024017
:1034B000081002400C10024070B582B004000025D4
:1034C000002629480068C00003D500F037FF05003A
:1034D00014E02548006850F08050234908602248D5
:1034E000006810F080500090009800F027FF050061
:1034F0001D48006830F080501B490860B5F5007F1A
:1035000009D1812C15D3A12C02D30220060010E092
:10351000012006000DE0812C02D30320060008E004
:10352000802C02D10220060003E0702C01D1012082
:10353000060011480068C008C00030430E4908600A
:103540000D48006810F00700B04201D0012000E0F3
:10355000002076BD000000006C01002094100240A5
:1035600004100240645300085810024000700040EC
:1035700090100240FFFFEEFE00200240DC510008E8
:103580000024F40000127A009C53000878B4002252
:10359000002300240D68D540002D00F0EE800D685A
:1035A0000126964035402B00002B00F0E4804D684A
:1035B000022D02D04D68122D16D1D50810EB8505CD
:1035C0002D6A2C000F2512F00706F6B2B600B540A2
:1035D000AC430D6912F00706F6B2B600B5402C43B5
:1035E000D50810EB85052C6205682C000325160014
:1035F000F6B27600B540AC430D7915F00305160020
:10360000F6B27600B5402C4304604D68012D08D019
:103610004D68022D05D04D68112D02D04D68122D38
:1036200019D185682C0003251600F6B27600B54046
:10363000AC43CD681600F6B27600B5402C438460EA
:1036400045682C0001259540AC434D68C5F3001535
:1036500095402C4344600D7915F00305032D0AD1E4
:10366000C56A2C0001259540AC434D68C5F3C005E3
:1036700095402C43C462C5682C0003251600F6B2A1
:103680007600B540AC438D681600F6B27600B540C2
:103690002C43C4604D68ED006DD58F4D2D6855F0FD
:1036A00001058D4E35608C4D2D6815F00105009596
:1036B000009D8A4D960855F826502C000F2512F0D3
:1036C0000306F6B2B600B540AC43B0F1904F01D15D
:1036D00000251EE0824DA84201D1012519E0814D4F
:1036E000A84201D1022514E07F4DA84201D1032553
:1036F0000FE07E4DA84201D104250AE07C4DA8428E
:1037000001D1052505E07B4DA84201D1062500E049
:10371000072512F00306F6B2B600B5402C436F4DF4
:10372000960845F82640744D2D682C009C434D6842
:10373000ED0300D51C43704D2C60704D2D682C009E
:103740009C434D68AD0300D51C436C4D2C606C4D03
:103750002D682C009C434D68ED0200D51C43684D3C
:103760002C60684D2D682C009C434D68AD0200D53F
:103770001C43644D2C60521C0CE771BC7047F0B4C4
:103780000022002300240D00D540002D00F0988079
:10379000012595400D402B00002B00F08F8005681F
:1037A00003261700FFB27F00BE4035430560D508F1
:1037B00010EB8505D60810EB8606366A0F2712F047
:1037C000070C5FFA8CFC5FEA8C0C17FA0CF7BE430F
:1037D0002E62856803261700FFB27F00BE40B54306
:1037E0008560456801269640B5434560C568032657
:1037F0001700FFB27F00BE40B543C560C56A012611
:103800009640B543C562354D960855F826502C00B4
:103810000F2512F00306F6B2B600B5402C40B0F109
:10382000904F01D100251EE02D4DA84201D1012568
:1038300019E02C4DA84201D1022514E02A4DA842DE
:1038400001D103250FE0294DA84201D104250AE04A
:10385000274DA84201D1052505E0264DA84201D1FA
:10386000062500E0072512F00306F6B2B600B540C3
:10387000AC4223D10F2512F00306F6B2B600B540D4
:103880002C00164D960855F82650A543134E970860
:1038900046F82750184D2D689D43174E3560174D3B
:1038A0002D689D43154E3560154D2D689D43144E72
:1038B0003560144D2D689D43124E3560521C62E7F1
:1038C000F0BC7047D2B2002A02D089B2816101E017
:1038D00089B2816270470000601002400800014018
:1038E0000004004800080048000C00480010004890
:1038F000001400480018004800040140040401407E
:10390000080401400C04014010F007024E4B1B68F4
:1039100019004FF6FF0319404C4B53EA0223194399
:10392000494B1960704748480068C0F3022070474F
:10393000012110F01F029140454A40B2430942F86C
:1039400023107047012110F01F029140414A40B2FC
:10395000430942F82310704710B440B2002808D53C
:103960000A013D4B40B210F00F04E31803F8042C99
:1039700003E00A01394B40B2C25410BC704770B426
:10398000030013F00704D4F10706052E01D3042029
:1039900001E0D4F10700261D072E01D2002500E02A
:1039A000E51E012616FA00F0401E0840A84001213D
:1039B000A940491E1140084370BC704710B504006F
:1039C000601EB0F1807F01D301200EE0601E24490B
:1039D00008600F215FF0FF30FFF7BEFF0020214994
:1039E0000860072020490860002010BD10B50400C1
:1039F0002000FFF789FF10BDF8B504000D00160088
:103A00000027FFF790FF0700320029003800FFF77A
:103A1000B6FF0100200040B2FFF79EFFF1BD10B5D8
:103A20000400200040B2FFF783FF10BD10B5040072
:103A3000200040B2FFF786FF10BD10B50400200043
:103A4000FFF7BCFF10BD00000CED00E00000FA0520
:103A500000E100E080E100E018ED00E000E400E0BB
:103A600014E000E018E000E010E000E010B5040011
:103A70000122DFF81800E4B230F81410DFF810006B
:103A8000E4B250F82400FFF71DFF10BD3E0F000800
:103A90006801002010B504002068006980071AD56D
:103AA0002068C068800716D57FF002002168086191
:103AB000012020762068806910F0030F03D02000D9
:103AC00000F0A4F805E0200000F09FF8200000F0CE
:103AD0009EF8002020762068006940071AD52068EB
:103AE000C068400716D57FF00400216808610220F5
:103AF00020762068806910F4407F03D0200000F019
:103B000085F805E0200000F080F8200000F07FF844
:103B1000002020762068006900071AD52068C06858
:103B2000000716D57FF00800216808610420207680
:103B30002068C06910F0030F03D0200000F066F881
:103B400005E0200000F061F8200000F060F800209F
:103B5000207620680069C0061AD52068C068C006B3
:103B600016D57FF0100021680861082020762068B3
:103B7000C06910F4407F03D0200000F047F805E052
:103B8000200000F042F8200000F041F800202076EC
:103B900020680069C0070AD52068C068C00706D53C
:103BA0007FF00100216808612000FEF75DFF2068BA
:103BB000006900060AD52068C068000606D57FF0B7
:103BC000800021680861200000F0C1FB20680069C6
:103BD00040060AD52068C068400606D57FF0400040
:103BE00021680861200000F013F820680069800651
:103BF0000AD52068C068800606D57FF020002168BD
:103C00000861200000F0A2FB10BD704770477047AC
:103C100070470000DFF840258A1812F8012C50FA8E
:103C200082F2126852F00102DFF82C35CB1813F83B
:103C3000013C50FA83F31A60704710B4DFF818356E
:103C4000CB1813F8013C50FA83F3DFF80C450C193C
:103C500014F8014C50FA84F46468240C24041443CE
:103C60005C6010BC704730B4029C102C20D1DFF88F
:103C7000E8544D1915F8015C50FA85F5ED68DFF848
:103C8000D8544D1915F8015C50FA85F5EA60DFF853
:103C9000C8544D1915F8015C50FA85F5AD68DFF888
:103CA000B8544D1915F8015C50FA85F5AB601FE06A
:103CB000DFF8A4544D1915F8015C50FA85F5AD688C
:103CC000DFF894544D1915F8015C50FA85F5AA6097
:103CD000DFF884544D1915F8015C50FA85F5ED684C
:103CE000DFF874544D1915F8015C50FA85F5EB6056
:103CF00030BC7047DFF860248A1812F8012C50FAA3
:103D000082F2126852F00202DFF84C34CB1813F83A
:103D1000013C50FA83F31A60704738B5DFF83C0471
:103D2000006850F00100DFF834140860DFF82C045C
:103D3000006810F00100009000980220DFF82014C5
:103D400048600020DFF8181488600020DFF81014A5
:103D5000C8600020DFF8081408610020DFF80014B4
:103D600048610020DFF8F81388612020DFF8F013A5
:103D7000C8614FF48050DFF8E8130862DFF8E4030D
:103D8000DFF8DC130860DFF8D803FEF775FD0028C4
:103D900001D000F01CFA002200211020FFF72CFEB9
:103DA0001020FFF73CFEDFF8C043DFF8C0530020CF
:103DB00000902B0022000621DFF8B403FFF753FF29
:103DC00001220621DFF8A803FFF737FF0621DFF8FD
:103DD000A003FFF78FFF0621DFF89403FFF71AFF18
:103DE000DFF87803006850F00100DFF87013086016
:103DF000DFF86803006810F00100009000980220CE
:103E0000DFF8701348600020DFF868138860002036
:103E1000DFF86013C8600020DFF858130861002045
:103E2000DFF8501348610020DFF848138861202034
:103E3000DFF84013C8614FF48050DFF83813086290
:103E4000DFF83403DFF82C130860DFF82803FEF7EF
:103E500013FD002801D000F0BAF9002200210F2044
:103E6000FFF7CAFD0F20FFF7DAFDDFF810030400AB
:103E7000DFF80C030500002000902B002200052134
:103E8000DFF8EC02FFF7EFFE01220521DFF8E00288
:103E9000FFF7D3FE0521DFF8D802FFF72BFF05213E
:103EA000DFF8CC02FFF7B6FE31BD0120DFF8D412F7
:103EB00081F868000020DFF8CC12C8662120DFF806
:103EC000C41281F86900DFF8A402DFF8B812C864F0
:103ED0000120DFF8B012A1F850000120DFF8A41291
:103EE000A1F852000020DFF89C1281F86800DFF88A
:103EF00094020068006850F08000DFF888120968BA
:103F000008600020DFF87C1281F86800704701200B
:103F1000DFF87412096881F868000020DFF8681281
:103F20000968C8662120DFF86012096881F8690015
:103F3000DFF84C02DFF850120968C8640120DFF88E
:103F400048120968A1F850000120DFF83C12096806
:103F5000A1F852000020DFF83012096881F86800EB
:103F6000DFF8240200680068006850F08000DFF885
:103F70001812096809680860704780B54FF48061BD
:103F8000DFF8080200F0E4F9DFF80402407810F0EE
:103F9000F100DFF8FC1148700020DFF8F81108701C
:103FA00000F07BF800F007F832217B4800F0DCF9E4
:103FB000FFF7B3FE01BD7648007850F00800744961
:103FC00008707348007850F080007149087070489C
:103FD000007810F0BF006E4908706D48407810F00E
:103FE000F1006B4948700020694948740020684915
:103FF000C874002066498874002065494860644898
:10400000407810F0FE0062494870FF206049C87592
:1040100002205F49087502205D49487500205C490F
:10402000887500205A49C8605C48006850F001005B
:104030005A4908605948006850F002005749086022
:104040005648D0F8020030F080505449C1F80200C0
:104050005248C07910F0DF005049C8714F4880794C
:1040600050F001004D4988714C48C07910F0EF00C4
:104070004A49C8714948C07910F0BF004749C87122
:104080004648C07910F07F004449C8714348007A1F
:1040900010F0FE0041490872704770B54048C07981
:1040A00010F0C7003E49C87100203D49C1F8A40086
:1040B00000203B49C1F8980000203949C1F8A00010
:1040C00000203749C1F8B00000203549C1F8A800E8
:1040D00000203349A1F8900000203149C1F8B40014
:1040E00000202F49C1F8BC0000202D49C1F8C000B4
:1040F00000202B49487300202949C1F8C400002042
:104100002749A1F88C000A202549A1F892004FF414
:1041100000640025234E2A002100300000F034F90D
:1041200070BD80B500224FF480515FF09040FFF7E2
:10413000C9FB012212491348FDF7E2FD002803D014
:10414000194800F055F905E01448006850F4005093
:104150001249086001BD0000A45300084810024045
:10416000F01900206C00024024440040A91B0020EC
:1041700000000240381A0020580002402438014054
:1041800052170020E0180020A01B0020801A0020F9
:10419000701B0020A81B0020941A0020881B002000
:1041A0000417002074090020A452000810B5040070
:1041B00000F00DF810BD70B54FF400640025DFF875
:1041C00064612A002100300000F0DEF870BD80B587
:1041D0000020FFF74BFC01BD10B504002848007813
:1041E000C0F30010C0B2002808D125480078C0F301
:1041F0008010C0B2002801D105203EE0DFF8280180
:10420000006810F4407F01D0102036E0DFF818017C
:10421000006850F48050DFF810110860A4B2002C40
:1042200005D1DFF8080100F0E3F81F2025E04FF486
:104230007A73220092B2DFF8EC10DFF8F400FDF799
:104240006AFC002807D0FFF7C2FFDFF8E80000F0A3
:10425000CFF80F2011E0DFF8D000006830F4805074
:10426000DFF8C4100860DFF8C0000068C0F3403019
:10427000002801D1FFF755FF002010BD000000000D
:10428000701B002070B504000D000026FFF793FF9F
:104290002B0022002849234800F0BCF82148FCF7F5
:1042A0004FFE4FF47A73020092B21E492048FDF788
:1042B00032FC002803D0FFF78AFF0F2005E008201A
:1042C00000F004F806003000C0B270BDF0B591B047
:1042D0000400402500266F4632002900380000F017
:1042E00053F80027A4B2412C15DA4FF47A73220058
:1042F00092B269460E48FDF775FC002803D0FFF71F
:1043000066FF0F2009E006A1684600F09DF800282E
:1043100001D10D2001E03800C0B211B0F0BD0000A5
:104320004F4B000074010020881B002084520008BD
:10433000E0180020F452000830530008DFF80800AD
:10434000006810F4C060704700700040704770470C
:104350008160002202600022C26000224260014AA5
:10436000026170477411002008231A0012FB01F348
:104370008380002303800023C38000234380014BFC
:10438000836070477415002062F30F2262F31F42AE
:10439000401810F0030308D0C91A1FD3DB0748BF29
:1043A00000F8012D28BF20F8022D130030B4144668
:1043B0001546103928BF20E93C00FAD8490728BF24
:1043C00020E90C0048BF40F8042D890028BF20F8E0
:1043D000022D48BF00F8012D30BC7047C91818BF26
:1043E00000F8012DCB0728BF00F8012D7047000011
:1043F0000EB400B582B003A9009102466B460121BC
:10440000034878440A30FBF7BFFE06BC5DF810FB9A
:10441000FD0E00000CB41CB5044604A801900A4629
:10442000009401AB6946074878441830FBF7ACFEAE
:10443000009A0021117000285CBF0098001B16BC78
:104440005DF80CFBDBCAFFFF38B504000D00290046
:10445000200000F001F832BD70B50C46257835B962
:1044600070BD11F8013F1678B34206D0401C2946B2
:10447000FCF75AFD28B10146224612F8013F002BF5
:10448000EFD170BD10B50024FEF7BEF900F036F88C
:104490005FF4E13000F0FCF85FF4E13000F028F95F
:1044A00000F084F85FF4E1316C4800F05AF86B4892
:1044B00000F050F96A48FFF79BFF6A48FFF798FF42
:1044C0006948FFF795FF6948FFF792FF6848FFF7D3
:1044D0008FFF6448FFF78CFF6648FFF789FF664847
:1044E00000F03EF90400E4B2002C04D06348FFF76A
:1044F0007FFF002001E000BFFDE710BD00B597B0D1
:104500006846142100F034F905A8442100F030F980
:104510001020059001200B9060200D9000200C9041
:1045200002200F900120109001201190282012905D
:1045300002201590072013900420149005A8FEF780
:10454000CDFA0F200090032001900020029000205F
:1045500003900020049004216846FEF7E3FD17B0A5
:1045600000BD38B504000D0045482060656000209E
:10457000A0600020E060002020610020A0610C20ED
:1045800060612000FDF79FFA002801D0FFF71FFEB1
:104590002000FDF759FA002801D0FFF718FE206827
:1045A000806850F040002168886031BD00B587B058
:1045B0003448006850F00100324908603148006812
:1045C00010F00100009000982E48006850F00100A3
:1045D0002C4908602B48006810F0010000900098FA
:1045E0002948006850F400302749086026480068D0
:1045F00010F40030009000982448006850F001004A
:10460000224908602148006810F0010000900098DD
:1046100004200190022002900120039003200490C6
:104620000720059001A95FF09040FEF7AFFF08203A
:10463000019000200290022002900720059001A91D
:104640005FF09040FEF7A2FF012200212620FFF735
:10465000D3F92620FFF7E3F907B000BD701800205A
:104660002C500008EC500008285100086451000844
:10467000A05100086C5000083C1B00204453000867
:10468000004400404C1002405810024060100240AC
:1046900010B5040029482A490860294844600020D0
:1046A0002749886000202649C86000202449086105
:1046B0000020234988610C202149486100202049BD
:1046C000C8611F48FDF7FFF9002801D0FFF77FFD03
:1046D0001B48FDF7B9F9002801D0FFF778FD18480D
:1046E0000068806850F0400015490968886010BD76
:1046F00038B504001348007850F0100011490870D4
:1047000021001148FFF7BEFD0500FFF754FD0F49DA
:104710000F48FFF77FFE0E48FCF712FC80B2FFF750
:104720005BFD0500EDB2002D06D14FF4FA70FEF7E7
:1047300092F82000FFF7ACFF31BD000000380140C7
:10474000E0180020701B0020545300088453000818
:104750007401002001490860704700BFA01B0020C1
:1047600038B504000025FFF708FC2800C0B232BDB0
:10477000002200F001B8000000B500BF130096460B
:104780009446103928BFA0E80C50FAD85FEA417C63
:1047900028BF0CC048BF40F8042BC90728BF20F829
:1047A000022B48BF00F8012B00BD000010B4364AB0
:1047B0000021134653F8084B844205D1002342F8E8
:1047C000313002EBC10113E053F8084B491C84421D
:1047D0001EBF491C53F8084B84421EBF491C53F8A6
:1047E000084B8442EAD0491C1029E3D310BC70471F
:1047F0004B6010BC704770B4234C0023254655F81D
:10480000086B8E4209D1014604EBC303012A04BFA1
:104810005A685118596070BC704755F8086B5B1C9A
:104820008E421EBF5B1C55F8086B8E421EBF5B1C80
:1048300055F8086B8E42E6D05B1C102BDFD370BCA2
:10484000704710B4104A0021134653F8084B8442B5
:1048500004D102EBC10010BC4068704753F8084B0C
:10486000491C84421EBF491C53F8084B84421EBF9A
:10487000491C53F8084B8442EBD0491C1029E4D35F
:1048800010BC002070470000F01700202DE9F04117
:1048900004460D4620780321084216461F4658D08C
:1048A000204600F09AF8002853D115B1D5E900014F
:1048B0008619012F3DD12088C00416D5A16904F1C5
:1048C0003D02204600F0A6F8626A804602B92269DD
:1048D000E168204600F09EF8A6EB08010E1AA26AD5
:1048E000E168204600F096F8361A46BB20884FF45F
:1048F000405108420ED06068E0602061A0626061B3
:104900006068E06204F13D00A06104F12400E06110
:10491000002060622DB1D5E9020104F13002C2E944
:10492000000120884CF6FF61084020800020BDE88F
:10493000F081022F03D04FB916F1010F09D094F97D
:1049400003003A46314600F06AF8064616F1010FB8
:10495000CCD100F08BF8232101604FF0FF30BDE88F
:10496000F081000038B500F087F804462088800404
:104970002ED5656809E04A1B294600F08DF810F134
:10498000010F18BF00280CD04519E16894F9030005
:104990008D42F0D30022002100F07EF810F1010FCB
:1049A0000DD16068E0606061E062208840F40070D2
:1049B0002080204600F061F84FF0FF3032BD65687E
:1049C000E5606561E5624DF6FF7120880840208052
:1049D000204600F052F8002032BDF8B5A0B9C0461C
:1049E000C04600240A4D08264FF0FF37286820B142
:1049F000FFF7B8FF002848BF3C462D1D761EF5D1B5
:104A0000C046C0462046F2BDBDE8F240AAE700001D
:104A100048010020914234BF501A0020704730B541
:104A200083B004000D00012A02D1FFF70AFF07E05E
:104A3000022A07D100940020019069460C20ABBEE9
:104A40002D1801E0002A0CD10094019569460A2036
:104A5000ABBE002805D1002221002800FFF7CBFEC5
:104A600001E00020C04303B030BD00000148FCF766
:104A7000E9BF0000700100207047704701B55FF08A
:104A8000FF330122694603480068FDF744F80098A7
:104A900002BD0000A01B0020F8B504000D001600A8
:104AA000012C04D0022C02D05FF0FF3009E000207E
:104AB0000700B74204D2785DFFF7E0FF7F1CF8E7FC
:104AC0003000F2BD816807E00268116853688918F8
:104AD0005B18C36008320260C2689142F4D04A1C7D
:104AE0008260087870472DE9FF4D00F108010091C0
:104AF00000270268520801EBC2010191B84600216B
:104B0000029103910168490800EBC101406800F07F
:104B1000010501F10804400804EBC00630E06846D6
:104B2000FFF7D0FF4FFA80FA0AE0009801680818F2
:104B30000099029049680818039000980830009086
:104B4000029803998842F0D010F801BB02904745C3
:104B50000CD1B44208BF00F01DF8276805B14F44DE
:104B6000606800EB070808344745F2D0BAF1000F3F
:104B700007F801BB0AD51AF1010AE8D14745CED1A1
:104B8000B442CCD1304604B0BDE8F08DBAF1010A90
:104B9000D6D5F3E7012000F001B8000080B5C0468B
:104BA000C046024A11001820ABBEFBE726000200F7
:104BB00010B50446E0686169884252D3218849F201
:104BC00002020A40022A08D008044CBF4FF40070C9
:104BD0004FF48440084320803CE001F4C041B1F52B
:104BE000C04F06D1A168884203D32046FFF7F5FEE7
:104BF00080BB20884FF44061084202BF606804F126
:104C00003D01884217D14FF4007000F02DF860602C
:104C100030B904F13D006060E060401CA0600AE033
:104C2000218841F040012180E060A06200F5007120
:104C30006068A160E06260682061A06860612078BF
:104C400040070AD502220021204600F065F810F145
:104C5000010F02D14FF0FF3010BD208840F4C0405A
:104C60002080002010BD000070B5054605F10F0042
:104C7000C408C046C046E400A54232D2082C04D283
:104C8000082402E0083000F059F8224802681100B8
:104C90000CD1011D0A6802B31368A34238BF111D6D
:104CA000F8D310E01D68A5420DD2191D0B68002B2A
:104CB000F8D11268011D00E0191D0B6893420CD059
:104CC0001D68A542F8D361B10D682A68A2F10803F6
:104CD000A3420AD26A680A600FE000F06FF8002869
:104CE000D0D1C046C046002070BD63190B60121BB6
:104CF0006E685E600B681A602C60096800291DBF31
:104D00004A68002A091D00210160C046C04605F11D
:104D1000080070BD941B002070B50C461546FFF7C7
:104D2000ABFE06462B4622460021FFF7AFFD0446A8
:104D30003046FFF7A2FE204670BD000000B9704764
:104D400038B5A0F108042068082833D310F0070F05
:104D500030D1C046C0461848416809B18C4203D2E0
:104D60006160446017E019464B680BB1A342FAD367
:104D70000B685D18AC421BD3A54204D12268D2183F
:104D80000A600C4607E04A681AB123681B199A4268
:104D90000ED362604C60616851B1226813198B4276
:104DA00006D10023036008688018206048686060AE
:104DB000C046C04631BD0000941B0020074908686A
:104DC00008B1002070470648C008C00008600549C7
:104DD000C908C900091A0160704700BFA41B002060
:104DE000B71F0020B02100200178090626D51C4AF3
:104DF00013680021834203D1002342F821301BE0D5
:104E00005368012183421EBF022193688342F3D07D
:104E1000D368032183421EBF042113698342EBD070
:104E20005369052183421EBF0621936983421EBF39
:104E30000721D3698342DFD0FFF780BF00210180C3
:104E40004FF0FF31C17000F13D014160C16001616F
:104E500081624161C162816100F12401C1617047D9
:104E60004801002038B5044603212078084202D0CA
:104E70006056002809D5C046C0462046FFF7B4FF5B
:104E8000C046C0464FF0FF3527E02046FFF7A5FD9E
:104E90000546C046C0462078400644BF6068FFF71C
:104EA0004DFF0020606094F90300022804D900F04F
:104EB00016F808B14FF0FF35A06B48B100F01CF8B0
:104EC00008B14FF0FF35A06BFFF738FF0020A0635B
:104ED0002046FFF789FFC046C046284632BD10B5C0
:104EE00082B00200009269460220ABBE04001000AE
:104EF000FFF75CFC200016BD00B583B00090FCF706
:104F00001FF8019069460E20ABBE03B000BD000043
:104F10001348006850F47000114908601148006897
:104F200050F001000F49086000200F4908600D484B
:104F300000680E4908400B4908604FF480500C4946
:104F400008600848006830F48020064908600020A6
:104F5000084908605FF0006007490860704700007A
:104F600088ED00E00010024008100240FFFFF6EA62
:104F70000C1002401810024008ED00E010B5144C6F
:104F8000206808B1FFF76EFF606808B1FFF76AFF9D
:104F9000A06808B1FFF766FFE06808B1FFF762FF9D
:104FA000206908B1FFF75EFF606908B1FFF75AFF9B
:104FB000A06908B1FFF756FFE06908B1FFF752FF9B
:104FC000BDE81040002200214FF0FF30FFF764BD24
:104FD0004801002038B505460846FFF74DFD044658
:104FE000E0686169884204D32046FFF7E1FD0028AC
:104FF00010D4E068401CE06000F8015D20880105E5
:1050000004D440050CD5EDB20A2D09D12046FFF796
:10501000E4FC28B12046FFF730FD4FF0FF3032BDF1
:105020002046FFF72AFDE8B232BD00000D0A0A2F24
:105030002A2A2A2A2A2A2A2A2A2A2A2A2A2A2A2AD0
:105040002A2A2A2A2A2A2A2A2A2A2A2A2A2A2A2AC0
:105050002A2A2A2A2A2A2A2A2A2A2A2A2A2A2A2AB0
:105060002A2A2A2A2A2A2A2A0A0000000D202A2A65
:105070002A2A2A2A2A2A2A2A2A2A2A2A2A2A2A2A90
:105080002A2A2A2A2A2A2A2A2A2A2A2A2A2A2A2A80
:105090002A2A2A2A2A2A2A2A2A2A2A2A2A2A2A2A70
:1050A0002A2A2A2A2A2F0A0D0A00000019E050F89D
:1050B000041BCB0744BFA9F101035918121F002399
:1050C000042A41F8043BF9D25FEA827C0B4604D5FE
:1050D0004FF0000CA1F800C09B1CD10744BF002179
:1050E000197050F8042B002AE1D170470D202A20B6
:1050F00020202020202020202020202020202020B0
:10510000202020202020202020202020202020209F
:10511000202020202020202020202020202020208F
:1051200020202020202A0A000D202A20582D435517
:1051300042452D574946493120457870616E736963
:105140006F6E20536F6674776172652076332E30F0
:105150002E3220202020202020202020202020202F
:10516000202A0A000D202A20436F6E736F6C652081
:105170004170706C69636174696F6E20202020201B
:10518000202020202020202020202020202020201F
:10519000202020202020202020202020202A0A003B
:1051A0000D202A2053656E6420415420636F6D6D7D
:1051B000616E647320746F2053505746206D6F6486
:1051C000756C65206469726563746C792020202099
:1051D0002020202020202020202A0A00A086010054
:1051E000400D0300801A060000350C0040420F00FD
:1051F00080841E0000093D0000127A000024F400A3
:1052000000366E010048E801006CDC0210B5074969
:1052100079441831064C7C44163404E00A68081DB1
:10522000511888470146A142F8D110BD2C0000005A
:10523000540000004EF68851CEF20001086840F498
:1052400070000860BFF34F8FBFF36F8F4FF0007097
:10525000E1EE100A7047000055FEFFFF381A00000B
:1052600074010020000000007FF8FFFF0200000032
:10527000020000006402000089000000000000201D
:10528000740100004552524F5220696E205553411F
:1052900052545F5472616E736D69745F41545F4321
:1052A0006D64210048414C5F55415254785F52650E
:1052B00063656976655F4954204572726F720000BC
:1052C00000F00BF8002801D0FFF7A0FF0020C04637
:1052D000C046FFF7D7F800F002F80120704700F051
:1052E00001B800000746FFF749FE3846FFF756FCB5
:1052F000FBE7000048414C5F554152545F547261D6
:105300006E736D6974204572726F720038B5044611
:105310000D46284600F006F8A84218BF0024204693
:1053200032BD00000149FFF755BE00BFC800002094
:1053300041542B532E534346473D25732C25640D72
:10534000000000004572726F7220696E20436F6E1C
:1053500066696700636F6E736F6C655F7370656518
:1053600064000000000000000000000001020304CF
:10537000060708090148804701480047114F000807
:105380009153000841542B532E52455345540D0060
:10539000C046C046FFF74EFFFFF792FF0000000037
:1053A00001020304081C3044586C8000FFF7FEBF64
:1053B000FFF7FEBFFFF7FEBFFFF7FEBFFFF7FEBF21
:1053C000FFF7FEBFFFF7FEBFFFF7FEBFFFF7FEBF11
:1053D000FFF7FEBFFFF7FEBFFFF7FEBFFFF7FEBF01
:1053E000FFF7FEBFFFF7FEBFFFF7FEBFFFF7FEBFF1
:1053F000FFF7FEBFFFF7FEBFFFF7FEBFFFF7FEBFE1
:10540000FFF7FEBFFFF7FEBFFFF7FEBFFFF7FEBFD0
:10541000FFF7FEBFFFF7FEBFFFF7FEBFFFF7FEBFC0
:10542000FFF7FEBFFFF7FEBFFFF7FEBFFFF7FEBFB0
:10543000FFF7FEBFFFF7FEBFFFF7FEBFFFF7FEBFA0
:10544000FFF7FEBFFFF7FEBFFFF7FEBFFFF7FEBF90
:10545000FFF7FEBFFFF7FEBFFFF7FEBFFFF7FEBF80
:10546000FFF7FEBFFFF7FEBFFFF7FEBFFFF7FEBF70
:10547000FFF7FEBFFFF7FEBFFFF7FEBFFFF7FEBF60
:10548000FFF7FEBFFFF7FEBFFFF7FEBFFFF7FEBF50
:10549000FFF7FEBFFFF7FEBFFFF7FEBFFFF7FEBF40
:1054A000FFF7FEBFFFF7FEBFFFF7FEBFFFF7FEBF30
:1054B000FFF7FEBFFFF7FEBFFFF7FEBFFFF7FEBF20
:1054C000FFF7FEBFFFF7FEBFFFF7FEBFFFF7FEBF10
:1054D000FFF7FEBFFFF7FEBFE400F8FFDC00FAFFB6
:1054E000C6001F01040000C5000020C6000020C542
:1054F000000020C5000020C5000020C5000020AC31
:10550000000020E0001F02040101A0190020F01992
:105510000020A0190020A0190020A01900200501DA
:105520000020EC000020E0001F02080202501900D9
:1055300020A01900205019002050190020501900F7
:1055400020450100202C010020E0000B88000020F5
:10555000C800002008010020E900034800093DFBC5
:01556000004A
:04000005080053910B
:00000001FF
