:020000040800F2
:10000000681F0020ED3C0008A50E0008A70E0008A0
:10001000B10E0008BB0E0008C50E0008000000006D
:10002000000000000000000000000000CF0E0008EB
:10003000D90E000800000000E30E0008F90E0008C9
:10004000253D0008293D00082D3D0008313D0008F0
:10005000353D0008393D00083D3D0008413D0008A0
:10006000453D0008493D00084D3D0008513D000850
:10007000553D0008593D00085D3D0008613D000800
:10008000290F0008653D0008693D000800000000D8
:100090000000000000000000000000006D3D0008AE
:1000A000713D0008753D0008793D00087D3D000860
:1000B000EF0E0008E50E0008813D0008853D0008B0
:1000C000893D00088D3D0008913D0008953D0008E0
:1000D000993D0008130F00081D0F000800000000E4
:1000E0009D3D0008A13D0008A53D0008000000005E
:1000F000000000000000000000000000A93D000812
:1001000000000000AD3D0008B13D0008B53D00080D
:1001100000000000000000000000000000000000DF
:10012000B93D0008BD3D0008410F0008C13D000871
:10013000C53D0008000000000000000000000000B5
:10014000000000000000000000000000C93D0008A1
:10015000CD3D0008D13D0008D53D0008D93D00083F
:10016000DD3D0008E13D0008000000000000000047
:10017000000000000000000000000000000000007F
:1001800000000000E53D0008000000000000000045
:10019000E93D000810B50400002C01D1012033E036
:1001A000A0690028FFD194F83900002805D100206B
:1001B00084F83800200000F085FC242084F8390001
:1001C0002068C06830F400502168C860200000F04A
:1001D000E9FA2068006930F49040216808612068DD
:1001E000406930F02A00216848612068C06850F4F6
:1001F00000502168C8600020E063202084F83900A6
:10020000202084F83A00002010BD10B50400002C16
:1002100001D1012011E0242084F83900200000F0F1
:10022000BCFC0020E063002084F83900002084F842
:100230003A00002084F83800002010BD2DE9F84372
:1002400004000D0016001F005FF0000994F839004B
:1002500020285FD1002D02D0B6B2002E01D101209E
:1002600059E094F83800012801D1022053E0012020
:1002700084F838000020E063212084F8390000F081
:10028000EAFC8146A684E684E08C00282FD0E08C2E
:10029000401EE084A068B0F5805F18D100974B46FF
:1002A00000228021200000F092F9002801D00320D4
:1002B00031E0A846B8F80000C005C00D21684860CC
:1002C0002069002801D1AD1CDEE76D1CDCE700973A
:1002D0004B4600228021200000F079F9002801D04F
:1002E000032018E02878216848606D1CCCE700974F
:1002F0004B4600224021200000F069F9002801D07F
:10030000032008E0202084F83900002084F8380019
:10031000002000E00220BDE8F2832DE9F84304004C
:100320000D0016001F005FF0000994F83A00202825
:1003300063D1002D02D0B6B2002E01D101205DE0C4
:1003400094F83800012801D1022057E0012084F8F8
:1003500038000020E063222084F83A0000F07BFCA3
:100360008146A685E685E08D00283ED0E08D401EC2
:10037000E085A068B0F5805F1DD100974B46002254
:100380002021200000F023F9002801D0032035E0CF
:10039000A8462069002807D120684068C005C00D24
:1003A000A8F80000AD1CDEE720684068C0B2A8F8DD
:1003B00000006D1CD7E700974B460022202120004B
:1003C00000F005F9002801D0032017E0206900287B
:1003D00004D12068406828706D1CC4E7206840681C
:1003E00010F07F0028706D1CBDE7202084F83A00D3
:1003F000002084F83800002000E00220BDE8F283ED
:1004000010B4030093F83A00202828D1002902D024
:1004100092B2002A01D1012022E093F8380001288D
:1004200001D102201CE0012083F8380099629A85EE
:10043000DA850020D863222083F83A00002083F870
:1004400038001868406950F001001C686061186845
:10045000C06850F490701C68E060002000E002204A
:1004600010BC70472DE9F843040020680568206837
:10047000C668206847695FF000085FF0000915F062
:100480000F008046B8F1000F18D1A80605D5B006B8
:1004900003D5200000F036F996E0E8060ED5F00608
:1004A0000CD500200090206800680090206840680B
:1004B00000900098200000F089F885E0B8F1000F66
:1004C00072D0F80702D416F4907F6DD015F00100B9
:1004D000C0B2002805D0F00503D5E06B50F0010054
:1004E000E063680708D517F00100C0B2002803D008
:1004F000E06B50F00200E063A80708D517F0010098
:10050000C0B2002803D0E06B50F00400E06328077D
:1005100008D517F00100C0B2002803D0E06B50F0FE
:100520000800E063E06B00283DD0A80604D5B006C3
:1005300002D5200000F0E6F820684069800910F03C
:1005400001008146E06B000702D4B9F1000F25D00D
:10055000200000F074F82068406940061AD5206831
:10056000406930F0400021684861606B00280DD080
:100570000FF2ED00616B0865606B00F0F3FB002883
:1005800011D0606B616B096D88470CE0200000F0B2
:10059000BAFC08E0200000F0B6FC04E0200000F007
:1005A000B2FC0020E0630FE0280605D5300603D535
:1005B000200000F060F807E0680605D5700603D556
:1005C000200000F08FF8FFE7BDE8F18370472DE9C8
:1005D000F04104000D0016001F00DDF818802068AF
:1005E00000682840A84201D1012000E00020F6B2B6
:1005F000B04221D118F1010FF1D0B8F1000F04D0B1
:1006000000F029FBC01B8045E9D22068C06830F4A7
:10061000D0702168C86020684069400840002168A7
:100620004861202084F83900202084F83A00002016
:1006300084F83800032000E00020BDE8F081016864
:10064000C96831F490710268D1600168496949084C
:10065000490002685161202180F83A10704700007B
:1006600038B50400A56B0020E8850020E884280048
:1006700000F049FC31BD010091F8390021282FD14B
:100680008868B0F5805F11D1086A02001088C00543
:10069000C00D0B6858600869002803D1086A801CE7
:1006A000086209E0086A401C086205E0086A431C09
:1006B0000B6200780B685860C88C401EC884C88CD8
:1006C00000280BD10868C06830F080000B68D86043
:1006D0000868C06850F040000B68D860002000E057
:1006E0000220704710B504002068C06830F0400058
:1006F0002168C860202084F83900200000F002FC46
:10070000002010BD38B5040094F83A00222847D1E3
:10071000A068B0F5805F15D1A06A050020690028A7
:1007200008D120684068C005C00D2880A06A801CE0
:10073000A06219E020684068C0B22880A06A401C0E
:10074000A06211E02069002806D1A06A411CA162C4
:1007500021684968017007E0A06A411CA162216814
:10076000496811F07F010170E08D401EE085E08D49
:10077000002813D12068C06830F490702168C860E8
:10078000206840694008400021684861202084F8C2
:100790003A00200000F0B5FB002002E0002000E05D
:1007A000022032BD2DE9F8430400002520680069CD
:1007B000050035F44055E068054320680561206870
:1007C000C0680500BC480540A0682169084361690C
:1007D0000843E169084305432068C5602068406913
:1007E000050035F44075A069054320684561E0695E
:1007F000B0F5004F40F0B0802068B049884203D087
:100800002068AF49884253D100F08EFE814600F047
:100810008BFE804600F088FE070000F085FE060093
:1008200000F082FE192101FB09F162685200B1FB60
:10083000F2F16422B1FBF2F1192202FB08F26368C3
:100840005B00B2FBF3F2192303FB07F367687F0039
:10085000B3FBF7F36427B3FBF7F3642707FB13221B
:10086000D20032326423B2FBF3F212F0F8025200EB
:1008700012EB0111192202FB06F263685B00B2FB66
:10088000F3F21923584363685B00B0FBF3F0642371
:10089000B0FBF3F0642303FB1020C000323064226D
:1008A000B0FBF2F010F0070040182168886000E10A
:1008B00000F02AFE814600F027FE804600F024FE6C
:1008C000070000F021FE060000F01EFE192101FBCA
:1008D00009F162685200B1FBF2F16422B1FBF2F15E
:1008E000192202FB08F263685B00B2FBF3F21923E2
:1008F00003FB07F367687F00B3FBF7F36427B3FBE1
:10090000F7F3642707FB1322D20032326423B2FBD1
:10091000F3F212F0F802520012EB0111192202FB5D
:1009200006F263685B00B2FBF3F219235843636875
:100930005B00B0FBF3F06423B0FBF3F0642303FB34
:100940001020C00032306422B0FBF2F010F007003B
:10095000401821688860ACE020685849884203D07C
:1009600020685749884252D100F0DEFD814600F0F0
:10097000DBFD804600F0D8FD070000F0D5FD060045
:1009800000F0D2FD192101FB09F162689200B1FB70
:10099000F2F16422B1FBF2F1192202FB08F2636862
:1009A0009B00B2FBF3F2192303FB07F36768BF0058
:1009B000B3FBF7F36427B3FBF7F3642707FB1322BA
:1009C000120132326423B2FBF3F212F0F00212EBA6
:1009D0000111192202FB06F263689B00B2FBF3F2DD
:1009E0001923584363689B00B0FBF3F06423B0FB0A
:1009F000F3F0642303FB1020000132306422B0FBCB
:100A0000F2F010F00F0040182168886051E000F00B
:100A10007BFD814600F078FD804600F075FD070003
:100A200000F072FD060000F06FFD192101FB09F1D5
:100A300062689200B1FBF2F16422B1FBF2F119227B
:100A400002FB08F263689B00B2FBF3F2192303FB7D
:100A500007F36768BF00B3FBF7F36427B3FBF7F353
:100A6000642707FB1322120132326423B2FBF3F234
:100A700012F0F00212EB0111192202FB06F2636878
:100A80009B00B2FBF3F21923584363689B00B0FB51
:100A9000F3F06423B0FBF3F0642303FB10200001A8
:100AA00032306422B0FBF2F010F00F0040182168E1
:100AB0008860BDE8F1830000F369FFFF001001408A
:100AC0000014014010B586B004004648844262D14B
:100AD000002000904048006850F001003E49086046
:100AE0003D48006810F00100009000980020009040
:100AF0003948006850F001003749086036480068FE
:100B000010F0010000900098002000903348006829
:100B100050F01000314908603048006810F01000B3
:100B200000900098002000902C48006850F480400D
:100B30002A4908602948006810F480400090009815
:100B40004FF40070019002200290002003900720D3
:100B500005900320049001A9214800F017FD4FF4EF
:100B6000806001900720059001A91D4800F00EFD4E
:100B70004FF480500190012003900720059001A9B7
:100B8000174800F003FD00220321252000F01CFF80
:100B9000252000F02CFF06B010BD10B50400114850
:100BA000844218D11048006850F010000E490860C7
:100BB0000D48006830F010000B4908604FF40071D8
:100BC000074800F0C6FD4FF48061054800F0C1FD04
:100BD000252000F013FF10BD303802404438024099
:100BE00000000240401A00202438024080B522480C
:100BF000006850F40070204908601F48006850F4F5
:100C000080601D4908601C48006850F480701A49D3
:100C10000860032000F0D2FE0F2000F004F800F07E
:100C20000DFF002002BD10B50400144800684FF409
:100C30007A71B0FBF1F000F0E8FE002221005FF0D5
:100C4000FF3000F0C1FE002010BD0D480068401CC0
:100C50000B49086070470A480068704711B581B0B9
:100C60000024FFF7F8FF0400FFF7F5FF001B0199D0
:100C70008842F9D313BD0000003C02405801002017
:100C8000581B0020F8B504000025FFF7E4FF06001C
:100C9000002C01D1012064E0606A0028002084F863
:100CA0003400022084F835002068006840084000C5
:100CB0002168086020680068C0070BD5FFF7CBFFEC
:100CC000801B0628F6D320206065032084F83500B9
:100CD000032046E0206800680500DFF8E0000540DA
:100CE0006068A1680843E1680843216908436169B5
:100CF0000843A1690843E1690843216A08430543A1
:100D0000606A042803D1E06A216B08430543206828
:100D10000560206840690500ED08ED00606A054344
:100D2000606A04280DD1A06A0543200000F04AF84B
:100D3000002806D040206065012084F8350001209D
:100D40000FE020684561200000F020F807003F20F8
:100D5000E16D8840B86000206065012084F83500AE
:100D60000020F2BD010091F83500022803D0802058
:100D70004865012009E0052081F835000868006811
:100D8000400840000A681060002070470178C9B22E
:100D900010391822B1FBF2F1094A8A5CC2650429B4
:100DA00005D30268920A9202121D826503E002686E
:100DB000920A92028265806D704700003F8010F0B9
:100DC000143D000810B4010000208A6A8B69002BD2
:100DD0001CD1002A05D0022A10D008D3032A13D030
:100DE00013E0CB6ADB0101D5012318003EE0CB6A9A
:100DF000B3F1C07F01D10123180037E0CB6ADB01DA
:100E000001D50123180031E030E02FE08B69B3F504
:100E1000005F1BD1002A05D0022A0CD005D3032A7B
:100E20000CD012E00123180020E0CB6ADB0101D5D1
:100E3000012318001AE00123180017E0CB6AB3F170
:100E4000C07F01D10123180010E00FE01300002B38
:100E5000022B02D9DB1E03D008E00123180005E0B5
:100E6000CB6ADB0101D501231800FFE7C0B210BC3B
:100E700070470268531C0360117070470068400D92
:100E800010F0010070474068C00A10F00100704780
:100E9000816851F4001181607047C16851F40061AC
:100EA000C1607047704780B5002000F0C9FDFBE7C6
:100EB00080B5002000F0C4FDFBE780B5002000F005
:100EC000BFFDFBE780B5002000F0BAFDFBE780B571
:100ED000002000F0B5FD01BD80B5002000F0B0FDA0
:100EE00001BD704780B51D4800F0BEFD01BD80B555
:100EF0001B4800F0B9FD01BD80B5FFF7A6FE01BD9E
:100F000070477047704710B50400200001F03AF9AF
:100F100010BD80B51348FFF7A5FA01BD80B5124892
:100F20000068FFF79FFA01BD80B51048FFF7ABFFDF
:100F3000012804D10D48FFF7B0FF00F08CFF01BD80
:100F400080B50B48FFF79AFF012804D10848FFF746
:100F50009FFF00F0BBFF01BD00000000801A0020D1
:100F6000BC1A0020401A00205C1B002000600240D8
:100F70000064024070B582B0040000252078C007EC
:100F800041D5DFF8C405006810F00C0004280BD030
:100F9000DFF8B405006810F00C0008280ED1DFF867
:100FA000AC050068400209D5DFF8A405006880039D
:100FB00029D56068002826D1012076E16068DFF835
:100FC00094150870606800280ED0FFF744FE0500F5
:100FD000DFF87C050068800315D4FFF73CFE401B5A
:100FE0006528F5D3032060E1FFF735FE0500DFF843
:100FF00060050068800306D5FFF72DFE401B6528BD
:10100000F5D3032051E12078800766D5DFF8380555
:10101000006810F00C0F0BD0DFF82C05006810F002
:101020000C0008281FD1DFF82405006840021AD4FC
:10103000DFF81C050068800704D5E068012801D0AE
:10104000012032E1DFF8080500685FF0F851B1FADD
:1010500081F130F0F800226912FA01F10843DFF85B
:10106000F014086039E0E068002823D00120DFF8A0
:10107000E8140860FFF7EFFD0500DFF8D40400680E
:10108000800706D4FFF7E7FD401B0328F5D30320B4
:101090000BE1DFF8BC0400685FF0F851B1FA81F1B0
:1010A00030F0F800226912FA01F10843DFF8A014C9
:1010B000086012E00020DFF8A0140860FFF7CBFD05
:1010C0000500DFF88C040068800706D5FFF7C3FD34
:1010D000401B0328F5D30320E7E02078000728D53C
:1010E0006069002812D00120DFF870140860FFF753
:1010F000B2FD0500DFF868040068800719D4FFF727
:10110000AAFD401B0328F5D30320CEE00020DFF822
:101110004C140860FFF79FFD0500DFF844040068E9
:10112000800706D5FFF797FD401B0328F5D3032062
:10113000BBE02078400750D500200090DFF8240461
:10114000006850F08050DFF81C140860DFF81404C9
:10115000006810F0805000900098DFF80C040068E0
:1011600050F48070DFF800140860FFF774FD05008C
:10117000DFF8F4030068C00506D4FFF76CFD401BE0
:101180000328F5D3032090E0A068DFF8E01308708F
:10119000A068002810D0FFF75EFD0500DFF8CC0343
:1011A0000068800719D4FFF756FD401B41F28931D2
:1011B0008842F3D3032078E0FFF74DFD0500DFF808
:1011C000AC030068800708D5FFF745FD401B41F2DE
:1011D00089318842F3D3032067E0A069002863D0F7
:1011E000DFF86403006810F00C0008285AD0A069EA
:1011F000022844D10020DFF878130860FFF72BFDA8
:101200000500DFF84C030068800106D5FFF723FDD9
:10121000401B0328F5D3032047E0DFF85803B0FA5A
:1012200080F24FF44040B0FA80F0F021B1FA81F141
:10123000E369266A3343666A16FA02F21A43A36A1E
:101240005B085B1E13FA00F01043E26A12FA01F128
:101250000843DFF8F81208600120DFF81413086073
:10126000FFF7F9FC0500DFF8E802006880011BD4F5
:10127000FFF7F1FC401B0328F5D3032015E0002005
:10128000DFF8EC120860FFF7E6FC0500DFF8C002AB
:101290000068800108D5FFF7DEFC401B0328F5D36A
:1012A000032002E0012000E0002076BD70B50400BC
:1012B0000D000026DFF8C002006810F00F00A84201
:1012C0000BD2DFF8B4020570DFF8AC02006810F052
:1012D0000F00A84201D00120C0E02078800709D586
:1012E000DFF86402006830F0F000A1680843DFF81E
:1012F000581208602078C00772D56068012806D1AE
:10130000DFF84C020068800315D40120A6E0606875
:10131000022802D06068032806D1DFF83402006892
:10132000800108D4012099E0DFF8240200688007DA
:1013300001D4012092E0DFF81002006880088000EC
:1013400061680843DFF800120860FFF784FC0600BC
:10135000606801280FD1DFF8F001006810F00C0080
:1013600004283DD0FFF777FC801B41F28931884289
:10137000F1D3032072E0606802280FD1DFF8C801C2
:10138000006810F00C0008282AD0FFF764FC801BCE
:1013900041F289318842F1D303205FE0606803287D
:1013A0000FD1DFF8A401006810F00C000C2817D052
:1013B000FFF751FC801B41F289318842F1D30320B1
:1013C0004CE0DFF88401006810F00C0F08D0FFF744
:1013D00042FC801B41F289318842F2D303203DE078
:1013E000DFF89401006810F00F0085420BD2DFF89F
:1013F00088010570DFF88001006810F00F00A84236
:1014000001D001202AE02078400707D54E48006827
:1014100030F4E050E16808434B4908602078000749
:1014200008D54948006830F46040216950EAC1009D
:101430004549086000F013F8434909685FF070629D
:10144000B2FA82F24D4B11F0F001D140C95CC840B4
:101450004B4908600F20FFF7E6FB002070BD70B419
:101460000021002200230020374C246814F00C04D3
:10147000002C04D0042C05D0082C06D03DE0414CB3
:1014800020003CE0404C200039E0304C246814F04F
:101490003F0421002D4C246864020FD52B4C246896
:1014A000394DB5FBF1F547F6C0763440314EB6FA0A
:1014B00086F6F44004FB05F422000EE0234C246879
:1014C000304DB5FBF1F547F6C0763440294EB6FAFB
:1014D00086F6F44004FB05F422001C4C246814F446
:1014E00040344FF44045B5FA85F5EC40641C640087
:1014F0002300B2FBF3F4200001E0224C200070BC7A
:1015000070471F480068704780B5FFF7FAFF0E4923
:1015100009685FF46012B2FA82F2184B11F4E051DC
:10152000D140C95CC84002BD80B5FFF7EAFF06495B
:1015300009685FF4E022B2FA82F2104B11F46041C4
:10154000D140C95CC84002BD08380240043802409E
:10155000003802400238024000004742800E4742F5
:101560007438024040380240007000407038024039
:10157000600047420000FE03003C0240CC3C0008F3
:10158000580100200024F40040787D01F8B40023C5
:101590000024002500263200102A80F0D880012681
:1015A000964033000E681E4034009C4240F0CD80CF
:1015B0004E68022E02D04E68122E16D1D60810EBBD
:1015C0008606366A35000F2612F00707FFB2BF0005
:1015D000BE40B5430E6912F00707FFB2BF00BE4020
:1015E0003543D60810EB86063562066835000326BB
:1015F0001700FFB27F00BE40B5430E7916F0030618
:101600001700FFB27F00BE40354305604E68012ED3
:1016100008D04E68022E05D04E68112E02D04E68BA
:10162000122E19D18668350003261700FFB27F00FD
:10163000BE40B543CE681700FFB27F00BE403543C1
:1016400085604668350001269640B5434E68C6F36E
:101650000016964035434560C668350003261700DE
:10166000FFB27F00BE40B5438E681700FFB27F0017
:10167000BE403543C5604E68F60066D5002600962C
:101680008A4E366856F48046884F3E60874E3668EC
:1016900016F480460096009E854E970856F82760FF
:1016A00035000F2612F00307FFB2BF00BE40B5435E
:1016B000804EB04201D1002614E07F4EB04201D1ED
:1016C00001260FE07D4EB04201D102260AE07C4E99
:1016D000B04201D1032605E07A4EB04201D1042682
:1016E00000E00726F6B212F00307FFB2BF00BE40CB
:1016F00035436F4E970846F82750734E36683500CD
:10170000A5434E68F60300D525436F4E35606F4EF6
:1017100036683500A5434E68B60300D525436B4EA9
:1017200035606B4E36683500A5434E68F60200D52D
:101730002543674E3560674E36683500A5434E68D1
:10174000B60200D52543634E3560521C24E7F1BC38
:101750007047F0B500220023002400263500102D2C
:1017600080F098800126AE40320012EA0106330074
:10177000934240F08D8006680327AC465FFA8CFCEC
:101780005FEA4C0C17FA0CF7BE430660EE0810EB4C
:101790008606EF0810EB87073F6A5FF00F0C15F025
:1017A000070E5FFA8EFE5FEA8E0E1CFA0EFC37EA19
:1017B0000C07376286680327AC465FFA8CFC5FEA49
:1017C0004C0C17FA0CF7BE43866046680127AF4001
:1017D000BE434660C6680327AC465FFA8CFC5FEAEE
:1017E0004C0C17FA0CF7BE43C660314EAF0856F8E2
:1017F000276034000F2615F00307FFB2BF00BE407C
:1018000034402C4EB04201D1002614E02A4EB042A2
:1018100001D101260FE0294EB04201D102260AE093
:10182000274EB04201D1032605E0264EB04201D139
:10183000042600E00726F6B215F00307FFB2BF004A
:10184000BE40B44224D10F2615F00307FFB2BF00FB
:10185000BE403400164EAF0856F82760A643144F1A
:101860005FEA950C47F82C60174E36689E43164F7A
:101870003E60164E36689E43144F3E60144E3668E6
:101880009E43134F3E60134E36689E43114F3E6099
:101890006D1C64E7F0BDD2B2002A02D089B281612A
:1018A00002E089B20B0483617047000044380240B3
:1018B00008380140000002400004024000080240D5
:1018C000000C024000100240003C0140043C01407A
:1018D000083C01400C3C014010F007024E4B1B68D5
:1018E00019004FF6FF0319404C4B53EA02231943EA
:1018F000494B1960704748480068C0F302207047A0
:10190000012110F01F029140454A40B2430942F8BC
:1019100023107047012110F01F029140414A40B24C
:10192000430942F82310704710B440B2002808D58C
:101930000A013D4B40B210F00F04E31803F8042CE9
:1019400003E00A01394B40B2C25410BC704770B476
:10195000030013F00704D4F10706052E01D3042079
:1019600001E0D4F10700261D072E01D2002500E07A
:10197000E51E012616FA00F0401E0840A84001218D
:10198000A940491E1140084370BC704710B50400BF
:10199000601EB0F1807F01D301200EE0601E24495B
:1019A00008600F215FF0FF30FFF7BEFF00202149E4
:1019B0000860072020490860002010BD10B5040011
:1019C0002000FFF789FF10BDF8B504000D001600D8
:1019D0000027FFF790FF0700320029003800FFF7CB
:1019E000B6FF0100200040B2FFF79EFFF1BD10B529
:1019F0000400200040B2FFF783FF10BD10B50400C3
:101A0000200040B2FFF786FF10BD10B50400200093
:101A1000FFF7BCFF10BD00000CED00E00000FA0570
:101A200000E100E080E100E018ED00E000E400E00B
:101A300014E000E018E000E010E000E07047200053
:101A400010B504000122DFF81800E4B230F81410D9
:101A5000DFF81000E4B250F82400FFF71CFF10BDBF
:101A60003E1A00085401002010B5040020680069E7
:101A700080071AD52068C068800716D57FF002005D
:101A800021680861012020762068806910F0030F2A
:101A900003D0200000F0A4F805E0200000F09FF83B
:101AA000200000F09EF800202076206800694007A2
:101AB0001AD52068C068400716D57FF00400216859
:101AC0000861022020762068806910F4407F03D0EE
:101AD000200000F085F805E0200000F080F82000EC
:101AE00000F07FF8002020762068006900071AD5F2
:101AF0002068C068000716D57FF0080021680861DB
:101B0000042020762068C06910F0030F03D0200065
:101B100000F066F805E0200000F061F8200000F019
:101B200060F80020207620680069C0061AD5206879
:101B3000C068C00616D57FF0100021680861082033
:101B400020762068C06910F4407F03D0200000F0A8
:101B500047F805E0200000F042F8200000F041F8CE
:101B60000020207620680069C0070AD52068C06878
:101B7000C00706D57FF00100216808612000FFF74B
:101B8000BFF92068006900060AD52068C068000611
:101B900006D57FF0800021680861200000F0DFFB9F
:101BA0002068006940060AD52068C068400606D54E
:101BB0007FF0400021680861200000F013F82068E1
:101BC000006980060AD52068C068800606D57FF0C7
:101BD000200021680861200000F0C0FB10BD7047A4
:101BE0007047704770470000DFF83C258A5C821818
:101BF000126852F00102DFF83035CB5CC3181A606E
:101C0000704710B4DFF82035CB5CC3185B681B0C41
:101C10001B041343DFF810450C5D0419636010BC0E
:101C2000704730B4029C402C0AD1DFF8FC544D5D63
:101C30004519EA60DFF8F0544D5D4519AB6009E0E5
:101C4000DFF8E4544D5D4519AA60DFF8DC544D5DC2
:101C50004519EB6030BC7047DFF8CC248A5C8218F1
:101C6000126852F01002DFF8C034CB5CC3181A605F
:101C7000704738B500200090DFF8B004006850F4D9
:101C80000010DFF8A8140860DFF8A004006810F462
:101C90000010009000985FF00060DFF89414486036
:101CA0000020DFF88C1488600020DFF88414C860FE
:101CB0000020DFF87C1408610020DFF8741448610C
:101CC0000020DFF86C1488610020DFF86414C8611C
:101CD0005FF48030DFF8581408620020DFF85014F9
:101CE00048620320DFF8481488625FF40000DFF8E0
:101CF0004014C8625FF40010DFF834140863DFF8A2
:101D00003404DFF82C140860DFF82404FEF7BAFF6F
:101D1000002801D000F047FA002200211020FFF730
:101D200053FE1020FFF763FEDFF80C44DFF80C547D
:101D3000002000902B0022000521DFF80404FFF7AB
:101D400070FF01220521DFF8F803FFF75AFF052194
:101D5000DFF8EC03FFF780FF0521DFF8E403FFF76E
:101D600043FF00200090DFF8C403006850F48000B7
:101D7000DFF8B8130860DFF8B403006810F48000DF
:101D8000009000985FF00060DFF8B8134860002012
:101D9000DFF8B01388600020DFF8A813C8600020C7
:101DA000DFF8A01308610020DFF8981348610020D5
:101DB000DFF8901388610020DFF88813C8615FF4B2
:101DC0008030DFF8801308620020DFF87813486263
:101DD0000320DFF8701388625FF40000DFF86413FB
:101DE000C8625FF40010DFF85C130863DFF8580383
:101DF000DFF850130860DFF84C03FEF743FF0028BC
:101E000001D000F0D0F9002200213A20FFF7DCFDDC
:101E10003A20FFF7ECFDDFF834030400DFF830036D
:101E20000500002000902B0022000221DFF824038F
:101E3000FFF7F7FE01220221DFF81803FFF7E1FEAA
:101E40000221DFF81003FFF707FF0221DFF8040388
:101E5000FFF7CAFE31BD80B50120DFF8FC1281F822
:101E600038000020DFF8F012C8632120DFF8E81204
:101E700081F83900DFF8C402DFF8DC1208620120C3
:101E8000DFF8D41288840120DFF8CC12C884002047
:101E9000DFF8C41281F83800DFF8BC020068C068BF
:101EA00050F08000DFF8B0120968C8600521DFF843
:101EB0009002FFF7D1FE0521DFF88402FFF794FEC0
:101EC0000020DFF8941281F8380001BD80B50120B0
:101ED000DFF88812096881F838000020DFF87C12EA
:101EE0000968C8632120DFF87412096881F8390095
:101EF000DFF85C02DFF86412096808620120DFF88D
:101F00005C12096888840120DFF850120968C884CF
:101F10000020DFF84812096881F83800DFF83C0239
:101F200000680068C06850F08000DFF8301209686F
:101F30000968C8600221DFF81C02FFF78DFE02214C
:101F4000DFF81002FFF750FE01BD80B54FF480614D
:101F5000DFF80C0200F004FADFF80802407810F015
:101F6000F100DFF8001248700020DFF8FC11087063
:101F700000F07CF800F008F83221DFF8F00100F002
:101F8000FBF9FFF776FE01BD7648007850F00800B7
:101F9000744908707348007850F0800071490870E7
:101FA0007048007810F0BF006E4908706D484078A6
:101FB00010F0F1006B49487000206A494874002015
:101FC0006849C874002067498874002065494860E2
:101FD0006448407810F0FE0062494870FF20614973
:101FE000C87502205F49087502205E4948750020C7
:101FF0005C49887500205B49C8605D48006850F006
:1020000001005B4908605A48006850F002005849D6
:1020100008605748D0F8020030F080505449C1F8A9
:1020200002005348C07910F0DF005149C871504890
:10203000807950F001004E4988714D48C07910F008
:10204000EF004B49C8714A48C07910F0BF004849B9
:10205000C8714748C07910F07F004549C8714448AD
:10206000007A10F0FE0042490872704770B541488E
:10207000C07910F0C7003F49C87100203D49C1F840
:10208000A40000203B49C1F8980000203949C1F85C
:10209000A00000203749C1F8B00000203549C1F840
:1020A000A80000203349A1F8900000203149C1F870
:1020B000B40000202F49C1F8BC0000202D49C1F810
:1020C000C00000202B49487300202A49C1F8C400F1
:1020D00000202849A1F88C000A202649A1F8920086
:1020E0004FF400640025244E2A002100300000F047
:1020F00053F970BD80B500224FF480511F48FFF79F
:10210000CAFB012212491448FEF77AF9002803D0CD
:102110001B4800F075F905E01548006850F40050C0
:102120001349086001BD00001C3D00083038024022
:102130005C1800208860024004440040651B0020B9
:1021400000600240BC1800204064024004100140BE
:102150003E17002000640240401A00205C1B002053
:10216000BC1900202C1B0020641B0020D01900206B
:10217000441B0020F01600206009002000000240EF
:102180000C3C000810B5040000F00DF810BD70B54F
:102190004FF400640025DFF8A8612A002100300018
:1021A00000F0FAF870BD80B50020FFF749FC01BDD2
:1021B00010B5040028480078C0F30010C0B2002811
:1021C00008D125480078C0F38010C0B2002801D1A2
:1021D00005203EE0DFF86C01006810F4407F01D07C
:1021E000102036E0DFF85C01006850F48050DFF822
:1021F00054110860A4B2002C05D1DFF84C0100F0A6
:10220000FFF81F2025E04FF47A73220092B2DFF826
:102210003011DFF83801FEF711F8002807D0FFF77A
:10222000C2FFDFF82C0100F0EBF80F2011E0DFF81F
:102230001401006830F48050DFF808110860DFF8FE
:1022400004010068C0F34030002801D1FFF752FFBD
:10225000002010BD000000002C1B002070B5040001
:102260000D000026FFF793FF2B0022003949344868
:1022700000F0D8F8324800F0EFF84FF47A7302001B
:1022800092B22F493148FDF7D9FF002803D0FFF75C
:102290008AFF0F2005E0082000F024F80600300037
:1022A000C0B270BD10B50024FFF771FF22A1244811
:1022B00000F0B8F8224800F0CFF880B2FFF778FFBE
:1022C0000400E4B2002C09D1082000F00BF804004F
:1022D000E4B2002C02D1204800F092F82000C0B2F5
:1022E00010BD0000F0B591B00400402500266F46F7
:1022F00032002900380000F04FF80027A4B2412C2A
:1023000015DA4FF47A73220092B269460F48FEF74D
:1023100004F8002803D0FFF746FF0F2009E007A1CB
:10232000684600F0B4F8002801D10D2001E0380023
:10233000C0B211B0F0BD000041540D004F4B000081
:1023400060010020441B0020EC3B0008401A0020E4
:102350005C3C0008983C0008DC3C00087047704773
:102360008160002202600022C26000224260014AB5
:10237000026170476011002008231A0012FB01F36C
:102380008380002303800023C38000234380014B0C
:10239000836070476015002062F30F2262F31F42D2
:1023A000401810F0030308D0C91A1FD3DB0748BF39
:1023B00000F8012D28BF20F8022D130030B4144678
:1023C0001546103928BF20E93C00FAD8490728BF34
:1023D00020E90C0048BF40F8042D890028BF20F8F0
:1023E000022D48BF00F8012D30BC7047C91818BF36
:1023F00000F8012DCB0728BF00F8012D7047000021
:102400000EB400B582B003A9009102466B460121CB
:10241000034878440A3000F043F806BC5DF810FB2E
:10242000551800000CB41CB5044604A801900A46D7
:10243000009401AB694607487844183000F030F842
:10244000009A0021117000285CBF0098001B16BC88
:102450005DF80CFB1FEAFFFF00F10103810704D0C8
:1024600010F8011B89B18107FAD10268B2F101317C
:10247000914311F0803F04BF50F8042FF6E710F8A5
:10248000011B11B110F8011BFBE7C01A704738B5EA
:1024900004000D002900200000F0D4FB32BD000034
:1024A0002DE9F04F80460FF2847095B092461D469C
:1024B000D0E90023CDE9132303AE00200391B061DE
:1024C0000DF1340900E0A2440020ADF8020013AB86
:1024D0004FF0FF3251460DF1020000F0C9FB0446F7
:1024E000012C05DA9AF80000441EA441E443E40FED
:1024F000BDF8020025280CBFA4F1010BA346BBF1D7
:10250000010F0EDB574617F8011B0398C047002840
:10251000039000F0CE81B069401CBBF1010BB061AB
:10252000F1D1BDF80200252804D10020F06030610F
:10253000706105E00028C6D1B069BCE140F001003F
:102540001AF8011F2029F9D023290DD02B2904D0F6
:102550002D2906D030290AD00CE040F0020080B2CC
:10256000EEE740F00400FAE740F00800F7E740F03B
:102570001000F4E72A290FD12968296051F8042BAB
:102580002960002A326204D5514240F004003162D1
:1025900080B20AF1010A15E0002131620CE0316AD3
:1025A0006FF00043994205D001EB810302EB430138
:1025B000303931620AF1010A9AF80020A2F13001A3
:1025C0000A29ECD39AF800102E2903D04FF0FF31DE
:1025D000F16122E01AF8011F2A2908D1296829602F
:1025E0000AF1010A51F8042B2960F26115E000217B
:1025F000F1610CE0F1696FF00043994205D001EB05
:10260000810302EB43013039F1610AF1010A9AF8C2
:102610000020A2F130010A29ECD3B0840FF214603B
:102620009AF8001000F034FB08B11AF8010B8DF88D
:1026300032009DF83200682804BF9AF8000068282C
:1026400004D162208DF832000AF1010A0DA8B060B1
:102650001AF8014B252C13D0582C40D0632C00F0D5
:102660009880642C18BF692C71D06F2C37D0702CD7
:102670002BD0732C0AD0752C18BF782C2FD0ABE040
:102680000120F06025208DF83400AFE09DF8320085
:102690006C282868286014D050F8044B28607460B7
:1026A000F769002F04D52046FFF7D6FE074606E05F
:1026B0003A460021204600F0F7FA00B1071B3761C7
:1026C00094E050F8042B28607FE02868286050F8D8
:1026D000041B286002910DA87060782155E09DF8D8
:1026E00032006C280DD0712818BF6A2809D12868DB
:1026F000C01D20F007022A60D2E9000108322A60DA
:1027000004E02968296051F8040B296002909DF8C3
:102710003200682802D102A8008803E0622802D1B2
:1027200002A80078029096F82400000728D50298A5
:1027300030B344F02000782822D1F068302100F82E
:102740000910401C411CF16000F8094018E09DF898
:102750003200294600F0B2F80028029002D5F06855
:102760002D2109E0B08C810702D5F0682B2103E010
:10277000C00705D5F068202100F80910401CF06062
:102780000DA8F16808187060214602A800F0CFF982
:102790002CE09DF832006C2809D00120F0602868F8
:1027A000286050F8041B28608DF834101EE028685B
:1027B000286001AA50F8041B2860ADF8041000201E
:1027C000ADF806004FF0FF30F06102A9404600F07E
:1027D0009BF800280AD56CE00120F06025208DF8D8
:1027E00034001CB10220F06089F80140306AF168C1
:1027F000401A7169401A3169441A96F8240040075A
:102800000FD420208DF80000002708E001236A463D
:1028100002A9404600F0F2F900284AD17F1CA742E5
:10282000F4DBF7680DF1340B0AE01BF8011B039889
:10283000C047002803903CD0B069401CB0617F1EA7
:10284000002FF2D130208DF800004FF0000B776997
:1028500008E001236A4602A9404600F0CFF940BBD8
:102860000BF1010BBB45F4DB3769D6F804B009E086
:102870001BF8011B0398C0470390D0B1B069401CFE
:10288000B0617F1E002FF3D196F8240040077FF53A
:102890001BAE20208DF8000000E07F1CA742BFF691
:1028A00013AE01236A4602A9404600F0A7F90028AA
:1028B000F3D04FF0FF3015B0BDE8F08F622815D08F
:1028C00068280CD06C2818BF742816D07A2814D128
:1028D0000A680A6052F8040B0A60002170470A680F
:1028E0000A6052F8040B0A6000B20BE00A680A6042
:1028F00052F8040B0A6040B204E00A680A6052F819
:10290000040B0A60C11770472DE9F44F0D4694B0CF
:10291000D5F820A0BAF1000F804648BF6FF0004AFA
:1029200000F0EEF9696A401801900FF21030D0E91A
:102930000023CDE9022395F82800400702D401982E
:10294000412805D240200DF110090190002607E032
:1029500000F0DCF95FEA0009F8D1AAE7AAEB040A63
:10296000BAF1010FC0F28B801498018802AA0DF110
:10297000010000F023FA0028044600F18E8014982C
:10298000008810B9641E00F18880A24577DB2869B1
:1029900001992218914260D26E624042A969401AA0
:1029A0006969461A95F8280040070FD420208DF851
:1029B0000000002708E001236A462946404600F04F
:1029C0001DF9002869D17F1CB742F4DB2F69CB4683
:1029D0000AE01BF8011B6868C047002868605CD0EB
:1029E000E869401CE8617F1E002FF2D130208DF88D
:1029F00000004FF0000BAF6909E001236A46294649
:102A0000404600F0FBF8002847D10BF1010BBB4515
:102A1000F3DB6F69D5F808B009E01BF8011B6868A3
:102A2000C0476860C8B3E869401CE8617F1E002F9A
:102A3000F3D195F8280040070DD520208DF800002F
:102A400007E001236A462946404600F0D7F820BB3C
:102A50007F1CB742F5DB00262E61224628690DF166
:102A60000101484400F0B8F9286920182861149839
:102A7000801C1490801E008800287FF46FAF686A65
:102A80002969401AA969401A6969A0EB010A95F8F9
:102A90002800400710D400240CE04FF0FF363EE041
:102AA00068682021C04700286860F6D0E869401CAB
:102AB000E861641C5445F3DB2B694A4629464046CD
:102AC00000F09CF80028E8D1AC69002709E06868AC
:102AD0003021C04700286860DFD0E869401CE86109
:102AE0007F1CA742F3DB6B69AA682946404600F0C9
:102AF00085F80028D1D195F8280040070DD500248D
:102B000009E068682021C04700286860C5D0E869EE
:102B1000401CE861641C5445F3DB2E616E6204A81E
:102B200081451CBF484600F093F93046C3E6F0B437
:102B3000C2686F2908BF082405D041F02003782B14
:102B400014BF0A24102418230668642918BF6929B1
:102B5000374602D1002E48BF7F425FB9056A4DB9A2
:102B6000082C27D190F82810090723D530211723E6
:102B7000D1751FE0B7FBF4F604FB16773037FFB2D0
:102B80005D1E3A2FA4BFA1F1510C6744AF542B46F0
:102B9000370003D085689E18B542EBD3082C09D1C5
:102BA00090F82810090705D5995C302902D05B1EE2
:102BB000302199549A188260C3F11801026A416168
:102BC000914208DA511A81614FF6EF72018D11407E
:102BD0000185F0BC7047002A0ED590F8282002F03D
:102BE0001402102A08D1426A0369D21A8369D21AE0
:102BF000531A012BA8BF8361F0BC7047F8B5044697
:102C00000D4616461F46002004E0E869401CE861B6
:102C10007F1E002047B116F8011B6868A0470028F6
:102C20006860F2D14FF0FF30F2BD000000000000FC
:102C300000000000686C747A4C0000000000000086
:102C40000000000070B50C46257835B970BD11F84C
:102C5000013F1678B34206D0401C294600F018F810
:102C600028B10146224612F8013F002BEFD170BD7A
:102C7000F8B504460D4616461F4600F029F93B46B6
:102C800032462946204601B0BDE8F04000F037B991
:102C90000278C9B28A421AB11CBF10F8012FF9E7B5
:102CA00018BF002070470000C9B2830706D0521E2B
:102CB00022D310F8013B9942F7D11FE0083A13D311
:102CC00002F1040241EA012141EA014150F8043BCA
:102CD000121F21BF4B40A3F1013C2CEA030C1CF056
:102CE000803FF3D0C9B2001F083210F8013B521EDA
:102CF00028BF91EA030FF8D818BF0120401E704783
:102D000080B500F0E5F8012002BD000070B5054671
:102D100005F10F00C408C046C046E400A54232D207
:102D2000082C04D2082402E0083000F091F8224870
:102D3000026811000CD1011D0A6802B31368A34296
:102D400038BF111DF8D310E01D68A5420DD2191D22
:102D50000B68002BF8D11268011D00E0191D0B68EB
:102D600093420CD01D68A542F8D361B10D682A6862
:102D7000A2F10803A3420AD26A680A600FE000F0D9
:102D8000E1F80028D0D1C046C046002070BD6319CC
:102D90000B60121B6E685E600B681A602C6009681D
:102DA00000291DBF4A68002A091D00210160C04694
:102DB000C04605F1080070BD501B002070B50446E8
:102DC0000D46164600F084F8324629462046BDE8F6
:102DD000704000F087B8000062B38B0708D0521E25
:102DE00011F8013B00F8013B00F024808B07F6D17D
:102DF000830740F0208000BF103A07D330B4B1E819
:102E00003810103AA0E83810F9D230BC530724BF6C
:102E1000B1E80810A0E8081044BF51F8043B40F89E
:102E2000043BD20724BF31F8022B20F8022B44BF09
:102E30000B7803707047083A07D3B1E80810083AD6
:102E400040F8043B40F804CBF7D25307E4E7000016
:102E500000B9704738B5A0F108042068082833D3BA
:102E600010F0070F30D1C046C0461848416809B17C
:102E70008C4203D26160446017E019464B680BB185
:102E8000A342FAD30B685D18AC421BD3A54204D110
:102E90002268D2180A600C4607E04A681AB1236813
:102EA0001B199A420ED362604C60616851B122686E
:102EB00013198B4206D10023036008688018206034
:102EC00048686060C046C04631BD0000501B00200D
:102ED00080B5DFF80C0000F04BF8806902BD0000FF
:102EE0000800002030B430B90FF24800D0E90045A6
:102EF000C2E900451BE00170012030BC704730B4CE
:102F000031B90FF23800D0E90045C3E900450EE0C1
:102F10001AB930BC6FF00100704708B10A7802801E
:102F20000978481E804130BCC043C00F7047002064
:102F300030BC7047000000000000000000000000EE
:102F4000000000000749086808B1002070470648E3
:102F5000C008C00008600549C908C900091A016015
:102F6000704700BF601B00206F1F002068210020F9
:102F70007047000010B50024FDF738FE00F036F869
:102F80005FF4E13000F01AF95FF4E13000F046F947
:102F900000F098F85FF4E131794800F06EF8784875
:102FA00000F072F97748FFF72BFA7748FFF728FA15
:102FB0007648FFF725FA7648FFF722FA7548FFF7BB
:102FC0001FFA7148FFF71CFA7348FFF719FA7348A4
:102FD00000F060F90400E4B2002C04D07048FFF760
:102FE0000FFA002001E000BFFDE710BD00B593B06F
:102FF000002000906B48006850F0805069490860DC
:103000006848006810F08050009000980020009000
:103010006548006830F4404050F400406249086060
:103020006148006810F4404000900098022006902B
:103030000120099010200A9002200C9000200D9091
:1030400010200E904FF4A8700F90042010900720CD
:10305000119006A8FDF78EFF0F200190022002902C
:10306000002003904FF4805004900020059002212E
:1030700001A8FEF71BF913B000BD38B504000D0020
:103080004A48206065600020A0600020E0600020C9
:1030900020610020A0610C2060612000FDF7B5F8E0
:1030A000002801D0FFF77FF82000FDF773F8002813
:1030B00001D0FFF778F82068406950F0400021689F
:1030C000486131BD00B587B00020009038480068E5
:1030D00050F00100364908603548006810F00100E2
:1030E00000900098002000903148006850F00100E6
:1030F0002F4908602E48006810F0010000900098E9
:10310000002000902748006850F4003025490860EE
:103110002448006810F400300090009800200090CF
:103120002448006850F48040224908602148006823
:1031300010F480400090009804200190022002903A
:1031400001200390032004900720059001A91A484C
:10315000FEF71CFA08200190002002900220029045
:103160000720059001A91448FEF710FA012200215A
:103170002620FEF729FC2620FEF739FC07B000BD0B
:10318000001A0020C4390008843A0008C03A000838
:10319000FC3A0008383B0008043A0008F81A0020FE
:1031A000AC3C000840380240007000400044004041
:1031B00030380240443802400000024010B504009C
:1031C0002B482C4908602B4844600020294988601E
:1031D00000202849C86000202649086100202549B0
:1031E00088610C202349486100202249C861214898
:1031F000FDF70BF8002801D0FEF7D5FF1D48FCF7BE
:10320000C9FF002801D0FEF7CEFF1A4800684069C8
:1032100050F0400017490968486110BD38B50400F6
:103220001548007850F0100013490870FFF73AF87D
:103230000028FBD121001148FFF710F80500FEF728
:10324000A6FF0F490F48FFF7EDF80E48FFF704F906
:1032500080B2FEF7ADFF0500EDB2002D06D14FF4B0
:10326000FA70FDF7FBFC2000FFF7A8FF31BD00005E
:1032700000100140401A00202C1B0020BC3C00081C
:10328000FC3C00086001002001490860704700BF55
:103290005C1B002038B504000025FEF756FE280010
:1032A000C0B232BD10B4364A0021134653F8084B61
:1032B000844205D1002342F8313002EBC10113E012
:1032C00053F8084B491C84421EBF491C53F8084B55
:1032D00084421EBF491C53F8084B8442EAD0491C63
:1032E0001029E3D310BC70474B6010BC704770B41A
:1032F000234C0023254655F8086B8E4209D1014620
:1033000004EBC303012A04BF5A685118596070BC0A
:10331000704755F8086B5B1C8E421EBF5B1C55F84E
:10332000086B8E421EBF5B1C55F8086B8E42E6D0C0
:103330005B1C102BDFD370BC704710B4104A002107
:10334000134653F8084B844204D102EBC10010BC71
:103350004068704753F8084B491C84421EBF491C03
:1033600053F8084B84421EBF491C53F8084B844253
:10337000EBD0491C1029E4D310BC0020704700009A
:10338000DC1700202DE9F04104460D46207803218A
:10339000084216461F4658D0204600F09AF80028EA
:1033A00053D115B1D5E900018619012F3DD12088EF
:1033B000C00416D5A16904F13D02204600F0A6F82C
:1033C000626A804602B92269E168204600F09EF8F0
:1033D000A6EB08010E1AA26AE168204600F096F8F2
:1033E000361A46BB20884FF4405108420ED0606820
:1033F000E0602061A06260616068E06204F13D000D
:10340000A06104F12400E061002060622DB1D5E9E3
:10341000020104F13002C2E9000120884CF6FF618C
:10342000084020800020BDE8F081022F03D04FB972
:1034300016F1010F09D094F903003A46314600F025
:103440006AF8064616F1010FCCD100F08BF8232163
:1034500001604FF0FF30BDE8F081000038B500F0AA
:1034600087F80446208880042ED5656809E04A1B49
:10347000294600F08DF810F1010F18BF00280CD07C
:103480004519E16894F903008D42F0D30022002130
:1034900000F07EF810F1010F0DD16068E06060610E
:1034A000E062208840F400702080204600F061F83F
:1034B0004FF0FF3032BD6568E5606561E5624DF64D
:1034C000FF71208808402080204600F052F800203C
:1034D00032BDF8B5A0B9C046C04600240A4D082642
:1034E0004FF0FF37286820B1FFF7B8FF002848BF2A
:1034F0003C462D1D761EF5D1C046C0462046F2BD85
:10350000BDE8F240AAE7000034010020914234BF38
:10351000501A0020704730B583B004000D00012A16
:1035200002D1FFF70AFF07E0022A07D1009400202A
:10353000019069460C20ABBE2D1801E0002A0CD189
:103540000094019569460A20ABBE002805D10022EF
:1035500021002800FFF7CBFE01E00020C04303B0AC
:1035600030BD00000148FFF703BD00005C010020F2
:103570007047704701B55FF0FF3301226946034889
:103580000068FCF75BFE009802BD00005C1B002099
:10359000F8B504000D001600012C04D0022C02D056
:1035A0005FF0FF3009E000200700B74204D2785DE9
:1035B000FFF7E0FF7F1CF8E73000F2BD816807E00D
:1035C00002681168536889185B18C360083202608A
:1035D000C2689142F4D04A1C8260087870472DE995
:1035E000FF4D00F10801009100270268520801EB2D
:1035F000C2010191B8460021029103910168490876
:1036000000EBC101406800F0010501F10804400829
:1036100004EBC00630E06846FFF7D0FF4FFA80FAAF
:103620000AE0009801680818009902904968081893
:103630000390009808300090029803998842F0D0D7
:1036400010F801BB029047450CD1B44208BF00F00E
:103650001DF8276805B14F44606800EB070808347F
:103660004745F2D0BAF1000F07F801BB0AD51AF1AD
:10367000010AE8D14745CED1B442CCD1304604B09E
:10368000BDE8F08DBAF1010AD6D5F3E7012000F0CC
:1036900001B8000080B5C046C046024A110018209B
:1036A000ABBEFBE72600020010B50446E068616986
:1036B000884252D3218849F202020A40022A08D0E5
:1036C00008044CBF4FF400704FF48440084320803E
:1036D0003CE001F4C041B1F5C04F06D1A168884279
:1036E00003D32046FFF7F5FE80BB20884FF44061EE
:1036F000084202BF606804F13D01884217D14FF4CF
:103700000070FFF703FB606030B904F13D006060BA
:10371000E060401CA0600AE0218841F04001218067
:10372000E060A06200F500716068A160E06260681E
:103730002061A0686061207840070AD5022200213C
:10374000204600F00CF810F1010F02D14FF0FF30CD
:1037500010BD208840F4C0402080002010BD70B50E
:103760000C461546FFF704FF06462B46224600216D
:10377000FFF708FE04463046FFF7FBFE204670BD0B
:103780000178090626D51C4A13680021834203D11B
:10379000002342F821301BE05368012183421EBF01
:1037A000022193688342F3D0D368032183421EBF72
:1037B000042113698342EBD05369052183421EBF64
:1037C0000621936983421EBF0721D3698342DFD05C
:1037D000FFF73EBB002101804FF0FF31C17000F1C7
:1037E0003D014160C160016181624161C1628161ED
:1037F00000F12401C16170473401002038B504464E
:1038000003212078084202D06056002809D5C0461E
:10381000C0462046FFF7B4FFC046C0464FF0FF3514
:1038200027E02046FFF755FE0546C046C0462078F3
:10383000400644BF6068FFF70BFB0020606094F90E
:103840000300022804D900F016F808B14FF0FF3544
:10385000A06B48B100F01CF808B14FF0FF35A06B29
:10386000FFF7F6FA0020A0632046FFF789FFC04665
:10387000C046284632BD10B582B0020000926946AB
:103880000220ABBE04001000FFF70CFD200016BDA7
:1038900000B583B00090FEF7DFFD019069460E2071
:1038A000ABBE03B000BD00001248006850F47000C9
:1038B000104908601048006850F001000E49086087
:1038C00000200E4908600C4800680D4908400A496C
:1038D00008600C480C4908600748006830F48020F4
:1038E000054908600020094908605FF00060084948
:1038F0000860704788ED00E0003802400838024058
:10390000FFFFF6FE10300024043802400C3802405D
:1039100008ED00E010B5144C206808B1FFF76EFF09
:10392000606808B1FFF76AFFA06808B1FFF766FF9B
:10393000E06808B1FFF762FF206908B1FFF75EFF9A
:10394000606908B1FFF75AFFA06908B1FFF756FF99
:10395000E06908B1FFF752FFBDE8104000220021E6
:103960004FF0FF30FFF714BE3401002038B5054694
:103970000846FFF7FDFD0446E0686169884204D30C
:103980002046FFF791FE002810D4E068401CE0605C
:1039900000F8015D2088010504D440050CD5EDB286
:1039A0000A2D09D12046FFF794FD28B12046FFF7E4
:1039B000E0FD4FF0FF3032BD2046FFF7DAFDE8B200
:1039C00032BD00000D0A0A2F2A2A2A2A2A2A2A2A68
:1039D0002A2A2A2A2A2A2A2A2A2A2A2A2A2A2A2A47
:1039E0002A2A2A2A2A2A2A2A2A2A2A2A2A2A2A2A37
:1039F0002A2A2A2A2A2A2A2A2A2A2A2A2A2A2A2A27
:103A00000A0000000D202A2A2A2A2A2A2A2A2A2ADB
:103A10002A2A2A2A2A2A2A2A2A2A2A2A2A2A2A2A06
:103A20002A2A2A2A2A2A2A2A2A2A2A2A2A2A2A2AF6
:103A30002A2A2A2A2A2A2A2A2A2A2A2A2A2F0A0D1E
:103A40000A00000019E050F8041BCB0744BFA9F19D
:103A500001035918121F0023042A41F8043BF9D22C
:103A60005FEA827C0B4604D54FF0000CA1F800C041
:103A70009B1CD10744BF0021197050F8042B002A69
:103A8000E1D170470D202A20202020202020202056
:103A90002020202020202020202020202020202026
:103AA0002020202020202020202020202020202016
:103AB000202020202020202020202020202A0A0032
:103AC0000D202A20582D435542452D57494649314E
:103AD00020457870616E73696F6E20536F667477DE
:103AE0006172652076332E302E3220202020202057
:103AF0002020202020202020202A0A000D202A20FB
:103B0000436F6E736F6C65204170706C6963617494
:103B1000696F6E20202020202020202020202020BF
:103B20002020202020202020202020202020202095
:103B300020202020202A0A000D202A2053656E64B0
:103B400020415420636F6D6D616E647320746F202B
:103B500053505746206D6F64756C652064697265BB
:103B600063746C7920202020202020202020202019
:103B7000202A0A0010B5074979441831064C7C44C4
:103B8000163404E00A68081D511888470146A1420E
:103B9000F8D110BD2C000000540000004EF68851F2
:103BA000CEF20001086840F470000860BFF34F8F48
:103BB000BFF36F8F4FF00070E1EE100A7047000006
:103BC00085FEFFFF081A00006001002000000000D1
:103BD0000FFAFFFF020000000200000010020000C8
:103BE0008200000000000020600100004552524F9A
:103BF0005220696E2055534152545F5472616E7366
:103C00006D69745F41545F436D64210048414C5FAE
:103C100055415254785F526563656976655F4954D2
:103C2000204572726F72000000F00BF8002801D07E
:103C3000FFF7A0FF0020C046C046FFF79BF900F049
:103C400002F80120704700F001B800000746FFF7B6
:103C500061FE3846FFF71EFDFBE7000048414C5F60
:103C6000554152545F5472616E736D697420457290
:103C7000726F720038B504460D46284600F006F80B
:103C8000A84218BF0024204632BD00000149FFF7BA
:103C90006DBE00BFB400002041542B532E53434649
:103CA000473D25732C25640D000000004572726F9E
:103CB0007220696E20436F6E66696700636F6E7372
:103CC0006F6C655F73706565640000000000000044
:103CD0000102030401020304060708092020202032
:103CE0002020202020200D0A0000000001488047ED
:103CF00001480047A9380008093D000841542B53EA
:103D00002E52455345540D00C046C046FFF746FFAE
:103D1000FFF78AFF000610160006101610284058FC
:103D20007088A0B8FFF7FEBFFFF7FEBFFFF7FEBF2A
:103D3000FFF7FEBFFFF7FEBFFFF7FEBFFFF7FEBFB7
:103D4000FFF7FEBFFFF7FEBFFFF7FEBFFFF7FEBFA7
:103D5000FFF7FEBFFFF7FEBFFFF7FEBFFFF7FEBF97
:103D6000FFF7FEBFFFF7FEBFFFF7FEBFFFF7FEBF87
:103D7000FFF7FEBFFFF7FEBFFFF7FEBFFFF7FEBF77
:103D8000FFF7FEBFFFF7FEBFFFF7FEBFFFF7FEBF67
:103D9000FFF7FEBFFFF7FEBFFFF7FEBFFFF7FEBF57
:103DA000FFF7FEBFFFF7FEBFFFF7FEBFFFF7FEBF47
:103DB000FFF7FEBFFFF7FEBFFFF7FEBFFFF7FEBF37
:103DC000FFF7FEBFFFF7FEBFFFF7FEBFFFF7FEBF27
:103DD000FFF7FEBFFFF7FEBFFFF7FEBFFFF7FEBF17
:103DE000FFF7FEBFFFF7FEBFFFF7FEBF8C001F010E
:103DF000040000B1000020B2000020B1000020B19A
:103E0000000020B1000020B100002098000020E058
:103E1000001F020401016C190020BC1900206C195C
:103E200000206C1900206C190020F1000020D8003F
:103E30000020E0001F020802021C1900206C19007B
:103E4000201C1900201C1900201C19002031010021
:103E50002018010020E0000B74000020B4000020B6
:0E3E6000F4000020EA000402400024F4FB00FD
:0400000508003D09A9
:00000001FF
