:020000040800F2
:10000000282C00206D1301084DA300084FA3000801
:1000100059A3000863A300086DA3000800000000B6
:1000200000000000000000000000000077A30008AE
:1000300081A30008000000008BA30008A1A3000812
:10004000691801086D180108711801087518010870
:10005000791801087D180108811801088518010820
:10006000891801088D1801089118010895180108D0
:1000700009A400083FA4000875A40008A1A4000872
:10008000991801089D180108A1180108A518010870
:10009000A9180108AD180108B1180108FFA300084C
:1000A000B5180108B9180108BD180108C1180108E0
:1000B00097A300088DA30008C5180108C9180108F6
:1000C000CD180108D1180108D5180108D918010860
:1000D000DD180108D9A30008E3A30008E11801080E
:1000E000E5180108E9180108ED180108F1180108E0
:1000F000F5180108F9180108FD180108011901088F
:1001000005190108091901080D190108111901083B
:1001100015190108191901081D19010821190108EB
:1001200025190108291901082D190108311901089B
:1001300035190108391901083D190108411901084B
:1001400045190108491901084D19010851190108FB
:1001500055190108591901085D19010861190108AB
:1001600065190108691901086D190108711901085B
:1001700075190108791901087D19010800000000AE
:1001800081190108851901082DE9F8430400DFF8F9
:100190007018DFF870080068DFF86C28D2F8C82003
:1001A000101802F011FC050000281DD1DFF85C18C2
:1001B000DFF850080068DFF85028D2F8C82010187F
:1001C00002F002FC050000280ED1DFF84418DFF829
:1001D00034080068DFF83028D2F8C820101802F080
:1001E000F3FB0500002818D0DFF818080068281A6B
:1001F000DFF81418D1F8C810611888420DD2DFF862
:100200000818D1F8C810411A0C00DFF80818C9798D
:1002100051F08001DFF8FC27D171DFF8E8070068B2
:10022000DFF8E417D1F8C810081802F0D5FB060073
:10023000A64208D23400DFF8DC07C07950F0800015
:10024000DFF8D017C871DFF8D0070068001BDFF8AF
:10025000C8170860DFF8B007D0F8C8002018DFF82A
:10026000A817C1F8C800DFF8A007D0F8C800B0F59B
:10027000006F27D3DFF89007D0F8CC00D0F50067E7
:100280005FF00008DFF89407DFF87C17D1F8CC1096
:1002900011EB000942463900484602F0C7FB002036
:1002A000DFF86417C1F8CC00DFF85C07D0F8C800AD
:1002B0004FF40061B0FBF1F202FB1102DFF84807D6
:1002C000C0F8C820DFF84007D0F8C800002817D0D1
:1002D000DFF83407D0F8C800DFF82C17D1F8CC10BD
:1002E000471A5FF00008DFF83407DFF81C17D1F871
:1002F000CC1011EB000942463900484602F096FB4B
:10030000DFF80407D0F8C800DFF8FC16C1F8CC000D
:10031000BDE8F18370B5DFF8EC060068DFF8E81699
:10032000D1F8C810085C002826D000F0F9F8DFF8F2
:10033000D806D0F8C80000281ED0DFF8CC06D0F8C8
:10034000C800DFF8C416D1F8CC10441A0025DFF835
:10035000B4060068DFF8B016D1F8CC100E182A00E9
:100360002100300002F062FBDFF89C06D0F8C800E4
:10037000DFF89416C1F8CC0070BDDFF88C16D1F808
:10038000C8104118DFF88026C2F8C810DFF87816C8
:10039000D1F8C810B1F5006F05D94FF40061DFF84E
:1003A0006826C2F8C81070472DE9F0410500DFF853
:1003B0005806D0F8C800DFF8681609680818B0F5C4
:1003C000006F4CD328000600DFF83C06D0F8C800C8
:1003D000DFF84C1609680818B0F50064DFF8280645
:1003E000D0F8C800D0F50060DFF834160860F6B227
:1003F0003000002806D0012814D0042812D0052887
:100400001FD02CE0DFF81C0602F0E6FA0027DFF828
:100410001416001B10EB01083A002100404602F0C0
:1004200005FB1CE00027DFF8FC05DFF8F415096880
:100430000818B0F105083A002100404602F0F6FA2B
:100440000DE00027DFF8DC05DFF8D415096811EBB3
:1004500000083A002100404602F0E8FAFFE7BDE854
:10046000F08170B5DFF8A005D0F8C800B0F5006FD6
:100470000AD0DFF89405D0F8C800DFF8A4150968A1
:100480000818B0F5006F49D1DFF87C05D0F8C80036
:10049000DFF88C1509680818B0F5006F1ED1DFF879
:1004A0006805D0F8C800D0F50060DFF87C1508605A
:1004B000DFF874050468DFF84C050068DFF84815BC
:1004C000D1F8C8100D18DFF864652200290030004B
:1004D00002F0E4FA0120DFF858150870DFF828056B
:1004E000D0F8CC00D0F500640025DFF818050068CE
:1004F000DFF81415D1F8CC100E182A0021003000B6
:1005000002F094FA0020DFF80015C1F8C8000020BE
:10051000DFF8F414C1F8CC00012000E0002070BD29
:10052000F0B583B0DFF8EC04C07950F00800DFF8D4
:10053000E414C871DFF8DC04C079C0F3C000C0B2B5
:10054000002800F04782DFF8BC040068DFF8B81428
:10055000D1F8C810085C002800F03C82C8250026AD
:10056000DFF8C07432002900380002F05FFADFF8CB
:1005700094040068DFF89014D1F8C810081804003B
:10058000DFF89C040090DFF89C3401AADFF8A41483
:10059000200002F0BFFA00284DD00020FFF704FF32
:1005A000DFF860040068DFF86014D1F8C81008189C
:1005B000DFF86C140968081810F8010C0D2815D123
:1005C000DFF85C040068401CFFF7D7FEDFF8542416
:1005D0000199002000F038FADFF82C04D0F8C800A8
:1005E000B0F5006FA6D3FFF73CFFA3E7FFF739FF95
:1005F00000289FD1DFF82404DFF80C14D1F8C810CC
:10060000081802F0E9F90500DFF8FC03D0F8C8008B
:100610002818B0F5006F05D1DFF804040560FFF776
:1006200020FF87E7DFF8EC03C07910F0F700DFF870
:10063000E413C8717EE7DFF8E833DFF8E823DFF87A
:10064000F813200002F066FA002851D00120FFF7CD
:10065000ABFEDFF8B0030068DFF8AC13D1F8C810C8
:10066000DFF8BC2312685118081810F8010C0D2887
:1006700018D1DFF8AC030068401CFFF77EFEDFF8FE
:10068000A423DFF89C030168012000F0DDF9DFF806
:100690007803D0F8C800B0F5006F7FF44BAFFFF7D8
:1006A000E0FE47E7FFF7DDFE00287FF443AFDFF809
:1006B0006C03DFF85413D1F8C810081802F08CF955
:1006C0000500DFF84403D0F8C8002818B0F5006F23
:1006D00005D1DFF84C030560FFF7C3FE2AE7DFF81A
:1006E0003403C07910F0F700DFF82813C87121E750
:1006F000DFF82C33DFF82C23DFF84013200002F062
:1007000009FA00286ED00420FFF74EFEDFF8F4024D
:100710000068BD49D1F8C810DFF8042312685118E9
:10072000081810F8010C0D283CD1BA48006810F0E8
:10073000A05F06D022005FF0FF31052000F084F9B1
:10074000F8E6B7480068401CFFF717FEABA1B548B4
:1007500002F03AF9002806D0B24A5FF0FF310220D9
:1007600000F072F914E0B649AE4802F02DF9002805
:1007700006D0AC4A5FF0FF31032000F065F907E0D6
:10078000A84802F029F90100A64A042000F05CF90B
:100790009D48D0F8C800B0F5006F7FF4CBAEFFF7EE
:1007A00060FEC7E6FFF75DFE00287FF4C3AE9B48FE
:1007B0009549D1F8C810081802F00EF905009248C2
:1007C000D0F8C8002818B0F5006F04D1944805602F
:1007D000FFF747FEAEE68F48C07910F0F7008D496D
:1007E000C871A7E692480078012812D18948C079DB
:1007F000C0B2C009C0B200280BD08648007A50F0C1
:100800000100844908728348C07910F07F00814953
:10081000C8718048006810F0815F40F0C2807D4858
:10082000C079C0B2C009C0B2002840F0BA807C4B89
:100830007C4A8449200002F06DF9724800687249D0
:10084000D1F8C810085C0A2802D100207449086059
:100850000520FFF7A9FD6B4800686B49D1F8C81067
:100860006F4A12685118085C0A2840F08E806C4864
:100870000068401CFFF781FD6D480078002874D0A7
:1008800068496A4802F058F96848040064480090D2
:10089000644B01AA6749200002F03CF9002805D00A
:1008A000604A0199002000F0CFF83DE05C4B5D4AC2
:1008B0006149200002F02EF9002806D0594A584814
:1008C0000168012000F0C0F82EE0554B554A5B4905
:1008D000200002F01FF9002820D048A1514802F062
:1008E00073F8002806D04F4A5FF0FF31022000F075
:1008F000ABF819E052494B4802F066F8002806D0E0
:10090000484A5FF0FF31032000F09EF80CE0454AB2
:100910005FF0FF31042000F097F805E0434A4048BB
:100920000168052000F090F8642500263F4F320052
:100930002900380002F07AF800203B4908600020C6
:100940003B4908703348007A10F00100002812D0AB
:100950003048C07950F080002E49C8712D48007A87
:1009600010F0FE002B49087205E02E4A2C48016861
:10097000052000F069F82448D0F8C800B0F5006FF1
:100980007FF4D8ADFFF76DFDD4E5FFF76AFD0028D1
:100990007FF4D0AD1F48C07910F0F7001D49C87131
:1009A000C8E51C48C079C0B2C009C0B200280AD04E
:1009B0001848C07910F07F001649C87116480068C1
:1009C000FFF7E2FBB6E522005FF0FF31052000F003
:1009D0003BF8AFE50F48C079C0F3C000C0B20028B3
:1009E00001D1012003E00B48C079C0F3C0000949E0
:1009F000C97960F3C3010748C171F7BD4F4B0000CF
:100A00000818010804020020A81F0020101801087F
:100A1000181801089C270020F8270020140A00203D
:100A2000F42700205C210020F027002094200020E3
:100A300027280020600F01081C1301082C1301084F
:100A400020180108281801082DE9F34FA3B016005B
:100A5000DFF8AC0D02F038F923988DF81500DFF8B7
:100A6000A40D0068DFF86C1E084240F038879DF83E
:100A7000150000280AD0022800F06A8169D30428F2
:100A800000F0C680C0F0268600F028BF03F098FB77
:100A900072B63100249801F0A7FD62B603F081FB25
:100AA000DFF8600D0068C00F002810D172B6DFF8C3
:100AB000580ED0E9082311001A00DFF8500E02F09A
:100AC00067F862B6DFF8380D02F0FEF81AE0DFF8DA
:100AD000340D0068C0F34000002813D1DFF8200D6A
:100AE00002F0F2F8DFF81C0D006840004008DFF863
:100AF000141D0860DFF80C0D006850F00200DFF8EC
:100B0000041D0860DFF8FC0CD0F80100C0F3406061
:100B1000002807D1DFF8EC0C006840004008DFF83F
:100B2000E41C08600020DFF8E81D0860DFF8D40C42
:100B30000068C0F34050002809D0DFF8C80C0068F6
:100B400030F00060DFF8BC1C086000F0FDBE01F072
:100B500030BDDFF8BC0D006800280DD04FF40074E4
:100B60000027DFF8B08D3A002100404601F05EFF1B
:100B70000020DFF89C1D0860DFF89C1DDFF8940D55
:100B800003F0D2FF3100DFF8940D03F0CDFFDFF862
:100B9000800D006824990818DFF8741D0860DFF8DC
:100BA000640C0068C0F3800000282FD0DFF8540CDC
:100BB000006850F08050DFF84C1C0860DFF8440CEF
:100BC000006830F00400DFF83C1C0860DFF8340CEB
:100BD000D0F8020030F08050DFF8281CC1F8020085
:100BE0000020DFF8F41DC1F8C4000020DFF8201D4C
:100BF0000860DFF8200D01F0EFFE04000027DFF8A9
:100C0000148D3A002100404601F010FF00F09CBE18
:100C100006AADFF8C81D300001F07CFF002820D0B4
:100C20000698DFF8B41D097B884204DA0698DFF8DD
:100C3000A81D087305E0DFF8A00D007BDFF8981D04
:100C40000873DFF89C1DDFF89C0D03F06DFFDFF8E3
:100C5000B40B006850F08040DFF8A81B086001F07A
:100C6000A8BC07AB08AADFF8801D300001F052FFD6
:100C7000002849D00020DFF8601DC1F8A800DFF887
:100C8000840B006850F40010DFF8781B0860DFF870
:100C9000480DD0F8C800002818D0DFF83C0DD0F877
:100CA000C800DFF8341DD1F8CC10441A0027DFF853
:100CB0003C0D0068DFF8201DD1F8CC1011EB0008C6
:100CC0003A002100404601F0B1FE14E0DFF8080DC3
:100CD000D0F8CC00D0F580640027DFF8100D006854
:100CE000DFF8F41CD1F8CC1011EB00083A00210019
:100CF000404601F09BFEDFF8E00CD0F8C800DFF8BA
:100D0000D81CC1F8CC0021E0DFF8E41CDFF8040CAB
:100D1000DFF8FC2B1268101803F006FFDFF8F00B69
:100D20000068401DDFF8E81B08603100DFF8E40BC5
:100D3000DFF8DC2B1268101803F0F6FEDFF8D00B9A
:100D4000006824990818DFF8C81B086000F0FCBD93
:100D5000DFF8A01CDFF8BC0B01F036FE0500002810
:100D600049D0DFF8A00AD0F8020030F08050DFF858
:100D7000941AC1F802000020DFF85C1CC1F8C4001E
:100D80003A21DFF8900B03F0F1FE040060788DF853
:100D900016009DF81600DFF8701B91F8211060F323
:100DA0000301DFF8640B80F821100F20DFF8581BD7
:100DB00081F8260072B6DFF8500BD0E90823110045
:100DC0001A00DFF8480B01F0E3FE62B6DFF8300AE4
:100DD00001F07AFF4FF400775FF00008DFF8349BF2
:100DE00042463900484601F021FE0020DFF8201B72
:100DF000086000F053BCDFF8001CDFF8180B01F0AE
:100E0000E3FD050000283FD0DFF8F809D0F8020024
:100E100030F08050DFF8EC19C1F802000020DFF854
:100E2000B81BC1F8C400BFA1DFF8E80A03F0A6FEB2
:100E30000400BCA1002003F0A1FE040020788DF87E
:100E400016009DF81600DFF8C01A91F8211060F323
:100E50000301DFF8B40A80F821101D20DFF8A81A7A
:100E600081F8260072B6DFF8A00AD0E90823110045
:100E70001A00DFF8980A01F08BFE62B6DFF88009ED
:100E800001F022FF00F00ABCDFF8701BDFF8840AD3
:100E900001F09AFD0500002800F0A880A1A1DFF86C
:100EA000740A03F06BFE04009EA1002003F066FEAE
:100EB000040020788DF8100060788DF81100A0787B
:100EC0008DF81200E0788DF813009DF811000D28C0
:100ED00007D19DF810003038DFF8FC1AC1F89800EF
:100EE00044E09DF812000D280DD19DF810000A2154
:100EF0009DF8112001FB0020B0F50470DFF8D81A2E
:100F0000C1F8980032E09DF813000D2814D19DF827
:100F1000100064219DF811200A235A4301FB002090
:100F20009DF8121050FA81F0DFF8481E0818DFF81B
:100F3000A81AC1F8980019E09DF810004FF47A71D2
:100F40009DF8112064235A4301FB00209DF81210E4
:100F50000A2202FB01009DF8131050FA81F0DFF81D
:100F6000181E0818DFF8701AC1F89800DFF8680A30
:100F7000D0F89800002810D0DFF88808006850F4F6
:100F80000030DFF880180860DFF87808006850F457
:100F90008010DFF87018086080E3DFF83C0AD0F8B2
:100FA0009800002840F07A83DFF82C0ADFF8281A2E
:100FB0000978C1F3C201C9B2081890F8D900002815
:100FC0000BD0DFF8140ADFF8101A0978C1F3C20158
:100FD000C9B20818002180F8D910DFF82808006885
:100FE00030F01000DFF81C18086057E392A1DFF81A
:100FF000240901F0E9FC0500002800F0958049A1D2
:10100000DFF8100903F0BAFD040046A1002003F048
:10101000B5FD040020788DF8100060788DF811007F
:10102000A0788DF81200E0788DF813009DF811007B
:101030000D2807D19DF810003038DFF89C19C1F851
:10104000980044E09DF812000D280DD19DF8100085
:101050000A219DF8112001FB0020B0F50470DFF893
:101060007819C1F8980032E09DF813000D2814D1CA
:101070009DF8100064219DF811200A235A4301FBBA
:1010800000209DF8121050FA81F0DFF8E81C0818D3
:10109000DFF84419C1F8980019E09DF810004FF4EA
:1010A0007A719DF8112064235A4301FB00209DF8BA
:1010B00012100A2202FB01009DF8131050FA81F071
:1010C000DFF8B41C0818DFF81019C1F89800DFF831
:1010D0000809D0F89800002808D0DFF82807006831
:1010E00050F48030DFF81C1708600DE0DFF8E808E6
:1010F000D0F89800002807D1DFF80807006830F022
:101100001000DFF8001708604FF400775FF0000868
:10111000DFF8009842463900484601F087FC01F0AC
:1011200048BA00BF3A000000BEA1DFF8E80701F0AE
:101130004BFC0500002800F0EF80BBA1DFF8D407CE
:1011400003F01CFD0400B8A1002003F017FD04000B
:1011500020788DF8100060788DF81100A0788DF857
:101160001200E0788DF813009DF811000D2807D1CA
:101170009DF810003038DFF86018C1F8980044E09E
:101180009DF812000D280DD19DF810000A219DF840
:10119000112001FB0020B0F50470DFF83C18C1F805
:1011A000980032E09DF813000D2814D19DF810002E
:1011B00064219DF811200A235A4301FB00209DF869
:1011C000121050FA81F0DFF8AC1B0818DFF808188D
:1011D000C1F8980019E09DF810004FF47A719DF85D
:1011E000112064235A4301FB00209DF812100A22AB
:1011F00002FB01009DF8131050FA81F0DFF8781B14
:101200000818DFF8D417C1F89800DFF8CC07D0F839
:101210009800002812D0DFF8EC05807950F0020029
:10122000DFF8E0158871DFF8DC05006850F4002075
:10123000DFF8D01508605FE04B510000DFF8980739
:10124000D0F89800002857D1DFF8C40607685FF08F
:101250000008DFF8C09642463900484601F0E6FB38
:101260000020DFF8AC160860DFF89805C079C0F3FD
:101270004000C0B2002837D0DFF85C07DFF858170D
:10128000497811F00701052202FB0100DFF8481739
:101290000978C1F3C201C9B2081890F8E10000282A
:1012A00022D0DFF834070078C0F3C200010049B251
:1012B000DFF82407407810F0070040B203F092FAFC
:1012C000DFF81407DFF81017497811F0070105223D
:1012D00002FB0100DFF800170978C1F3C201C9B2AF
:1012E0000818002180F8E110DFF81805006830F0D8
:1012F0001000DFF8101508604FF400775FF0000869
:10130000DFF8109642463900484601F08FFB002076
:10131000DFF8FC150860C1E1DFF8241EDFF8F405F2
:1013200001F052FB050000284DD0DFF8D804D0F8BA
:10133000020030F08050DFF8CC14C1F80200002029
:10134000DFF89416C1F8C40037A1DFF8C80503F030
:1013500015FC040034A1002003F010FC04002078E8
:101360008DF816009DF81600DFF89C1591F82110F5
:1013700060F30301DFF8900580F821101620DFF8F4
:10138000881581F8260072B6DFF87C05D0E90823BD
:1013900011001A00DFF8740501F0FAFB62B6DFF8FD
:1013A000600401F091FC4FF400775FF00008DFF873
:1013B000649542463900484601F038FB0020DFF8CA
:1013C000501508606AE1DFF8401EDFF8480501F0BB
:1013D000FBFA0500002808D1DFF8301EDFF83405DD
:1013E00001F0F2FA0500002847D010A1DFF824052B
:1013F00003F0C4FB04000DA1002003F0BFFB0400B8
:101400000AA1002003F0BAFB04002700DFF8008ED9
:1014100038780D280CD0387888F800007F1C18F137
:101420000108F5E7445100003A0000003D000000CB
:101430000320DFF8D41481F8260072B6DFF8C82440
:10144000D2E908010A000100DFF8C00401F0A0FBA6
:1014500062B6DFF8AC0301F037FC4FF400795FF0BF
:10146000000ADFF8B0B452464946584601F0DEFAA9
:101470000020DFF89C14086010E1DFF8981DDFF809
:10148000940401F0A1FA002850D0D1A1DFF884041F
:1014900003F074FB0400CEA1002003F06FFB0400F6
:1014A000CBA1002003F06AFB040020783038DFF87D
:1014B00028154872C6A1002003F060FB04002078C4
:1014C0003038DFF8141588720420DFF83C1481F8F6
:1014D000260072B6DFF83004D0E9082311001A00A4
:1014E000DFF8280401F054FB62B6C54801F0ECFBBC
:1014F0000020DFF81C1408604FF400775FF000084C
:10150000DFF8109442463900484601F08FFABD4892
:101510000068C0F34050002806D0BA48006830F098
:101520000060B8490860B9E001F043B8DFF8E80CA2
:101530000078C0F34000C0B2002800F08180DFF8DE
:10154000D80C4078C0F30010C0B200285BD0DFF8A0
:101550008804C079C0F3C200C0B200280DD0DFF803
:101560007804C07910F0C70110F03800083810F086
:1015700038000843DFF86014C871DFF89C0C00786D
:1015800010F0FD00DFF8901C0870DFF84C04407983
:1015900010F00F01DFF8880C03F016FB0020DFF8D5
:1015A000841CDFF83424527912F00F025054DFF813
:1015B0002804407910F00F00DFF81C140871DFF8E0
:1015C000580C407810F0EF00DFF84C1C48708D4844
:1015D000807910F00100002808D08A48D0F8010076
:1015E00050F000508749C1F8010005E08548807936
:1015F00050F00100834988718248006830F0100083
:10160000804908602DE0DFF8100C4078C0F34010EE
:10161000C0B2002825D07B48C07910F0FD00794980
:10162000C8717848006830F0100076490860DFF82B
:10163000E80B407810F0DF00DFF8DC1B487010E0AA
:101640000220B14981F8260072B6AF48D0E90823DC
:1016500011001A00AD4801F09BFA62B6684801F02B
:1016600033FBDFF8B40B007810F0FD00DFF8A81BA7
:10167000087064480068C0F3802000280ED06148DC
:10168000006830F480605F4908600020D2494873E8
:101690005C48006830F080405A49086000209C494E
:1016A00008604FF400740027DFF868823A002100D8
:1016B000404601F0BBF953480068C0F34050002891
:1016C00006D05048006830F000604E4908603BE1A9
:1016D00000F06FBFDFF88C1D300001F075F90028B5
:1016E0006AD0DFF8841D8B4801F06EF905000028F0
:1016F00032D0DFF8780D03F067FADFF81C0B407882
:1017000010F0DF00DFF8101B4870DFF80C0B0078DA
:1017100010F0FD00DFF8001B08703A48C079C0F3F4
:101720004000C0B2002810D0AB48AB494979C1F3A2
:101730000211C9B2052202FB0100A749497911F043
:101740000F010818012180F8E1102E48006830F0E0
:1017500010002C490860A0E0DFF85C0E03F034FABA
:10176000DFF8B40A007810F0FD00DFF8AC1A08705A
:10177000DFF8A40A407810F0EF00DFF89C1A4870F8
:101780002048807910F00100002805D11D4880799B
:1017900050F001001B49887101208F498E4A52790F
:1017A00012F00F02511881F8D9001648006830F085
:1017B00010001449086070E0DFF85C0A4078C0F35C
:1017C0004010C0B200281FD0DFF8F01D02E000BFBB
:1017D0003A0000004F4801F0F7F8002814D0DFF875
:1017E000380A407810F0DF00DFF82C1A4870DFF874
:1017F000280A007810F0FD00DFF81C1A087015E0C8
:101800001C2600209C270020DFF8B41D300001F0CA
:10181000DBF800280AD07048B0F88400DFF8A41D77
:101820000860DFF8A00D0068FEF7AEFC082036491E
:1018300081F8260072B63448D0E9082311001A0056
:10184000324801F0A5F962B6DFF87C0D01F03CFAF0
:10185000DFF8780D0068C0F30010002807D0DFF82B
:101860006C0D006830F01000DFF8601D0860DFF8D4
:101870005C0DD0F80200C0F3007000280DD0DFF836
:101880004C0DD0F8020030F08050DFF8401DC1F858
:10189000020000205049C1F8C40000201C49086023
:1018A0004FF400740027DFF86C803A0021004046B6
:1018B00001F0BCF8DFF8140D0068C0F340500028B8
:1018C0000AD0DFF8080D006830F00060DFF8FC1C7B
:1018D000086039E00000205400F06BBE34E0DFF80F
:1018E000EC0CC07910F00100002819D0DFF8E40CEE
:1018F00007490968081810F8010C002824D10020B5
:101900000349086020E000BFFC25002010260020CD
:10191000FC270020181C0020101801081D1C0020A6
:10192000DFF8B40C0068B0F5FF7F0DD90020DFF8B8
:10193000A81C08604FF400740027DFF8988C3A0068
:101940002100404601F072F8DFF8800C0068C0F317
:101950004050002800F0128200271F48D0F8A8004D
:101960001D49D1F89C10884280F008821F48006809
:101970001949D1F8C810085C002800F0FF811B4805
:1019800000681549D1F8C810081805001248D0F8A9
:101990009C001149D1F8A810401A0400B4F5007F4A
:1019A00002D94FF4007700E027000B48D0F8C800B8
:1019B000D0F500600400BC4200D227000648B0F811
:1019C0008A0017FA80F0B0F5007F19D90248B0F804
:1019D0008A00D0F5007713E0A81F0020740F0108DB
:1019E000E8FB0008682400203C13010804020020E2
:1019F00018180108FC1601084C1301080817010803
:101A0000DFF8F40DD0F8C8003818B0F5006F0FD02B
:101A1000785D00280CD1DFF8C40BDFF8DC1DD1F8AD
:101A2000C810081800F0D8FFB84201D20700FFE73D
:101A3000DFF8AC0BDFF8C01DB1F88A1011EB00081D
:101A40003A002900404601F029F8DFF8940B3818D5
:101A500010F8010C002809D1DFF8840B00F0BCFF5E
:101A6000DFF8941DB1F88A10401A0700DFF8880DDE
:101A7000D0F8A8003818DFF8801DC1F8A800DFF8FA
:101A8000780DB0F88A003818DFF86C1DA1F88A00CC
:101A9000DFF8640DD0F8C8003818DFF85C1DC1F815
:101AA000C800DFF8540DD0F8C800DFF84C1DD1F89D
:101AB000CC10B0EB01085FF00009DFF8280B0068DC
:101AC000DFF8341DD1F8CC1011EB000A4A4641462C
:101AD000504600F0ABFFDFF8200DD0F8C800DFF86B
:101AE000181DC1F8CC00DFF8100DD0F8C800B0F513
:101AF000006F09D10020DFF8001DC1F8C8000020E8
:101B0000DFF8F41CC1F8CC00DFF8EC0CD0F8A8002A
:101B1000DFF8E41CD1F89C108842C0F0B680DFF8F2
:101B2000AC0A0068C0F3C04000282AD0DFF89C0A45
:101B3000807950F02000DFF8941A8871DFF88C0A61
:101B4000006830F48000DFF8841A0860DFF8A80C21
:101B50000078C0B2C008DFF8A01C497860F3C50166
:101B6000DFF8940C4170DFF8900C90F90100DFF879
:101B7000881C91F9031060F30201DFF87C0CC1703E
:101B800024E0DFF8480A006850F48000DFF83C1ACF
:101B90000860DFF8380A807910F0DF00DFF82C1ACF
:101BA0008871DFF8540CC07850F00700DFF8481C4B
:101BB000C870DFF8440C0078C0B2C008DFF8381CE9
:101BC000497860F3C501DFF8300C4170DFF8A80DEB
:101BD000007850F00200DFF8A01D0870DFF8EC0973
:101BE000006830F40010DFF8E4190860DFF8DC0961
:101BF0000068C0F3C04000281BD0DFF8FC0BB0F831
:101C00008A000090DFF8F00BD0F89C30DFF8D02984
:101C1000DFF8E40B4078C0F3C200010049B2DFF8FE
:101C2000D80B90F9030040F3020040B202F075FFB8
:101C30001AE0DFF8C40BB0F88A000090DFF8B80BA8
:101C4000D0F89C30DFF89829DFF8AC0B4078C0F36F
:101C5000C200010049B2DFF8A00B90F9030040F385
:101C6000020040B202F059FF0020DFF88C1BA1F8FF
:101C70008A004FF400785FF00009DFF864A94A4653
:101C80004146504600F0D2FE78E0DFF86C0BB0F829
:101C90008A00B0F5007F7FF460AEDFF85C0B00785F
:101CA000C0B2C008DFF8501B497860F3C501DFF807
:101CB000480B4170DFF814090068C0F3C0400028E9
:101CC00026D0DFF8340B90F90100DFF82C1B91F9D6
:101CD000031060F30201DFF8200BC1704FF40070B5
:101CE0000090DFF8140BD0F89C30DFF8F428DFF810
:101CF000080B4078C0F3C200010049B2DFF8F80ACF
:101D000090F9030040F3020040B202F006FF20E029
:101D1000DFF8E40AC07850F00700DFF8DC1AC8707A
:101D20004FF400700090DFF8D00AD0F89C30DFF854
:101D3000B028DFF8C40A4078C0F3C200010049B2FD
:101D4000DFF8B40A90F9030040F3020040B202F059
:101D5000E4FE0020DFF8A01AA1F88A004FF4007812
:101D60005FF00009DFF878A84A464146504600F087
:101D70005DFEF2E530EBFFFFB02FFFFFDFF84C0810
:101D80000068C0F30070002800F03183DFF85408C9
:101D90000068DFF8641AD1F8C810085C002800F069
:101DA0002083DFF82808C079C0F30010C0B20028F3
:101DB00040F01783DFF82408DFF83C1AD1F8C81088
:101DC000081800F009FE0400DFF82C0AD0F8C8005B
:101DD0002018B0F5006F06D9DFF81C0AD0F8C8004B
:101DE000D0F50064FFE7B4F5007F02DB4FF4007428
:101DF000FFE7DFF8040AB0F88A0014FA80F0B0F5C3
:101E0000007F06DDDFF8F009B0F88A00D0F5007435
:101E1000FFE7DFF8D0070068DFF8DC19D1F8C81059
:101E20000F18DFF8BC07DFF8D019B1F88A1011EBF2
:101E3000000822003900404600F030FEDFF8B80903
:101E4000B0F88A002018DFF8B019A1F88A00DFF88E
:101E50002C1BDFF88C0700F0B7FD0500002800F010
:101E6000D580DFF81C0B02F0AFFEDFF87407281AEC
:101E70000090DFF86C0700F0AFFD0099471A5FF0A3
:101E80000008DFF85C07009911EB000942463900B1
:101E9000484600F0CBFD0098DFF85C19A1F88A00F5
:101EA000DFF85409B0F88A00DFF84C19B1F88C104B
:101EB000884214D2DFF84009B0F88A000930DFF810
:101EC0003819B1F88C10401AFEF757FADFF8FC0603
:101ED000C07950F02000DFF8F416C87107E00098D0
:101EE000DFF81419B1F88C10401AFEF746FADFF843
:101EF0000809D0F8C800DFF80019D1F8CC10471A4B
:101F00005FF00008DFF8DC060068DFF8EC18D1F8B5
:101F1000CC1011EB000942463900484600F086FD1E
:101F2000DFF8D408D0F8C800DFF8CC18C1F8CC002E
:101F300000200090DFF8C008D0F8C800B0F5006FAE
:101F400009D10020DFF8B018C1F8C8000020DFF880
:101F5000A818C1F8CC00DFF8A008B0F88A10DFF8A4
:101F6000800603F0E8F80020DFF88C18A1F88A005A
:101F70000020DFF88418A1F88C00DFF85006C07943
:101F800050F01000DFF84416C871DFF84006006812
:101F900030F08050DFF834160860DFF83006006853
:101FA00030F08060DFF8241608604FF400775FF0AF
:101FB0000008DFF82C9642463900484600F036FD0E
:101FC000DFF80806C079C0F34010C0B2002814D072
:101FD000DFF8F805C07910F0DF00DFF8F015C87100
:101FE000DFF89409407850F00100DFF88C19487050
:101FF0000020DFF8041881F8D800DFF8D005006869
:1020000030F01000DFF8C4150860BFE6DFF874197F
:10201000DFF8CC0500F0D8FC0500002800F0D280E5
:10202000DFF8BC052F1A7DA1DFF8B405381800F0E1
:10203000CBFC0500002800F08580DFF8A40502F045
:10204000C3FDDFF8440902F0BFFDDFF89405281A4C
:10205000801C0700DFF8A007B0F88C00381AFEF7E4
:102060008CF9DFF81409407850F00100DFF8081906
:1020700048700D20DFF8801781F8D800DFF84C0594
:10208000006830F08050DFF844150860DFF83C0548
:10209000C07950F01000DFF83415C871DFF8580728
:1020A000D0F8C800DFF85017D1F8CC10B0EB010819
:1020B0005FF00009DFF82C050068DFF83C17D1F865
:1020C000CC1011EB000A4A464146504600F0AEFCE7
:1020D000DFF82407D0F8C800DFF81C17C1F8CC00DF
:1020E000DFF81407D0F8C800B0F5006F09D1002060
:1020F000DFF80417C1F8C8000020DFF8FC16C1F8AB
:10210000CC004FF400785FF00009DFF8D4A44A4611
:102110004146504600F08AFC0020DFF8DC16A1F8AA
:102120008A000020DFF8D016A1F88C00DFF89C04AC
:10213000006830F01000DFF89414086026E600BF55
:102140005C1301082000FEF718F9DFF8AC06D0F8A0
:10215000C800DFF8A416D1F8CC10B0EB01085FF08E
:102160000009DFF880040068DFF88C16D1F8CC1085
:1021700011EB000A4A464146504600F057FCDFF892
:102180007806D0F8C800DFF87016C1F8CC00DFF888
:102190006806B0F88A00DFF86016A1F88C00DFF856
:1021A0005806D0F8C800B0F5006F7FF4EFAD0020FE
:1021B000DFF84416C1F8C8000020DFF83C16C1F86B
:1021C000CC00E3E5DFF83006B0F88A00B0F5007F18
:1021D00040F0C980DFF82006B0F88C00B0F5FC7F35
:1021E00022DC08275FF00008DFF8A097424639009C
:1021F000484600F01BFCDFF80006B0F88C00D0F574
:10220000FC70FEF7BAF82DE014170108201701083A
:10221000B61F00202C170108482700200D0A0000D7
:1022200060070108BC2700200827DFF86087DFF877
:1022300060973A004146484600F030FC2000FEF727
:102240009CF85FF008095FF0000ADFF840B75246DB
:102250004946584600F0EAFBDC48C07950F040009F
:10226000DA49C871DFF89005D0F8C800DFF88815A2
:10227000D1F8CC10471A5FF00008DA480068DFF8A0
:102280007815D1F8CC1011EB0009424639004846C8
:1022900000F0CCFBDFF86005D0F8C800DFF8581577
:1022A000C1F8CC004FF4FC70DFF84C15A1F88A009F
:1022B000DFF84405D0F8C800B0F5006F09D1002060
:1022C000DFF83415C1F8C8000020DFF82C15C1F87C
:1022D000CC00DFF82405B0F88A10C14802F02BFFCB
:1022E0000020DFF81415A1F88A000020DFF8081597
:1022F000A1F88C004FF400775FF00008DFF8E0925F
:1023000042463900484600F091FBB048C079C0F31E
:102310008010C0B200283FF439AD0827DFF870867E
:10232000DFF8BC923A004146484600F0B7FB08206F
:10233000DFF8C414A1F88A000820DFF8BC14A1F863
:102340008C005FF00A095FF0000ADFF844B65246DD
:102350004946584600F06AFB9C48C07910F0BF001F
:102360009A49C87112E52000FEF707F8DFF88804E3
:10237000B0F88A00DFF88014A1F88C00DFF8780448
:10238000D0F8C800DFF87014D1F8CC10471A5FF00D
:10239000000894480068DFF86014D1F8CC1011EB05
:1023A000000942463900484600F040FBDFF8480487
:1023B000D0F8C800DFF84014C1F8CC00DFF83804CA
:1023C000D0F8C800B0F5006F7FF4E0AC0020DFF873
:1023D0002814C1F8C8000020DFF81C14C1F8CC0094
:1023E000D4E47A48C07910F0EF007849C871774892
:1023F0000068C0F38070002800F0DB8074A130001A
:1024000000F0E2FA002833D07048006830F08040D5
:102410006E4908606D48006830F480606B49086060
:102420000020DFF8D4134873642400270DF124083A
:102430003A002100404600F0F9FA0220DFF8541576
:1024400081F8260072B6DFF84C05D0E908231100A8
:102450001A00DFF8440500F09BFB62B65A4800F012
:1024600033FC99E0880F01083817010874FE000852
:10247000DFF88403407BDFF88013097B884280F01B
:102480008B80DD48407B8DF8140052480390DFF8C4
:102490000C0500689DF814102C2202FB0100083086
:1024A0000290DFF8F80400689DF814102C2202FB5B
:1024B0000100001D0190DFF8E40400689DF814108D
:1024C0002C2202FB0100009009AB05AADFF8D01412
:1024D000300000F01FFB9DF81400C7494873DFF877
:1024E000C4143C4800F070FA0500002D0BD0DFF852
:1024F000AC040068C049497B2C2202FB0100012189
:1025000080F826100AE0DFF894040068BA49497B95
:102510002C2202FB0100002180F82610DFF888142D
:102520002C4800F051FA0500002D0BD0DFF86C04A8
:102530000068B149497B2C2202FB0100012180F88F
:1025400027100AE0DFF854040068AB49497B2C22CD
:1025500002FB0100002180F82710DFF850141D480D
:1025600000F032FA0500002D0BD0DFF830040068CF
:10257000A149497B2C2202FB0100012180F828108F
:102580000AE0DFF8180400689B49497B2C2202FB13
:102590000100002180F8281000200F4908604FF446
:1025A00000740027DFF82C803A002100404600F03C
:1025B0003DFA25B0BDE8F08FF0FC0008780C01086A
:1025C000900C0108F82700201C2600209C270020E2
:1025D0004F4B0D00181C0020FC270020140A00207F
:1025E00018180020040200202DE9F84304000D0013
:1025F0004FF0FF0920008146DFF8980380F8209013
:102600000120DFF8901381F826000FFA89F9484677
:102610000028032840F29281001F012840F2A8817F
:10262000801E012840F28A81801E012840F2A0818C
:10263000801E00F09081401E012840F29981801E8A
:10264000012840F27B81801E00F09281401E032809
:1026500040F27481001F00F08B81401E00F06E81FB
:10266000401E012840F28481C01E00F06781401E98
:10267000012840F27D81801E00F09680801E00F0CF
:102680005D81401E012840F27381801E012840F2C6
:102690005581801E012840F26B81801E00F04E8122
:1026A000401E00F06581401E00F04881401E042855
:1026B00040F25E81401F012840F24081001F052842
:1026C00040F23C81801F1FD0C01E5AD0C01E00F0B7
:1026D0009580401E00F0B880801E00F00981801EA9
:1026E00000F02C81401E00F01381401E00F01B8181
:1026F000001F6DD0801E00F021810E3800F0D280C6
:10270000401E00F0E28034E1A949280000F05CF9A5
:10271000060070793A2817D1B0798DF800009DF83D
:1027200000009C4991F8211060F30301994880F85A
:102730002110984890F8210010F00F0050F0900000
:10274000944981F821001BE070798DF80000F07940
:102750008DF801008F4890F8210010F00F009DF8CF
:10276000001050EA01108B4981F821009DF801000A
:10277000884991F8211060F30301864880F8211000
:10278000F7E08C49280000F01FF90600F0798DF879
:1027900000009DF800007F4991F8211060F30301CB
:1027A0007C4880F82110E4E08349280000F00CF90F
:1027B000060011200700222F06DAB85D0E497918AD
:1027C00081F83E007F1CF6E70B206B49C875D0E00E
:1027D0007A49280000F0F8F8060011200700222F9F
:1027E00006DAB85D0449791881F83E007F1CF6E7E7
:1027F0000C206149C875BCE0A81F00203A212800C0
:1028000002F0B4F9804698F801003038614991F837
:10281000211060F303015F4880F82110002088F840
:1028200000003A21280002F0A1F9804698F8010042
:102830003038584991F8211011F00F0151EA001079
:10284000544981F8210094E03A21280002F08EF9E1
:102850008046002088F800003A21280002F086F91E
:10286000804698F8010030384A4991F8211060F309
:102870000301484880F82110002088F800003A2120
:10288000280002F073F9804698F801003038414979
:1028900091F8211011F00F0151EA00103D4981F823
:1028A000210066E04249280000F08EF806007079A9
:1028B0008DF800009DF80000364991F8211060F372
:1028C0000301344880F8211053E03A49280000F011
:1028D0007BF80600F0798DF800009DF800002D4986
:1028E00091F8211060F303012A4880F8211040E09C
:1028F0000020334908703348006830F00200314945
:1029000008603048006850F000402E49086030E010
:102910000A20204981F826002A48C07950F0010099
:102920002849C87125E009201A4981F82600254860
:10293000C07910F0FE002349C8711AE021480068F0
:1029400030F002001F4908601E48006850F0004047
:102950001C4908600DE01B480068C0F30010002807
:1029600005D01848006830F010001649086000E0F3
:10297000FFE7BDE8F1830000482700204417010865
:10298000800701085017010830180108101A0020AC
:10299000A8270020FC25002010260020E02700208A
:1029A0006824002038180108401801084818010858
:1029B00050180108581801085C1701086817010829
:1029C000152800209C27002038B504000D002900A0
:1029D000200002F03FFC32BD00F10103810704D06A
:1029E00010F8011B89B18107FAD10268B2F10131F7
:1029F000914311F0803F04BF50F8042FF6E710F820
:102A0000011B11B110F8011BFBE7C01A70470368E6
:102A10001AB95A1E026008467047197800290FBF7C
:102A20004FF0FF30591C01601878704762F30F2295
:102A300062F31F42401810F0030308D0C91A1FD3D5
:102A4000DB0748BF00F8012D28BF20F8022D130036
:102A500030B414461546103928BF20E93C00FAD896
:102A6000490728BF20E90C0048BF40F8042D890021
:102A700028BF20F8022D48BF00F8012D30BC704758
:102A8000C91818BF00F8012DCB0728BF00F8012D89
:102A900070470268531C03601170704762B38B0764
:102AA00008D0521E11F8013B00F8013B00F02480D1
:102AB0008B07F6D1830740F0208000BF103A07D380
:102AC00030B4B1E83810103AA0E83810F9D230BC70
:102AD000530724BFB1E80810A0E8081044BF51F81C
:102AE000043B40F8043BD20724BF31F8022B20F806
:102AF000022B44BF0B7803707047083A07D3B1E844
:102B00000810083A40F8043B40F804CBF7D25307CA
:102B1000E4E720000DB400B582B004A800900A4696
:102B20006B4603A9034878440A3002F0C7FB06BC91
:102B30005DF810FBDBFEFFFF024600E0521C13783D
:102B4000002BFBD111F8013B137012F8013B002B55
:102B5000F8D1704708231A0012FB01F38380002389
:102B600003800023C38000234380554B836070475C
:102B70008188C088B0EBD10F01D1012000E0002096
:102B80007047C088002801D1012000E00020704774
:102B900076B504002000FFF7EBFF002842D16088E3
:102BA000C0080600A06810EBC600BDF804108180C4
:102BB000A06810EBC6009DF802108170A06810EBB1
:102BC000C6009DF80110A26812EBC602527861F3AC
:102BD00003024270A06810EBC600A16811EBC601A9
:102BE000497811F00F019DF8012012F0F002114315
:102BF00041709DF80000A16801F83600A06810EB54
:102C0000C6009DF806108171E088401CE080608855
:102C100008306080A0880500608890FBF5F105FB16
:102C20001100608073BD70B504002000FFF7A9FF9C
:102C3000002801D0002042E02088C0080600A068DB
:102C400010EBC60080881F498880A06810EBC60082
:102C5000407810F00F001B49497860F303011948D0
:102C60004170A06810EBC6004078C0B20009154959
:102C7000497811F00F0151EA001012494870A0681C
:102C800010EBC60080780F498870A06810F83600F5
:102C90000C490870A06810EBC6008079094988715A
:102CA000208808302080E088401EE080A088050051
:102CB000208890FBF5F105FB11002080014870BDD4
:102CC000181E0020B427002000218180002181717E
:102CD000417811F0F00151F0090141700921817032
:102CE000632101707047FF0070B54FF48061DFF819
:102CF000B00203F077F8DFF8AC02407810F0F10092
:102D0000A84948700020A849087000F038F900F080
:102D10008AF800F016F83221A448FFF71BFF01F0F3
:102D200040FA08240025A24E2A0021003000FFF7B7
:102D30007DFEA04803F07EF8002801D001F0A3FD3D
:102D400070BD9848007850F0080096490870954882
:102D5000007850F08000934908709248007810F095
:102D6000BF00904908708F48407810F0F1008D49FD
:102D7000487000208B49487400208A49C87400209C
:102D8000884988740020874948608648407810F058
:102D9000FE0084494870FF208249C875022081499D
:102DA000087502207F49487500207E4988750020FB
:102DB0007C49C8608048006850F001007E49086086
:102DC0007D48006850F002007B4908607A48D0F8DE
:102DD000020030F080507849C1F802007648C0798E
:102DE00010F0DF007449C8717348807950F0010019
:102DF000714988717048C07910F0EF006E49C87150
:102E00006D48C07910F0BF006B49C8716A48C0793D
:102E100010F07F006849C8716748007A10F0FE0022
:102E200065490872704770B56448C07910F0C700F2
:102E30006249C87100206149C1F8A40000205F49BF
:102E4000C1F8980000205D49C1F8A00000205B494E
:102E5000C1F8B00000205949C1F8A8000020574926
:102E6000A1F8900000205549C1F8B4000020534952
:102E7000C1F8BC0000205149C1F8C00000204F49F2
:102E8000487300204D49C1F8C40000204B49A1F807
:102E90008C000A204949A1F892004FF400640025F3
:102EA000474E2A0021003000FFF7C0FD70BD80B5FD
:102EB0004448006850F002004249086041480068F8
:102EC00010F00200009000983E48006850F00100A9
:102ED0003C4908603B48006810F0010000900098F1
:102EE0004FF480702E49086301202D49486301206A
:102EF0002B49886303202A49C86333495FF0904017
:102F000003F0DAF8002028490870FF202549C87529
:102F100000224FF480715FF0904003F075FAC820F2
:102F200003F0CBFA01224FF480715FF0904003F080
:102F30006BFA322003F0C1FA4FF480715FF09040D9
:102F400003F0B3F91748C07D0E2801D000BFF9E7A0
:102F500001BD80B500224FF480515FF0904003F036
:102F600053FA012219491A4803F014FC002805D12C
:102F70001148006850F400500F49086001BD80B549
:102F80004FF400620E49124803F06AFC002805D194
:102F90000948006850F400500749086001BD00006E
:102FA000FC2500204827002015280020102600209E
:102FB000BC270020402600209C270020A81F0020BE
:102FC000140A00204C1002402C260020F61F00207E
:102FD000942300202DE9F04182B004000025DFF8A1
:102FE0001C0E0068C0F30010002840F0C78572B6C0
:102FF000DFF80C0EFFF717FEDFF8081E886262B6D6
:10300000DFF8000E806A002800F0B885DFF8F40DC4
:10301000806A8079012844D0022800F0998503282D
:1030200000F09685042800F09385062800F06E8154
:10303000072800F00881082800F07885092800F0AA
:1030400096850A2800F092850C2800F078840D28D7
:1030500000F0CD840E2800F020840F2849D01028DD
:1030600000F08F82142800F0BD81152800F04A83FB
:10307000162800F08C80172800F0C3821B2800F06F
:10308000F8811C2800F093831D2811D01E2800F021
:103090003C82232800F0F182242800F00A8500F009
:1030A0006DBDDFF8600D806A01F0EEF800F066BDDE
:1030B000DFF8500D806A407810F00F00DFF8AC1D8B
:1030C000097860F30201DFF8A40D01700020DFF839
:1030D000A01D8875DFF8980D407850F00100DFF8EA
:1030E000901D48700020DFF8841D81F8D80000F0A2
:1030F00045BDDFF8780DC07910F0C701083010F039
:1031000038000843DFF8641DC871DFF8600DC0792E
:10311000C0F3C200C0B209280EDBDFF8540D4078BE
:1031200050F00100DFF8481D48700420DFF83C1D16
:1031300081F8D80000F022BD0120DFF8381DDFF84B
:10314000C42C926A527812F00F025054DFF8B40C7B
:10315000806A407810F00F00DFF8101D097860F3E6
:103160000201DFF8080D01700020DFF8041D8875EA
:10317000DFF8FC0C407850F00100DFF8F41C4870D8
:103180000020DFF8E81C81F8D80000F0F7BCDFF879
:10319000DC0C007A10F0F801401C10F00700084326
:1031A000DFF8C81C0872DFF8540CD0F8020030F0C9
:1031B0008050DFF8481CC1F802000020DFF8AC1C8A
:1031C000C1F8C400DFF8A40C007A10F0070005284D
:1031D0000EDBDFF89C0C407850F00100DFF8901C0B
:1031E00048700420DFF8841C81F8D80000F0C6BCC9
:1031F0000120DFF8041EDFF80C2C926A527812F0DE
:103200000F025054DFF8FC0B806A407810F00F007A
:10321000DFF8581CC97960F30201DFF8500CC17166
:103220000020DFF84C1C8875DFF8440C407850F023
:103230000100DFF83C1C48700020DFF8301C81F8EA
:10324000D80000F09BBC01F012FBDFF8200CC07A24
:1032500001280CD1DFF8140C436EDFF8100C026E5D
:10326000DFF8981DDFF8980D04F038F810E0DFF86B
:10327000FC0BC07A00280BD1DFF8F00B436EDFF8AF
:10328000EC0B026EDFF87C1DDFF8740D04F026F8FD
:10329000DFF86C0DFFF7A0FB80B201F0F9FA050032
:1032A000EDB2002D23D10020DFF8C01BC1F8C4000F
:1032B000DFF8480BD0F8020050F08050DFF83C1BDC
:1032C000C1F80200DFF8340B006850F01000DFF89E
:1032D0002C1B0860DFF8240B006850F00400DFF8B6
:1032E0001C1B08600720DFF8881B88750CE00D2088
:1032F000DFF8781B81F8D800DFF8740B407850F0C5
:103300000100DFF86C1B487000F038BC01F0AFFA28
:10331000DFF8580BC07A012811D1DFF8500BD0F834
:10332000B8000090DFF8440B436EDFF8400B026EEC
:10333000DFF8E41DDFF8C80C03F0D0FF15E0DFF87C
:103340002C0BC07A002810D1DFF8200BD0F8B80081
:103350000090DFF8180B436EDFF8100B026EDFF8F9
:10336000BC1DDFF89C0C03F0B9FFDFF8940CFFF7ED
:1033700033FB80B201F08CFA0500EDB2002D23D1B1
:103380000020DFF8E81AC1F8C400DFF8700AD0F8AE
:10339000020050F08050DFF8641AC1F80200DFF834
:1033A0005C0A006850F01000DFF8501A0860DFF87F
:1033B0004C0A006850F00400DFF8401A086006204C
:1033C000DFF8AC1A88750CE00D20DFF8A01A81F840
:1033D000D800DFF89C0A407850F00100DFF8901A1E
:1033E0004870CBE301F043FADFF8800AB0F884308C
:1033F000DFF8780A807810F00702DFF8C01DDFF8E8
:10340000000C03F06BFFDFF8F80BFFF7E5FA80B272
:1034100001F03EFA0500EDB2002D19D101F027FAB6
:10342000DFF8480AB0F88460DFF8400AD0F880700E
:10343000DFF8CC8B320039004046FFF72FFB72B625
:10344000DFF8280AB0F8840001F022FA050062B61D
:10345000EDB2002D0CD0DFF8180A407850F00100D2
:10346000DFF80C1A48700D20DFF8001A81F8D80038
:1034700084E301F0FCF9DFF8F409B0F8840000906F
:10348000DFF8E809807810F00703DFF8E0098078BA
:10349000C0F3C202D2B2DFF8601DDFF8640B03F0A4
:1034A0001DFFDFF85C0BFFF797FA80B201F0F0F92F
:1034B0000500EDB2002D17D101F0D9F9DFF8AC0904
:1034C000B0F88460DFF8A409D0F88070DFF8308BA2
:1034D000320039004046FFF7E1FADFF89009B0F812
:1034E000840001F0D5F90500EDB2002D0CD0DFF815
:1034F0008009407850F00100DFF8741948700D2001
:10350000DFF8681981F8D80038E301F0B0F9DFF886
:103510005C09D0F8B830DFF85409026EDFF8DC1C23
:10352000DFF8DC0A03F0DAFEDFF8D40AFFF754FA1A
:1035300080B201F0ADF90500EDB2002D0DD0DFF83D
:103540003009407850F00100DFF8241948700D2050
:10355000DFF8181981F8D80012E01E20DFF81019E2
:1035600088750020DFF80419C1F8C400DFF88C0862
:10357000D0F8020050F08050DFF88018C1F8020047
:10358000FCE201F074F9DFF8E408C06E0090DFF8A7
:10359000DC08D0F8B830DFF8D408026EDFF8601C21
:1035A000DFF85C0A03F09AFEDFF8540AFFF714FA1A
:1035B00080B201F06DF90500EDB2002D0DD0DFF8FD
:1035C000B008407850F00100DFF8A41848700D20D2
:1035D000DFF8981881F8D80012E01020DFF8901872
:1035E00088750020DFF88418C1F8C400DFF80C08E3
:1035F000D0F8020050F08050DFF80018C1F8020047
:10360000BCE201F034F9DFF86408C36EDFF85C084F
:10361000D0F8B820DFF8EC1BDFF8E40903F05EFE19
:10362000DFF8DC09FFF7D8F980B201F031F90500C5
:10363000EDB2002D0DD0DFF83808407850F00100D1
:10364000DFF82C1848700D20DFF8201881F8D8001A
:1036500012E01720DFF8181888750020DFF80C1822
:10366000C1F8C400DFF89407D0F8020050F0805091
:10367000DFF88817C1F8020080E201F0F8F8DFF8FF
:103680008407806A407810F00F02DFF8881BDFF8AB
:10369000700903F023FEDFF86809FFF79DF980B297
:1036A00001F0F6F80500EDB2002D2AD10020DFF878
:1036B000BC1781F8D800DFF84407006850F010000C
:1036C000DFF838170860DFF83C07806A407810F0B0
:1036D0000F00DFF89817497960F30301DFF88C07D2
:1036E0004171DFF88C07407850F04000DFF8801718
:1036F0004870DFF87C07007850F00200DFF87017A0
:1037000008703BE2DFF86C07DFF8F816896A497841
:1037100011F00F01085C002844D001F0A8F8DFF890
:10372000E406806A407810F00F02DFF81C1BDFF817
:10373000D00803F0D3FDDFF8C808FFF74DF980B2D9
:1037400001F0A6F80500EDB2002D2FD10020DFF822
:103750001C1781F8D800DFF8A406006850F01000AC
:10376000DFF898160860DFF89C06806A407810F051
:103770000F00DFF8F816497960F30301DFF8EC0673
:103780004171DFF8EC06407850F01000DFF8E016E9
:103790004870DFF8DC06007850F00200DFF8D01641
:1037A000087003E0DFF8B80A01F00EFAE6E101F074
:1037B0005EF8DFF84408DFF84C16896A4978C9B228
:1037C0000909C9B2085C002866D0DFF83806806AAB
:1037D000407810F00F0009281AD0DFF82806806A18
:1037E000407810F00F03DFF81C06806A4078C0B202
:1037F0000209D2B2DFF86C1ADFF8040803F06EFD9C
:10380000DFF8F805C07950F00200DFF8F015C87154
:10381000DFF8EC07FFF7E0F880B201F039F80500B7
:10382000EDB2002D38D10020DFF8401681F8D80025
:10383000DFF8C805006850F01000DFF8C015086018
:10384000DFF8C005806A4078C0B20009DFF81C16B6
:10385000497960F30611DFF814064171DFF8A40519
:10386000806A407810F00F00DFF80016497960F3A5
:103870000301DFF8F8054171DFF8F405407850F0F6
:103880002000DFF8EC154870DFF8E405007850F010
:103890000200DFF8DC15087070E100F0E8FFDFF8E7
:1038A000CC05B0F88430DFF8C405026FDFF8B81932
:1038B000DFF84C0703F012FDDFF84407FFF78CF840
:1038C00080B200F0E5FF0500EDB2002D0DD0DFF86D
:1038D000A005407850F00100DFF8941548700D20E5
:1038E000DFF8881581F8D80028E000F0C0FFDFF885
:1038F0007C05B0F88460DFF87405D0F88070DFF8DC
:103900000087320039004046FFF7C8F8DFF8F006BC
:10391000FFF762F880B200F0BBFF0500EDB2002DAA
:103920000CD0DFF84C05407850F00100DFF840156E
:1039300048700D20DFF8341581F8D8001EE100F042
:1039400096FFDFF82805006F002806D1DFF81C1964
:10395000DFF8AC0603F0C2FC1FE0DFF81005006ED4
:10396000002809D1DFF80405026FDFF80419DFF839
:10397000900603F0B3FC10E0DFF8F004D0F8B800D4
:103980000090DFF8E804036FDFF8E004026EDFF870
:10399000E418DFF86C0603F0A1FCDFF86406FFF71B
:1039A0001BF880B200F074FF0500EDB2002D10D1BD
:1039B000DFF84804006850F00050DFF84014086059
:1039C000DFF83804006850F08050DFF830140860E9
:1039D0000CE0DFF89C04407850F00100DFF8901410
:1039E00048700D20DFF8841481F8D800C6E000F09C
:1039F0003EFFDFF8780490F97C0010F1010F31D11F
:103A0000DFF8680490F97D0010F1010F2AD1DFF88A
:103A10005C04006F002811D0DFF85004406F0028CC
:103A20000CD0DFF84804436FDFF84004026FDFF882
:103A30004818DFF8CC0503F051FC21E0DFF82C0436
:103A4000006F00281CD0DFF82404406F002817D135
:103A5000DFF81804026FDFF82418DFF8A40503F07C
:103A60003DFC0DE0DFF8040490F97D30DFF8FC0345
:103A700090F97C20DFF80818DFF8840503F02EFCAD
:103A8000DFF87C05FEF7A8FF80B200F001FF05001B
:103A9000EDB2002D0CD0DFF8D803407850F00100D3
:103AA000DFF8CC1348700D20DFF8C01381F8D80080
:103AB00064E000F0DCFEDFF8B403D0F8B80000905A
:103AC000DFF8A803036FDFF8A403026EDFF8B41772
:103AD000DFF82C0503F002FCDFF82405FEF77CFF7D
:103AE00080B200F0D5FE0500EDB2002D10D1C34824
:103AF000006850F08060C1490860C048006850F01C
:103B00008050BE4908602420DFF8641388750CE0FB
:103B1000DFF85C03407850F00100DFF85413487080
:103B20000D20DFF8481381F8D80027E0DFF84003C4
:103B3000407850F00100DFF8381348700D20DFF8AE
:103B40002C1381F8D8000020DFF82413887515E0C5
:103B5000C748407850F00100C54948700020C3496B
:103B600081F8D8000020C249887507E006E0A34824
:103B7000006850F04000A1490860FFE79F480068D6
:103B8000C0F3004000280CD09C48006830F480301E
:103B90009A490860B548D0F8980080B203F038FE22
:103BA000B0E196488079C0F34000C0B200280CD044
:103BB0009248807910F0FD0090498871AB48D0F8A8
:103BC000980080B203F057FE9CE18C480068C0F377
:103BD000805000280FD0A6480078C0F3C000C0B2C3
:103BE000002808D08548006830F4800083490860C8
:103BF00003F0BEFE86E181488079C0F34010C0B278
:103C000000280FD09A480078C0F3C000C0B2002846
:103C100008D07A48807910F0DF007849887103F085
:103C2000D6FE6FE175488079C0B2C009C0B20028E5
:103C30000FD08F480078C0F3C000C0B2002808D071
:103C40006E48807910F07F006C49887103F0F4FEB3
:103C500058E16A480068C0F3404000280CD067482B
:103C6000006830F40030654908608048D0F898005A
:103C700080B203F03DFE45E16048D0F80100C00F7E
:103C8000002813D05D48D0F80100400040085B498F
:103C9000C1F80100012175488079C0F3C200C0B2AB
:103CA00000F072FD0220724908752BE15348D0F8EC
:103CB0000100C0F3C060002827D05048D0F80100B0
:103CC00030F000604D49C1F801006848B0F88E003E
:103CD00000906648D0F8AC30DFF89C2A6348407802
:103CE000C0F3C200010049B25FF0FF3000F015FFE1
:103CF0004FF400760027DFF8808A3A003100404612
:103D0000FEF794FE00F06DFAFCE03C48D0F80100AC
:103D1000C0F3007000282BD03848D0F8010030F0F4
:103D200080503649C1F801005048B0F88E0000902C
:103D30004E48D0F8AC30DFF8402A4C484078C0F309
:103D4000C200010049B2494890F9030040F3020063
:103D500040B200F0E2FE4FF400760027DFF8188A48
:103D60003A0031004046FEF761FE00F03AFAC9E041
:103D70002248D0F80100C0F38070002817D03D48D9
:103D80003A49897911F00701085C002806D0022120
:103D90003648807910F0070000F0F6FC1748D0F89C
:103DA000010030F080401549C1F80100AAE0134835
:103DB000D0F80100C0F34070002825D02C48007DC9
:103DC000012805D10121DFF8B40900F0A7FE08E0C1
:103DD0002748007D022804D10221DFF8A00900F065
:103DE0009DFE0220224908750448D0F8010030F0F9
:103DF00000500249C1F8010084E000BF9C27002068
:103E000010260020FC250020DFF87409D0F80200FD
:103E1000C0F3006000282FD0DFF86409D0F802005A
:103E200030F08070DFF85819C1F80200DFF850094F
:103E30000068C0F34070002804D0DFF83C0900F0AF
:103E400071FE06E00948B0F88A10DFF82C0901F08D
:103E500072F94FF400760027DFF81C893A00310030
:103E60004046FEF7E3FD00F0BCF94BE0A81F002040
:103E700048270020BC270020DFF80409D0F8020002
:103E8000C0F3406000281AD0DFF8EC0800F04AFECA
:103E90004FF400760027DFF8E0883A003100404612
:103EA000FEF7C4FD00F09DF9DFF8D408D0F8020059
:103EB00030F00070DFF8C818C1F8020022E0DFF827
:103EC000C0080068C0F3803000280AD000F028FE47
:103ED000DFF8AC08006830F48040DFF8A418086010
:103EE00010E0DFF89C080068C0F3C030002809D05B
:103EF00000F017FEDFF88808006830F40040DFF8B3
:103F000080180860DFF83409C07D002800F0A38025
:103F1000012800F0A880022800F0AD80032800F0FE
:103F2000B280042800F0B780052800F0BC80062885
:103F300000F0C980072800F0CE80082800F0D38068
:103F400009284DD00A285FD00B2864D00C286BD0EC
:103F50000D2800F0B0800E282BD00F2800F01F8114
:103F6000102800F0C880112800F0DA80122800F034
:103F7000DF80132800F0E480142800F01081152859
:103F800000F0C180162800F0E380172800F0E880D8
:103F9000182800F0ED80192800F0F2801A2800F0AF
:103FA000F7801B2849D01C284ED0FF2800F0F7804E
:103FB000F5E0DFF888084078C0F34200C0B202287C
:103FC0000DD1DFF87808407810F0F101801C10F076
:103FD0000E000843DFF86418487001F09CF8DEE03A
:103FE000DFF8A0070078002805D10120DFF894173A
:103FF000087001F098F8D2E004280020180C01089D
:1040000014020020300C010800F083FDFF20DFF8CF
:104010002C18C875C3E0DFF8C80700F07BFDFF204F
:10402000DFF81818C875BAE0DFF8B40700F073FDC0
:10403000FF20DFF80818C875B1E000F074FDFF201C
:10404000DFF8F817C875AAE000F06DFDFF20DFF873
:10405000EC17C875A3E0FF20DFF8E017C875112042
:1040600000F055FD9BE0FF20DFF8D017C875142045
:1040700000F04DFD93E0FF20DFF8C017C875132056
:1040800000F045FD8BE0FF20DFF8B017C875152064
:1040900000F03DFD83E0FF20DFF8A017C875162073
:1040A00000F035FD7BE0FF20DFF89017C8751B207E
:1040B00000F02DFD73E0FF20DFF88017C8751C208D
:1040C00000F025FD6BE0FF20DFF87017C8751720A2
:1040D00000F01CFD63E0FF20DFF86017C8751220B8
:1040E00000F014FD5BE0FF20DFF85017C8751820C2
:1040F00000F00CFD53E0FF20DFF84017C8751D20CD
:1041000000F006FD4BE0FF20DFF83017C8751E20D9
:1041100000F0FEFC43E000BFA0060108C006010855
:10412000FF20DFF81817C875192000F0F1FC36E001
:10413000FF20DFF80817C8751A2000F0E9FC2EE010
:10414000FF20DFF8F816C875062000F0E1FC26E035
:10415000FF20DFF8E816C8751F2000F0DDFC1EE028
:10416000FF20DFF8D816C875202000F0D5FC16E037
:10417000FF20DFF8C816C875212000F0CDFC0EE046
:10418000FF20DFF8B816C875222000F0C5FC06E055
:10419000FF20DFF8A816C87500F0C1FCFFE7BDE8F6
:1041A000F3810020DFF894168860DFF8900600782D
:1041B00050F00400DFF8841608707047AC0E010858
:1041C0000020DFF878168860DFF87006007810F0BD
:1041D000FB00DFF8681608700120DFF860164874ED
:1041E0007047DFF85806007850F00800DFF84C16EA
:1041F0000870704700000000480C0108B40901086D
:10420000D0090108C00E01080121DFF84C27D17444
:1042100070470000D40E0108DFF82006407810F047
:104220000100002801D100BFF6E7DFF81006407852
:1042300010F0FE00DFF804164870DFF8F00690F882
:10424000D800704700000000CC12010810B504002F
:1042500000F019FB10BD10B50400FCF75BF810BDB1
:10426000600C0108E80E0108FC0E0108CC160108DC
:10427000DC120108E0060108100F0108EC12010829
:10428000FC1201080007010810B50400207804287A
:1042900064D0052867D008286AD009286DD00A287C
:1042A00070D00B2873D00C2876D00F2879D0142822
:1042B0007CD0162800F07F80172800F08180182815
:1042C00000F083801A2800F0A1801B2800F0A38052
:1042D0001F2800F0A580202800F0A780232800F0E8
:1042E000E080242800F0E680262800F0E8802828D6
:1042F00000F0F280292800F0F4802A2800F0FA80EB
:104300002B2800F0FC802C2800F0FE80372800F0DD
:1043100000813A2800F063813D2800F077813E2833
:1043200000F081813F2800F09A81402800F06D81E3
:10433000422800F0BD81432800F09681442800F017
:104340009C81452800F0A481462800F0A8815828C7
:1043500000F0B581592800F0D081E2E10720DFF8B4
:10436000DC14C875DDE10020DFF8D014C875D8E191
:104370000120DFF8C814C875D3E10220DFF8BC14AF
:10438000C875CEE10320DFF8B414C875C9E1042074
:10439000DFF8A814C875C4E10620DFF8A014C875BA
:1043A000BFE10820DFF89414C875BAE11120DFF8E6
:1043B0008C14C875B5E11220DFF88014C875B0E11F
:1043C0001320DFF87814C875ABE1DFF86005007AD8
:1043D00010F0E701083010F018000843DFF84C1522
:1043E0000872DFF84805007AC0F3C100C0B20228A5
:1043F0000BD10920DFF84414C875DFF83005007AC6
:1044000010F0E700DFF8241508728AE10A20DFF8CF
:104410002C14C87585E10520DFF82014C87580E1EB
:104420000D20DFF81814C8757BE1DFF81004407820
:10443000C0F34200C0B202280BDADFF80004407873
:1044400010F0F101801C10F00E000843DFF8EC13AF
:104450004870DFF8E803007850F01000DFF8DC1354
:1044600008700E20DFF8D413C875DFF81403006855
:10447000C0F38010002813D0DFF80403006830F088
:104480004000DFF8FC120860DFF8F402006830F446
:104490000070DFF8EC1208601C20DFF8A013C8756C
:1044A0003FE1DFF8DC02006830F48060DFF8D01212
:1044B000086036E11620DFF88413C87531E1DFF8B3
:1044C0007C03007810F0EF00DFF8701308700F2005
:1044D000DFF86813C87524E11020DFF86013C87591
:1044E0001FE10020DFF89C1208701520DFF84C1344
:1044F000C87516E11720DFF84413C87511E11820BC
:10450000DFF83813C8750CE11920DFF83013C875CF
:1045100007E1DFF86C020068C0F34050002840F06B
:1045200000816078C0B20009C0B2092826D1607845
:1045300010F00F00DFF8F413097860F3C501DFF81D
:10454000EC030170DFF88005DFF8E0130978C1F3B0
:10455000C201C9B2085C002840D0DFF8240200681C
:1045600050F48000DFF818120860DFF814020068C9
:1045700050F01000DFF8081208602FE06078C0B239
:104580000009DFF8A813497860F30201DFF89C0303
:104590004170607810F00F00DFF89013097860F335
:1045A000C501DFF888030170DFF82005DFF87C1310
:1045B000497811F00701085C00280FD0DFF8C0012E
:1045C000807950F02000DFF8B8118871DFF8B00171
:1045D000006850F01000DFF8A8110860A1E06078D2
:1045E00010F00F00DFF84413897960F30201DFF85F
:1045F0003C038171DFF88801D0F8010050F0804061
:10460000DFF87C11C1F801008BE08AE0DFF870016F
:10461000006850F48040DFF8681108600120DFF87E
:10462000B01408707DE0607810F00F00010049B20E
:104630006078C0B2000940B200F0D4F8DFF8400161
:10464000006850F40040DFF8381108600020DFF8FF
:10465000841408700020DFF87814087061E01A20D4
:10466000DFF8D811C8755CE0DFF81401006850F479
:104670000070DFF80C11086053E04148006830F426
:1046800000703F4908601C20DFF8B011C87548E091
:104690003B48006850F480703949086041E0384870
:1046A000006830F480703649086000F041F938E065
:1046B0003348006850F080003149086031E03048EC
:1046C0000068C0F3405000282BD1607810F00F0034
:1046D000DFF85812097860F3C501DFF85002017065
:1046E0002748807950F08000254988712448006867
:1046F00050F010002249086013E0607810F00F00BD
:10470000DFF82812897960F3C501DFF82002817192
:104710001B48D0F8010050F000401949C1F80100D1
:10472000FFE710BDF8B504000D0016001F0000F0F3
:1047300087F8DFF8F8010466DFF8F0014566DFF876
:10474000EC01C0F8B860DFF8E401C7720620DFF8BA
:10475000FC1181F8260072B6DFF8F001D0E90823D9
:1047600011001A00DFF87003FEF712FA62B6DFF8E4
:104770006C03FEF7A9FAF1BD18180020AC1F002049
:104780009C2700201528002038B504000D0000F0FB
:1047900057F8EDB2022D04D115206C4981F826009E
:1047A00006E0EDB2012D03D12320684981F82600EF
:1047B000664890F8210064F30300644981F8210001
:1047C00072B66248D0E9082311001A00DFF8080326
:1047D000FEF7DEF962B6DFF80403FEF775FA31BDC5
:1047E000F71F002038B504000D0000F029F85748E5
:1047F00090F8210010F00F0050EA0410534981F89E
:104800002100524890F8210065F303004F4981F8D8
:1048100021001C204D4981F8260072B64B48D0E992
:10482000082311001A00DFF8B002FEF7B1F962B6F2
:10483000DFF8A802FEF748FA31BD00004827002043
:104840004548007810F0010000280DD1424800785A
:10485000C0F34000C0B2002808D03F484078C0F301
:104860000010C0B2002801D100BFE9E7704770B561
:104870004FF400640025DFF868622A002100300050
:10488000FEF7D4F870BD80B5002003F0CCFA01BD6E
:1048900010B504002F480078C0F30010C0B2002803
:1048A00008D12C480078C0F38010C0B2002801D194
:1048B000052039E0DFF83C02006810F4407F01D0A9
:1048C000102031E0DFF82C02006850F48050DFF84F
:1048D00024120860A4B2002C05D1DFF81C0200F0FD
:1048E00073F91F2020E04FF47A73220092B2DFF8B0
:1048F000F011174801F059FE002803D0FFF7C3FF5D
:104900000F2011E0DFF8EC01006830F48050DFF890
:10491000E4110860DFF8DC010068C0F340300028D3
:1049200001D1FEF716FB002010BD0000A81F0020DB
:104930000A48D0F8020050F000600849C1F80200AF
:104940000020DFF8B811C1F8BC007047FC2500203A
:104950009423002048270020482700209C2700207F
:104960002DE9F047040088460026FFF780FF22006B
:104970005C495B4802F0B2FC5948FEF72DF880B262
:10498000FFF786FF0600F6B2002E15D1FFF744FCB4
:1049900006005548FEF720F80500534F2A0039005D
:1049A0004046FEF77BF85FF00009DFF83CA14A467D
:1049B00029005046FEF73AF83000C0B2BDE8F08753
:1049C00070B504000D000026FFF751FF2B002200F8
:1049D0004B49434802F082FC4148FDF7FDFF80B29D
:1049E000FFF756FF0600F6B2002E02D1FFF714FCC7
:1049F00006003000C0B270BD70B504000D00002686
:104A0000FFF735FF2B0022003E49354802F066FCD7
:104A10003348FDF7E1FF80B2FFF73AFF0600F6B238
:104A2000002E02D1FFF7F8FB06003000C0B270BDC7
:104A300038B504000025FFF71AFF22002B4928484B
:104A400002F04CFC2648FDF7C7FF80B2FFF720FFBD
:104A50000500EDB2002D02D1FFF7DEFB05002800B6
:104A6000C0B232BD38B504000025FFF700FF2200B8
:104A70001F491B4802F032FC1948FDF7ADFF80B218
:104A8000FFF706FF0500EDB2002D02D1FFF7C4FBD2
:104A900005002800C0B232BD10B50024FFF7E7FEC4
:104AA00019490F4802F01AFC0D48FDF795FF80B236
:104AB000FFF7EEFE0400E4B2002C02D1FFF7ACFBDE
:104AC00004002000C0B210BDBC2700200428002034
:104AD0001628002017280020102600201C26002061
:104AE000140200200C130108B61F0020240F010837
:104AF000200701089C27002040070108A81F00206C
:104B0000380F01084C0F0108D8160108704770478C
:104B100070477047704770477047704770477047DD
:104B200070477047704770475FEA000C830706D0F4
:104B300011F8013B00F8013BB3B18307F8D10A68D3
:104B4000B2F1013323EA020313F0803F02BF40F8C1
:104B5000042B51F8042FF3E711F8013B00F8013B57
:104B600013B111F8013BF9E76046704738B504000E
:104B70000D002900200003F06DF932BD70B5044628
:104B80000D46104803F072F9064644B12946204606
:104B900003F06DF90419207830B9306070BD3468C5
:104BA000002CF3D1002070BD2946204603F070F997
:104BB0000019017811B1002100F8011B3060204676
:104BC00070BD00BF080200200EB400B582B003A97A
:104BD000009102466B460121034878440A3003F0F5
:104BE00069F906BC5DF810FBC1C000002DE9F04773
:104BF00082B00024DFF86C555026DFF86C75DFF8C2
:104C00006C05006850F00100DFF860150860DFF8FF
:104C10005C05006810F001000090009801F026FC8F
:104C200000F0FEF804F039F804F0C2F8002003F0B8
:104C3000CBF800F048F95FF4E131DFF8340500F01B
:104C400022F9DFF82C0504F04DF900F08FF904008B
:104C5000E4B2002C05D0DFF81C05FFF7B5FF0020FB
:104C6000DCE05FF4E13004F0C5F80020DFF808155F
:104C700048700220DFF8001588700120DFF8F81472
:104C8000C8700220DFF8F4140870DFF8F404FFF7AE
:104C90009BFFDFF8E40402F03BFB0400E4B2002CCD
:104CA00005D0DFF8E004FFF78FFF0020B6E0DFF863
:104CB000CC040078002810D001280FD0022800F082
:104CC000A08003281CD0052823D0062826D007283A
:104CD00071D0082800F08C809FE0E8E7DFF8A80496
:104CE000FFF772FFDFF8A4040278DFF8A414DFF8FE
:104CF000A40402F063FF0220DFF880140870D6E7F6
:104D0000DFF89404FFF760FF0620DFF870140870E6
:104D1000CDE70020DFF864140870C8E7DFF87C14E2
:104D2000DFF87C040068FFF71BFE0400DFF86C145A
:104D3000DFF87004FFF748FF5FF014085FF0000928
:104D4000DFF858A44A4641465046FDF76FFEDFF8AB
:104D50004C14DFF854040068FFF702FE0400DFF88B
:104D60003C14DFF84804FFF72FFFDFF84404007815
:104D7000002804D00720DFF8041408701AE0DFF8D8
:104D80003404FFF721FF32002900DFF82C0402F081
:104D9000ADFE0400E4B2002C04D1DFF82004FFF7DC
:104DA00013FF03E0DFF81804FFF70EFF0220DFF81F
:104DB000CC1308707BE7DFF80C04FFF705FF320027
:104DC0003900DFF80404006802F0B5FE0400E4B224
:104DD000002C04D1DFF8F403FFF7F6FE03E0DFF860
:104DE000F003FFF7F1FE0220DFF8901308705EE792
:104DF000DFF8E003FFF7E8FE0220DFF88013087019
:104E000055E759A0FFF7E0FEDFF8CC0304F0ABF85C
:104E10004FF4FA7001F051FB49E748E7BDE8F68727
:104E200000B597B06846142104F0BAF805A84421EB
:104E300004F0B6F81020059001200B9060200D9032
:104E400000200C9002200F90012010900120119062
:104E5000282012900220159007201390042014900F
:104E600005A804F0A1F80F20009003200190002075
:104E7000029000200390002004900421684604F072
:104E8000B7FB17B000BD38B504000D00DFF84C03C8
:104E9000206065600020A0600020E06000202061AC
:104EA0000020A0610C206061200001F056FB00286A
:104EB00001D0FFF7E8FC200001F010FB002801D032
:104EC000FFF7E1FC31BD00B587B0A848006850F09D
:104ED0000100A6490860A548006810F00100009094
:104EE0000098A248006850F00100A04908609F485F
:104EF000006810F0010000900098B948006850F474
:104F00000030B7490860B648006810F400300090DF
:104F10000098B448006850F00100B2490860B148F8
:104F2000006810F001000090009804200190022019
:104F3000029001200390032004900720059001A90E
:104F40005FF0904001F0B8F8082001900020029036
:104F5000022002900720059001A95FF0904001F027
:104F6000ABF807B000BD00002E0000002DE9F84F9F
:104F700000249D48FFF728FE9C48FFF725FE9C482B
:104F8000FFF722FE9B48FFF71FFE9B48FFF71CFE22
:104F90009648FFF719FE9948FFF716FE9848FFF765
:104FA00013FE8D4803F0DFFF96496CA004F054FD1A
:104FB0006BA0FFF709FE9348007879286DD1012096
:104FC000914908709148FFF7FFFD834803F0CBFF3C
:104FD00000208F4908706F4960A004F03DFD8C49A6
:104FE00008705FA0FFF7F0FD89480078272804D1FA
:104FF0008848FFF7E9FD04208BE08748FFF7E4FDD0
:10500000754803F0B0FF002081490870604953A043
:1050100004F022FD7E49087051A0FFF7D5FD7C48C1
:105020000078132804D17D48FFF7CEFD042070E0FE
:105030007B48FFF7C9FD684803F095FF714947A019
:1050400004F00AFD46A0FFF7BFFD6E480078302847
:1050500004D00FD3322809D004D30BE000204B49F1
:1050600008700CE001204949087008E00220474917
:10507000087004E06B48FFF7A7FD042049E06A4888
:105080000068FDF7A9FC0500674806684A4F2A003A
:1050900031003800FDF702FD2DE06448FFF794FD74
:1050A00063480068FDF798FC050061480668394FC1
:1050B0002A0031003800FDF7F1FC5E480068FDF77A
:1050C0008BFC07005B48D0F80080DFF8C4903A0002
:1050D00041464846FDF7E2FC53480068FDF77CFC7A
:1050E00081465148D0F800A0DFF8CCB04A4651467E
:1050F0005846FDF7D3FC5048FFF766FD4F48FFF7D1
:1051000063FD4F48FFF760FD4E48FFF75DFD20004F
:10511000C0B2BDE8F28F80B54B48FFF755FD0120C6
:105120001649087001BD80B54848FFF74DFD0320C2
:105130001249087001BD70B504000D004448FFF726
:1051400043FD244E2A0021003000FDF7A7FC214832
:10515000FFF73AFD02A0FFF737FD70BD2573000091
:105160000D0A000080170108D8F900084C10024011
:1051700024230020200A0108B8260020142800203B
:105180003C0201089C0F0108A00701081002002042
:105190006027002020270020E00C0108882700203D
:1051A000F4010020380A0108F8010020500A010823
:1051B00010280020F40C010874270020AC0F01080F
:1051C000080D0108A4FE0008F00100201C0D0108D4
:1051D000300D0108141600203C010020004400405E
:1051E000581002406010024018F9000814FA000834
:1051F00050FA00088CFA0008C8FA000804FB0008FE
:10520000600201081128002013280020BC0F0108AB
:105210001228002024FD0008440D0108D0FE0008DB
:1052200058F90008FCFE0008EC01002054FD0008BD
:10523000E4010020E801002008F800084CF800080C
:1052400090F80008D4F8000860040108680A010812
:10525000580D010870B50C46257835B970BD11F8A8
:10526000013F1678B34206D0401C294604F006FCE4
:1052700028B10146224612F8013F002BEFD170BD44
:1052800003460846C2680169521C491E0029016193
:10529000C26003D400680122002118474FF0FF309C
:1052A0007047034608461146C268521E11F1010FAD
:1052B000C26002D000680022184770472DE9F0470D
:1052C00088B0054600914FF0FF36186801903446CB
:1052D0000020039002920FF604370FF6F8286FF0C3
:1052E000004902E00298401C02900298007804F005
:1052F000DAFBB0B10398401C039001220098002112
:10530000A847824604F0CFFB0028F3D10398401E43
:105310001AF1010F0390E5D0009800225146A847EA
:10532000E0E7DDF808A09AF8000030B9002CB8BF1B
:105330000024204608B0BDE8F08725280BD10AF1EB
:105340000100029000782A2816D10298401C029091
:10535000401E007811E00398401C03900122009841
:105360000021A8479AF800108842BBD0024669463F
:105370002846FFF796FFD9E700208DF81C00002093
:1053800005900AE00599494505D001EB810302EB40
:10539000430130390591401C029002980278A2F135
:1053A00030010A29EED306960178404604F066FBE8
:1053B00020B10298401C0290401E00788DF81D001C
:1053C0009DF81D00682801BF02990A78682A6220AA
:1053D00006D06C2802BF029908786C2804D171208D
:1053E0008DF81D00481C029002980178384604F0A0
:1053F00045FBA8B90398401C0390012200980021A6
:10540000A847824604F04FFB0028F3D10398401EC2
:105410001AF1010F039003D0009800225146A847CB
:105420006946284600F010F8012803DA002C3FF501
:1054300081AF7EE7002C48BF00249DF81E000028A5
:105440003FF450AF641C4DE770B505460C46002094
:10545000A077A0680078253858D01C3823D0001FCA
:10546000022820D913381AD0C01E66D0801F1AD047
:10547000801E12D0401E12D0401E022813D9001FD9
:105480000DD0401F13D0401E012808D9001F3BD06B
:10549000801E04D0C01E02D055E000224FE02846F6
:1054A000BDE870402EE12846BDE8704021E2207F33
:1054B000002835D1607F622808D0682816D06A2875
:1054C0000BD06C2819D0712807D016E0606850F80E
:1054D000041B6060E068087022E0606850F8042BEC
:1054E0006060E068C117C2E9000119E0606850F827
:1054F000041B6060E068088012E0606850F8041BDC
:105500006060E06808600BE0012218E0E068401C81
:10551000E060012220680021A8470646252E01D11F
:10552000012070BD324621462846FFF7BAFE16F12B
:10553000010F08D14FF0FF3070BD4FF0FF32284609
:10554000BDE8704001E0002070BD2DE9F04F174626
:105550000025002F83B080460E464FF0000927D566
:10556000B068401CB06000785E2806D1B068401C6E
:10557000B060401E0078019000E00195B46820788A
:105580005D280CBF601C20465D2104F077FA0028DE
:1055900000F0AF80011B0091B0600098032807DB8A
:1055A000821E2D21601C04F089FA08B14FF0010918
:1055B0007069012804DA002F14BF6FF00040012049
:1055C0003061307F60B9706850F804AB706007E0FC
:1055D0000AF801BB0120B077B069401EB061022516
:1055E0003069401E3061F0680ED4401CF06001222A
:1055F00030680021C04783461BF1010F63D0012FA3
:1056000007DB04F050FA16E0401CF0604FF0FF3B5F
:1056100059E0002F50D5B9F1000F0FD10198009A31
:1056200000285946204604D104F048FA00284AD000
:1056300042E004F043FA002845D13DE00199009A88
:105640000029C0B2214624D107E00B789842A4BFBC
:105650008B78834230DAC91CD21E032A09D34B78D7
:105660002D2BF2D011F8013B834218BF521EF4D10A
:1056700022E042B311F8013B834218BF521EF8D119
:105680001AE00B789842A4BF8B7883421BDAC91CBE
:10569000D21E032A0ED34B782D2BF2D011F8013BEA
:1056A000834218BF521EF4D10DE011F8013B834232
:1056B00009D0521E002AF8D1307F00288FD1B0695E
:1056C000002885D101255A4631464046FFF7E9FDBD
:1056D0000FB1022D09D0022D10D0E80702D41BF122
:1056E000010F06D14FF0FF3009E0307F30B9B069CB
:1056F00008B9002003E000208AF80000012003B070
:10570000BDE8F08F2DE9F0430C4689B08046606912
:105710000128B8BF6FF000402061E9464046FFF71E
:10572000AFFD05462B2D18BF2D2D08D18DF800504B
:1057300021464046FFF7A4FD0DF101090546A0688A
:1057400000780027642814BF75280A260DD0692820
:1057500008BF002609D06F2808BF082605D070288A
:105760001ABF40F0200078281026302D19D121468C
:105770004046FFF785FD054645F020000127C0B2F1
:1057800078280BD1002E18BF102E13D12146404689
:10579000FFF776FD1026054600270BE056B90826D0
:1057A00008E006BB0A261EE0206801220021C0474F
:1057B00005460127302D0BD12069411EE06821618B
:1057C000401C0029E060EFD54FF0FF35012700E0D5
:1057D0004FB1302009F8010B05E0206801220021BB
:1057E000C0470546012715F1010F23D0E9B2612911
:1057F000A8BF573909DA4129A8BF373905DAA1F11D
:1058000030020A2A34BF3039FF21C9B2F0B28142D6
:1058100010D20DF11F00814538BF09F8015B2069E6
:10582000411EE0682161401C0029E060D5D54FF0A1
:10583000FF3501272A4621464046FFF732FD3FB992
:10584000E9450ABF15F1010F00204FF0FF304DE090
:10585000002089F80000207F002846D1A068007849
:10586000642818BF692807D132460021684604F031
:10587000A1F90122A2770AE032460021684604F02D
:1058800049FA0122A277A2681278702A28D0627F92
:10589000622A0CD0682A17D06A2A0ED06C2A19D036
:1058A000712A0AD0742A18BF7A2A13D018E06268C5
:1058B00052F8043B6260187017E0626852F8043BCB
:1058C0006260C3E9000110E0626852F8043B626064
:1058D00018800AE0626852F8043B6260186004E0D5
:1058E000626852F8043B62601860012009B0BDE8AC
:1058F000F0832DE9F04F0C4693B081466069012892
:10590000B8BF6FF00040206100254846FFF7B8FCA3
:1059100007462B2F18BF2D2F0DF1080B08D18DF83E
:10592000087021464846FFF7ABFC0DF1090B07460E
:105930000026302F4FF00A0818D121464846FFF7BD
:105940009FFC074647F02000C0B2782840F0F18065
:1059500030200BF8010B214678200BF8010B4FF09B
:1059600010084846FFF78CFC0746E3E047F02000AC
:10597000C0B26E285BD10BF8010B21464846FFF7F9
:105980007FFC074647F02000C0B26128A84640F0DF
:10599000E9810BF8010B21464846FFF771FC0746E9
:1059A00047F02000C0B26E2840F0DC812146484616
:1059B000FFF766FC0246282A19D021464846FFF721
:1059C00070FC6E200BF8010B00208BF80000207F8C
:1059D000002840F0FA81B8F10B0F80F2D4812A46FA
:1059E000002102A804F072FACDE90001D6E1E168D5
:1059F0002069491C401E00282061E16005D4206810
:105A000001220021C847824601E04FF0FF3A50468C
:105A100004F03FF800285746E9D1AAF130000A28DF
:105A2000E5D35F2FE3D0292F40F09C81C9E7692897
:105A300040F092800BF8010B21464846FFF720FC0E
:105A4000074647F02000C0B26E28A84640F08A8181
:105A50000BF8010B21464846FFF712FC074647F0BA
:105A60002000C0B2662840F07D8121464846FFF7FD
:105A700007FC40F02001C9B2692906D00246214640
:105A80004846FFF70EFC66209CE721464846FFF794
:105A9000F7FB074647F02000C0B26E2840F0628155
:105AA000E1682069491C401E00282061E16005D49E
:105AB000206801220021C847074601E04FF0FF3768
:105AC00047F02000C0B2692840F04C81E1682069AD
:105AD000491C401E00282061E16005D42068012295
