:020000040800F2
:1000000090190020159A00084D6B00084F6B0008EE
:10001000596B0008636B00086D6B0008000000005E
:10002000000000000000000000000000776B0008E6
:10003000816B0008000000008B6B0008A16B0008BA
:10004000E99B0008ED9B0008F19B0008F59B000868
:10005000F99B0008FD9B0008019C0008059C000816
:10006000099C00080D9C0008119C0008159C0008C4
:10007000199C00081D9C0008219C0008259C000874
:10008000299C00082D9C0008319C0008359C000824
:10009000399C00083D9C0008419C0008459C0008D4
:1000A000499C00084D9C0008519C0008559C000884
:1000B000976B00088D6B0008599C00085D9C000838
:1000C000619C0008659C0008699C00086D9C000804
:1000D000719C0008DD6B0008E76B0008759C000848
:1000E000799C00087D9C0008819C00082DE9F04166
:1000F0000400002503F047FCE4B222001349144831
:1001000003F0BEFDFF201349C875114803F0D2FD6E
:1001100080B203F04EFC0500EDB2002D02D02800A5
:10012000C0B210E001260027DFF82C803A00310031
:10013000404603F0DFFD0748C07D0E2801D000BF18
:10014000F9E72800C0B2BDE8F0810000BC9A0008C1
:10015000680500200C150020231500202DE9F04F24
:100160008BB0040000250020029020780500DFF805
:10017000400D0068C0F3804000280FD1EDB2002D83
:100180000CD0DFF8300DDFF8301D09680D54DFF8B2
:10019000280D0068401CDFF8201D0860DFF81C0DEA
:1001A00003F096FEDFF80C0DDFF80C1D0968081847
:1001B00010F8020C0D2840F00A84DFF8F80CDFF884
:1001C000F81C0968081810F8010C0A2840F0FF8391
:1001D000DFF8DC0C0068C0F30070002840F0F78303
:1001E000DFF8D40D007810F00100002840F0EF8314
:1001F000DFF8C81DDFF8BC0C03F079FE002861D0E1
:1002000002F0B8FFDFF8AC0C01F0ACFC02F0A8FF84
:10021000DFF89C0C0068C00F002810D172B6DFF820
:10022000A40DD0E9082311001A00DFF89C0D03F09B
:10023000B3FD62B6DFF8840C03F04AFE1AE0DFF883
:10024000700C0068C0F34000002813D1DFF86C0C7C
:1002500003F03EFEDFF8580C006840004008DFF86D
:10026000501C0860DFF8480C006850F00200DFF80E
:10027000401C0860DFF8380CD0F80100C0F3406083
:10028000002807D1DFF8280C006840004008DFF89C
:10029000201C08600020DFF8201C0860DFF8100C2C
:1002A000006810F00260B0F1026F09D1DFF8000CB5
:1002B000006830F00060DFF8F81B086000F06ABCEE
:1002C00001F039BCDFF8041DDFF8E80B03F00FFE86
:1002D000002800F0C281DFF8F81CDFF8D80B03F02B
:1002E00006FE060000282CD030798DF804007079C5
:1002F0008DF805009DF804000A219DF8052001FBFA
:100300000020DFF8C01C91F8211060F30301DFF832
:10031000B40C80F821100F20DFF8A81C81F826000B
:1003200072B6DFF8A00CD0E9082311001A00DFF83C
:10033000980C03F031FD62B6DFF8800B03F0C8FDC6
:1003400069E1DFF8901CDFF86C0B03F0D0FD0600CC
:10035000002800F0A780707A8DF80000B07A8DF840
:100360000100F07A8DF80200307B8DF803009DF8D3
:1003700001000D2807D19DF800003038DFF8581C27
:10038000C1F8980042E09DF802000D280DD19DF8BB
:1003900000000A219DF8012001FB0020B0F5047047
:1003A000DFF8341CC1F8980030E09DF803000D28F8
:1003B00013D19DF8000064219DF801200A235A43BF
:1003C00001FB00209DF802100818DFF8101C081827
:1003D000DFF8041CC1F8980018E09DF800004FF405
:1003E0007A719DF8012064235A4301FB00209DF897
:1003F00002100A2202FB01009DF803100818DFF822
:10040000E01B0818DFF8D01BC1F89800DFF8C80B14
:10041000D0F89800002808D0DFF8940A006850F45B
:100420008030DFF88C1A0860F5E0DFF8AC0BD0F80C
:100430009800002840F0EF80DFF89C0BDFF8981B55
:100440000978C1F3C201C9B2081890F8D900002890
:100450001FD0DFF8900BDFF8801B0978C1F3C201D1
:10046000C9B2085C002808D00221DFF86C0B0078C4
:10047000C0F3C200C0B203F03DFADFF85C0BDFF856
:10048000581B0978C1F3C201C9B20818002180F8CD
:10049000D910DFF81C0A006830F01000DFF8101ADD
:1004A0000860B8E015A1DFF80C0A03F020FD060093
:1004B000002825D00320DFF80C1B81F8260030002F
:1004C00003F0F8FBB0F10B0716F10308DFF8189BF7
:1004D0003A004146484603F013FD72B6DFF8E42ABD
:1004E000D2E908010A000100DFF8DC0A03F054FC3D
:1004F00062B6DFF8C80903F0EBFC8CE0203D200079
:10050000DFF8B40A0078C0F34000C0B2002865D01C
:10051000DFF8A40A4078C0F30010C0B2002872D0FF
:10052000DFF8B40AC079C0F3C200C0B200280DD011
:10053000DFF8A40AC07910F0C70110F038000838BD
:1005400010F038000843DFF8901AC871DFF8680A25
:10055000007810F0FD00DFF8601A08700020DFF866
:10056000841ADFF8742A527912F00F025054DFF81F
:10057000680A407910F00F00DFF85C1A0871DFF8A4
:10058000380A407810F0EF00DFF82C1A487002208B
:10059000DFF8241A0875DFF81809807910F00100D7
:1005A00000280AD0DFF80809D0F8010050F0005008
:1005B000DFF8FC18C1F8010007E0DFF8F4088079E3
:1005C00050F00100DFF8E8188871DFF8E4080068EF
:1005D00030F01000DFF8D818086014E00220DFF8CF
:1005E000E41981F8260072B6DFF8D809D0E90823AB
:1005F00011001A00DFF8D00903F0CEFB62B6DFF875
:10060000BC0803F065FCDFF8B009007810F0FD00CD
:10061000DFF8A41908700020DFF89C1808604FF478
:1006200000775FF00008DFF88C98424639004846B2
:1006300003F060FBDFF87808006810F00260B0F1AA
:10064000026F08D1DFF86808006830F00060DFF85A
:10065000601808609EE201F06EBADFF8EC1CDFF86B
:10066000540803F044FC002800F0EA80DFF8DC1CAA
:10067000DFF8400803F03BFC002836D0DFF8D00C50
:1006800003F07AFCDFF83009007810F0FD00DFF8A5
:1006900028190870DFF82009407810F0EF00DFF823
:1006A00018194870DFF80808807910F00100002858
:1006B00007D1DFF8FC07807950F00100DFF8F01770
:1006C00088710120DFF81019DFF80C29527912F037
:1006D0000F02511881F8D900DFF8D407006830F014
:1006E0001000DFF8CC17086088E0DFF8681CDFF83E
:1006F000C40703F0FCFB002807D1DFF85C1CDFF81F
:10070000B40703F0F4FB002831D0DFF8A407006839
:10071000C0F3C040002871D0DFF89407006830F4BF
:100720000020DFF88C170860DFF88407006830F0DD
:100730001000DFF87C170860DFF87407006830F4F9
:100740000010DFF86C170860DFF86407006830F409
:100750008020DFF85C1708600020DFF87C18A1F823
:100760008E000020DFF87018C1F8AC0046E0DFF81A
:10077000EC1BDFF8400703F0BAFB002803D0DFF8DA
:10078000E00B03F0F9FB0820DFF8381881F82600A9
:1007900072B6DFF83008D0E9082311001A00DFF83C
:1007A000280803F0F9FA62B6DFF8100703F090FBAF
:1007B000DFF8FC060068C0F30010002807D0DFF85F
:1007C000F006006830F01000DFF8E4160860DFF88B
:1007D000E006D0F80200C0F3007000280ED0DFF869
:1007E000D006D0F8020030F08050DFF8C416C1F80F
:1007F00002000020DFF8E017C1F8C4000020DFF895
:10080000B81608604FF400775FF00008DFF8A49690
:1008100042463900484603F06DFADFF89406006856
:1008200010F00260B0F1026F08D1DFF884060068B2
:1008300030F00060DFF878160860ABE101F07BB9BA
:10084000DFF8E81DDFF86C0603F051FB002859D0F3
:10085000DFF8DC1DDFF85C0603F049FB0600002E24
:1008600004D00020DFF87017487203E00120DFF8A1
:10087000681748729DA1DFF83C0603F038FB0600BC
:10088000002E04D00020DFF85017887203E001200A
:10089000DFF8441788720420DFF8281781F8260053
:1008A00072B6DFF82007D0E9082311001A00DFF83C
:1008B000180703F071FA62B6DFF8000603F008FBD0
:1008C0000020DFF8F41508604FF400775FF00008AF
:1008D000DFF8E09542463900484603F00BFADFF8AE
:1008E000D005006810F00260B0F1026F08D1DFF8A7
:1008F000C005006830F00060DFF8B415086049E119
:1009000001F019B9DFF8A805006810F00260B0F135
:10091000026F3BD1DFF89805D0F80100C0F380608A
:10092000002833D1DFF8B006B0F89000002814D0CA
:1009300072B6DFF8A406B0F89010DFF8880603F06E
:100940003DFC62B6DFF89006B0F890705FF00008EA
:1009500042463900200003F0CDF9DFF85405D0F805
:10096000020050F00050DFF84815C1F80200DFF82F
:100970004005006830F00060DFF834150860DFF8EB
:1009800038050068DFF85016A1F89400DFF8280653
:10099000007810F00100002840F0FC80DFF8180615
:1009A0000078C0F34010C0B2002800F0F3800020AF
:1009B000DFF8041508604FF400775FF00008DFF8F7
:1009C000F49442463900484603F094F9E2E0DFF837
:1009D000E0040068C0F38000002800F08980DFF8A0
:1009E0006C1DDFF8D00403F082FA002850D1DFF844
:1009F000601DDFF8C00403F07AFA002848D1DFF860
:100A0000541DDFF8B00403F072FA002840D1DFF87B
:100A1000481DDFF8A00403F06AFA002838D1DFF897
:100A20003C1DDFF8900403F062FA002830D1DFF8B3
:100A3000301DDFF8800403F05AFA002828D1DFF8CF
:100A4000241DDFF8700403F052FA002820D1DFF8EB
:100A5000181DDFF8600403F04AFA002818D1DFF807
:100A60000C1DDFF8500403F042FA002810D1DFF823
:100A7000001DDFF8400403F03AFA002808D1DFF83F
:100A8000F41CDFF8300403F032FA002800F0828012
:100A9000DFF81C04006850F08050DFF81414086080
:100AA000DFF80C04006850F48020DFF804140860BC
:100AB000DFF8FC03006830F00400DFF8F41308608E
:100AC0000520DFF81415A1F89200DFF8E403D0F850
:100AD000020030F08050DFF8D813C1F80200002087
:100AE000DFF8F414C1F8C40001F025B86F75740084
:100AF000DFF8C003DFF8C0130968081810F8010C0C
:100B000009281CD1DFF8AC03DFF8AC13096808181A
:100B100010F8020C3A2812D1DFF89803DFF8981386
:100B20000968081810F8030C312808D1DFF8800391
:100B3000006850F08040DFF8781308602AE0DFF8A2
:100B40007003C07910F0010000280ED0DFF86403B4
:100B5000DFF864130968081810F8010C002819D18F
:100B60000020DFF85413086014E0DFF84C0300683D
:100B7000B0F5FF7F0ED90020DFF83C1308604FF47A
:100B800000775FF00008DFF82C93424639004846B2
:100B900003F0B0F8C6480068C0F38040C00740F1D9
:100BA0000781C348D0F80200C0F34070C00700F1CD
:100BB000FF80DFF82404B0F89000DFF81C14A1F8DF
:100BC0009400BD480068DFF81014B1F894100818BC
:100BD000B0F5007F24D3B8480068DFF8FC13B1F803
:100BE00094100818A0F2FF1772B63900DFF8D4038A
:100BF00003F0E4FA62B65FF00008AF480068201A1C
:100C000000F2FF1942463900484603F073F840F2FB
:100C1000FF10A9490968401ADFF8BC13A1F8940035
:100C2000DFF8B403B0F89470DFF8108EA148A24941
:100C3000096811EB00093A004146484603F060F9A3
:100C40009D480068DFF89013B1F8941008189A498D
:100C5000086099480068012804D1964800780D285A
:100C600000F06987DFF8D81D924803F040F90028AA
:100C70000ED08F48006830F000608D4908608C48C5
:100C8000D0F8010030F080608949C1F801008FE0A0
:100C9000C9480078C00700F18B8085480068C0F320
:100CA0000070C00700F1848082480078002800F0BE
:100CB0007F80804800780D287AD17E4840780A28C5
:100CC00076D1C548D0F89C00022871D07848D0F879
:100CD000010050F080607649C1F80100B8A1DFF84A
:100CE000640D03F004F9060000283BD07148301A67
:100CF000871CDFF8541DDFF84C0D03F0F8F80028CE
:100D00000BD0B2496B48381803F0F1F80600002EFA
:100D100003D06848301A801D070067480068C01B70
:100D2000002817D072B664480068C11BA54803F0BC
:100D300045FA62B660480068B0EB07085FF000094A
:100D40005C4817EB000A4A464146504602F0D2FF83
:100D5000594807605648D0F8010030F08060544987
:100D6000C1F801005248006850F000605049086026
:100D70005148006840F2FF11884219D14C48D0F820
:100D80000100C0F38060002812D04948D0F801006B
:100D900030F080604649C1F801004548006830F0F5
:100DA00000604349086040F2FF108B49A1F89400AD
:100DB0003F48006810F00260B0F5001F40F0D2829A
:100DC0007D48007850F001007B4908708248D0F8D7
:100DD000A8008149B1F8941008187F49C1F8A8000B
:100DE000DFF85C1C33487C4AB2F892201018401F90
:100DF00003F07DF80600002E00F0F8802D482E4903
:100E00000968081810F8020C0D2840F0EF802948F6
:100E100029490968081810F8010C0A2840F0E680F2
:100E2000DFF8181D234803F062F8060000281BD0E5
:100E3000F07E00280DD01F48371A1F48006817F1B0
:100E40001B01B0EB010872B641465E4803F0B6F9EB
:100E500062B65948407850F00100574948700D205B
:100E60005D4981F8D80047E0DFF8E014114803F04D
:100E70003EF80600002823D0F07D00280DD00D4854
:100E8000371A0D48006817F11701B0EB010872B668
:100E900041464C4803F092F962B601204E494E4A51
:100EA000527912F00F02511881F8D90024E000BFE6
:100EB00038150020680D002074150020E413002070
:100EC000DFF87C1CDFF87C0C03F011F8060000282A
:100ED00012D0F07D00280FD0DFF8680C371ADFF849
:100EE000680C006817F11701B0EB010872B64146B3
:100EF000344803F063F962B600203749C1F8A8000E
:100F000000203549C1F8980000203349C1F89C0001
:100F100005203149A1F89200DFF8300C006830F468
:100F20000010DFF8281C0860DFF8200C006830F0A3
:100F30001000DFF8181C0860DFF8100C006830F4AF
:100F40008020DFF8081C086000201B4948601A4810
:100F5000007810F0FE0018490870DFF8F00B006808
:100F6000C0F3C040002815D0DFF8E00B006830F473
:100F70000020DFF8D81B086000201749C1F8A00046
:100F8000DFF8C80B006850F00100DFF8C01B0860F4
:100F900002F07AFDDFF8B00B07685FF00008DFF8B9
:100FA000A49B42463900484602F0A4FE0020DFF828
:100FB000981B086000F0BFBD0C150020489B00087E
:100FC0000D0A0000C4130020D8130020509B000815
:100FD000589B0008C89A0008F810002030EBFFFF6B
:100FE000B02FFFFF4C15002006110020DFF8580B32
:100FF0000068062808D3002E06D1DFF84C0B0068E5
:10100000DFF8501BA1F89200DFF8480BD0F8A800D9
:10101000DFF8401BD1F89C108842C0F02081DFF837
:10102000340BD0F89C00DFF82C1BD1F8A8108842B4
:1010300025D2DFF8200BD0F8A800DFF8181BD1F874
:101040009C10471A72B63900DFF8280E03F0B6F884
:1010500062B65FF00008DFF8EC0ADFF8EC1A096806
:10106000C91B11EB000942463900484602F042FE16
:10107000DFF8D40A0068C01BDFF8CC1A0860DFF87C
:10108000C80A0068DFF8CC1AA1F88E00DFF8C40A9D
:10109000D0F89C00DFF8BC1AC1F8AC00DFF8A80A51
:1010A0000768DFF8A08ADFF8B09A3A004146484660
:1010B00002F026FF0020DFF8901A08600020DFF819
:1010C000941AC1F8A8000020DFF8881AC1F8980027
:1010D0000020DFF8801AC1F89C000020DFF8741AA5
:1010E000A1F894000520DFF86C1AA1F89200DFF84F
:1010F0005C0A006830F00060DFF8501A0860DFF822
:101100004C0A006830F48020DFF8401A0860DFF8ED
:10111000440AC07850F00700DFF8381AC870DFF8CA
:101120002C0A0068C0F3C040002830D00020DFF84F
:10113000241AC1F8A000DFF81C0A407810F0C7009C
:10114000DFF8101A4870DFF8140A4068002806D04B
:10115000DFF8080A4068401EDFF8001A4860DFF830
:10116000FC094068002809D1DFF8E009006850F068
:101170000100DFF8D819086002F086FCDFF8CC091E
:10118000006830F48000DFF8C41908601CE0DFF864
:10119000BC09006850F48000DFF8B0190860DFF87F
:1011A000B4090078C0B2C008DFF8A819497860F324
:1011B000C501DFF8A0094170DFF8A009007850F000
:1011C0000200DFF898190870DFF88009006830F431
:1011D0000010DFF878190860DFF88009007810F057
:1011E000FE00DFF87819087001F0D1FFDFF85C0924
:1011F0000068C0F3C04000281AD0DFF85009D0F8CA
:10120000010050F08050DFF84419C1F80100DFF808
:101210003C09006830F01000DFF830190860DFF892
:101220002C09006830F40020DFF82019086009E07C
:10123000DFF81809D0F8010050F00060DFF80C1951
:10124000C1F801004FF400775FF00008DFF8F49870
:1012500042463900484602F04DFD00F06CBCDFF814
:10126000E8080068B0F5FF7F6DD90520DFF8E418C5
:10127000A1F89200DFF8DC08D0F89C00DFF8D41861
:10128000C1F8AC0040F2FF10DFF8C818A1F88E00DA
:10129000DFF8B4080768DFF8AC88DFF8BC983A00DC
:1012A0004146484602F02CFE0020DFF89C180860FA
:1012B0000520DFF8A018A1F89200DFF89808C078A0
:1012C00050F00700DFF88C18C87001F060FF4FF491
:1012D00000795FF0000ADFF86CB85246494658467C
:1012E00002F008FDDFF864080068C0F3C040002881
:1012F00012D0DFF86008407810F0C700DFF854180B
:101300004870DFF84808D0F8010050F08050DFF84E
:101310003C18C1F8010016E0DFF838080078C0B2C8
:10132000C008DFF83018497860F3C501DFF82408F9
:101330004170DFF81808D0F8010050F00060DFF8C5
:101340000C18C1F80100F6E3609B000888960008BD
:10135000C49000088092000858910008689B00081B
:1013600030940008DFF8E4070068C0F3007000283C
:1013700000F00282DFF8E407007850F00100DFF8A7
:10138000DC170870DFF8D817DFF8B807DFF8C427D4
:10139000B2F892201018401F02F0A9FD06000028A4
:1013A00000F0AB80F079002823D0DFF89807371AD7
:1013B000DFF894070068B91DB0EB010872B641462A
:1013C000DFF8B00A02F0FAFE62B65FF00009DFF85B
:1013D0007407381810F1070A4A464146504602F091
:1013E00089FCDFF864070068B0EB0800DFF85817E5
:1013F0000860DFF854070068DFF85817A1F88E007E
:10140000DFF844070768DFF83C87DFF84C973A00BD
:101410004146484602F074FDDFF82C070068DFF80B
:101420003417A1F88A00DFF83407407850F0010043
:10143000DFF828174870DFF81407006830F48020C0
:10144000DFF808170860DFF80407006830F0805004
:10145000DFF8F816086001F09AFE0020DFF8F416B5
:1014600081F8D800DFF8F406007810F0FE00DFF80D
:10147000EC160870DFF8D406006830F00060DFF882
:10148000CC160860DFF8C406006830F01000DFF802
:10149000BC1608600520DFF8BC16A1F89200DFF842
:1014A000A806D0F800905FF0000ADFF898B6524620
:1014B0004946584602F01EFC0020DFF88C160860F2
:1014C000DFF888060068C0F3407000280AD0DFF813
:1014D0007C06D0F8020050F00070DFF87016C1F8FA
:1014E00002009BE0DFF86406D0F8020050F0807044
:1014F000DFF85816C1F8020090E0DFF8741BDFF83F
:101500004406DFF85026B2F892201018401F02F06F
:10151000EEFC0600002800F08180DFF8300600684D
:1015200030F48020DFF824160860DFF81806DFF8B2
:1015300018160968081810F8020C0D286ED1DFF88B
:101540000406DFF804160968081810F8010C0A28C8
:1015500064D1DFF80806407850F00100DFF8FC1590
:1015600048700D20DFF8EC1581F8D800DFF8EC05A5
:10157000007810F0FE00DFF8E4150870DFF8CC0505
:10158000006830F48020DFF8C4150860DFF8BC057F
:10159000006830F00060DFF8B41508600020DFF864
:1015A000A81508600520DFF8AC15A1F89200DFF857
:1015B0009C05006830F08050DFF890150860DFF877
:1015C0008C05006830F01000DFF8801508604FF4DB
:1015D00000775FF00008DFF86C9542463900484616
:1015E00002F088FBDFF864050068C0F34070002853
:1015F0000AD0DFF85805D0F8020030F00070DFF8AC
:101600004C15C1F8020009E0DFF84005D0F80200EF
:1016100030F08070DFF83415C1F80200DFF82805DB
:101620000068062806D3012005E000BF709B000873
:10163000789B00080020002E01D1012100E000214C
:10164000C0B2084206D0DFF800050068DFF80415D4
:10165000A1F89200DFF8F004006840F2FF11884220
:1016600072D1DFF8E40400680A90DFF8D80409902A
:10167000DFF8E4740A9A0999380002F041FC062068
:101680000890DFF8F0090790DFF8EC79089A0799DD
:10169000380002F035FC0620069000200590DFF8A7
:1016A000D479059A0699380002F024FB4FF40070B3
:1016B000049000200390DFF88C74039A049938009A
:1016C00002F018FB0627DFF8B089DFF878943A00BB
:1016D0004146484602F014FC5FF006095FF0000A3C
:1016E000DFF894B952464946584602F003FB0620FB
:1016F000DFF8541408600520DFF85814A1F89200B0
:1017000040F2F910DFF84C14A1F88A0001F03FFD17
:10171000DFF838040068C0F3407000280AD0DFF812
:101720002C04D0F8020050F00070DFF82014C1F84B
:10173000020009E0DFF81404D0F8020050F08070D5
:10174000DFF80814C1F80200F5E100BF809B000833
:10175000889B000824980008909B0008389800088F
:10176000F4990008049A0008A0960008149500084F
:101770004C980008B8960008DFF8D003006810F015
:101780009040B0F1804F40F08281DFF8B803DFF87D
:10179000B8130968081810F8020C0D2840F064818D
:1017A000DFF8A003DFF8A0130968081810F8010C8F
:1017B0000A2840F05981DFF8C40802F05CFDDFF828
:1017C0009403407BDFF88C13097B884280F0DA8039
:1017D000DFF8AC18DFF86C0302F089FB0600002E7E
:1017E00010D0B0798DF80000F0798DF801009DF8E7
:1017F00000000A219DF8012001FB00201038DFF8CD
:1018000084180870DFF87C080078DFF87C18096815
:10181000D04A527B2C2303FB02110870DFF86C18AE
:10182000C84802F064FB0600002E0FD0F0798DF856
:101830000000307A8DF801009DF800000A219DF823
:10184000012001FB0020B0F504700290DFF8380899
:101850000068C049497B2C2202FB010002994942E1
:101860004160DFF82C18B74802F041FB0600002E5B
:1018700026D00720DFF81C180870DFF81808007859
:10188000805D27281CD0DFF800080068B149497B3B
:101890002C2202FB0100DFF8FC1709780818DFF89A
:1018A000F4170978895D4170DFF8E8070078401C7B
:1018B000DFF8E0170870DFF8DC0700782328DCD1B8
:1018C000DFF8D4179F4802F012FB0600002E0BD061
:1018D000DFF8B40700689F49497B2C2202FB010016
:1018E000012180F826100AE0DFF89C07006899497A
:1018F000497B2C2202FB0100002180F82610DFF832
:101900009C17904802F0F3FA0600002E0BD0DFF887
:10191000780700688F49497B2C2202FB01000121D6
:1019200080F827100AE0DFF8600700688949497BE2
:101930002C2202FB0100002180F82710DFF860173D
:10194000804802F0D4FA0600002E0BD0DFF83807EA
:1019500000688049497B2C2202FB0100012180F8AC
:1019600028100AE0DFF8200700687A49497B2C221A
:1019700002FB0100002180F828107648407B401CC3
:1019800074494873DFF8E8166E4802F0B0FA0600B2
:10199000002E24D04FF400775FF00008DFF8A49108
:1019A00042463900484602F0A5F900206649086021
:1019B0006A48407850F00100684948706348006800
:1019C00030F08040614908606048006830F4806011
:1019D0005E4908600D205F4981F8D800ABE0DFF870
:1019E000C416584802F083FA00282FD057480068E0
:1019F00030F4806055490860002056494873002043
:101A0000514908605548407850F0010053494870EA
:101A10004E48006830F080404C49086000204D4935
:101A200081F8D8004FF400775FF00008DFF81491D8
:101A300042463900484602F05DF97CE0680B002020
:101A4000989B00086A0D0020D49A000800203E49A7
:101A500008604FF400775FF00008DFF8E890424636
:101A60003900484602F046F937480068B0F5FF7F74
:101A70000DD90020344908604FF400775FF000086A
:101A8000DFF8C09042463900484602F033F92F484B
:101A9000006810F04060B0F1806F4CD12CA002F0D3
:101AA0006BFADFF80416274802F021FA0600002836
:101AB0002DD02648006830F4802024490860214851
:101AC00021490968081810F8020C0D281FD11D487B
:101AD0001D490968081810F8010C0A2817D1DFF809
:101AE000CC0502F049FA1948006830F080601749C7
:101AF00008600020144908604FF400775FF0000888
:101B0000DFF8409042463900484602F0F3F80E48AC
:101B1000006840F2FF1188420DD100200A49086098
:101B20004FF400775FF00008DFF818904246390064
:101B3000484602F0DFF80BB0BDE8F08F30950008A2
:101B4000D0960008680D002074150020381500207C
:101B50002A000000F8100020680900200C15002061
:101B6000509B00082DE9FC470400250026004FF09B
:101B7000FF08002E00F07982DFF83415280002F00B
:101B8000B6F90600002E00F0708270798DF804001E
:101B9000B0798DF805009DF805003A2804D19DF82C
:101BA00004003038804609E09DF804000A219DF8C1
:101BB000052001FB0020B0F504708046AD4880F898
:101BC00020800120AB4981F826000FFA88F84046B2
:101BD0000028032840F22582001F012840F23B82A2
:101BE000801E012840F21D82801E012840F23382AF
:101BF000801E00F02382401E012840F22C82801EAD
:101C0000012840F20E82801E00F02582401E03282B
:101C100040F20782001F00F01E82401E00F0018289
:101C2000401E012840F21782C01E00F0FA81401EBB
:101C3000012840F21082801E00F09981801E00F081
:101C4000F081401E012840F20682801E012840F2E9
:101C5000E881801E012840F2FE81801E00F0E181B3
:101C6000401E00F0F881401E00F0DB81401E042879
:101C700040F2F181401F012840F2D381001F052866
:101C800040F2CF81801F20D0801E00F0A481401E32
:101C90002FD0401E00F00D81401E00F02681401E16
:101CA000012840F28C81C01E31D0801E00F0B98125
:101CB000401E00F0A081401E00F0A881001F00F02F
:101CC0006A81801E00F0AD81C6E1DFF8E8132800CC
:101CD00002F00DF9060070798DF800009DF8000003
:101CE000644991F8211060F30301624880F82110E3
:101CF000B2E1B07D8DF800009DF800005D4991F8DB
:101D0000211060F303015B4880F82110A4E1DFF8A3
:101D1000A8030068C00F002804D0DFF8A00302F079
:101D20002BF9A2E1DFF89003D0F80100C0F30060C6
:101D3000002805D00020DFF88813C1F8A40011E0C6
:101D4000DFF87403006850F01000DFF86C130860CF
:101D5000DFF86403D0F8010050F08070DFF858130A
:101D6000C1F80100DFF84C13280002F0C0F80600AB
:101D7000002E00F09D8070798DF800009DF8000025
:101D800030383C4981F82200307A8DF80000707AB2
:101D90008DF80100B07A8DF80200F07A8DF803001A
:101DA0009DF800003A2806D1F0798DF80000307ACD
:101DB0008DF801002EE09DF801003A2809D1F07954
:101DC0008DF80000307A8DF80100707A8DF80200ED
:101DD00020E09DF802003A280CD1F0798DF800003F
:101DE000307A8DF80100707A8DF80200B07A8DF8A3
:101DF00003000FE09DF803003A280BD1F0798DF82D
:101E00000000307A8DF80100707A8DF80200B07A07
:101E10008DF803009DF801003A2805D19DF80000D7
:101E20003038144988843EE09DF802003A280BD1EE
:101E30009DF800000A219DF8012001FB0020B0F56B
:101E400004700C4988842EE09DF803003A2813D1D1
:101E50009DF8000064219DF801200A235A4301FBEC
:101E600000209DF80210081841F2D041401A0149A3
:101E7000888418E0C41300209DF800004FF47A71A4
:101E80009DF8012064235A4301FB00209DF80210B5
:101E90000A2202FB01009DF80310081800F53C50CF
:101EA000B0308849888488484068401C864948602A
:101EB000D2E08548007850F080008349087082485D
:101EC000007810F0DF008049087000207E494860EB
:101ED0007948006830F00200774908607648006869
:101EE00050F0004074490860B6E07748007810F080
:101EF0007F00754908707448007850F020007249DE
:101F000008706D48006830F002006B4908606A484C
:101F1000006850F000406849086067480078C007D2
:101F200008D569480078C0B2C009C0B2002801D104
:101F300001F0AAFD60480068C0F3C040002815D039
:101F400005205F49A1F892005B48006850F48020AA
:101F5000594908605848006850F400105649086014
:101F60005748D0F8A0005649C1F89C0074E0574982
:101F7000280001F0BCFF060011200700222F06DA1E
:101F8000B85D4F49791881F83E007F1CF6E70B20B9
:101F90004D49C87560E04E49280001F0A8FF0600D1
:101FA00011200700222F06DAB85D4549791881F81B
:101FB0003E007F1CF6E70C204349C8754CE03E48C4
:101FC0000068C00F002805D03B480068400040086A
:101FD0003949086040E000203E49087036480068F2
:101FE00030F00200344908603348006850F0004087
:101FF0003149086030E00A20324981F826002E4835
:10200000C07950F001002C49C87125E009202D4904
:1020100081F826002848C07910F0FE002649C871D2
:102020001AE02548006830F0020023490860224881
:10203000006850F00040204908600DE01E4800682C
:10204000C0F30010002805D01B48006830F01000D5
:102050001949086000E0FFE74FF400795FF0000ADB
:1020600052464946280001F045FEBDE8F3870000CE
:10207000609B0008610B002054150020B400002074
:10208000A09B00088B15002070150020A89B00085D
:10209000B09B00088A150020B89B0008C09B000870
:1020A000C89B0008D09B0008E09A000860980008D0
:1020B000489B0008D89B000838150020E09B0008CA
:1020C000F8100020C41300200C150020EC9A000822
:1020D000F89A00088615002070B54FF48061DFF88B
:1020E000840201F05BFFDFF88002407810F0F1001D
:1020F0009D49487000209D49087000F01DF900F0CE
:102100008AF800F016F83221994801F027FE01F014
:1021100027F808240025974E2A002100300001F0FE
:10212000E9FD954802F0E0F8002801D001F03AFC02
:1021300070BD8D48007850F008008B4908708A48BF
:10214000007850F08000884908708748007810F0C7
:10215000BF00854908708448407810F0F10082493A
:10216000487000208049487400207F49C8740020CE
:102170007D49887400207C4948607B48407810F095
:10218000FE0079494870FF207749C87502207649DA
:10219000087502207449487500207349887500202D
:1021A0007149C8607548006850F0010073490860C3
:1021B0007248006850F00200704908606F48D0F81B
:1021C000020030F080506D49C1F802006B48C079C0
:1021D00010F0DF006949C8716848807950F001004B
:1021E000664988716548C07910F0EF006349C8718D
:1021F0006248C07910F0BF006049C8715F48C0797B
:1022000010F07F005D49C8715C48007A10F0FE0054
:102210005A490872704770B55948C07910F0C70024
:102220005749C87100205649C1F8A40000205449FC
:10223000C1F8980000205249C1F8A0000020504980
:10224000C1F8B00000204E49C1F8A80000204C4958
:10225000A1F8900000204A49C1F8B4000020484984
:10226000C1F8BC0000204649C1F8C0000020444924
:10227000487300204249C1F8C40000204049A1F839
:102280008C0005203E49A1F89200012400253D4E16
:102290002A002100300001F02DFD70BD80B53A48C4
:1022A000006850F01000384908603748006810F0A6
:1022B0001000009000983448006850F00400324943
:1022C00008603148006810F00400009000984FF456
:1022D0008050244908630120224948630120214994
:1022E000886303201F49C8632849294802F000F980
:1022F00000201E490870FF201B49C87500224FF4BA
:102300008051234802F0E2FAC82002F036FB012295
:102310004FF480511E4802F0D9FA322002F02DFB12
:102320004FF480511A4802F040FA0F48C07D0E2841
:1023300001D000BFF9E701BD80B500224FF4805104
:10234000144802F0C3FA01221349144802F084FC35
:10235000002805D10948006850F40050074908607A
:1023600001BD0000C41300200C15002086150020BC
:10237000D81300204C15002004140020381500202C
:10238000F81000208915002018100240F4130020D6
:102390000010014000080140461100208413002075
:1023A0002DE9F04182B004000025DFF8F00D00684F
:1023B000C0F30010002840F05D8472B6DFF8F00D25
:1023C00001F035FDDFF8EC1D886262B6DFF8E40D40
:1023D000806A002800F04E84DFF8D80D806A80798A
:1023E00001283BD0022800F02984032800F026842D
:1023F000042800F02384062800F0FD80082800F05F
:102400000B84092800F02D840A2800F029840C2868
:1024100000F01F830D2800F07C830E2800F08F82CF
:102420000F2842D0102800F09881142800F04F8126
:10243000152800F00E82162800F08380172800F07F
:10244000CC811B2800F088811C2800F057821D28B1
:102450000BD0242800F0A38300F00CBCDFF8540D4F
:10246000806A00F0FDFF00F005BCDFF8480D806ACF
:10247000407810F00F00DFF8401D097860F302018A
:10248000DFF8340D01700020DFF8301D8875DFF8AB
:102490002C0D407850F00100DFF8201D487000201E
:1024A000DFF8141D81F8D800E4E3DFF80C0DC079E3
:1024B00010F0C701083010F038000843DFF8F81CAE
:1024C000C871DFF8F40CC079C0F3C200C0B20928AB
:1024D0000DDBDFF8E80C407850F00100DFF8DC1C81
:1024E00048700420DFF8D01C81F8D800C2E3012036
:1024F000DFF8CC1DDFF8BC2C926A527812F00F0284
:102500005054DFF8B00C806A407810F00F00DFF80C
:10251000A81C097860F30201DFF89C0C0170002010
:10252000DFF8981C8875DFF8940C407850F00100B3
:10253000DFF8881C48700020DFF87C1C81F8D80088
:1025400098E3DFF8740C007A10F0F801401C10F0EA
:1025500007000843DFF8601C0872DFF8400CD0F871
:10256000020030F08050DFF8341CC1F80200002077
:10257000DFF8441CC1F8C400DFF83C0C007A10F00E
:10258000070005280DDBDFF8340C407850F001001F
:10259000DFF8281C48700420DFF81C1C81F8D800E4
:1025A00068E30120DFF81C1DDFF8082C926A5278DE
:1025B00012F00F025054DFF8FC0B806A407810F0E4
:1025C0000F00DFF8F41BC97960F30201DFF8E80BB4
:1025D000C1710020DFF8E41B8875DFF8E00B40785C
:1025E00050F00100DFF8D41B48700020DFF8C81B52
:1025F00081F8D8003EE301F0C6F9DFF8BC0BC07AE1
:10260000012811D1DFF8B00BD0F8B8000090DFF846
:10261000A80B436EDFF8A00B026EDFF8B81CDFF8E2
:102620004C0D01F02DFB15E0DFF88C0BC07A002873
:1026300010D1DFF8840BD0F8B8000090DFF8780BE9
:10264000436EDFF8740B026EDFF88C1CDFF81C0D94
:1026500001F016FBDFF8140D01F02CFB80B201F045
:10266000A8F90500EDB2002D23D10020DFF8481BAA
:10267000C1F8C400DFF8240BD0F8020050F08050FD
:10268000DFF8181BC1F80200DFF8100B006850F0EB
:102690001000DFF8081B0860DFF8000B006850F03E
:1026A0000400DFF8F81A08600620DFF8101B8875B0
:1026B0000CE00D20DFF8001B81F8D800DFF8FC0AE1
:1026C000407850F00100DFF8F41A4870D2E201F0CF
:1026D0005AF9DFF8E40AB0F88430DFF8DC0A8078D1
:1026E00010F00702DFF8B41CDFF8800C01F0C8FA24
:1026F000DFF8780C01F0DEFA80B201F05AF905003B
:10270000EDB2002D17D101F03EF9DFF8AC0AB0F8B8
:102710008460DFF8A40AD0F88070DFF8508C3200B3
:102720003900404601F0ECFBDFF88C0AB0F8840079
:1027300001F03FF90500EDB2002D0CD0DFF87C0A66
:10274000407850F00100DFF8741A48700D20DFF86F
:10275000681A81F8D8008DE28CE201F014F9DFF8F4
:10276000580AC06E0090DFF8500AD0F8B830DFF891
:10277000480A026EDFF8BC1CDFF8F00B01F080FAAB
:10278000DFF8E80B01F096FA80B201F012F90500CB
:10279000EDB2002D0DD0DFF8240A407850F0010092
:1027A000DFF8181A48700D20DFF80C1A81F8D800ED
:1027B00012E01020DFF8041A88750020DFF8F819FD
:1027C000C1F8C400DFF8D409D0F8020050F08050FE
:1027D000DFF8C819C1F802004CE201F0D4F8DFF8C4
:1027E000D809C36EDFF8D009D0F8B820DFF8481C4C
:1027F000DFF8780B01F044FADFF8700B01F05AFAB9
:1028000080B201F0D6F80500EDB2002D0DD0DFF852
:10281000AC09407850F00100DFF8A01948700D2095
:10282000DFF8941981F8D80012E01720DFF88C192E
:1028300088750020DFF88019C1F8C400DFF85C0952
:10284000D0F8020050F08050DFF85019C1F80200B3
:1028500010E2DFF86C0ADFF85C19896A497811F038
:102860000F01085C002844D001F08DF8DFF844091E
:10287000806A407810F00F02DFF8C01BDFF8EC0A26
:1028800001F0FEF9DFF8E40A01F014FA80B201F079
:1028900090F80500EDB2002D2FD10020DFF81819B7
:1028A00081F8D800DFF8F408006850F01000DFF875
:1028B000EC180860DFF8FC08806A407810F00F0020
:1028C000DFF8F418497960F30301DFF8EC0841718F
:1028D000DFF8E808407850F01000DFF8E0184870A2
:1028E000DFF8D808007850F00200DFF8D018087040
:1028F00003E0DFF84C0B01F03FFBBBE101F043F8D4
:10290000DFF8401BDFF8640A01F0BAF9DFF85C0A6F
:1029100001F0D0F980B201F04CF80500EDB2002DC5
:102920000CD10020DFF8901881F8D800DFF86C088F
:10293000006850F01000DFF8641808609AE101F0B8
:1029400022F8DFF87408B0F88430DFF86C08026F02
:10295000DFF8F41ADFF8140A01F092F9DFF80C0A34
:1029600001F0A8F980B201F024F80500EDB2002DC5
:102970000DD0DFF84808407850F00100DFF83C182F
:1029800048700D20DFF8301881F8D80060E000F0C2
:10299000EFFC0500EDB2002D0CD0DFF820084078E8
:1029A00050F00100DFF8141848700D20DFF8081807
:1029B00081F8D800DFF80008B0F88430DFF8F807B5
:1029C000026FDFF8881ADFF8A40901F059F9DFF87F
:1029D0009C0901F06FF980B200F0EBFF0500EDB249
:1029E000002D0CD0DFF8D407407850F00100DFF85C
:1029F000CC1748700D20DFF8C01781F8D80000F020
:102A0000C2FFDFF8B407B0F88460DFF8AC07D0F895
:102A10008070DFF8588932003900404601F070FAC2
:102A2000DFF8480901F046F980B200F0C2FF050066
:102A3000EDB2002D0CD0DFF88407407850F0010093
:102A4000DFF8781748700D20DFF86C1781F8D80090
:102A500010E100F098FFDFF86007006F002806D152
:102A6000DFF8EC19DFF8040901F00AF91FE0DFF8DC
:102A70004807006E002809D1DFF83C07026FDFF835
:102A8000D419DFF8E80801F0FBF810E0DFF82807B8
:102A9000D0F8B8000090DFF82007036FDFF81807C0
:102AA000026EDFF8B419DFF8C40801F0E9F8DFF8C6
:102AB000BC0801F0FFF880B200F07BFF0500EDB22A
:102AC000002D18D1DFF8D406006850F00050DFF870
:102AD000CC160860DFF8C406006850F48020DFF8E8
:102AE000BC160860DFF8B406006850F08050DFF8CC
:102AF000AC1608600CE0DFF8C406407850F0010026
:102B0000DFF8B81648700D20DFF8AC1681F8D80051
:102B1000B0E000F038FFDFF8A00690F97C0010F17B
:102B2000010F23D1DFF8900690F97D0010F1010F1D
:102B30001CD1DFF88406006F002804D0DFF8780687
:102B4000406F002812D1DFF87006006F00280DD00A
:102B5000DFF86406406F002808D1DFF85C06026FDA
:102B6000DFF8F818DFF8040801F08AF8DFF8FC074E
:102B700001F0A0F880B200F01CFF0500EDB2002DBE
:102B80000CD0DFF83806407850F00100DFF82C1642
:102B900048700D20DFF8201681F8D8006AE000F0B8
:102BA000F2FEDFF81406D0F8B8000090DFF808064F
:102BB000036FDFF80406026EDFF8F01CDFF8AC07E5
:102BC00001F05EF8DFF8A40701F074F880B200F0BD
:102BD000F0FE0500EDB2002D10D1DFF8C005006851
:102BE00050F08060DFF8B4150860DFF8B0050068C9
:102BF00050F48020DFF8A41508600CE0DFF8BC0575
:102C0000407850F00100DFF8B41548700D20DFF86F
:102C1000A81581F8D8002DE0DFF8A005407850F025
:102C20000100DFF8981548700D20DFF88C1581F849
:102C3000D8000020DFF8841588751BE0DFF87C05DC
:102C4000407850F00100DFF8741548700020DFF87C
:102C5000681581F8D8000020DFF86015887509E054
:102C600008E0DFF83805006850F04000DFF82C1568
:102C70000860FFE7DFF824050068C0F30040002883
:102C80000FD0DFF81805006830F48030DFF80C153D
:102C90000860DFF82405D0F8980080B202F0B3FC99
:102CA00039E1DFF8F8040068C0F38050002812D042
:102CB000DFF808050078C0F3C000C0B200280AD0D1
:102CC000DFF8D804006830F48000DFF8D014086022
:102CD00002F0E3FC1FE1DFF8C404D0F80100C0F308
:102CE000C06000282CD0DFF8B404D0F8010030F028
:102CF0000060DFF8A814C1F80100DFF8BC04B0F8E8
:102D00008E000090DFF8B004D0F8AC30DFF8A02BD4
:102D1000DFF8A4044078C0F3C200010049B25FF0BC
:102D2000FF3003F023F94FF400760027DFF8808BA3
:102D30003A003100404600F0DDFF00F031FAEAE0F1
:102D4000DFF85804D0F80100C0F30070002831D03B
:102D5000DFF84804D0F8010030F08050DFF83C1470
:102D6000C1F80100DFF85004B0F88E000090DFF8E1
:102D70004804D0F8AC30DFF8382BDFF83C0440785A
:102D8000C0F3C200010049B2DFF82C0490F903003F
:102D900040F3020040B203F0E9F84FF40076002758
:102DA000DFF80C8B3A003100404600F0A3FF00F042
:102DB000F7F9B0E0DFF8E403D0F80100C0F3807069
:102DC00000281CD0DFF8F804DFF8EC13897911F043
:102DD0000701085C002807D00221DFF8DC038079B6
:102DE00010F0070000F086FDDFF8B003D0F8010016
:102DF00030F08040DFF8A413C1F801008BE0DFF869
:102E00009C03D0F80100C0F34070002813D00221C9
:102E1000DFF8A00A00F02FFF0220DFF8A0130875EA
:102E2000DFF87803D0F8010030F00050DFF86C13C1
:102E3000C1F801006FE0DFF86403D0F80200C0F3CE
:102E4000006000282AD0DFF85403D0F8020030F0E8
:102E50008070DFF84813C1F80200DFF84003006813
:102E6000C0F34070002804D0DFF8440A00F006FFE9
:102E700007E0DFF84403B0F88A10DFF8340A00F006
:102E8000FCFE4FF400760027DFF8248A3A00310078
:102E9000404600F02FFF00F083F93CE0BF48D0F837
:102EA0000200C0F34060002818D0DFF8040A00F0E8
:102EB000E5FE4FF400760027DFF8F4893A00310090
:102EC000404600F017FF00F06BF9B448D0F802005C
:102ED00030F00070B149C1F802001CE0AF48006852
:102EE000C0F38030002808D003F075F8AB480068C4
:102EF00030F48040A94908600DE0A8480068C0F39C
:102F0000C030002807D003F06EF8A448006830F401
:102F10000040A2490860A948C07D002800F09380C5
:102F2000012800F09780022800F09B80032800F021
:102F30009F80042800F0A380052800F0A7800628C1
:102F400000F0B280072800F0B680082800F0BA80B0
:102F500009284AD00A2854D00B2858D00C285ED013
:102F60000D2800F09A800E282BD00F2800F0F68054
:102F7000102800F0AE80112800F0B980122800F06F
:102F8000BD80132800F0C180142800F0E7801528C8
:102F900000F0A680162800F0BF80172800F0C3803C
:102FA000182800F0C780192800F0CB801A2800F0FC
:102FB000CF801B283BD01C283FD0FF2800F0CE80BC
:102FC000CCE07E484078C0F34200C0B202280BD16A
:102FD0007A48407810F0F101801C10F00E00084390
:102FE0007649487002F0EFFFB8E0DFF86409007836
:102FF000002805D10120DFF85819087002F0E7FF1A
:10300000ACE000F036FEFF206C49C875A6E0DFF8A2
:10301000440902F0F0FFFF206849C8759EE0DFF820
:10302000340902F0F4FFFF206449C87596E000F00F
:1030300026FEFF206149C87590E000F020FEFF20C9
:103040005E49C8758AE0FF205C49C875112000F010
:103050000EFE83E0FF205949C875142000F007FEDA
:103060007CE0FF205549C875132000F000FE75E094
:10307000FF205249C875152000F0F9FD6EE0FF20D1
:103080004E49C875162000F0F2FD67E0FF204B495D
:10309000C8751B2000F0EBFD60E0FF204749C875B4
:1030A0001C2000F0E4FD59E0FF204449C8751720BA
:1030B00000F0DCFD52E0FF204049C875122000F00E
:1030C000D5FD4BE0FF203D49C875182000F0CEFD2E
:1030D00044E0FF203949C8751D2000F0C9FD3DE0DE
:1030E000FF203649C8751E2000F0C2FD36E0FF20E3
:1030F0003249C875192000F0BBFD2FE0FF202F4991
:10310000C8751A2000F0B4FD28E0FF202B49C875CF
:10311000062000F0ADFD21E0FF202849C8751F20E2
:1031200000F0A8FD1AE0FF202449C875202000F017
:10313000A1FD13E0FF202149C875212000F09AFD70
:103140000CE0FF201D49C875222000F093FD05E02A
:10315000FF201A49C87500F08FFDFFE7BDE8F38135
:103160000020164988601548007850F00400134983
:10317000087070470020114988601048007810F0EE
:10318000FB000E49087001200C49487470470B4839
:10319000007810F0F70009490870704738150020D2
:1031A0000648007850F00800044908707047000095
:1031B000D8130020C4130020F81000200C150020A4
:1031C00080B5DFF824090078C0F38000C0B2002881
:1031D00009D0DFF814090078C0F3C000C0B200289D
:1031E00001D000F0E2F8DFF80409D0F80200C0F3E3
:1031F0008060002811D0DFF8A80700F0E1FE002869
:103200000BD0DFF8E808D0F8020030F08060DFF87B
:10321000DC18C1F80200FFF78FF8DFF8D00800686B
:10322000C0F34010002819D0DFF83C08D0F8C000E7
:10323000411CDFF83428C2F8C01040F26C7188429B
:103240000CD3DFF8A808006830F02000DFF89C18E5
:1032500008600020DFF81018C1F8C000DFF88C0803
:10326000D0F80200C0F3C060002828D0DFF8F807CB
:10327000D0F8BC00411CDFF8F027C2F8BC10B0F554
:10328000FA6F1CD3DFF864080068C0F30020002840
:1032900008D0DFF85808006850F48070DFF84C1848
:1032A00008600AE0DFF844080068C0F30020002846
:1032B00003D11B20DFF83018C87500F0D7FB01BD23
:1032C0004C1500207E1500200121DFF81C28D17448
:1032D00070470000289600084096000810B50400CA
:1032E000DFF80808006830F40050DFF800180860C4
:1032F000FFF740FF72B6DFF8DC17DFF8A40600F036
:1033000075FE62B6FFF72CFFDFF8940600F050FE62
:10331000002811D0DFF8D407D0F8020050F0806008
:10332000DFF8C817C1F8020001224FF48051DFF81E
:10333000B00701F0CBFA17E0DFF8B0070068C0F380
:103340000030002810D10122DFF88817DFF8940739
:1033500001F082FC002807D1DFF89007006850F4E4
:103360000050DFF88817086010BD000068050020D5
:10337000DFF86407407810F00100002801D100BF99
:10338000F6E7DFF85407407810F0FE00DFF8481742
:103390004870DFF8D40690F8D8007047AC97000862
:1033A00010B5040000F0FEFA10BD80B572B6DFF86B
:1033B000F00500F03AFEDFF8B016886762B6DFF875
:1033C000A806806F002804D0DFF89C06806FFCF709
:1033D000C5FEDFF81807D0F80100C0F30060002830
:1033E00025D0DFF88406D0F8A400401CDFF878165A
:1033F000C1F8A400DFF87006D0F8A400332816D373
:103400000020DFF86416C1F8A400DFF8E006D0F869
:10341000010030F08070DFF8D416C1F80100DFF849
:10342000CC06006830F01000DFF8C016086001BD5F
:1034300000000000DC94000858960008B4990008C9
:1034400070960008C4990008C0970008D497000837
:10345000B09A0008D4990008D0930008E4990008B5
:1034600010B50400207804285BD005285ED0082819
:1034700061D0092864D00A2867D00B286AD00C28AC
:103480006DD00F2870D0142873D0162876D0172846
:1034900079D018287CD01A2800F07F801B2800F0F3
:1034A00081801F2800F08380202800F08580232859
:1034B00000F0BE80242800F0C480262800F0C680DA
:1034C000282800F0D080292800F0D2802A2800F097
:1034D000D8802B2800F0DA802C2800F0DC803728F8
:1034E00000F0DE803A2800F019813D2800F0868146
:1034F0003E2800F090813F2800F09E81402800F097
:103500002381422800F0C781432800F09A81442893
:1035100000F0A081452800F0AA81462800F0B08183
:10352000C2E10720DFF8B015C875BDE10020DFF863
:10353000A815C875B8E10120DFF89C15C875B3E17E
:103540000220DFF89415C875AEE10320DFF8881576
:10355000C875A9E10420DFF88015C875A4E106202C
:10356000DFF87415C8759FE10820DFF86C15C87581
:103570009AE11120DFF86015C87595E11220DFF897
:103580005815C87590E11320DFF84C15C8758BE10C
:103590000920DFF84415C87586E10A20DFF83815E0
:1035A000C87581E10520DFF83015C8757CE10D2074
:1035B000DFF82415C87577E1DFF81C054078C0F303
:1035C0004200C0B202280BDADFF80C05407810F098
:1035D000F101801C10F00E000843DFF8FC14487065
:1035E000DFF8F404007850F01000DFF8EC140870F5
:1035F0000E20DFF8E414C875DFF82C060068C0F36D
:103600008010002813D0DFF82006006830F040005A
:10361000DFF814160860DFF81006006830F4007058
:10362000DFF8041608601C20DFF8AC14C8753BE115
:10363000DFF8F405006830F48060DFF8EC1508600E
:1036400032E11620DFF89014C8752DE1DFF8880408
:10365000007810F0EF00DFF8801408700F20DFF81A
:103660007814C87520E11020DFF86C14C8751BE1D0
:103670000020DFF8DC1208701520DFF85C14C87534
:1036800012E11720DFF85014C8750DE11820DFF89B
:103690004814C87508E11920DFF83C14C87503E127
:1036A000DFF884050068C0F3405000280FD0DFF831
:1036B0007805006830F40010DFF86C150860DFF85A
:1036C0006805006830F48020DFF85C1508606078D9
:1036D00010F00F00DFF89013097860F3C501DFF8F0
:1036E00088030170DFF84405DFF87C130978C1F323
:1036F000C201C9B2085C00280FD0DFF82C050068B1
:1037000050F48000DFF820150860DFF81C05006821
:1037100050F01000DFF810150860C5E0607810F078
:103720000F00DFF84413897960F30201DFF83803F2
:103730008171DFF8F404D0F8010050F08040DFF828
:10374000E814C1F80100AFE0A088DFF81C13C1F84D
:10375000A000DFF8D404006850F40020DFF8C8149B
:103760000860DFF8C404006850F01000DFF8B814F7
:103770000860DFF864030078C0F34010C0B200288E
:103780001ED1A07801280AD1DFF89C040068400807
:103790004000DFF89414086000F089F92DE0DFF8AC
:1037A0008804006830F40020DFF87C140860DFF83B
:1037B0007804006830F01000DFF86C1408601CE03A
:1037C000DFF86404006850F48020DFF85C140860BF
:1037D0000520DFF89412A1F89200DFF84C0400688D
:1037E00050F40010DFF840140860DFF87C02D0F8D5
:1037F000A000DFF87412C1F89C0055E0DFF828043F
:10380000006850F48040DFF8201408600120DFF8E1
:103810002014087048E0DFF81004006850F40040FD
:10382000DFF8041408600020DFF808140870002096
:10383000DFF8FC13087037E01A20DFF89C12C87517
:1038400032E0DFF8E403006850F40070DFF8D813CA
:10385000086029E0DFF8D003006830F40070DFF87A
:10386000C81308601C20DFF87012C8751CE0DFF870
:10387000B803006850F48070DFF8AC13086013E000
:10388000DFF8A403006830F48070DFF89C13086050
:1038900000F0DCF808E0DFF89003006850F08000EA
:1038A000DFF884130860FFE710BD0000F8940008FB
:1038B00068090020FC10002038B504000D0000F05D
:1038C0004BF86948C0F8B8406748C5661720834977
:1038D00081F8260072B68148D0E9082311001A0049
:1038E000DFF8540300F058FA62B6DFF8500300F036
:1038F000EFFA31BD38B504000D0000F02DF8EDB23F
:10390000022D04D11520754981F8260006E0EDB29C
:10391000012D03D12320714981F826006F4890F8CA
:10392000210064F303006D4981F8210072B66B48F1
:10393000D0E9082311001A00DFF8FC0200F02CFA8D
:1039400062B6DFF8F80200F0C3FA31BD00000000F3
:1039500086150020471100206348007810F0010010
:1039600000280DD160480078C0F34000C0B20028A4
:1039700008D05D484078C0F30010C0B2002801D1E3
:1039800000BFE9E7704770B54FF480640025DFF8A9
:10399000B0622A002100300000F0ACF970BD0000D8
:1039A000C413002080B5002002F0B2FBFEF7C4FC77
:1039B00001BD10B5040048480078C0F30010C0B243
:1039C000002808D144480078C0F38010C0B2002815
:1039D00001D1052039E0DFF85002006810F4407F83
:1039E00001D0102031E0DFF84002006850F4805030
:1039F000DFF834120860A4B2002C05D1DFF84C02C5
:103A000000F0BAFA1F2020E04FF47A73220092B23D
:103A1000DFF82C12334801F01EF8002803D0FFF71E
:103A2000C1FF0F2011E0DFF80002006830F4805081
:103A3000DFF8F4110860DFF8F0010068C0F34030EF
:103A4000002801D1FEF778FC002010BD2748D0F8EF
:103A5000020050F000602549C1F802000020024930
:103A6000C1F8BC0070470000F81000201F48D0F8D3
:103A7000020030F000601D49C1F802000020DFF8AC
:103A8000D011C1F8BC00704710B50024FFF77BFFD0
:103A9000DFF8C011DFF8A80100F0F2F8DFF8A001AC
:103AA00000F008F980B2FFF784FF040010BD10B5E4
:103AB0000024FFF768FFDFF8A011DFF8840100F0B1
:103AC000DFF8DFF87C0100F0F5F880B2FFF771FF56
:103AD000040010BD461100200C150020C413002066
:103AE00000080140841300200C1500203815002028
:103AF00070B504000D000026FFF745FF2B002200E3
:103B000056494F4800F0BCF84D4800F0D3F880B259
:103B1000FFF74FFF0600F6B2002E02D1FFF728FC98
:103B200006003000C0B270BD70B504000D00002664
:103B3000FFF729FF2B0022004949414800F0A0F877
:103B40003F4800F0B7F880B2FFF733FF0600F6B247
:103B5000002E02D1FFF70CFC06003000C0B270BD91
:103B600038B504000025FFF70EFF22003549344820
:103B700000F086F8324800F09DF880B2FFF719FF98
:103B80000500EDB2002D02D1FFF7F2FB0500280081
:103B9000C0B232BD38B504000025FFF7F4FE2200A4
:103BA0002949274800F06CF8254800F083F880B2D6
:103BB000FFF7FFFE0500EDB2002D02D1FFF7D8FBA5
:103BC00005002800C0B232BD10B50024FFF7DBFEAF
:103BD00024491B4800F054F8194800F06BF880B2F3
:103BE000FFF7E7FE0400E4B2002C02D1FFF7C0FBB0
:103BF00004002000C0B210BD10B50024FFF7C3FEC2
:103C000019490F4800F03CF80D4800F053F880B215
:103C1000FFF7CFFE0400E4B2002C02D1FFF7A8FBAF
:103C200004002000C0B210BD381500204C15002043
:103C30008715002088150020D8130020E4130020E9
:103C400068050020E8970008F09300081094000829
:103C5000F8100020289B0008309B0008FC97000803
:103C600010980008389B0008409B00087047704778
:103C7000704770477047704770477047704770478C
:103C80000CB41CB5044604A801900A46009401AB8C
:103C9000694607487844183002F04CFA009A00212F
:103CA000117000285CBF0098001B16BC5DF80CFB6F
:103CB0003B00000000F10103810704D010F8011B54
:103CC00089B18107FAD10268B2F10131914311F053
:103CD000803F04BF50F8042FF6E710F8011B11B124
:103CE00010F8011BFBE7C01A70470268531C036001
:103CF0001170704762F30F2262F31F42401810F0F8
:103D0000030308D0C91A1FD3DB0748BF00F8012DF1
:103D100028BF20F8022D130030B414461546103980
:103D200028BF20E93C00FAD8490728BF20E90C0049
:103D300048BF40F8042D890028BF20F8022D48BF55
:103D400000F8012D30BC7047C91818BF00F8012DCC
:103D5000CB0728BF00F8012D7047010208231A0085
:103D600001FB02F38380002303800023C380002330
:103D70004380554B836070478188C088B0EBD10F7A
:103D800001D1012000E000207047C088002801D147
:103D9000012000E00020704776B504002000FFF706
:103DA000EBFF002842D16088C0080600A06810EB35
:103DB000C600BDF804108180A06810EBC6009DF815
:103DC00002108170A06810EBC6009DF80110A26877
:103DD00012EBC602527861F303024270A06810EB46
:103DE000C600A16811EBC601497811F00F019DF8DA
:103DF000012012F0F002114341709DF80000A1680B
:103E000001F83600A06810EBC6009DF8061081711D
:103E1000E088401CE080608808306080A088050051
:103E2000608890FBF5F105FB1100608073BD70B5F3
:103E300004002000FFF7A9FF002801D0002042E085
:103E40002088C0080600A06810EBC60080881F49C3
:103E50008880A06810EBC600407810F00F001B4966
:103E6000497860F3030119484170A06810EBC6005F
:103E70004078C0B200091549497811F00F0151EAA4
:103E8000001012494870A06810EBC60080780F49F6
:103E90008870A06810F836000C490870A06810EB14
:103EA000C600807909498871208808302080E08820
:103EB000401EE080A0880500208890FBF5F105FBFE
:103EC00011002080014870BD680F002044150020BB
:103ED0000021818000218171417811F0F00151F0C1
:103EE000090141700921817063210170704738B563
:103EF00004000D002900200002F0EEFC32BD20007D
:103F000062B38B0708D0521E11F8013B00F8013B49
:103F100000F024808B07F6D1830740F0208000BF9B
:103F2000103A07D330B4B1E83810103AA0E838108E
:103F3000F9D230BC530724BFB1E80810A0E808103C
:103F400044BF51F8043B40F8043BD20724BF31F88A
:103F5000022B20F8022B44BF0B7803707047083AFD
:103F600007D3B1E80810083A40F8043B40F804CB06
:103F7000F7D25307E4E700000EB400B582B003A9FE
:103F8000009102466B460121034878440A3002F052
:103F9000D1F806BC5DF810FB51570000816000228B
:103FA00002600022C26000224260804A02617047C3
:103FB000C068B0F54E7F01DB012000E000207047B3
:103FC000C068C92801DA012000E000207047C068FD
:103FD000B0F5806F01D1012000E000207047C0687B
:103FE000002801D1012000E000207047F8B504004E
:103FF0000D002000FFF7EBFF002815D1E068401C02
:10400000E0606068411C6160012621694718320048
:1040100029003800FFF774FF60684FF4806190FB5F
:10402000F1F202FB11026260F1BD2DE9F84F0400CC
:104030005F4805002000FFF7D2FF002801D00020D4
:10404000B1E04FF400760027DFF864813A003100D8
:104050004046FFF74FFE57480068C0F380400028F5
:1040600000F08580D4F804B0E068C8282EDAE06853
:104070005149A1F89000206883450BDB20684E4928
:10408000B1F8906021694718320039002800FFF725
:1040900037FF16E026682068D6F58067216910EBA7
:1040A00001083A0041462800FFF72AFF2068D4F8AB
:1040B0001090281A10F5806A5A4649465046FFF774
:1040C0001FFF606820600020E0606BE0206883458F
:1040D00010DB2068C8262169471832003900280003
:1040E000FFF70EFF2068C83020602068BBEB00009F
:1040F000E06037E02068C830B0F5806F12DA2068E1
:10410000C82621694718320039002800FFF7F8FE59
:104110002068C83020602068D0F580601BEB00006C
:10412000E0601FE026682068D6F580610091216973
:104130004718009A39002800FFF7E2FE2068B6F51C
:104140004E78D4F81090281A10F5806A42464946F5
:104150005046FFF7D5FEB6F54E7020602068BBEBE9
:104160000000E060C8201449A1F890001AE020681F
:10417000012621694718320039002800FFF7C0FEE8
:104180002068401C2060E068401EE06001200A4971
:10419000A1F8900020684FF4806190FBF1F202FBDF
:1041A000110222602800BDE8F28F000068010020A3
:1041B000680B002038150020F810002010B4426869
:1041C00003685B1A002B0FD403685B1A0360036853
:1041D000934203DA0368D31AC3600FE00368D3F590
:1041E0008063D318C36009E00368D1F58064E318E5
:1041F00003600368D3F58063D318C36010BC7047B5
:1042000038B502F07FFB0446208880042ED565680F
:1042100009E04A1B294602F0BDFB10F1010F18BF4F
:1042200000280CD04519E16894F903008D42F0D3C1
:104230000022002102F0AEFB10F1010F0DD16068E9
:10424000E0606061E062208840F4007020802046D9
:1042500002F059FB4FF0FF3032BD6568E5606561E3
:10426000E5624DF6FF71208808402080204602F06C
:104270004AFB002032BDF8B5A0B9C046C0460024B4
:104280000A4D08264FF0FF37286820B1FFF7B8FF26
:10429000002848BF3C462D1D761EF5D1C046C046BD
:1042A0002046F2BDBDE8F240AAE70000340100203C
:1042B00010B50400002C01D1012014E094F839005D
:1042C000002805D1002084F83800200002F000FC0E
:1042D000022084F83900211D206800F0D3F8012065
:1042E00084F83900002010BD01000868C06850F053
:1042F00001000A68D0600868006850F001000A6890
:1043000010600020704710B5040020680069800725
:104310001AD52068C068800716D57FF00200216892
:104320000861012020762068806910F0030F03D017
:10433000200000F0A4F805E0200000F09FF8200025
:1043400000F09EF8002020762068006940071AD50A
:104350002068C068400716D57FF004002168086116
:10436000022020762068806910F4407F03D020006E
:1043700000F085F805E0200000F080F8200000F053
:104380007FF8002020762068006900071AD5206891
:10439000C068000716D57FF0080021680861042076
:1043A00020762068C06910F0030F03D0200000F0D1
:1043B00066F805E0200000F061F8200000F060F8E9
:1043C0000020207620680069C0061AD52068C068E1
:1043D000C00616D57FF010002168086108202076FD
:1043E0002068C06910F4407F03D0200000F047F837
:1043F00005E0200000F042F8200000F041F8002025
:10440000207620680069C0070AD52068C068C00708
:1044100006D57FF0010021680861200002F0CCFB86
:104420002068006900060AD52068C068000606D525
:104430007FF0800021680861200002F0E4FB206822
:10444000006940060AD52068C068400606D57FF09E
:10445000400021680861200000F013F8206800691E
:1044600080060AD52068C068800606D57FF0200047
:1044700021680861200002F0C5FB10BD704770473D
:1044800070477047002203681A00164B984208D004
:10449000B0F1804F05D0144B984202D0134B984294
:1044A00003D132F070024B681A430E4B984208D089
:1044B000B0F1804F05D00C4B984202D00B4B984284
:1044C00003D132F44072CB681A4302608B68C36236
:1044D0000B688362034B984201D10B69036301238C
:1044E00043617047002C0140000400400008004078
:1044F0002DE9F84100230024002500265FF0000E7E
:104500005FF0000C6246102A80F04D815FF0010CD4
:104510001CFA02FC6346D1F800C013EA0C0C644696
:104520009C4240F03E81D1F804C0BCF1000F3DD068
:10453000BCF1010F24D0BCF1020F2BD0BCF1030F52
:104540004CD0BCF1110F1FD0BCF1120F28D0DFF8F6
:104550009083C4452AD0DFF88C83C44526D0DFF889
:104560008883C44522D0DFF88483C4451ED0DFF899
:104570008083C4451AD0DFF87C83C44516D031E06F
:10458000D1F80CC066462DE0D1F80CC01CF1040C2B
:10459000664627E0D1F80CC01CF1080C664621E005
:1045A000D1F80CC01CF10C0C66461BE0D1F808C019
:1045B000BCF1000F03D15FF0040C66460DE0D1F8AA
:1045C00008C0BCF1010F04D15FF0080C664603611E
:1045D00003E05FF0080C6646436103E05FF0000C07
:1045E0006646FFE7FF2C01D8070000E0071DFF2CFF
:1045F00002D85FEA820E03E0B2F1080C5FEA8C0E8B
:10460000D7F800C05FF00F0818FA0EF83CEA080C63
:1046100016FA0EF858EA0C0CC7F800C0D1F804C01E
:104620005FEACC0C40F1BD80DFF8CCC2DCF800C002
:104630005CF0010CDFF8C082C8F800C0DFF8B8C237
:10464000DCF800C01CF00108CDF80080DDF800C0E7
:10465000DFF8A8C25FEA92085CF828C065465FF000
:104660000F0C12F003085FFA88F85FEA88081CFA5A
:1046700008FC35EA0C05DFF888C2604502D15FF01E
:10468000000C16E0DFF87CC2604502D15FF0010C3F
:104690000FE0DFF874C2604502D15FF0020C08E061
:1046A000DFF868C2604502D15FF0030C01E05FF003
:1046B000040C12F003085FFA88F85FEA88081CFA15
:1046C00008FC5CEA0505DFF834C25FEA92084CF8A2
:1046D0002850D1F804C05FEACC3C0AD5DFF830C2DC
:1046E000DCF800C054EA0C0CDFF82482C8F800C0E3
:1046F00009E0DFF81CC2DCF800C03CEA040CDFF87B
:104700001082C8F800C0D1F804C05FEA8C3C0AD51A
:10471000DFF800C2DCF800C054EA0C0CDFF8F481CA
:10472000C8F800C009E0DFF8ECC1DCF800C03CEAE2
:10473000040CDFF8E081C8F800C0D1F804C05FEADB
:10474000CC2C0AD5DFF8D0C1DCF800C054EA0C0C40
:10475000DFF8C481C8F800C009E0DFF8BCC1DCF8AC
:1047600000C03CEA040CDFF8B081C8F800C0D1F802
:1047700004C05FEA8C2C0AD5DFF8A0C1DCF800C0C9
:1047800054EA0C0CDFF89481C8F800C009E0DFF8A7
:104790008CC1DCF800C03CEA040CDFF88081C8F86A
:1047A00000C0521CAFE6BDE8F181F0B50022002345
:1047B000002400260F00D740002F00F0868001273C
:1047C00097400F403B00002B7DD0FF2B01D8050008
:1047D00000E0051DFF2B01D8960002E0B2F10806AB
:1047E000B6002F685FF00F0C1CFA06FC37EA0C07C6
:1047F0005FF0040C1CFA06FC5CEA07072F60C76830
:104800009F43C7603D4F5FEA920C57F82C703C0005
:104810000F2712F0030C5FFA8CFC5FEA8C0C17FA7E
:104820000CF73C40364FB84201D100270FE0354F1E
:10483000B84201D101270AE0334FB84201D1022723
:1048400005E0324FB84201D1032700E0042712F0FF
:10485000030C5FFA8CFC5FEA8C0C17FA0CF7BC4275
:1048600031D10F2712F0030C5FFA8CFC5FEA8C0C3D
:1048700017FA0CF73C00214F5FEA920C57F82C70A6
:10488000A743DFF878C05FEA920E4CF82E70204FF5
:104890003F689F43DFF878C0CCF800701D4F3F6839
:1048A0009F43DFF870C0CCF800701B4F3F689F43F8
:1048B000DFF864C0CCF80070184F3F689F43DFF802
:1048C0005CC0CCF80070521C74E7F0BDD2B2002A74
:1048D00002D089B2016102E089B20B040361704722
:1048E0000000111000001210000021100000221022
:1048F0000000311000003210181002400800014082
:1049000000080140000C014000100140001401406B
:104910000004014004040140080401400C0401406B
:1049200080B51C48006850F010001A490860032048
:1049300002F0DEF90F2000F005F800F002F8002088
:1049400002BD704710B5040002F0F8FF4FF47A7111
:10495000B0FBF1F002F0F3F9002221005FF0FF302C
:1049600002F0CCF9002010BD0B480068401C0A4939
:104970000860704708480068704711B581B000248E
:10498000FFF7F8FF0400FFF7F5FF001B01998842CD
:10499000F9D313BD002002406815002010B50400B3
:1049A000002C01D1012030E0A0690028FFD194F84B
:1049B0003900002805D1002084F83800200001F0DB
:1049C000FFFF022084F839002068C06830F40050EE
:1049D0002168C860200000F038FB2068006930F4CE
:1049E0009040216808612068406930F02A00216801
:1049F00048612068C06850F400502168C8600020F9
:104A0000E063012084F83900002010BD10B50400D7
:104A1000002C01D101201DE0022084F8390020681B
:104A2000C06830F400502168C86000202168C86068
:104A3000002021680861002021684861200002F000
:104A400028F80020E063002084F83900002084F872
:104A50003800002010BD2DE9F84304000D001600B9
:104A60001F005FF0000994F839008146B9F1010F89
:104A700002D0B9F1220F69D1002D02D0B6B2002EBA
:104A800001D1012063E094F83800012801D102200F
:104A90005DE0012084F838000020E06394F83900DC
:104AA000222803D1322084F8390002E0122084F851
:104AB0003900A684E684E08C00282DD0E08C401ECE
:104AC000E084A068B0F5805F17D13B000022802110
:104AD000200000F092F9002801D0032037E0A8461A
:104AE000B8F80000C005C00D2168486020690028A2
:104AF00001D1AD1CDFE76D1CDDE73B00002280210A
:104B0000200000F07AF9002801D003201FE0287867
:104B1000216848606D1CCEE73B0000224021200048
:104B200000F06BF9002801D0032010E094F8390060
:104B3000322803D1222084F8390002E0012084F8D1
:104B40003900002084F83800002000E00220BDE891
:104B5000F2832DE9F84304000D0016001F005FF0FA
:104B6000000994F839008146B9F1010F02D0B9F17A
:104B7000120F6ED1002D02D0B6B2002E01D101204D
:104B800068E094F83800012801D1022062E0012099
:104B900084F838000020E06394F83900122803D12B
:104BA000322084F8390002E0222084F83900A685FA
:104BB000E685E08D00283CD0E08D401EE085A068B1
:104BC000B0F5805F1CD13B0000222021200000F0C6
:104BD00014F9002801D003203CE0A84620690028F1
:104BE00007D120684068C005C00DA8F80000AD1CC2
:104BF000DFE720684068C0B2A8F800006D1CD8E765
:104C00003B0000222021200000F0F7F8002801D00E
:104C100003201FE02069002804D120684068287024
:104C20006D1CC6E72068406810F07F0028706D1C7E
:104C3000BFE794F83900322803D1122084F83900F4
:104C400002E0012084F83900002084F838000020B8
:104C500000E00220BDE8F28330B40300002493F8A2
:104C600039000400012C01D0122C36D1002902D0C9
:104C700092B2002A01D1012030E093F838000128D7
:104C800001D102202AE0012083F8380099629A8538
:104C9000DA850020D86393F83900122803D1322036
:104CA00083F8390002E0222083F83900002083F8DD
:104CB00038001868C06850F480701D68E860186893
:104CC000406950F001001D6868611868C06850F0C4
:104CD00020001D68E860002000E0022030BC704722
:104CE00070B582B00400002500262068006810F02E
:104CF000010005002068C06810F480700600002DD7
:104D000005D0002E03D0E06B50F00100E063206876
:104D10000068400810F0010005002068406910F0AC
:104D200001000600002D05D0002E03D0E06B50F0EE
:104D30000400E06320680068800810F001000500AE
:104D4000002D05D0002E03D0E06B50F00200E06390
:104D500020680068C00810F001000500002D05D093
:104D6000002E03D0E06B50F00800E063206800687C
:104D7000400910F0010005002068C06810F0200014
:104D80000600002D04D0002E02D0200000F0FBF819
:104D900020680068C00910F0010005002068C068A4
:104DA00010F080000600002D04D0002E02D020005C
:104DB00000F094F820680068800910F001000500F8
:104DC0002068C06810F040000600002D04D0002EBE
:104DD00002D0200000F0BFF8E06B00280CD0206863
:104DE000006800902068406800900098012084F8D6
:104DF0003900200001F0ECFE73BD2DE9F041040004
:104E00000D0016001F005FF00008FFF7B3FD80469D
:104E1000F6B2002E2FD1206800682840A8425AD050
:104E200017F1010FF7D0002F05D0FFF7A3FDB0EB6E
:104E300008008742EFD22068C06830F08000216807
:104E4000C8602068C06830F020002168C860206811
:104E5000C06830F480702168C860206840694008EC
:104E6000400021684861012084F83900002084F85E
:104E70003800032030E0206800682840A8422AD18A
:104E800017F1010FF7D0002F05D0FFF773FDB0EB3E
:104E900008008742EFD22068C06830F080002168A7
:104EA000C8602068C06830F020002168C8602068B1
:104EB000C06830F480702168C8602068406940088C
:104EC000400021684861012084F83900002084F8FE
:104ED0003800032000E00020BDE8F08110B401009C
:104EE000002391F839000300122B01D0322B2FD16F
:104EF0008868B0F5805F11D1086A02001088C0058B
:104F0000C00D0C6860600869002803D1086A801C25
:104F1000086209E0086A401C086205E0086A441C4F
:104F20000C6200780C686060C88C401EC884C88C15
:104F300000280BD10868C06830F080000C68E06081
:104F40000868C06850F040000C68E060002000E095
:104F5000022010BC704710B504002068C06830F013
:104F600040002168C86094F83900322803D122201B
:104F700084F8390002E0012084F83900200001F0B3
:104F800021FE002010BD70B50400002694F8390001
:104F90000600222E01D0322E55D1A068B0F5805FD8
:104FA00015D1A06A05002069002808D12068406852
:104FB000C005C00D2880A06A801CA06219E020688E
:104FC0004068C0B22880A06A401CA06211E020693D
:104FD000002806D1A06A411CA162216849680170BD
:104FE00007E0A06A411CA1622168496811F07F01B5
:104FF0000170E08D401EE085E08D002821D1206801
:10500000C06830F020002168C86094F83900322868
:1050100003D1122084F839000EE02068C06830F413
:1050200080702168C860206840694008400021689D
:105030004861012084F83900200001F0B7FD00200C
:1050400002E0002000E0022070BDF8B50400002559
:105050002068006930F44050E16808432168086125
:10506000A068216908436169084305002068C06899
:105070003949084028432168C8602068406930F4F5
:105080004070A1690843216848612068334988421B
:1050900030D102F079FC070002F076FC060002F045
:1050A00073FC192101FB07F162689200B1FBF2F178
:1050B0006422B1FBF2F1192202FB06F263689B0045
:1050C000B2FBF3F21923584363689B00B0FBF3F083
:1050D0006423B0FBF3F0642303FB102000013230A3
:1050E0006422B0FBF2F010F00F0050EA01102168CA
:1050F00088602FE002F036FC070002F033FC060067
:1051000002F030FC192101FB07F162689200B1FB4B
:10511000F2F16422B1FBF2F1192202FB06F263689C
:105120009B00B2FBF3F21923584363689B00B0FB6A
:10513000F3F06423B0FBF3F0642303FB10200001C1
:1051400032306422B0FBF2F010F00F0050EA011090
:1051500021688860F1BD0000F3E9FFFF00380140DD
:1051600038B504000025DFF84007FEF705FFDFF83B
:105170003C07FEF701FFDFF83807FEF7FDFEDFF81A
:105180003407FEF7F9FEFCF7A7FF012000F036FC1C
:10519000FDF784F8FEF718FD0500EDB2002D02D0F2
:1051A0002800C0B22EE20121DFF80C07FEF7BCFC9C
:1051B0000500EDB2002D02D02800C0B222E2206B23
:1051C00000280BD0216BDFF8F406FEF7ADFC0500DC
:1051D000EDB2002D02D02800C0B213E20021DFF8AA
:1051E000E006FEF7A1FC0500EDB2002D02D028007C
:1051F000C0B207E22078002802D001281AD033E09C
:105200000021DFF8C006FEF78FFC0500EDB2002D8F
:1052100002D02800C0B2F5E1DFF8AC16DFF8AC062A
:10522000FEF766FC0500EDB2002D02D02800C0B2EA
:10523000E8E119E00121DFF88C06FEF775FC0500B6
:10524000EDB2002D02D02800C0B2DBE1DFF88016FD
:10525000DFF87806FEF74CFC0500EDB2002D02D019
:105260002800C0B2CEE1FFE76078002803D0022812
:105270006FD025D3B6E00021DFF85806FEF754FCC6
:105280000500EDB2002D02D02800C0B2BAE1002125
:10529000DFF84406FEF748FC0500EDB2002D02D011
:1052A0002800C0B2AEE10021DFF83006FEF73CFC7A
:1052B0000500EDB2002D02D02800C0B2A2E191E0BD
:1052C0000121DFF81006FEF72FFC0500EDB2002DDE
:1052D00002D02800C0B295E10B21DFF80406FEF7EA
:1052E00023FC0500EDB2002D02D02800C0B289E1F8
:1052F0000021DFF8F005FEF717FC0500EDB2002DE8
:1053000002D02800C0B27DE10021DFF8DC05FEF705
:105310000BFC0500EDB2002D02D02800C0B271E1F7
:105320000021DFF8B405FEF7FFFB0500EDB2002D0C
:1053300002D02800C0B265E10021DFF8A005FEF729
:10534000F3FB0500EDB2002D02D02800C0B259E1F8
:1053500048E00121DFF87C05FEF7E6FB0500EDB231
:10536000002D02D02800C0B24CE10C21DFF87005FE
:10537000FEF7DAFB0500EDB2002D02D02800C0B226
:1053800040E10A21DFF85C05FEF7CEFB0500EDB237
:10539000002D02D02800C0B234E10121DFF8480519
:1053A000FEF7C2FB0500EDB2002D02D02800C0B20E
:1053B00028E10121DFF82005FEF7B6FB0500EDB27C
:1053C000002D02D02800C0B21CE10021DFF80C053E
:1053D000FEF7AAFB0500EDB2002D02D02800C0B2F6
:1053E00010E1FFE7A078002803280FD8A078062155
:1053F00001FB00F1DFF8F404FEF796FB0500EDB2C7
:10540000002D02D02800C0B2FCE0FFE7E0780028C1
:1054100002280CD8E178DFF8D804FEF785FB0500F8
:10542000EDB2002D02D02800C0B2EBE0FFE76068CB
:1054300000280BD06168DFF8BC04FEF759FB0500BB
:10544000EDB2002D02D02800C0B2DBE0A068002839
:105450000BD0A168DFF8A004FEF74AFB0500EDB20F
:10546000002D02D02800C0B2CCE0E06800280BD0AC
:10547000E168DFF88804FEF73BFB0500EDB2002D84
:1054800002D02800C0B2BDE0206900280BD02169FD
:10549000DFF86C04FEF72CFB0500EDB2002D02D006
:1054A0002800C0B2AEE0606900280BD06169DFF867
:1054B0005404FEF71DFB0500EDB2002D02D02800BC
:1054C000C0B29FE0E06900280BD0E169DFF8380442
:1054D000FEF70EFB0500EDB2002D02D02800C0B291
:1054E00090E0206A00280BD0216ADFF82004FEF744
:1054F000FFFA0500EDB2002D02D02800C0B281E015
:10550000606A00280FD0606A4FF47A7101FB00F1E5
:10551000DFF8FC03FEF708FB0500EDB2002D02D01A
:105520002800C0B26EE0A06A00280BD0A16ADFF8A4
:10553000E403FEF7F9FA0500EDB2002D02D02800D1
:10554000C0B25FE094F82C0000280CD094F82C1026
:10555000DFF88C04FEF7E8FA0500EDB2002D02D06A
:105560002800C0B24EE0FEF70EFADFF87814DFF83C
:105570007804FEF785FBDFF87004FEF79BFB80B232
:10558000FEF717FA0500EDB2002D08D1FDF7F0FE89
:105590000500EDB2002D02D02800C0B232E0FEF7C7
:1055A000F2F9DFF84814DFF84004FEF769FBDFF892
:1055B0003804FEF77FFB80B2FEF7FBF90500EDB281
:1055C000002D08D1FDF7D4FE0500EDB2002D02D06C
:1055D0002800C0B216E0206B002804D0206B02F037
:1055E00026FAFCF7A9FEFCF759FE002000F006FAA7
:1055F000DFF8FC03FEF7C0FCDFF8FC03FEF73BFE20
:105600002800C0B232BD38B50400002500F040F9D2
:10561000A4B22300DFF8DC030078C0F3C202D2B2E8
:10562000DFF84414DFF8C003FEF72AFBDFF8B80305
:10563000FEF740FB80B2FEF7BCF90500EDB2002D8D
:1056400028D1DFF88C040068C0F30010002807D1CF
:10565000DFF87C04006850F01000DFF87414086074
:10566000A4B2DFF89003C0F89C400520DFF8841353
:10567000A1F89200DFF85804006850F48020DFF8A9
:1056800050140860DFF84804006850F40010DFF898
:10569000401408602800C0B232BD80B5FEF773F92F
:1056A00000F0F6F8DFF8C403DFF848130978C1F317
:1056B000C201C9B2085C002821D0DFF814040068D8
:1056C000C0F30010002807D1DFF80404006850F090
:1056D0001000DFF8FC130860DFF818030078C0F34F
:1056E000C202D2B2DFF84C14DFF84C04FEF7C8FA5D
:1056F000DFF84404FEF7DEFA80B2FEF75AF901BD86
:1057000070B504000D00002629002000FEF7D4F833
:10571000FDF72EFE06003000C0B270BD70B504006B
:105720000D000026DFF814040078002801D10520C0
:10573000ADE0A4B2002C01D10220A8E072B6DFF8DF
:105740009003D0F8010050F00070DFF88413C1F826
:105750000100DFF87C03006850F00040DFF87013B0
:10576000086062B6DFF8D803007810F00100002866
:1057700004D1DFF8CC034068002801D000BFF1E776
:1057800000F086F8DFF84803006840084000DFF8C2
:1057900040130860DFF8A8030078C0F34010C0B2DF
:1057A000002833D1FEF783F9DFF894030078C0F3C3
:1057B0004010C0B2002806D1DFF88003007800282E
:1057C00001D000BFF0E7DFF87403007800281DD196
:1057D000DFF8FC02006850F00100DFF8F412086006
:1057E00072B6DFF8EC02006840004008DFF8E01213
:1057F0000860DFF8DC02D0F8010030F00070DFF85C
:10580000D012C1F8010062B6022040E04FF47A7372
:10581000220092B22900DFF82C03FFF71CF90028C0
:1058200003D0FEF7BFF80F200600DFF8140300785E
:10583000C0B2C009C0B200280BD1FEF725F9DFF8CD
:1058400000030078C0B2C009C0B2002801D100BF77
:10585000F5E7DFF87C02006850F00100DFF8701215
:10586000086072B6DFF86802006840004008DFF8A0
:1058700060120860DFF85802D0F8010030F00070C4
:10588000DFF84C12C1F8010062B63000C0B270BD42
:10589000DFF8AC020078C0B2C009C0B2002801D164
:1058A00000BFF5E770470000E09500086C94000821
:1058B000B093000848970008C4980008D4980008DE
:1058C0005C9A0008E4980008689A00085C97000851
:1058D000749A0008F49800080499000814990008C4
:1058E000F8950008709700081096000824990008A1
:1058F000809A00088C9A0008989A0008109B00086B
:10590000189B0008A49A00083499000844990008DC
:105910008894000854990008F8B504000D0016009A
:105920000027DFF8AC010068C0F3C02000280AD1CE
:10593000DFF89C01006850F40060DFF89411086003
:10594000002D0BD001E0072048E02800FEF722F9E7
:105950000700FFB2002F01D009203FE0002C04D047
:105960002000FEF7FDF8070005E0DFF8DC014068E5
:10597000FEF7F6F80700FFB2002F01D008202DE057
:10598000F6B23100DFF8C401FEF7CEF80700FFB22F
:10599000002F01D00A2021E00121DFF8B401FEF739
:1059A000C3F80700FFB2002F01D00A2016E0FEF76F
:1059B00023F90120FAF79AFBDFF81401006850F090
:1059C0000800DFF80C110860DFF80401006830F40B
:1059D0000060DFF8FC1008603800C0B2F2BD0000C3
:1059E00084970008A494000868050020209B000804
:1059F000C0940008F8100020B400002030B585B035
:105A000004000025DFF85001006850F01000DFF8B6
:105A100048110860DFF84001006810F010000090A5
:105A200000984FF4807001900120029000200390B4
:105A30000320049001A9DFF82401FEF759FDE4B228
:105A4000002C06D001224FF480714448FEF73EFF3F
:105A500005E000224FF480714048FEF737FF280030
:105A6000C0B205B030BD0000989700084C1500206A
:105A70002DE9F84304000025FDF785FF354A384934
:105A80002D48FEF7FDF82C48FEF714F980B2FDF71B
:105A900090FF0500EDB2002D15D1FDF769FC050062
:105AA0003048FEF707F906002E4F3200390020007B
:105AB000FEF726FA5FF00008DFF8A89042463100B2
:105AC0004846FEF717F92800C0B2BDE8F28300008F
:105AD000381500202DE9F84304000025FDF753FF99
