:020000040800F2
:10000000902B0020A5B10008A5780008A77800086B
:10001000B1780008BB780008C5780008000000002F
:10002000000000000000000000000000CF78000881
:10003000D978000800000000E3780008F97800088B
:10004000A5B30008A9B30008ADB30008B1B3000818
:10005000B5B30008B9B30008BDB30008C1B30008C8
:10006000C5B30008C9B30008CDB30008D1B3000878
:10007000D5B30008D9B30008DDB30008E1B3000828
:10008000E5B30008E9B30008EDB30008F1B30008D8
:10009000F5B30008F9B30008FDB3000801B4000887
:1000A00005B4000809B400080DB4000811B4000834
:1000B000EF780008E578000815B4000819B40008C6
:1000C0001DB4000821B4000825B4000829B40008B4
:1000D0002DB40008357900083F79000831B40008D4
:1000E00035B4000839B400083DB4000841B4000834
:1000F00045B4000849B400084DB4000851B40008E4
:1001000055B4000859B400085DB4000861B4000893
:1001100065B4000869B400086DB4000871B4000843
:1001200075B4000879B400087DB4000881B40008F3
:1001300085B4000889B400088DB4000891B40008A3
:1001400095B4000899B400089DB40008A1B4000853
:10015000A5B40008A9B40008ADB40008B1B4000803
:10016000B5B40008B9B40008BDB40008C1B40008B3
:10017000C5B40008C9B40008CDB4000800000000F0
:10018000D1B40008D5B400082DE9F04104000025E1
:1001900003F093FCE4B222001349144803F03EFE3E
:1001A000FF201349C875114803F052FE80B203F0D6
:1001B0009AFC0500EDB2002D02D02800C0B210E07C
:1001C00001260027DFF82C803A003100404603F07A
:1001D0005FFE0748C07D0E2801D000BFF9E7280068
:1001E000C0B2BDE8F081000070B200080004002039
:1001F000EC260020032700202DE9F04F8BB00400EF
:1002000000250020029020780500DFF8500D0068DE
:10021000C0F3804000280FD1EDB2002D0CD0DFF8E4
:10022000400DDFF8401D09680D54DFF8380D0068F7
:10023000401CDFF8301D0860DFF82C0D03F016FFBE
:10024000DFF81C0DDFF81C1D0968081810F8020CF7
:100250000D2840F00E84DFF8080DDFF8081D09684E
:10026000081810F8010C0A2840F00384DFF8EC0CA1
:100270000068C0F30070002840F0FB83DFF8E40D55
:10028000007810F00100002840F0F383DFF8D81D5B
:10029000DFF8CC0C03F0F9FE002863D002F0CAFFAF
:1002A00072B6DFF8BC0C01F0B3FC62B602F0B8FF26
:1002B000DFF8A80C0068C00F002810D172B6DFF874
:1002C000B00DD0E9082311001A00DFF8A80D03F0E3
:1002D00031FE62B6DFF8900C03F0C8FE1AE0DFF8DA
:1002E0007C0C0068C0F34000002813D1DFF8780CC4
:1002F00003F0BCFEDFF8640C006840004008DFF843
:100300005C1C0860DFF8540C006850F00200DFF855
:100310004C1C0860DFF8440CD0F80100C0F34060CA
:10032000002807D1DFF8340C006840004008DFF8EF
:100330002C1C08600020DFF82C1C0860DFF81C0C67
:10034000006810F00260B0F1026F09D1DFF80C0C08
:10035000006830F00060DFF8041C086000F06CBC3E
:1003600001F03FBCDFF8101DDFF8F40B03F08DFE49
:10037000002800F0C481DFF8041DDFF8E40B03F06F
:1003800084FE060000282CD030798DF804007079A6
:100390008DF805009DF804000A219DF8052001FB59
:1003A0000020DFF8CC1C91F8211060F30301DFF886
:1003B000C00C80F821100F20DFF8B41C81F8260053
:1003C00072B6DFF8AC0CD0E9082311001A00DFF890
:1003D000A40C03F0AFFD62B6DFF88C0B03F046FE11
:1003E0006BE1DFF89C1CDFF8780B03F04EFE060093
:1003F000002800F0A980707A8DF80000B07A8DF89E
:100400000100F07A8DF80200307B8DF803009DF832
:1004100001000D2807D19DF800003038DFF8641C7A
:10042000C1F8980044E09DF802000D280DD19DF818
:1004300000000A219DF8012001FB0020B0F50470A6
:10044000DFF8401CC1F8980032E09DF803000D2849
:1004500014D19DF8000064219DF801200A235A431D
:1004600001FB00209DF8021050FA81F0DFF8181C03
:100470000818DFF8101CC1F8980019E09DF800007A
:100480004FF47A719DF8012064235A4301FB002048
:100490009DF802100A2202FB01009DF8031050FA99
:1004A00081F0DFF8E81B0818DFF8D81BC1F89800C6
:1004B000DFF8D00BD0F89800002808D0DFF89C0AAD
:1004C000006850F48030DFF8941A0860F5E0DFF837
:1004D000B40BD0F89800002840F0EF80DFF8A40BB0
:1004E000DFF8A01B0978C1F3C201C9B2081890F85F
:1004F000D90000281FD0DFF8980BDFF8881B097897
:10050000C1F3C201C9B2085C002808D00221DFF89B
:10051000740B0078C0F3C200C0B203F087FADFF8B2
:10052000640BDFF8601B0978C1F3C201C9B2081877
:10053000002180F8D910DFF8240A006830F010009C
:10054000DFF8181A0860B8E015A1DFF8140A03F004
:100550009CFD0600002825D00320DFF8141B81F83D
:100560002600300003F074FCB0F10B0716F103080D
:10057000DFF8209B3A004146484603F08FFD72B6F3
:10058000DFF8EC2AD2E908010A000100DFF8E40AEA
:1005900003F0D0FC62B6DFF8D00903F067FD8CE011
:1005A000203D2000DFF8BC0A0078C0F34000C0B254
:1005B000002865D0DFF8AC0A4078C0F30010C0B264
:1005C000002872D0DFF8BC0AC079C0F3C200C0B204
:1005D00000280DD0DFF8AC0AC07910F0C70110F088
:1005E0003800083810F038000843DFF8981AC8714E
:1005F000DFF8700A007810F0FD00DFF8681A087064
:100600000020DFF88C1ADFF87C2A527912F00F02F2
:100610005054DFF8700A407910F00F00DFF8641AC8
:100620000871DFF8400A407810F0EF00DFF8341A64
:1006300048700220DFF82C1A0875DFF8200980794D
:1006400010F0010000280AD0DFF81009D0F80100EE
:1006500050F00050DFF80419C1F8010007E0DFF89E
:10066000FC08807950F00100DFF8F0188871DFF89D
:10067000EC08006830F01000DFF8E018086014E0C3
:100680000220DFF8EC1981F8260072B6DFF8E009E5
:10069000D0E9082311001A00DFF8D80903F04AFC5A
:1006A00062B6DFF8C40803F0E1FCDFF8B8090078AF
:1006B00010F0FD00DFF8AC1908700020DFF8A41876
:1006C00008604FF400775FF00008DFF89498424626
:1006D0003900484603F0DCFBDFF88008006810F0C2
:1006E0000260B0F1026F08D1DFF87008006830F0E6
:1006F0000060DFF8681808609EE201F072BADFF867
:10070000F41CDFF85C0803F0C0FC002800F0EA806D
:10071000DFF8E41CDFF8480803F0B7FC002836D007
:10072000DFF8D80C03F0F6FCDFF83809007810F099
:10073000FD00DFF830190870DFF82809407810F064
:10074000EF00DFF820194870DFF81008807910F00A
:100750000100002807D1DFF80408807950F001007B
:10076000DFF8F81788710120DFF81819DFF814296D
:10077000527912F00F02511881F8D900DFF8DC0726
:10078000006830F01000DFF8D417086088E0DFF868
:10079000701CDFF8CC0703F078FC002807D1DFF8E5
:1007A000641CDFF8BC0703F070FC002831D0DFF8D0
:1007B000AC070068C0F3C040002871D0DFF89C0788
:1007C000006830F40020DFF894170860DFF88C0729
:1007D000006830F01000DFF884170860DFF87C074D
:1007E000006830F40010DFF874170860DFF86C0759
:1007F000006830F48020DFF8641708600020DFF81C
:100800008418A1F88E000020DFF87818C1F8AC0039
:1008100046E0DFF8F41BDFF8480703F036FC002859
:1008200003D0DFF8E80B03F075FC0820DFF8401870
:1008300081F8260072B6DFF83808D0E908231100E5
:100840001A00DFF8300803F075FB62B6DFF818070E
:1008500003F00CFCDFF804070068C0F30010002868
:1008600007D0DFF8F806006830F01000DFF8EC166B
:100870000860DFF8E806D0F80200C0F30070002836
:100880000ED0DFF8D806D0F8020030F08050DFF844
:10089000CC16C1F802000020DFF8E817C1F8C40048
:1008A0000020DFF8C01608604FF400775FF0000802
:1008B000DFF8AC9642463900484603F0E9FADFF823
:1008C0009C06006810F00260B0F1026F08D1DFF8FA
:1008D0008C06006830F00060DFF880160860ABE13D
:1008E00001F07FB9DFF8F01DDFF8740603F0CDFBEF
:1008F000002859D0DFF8E41DDFF8640603F0C5FBDB
:100900000600002E04D00020DFF87817487203E0BC
:100910000120DFF8701748729DA1DFF8440603F04C
:10092000B4FB0600002E04D00020DFF858178872B0
:1009300003E00120DFF84C1788720420DFF830173D
:1009400081F8260072B6DFF82807D0E908231100E5
:100950001A00DFF8200703F0EDFA62B6DFF80806A8
:1009600003F084FB0020DFF8FC1508604FF40077EB
:100970005FF00008DFF8E89542463900484603F08A
:1009800087FADFF8D805006810F00260B0F1026F56
:1009900008D1DFF8C805006830F00060DFF8BC154A
:1009A000086049E101F01DB9DFF8B005006810F0FA
:1009B0000260B0F1026F3BD1DFF8A005D0F8010072
:1009C000C0F38060002833D1DFF8B806B0F890009B
:1009D000002814D072B6DFF8AC06B0F89010DFF83B
:1009E000900603F0B9FC62B6DFF89806B0F8907094
:1009F0005FF0000842463900200003F049FADFF8B2
:100A00005C05D0F8020050F00050DFF85015C1F836
:100A10000200DFF84805006830F00060DFF83C15A0
:100A20000860DFF840050068DFF85816A1F8940068
:100A3000DFF83006007810F00100002840F0FC805C
:100A4000DFF820060078C0F34010C0B2002800F0A4
:100A5000F3800020DFF80C1508604FF400775FF09A
:100A60000008DFF8FC9442463900484603F010FACB
:100A7000E2E0DFF8E8040068C0F38000002800F03E
:100A80008980DFF8741DDFF8D80403F0FEFA00282F
:100A900050D1DFF8681DDFF8C80403F0F6FA00282B
:100AA00048D1DFF85C1DDFF8B80403F0EEFA002847
:100AB00040D1DFF8501DDFF8A80403F0E6FA002863
:100AC00038D1DFF8441DDFF8980403F0DEFA00287F
:100AD00030D1DFF8381DDFF8880403F0D6FA00289B
:100AE00028D1DFF82C1DDFF8780403F0CEFA0028B7
:100AF00020D1DFF8201DDFF8680403F0C6FA0028D3
:100B000018D1DFF8141DDFF8580403F0BEFA0028EE
:100B100010D1DFF8081DDFF8480403F0B6FA00280A
:100B200008D1DFF8FC1CDFF8380403F0AEFA002827
:100B300000F08280DFF82404006850F08050DFF875
:100B40001C140860DFF81404006850F48020DFF8FB
:100B50000C140860DFF80404006830F00400DFF8CB
:100B6000FC1308600520DFF81C15A1F89200DFF8DF
:100B7000EC03D0F8020030F08050DFF8E013C1F849
:100B800002000020DFF8FC14C1F8C40001F029B80D
:100B90006F757400DFF8C803DFF8C8130968081818
:100BA00010F8010C09281CD1DFF8B403DFF8B413E6
:100BB0000968081810F8020C3A2812D1DFF8A003CF
:100BC000DFF8A0130968081810F8030C312808D1C1
:100BD000DFF88803006850F08040DFF88013086079
:100BE0002AE0DFF87803C07910F0010000280ED069
:100BF000DFF86C03DFF86C130968081810F8010CB3
:100C0000002819D10020DFF85C13086014E0DFF839
:100C100054030068B0F5FF7F0ED90020DFF84413BD
:100C200008604FF400775FF00008DFF83493424625
:100C30003900484603F02CF9C8480068C0F38040EA
:100C4000C00740F10A81C548D0F80200C0F34070E7
:100C5000C00700F10281DFF82C04B0F89000DFF843
:100C60002414A1F89400BF480068DFF81814B1F804
:100C7000941010FA81F0B0F5007F25D3B9480068D0
:100C8000DFF80014B1F8941010FA81F0A0F2FF1709
:100C900072B63900DFF8D80303F05EFB62B65FF08E
:100CA0000008B0480068201A00F2FF1942463900D7
:100CB000484603F0EDF840F2FF10AA490968401ACF
:100CC000DFF8C013A1F89400DFF8B803B0F894700F
:100CD000DFF8148EA248A349096811EB00093A0015
:100CE0004146484603F0DAF99E480068DFF894135D
:100CF000B1F8941010FA81F09A4908609948006898
:100D0000012804D1964800780D2800F06A87DFF8A2
:100D1000DC1D934803F0B9F900280ED08F48006815
:100D200030F000608D4908608C48D0F8010030F048
:100D300080608A49C1F801008FE0CA480078C00786
:100D400000F18B8085480068C0F30070C00700F197
:100D5000848083480078002800F07F8080480078F5
:100D60000D287AD17E4840780A2876D1C548D0F837
:100D70009C00022871D07948D0F8010050F08060C2
:100D80007649C1F80100B9A1DFF8640D03F07DF9DF
:100D9000060000283BD07248301A871CDFF8541D2B
:100DA000DFF84C0D03F071F900280BD0B2496C4804
:100DB000381803F06AF90600002E03D06848301A8C
:100DC000801D070067480068C01B002817D072B656
:100DD00064480068C11BA64803F0BEFA62B66148C9
:100DE0000068B0EB07085FF000095D4817EB000AE8
:100DF0004A464146504603F04BF85A480760574868
:100E0000D0F8010030F080605449C1F80100534827
:100E1000006850F00060514908605248006840F294
:100E2000FF11884219D14D48D0F80100C0F380600D
:100E3000002812D04948D0F8010030F080604749BE
:100E4000C1F801004548006830F00060434908607F
:100E500040F2FF108B49A1F894004048006810F060
:100E60000260B0F5001F40F0D3827E48007850F059
:100E700001007C4908708348D0F8A8008149B1F886
:100E8000941010FA81F07F49C1F8A800DFF85C1CCB
:100E900033487C4AB2F892201018401F03F0F5F84E
:100EA0000600002E00F0F8802D482E490968081829
:100EB00010F8020C0D2840F0EF80294829490968F4
:100EC000081810F8010C0A2840F0E680DFF8181D19
:100ED000234803F0DAF8060000281BD0F07E002833
:100EE0000DD01F48371A1F48006817F11B01B0EBDF
:100EF000010872B641465E4803F02EFA62B65948C0
:100F0000407850F00100574948700D205D4981F844
:100F1000D80047E0DFF8E014114803F0B6F8060007
:100F2000002823D0F07D00280DD00D48371A0D4839
:100F3000006817F11701B0EB010872B641464C4842
:100F400003F00AFA62B601204E494E4A527912F075
:100F50000F02511881F8D90024E000BF402700207B
:100F6000941E00207C270020C0250020DFF87C1C78
:100F7000DFF87C0C03F089F80600002812D0F07D21
:100F800000280FD0DFF8680C371ADFF8680C00680B
:100F900017F11701B0EB010872B64146344803F06F
:100FA000DBF962B600203749C1F8A80000203549B6
:100FB000C1F8980000203349C1F89C000520314950
:100FC000A1F89200DFF8300C006830F40010DFF870
:100FD000281C0860DFF8200C006830F01000DFF8F3
:100FE000181C0860DFF8100C006830F48020DFF86F
:100FF000081C086000201B4948601A48007810F05F
:10100000FE0018490870DFF8F00B0068C0F3C0401C
:10101000002815D0DFF8E00B006830F40020DFF87E
:10102000D81B086000201749C1F8A000DFF8C80BE2
:10103000006850F00100DFF8C01B086002F0BEFD40
:10104000DFF8B00B07685FF00008DFF8A49B4246AA
:101050003900484602F01CFF0020DFF8981B0860AA
:1010600000F0BFBDEC26002004B300080D0A00000C
:10107000A0250020B42500200CB3000814B30008FC
:101080007CB200082422002030EBFFFFB02FFFFFCE
:101090005427002032220020DFF8580B0068062871
:1010A00008D3002E06D1DFF84C0B0068DFF8501B88
:1010B000A1F89200DFF8480BD0F8A800DFF8401B39
:1010C000D1F89C108842C0F02081DFF8340BD0F8B2
:1010D0009C00DFF82C1BD1F8A810884225D2DFF83D
:1010E000200BD0F8A800DFF8181BD1F89C10471A85
:1010F00072B63900DFF8340E03F02EF962B65FF0F5
:101100000008DFF8EC0ADFF8EC1A0968C91B11EBDC
:10111000000942463900484602F0BAFEDFF8D40A18
:101120000068C01BDFF8CC1A0860DFF8C80A006846
:10113000DFF8CC1AA1F88E00DFF8C40AD0F89C00C2
:10114000DFF8BC1AC1F8AC00DFF8A80A0768DFF8BE
:10115000A08ADFF8B09A3A004146484602F09EFF66
:101160000020DFF8901A08600020DFF8941AC1F818
:10117000A8000020DFF8881AC1F898000020DFF8E6
:10118000801AC1F89C000020DFF8741AA1F89400BE
:101190000520DFF86C1AA1F89200DFF85C0A0068FD
:1011A00030F00060DFF8501A0860DFF84C0A006881
:1011B00030F48020DFF8401A0860DFF8440AC07875
:1011C00050F00700DFF8381AC870DFF82C0A006802
:1011D000C0F3C040002830D00020DFF8241AC1F846
:1011E000A000DFF81C0A407810F0C700DFF8101AE2
:1011F0004870DFF8140A4068002806D0DFF8080AB3
:101200004068401EDFF8001A4860DFF8FC094068BB
:10121000002809D1DFF8E009006850F00100DFF88C
:10122000D819086002F0CAFCDFF8CC09006830F475
:101230008000DFF8C41908601CE0DFF8BC09006812
:1012400050F48000DFF8B0190860DFF8B4090078C6
:10125000C0B2C008DFF8A819497860F3C501DFF80B
:10126000A0094170DFF8A009007850F00200DFF813
:1012700098190870DFF88009006830F40010DFF872
:1012800078190860DFF88009007810F0FE00DFF8B8
:101290007819087001F0DBFFDFF85C090068C0F323
:1012A000C04000281AD0DFF85009D0F8010050F0F3
:1012B0008050DFF84419C1F80100DFF83C090068EC
:1012C00030F01000DFF830190860DFF82C090068F2
:1012D00030F40020DFF82019086009E0DFF8180971
:1012E000D0F8010050F00060DFF80C19C1F80100DF
:1012F0004FF400775FF00008DFF8F49842463900B9
:10130000484602F0C5FD00F06CBCDFF8E808006854
:10131000B0F5FF7F6DD90520DFF8E418A1F8920041
:10132000DFF8DC08D0F89C00DFF8D418C1F8AC0076
:1013300040F2FF10DFF8C818A1F88E00DFF8B408FB
:101340000768DFF8AC88DFF8BC983A0041464846A9
:1013500002F0A4FE0020DFF89C1808600520DFF8EA
:10136000A018A1F89200DFF89808C07850F00700A4
:10137000DFF88C18C87001F06AFF4FF400795FF055
:10138000000ADFF86CB852464946584602F080FD24
:10139000DFF864080068C0F3C040002812D0DFF80E
:1013A0006008407810F0C700DFF854184870DFF884
:1013B0004808D0F8010050F08050DFF83C18C1F820
:1013C000010016E0DFF838080078C0B2C008DFF886
:1013D0003018497860F3C501DFF824084170DFF860
:1013E0001808D0F8010050F00060DFF80C18C1F8C0
:1013F0000100F6E31CB3000800AE000844A7000893
:10140000D4A9000818A9000824B3000828AB0008D4
:10141000DFF8E4070068C0F30070002800F00282E3
:10142000DFF8E407007850F00100DFF8DC170870FF
:10143000DFF8D817DFF8B807DFF8C427B2F8922032
:101440001018401F02F021FE0600002800F0AB80BB
:10145000F079002823D0DFF89807371ADFF89407CF
:101460000068B91DB0EB010872B64146DFF8BC0A4E
:1014700002F072FF62B65FF00009DFF874073818F7
:1014800010F1070A4A464146504602F001FDDFF8D6
:1014900064070068B0EB0800DFF858170860DFF851
:1014A00054070068DFF85817A1F88E00DFF84407EA
:1014B0000768DFF83C87DFF84C973A00414648461A
:1014C00002F0ECFDDFF82C070068DFF83417A1F814
:1014D0008A00DFF83407407850F00100DFF8281761
:1014E0004870DFF81407006830F48020DFF8081730
:1014F0000860DFF80407006830F08050DFF8F81665
:10150000086001F0A4FE0020DFF8F41681F8D8008E
:10151000DFF8F406007810F0FE00DFF8EC16087033
:10152000DFF8D406006830F00060DFF8CC16086001
:10153000DFF8C406006830F01000DFF8BC16086061
:101540000520DFF8BC16A1F89200DFF8A806D0F855
:1015500000905FF0000ADFF898B6524649465846B8
:1015600002F096FC0020DFF88C160860DFF8880691
:101570000068C0F3407000280AD0DFF87C06D0F87D
:10158000020050F00070DFF87016C1F802009BE016
:10159000DFF86406D0F8020050F08070DFF85816CB
:1015A000C1F8020090E0DFF8841BDFF84406DFF8A2
:1015B0005026B2F892201018401F02F066FD060077
:1015C000002800F08180DFF83006006830F48020C9
:1015D000DFF824160860DFF81806DFF81816096827
:1015E000081810F8020C0D286ED1DFF80406DFF899
:1015F00004160968081810F8010C0A2864D1DFF8ED
:101600000806407850F00100DFF8FC1548700D2006
:10161000DFF8EC1581F8D800DFF8EC05007810F061
:10162000FE00DFF8E4150870DFF8CC05006830F440
:101630008020DFF8C4150860DFF8BC05006830F0D2
:101640000060DFF8B41508600020DFF8A815086016
:101650000520DFF8AC15A1F89200DFF89C050068C2
:1016600030F08050DFF890150860DFF88C050068D6
:1016700030F01000DFF8801508604FF400775FF05D
:101680000008DFF86C9542463900484602F000FC3D
:10169000DFF864050068C0F3407000280AD0DFF866
:1016A0005805D0F8020030F00070DFF84C15C1F892
:1016B000020009E0DFF84005D0F8020030F0807049
:1016C000DFF83415C1F80200DFF8280500680628A5
:1016D00006D3012005E000BF2CB3000834B3000896
:1016E0000020002E01D1012100E00021C0B20842FB
:1016F00006D0DFF800050068DFF80415A1F89200B5
:10170000DFF8F004006840F2FF11884272D1DFF880
:10171000E40400680A90DFF8D8040990DFF8E47464
:101720000A9A0999380002F0B9FC06200890DFF8FF
:10173000000A0790DFF8FC79089A0799380002F050
:10174000ADFC0620069000200590DFF8E479059AAC
:101750000699380002F09CFB4FF4007004900020C2
:101760000390DFF88C74039A0499380002F090FB20
:101770000627DFF8C089DFF878943A0041464846EA
:1017800002F08CFC5FF006095FF0000ADFF8A4B9F4
:1017900052464946584602F07BFB0620DFF85414B7
:1017A00008600520DFF85814A1F8920040F2F91003
:1017B000DFF84C14A1F88A0001F049FDDFF8380485
:1017C0000068C0F3407000280AD0DFF82C04D0F87D
:1017D000020050F00070DFF82014C1F8020009E0A8
:1017E000DFF81404D0F8020050F08070DFF808141D
:1017F000C1F80200F5E100BF3CB3000844B30008A3
:10180000C4AF00084CB30008D8AF000884B100088A
:1018100094B1000818AE000844AC0008ECAF000812
:1018200030AE0008DFF8D003006810F09040B0F14F
:10183000804F40F08281DFF8B803DFF8B813096801
:10184000081810F8020C0D2840F06481DFF8A0039E
:10185000DFF8A0130968081810F8010C0A2840F0F6
:101860005981DFF8D40802F0D4FDDFF89403407BFF
:10187000DFF88C13097B884280F0DA80DFF8BC182F
:10188000DFF86C0302F001FC0600002E10D0B079E6
:101890008DF80000F0798DF801009DF800000A2114
:1018A0009DF8012001FB00201038DFF89418087023
:1018B000DFF88C080078DFF88C180968D04A527B72
:1018C0002C2303FB02110870DFF87C18C84802F0D3
:1018D000DCFB0600002E0FD0F0798DF80000307A86
:1018E0008DF801009DF800000A219DF8012001FB00
:1018F0000020B0F504700290DFF848080068C04985
:10190000497B2C2202FB0100029949424160DFF829
:101910003C18B74802F0B9FB0600002E26D007207D
:10192000DFF82C180870DFF828080078805D272879
:101930001CD0DFF810080068B149497B2C2202FB5B
:101940000100DFF80C1809780818DFF80418097886
:10195000895D4170DFF8F8070078401CDFF8F01768
:101960000870DFF8EC0700782328DCD1DFF8E417F3
:101970009F4802F08AFB0600002E0BD0DFF8C40758
:1019800000689F49497B2C2202FB0100012180F85D
:1019900026100AE0DFF8AC0700689949497B2C2241
:1019A00002FB0100002180F82610DFF8AC179048F8
:1019B00002F06BFB0600002E0BD0DFF888070068F2
:1019C0008F49497B2C2202FB0100012180F827105E
:1019D0000AE0DFF8700700688949497B2C2202FB86
:1019E0000100002180F82710DFF87017804802F00E
:1019F0004CFB0600002E0BD0DFF84807006880493A
:101A0000497B2C2202FB0100012180F828100AE00A
:101A1000DFF8300700687A49497B2C2202FB01007D
:101A2000002180F828107648407B401C7449487398
:101A3000DFF8F8166E4802F028FB0600002E24D0CE
:101A40004FF400775FF00008DFF8A49142463900B8
:101A5000484602F01DFA0020664908606A4840784E
:101A600050F00100684948706348006830F08040D9
:101A7000614908606048006830F480605E49086031
:101A80000D205F4981F8D800ABE0DFF8D416584844
:101A900002F0FBFA00282FD05748006830F480602D
:101AA0005549086000205649487300205149086094
:101AB0005548407850F00100534948704E4800683E
:101AC00030F080404C49086000204D4981F8D80032
:101AD0004FF400775FF00008DFF8149142463900B8
:101AE000484602F0D5F97CE0941C002054B300086D
:101AF000961E002088B2000800203E4908604FF47E
:101B000000775FF00008DFF8E89042463900484669
:101B100002F0BEF937480068B0F5FF7F0DD900200C
:101B2000344908604FF400775FF00008DFF8C09098
:101B300042463900484602F0ABF92F48006810F0E1
:101B40004060B0F1806F4CD12CA002F0E3FADFF8D6
:101B50001416274802F099FA060000282DD02648CE
:101B6000006830F480202449086021482149096830
:101B7000081810F8020C0D281FD11D481D490968CE
:101B8000081810F8010C0A2817D1DFF8DC0502F05C
:101B9000C1FA1948006830F08060174908600020D9
:101BA000144908604FF400775FF00008DFF84090B8
:101BB00042463900484602F06BF90E48006840F290
:101BC000FF1188420DD100200A4908604FF40077C8
:101BD0005FF00008DFF8189042463900484602F0EE
:101BE00057F90BB0BDE8F08F60AC000848AE0008B4
:101BF000941E00207C270020402700202A0000009F
:101C000024220020941A0020EC2600200CB30008A7
:101C10002DE9FC470400250026004FF0FF08002EA8
:101C200000F08182DFF84415280002F02EFA060049
:101C3000002E00F0788270798DF80400B0798DF86C
:101C400005009DF805003A2804D19DF804003038BD
:101C500080460BE09DF804000A2110FB01F09DF87E
:101C6000051050FA81F0B0F504708046AF4880F856
:101C700020800120AD4981F826000FFA88F84046FF
:101C80000028032840F22B82001F012840F24182E5
:101C9000801E012840F22382801E012840F23982F2
:101CA000801E00F02982401E012840F23282801EF0
:101CB000012840F21482801E00F02B82401E03286F
:101CC00040F20D82001F00F02482401E00F00782C7
:101CD000401E012840F21D82C01E00F00082401EFE
:101CE000012840F21682801E00F09F81801E00F0C5
:101CF000F681401E012840F20C82801E012840F22D
:101D0000EE81801E012840F20482801E00F0E781EF
:101D1000401E00F0FE81401E00F0E181401E0428BC
:101D200040F2F781401F012840F2D981001F0528A9
:101D300040F2D581801F20D0801E00F0AA81401E75
:101D40002FD0401E00F01381401E00F02C81401E59
:101D5000012840F29281C01E31D0801E00F0BF8168
:101D6000401E00F0A681401E00F0AE81001F00F072
:101D70007081801E00F0B381CCE1DFF8F4132800FD
:101D800002F083F9060070798DF800009DF80000DC
:101D9000664991F8211060F30301644880F821102E
:101DA000B8E1B07D8DF800009DF800005F4991F822
:101DB000211060F303015D4880F82110AAE1DFF8EB
:101DC000B4030068C00F002804D0DFF8AC0302F0B1
:101DD000A1F9A8E1DFF89C03D0F80100C0F300608E
:101DE000002805D00020DFF89413C1F8A40011E00A
:101DF000DFF88003006850F01000DFF87813086007
:101E0000DFF87003D0F8010050F08070DFF8641341
:101E1000C1F80100DFF85813280002F036F9060077
:101E2000002E00F0A38070798DF800009DF800006E
:101E300030383E4981F82200307A8DF80000707AFF
:101E40008DF80100B07A8DF80200F07A8DF8030069
:101E50009DF800003A2806D1F0798DF80000307A1C
:101E60008DF801002EE09DF801003A2809D1F079A3
:101E70008DF80000307A8DF80100707A8DF802003C
:101E800020E09DF802003A280CD1F0798DF800008E
:101E9000307A8DF80100707A8DF80200B07A8DF8F2
:101EA00003000FE09DF803003A280BD1F0798DF87C
:101EB0000000307A8DF80100707A8DF80200B07A57
:101EC0008DF803009DF801003A2805D19DF8000027
:101ED00030381649888444E09DF802003A280DD134
:101EE0009DF800000A2110FB01F09DF8011050FA46
:101EF00081F0B0F504700D49888432E09DF803004C
:101F00003A2815D19DF80000642110FB01F09DF8DE
:101F100001100A2211FB02009DF8021050FA81F014
:101F200041F2D041401A014988841AE0A0250020DE
:101F30009DF800004FF47A7110FB01F09DF801103C
:101F4000642211FB02009DF802100A2211FB02001C
:101F50009DF8031050FA81F000F53C50B0308849EC
:101F6000888488484068401C86494860D2E085489B
:101F7000007850F08000834908708248007810F0A3
:101F8000DF008049087000207E4948607948006879
:101F900030F00200774908607648006850F0004051
:101FA00074490860B6E07748007810F07F00754902
:101FB00008707448007850F02000724908706D482D
:101FC000006830F002006B4908606A48006850F011
:101FD00000406849086067480078C00708D569482C
:101FE0000078C0B2C009C0B2002801D101F0E6FDFE
:101FF00060480068C0F3C040002815D005205F4944
:10200000A1F892005B48006850F4802059490860AC
:102010005848006850F40010564908605748D0F8F6
:10202000A0005649C1F89C0074E05749280002F00E
:102030002CF8060011200700222F06DAB85D4F4960
:10204000791881F83E007F1CF6E70B204D49C875D2
:1020500060E04E49280002F018F806001120070041
:10206000222F06DAB85D4549791881F83E007F1CB9
:10207000F6E70C204349C8754CE03E480068C00FA5
:10208000002805D03B4800684000400839490860F6
:1020900040E000203E4908703648006830F00200F9
:1020A000344908603348006850F000403149086006
:1020B00030E00A20324981F826002E48C07950F0DD
:1020C00001002C49C87125E009202D4981F826001E
:1020D0002848C07910F0FE002649C8711AE025484A
:1020E000006830F00200234908602248006850F080
:1020F0000040204908600DE01E480068C0F3001051
:10210000002805D01B48006830F01000194908600D
:1021100000E0FFE74FF400795FF0000A52464946BD
:10212000280001F0B5FEBDE8F38700001CB30008ED
:102130008D1C00205C2700203C0300205CB30008BD
:102140008C2700207827002064B300086CB30008B7
:102150008B27002074B300087CB3000884B3000808
:102160008CB3000894B2000800B0000804B3000863
:1021700094B30008402700209CB3000824220020CC
:10218000A0250020EC260020A0B20008ACB2000878
:102190008827002070B54FF48061DFF8880201F0D5
:1021A000CBFFDFF88402407810F0F1009E494870C0
:1021B00000209E49087000F01EF900F08AF800F037
:1021C00016F832219A4801F097FE01F029F8082408
:1021D0000025984E2A002100300001F059FE964853
:1021E00002F050F9002801D001F076FC70BD8E4855
:1021F000007850F008008C4908708B48007850F047
:102200008000894908708848007810F0BF0086492E
:1022100008708548407810F0F1008349487000202C
:102220008149487400208049C87400207E49887420
:1022300000207D4948607C48407810F0FE007A49D3
:102240004870FF207849C875022077490875022038
:102250007549487500207449887500207249C86026
:102260007648006850F001007449086073480068BF
:1022700050F00200714908607048D0F8020030F058
:1022800080506E49C1F802006C48C07910F0DF0040
:102290006A49C8716948807950F0010067498871BE
:1022A0006648C07910F0EF006449C8716348C0798E
:1022B00010F0BF006149C8716048C07910F07F001C
:1022C0005E49C8715D48007A10F0FE005B490872F3
:1022D000704770B55A48C07910F0C7005849C871A6
:1022E00000205749C1F8A40000205549C1F89800C2
:1022F00000205349C1F8A00000205149C1F8B000A6
:1023000000204F49C1F8A80000204D49A1F89000D5
:1023100000204B49C1F8B40000204949C1F8BC0075
:1023200000204749C1F8C0000020454948730020FB
:102330004349C1F8C40000204149A1F88C000520A0
:102340003F49A1F892004FF4006400253D4E2A0059
:102350002100300001F09CFD70BD80B53A48006856
:1023600050F00400384908603748006810F0040055
:10237000009000983448006850F00100324908602D
:102380003148006810F00100009000984FF4805030
:1023900024490863012023494863012021498863B7
:1023A00003202049C8632949294802F0ADF90020DB
:1023B0001E490870FF201C49C87500224FF4805147
:1023C000234802F03DFBC82002F083FB01224FF4BA
:1023D00080511F4802F034FB322002F07AFB4FF4A8
:1023E00080511B4802F089FA0F48C07D0E2801D0A9
:1023F00000BFF9E701BD80B500224FF480515FF0C6
:10240000904002F01DFB01221249134802F0CEFC5D
:10241000002805D10948006850F4005007490860B9
:1024200001BD0000A0250020EC2600208827002008
:10243000B425002054270020E42500204027002058
:1024400024220020000C00204C100240D025002047
:102450000008004872220020002400202DE9F041ED
:1024600082B004000025DFF8F40D0068C0F300100E
:10247000002840F05F8472B6DFF8F40D01F0A5FD8E
:10248000DFF8F01D886262B6DFF8E80D806A002888
:1024900000F05084DFF8DC0D806A807901283BD0A1
:1024A000022800F02B84032800F02884042800F080
:1024B0002584062800F0FD80082800F00D840928F6
:1024C00000F02F840A2800F02B840C2800F02183D0
:1024D0000D2800F07E830E2800F091820F2842D054
:1024E000102800F09A81142800F04F81152800F080
:1024F0001082162800F08380172800F0CE811B2858
:1025000000F08A811C2800F059821D280BD0242855
:1025100000F0A58300F00EBCDFF8580D806A00F0D3
:10252000FFFF00F007BCDFF84C0D806A407810F028
:102530000F00DFF8441D097860F30201DFF8380D61
:1025400001700020DFF8341D8875DFF8300D407809
:1025500050F00100DFF8241D48700020DFF8181D3E
:1025600081F8D800E6E3DFF8100DC07910F0C7015C
:10257000083010F038000843DFF8FC1CC871DFF8A1
:10258000F80CC079C0F3C200C0B209280DDBDFF837
:10259000EC0C407850F00100DFF8E01C487004209B
:1025A000DFF8D41C81F8D800C4E30120DFF8D01C88
:1025B000DFF8C02C926A527812F00F025054DFF804
:1025C000B40C806A407810F00F00DFF8AC1C09787A
:1025D00060F30201DFF8A00C01700020DFF89C1C02
:1025E0008875DFF8980C407850F00100DFF88C1CFB
:1025F00048700020DFF8801C81F8D8009AE3DFF8EB
:10260000780C007A10F0F801401C10F00700084325
:10261000DFF8641C0872DFF8440CD0F8020030F0D8
:102620008050DFF8381CC1F802000020DFF8481C99
:10263000C1F8C400DFF8400C007A10F0070005284C
:102640000DDBDFF8380C407850F00100DFF82C1C6F
:1026500048700420DFF8201C81F8D8006AE30120CC
:10266000DFF82C1DDFF80C2C926A527812F00F0262
:102670005054DFF8000C806A407810F00F00DFF84B
:10268000F81BC97960F30201DFF8EC0BC17100207F
:10269000DFF8E81B8875DFF8E40B407850F00100A4
:1026A000DFF8D81B48700020DFF8CC1B81F8D80079
:1026B00040E301F002FADFF8C00BC07A012811D123
:1026C000DFF8B40BD0F8B8000090DFF8AC0B436E25
:1026D000DFF8A40B026EDFF8BC1CDFF8500D01F030
:1026E0009DFB15E0DFF8900BC07A002810D1DFF8D1
:1026F000880BD0F8B8000090DFF87C0B436EDFF851
:10270000780B026EDFF8901CDFF8200D01F086FBDD
:10271000DFF8180D01F09CFB80B201F0E4F9050030
:10272000EDB2002D23D10020DFF84C1BC1F8C4000E
:10273000DFF8280BD0F8020050F08050DFF81C1BA7
:10274000C1F80200DFF8140B006850F01000DFF849
:102750000C1B0860DFF8040B006850F00400DFF881
:10276000FC1A08600620DFF8141B88750CE00D20A9
:10277000DFF8041B81F8D800DFF8000B407850F038
:102780000100DFF8F81A4870D4E201F096F9DFF89A
:10279000E80AB0F88430DFF8E00A807810F0070229
:1027A000DFF8B81CDFF8840C01F038FBDFF87C0C94
:1027B00001F04EFB80B201F096F90500EDB2002D5C
:1027C00019D101F07AF9DFF8B00AB0F88460DFF8C7
:1027D000A80AD0F88070DFF8548C320039004046E7
:1027E00001F05CFC72B6DFF8900AB0F8840001F0EA
:1027F0007AF9050062B6EDB2002D0CD0DFF87C0A44
:10280000407850F00100DFF8741A48700D20DFF8AE
:10281000681A81F8D8008DE28CE201F04EF9DFF8F9
:10282000580AC06E0090DFF8500AD0F8B830DFF8D0
:10283000480A026EDFF8BC1CDFF8F00B01F0EEFA7C
:10284000DFF8E80B01F004FB80B201F04CF9050061
:10285000EDB2002D0DD0DFF8240A407850F00100D1
:10286000DFF8181A48700D20DFF80C1A81F8D8002C
:1028700012E01020DFF8041A88750020DFF8F8193C
:10288000C1F8C400DFF8D409D0F8020050F080503D
:10289000DFF8C819C1F802004CE201F00EF9DFF8C8
:1028A000D809C36EDFF8D009D0F8B820DFF8481C8B
:1028B000DFF8780B01F0B2FADFF8700B01F0C8FA1C
:1028C00080B201F010F90500EDB2002D0DD0DFF857
:1028D000AC09407850F00100DFF8A01948700D20D5
:1028E000DFF8941981F8D80012E01720DFF88C196E
:1028F00088750020DFF88019C1F8C400DFF85C0992
:10290000D0F8020050F08050DFF85019C1F80200F2
:1029100010E2DFF86C09DFF85C19896A497811F078
:102920000F01085C002844D001F0C7F8DFF8440923
:10293000806A407810F00F02DFF8C01BDFF8EC0A65
:1029400001F06CFADFF8E40A01F082FA80B201F0DB
:10295000CAF80500EDB2002D2FD10020DFF81819BC
:1029600081F8D800DFF8F408006850F01000DFF8B4
:10297000EC180860DFF8FC08806A407810F00F005F
:10298000DFF8F418497960F30301DFF8EC084171CE
:10299000DFF8E808407850F01000DFF8E0184870E1
:1029A000DFF8D808007850F00200DFF8D01808707F
:1029B00003E0DFF84C0B01F0ADFBBBE101F07DF86B
:1029C000DFF8401BDFF8640A01F028FADFF85C0A40
:1029D00001F03EFA80B201F086F80500EDB2002D5C
:1029E0000CD10020DFF8901881F8D800DFF86C08CF
:1029F000006850F01000DFF8641808609AE101F0F8
:102A00005CF8DFF87408B0F88430DFF86C08026F07
:102A1000DFF8F41ADFF8140A01F000FADFF80C0A04
:102A200001F016FA80B201F05EF80500EDB2002D5B
:102A30000DD0DFF84808407850F00100DFF83C186E
:102A400048700D20DFF8301881F8D80060E000F001
:102A5000EFFC0500EDB2002D0CD0DFF82008407827
:102A600050F00100DFF8141848700D20DFF8081846
:102A700081F8D800DFF80008B0F88430DFF8F807F4
:102A8000026FDFF8881ADFF8A40901F0C7F9DFF850
:102A90009C0901F0DDF980B201F025F80500EDB2E6
:102AA000002D0CD0DFF8D407407850F00100DFF89B
:102AB000CC1748700D20DFF8C01781F8D80000F05F
:102AC000FCFFDFF8B407B0F88460DFF8AC07D0F89B
:102AD0008070DFF8588932003900404601F0DEFA94
:102AE000DFF8480901F0B4F980B200F0FCFF0500FE
:102AF000EDB2002D0CD0DFF88407407850F00100D3
:102B0000DFF8781748700D20DFF86C1781F8D800CF
:102B100010E100F0D2FFDFF86007006F002806D157
:102B2000DFF8EC19DFF8040901F078F91FE0DFF8AD
:102B30004807006E002809D1DFF83C07026FDFF874
:102B4000D419DFF8E80801F069F910E0DFF8280788
:102B5000D0F8B8000090DFF82007036FDFF81807FF
:102B6000026EDFF8B419DFF8C40801F057F9DFF896
:102B7000BC0801F06DF980B200F0B5FF0500EDB2C0
:102B8000002D18D1DFF8D406006850F00050DFF8AF
:102B9000CC160860DFF8C406006850F48020DFF827
:102BA000BC160860DFF8B406006850F08050DFF80B
:102BB000AC1608600CE0DFF8C406407850F0010065
:102BC000DFF8B81648700D20DFF8AC1681F8D80091
:102BD000B0E000F072FFDFF8A00690F97C0010F181
:102BE000010F23D1DFF8900690F97D0010F1010F5D
:102BF0001CD1DFF88406006F002804D0DFF87806C7
:102C0000406F002812D1DFF87006006F00280DD049
:102C1000DFF86406406F002808D1DFF85C06026F19
:102C2000DFF8F818DFF8040801F0F8F8DFF8FC071F
:102C300001F00EF980B200F056FF0500EDB2002D54
:102C40000CD0DFF83806407850F00100DFF82C1681
:102C500048700D20DFF8201681F8D8006AE000F0F7
:102C60002CFFDFF81406D0F8B8000090DFF8080653
:102C7000036FDFF80406026EDFF8F01CDFF8AC0724
:102C800001F0CCF8DFF8A40701F0E2F880B200F020
:102C90002AFF0500EDB2002D10D1DFF8C005006855
:102CA00050F08060DFF8B4150860DFF8B005006808
:102CB00050F48020DFF8A41508600CE0DFF8BC05B4
:102CC000407850F00100DFF8B41548700D20DFF8AF
:102CD000A81581F8D8002DE0DFF8A005407850F065
:102CE0000100DFF8981548700D20DFF88C1581F889
:102CF000D8000020DFF8841588751BE0DFF87C051C
:102D0000407850F00100DFF8741548700020DFF8BB
:102D1000681581F8D8000020DFF86015887509E093
:102D200008E0DFF83805006850F04000DFF82C15A7
:102D30000860FFE7DFF824050068C0F300400028C2
:102D40000FD0DFF81805006830F48030DFF80C157C
:102D50000860DFF82405D0F8980080B202F0ABFFDD
:102D600039E1DFF8F8040068C0F38050002812D081
:102D7000DFF808050078C0F3C000C0B200280AD010
:102D8000DFF8D804006830F48000DFF8D014086061
:102D900002F0DBFF1FE1DFF8C404D0F80100C0F34C
:102DA000C06000282CD0DFF8B404D0F8010030F067
:102DB0000060DFF8A814C1F80100DFF8BC04B0F827
:102DC0008E000090DFF8B004D0F8AC30DFF8F82BBC
:102DD000DFF8A4044078C0F3C200010049B25FF0FC
:102DE000FF3003F020FC4FF400760027DFF8D88B8B
:102DF0003A003100404601F04BF800F031FAEAE0C9
:102E0000DFF85804D0F80100C0F30070002831D07A
:102E1000DFF84804D0F8010030F08050DFF83C14AF
:102E2000C1F80100DFF85004B0F88E000090DFF820
:102E30004804D0F8AC30DFF8902BDFF83C04407841
:102E4000C0F3C200010049B2DFF82C0490F903007E
:102E500040F3020040B203F0E6FB4FF40076002797
:102E6000DFF8648B3A003100404601F011F800F0C1
:102E7000F7F9B0E0DFF8E403D0F80100C0F38070A8
:102E800000281CD0DFF8F803DFF8EC13897911F083
:102E90000701085C002807D00221DFF8DC038079F5
:102EA00010F0070000F0C2FDDFF8B003D0F8010019
:102EB00030F08040DFF8A413C1F801008BE0DFF8A8
:102EC0009C03D0F80100C0F34070002813D0022109
:102ED000DFF8F80A03F0D0FB0220DFF8A013087532
:102EE000DFF87803D0F8010030F00050DFF86C1301
:102EF000C1F801006FE0DFF86403D0F80200C0F30E
:102F0000006000282AD0DFF85403D0F8020030F027
:102F10008070DFF84813C1F80200DFF84003006852
:102F2000C0F34070002804D0DFF89C0A00F075FF61
:102F300007E0DFF84403B0F88A10DFF88C0A00F0ED
:102F40006BFF4FF400760027DFF87C8A3A003100EF
:102F5000404600F09DFF00F083F93CE0BF48D0F808
:102F60000200C0F34060002818D0DFF85C0A00F0CF
:102F700054FF4FF400760027DFF84C8A3A00310006
:102F8000404600F085FF00F06BF9B448D0F802002D
:102F900030F00070B149C1F802001CE0AF48006891
:102FA000C0F38030002808D000F034FFAB48006840
:102FB00030F48040A94908600DE0A8480068C0F3DB
:102FC000C030002807D000F026FFA448006830F485
:102FD0000040A2490860A948C07D002800F0938005
:102FE000012800F09780022800F09B80032800F061
:102FF0009F80042800F0A380052800F0A780062801
:1030000000F0B280072800F0B680082800F0BA80EF
:1030100009284AD00A2854D00B2858D00C285ED052
:103020000D2800F09A800E282BD00F2800F0F68093
:10303000102800F0AE80112800F0B980122800F0AE
:10304000BD80132800F0C180142800F0E780152807
:1030500000F0A680162800F0BF80172800F0C3807B
:10306000182800F0C780192800F0CB801A2800F03B
:10307000CF801B283BD01C283FD0FF2800F0CE80FB
:10308000CCE07E484078C0F34200C0B202280BD1A9
:103090007A48407810F0F101801C10F00E000843CF
:1030A0007649487003F0F8FAB8E0DFF8D8090078FC
:1030B000002805D10120DFF8CC19087003F0F4FADC
:1030C000ACE000F0A2FEFF206C49C875A6E0DFF876
:1030D000B80900F09BFEFF206849C8759EE0DFF844
:1030E000A80900F094FEFF206449C87596E003F03B
:1030F000E3FAFF206149C87590E003F0DDFAFF2094
:103100005E49C8758AE0FF205C49C875112000F04F
:103110007AFE83E0FF205949C875142000F073FE41
:103120007CE0FF205549C875132000F06CFE75E067
:10313000FF205249C875152000F065FE6EE0FF20A3
:103140004E49C875162000F05EFE67E0FF204B492F
:10315000C8751B2000F057FE60E0FF204749C87586
:103160001C2000F050FE59E0FF204449C87517208C
:1031700000F048FE52E0FF204049C875122000F0E0
:1031800041FE4BE0FF203D49C875182000F03AFE93
:1031900044E0FF203949C8751D2000F035FE3DE0B0
:1031A000FF203649C8751E2000F02EFE36E0FF20B5
:1031B0003249C875192000F027FE2FE0FF202F4963
:1031C000C8751A2000F020FE28E0FF202B49C875A2
:1031D000062000F019FE21E0FF202849C8751F20B5
:1031E00000F016FE1AE0FF202449C875202000F0E8
:1031F0000FFE13E0FF202149C875212000F008FED2
:103200000CE0FF201D49C875222000F001FE05E0FA
:10321000FF201A49C87500F0FCFDFFE7BDE8F38107
:103220000020164988601548007850F004001349C2
:10323000087070470020114988601048007810F02D
:10324000FB000E49087001200C49487470470B4878
:10325000007810F0F70009490870704740270020F7
:103260000648007850F008000449087070470000D4
:10327000B4250020A025002024220020EC260020D8
:103280005427002080B5DFF890090078C0F3800053
:10329000C0B2002809D0DFF880090078C0F3C00070
:1032A000C0B2002801D000F0E0F8DFF8D009D0F873
:1032B0000200C0F38060002811D0DFF8180800F089
:1032C0004DFF00280BD0DFF8B409D0F8020030F031
:1032D0008060DFF8A819C1F80200FFF78CF8DFF86A
:1032E0009C090068C0F34010002819D0DFF8AC0832
:1032F000D0F8C000411CDFF8A428C2F8C01040F28A
:103300006C7188420CD3DFF87409006830F020003B
:10331000DFF8681908600020DFF88018C1F8C000E5
:10332000DFF85809D0F80200C0F3C060002828D0A8
:10333000DFF86808D0F8BC00411CDFF86028C2F84C
:10334000BC10B0F5FA6F1CD3DFF830090068C0F389
:103350000020002808D0DFF82409006850F48070AD
:10336000DFF8181908600AE0DFF810090068C0F3F8
:103370000020002803D11B20DFF89C18C87500F03E
:103380000FFC01BD0121DFF89028D17470470000C7
:1033900084270020A0AD0008B8AD000810B50400D7
:1033A000DFF8D808006830F40050DFF8D018086063
:1033B000FFF740FF72B6DFF85018DFF8180700F08B
:1033C000E3FE62B6FFF72CFFDFF8080700F0BEFE51
:1033D000002811D0DFF8A408D0F8020050F0806077
:1033E000DFF89818C1F8020001224FF480515FF015
:1033F000904001F025FB17E0DFF880080068C0F37B
:103400000030002810D10122DFF8FC17DFF8000897
:1034100001F0CCFC002807D1DFF86008006850F408
:103420000050DFF85818086010BD000000040020AC
:10343000DFF8E007407810F00100002801D100BF5C
:10344000F6E7DFF8D007407810F0FE00DFF8C41789
:103450004870DFF8480790F8D80070474CAF000874
:1034600010B5040000F038FB10BD80B572B6DFF86F
:10347000640600F0A8FEDFF82417886762B6DFF85C
:103480001C07806F002804D0DFF81007806FFCF75E
:10349000B3FEDFF8E807D0F80100C0F300600028B1
:1034A00025D0DFF8F806D0F8A400401CDFF8EC16B1
:1034B000C1F8A400DFF8E406D0F8A400332816D33E
:1034C0000020DFF8D816C1F8A400DFF8B007D0F864
:1034D000010030F08070DFF8A417C1F80100DFF8B8
:1034E0009C07006830F01000DFF89017086001BDFD
:1034F000000000000CAC0008D0AD000834B100089A
:10350000E8AD000844B1000860AF000874AF0008DF
:1035100064B2000854B10008C8AA000864B10008E9
:1035200010B50400207804285BD005285ED0082858
:1035300061D0092864D00A2867D00B286AD00C28EB
:103540006DD00F2870D0142873D0162876D0172885
:1035500079D018287CD01A2800F07F801B2800F032
:1035600081801F2800F08380202800F08580232898
:1035700000F0BE80242800F0C480262800F0C68019
:10358000282800F0D080292800F0D2802A2800F0D6
:10359000D8802B2800F0DA802C2800F0DC80372837
:1035A00000F0DE803A2800F019813D2800F0868185
:1035B0003E2800F090813F2800F09E81402800F0D6
:1035C0002381422800F0C781432800F09A814428D3
:1035D00000F0A081452800F0AA81462800F0B081C3
:1035E000C2E10720DFF82C16C875BDE10020DFF826
:1035F0002416C875B8E10120DFF81816C875B3E1C4
:103600000220DFF81016C875AEE10320DFF80416BB
:10361000C875A9E10420DFF8FC15C875A4E10620EF
:10362000DFF8F015C8759FE10820DFF8E815C875C8
:103630009AE11120DFF8DC15C87595E11220DFF85A
:10364000D415C87590E11320DFF8C815C8758BE153
:103650000920DFF8C015C87586E10A20DFF8B41527
:10366000C87581E10520DFF8AC15C8757CE10D2037
:10367000DFF8A015C87577E1DFF898054078C0F34A
:103680004200C0B202280BDADFF88805407810F05B
:10369000F101801C10F00E000843DFF87815487027
:1036A000DFF87005007850F01000DFF8681508703A
:1036B0000E20DFF86015C875DFF8FC060068C0F35F
:1036C0008010002813D0DFF8F006006830F04000CA
:1036D000DFF8E4160860DFF8E006006830F40070F8
:1036E000DFF8D41608601C20DFF82815C8753BE108
:1036F000DFF8C406006830F48060DFF8BC160860AC
:1037000032E11620DFF80C15C8752DE1DFF804054D
:10371000007810F0EF00DFF8FC1408700F20DFF8DD
:10372000F414C87520E11020DFF8E814C8751BE117
:103730000020DFF8501308701520DFF8D814C87582
:1037400012E11720DFF8CC14C8750DE11820DFF85E
:10375000C414C87508E11920DFF8B814C87503E16E
:10376000DFF854060068C0F3405000280FD0DFF89F
:103770004806006830F40010DFF83C160860DFF8F7
:103780003806006830F48020DFF82C160860607876
:1037900010F00F00DFF80414097860F3C501DFF8BA
:1037A000FC030170DFF81406DFF8F0130978C1F3A9
:1037B000C201C9B2085C00280FD0DFF8FC05006820
:1037C00050F48000DFF8F0150860DFF8EC050068C1
:1037D00050F01000DFF8E0150860C5E0607810F0E8
:1037E0000F00DFF8B813897960F30201DFF8AC034A
:1037F0008171DFF8C405D0F8010050F08040DFF897
:10380000B815C1F80100AFE0A088DFF89013C1F847
:10381000A000DFF8A405006850F40020DFF8981538
:103820000860DFF89405006850F01000DFF8881594
:103830000860DFF8E0030078C0F34010C0B2002851
:103840001ED1A07801280AD1DFF86C050068400875
:103850004000DFF86415086000F0C3F92DE0DFF8E0
:103860005805006830F40020DFF84C150860DFF8D8
:103870004805006830F01000DFF83C1508601CE0D7
:10388000DFF83405006850F48020DFF82C1508605C
:103890000520DFF80813A1F89200DFF81C05006886
:1038A00050F40010DFF810150860DFF8F002D0F8CF
:1038B000A000DFF8E812C1F89C0055E0DFF8F8043A
:1038C000006850F48040DFF8F01408600120DFF851
:1038D000F014087048E0DFF8E004006850F400409D
:1038E000DFF8D41408600020DFF8D8140870002036
:1038F000DFF8CC14087037E01A20DFF81813C87509
:1039000032E0DFF8B404006850F40070DFF8A81467
:10391000086029E0DFF8A004006830F40070DFF8E8
:10392000981408601C20DFF8EC12C8751CE0DFF862
:103930008804006850F48070DFF87C14086013E09D
:10394000DFF87404006830F48070DFF86C140860ED
:1039500000F016F908E0DFF86004006850F080001D
:10396000DFF854140860FFE710BD000028AC000821
:1039700070B504000D00160000F088F8DFF81C0296
:10398000A0F88450DFF81402C0F88060DFF80C0261
:10399000807864F30200DFF8041288701420DFF8E6
:1039A0006C1281F8260072B6DFF86002D0E90823B5
:1039B00011001A00DFF8100400F0BCFA62B6DFF85C
:1039C0000C0400F053FB70BD941A00202822002044
:1039D000F8B504000D0016001F0000F057F86F48FE
:1039E00004666E48C0F8B8506C48C666FFB2022F35
:1039F00005D11020DFF8141281F8260006E0FFB28E
:103A0000012F03D11E20814981F8260072B67F481C
:103A1000D0E9082311001A00DFF8AC0300F08AFA9D
:103A200062B6DFF8A80300F021FBF1BD38B5040051
:103A30000D0000F02BF8EDB2022D04D115207349D2
:103A400081F8260006E0EDB2012D03D123206F4955
:103A500081F826006D4890F8210064F303006B495B
:103A600081F8210072B66948D0E9082311001A00D4
:103A7000DFF8540300F05EFA62B6DFF8500300F09E
:103A8000F5FA31BD882700207322002062480078B3
:103A900010F0010000280DD15F480078C0F340000D
:103AA000C0B2002808D05C484078C0F30010C0B213
:103AB000002801D100BFE9E7704770B54FF40064FA
:103AC0000025DFF80C632A002100300000F0E0F947
:103AD00070BD0000A025002080B5002002F07AFE15
:103AE000FEF789FC01BD10B504004A480078C0F318
:103AF0000010C0B2002808D146480078C0F38010FA
:103B0000C0B2002801D1052039E0DFF8AC0200681E
:103B100010F4407F01D0102031E0DFF89C020068F3
:103B200050F48050DFF890120860A4B2002C05D148
:103B3000DFF8B00200F0EEFA1F2020E04FF47A73B5
:103B4000220092B2DFF88812314801F03AF80028DA
:103B500003D0FFF7C1FF0F2011E0DFF85C0200681F
:103B600030F48050DFF850120860DFF84C02006833
:103B7000C0F34030002801D1FEF73DFC002010BD0D
:103B80003E48D0F8020050F000603C49C1F8020005
:103B900000200249C1F8BC00704700002422002028
:103BA0003648D0F8020030F000603449C1F8020015
:103BB0000020DFF83412C1F8BC00704710B50024B3
:103BC000FFF77BFFDFF82412DFF8040200F026F98C
:103BD000DFF8FC0100F03CF980B2FFF784FF04003D
:103BE00010BD10B50024FFF768FFDFF80412DFF8FE
:103BF000E00100F013F9DFF8D80100F029F980B2F4
:103C0000FFF771FF040010BD72220020A0250020E4
:103C100000240020EC260020EC2600202DE9F047AF
:103C2000040088460026FFF748FF220069496848DB
:103C300000F0F4F8664800F00BF980B2FFF753FF8C
:103C40000600F6B2002E15D1FFF7F2FB060062481F
:103C500000F0FEF80500604F2A003900404600F0F1
:103C60001DFA5FF00009DFF870A14A4629005046AE
:103C700000F00EF93000C0B2BDE8F0874027002008
:103C800070B504000D000026FFF717FF2B0022007F
:103C900058494F4800F0C2F84D4800F0D9F880B2BA
:103CA000FFF721FF0600F6B2002E02D1FFF7C0FB9E
:103CB00006003000C0B270BD70B504000D000026D3
:103CC000FFF7FBFE2B0022004B49414800F0A6F80D
:103CD0003F4800F0BDF880B2FFF705FF0600F6B2DE
:103CE000002E02D1FFF7A4FB06003000C0B270BD69
:103CF00038B504000025FFF7E0FE220037493448BC
:103D000000F08CF8324800F0A3F880B2FFF7EBFE29
:103D10000500EDB2002D02D1FFF78AFB0500280057
:103D2000C0B232BD38B504000025FFF7C6FE220040
:103D30002B49274800F072F8254800F089F880B236
:103D4000FFF7D1FE0500EDB2002D02D1FFF770FBA9
:103D500005002800C0B232BD10B50024FFF7ADFE4B
:103D600026491B4800F05AF8194800F071F880B253
:103D7000FFF7B9FE0400E4B2002C02D1FFF758FBB4
:103D800004002000C0B210BD10B50024FFF795FE5E
:103D90001B490F4800F042F80D4800F059F880B276
:103DA000FFF7A1FE0400E4B2002C02D1FFF740FBB4
:103DB00004002000C0B210BD40270020542700207E
:103DC000892700208A270020B4250020C025002054
:103DD0000004002074B100083222002088AF0008DF
:103DE000E8AA000808AB000824220020E4B200087A
:103DF000ECB200089CAF0008B0AF0008F4B20008B5
:103E0000FCB20008704770477047704770477047B2
:103E10007047704770477047704770470CB41CB5C7
:103E2000044604A801900A46009401AB694607487D
:103E30007844183002F0E2FC009A0021117000284A
:103E40005CBF0098001B16BC5DF80CFB3B0000003B
:103E500000F10103810704D010F8011B89B181072B
:103E6000FAD10268B2F10131914311F0803F04BFF1
:103E700050F8042FF6E710F8011B11B110F8011BE0
:103E8000FBE7C01A70470268531C0360117070474B
:103E900062F30F2262F31F42401810F0030308D0B0
:103EA000C91A1FD3DB0748BF00F8012D28BF20F82F
:103EB000022D130030B414461546103928BF20E9EE
:103EC0003C00FAD8490728BF20E90C0048BF40F859
:103ED000042D890028BF20F8022D48BF00F8012DCD
:103EE00030BC7047C91818BF00F8012DCB0728BF98
:103EF00000F8012D7047200008231A0012FB01F37F
:103F00008380002303800023C38000234380554B1C
:103F1000836070478188C088B0EBD10F01D1012048
:103F200000E000207047C088002801D1012000E097
:103F30000020704776B504002000FFF7EBFF002853
:103F400042D16088C0080600A06810EBC600BDF82A
:103F500004108180A06810EBC6009DF802108170EB
:103F6000A06810EBC6009DF80110A26812EBC60213
:103F7000527861F303024270A06810EBC600A1689A
:103F800011EBC601497811F00F019DF8012012F0E4
:103F9000F002114341709DF80000A16801F836005D
:103FA000A06810EBC6009DF806108171E088401CE7
:103FB000E080608808306080A0880500608890FB01
:103FC000F5F105FB1100608073BD70B504002000A1
:103FD000FFF7A9FF002801D0002042E02088C00898
:103FE0000600A06810EBC60080881F498880A06882
:103FF00010EBC600407810F00F001B49497860F3C1
:10400000030119484170A06810EBC6004078C0B2A7
:1040100000091549497811F00F0151EA00101249C1
:104020004870A06810EBC60080780F498870A068BF
:1040300010F836000C490870A06810EBC6008079B3
:1040400009498871208808302080E088401EE0807F
:10405000A0880500208890FBF5F105FB1100208069
:10406000014870BD942000204C2700200021818051
:1040700000218171417811F0F00151F00901417086
:104080000921817063210170704738B504000D006B
:104090002900200003F07DFA32BD000062B38B07D7
:1040A00008D0521E11F8013B00F8013B00F02480BB
:1040B0008B07F6D1830740F0208000BF103A07D36A
:1040C00030B4B1E83810103AA0E83810F9D230BC5A
:1040D000530724BFB1E80810A0E8081044BF51F806
:1040E000043B40F8043BD20724BF31F8022B20F8F0
:1040F000022B44BF0B7803707047083A07D3B1E82E
:104100000810083A40F8043B40F804CBF7D25307B4
:10411000E4E700000EB400B582B003A900910246A6
:104120006B460121034878440A3002F067FB06BC65
:104130005DF810FB2D6D00008160002202600022FE
:10414000C26000224260804A02617047C068B0F5D8
:104150004E7F01DB012000E000207047C068C928C5
:1041600001DA012000E000207047C068B0F5806FE0
:1041700001D1012000E000207047C068002801D173
:10418000012000E000207047F8B504000D00200079
:10419000FFF7EBFF002815D1E068401CE060606885
:1041A000411C61600126216947183200290038004E
:1041B000FFF774FF60684FF4806190FBF1F202FB3F
:1041C00011026260F1BD2DE9F84F04005F4805005F
:1041D0002000FFF7D2FF002801D00020B1E04FF40B
:1041E00000760027DFF864813A0031004046FFF78F
:1041F0004FFE57480068C0F38040002800F08580DB
:10420000D4F804B0E068C8282EDAE0685149A1F873
:104210009000206883450BDB20684E49B1F8906020
:1042200021694718320039002800FFF737FF16E0F0
:1042300026682068D6F58067216910EB01083A00EE
:1042400041462800FFF72AFF2068D4F81090281A6A
:1042500010F5806A5A4649465046FFF71FFF6068CE
:1042600020600020E0606BE02068834510DB206860
:10427000C82621694718320039002800FFF70EFFD1
:104280002068C83020602068BBEB0000E06037E0A9
:104290002068C830B0F5806F12DA2068C82621691E
:1042A0004718320039002800FFF7F8FE2068C830B0
:1042B00020602068D0F580601BEB0000E0601FE00C
:1042C00026682068D6F58061009121694718009A18
:1042D00039002800FFF7E2FE2068B6F54E78D4F8E2
:1042E0001090281A10F5806A424649465046FFF75A
:1042F000D5FEB6F54E7020602068BBEB0000E06094
:10430000C8201449A1F890001AE02068012621690C
:104310004718320039002800FFF7C0FE2068401C13
:104320002060E068401EE06001200A49A1F890008A
:1043300020684FF4806190FBF1F202FB11022260D1
:104340002800BDE8F28F000000140020941C00201B
:10435000402700202422002010B4426803685B1A22
:10436000002B0FD403685B1A03600368934203DADF
:104370000368D31AC3600FE00368D3F58063D318D2
:10438000C36009E00368D1F58064E3180360036843
:10439000D3F58063D318C36010BC704738B503F001
:1043A0000EF90446208880042ED5656809E04A1B72
:1043B000294603F04DF910F1010F18BF00280CD069
:1043C0004519E16894F903008D42F0D300220021E1
:1043D00003F03EF910F1010F0DD16068E0606061FB
:1043E000E062208840F400702080204603F0E8F866
:1043F0004FF0FF3032BD6568E5606561E5624DF6FE
:10440000FF71208808402080204603F0D9F8002062
:1044100032BDF8B5A0B9C046C04600240A4D0826F2
:104420004FF0FF37286820B1FFF7B8FF002848BFDA
:104430003C462D1D761EF5D1C046C0462046F2BD35
:10444000BDE8F240AAE70000BC03002010B504005C
:10445000002C01D1012014E094F83900002805D186
:10446000002084F83800200003F0D6F9022084F8F8
:104470003900211D206800F0D3F8012084F83900AC
:10448000002010BD01000868C06850F001000A68F3
:10449000D0600868006850F001000A6810600020D1
:1044A000704710B504002068006980071AD520689D
:1044B000C068800716D57FF00200216808610120DE
:1044C00020762068806910F0030F03D0200000F0F0
:1044D000A4F805E0200000F09FF8200000F09EF80E
:1044E000002020762068006940071AD52068C0683F
:1044F000400716D57FF0040021680861022020766D
:104500002068806910F4407F03D0200000F085F817
:1045100005E0200000F080F8200000F07FF8002087
:1045200020762068006900071AD52068C068000757
:1045300016D57FF0080021680861042020762068E5
:10454000C06910F0030F03D0200000F066F805E00A
:10455000200000F061F8200000F060F800202076D4
:1045600020680069C0061AD52068C068C00616D544
:104570007FF0100021680861082020762068C0695B
:1045800010F4407F03D0200000F047F805E0200041
:1045900000F042F8200000F041F80020207620686A
:1045A0000069C0070AD52068C068C00706D57FF03B
:1045B000010021680861200003F0AAF92068006961
:1045C00000060AD52068C068000606D57FF0800086
:1045D00021680861200003F0C2F9206800694006E4
:1045E0000AD52068C068400606D57FF040002168E3
:1045F0000861200000F013F82068006980060AD5E1
:104600002068C068800606D57FF020002168086118
:10461000200003F0A3F910BD704770477047704742
:10462000002203681A00DFF8C030984212D0B0F1BF
:10463000804F0FD0DFF8B43098420BD0DFF8B030A5
:10464000984207D0DFF8AC30984203D0DFF8A830AA
:10465000984203D132F070024B681A43DFF8883079
:1046600098421ED0B0F1804F1BD0DFF880309842C6
:1046700017D0DFF87C30984213D0DFF878309842BA
:104680000FD0DFF8743098420BD0DFF870309842CA
:1046900007D0DFF86C30984203D0DFF868309842DA
:1046A00003D132F44072CB681A4302608B68C36254
:1046B0000B688362DFF8303098420FD0DFF8383073
:1046C00098420BD0DFF83430984207D0DFF8303012
:1046D000984203D0DFF82C30984201D10B69036374
:1046E0000123436170470000002C0140000400409A
:1046F00000080040000C0040003401400040014030
:10470000004401400048014078B400220023002406
:104710000D68D540002D00F0EE800D680126964012
:1047200035402B00002B00F0E4804D68022D02D0B4
:104730004D68122D16D1D50810EB85052D6A2C0079
:104740000F2512F00706F6B2B600B540AC430D696E
:1047500012F00706F6B2B600B5402C43D50810EBB0
:1047600085052C6205682C0003251600F6B276003C
:10477000B540AC430D7915F003051600F6B276008E
:10478000B5402C4304604D68012D08D04D68022DC2
:1047900005D04D68112D02D04D68122D19D18568B4
:1047A0002C0003251600F6B27600B540AC43CD6868
:1047B0001600F6B27600B5402C43846045682C00A4
:1047C00001259540AC434D68C5F3001595402C4339
:1047D00044600D7915F00305032D0AD1C56A2C003C
:1047E00001259540AC434D68C5F3C00595402C4369
:1047F000C462C5682C0003251600F6B27600B540E9
:10480000AC438D681600F6B27600B5402C43C46008
:104810004D68ED006DD58F4D2D6855F001058D4E1D
:1048200035608C4D2D6815F001050095009D8A4D71
:10483000960855F826502C000F2512F00306F6B204
:10484000B600B540AC43B0F1904F01D100251EE059
:10485000824DA84201D1012519E0814DA84201D124
:10486000022514E07F4DA84201D103250FE07E4DC3
:10487000A84201D104250AE07C4DA84201D10525BA
:1048800005E07B4DA84201D1062500E0072512F086
:104890000306F6B2B600B5402C436F4D960845F8B6
:1048A0002640744D2D682C009C434D68ED0300D5C7
:1048B0001C43704D2C60704D2D682C009C434D683E
:1048C000AD0300D51C436C4D2C606C4D2D682C0045
:1048D0009C434D68ED0200D51C43684D2C60684D2B
:1048E0002D682C009C434D68AD0200D51C43644DDF
:1048F0002C60521C0CE771BC7047F0B400220023FE
:1049000000240D00D540002D00F098800125954031
:104910000D402B00002B00F08F8005680326170048
:10492000FFB27F00BE4035430560D50810EB85051A
:10493000D60810EB8606366A0F2712F0070C5FFACE
:104940008CFC5FEA8C0C17FA0CF7BE432E6285686C
:1049500003261700FFB27F00BE40B543856045685F
:1049600001269640B5434560C56803261700FFB28F
:104970007F00BE40B543C560C56A01269640B54379
:10498000C562354D960855F826502C000F2512F0BB
:104990000306F6B2B600B5402C40B0F1904F01D1FD
:1049A00000251EE02D4DA84201D1012519E02C4D16
:1049B000A84201D1022514E02A4DA84201D10325C5
:1049C0000FE0294DA84201D104250AE0274DA84255
:1049D00001D1052505E0264DA84201D1062500E0BC
:1049E000072512F00306F6B2B600B540AC4223D15B
:1049F0000F2512F00306F6B2B600B5402C00164D96
:104A0000960855F82650A543134E970846F82750A8
:104A1000184D2D689D43174E3560174D2D689D43E9
:104A2000154E3560154D2D689D43144E3560144D5F
:104A30002D689D43124E3560521C62E7F0BC7047F2
:104A4000D2B2002A02D089B2816101E089B28162CA
:104A50007047000060100240080001400004004858
:104A600000080048000C00480010004800140048EE
:104A700000180048000401400404014008040140FB
:104A80000C04014080B5032002F0DCFF0F2000F091
:104A900005F800F002F8002002BD704710B50400D0
:104AA000124800684FF47A71B0FBF1F002F0F1FFA8
:104AB000002221005FF0FF3002F0CAFF002010BD8D
:104AC0000B480068401C0A490860704708480068A5
:104AD000704738B504000025FFF7F8FF0500FFF721
:104AE000F5FF401BA042FAD331BD0000F4030020C3
:104AF0007027002010B50400002C01D1012037E000
:104B0000A0690028FFD194F86900002805D1002091
:104B100084F86800200002F0B1FD242084F86900C8
:104B2000206800684008400021680860200000F00C
:104B30006CFA012801D101201AE0606A002802D035
:104B4000200000F09DFC2068406830F4904021680F
:104B500048602068806830F02A00216888602068FA
:104B6000006850F0010021680860200000F0F5FCAA
:104B700010BD10B50400002C01D1012020E024203C
:104B800084F86900206800684008400021680860D7
:104B9000002021680860002021684860002021680A
:104BA0008860200002F017FE0020E066002084F8F4
:104BB0006900002084F86A00002084F86800002062
:104BC00010BD2DE9F84304000D0016001F005FF032
:104BD000000994F86900202857D1002D02D0B6B200
:104BE000002E01D1012051E094F86800012801D184
:104BF00002204BE0012084F868000020E0662120BC
:104C000084F86900FFF762FF8146A4F85060A4F8B9
:104C10005260B4F85200002824D0B4F85200401E6C
:104C2000A4F8520000974B4600228021200000F09B
:104C3000CBFC002801D0032028E0A068B0F5805FFD
:104C40000BD12069002808D1A846B8F80000C0059B
:104C5000C00D21680885AD1CDBE728782168088530
:104C60006D1CD6E700974B4600224021200000F043
:104C7000ABFC002801D0032008E0202084F8690064
:104C8000002084F86800002000E00220BDE8F283E4
:104C90002DE9F04782B004000D0016001F005FF000
:104CA000000A94F86A0020287DD1002D02D0B6B207
:104CB000002E01D1012077E094F86800012801D18D
:104CC000022071E0012084F868000020E0662220C4
:104CD00084F86A00FFF7FAFE8246A4F85860A4F848
:104CE0005A60A068B0F5805F0BD12069002804D11C
:104CF00040F2FF10A4F85C001FE0FF20A4F85C0065
:104D00001BE0A06800280AD12069002803D1FF20F9
:104D1000A4F85C0011E07F20A4F85C000DE0A0681E
:104D2000B0F1805F09D12069002803D17F20A4F869
:104D30005C0002E03F20A4F85C00B4F85C0081460F
:104D4000B4F85A00002826D0B4F85A00401EA4F83F
:104D50005A000097534600222021200000F034FC26
:104D6000002801D003201FE0A068B0F5805F0BD1C0
:104D70002069002808D1A8462068808C19EA000024
:104D8000A8F80000AD1CDBE72068808C19EA000061
:104D900028706D1CD4E7202084F86A00002084F875
:104DA0006800002000E00220BDE8F68710B4030090
:104DB00093F86A0020285CD1002902D092B2002A20
:104DC00001D1012056E093F86800012801D10220AA
:104DD00050E0012083F868005965A3F85820A3F833
:104DE0005A209868B0F5805F0BD11869002804D16B
:104DF00040F2FF10A3F85C001FE0FF20A3F85C0066
:104E00001BE0986800280AD11869002803D1FF2008
:104E1000A3F85C0011E07F20A3F85C000DE0986827
:104E2000B0F1805F09D11869002803D17F20A3F871
:104E30005C0002E03F20A3F85C000020D86622203E
:104E400083F86A00002083F868001868006850F44E
:104E500080701C6820601868806850F001001C6831
:104E6000A0601868006850F020001C6820600020D6
:104E700000E0022010BC70472DE9F04104002068DA
:104E8000C5692068066815F00F008046B8F1000F6C
:104E900012D1A80605D5B00603D5200000F031FCDC
:104EA000B0E0E80608D5F00606D5102021680862B3
:104EB000200000F0A9F8A5E0206880680700B8F19C
:104EC000000F7AD040F20110074276D015F00100B1
:104ED000C0B2002808D0F00506D50120216808627C
:104EE000E06E50F00100E066A8070BD517F0010056
:104EF000C0B2002806D0022021680862E06E50F09F
:104F00000400E06668070BD517F00100C0B2002866
:104F100006D0042021680862E06E50F00200E066CE
:104F200028070DD5B00604D417F00100C0B2002840
:104F300006D0082021680862E06E50F00800E066A4
:104F4000E06E002838D0A80604D5B00602D52000AF
:104F500000F0D7FBE06E000703D4206880684006AD
:104F600025D5200000F068FB2068806840061AD52F
:104F70002068806830F0400021688860606E0028FA
:104F80000DD00FF2D560616E8863606E02F020FE76
:104F9000002811D0606E616E896B88470CE020009C
:104FA00002F0C2FC08E0200002F0BEFC04E0200099
:104FB00002F0BAFC0020E06624E020688068070068
:104FC000E8020FD578020DD55FF4801021680862E1
:104FD000202084F86900202084F86A00200002F074
:104FE00026FE0FE0280605D5300603D5200000F088
:104FF00040FB07E0680605D5700603D5200000F0E9
:1050000070FBFFE7BDE8F08170472DE9F84304002D
:105010000027102500265FF000095FF000082068D7
:10502000DFF834148842FFD0A06821690843616921
:105030000843E1690843070020680068DFF81C1492
:1050400008403843216808602068406830F44050C8
:10505000E168084321684860A06907002068DFF81C
:10506000F813884201D0206A07432068806830F432
:1050700030603843216888602068DFF8E413884294
:105080001BD1DFF8E003006810F00300002805D012
:10509000022806D008D3032809D00BE00120050020
:1050A000B4E002200500B1E004200500AEE00820D5
:1050B0000500ABE010200500A8E02068DFF8A81389
:1050C00088421CD1DFF89C03006810F00C00002817
:1050D00006D004280AD0082805D00C2809D00BE0F7
:1050E0000020050092E0022005008FE0042005006A
:1050F0008CE00820050089E01020050086E020688B
:10510000DFF8681388421CD1DFF85803006810F0FC
:105110003000002806D010280AD0202805D03028DA
:1051200009D00BE00020050070E0022005006DE0D2
:10513000042005006AE00820050067E01020050053
:1051400064E02068CA4988421BD1C648006810F054
:10515000C000002806D040280AD0802805D0C028EA
:1051600009D00BE00020050050E0022005004DE0D2
:10517000042005004AE00820050047E01020050053
:1051800044E02068BB4988421ED1B648006810F44C
:105190004070002809D0B0F5807F0CD0B0F5007FBA
:1051A00006D0B0F5407F09D00BE0002005002DE0CF
:1051B000022005002AE00420050027E00820050061
:1051C00024E01020050021E02068A34988421DD179
:1051D000A448006810F44060002809D0B0F5806F42
:1051E0000CD0B0F5006F06D0B0F5406F09D00BE0E1
:1051F000002005000AE00220050007E00420050069
:1052000004E00820050001E0102005002068924914
:1052100088427DD100200700EDB22800002806D08A
:10522000022808D0042809D008280BD00EE003F08B
:10523000C7F907000CE09048070009E003F00FF9F8
:10524000070005E04FF40040070001E00120804620
:10525000002F00F0FC80606803214843874205D39B
:1052600060684FF480514843B84202D20120804622
:10527000EDE0EDB22800002806D0022814D0042862
:105280001FD008282DD035E003F09AF902004FF422
:105290008073606840080021E3FB0201626800231C
:1052A00003F01EFA070027E06068420800237348F5
:1052B0000021101859416268002303F011FA070019
:1052C0001AE003F0CCF802004FF4807360684008E5
:1052D0000021E3FB02016268002303F001FA0700EA
:1052E0000AE06068400810F500006168B0FBF1F06A
:1052F000070001E001208046B7F5407F05D3B7F5F0
:10530000801F02D22068C760A1E0012080469EE095
:10531000E069B0F5004F4FD1EDB22800002808D069
:10532000012811D002281AD0042823D008282CD014
:1053300034E003F045F96168490811EB4000616809
:10534000B0FBF1F081462BE003F04AF961684908AF
:1053500011EB40006168B0FBF1F0814620E060682D
:10536000400800F1F47010F590406168B0FBF1F076
:10537000814615E003F073F86168490811EB4000BD
:105380006168B0FBF1F081460AE06068400810F502
:1053900080306168B0FBF1F0814601E00120804679
:1053A0004FF6F07010EA09000600C9F34200064308
:1053B000B6B22068C6604AE0EDB22800002808D0E6
:1053C000012812D002281CD0042827D0082831D068
:1053D0003BE003F0F5F8616810EB51006168B0FB49
:1053E000F1F080B22168C86031E003F0F9F861683B
:1053F00010EB51006168B0FBF1F080B22168C86029
:1054000025E06068400800F5740010F510506168F0
:10541000B0FBF1F080B22168C86018E003F01FF81B
:10542000616810EB51006168B0FBF1F080B2216857
:10543000C8600CE06068400810F500406168B0FB8F
:10544000F1F080B22168C86001E00120804640464A
:10545000C0B2BDE8F283000000800040F369FFEFB6
:1054600000380140881002400044004000480040DD
:10547000004C0040005000400024F400000024F4E0
:1054800090F82410C90707D50168496831F4003144
:10549000826A11430268516090F82410890707D589
:1054A0000168496831F48031C26A11430268516071
:1054B00090F82410490707D50168496831F4802124
:1054C000026B11430268516090F82410090707D558
:1054D0000168496831F40041426B11430268516030
:1054E00090F82410C90607D50168896831F4805105
:1054F000826B11430268916090F82410890607D5E9
:105500000168896831F40051C26B114302689160EF
:1055100090F82410490613D50168496831F48011C8
:10552000026C114302685160016CB1F5801F07D114
:105530000168496831F4C001426C1143026851604E
:1055400090F82410090607D50168496831F4002154
:10555000826C114302685160704738B50400002521
:105560000020E066FFF7B2FA050020680068000737
:105570000DD57FF07E4000902B0000225FF40011DB
:10558000200000F021F8002801D003201BE0206853
:10559000006840070DD57FF07E4000902B00002270
:1055A0005FF48001200000F00FF8002801D00320F4
:1055B00009E0202084F86900202084F86A00002097
:1055C00084F86800002032BD2DE9F04104000D0090
:1055D00016001F00DDF818802068C0692840A84226
:1055E00001D1012000E00020F6B2B04221D118F133
:1055F000010FF1D0B8F1000F04D0FFF767FAC01B1C
:105600008045E9D22068006830F4D07021680860D5
:10561000206880684008400021688860202084F865
:105620006900202084F86A00002084F868000320C4
:1056300000E00020BDE8F081202180F86A100168B8
:10564000096831F49071026811600168896849083D
:10565000490002689160704738B50400A56A0020CF
:10566000A5F85A000020A5F85200280002F05CF9C5
:1056700031BD010091F86900212830D1B1F8520004
:1056800000280DD10868006830F080000B681860B1
:105690000868006850F040000B68186000201FE0A8
:1056A0008868B0F5805F0DD1086900280AD1C86C00
:1056B00002001088C005C00D0B681885C86C801CDE
:1056C000C86405E0C86C431CCB6400780B6818857F
:1056D000B1F85200401EA1F85200002000E0022064
:1056E000704710B504002068006830F04000216861
:1056F0000860202084F86900200002F00FF90020E3
:1057000010BDF8B50400B4F85C6094F86A00222873
:1057100037D12068808C0700A068B0F5805F0BD17E
:105720002069002808D1606D050016EA070028806E
:10573000606D801C606505E0606D411C616516EA66
:1057400007010170B4F85A00401EA4F85A00B4F8DA
:105750005A00002813D12068006830F49070216846
:105760000860206880684008400021688860202028
:1057700084F86A00200002F0C5F8002008E000204C
:1057800006E02068008B50F00800216808830220A2
:10579000F2BD000038B504000025DFF82C06FEF746
:1057A000B9FCDFF82806FEF7B5FCDFF82406FEF7A3
:1057B000B1FCDFF82006FEF7ADFCFCF7EBFC0120A6
:1057C00000F0E6FBFCF7C9FDFEF7C6FA0500EDB2F6
:1057D000002D02D02800C0B22EE20121DFF8F8052A
:1057E000FEF76AFA0500EDB2002D02D02800C0B223
:1057F00022E2206B00280BD0216BDFF8E005FEF7DA
:105800005BFA0500EDB2002D02D02800C0B213E211
:105810000021DFF8CC05FEF74FFA0500EDB2002DB0
:1058200002D02800C0B207E22078002802D0012868
:105830001AD033E00021DFF8AC05FEF73DFA050091
:10584000EDB2002D02D02800C0B2F5E1DFF89815C6
:10585000DFF89805FEF714FA0500EDB2002D02D02E
:105860002800C0B2E8E119E00121DFF87805FEF771
:1058700023FA0500EDB2002D02D02800C0B2DBE112
:10588000DFF86C15DFF86405FEF7FAF90500EDB2F4
:10589000002D02D02800C0B2CEE1FFE760780028DA
:1058A00003D002286FD025D3B6E00021DFF84405ED
:1058B000FEF702FA0500EDB2002D02D02800C0B2BA
:1058C000BAE10021DFF83005FEF7F6F90500EDB288
:1058D000002D02D02800C0B2AEE10021DFF81C0587
:1058E000FEF7EAF90500EDB2002D02D02800C0B2A3
:1058F000A2E191E00121DFF8FC04FEF7DDF90500EB
:10590000EDB2002D02D02800C0B295E10B21DFF8E6
:10591000F004FEF7D1F90500EDB2002D02D0280009
:10592000C0B289E10021DFF8DC04FEF7C5F905000B
:10593000EDB2002D02D02800C0B27DE10021DFF8D9
:10594000C804FEF7B9F90500EDB2002D02D0280019
:10595000C0B271E10021DFF8A004FEF7ADF9050047
:10596000EDB2002D02D02800C0B265E10021DFF8C1
:105970008C04FEF7A1F90500EDB2002D02D028003D
:10598000C0B259E148E00121DFF86804FEF794F95C
:105990000500EDB2002D02D02800C0B24CE10C2170
:1059A000DFF85C04FEF788F90500EDB2002D02D0A7
:1059B0002800C0B240E10A21DFF84804FEF77CF974
:1059C0000500EDB2002D02D02800C0B234E1012163
:1059D000DFF83404FEF770F90500EDB2002D02D0B7
:1059E0002800C0B228E10121DFF80C04FEF764F9B9
:1059F0000500EDB2002D02D02800C0B21CE100214C
:105A0000DFF8F803FEF758F90500EDB2002D02D0DB
:105A10002800C0B210E1FFE7A078002803280FD8C3
:105A2000A078062101FB00F1DFF85404FEF744F9E9
:105A30000500EDB2002D02D02800C0B2FCE0FFE767
:105A4000E078002802280CD8E178DFF83804FEF767
:105A500033F90500EDB2002D02D02800C0B2EBE012
:105A6000FFE7606800280BD06168DFF81C04FEF7D0
:105A700007F90500EDB2002D02D02800C0B2DBE02E
:105A8000A06800280BD0A168DFF80004FEF7F8F842
:105A90000500EDB2002D02D02800C0B2CCE0E068D5
:105AA00000280BD0E168DFF8E803FEF7E9F805000D
:105AB000EDB2002D02D02800C0B2BDE02069002860
:105AC0000BD02169DFF8CC03FEF7DAF80500EDB260
:105AD000002D02D02800C0B2AEE0606900280BD0D3
