:020000040800F2
:1000000008270020B9AD00083177000833770008D1
:100010003D7700084777000851770008000000008E
:100020000000000000000000000000005B770008F6
:1000300065770008000000006F77000885770008EA
:1000400095AF000899AF00089DAF0008A1AF000868
:10005000A5AF0008A9AF0008ADAF0008B1AF000818
:10006000B5AF0008B9AF0008BDAF0008C1AF0008C8
:10007000C5AF0008C9AF0008CDAF0008D1AF000878
:10008000D5AF0008D9AF0008DDAF0008E1AF000828
:10009000E5AF0008E9AF0008EDAF0008F1AF0008D8
:1000A000F5AF0008F9AF0008FDAF000801B0000887
:1000B0007B7700087177000805B0000809B00008D8
:1000C0000DB0000811B0000815B0000819B0000804
:1000D0001DB00008C1770008CB77000821B00008E8
:1000E00025B0000829B000082DB0000831B0000884
:1000F00035B0000839B000083DB0000841B0000834
:1001000045B0000849B000084DB0000851B00008E3
:1001100055B0000859B000085DB0000861B0000893
:1001200065B0000869B000086DB0000871B0000843
:1001300075B0000879B000087DB0000881B00008F3
:1001400085B0000889B000088DB0000891B00008A3
:1001500095B0000899B000089DB00008A1B0000853
:10016000A5B00008A9B00008ADB00008B1B0000803
:10017000B5B00008B9B00008BDB00008000000002C
:10018000C1B00008C5B000082DE9F0410400002509
:1001900003F057FCE4B222001349144803F0CCFDED
:1001A000FF201349C875114803F0E0FD80B203F049
:1001B0005EFC0500EDB2002D02D02800C0B210E0B8
:1001C00001260027DFF82C803A003100404603F07A
:1001D000EDFD0748C07D0E2801D000BFF9E72800DB
:1001E000C0B2BDE8F081000060AE0008F001002060
:1001F000882200209F2200202DE9F04F8BB00400C0
:1002000000250020029020780500DFF8500D0068DE
:10021000C0F3804000280FD1EDB2002D0CD0DFF8E4
:10022000400DDFF8401D09680D54DFF8380D0068F7
:10023000401CDFF8301D0860DFF82C0D03F0A4FE31
:10024000DFF81C0DDFF81C1D0968081810F8020CF7
:100250000D2840F00E84DFF8080DDFF8081D09684E
:10026000081810F8010C0A2840F00384DFF8EC0CA1
:100270000068C0F30070002840F0FB83DFF8E40D55
:10028000007810F00100002840F0F383DFF8D81D5B
:10029000DFF8CC0C03F087FE002863D002F0CAFF21
:1002A00072B6DFF8BC0C01F0B3FC62B602F0B8FF26
:1002B000DFF8A80C0068C00F002810D172B6DFF874
:1002C000B00DD0E9082311001A00DFF8A80D03F0E3
:1002D000BFFD62B6DFF8900C03F056FE1AE0DFF8BF
:1002E0007C0C0068C0F34000002813D1DFF8780CC4
:1002F00003F04AFEDFF8640C006840004008DFF8B5
:100300005C1C0860DFF8540C006850F00200DFF855
:100310004C1C0860DFF8440CD0F80100C0F34060CA
:10032000002807D1DFF8340C006840004008DFF8EF
:100330002C1C08600020DFF82C1C0860DFF81C0C67
:10034000006810F00260B0F1026F09D1DFF80C0C08
:10035000006830F00060DFF8041C086000F06CBC3E
:1003600001F03FBCDFF8101DDFF8F40B03F01BFEBB
:10037000002800F0C481DFF8041DDFF8E40B03F06F
:1003800012FE060000282CD030798DF80400707918
:100390008DF805009DF804000A219DF8052001FB59
:1003A0000020DFF8CC1C91F8211060F30301DFF886
:1003B000C00C80F821100F20DFF8B41C81F8260053
:1003C00072B6DFF8AC0CD0E9082311001A00DFF890
:1003D000A40C03F03DFD62B6DFF88C0B03F0D4FDF6
:1003E0006BE1DFF89C1CDFF8780B03F0DCFD060006
:1003F000002800F0A980707A8DF80000B07A8DF89E
:100400000100F07A8DF80200307B8DF803009DF832
:1004100001000D2807D19DF800003038DFF8641C7A
:10042000C1F8980044E09DF802000D280DD19DF818
:1004300000000A219DF8012001FB0020B0F50470A6
:10044000DFF8401CC1F8980032E09DF803000D2849
:1004500014D19DF8000064219DF801200A235A431D
:1004600001FB00209DF8021050FA81F0DFF8181C03
:100470000818DFF8101CC1F8980019E09DF800007A
:100480004FF47A719DF8012064235A4301FB002048
:100490009DF802100A2202FB01009DF8031050FA99
:1004A00081F0DFF8E81B0818DFF8D81BC1F89800C6
:1004B000DFF8D00BD0F89800002808D0DFF89C0AAD
:1004C000006850F48030DFF8941A0860F5E0DFF837
:1004D000B40BD0F89800002840F0EF80DFF8A40BB0
:1004E000DFF8A01B0978C1F3C201C9B2081890F85F
:1004F000D90000281FD0DFF8980BDFF8881B097897
:10050000C1F3C201C9B2085C002808D00221DFF89B
:10051000740B0078C0F3C200C0B203F04BFADFF8EE
:10052000640BDFF8601B0978C1F3C201C9B2081877
:10053000002180F8D910DFF8240A006830F010009C
:10054000DFF8181A0860B8E015A1DFF8140A03F004
:100550002AFD0600002825D00320DFF8141B81F8AF
:100560002600300003F002FCB0F10B0716F103087F
:10057000DFF8209B3A004146484603F01DFD72B665
:10058000DFF8EC2AD2E908010A000100DFF8E40AEA
:1005900003F05EFC62B6DFF8D00903F0F5FC8CE0F6
:1005A000203D2000DFF8BC0A0078C0F34000C0B254
:1005B000002865D0DFF8AC0A4078C0F30010C0B264
:1005C000002872D0DFF8BC0AC079C0F3C200C0B204
:1005D00000280DD0DFF8AC0AC07910F0C70110F088
:1005E0003800083810F038000843DFF8981AC8714E
:1005F000DFF8700A007810F0FD00DFF8681A087064
:100600000020DFF88C1ADFF87C2A527912F00F02F2
:100610005054DFF8700A407910F00F00DFF8641AC8
:100620000871DFF8400A407810F0EF00DFF8341A64
:1006300048700220DFF82C1A0875DFF8200980794D
:1006400010F0010000280AD0DFF81009D0F80100EE
:1006500050F00050DFF80419C1F8010007E0DFF89E
:10066000FC08807950F00100DFF8F0188871DFF89D
:10067000EC08006830F01000DFF8E018086014E0C3
:100680000220DFF8EC1981F8260072B6DFF8E009E5
:10069000D0E9082311001A00DFF8D80903F0D8FBCD
:1006A00062B6DFF8C40803F06FFCDFF8B809007821
:1006B00010F0FD00DFF8AC1908700020DFF8A41876
:1006C00008604FF400775FF00008DFF89498424626
:1006D0003900484603F06AFBDFF88008006810F034
:1006E0000260B0F1026F08D1DFF87008006830F0E6
:1006F0000060DFF8681808609EE201F072BADFF867
:10070000F41CDFF85C0803F04EFC002800F0EA80DF
:10071000DFF8E41CDFF8480803F045FC002836D079
:10072000DFF8D80C03F084FCDFF83809007810F00B
:10073000FD00DFF830190870DFF82809407810F064
:10074000EF00DFF820194870DFF81008807910F00A
:100750000100002807D1DFF80408807950F001007B
:10076000DFF8F81788710120DFF81819DFF814296D
:10077000527912F00F02511881F8D900DFF8DC0726
:10078000006830F01000DFF8D417086088E0DFF868
:10079000701CDFF8CC0703F006FC002807D1DFF857
:1007A000641CDFF8BC0703F0FEFB002831D0DFF843
:1007B000AC070068C0F3C040002871D0DFF89C0788
:1007C000006830F40020DFF894170860DFF88C0729
:1007D000006830F01000DFF884170860DFF87C074D
:1007E000006830F40010DFF874170860DFF86C0759
:1007F000006830F48020DFF8641708600020DFF81C
:100800008418A1F88E000020DFF87818C1F8AC0039
:1008100046E0DFF8F41BDFF8480703F0C4FB0028CC
:1008200003D0DFF8E80B03F003FC0820DFF84018E2
:1008300081F8260072B6DFF83808D0E908231100E5
:100840001A00DFF8300803F003FB62B6DFF8180780
:1008500003F09AFBDFF804070068C0F300100028DB
:1008600007D0DFF8F806006830F01000DFF8EC166B
:100870000860DFF8E806D0F80200C0F30070002836
:100880000ED0DFF8D806D0F8020030F08050DFF844
:10089000CC16C1F802000020DFF8E817C1F8C40048
:1008A0000020DFF8C01608604FF400775FF0000802
:1008B000DFF8AC9642463900484603F077FADFF895
:1008C0009C06006810F00260B0F1026F08D1DFF8FA
:1008D0008C06006830F00060DFF880160860ABE13D
:1008E00001F07FB9DFF8F01DDFF8740603F05BFB61
:1008F000002859D0DFF8E41DDFF8640603F053FB4D
:100900000600002E04D00020DFF87817487203E0BC
:100910000120DFF8701748729DA1DFF8440603F04C
:1009200042FB0600002E04D00020DFF85817887222
:1009300003E00120DFF84C1788720420DFF830173D
:1009400081F8260072B6DFF82807D0E908231100E5
:100950001A00DFF8200703F07BFA62B6DFF808061A
:1009600003F012FB0020DFF8FC1508604FF400775D
:100970005FF00008DFF8E89542463900484603F08A
:1009800015FADFF8D805006810F00260B0F1026FC8
:1009900008D1DFF8C805006830F00060DFF8BC154A
:1009A000086049E101F01DB9DFF8B005006810F0FA
:1009B0000260B0F1026F3BD1DFF8A005D0F8010072
:1009C000C0F38060002833D1DFF8B806B0F890009B
:1009D000002814D072B6DFF8AC06B0F89010DFF83B
:1009E000900603F047FC62B6DFF89806B0F8907006
:1009F0005FF0000842463900200003F0D7F9DFF825
:100A00005C05D0F8020050F00050DFF85015C1F836
:100A10000200DFF84805006830F00060DFF83C15A0
:100A20000860DFF840050068DFF85816A1F8940068
:100A3000DFF83006007810F00100002840F0FC805C
:100A4000DFF820060078C0F34010C0B2002800F0A4
:100A5000F3800020DFF80C1508604FF400775FF09A
:100A60000008DFF8FC9442463900484603F09EF93E
:100A7000E2E0DFF8E8040068C0F38000002800F03E
:100A80008980DFF8741DDFF8D80403F08CFA0028A1
:100A900050D1DFF8681DDFF8C80403F084FA00289D
:100AA00048D1DFF85C1DDFF8B80403F07CFA0028B9
:100AB00040D1DFF8501DDFF8A80403F074FA0028D5
:100AC00038D1DFF8441DDFF8980403F06CFA0028F1
:100AD00030D1DFF8381DDFF8880403F064FA00280D
:100AE00028D1DFF82C1DDFF8780403F05CFA002829
:100AF00020D1DFF8201DDFF8680403F054FA002845
:100B000018D1DFF8141DDFF8580403F04CFA002860
:100B100010D1DFF8081DDFF8480403F044FA00287C
:100B200008D1DFF8FC1CDFF8380403F03CFA002899
:100B300000F08280DFF82404006850F08050DFF875
:100B40001C140860DFF81404006850F48020DFF8FB
:100B50000C140860DFF80404006830F00400DFF8CB
:100B6000FC1308600520DFF81C15A1F89200DFF8DF
:100B7000EC03D0F8020030F08050DFF8E013C1F849
:100B800002000020DFF8FC14C1F8C40001F029B80D
:100B90006F757400DFF8C803DFF8C8130968081818
:100BA00010F8010C09281CD1DFF8B403DFF8B413E6
:100BB0000968081810F8020C3A2812D1DFF8A003CF
:100BC000DFF8A0130968081810F8030C312808D1C1
:100BD000DFF88803006850F08040DFF88013086079
:100BE0002AE0DFF87803C07910F0010000280ED069
:100BF000DFF86C03DFF86C130968081810F8010CB3
:100C0000002819D10020DFF85C13086014E0DFF839
:100C100054030068B0F5FF7F0ED90020DFF84413BD
:100C200008604FF400775FF00008DFF83493424625
:100C30003900484603F0BAF8C8480068C0F380405D
:100C4000C00740F10A81C548D0F80200C0F34070E7
:100C5000C00700F10281DFF82C04B0F89000DFF843
:100C60002414A1F89400BF480068DFF81814B1F804
:100C7000941010FA81F0B0F5007F25D3B9480068D0
:100C8000DFF80014B1F8941010FA81F0A0F2FF1709
:100C900072B63900DFF8D80303F0ECFA62B65FF001
:100CA0000008B0480068201A00F2FF1942463900D7
:100CB000484603F07BF840F2FF10AA490968401A41
:100CC000DFF8C013A1F89400DFF8B803B0F894700F
:100CD000DFF8148EA248A349096811EB00093A0015
:100CE0004146484603F068F99E480068DFF89413CF
:100CF000B1F8941010FA81F09A4908609948006898
:100D0000012804D1964800780D2800F06A87DFF8A2
:100D1000DC1D934803F047F900280ED08F48006887
:100D200030F000608D4908608C48D0F8010030F048
:100D300080608A49C1F801008FE0CA480078C00786
:100D400000F18B8085480068C0F30070C00700F197
:100D5000848083480078002800F07F8080480078F5
:100D60000D287AD17E4840780A2876D1C548D0F837
:100D70009C00022871D07948D0F8010050F08060C2
:100D80007649C1F80100B9A1DFF8640D03F00BF951
:100D9000060000283BD07248301A871CDFF8541D2B
:100DA000DFF84C0D03F0FFF800280BD0B2496C4877
:100DB000381803F0F8F80600002E03D06848301AFF
:100DC000801D070067480068C01B002817D072B656
:100DD00064480068C11BA64803F04CFA62B661483B
:100DE0000068B0EB07085FF000095D4817EB000AE8
:100DF0004A464146504602F0D9FF5A4807605748D4
:100E0000D0F8010030F080605449C1F80100534827
:100E1000006850F00060514908605248006840F294
:100E2000FF11884219D14D48D0F80100C0F380600D
:100E3000002812D04948D0F8010030F080604749BE
:100E4000C1F801004548006830F00060434908607F
:100E500040F2FF108B49A1F894004048006810F060
:100E60000260B0F5001F40F0D3827E48007850F059
:100E700001007C4908708348D0F8A8008149B1F886
:100E8000941010FA81F07F49C1F8A800DFF85C1CCB
:100E900033487C4AB2F892201018401F03F083F8C0
:100EA0000600002E00F0F8802D482E490968081829
:100EB00010F8020C0D2840F0EF80294829490968F4
:100EC000081810F8010C0A2840F0E680DFF8181D19
:100ED000234803F068F8060000281BD0F07E0028A5
:100EE0000DD01F48371A1F48006817F11B01B0EBDF
:100EF000010872B641465E4803F0BCF962B6594833
:100F0000407850F00100574948700D205D4981F844
:100F1000D80047E0DFF8E014114803F044F8060079
:100F2000002823D0F07D00280DD00D48371A0D4839
:100F3000006817F11701B0EB010872B641464C4842
:100F400003F098F962B601204E494E4A527912F0E8
:100F50000F02511881F8D90024E000BFB42200200C
:100F6000F0190020F02200201C210020DFF87C1C5A
:100F7000DFF87C0C03F017F80600002812D0F07D93
:100F800000280FD0DFF8680C371ADFF8680C00680B
:100F900017F11701B0EB010872B64146344803F06F
:100FA00069F962B600203749C1F8A8000020354928
:100FB000C1F8980000203349C1F89C000520314950
:100FC000A1F89200DFF8300C006830F40010DFF870
:100FD000281C0860DFF8200C006830F01000DFF8F3
:100FE000181C0860DFF8100C006830F48020DFF86F
:100FF000081C086000201B4948601A48007810F05F
:10100000FE0018490870DFF8F00B0068C0F3C0401C
:10101000002815D0DFF8E00B006830F40020DFF87E
:10102000D81B086000201749C1F8A000DFF8C80BE2
:10103000006850F00100DFF8C01B086002F082FD7C
:10104000DFF8B00B07685FF00008DFF8A49B4246AA
:101050003900484602F0AAFE0020DFF8981B08601D
:1010600000F0BFBD88220020F4AE00080D0A000089
:10107000FC20002010210020FCAE000804AF000876
:101080006CAE0008801D002030EBFFFFB02FFFFF8B
:10109000C82200208E1D0020DFF8580B00680628AB
:1010A00008D3002E06D1DFF84C0B0068DFF8501B88
:1010B000A1F89200DFF8480BD0F8A800DFF8401B39
:1010C000D1F89C108842C0F02081DFF8340BD0F8B2
:1010D0009C00DFF82C1BD1F8A810884225D2DFF83D
:1010E000200BD0F8A800DFF8181BD1F89C10471A85
:1010F00072B63900DFF8340E03F0BCF862B65FF068
:101100000008DFF8EC0ADFF8EC1A0968C91B11EBDC
:10111000000942463900484602F048FEDFF8D40A8A
:101120000068C01BDFF8CC1A0860DFF8C80A006846
:10113000DFF8CC1AA1F88E00DFF8C40AD0F89C00C2
:10114000DFF8BC1AC1F8AC00DFF8A80A0768DFF8BE
:10115000A08ADFF8B09A3A004146484602F02CFFD8
:101160000020DFF8901A08600020DFF8941AC1F818
:10117000A8000020DFF8881AC1F898000020DFF8E6
:10118000801AC1F89C000020DFF8741AA1F89400BE
:101190000520DFF86C1AA1F89200DFF85C0A0068FD
:1011A00030F00060DFF8501A0860DFF84C0A006881
:1011B00030F48020DFF8401A0860DFF8440AC07875
:1011C00050F00700DFF8381AC870DFF82C0A006802
:1011D000C0F3C040002830D00020DFF8241AC1F846
:1011E000A000DFF81C0A407810F0C700DFF8101AE2
:1011F0004870DFF8140A4068002806D0DFF8080AB3
:101200004068401EDFF8001A4860DFF8FC094068BB
:10121000002809D1DFF8E009006850F00100DFF88C
:10122000D819086002F08EFCDFF8CC09006830F4B1
:101230008000DFF8C41908601CE0DFF8BC09006812
:1012400050F48000DFF8B0190860DFF8B4090078C6
:10125000C0B2C008DFF8A819497860F3C501DFF80B
:10126000A0094170DFF8A009007850F00200DFF813
:1012700098190870DFF88009006830F40010DFF872
:1012800078190860DFF88009007810F0FE00DFF8B8
:101290007819087001F0DBFFDFF85C090068C0F323
:1012A000C04000281AD0DFF85009D0F8010050F0F3
:1012B0008050DFF84419C1F80100DFF83C090068EC
:1012C00030F01000DFF830190860DFF82C090068F2
:1012D00030F40020DFF82019086009E0DFF8180971
:1012E000D0F8010050F00060DFF80C19C1F80100DF
:1012F0004FF400775FF00008DFF8F49842463900B9
:10130000484602F053FD00F06CBCDFF8E8080068C6
:10131000B0F5FF7F6DD90520DFF8E418A1F8920041
:10132000DFF8DC08D0F89C00DFF8D418C1F8AC0076
:1013300040F2FF10DFF8C818A1F88E00DFF8B408FB
:101340000768DFF8AC88DFF8BC983A0041464846A9
:1013500002F032FE0020DFF89C1808600520DFF85C
:10136000A018A1F89200DFF89808C07850F00700A4
:10137000DFF88C18C87001F06AFF4FF400795FF055
:10138000000ADFF86CB852464946584602F00EFD96
:10139000DFF864080068C0F3C040002812D0DFF80E
:1013A0006008407810F0C700DFF854184870DFF884
:1013B0004808D0F8010050F08050DFF83C18C1F820
:1013C000010016E0DFF838080078C0B2C008DFF886
:1013D0003018497860F3C501DFF824084170DFF860
:1013E0001808D0F8010050F00060DFF80C18C1F8C0
:1013F0000100F6E30CAF00083CAA000824A4000892
:1014000010A60008E8A4000814AF0008E4A700082C
:10141000DFF8E4070068C0F30070002800F00282E3
:10142000DFF8E407007850F00100DFF8DC170870FF
:10143000DFF8D817DFF8B807DFF8C427B2F8922032
:101440001018401F02F0AFFD0600002800F0AB802E
:10145000F079002823D0DFF89807371ADFF89407CF
:101460000068B91DB0EB010872B64146DFF8BC0A4E
:1014700002F000FF62B65FF00009DFF87407381869
:1014800010F1070A4A464146504602F08FFCDFF849
:1014900064070068B0EB0800DFF858170860DFF851
:1014A00054070068DFF85817A1F88E00DFF84407EA
:1014B0000768DFF83C87DFF84C973A00414648461A
:1014C00002F07AFDDFF82C070068DFF83417A1F886
:1014D0008A00DFF83407407850F00100DFF8281761
:1014E0004870DFF81407006830F48020DFF8081730
:1014F0000860DFF80407006830F08050DFF8F81665
:10150000086001F0A4FE0020DFF8F41681F8D8008E
:10151000DFF8F406007810F0FE00DFF8EC16087033
:10152000DFF8D406006830F00060DFF8CC16086001
:10153000DFF8C406006830F01000DFF8BC16086061
:101540000520DFF8BC16A1F89200DFF8A806D0F855
:1015500000905FF0000ADFF898B6524649465846B8
:1015600002F024FC0020DFF88C160860DFF8880603
:101570000068C0F3407000280AD0DFF87C06D0F87D
:10158000020050F00070DFF87016C1F802009BE016
:10159000DFF86406D0F8020050F08070DFF85816CB
:1015A000C1F8020090E0DFF8841BDFF84406DFF8A2
:1015B0005026B2F892201018401F02F0F4FC0600EA
:1015C000002800F08180DFF83006006830F48020C9
:1015D000DFF824160860DFF81806DFF81816096827
:1015E000081810F8020C0D286ED1DFF80406DFF899
:1015F00004160968081810F8010C0A2864D1DFF8ED
:101600000806407850F00100DFF8FC1548700D2006
:10161000DFF8EC1581F8D800DFF8EC05007810F061
:10162000FE00DFF8E4150870DFF8CC05006830F440
:101630008020DFF8C4150860DFF8BC05006830F0D2
:101640000060DFF8B41508600020DFF8A815086016
:101650000520DFF8AC15A1F89200DFF89C050068C2
:1016600030F08050DFF890150860DFF88C050068D6
:1016700030F01000DFF8801508604FF400775FF05D
:101680000008DFF86C9542463900484602F08EFBB0
:10169000DFF864050068C0F3407000280AD0DFF866
:1016A0005805D0F8020030F00070DFF84C15C1F892
:1016B000020009E0DFF84005D0F8020030F0807049
:1016C000DFF83415C1F80200DFF8280500680628A5
:1016D00006D3012005E000BF1CAF000824AF0008BE
:1016E0000020002E01D1012100E00021C0B20842FB
:1016F00006D0DFF800050068DFF80415A1F89200B5
:10170000DFF8F004006840F2FF11884272D1DFF880
:10171000E40400680A90DFF8D8040990DFF8E47464
:101720000A9A0999380002F047FC06200890DFF871
:10173000000A0790DFF8FC79089A0799380002F050
:101740003BFC0620069000200590DFF8E479059A1E
:101750000699380002F02AFB4FF400700490002034
:101760000390DFF88C74039A0499380002F01EFB92
:101770000627DFF8C089DFF878943A0041464846EA
:1017800002F01AFC5FF006095FF0000ADFF8A4B966
:1017900052464946584602F009FB0620DFF8541429
:1017A00008600520DFF85814A1F8920040F2F91003
:1017B000DFF84C14A1F88A0001F049FDDFF8380485
:1017C0000068C0F3407000280AD0DFF82C04D0F87D
:1017D000020050F00070DFF82014C1F8020009E0A8
:1017E000DFF81404D0F8020050F08070DFF808141D
:1017F000C1F80200F5E100BF2CAF000834AF0008CB
:10180000D8AB00083CAF0008ECAB000898AD00086E
:10181000A8AD000854AA0008C8A8000800AC000839
:101820006CAA0008DFF8D003006810F09040B0F117
:10183000804F40F08281DFF8B803DFF8B813096801
:10184000081810F8020C0D2840F06481DFF8A0039E
:10185000DFF8A0130968081810F8010C0A2840F0F6
:101860005981DFF8D40802F062FDDFF89403407B71
:10187000DFF88C13097B884280F0DA80DFF8BC182F
:10188000DFF86C0302F08FFB0600002E10D0B07959
:101890008DF80000F0798DF801009DF800000A2114
:1018A0009DF8012001FB00201038DFF89418087023
:1018B000DFF88C080078DFF88C180968D04A527B72
:1018C0002C2303FB02110870DFF87C18C84802F0D3
:1018D0006AFB0600002E0FD0F0798DF80000307AF8
:1018E0008DF801009DF800000A219DF8012001FB00
:1018F0000020B0F504700290DFF848080068C04985
:10190000497B2C2202FB0100029949424160DFF829
:101910003C18B74802F047FB0600002E26D00720EF
:10192000DFF82C180870DFF828080078805D272879
:101930001CD0DFF810080068B149497B2C2202FB5B
:101940000100DFF80C1809780818DFF80418097886
:10195000895D4170DFF8F8070078401CDFF8F01768
:101960000870DFF8EC0700782328DCD1DFF8E417F3
:101970009F4802F018FB0600002E0BD0DFF8C407CA
:1019800000689F49497B2C2202FB0100012180F85D
:1019900026100AE0DFF8AC0700689949497B2C2241
:1019A00002FB0100002180F82610DFF8AC179048F8
:1019B00002F0F9FA0600002E0BD0DFF88807006865
:1019C0008F49497B2C2202FB0100012180F827105E
:1019D0000AE0DFF8700700688949497B2C2202FB86
:1019E0000100002180F82710DFF87017804802F00E
:1019F000DAFA0600002E0BD0DFF8480700688049AD
:101A0000497B2C2202FB0100012180F828100AE00A
:101A1000DFF8300700687A49497B2C2202FB01007D
:101A2000002180F828107648407B401C7449487398
:101A3000DFF8F8166E4802F0B6FA0600002E24D041
:101A40004FF400775FF00008DFF8A49142463900B8
:101A5000484602F0ABF90020664908606A484078C1
:101A600050F00100684948706348006830F08040D9
:101A7000614908606048006830F480605E49086031
:101A80000D205F4981F8D800ABE0DFF8D416584844
:101A900002F089FA00282FD05748006830F480609F
:101AA0005549086000205649487300205149086094
:101AB0005548407850F00100534948704E4800683E
:101AC00030F080404C49086000204D4981F8D80032
:101AD0004FF400775FF00008DFF8149142463900B8
:101AE000484602F063F97CE0F017002044AF00089C
:101AF000F219002078AE000800203E4908604FF43B
:101B000000775FF00008DFF8E89042463900484669
:101B100002F04CF937480068B0F5FF7F0DD900207E
:101B2000344908604FF400775FF00008DFF8C09098
:101B300042463900484602F039F92F48006810F053
:101B40004060B0F1806F4CD12CA002F071FADFF848
:101B50001416274802F027FA060000282DD0264840
:101B6000006830F480202449086021482149096830
:101B7000081810F8020C0D281FD11D481D490968CE
:101B8000081810F8010C0A2817D1DFF8DC0502F05C
:101B90004FFA1948006830F080601749086000204B
:101BA000144908604FF400775FF00008DFF84090B8
:101BB00042463900484602F0F9F80E48006840F203
:101BC000FF1188420DD100200A4908604FF40077C8
:101BD0005FF00008DFF8189042463900484602F0EE
:101BE000E5F80BB0BDE8F08FE4A8000884AA00086F
:101BF000F0190020F0220020B42200202A0000006A
:101C0000801D0020F015002088220020FCAE000876
:101C10002DE9FC470400250026004FF0FF08002EA8
:101C200000F08182DFF84415280002F0BCF90600BC
:101C3000002E00F0788270798DF80400B0798DF86C
:101C400005009DF805003A2804D19DF804003038BD
:101C500080460BE09DF804000A2110FB01F09DF87E
:101C6000051050FA81F0B0F504708046AF4880F856
:101C700020800120AD4981F826000FFA88F84046FF
:101C80000028032840F22B82001F012840F24182E5
:101C9000801E012840F22382801E012840F23982F2
:101CA000801E00F02982401E012840F23282801EF0
:101CB000012840F21482801E00F02B82401E03286F
:101CC00040F20D82001F00F02482401E00F00782C7
:101CD000401E012840F21D82C01E00F00082401EFE
:101CE000012840F21682801E00F09F81801E00F0C5
:101CF000F681401E012840F20C82801E012840F22D
:101D0000EE81801E012840F20482801E00F0E781EF
:101D1000401E00F0FE81401E00F0E181401E0428BC
:101D200040F2F781401F012840F2D981001F0528A9
:101D300040F2D581801F20D0801E00F0AA81401E75
:101D40002FD0401E00F01381401E00F02C81401E59
:101D5000012840F29281C01E31D0801E00F0BF8168
:101D6000401E00F0A681401E00F0AE81001F00F072
:101D70007081801E00F0B381CCE1DFF8F4132800FD
:101D800002F011F9060070798DF800009DF800004E
:101D9000664991F8211060F30301644880F821102E
:101DA000B8E1B07D8DF800009DF800005F4991F822
:101DB000211060F303015D4880F82110AAE1DFF8EB
:101DC000B4030068C00F002804D0DFF8AC0302F0B1
:101DD0002FF9A8E1DFF89C03D0F80100C0F3006000
:101DE000002805D00020DFF89413C1F8A40011E00A
:101DF000DFF88003006850F01000DFF87813086007
:101E0000DFF87003D0F8010050F08070DFF8641341
:101E1000C1F80100DFF85813280002F0C4F80600EA
:101E2000002E00F0A38070798DF800009DF800006E
:101E300030383E4981F82200307A8DF80000707AFF
:101E40008DF80100B07A8DF80200F07A8DF8030069
:101E50009DF800003A2806D1F0798DF80000307A1C
:101E60008DF801002EE09DF801003A2809D1F079A3
:101E70008DF80000307A8DF80100707A8DF802003C
:101E800020E09DF802003A280CD1F0798DF800008E
:101E9000307A8DF80100707A8DF80200B07A8DF8F2
:101EA00003000FE09DF803003A280BD1F0798DF87C
:101EB0000000307A8DF80100707A8DF80200B07A57
:101EC0008DF803009DF801003A2805D19DF8000027
:101ED00030381649888444E09DF802003A280DD134
:101EE0009DF800000A2110FB01F09DF8011050FA46
:101EF00081F0B0F504700D49888432E09DF803004C
:101F00003A2815D19DF80000642110FB01F09DF8DE
:101F100001100A2211FB02009DF8021050FA81F014
:101F200041F2D041401A014988841AE0FC20002087
:101F30009DF800004FF47A7110FB01F09DF801103C
:101F4000642211FB02009DF802100A2211FB02001C
:101F50009DF8031050FA81F000F53C50B0308849EC
:101F6000888488484068401C86494860D2E085489B
:101F7000007850F08000834908708248007810F0A3
:101F8000DF008049087000207E4948607948006879
:101F900030F00200774908607648006850F0004051
:101FA00074490860B6E07748007810F07F00754902
:101FB00008707448007850F02000724908706D482D
:101FC000006830F002006B4908606A48006850F011
:101FD00000406849086067480078C00708D569482C
:101FE0000078C0B2C009C0B2002801D101F0AAFD3A
:101FF00060480068C0F3C040002815D005205F4944
:10200000A1F892005B48006850F4802059490860AC
:102010005848006850F40010564908605748D0F8F6
:10202000A0005649C1F89C0074E05749280001F00F
:10203000BAFF060011200700222F06DAB85D4F49CB
:10204000791881F83E007F1CF6E70B204D49C875D2
:1020500060E04E49280001F0A6FF060011200700AD
:10206000222F06DAB85D4549791881F83E007F1CB9
:10207000F6E70C204349C8754CE03E480068C00FA5
:10208000002805D03B4800684000400839490860F6
:1020900040E000203E4908703648006830F00200F9
:1020A000344908603348006850F000403149086006
:1020B00030E00A20324981F826002E48C07950F0DD
:1020C00001002C49C87125E009202D4981F826001E
:1020D0002848C07910F0FE002649C8711AE025484A
:1020E000006830F00200234908602248006850F080
:1020F0000040204908600DE01E480068C0F3001051
:10210000002805D01B48006830F01000194908600D
:1021100000E0FFE74FF400795FF0000A52464946BD
:10212000280001F043FEBDE8F38700000CAF000873
:10213000E9170020D02200203C0100204CAF00080D
:1021400006230020EC22002054AF00085CAF0008FA
:102150000523002064AF00086CAF000874AF0008CE
:102160007CAF000884AE000814AC0008F4AE000890
:1021700084AF0008B42200208CAF0008801D00202E
:10218000FC2000208822002090AE00089CAE0008B1
:102190000223002070B54FF48061DFF8880201F05F
:1021A00059FFDFF88402407810F0F1009E49487032
:1021B00000209E49087000F01EF900F08AF800F037
:1021C00016F832219A4801F025FE01F029F808247A
:1021D0000025984E2A002100300001F0E7FD9648C6
:1021E00002F0DEF8002801D001F03AFC70BD8E4804
:1021F000007850F008008C4908708B48007850F047
:102200008000894908708848007810F0BF0086492E
:1022100008708548407810F0F1008349487000202C
:102220008149487400208049C87400207E49887420
:1022300000207D4948607C48407810F0FE007A49D3
:102240004870FF207849C875022077490875022038
:102250007549487500207449887500207249C86026
:102260007648006850F001007449086073480068BF
:1022700050F00200714908607048D0F8020030F058
:1022800080506E49C1F802006C48C07910F0DF0040
:102290006A49C8716948807950F0010067498871BE
:1022A0006648C07910F0EF006449C8716348C0798E
:1022B00010F0BF006149C8716048C07910F07F001C
:1022C0005E49C8715D48007A10F0FE005B490872F3
:1022D000704770B55A48C07910F0C7005849C871A6
:1022E00000205749C1F8A40000205549C1F89800C2
:1022F00000205349C1F8A00000205149C1F8B000A6
:1023000000204F49C1F8A80000204D49A1F89000D5
:1023100000204B49C1F8B40000204949C1F8BC0075
:1023200000204749C1F8C0000020454948730020FB
:102330004349C1F8C40000204149A1F88C000520A0
:102340003F49A1F892004FF4006400253D4E2A0059
:102350002100300001F02AFD70BD80B53A480068C8
:1023600050F00400384908603748006810F0040055
:10237000009000983448006850F00100324908602D
:102380003148006810F00100009000984FF4805030
:1023900024490863012023494863012021498863B7
:1023A00003202049C8632949294802F03BF900204D
:1023B0001E490870FF201C49C87500224FF4805147
:1023C000234802F0CBFAC82002F011FB01224FF49F
:1023D00080511F4802F0C2FA322002F008FB4FF48D
:1023E00080511B4802F017FA0F48C07D0E2801D01B
:1023F00000BFF9E701BD80B500224FF480515FF0C6
:10240000904002F0ABFA01221249134802F05CFC42
:10241000002805D10948006850F4005007490860B9
:1024200001BD0000FC2000208822002002230020A3
:1024300010210020C822002080210020B42200208A
:10244000801D0020F00900204C1002402C210020AB
:1024500000080048CE1D00205C1F00202DE9F0413F
:1024600082B004000025DFF8F40D0068C0F300100E
:10247000002840F05F8472B6DFF8F40D01F033FD00
:10248000DFF8F01D886262B6DFF8E80D806A002888
:1024900000F05084DFF8DC0D806A807901283BD0A1
:1024A000022800F02B84032800F02884042800F080
:1024B0002584062800F0FD80082800F00D840928F6
:1024C00000F02F840A2800F02B840C2800F02183D0
:1024D0000D2800F07E830E2800F091820F2842D054
:1024E000102800F09A81142800F04F81152800F080
:1024F0001082162800F08380172800F0CE811B2858
:1025000000F08A811C2800F059821D280BD0242855
:1025100000F0A58300F00EBCDFF8580D806A00F0D3
:10252000FFFF00F007BCDFF84C0D806A407810F028
:102530000F00DFF8441D097860F30201DFF8380D61
:1025400001700020DFF8341D8875DFF8300D407809
:1025500050F00100DFF8241D48700020DFF8181D3E
:1025600081F8D800E6E3DFF8100DC07910F0C7015C
:10257000083010F038000843DFF8FC1CC871DFF8A1
:10258000F80CC079C0F3C200C0B209280DDBDFF837
:10259000EC0C407850F00100DFF8E01C487004209B
:1025A000DFF8D41C81F8D800C4E30120DFF8D01C88
:1025B000DFF8C02C926A527812F00F025054DFF804
:1025C000B40C806A407810F00F00DFF8AC1C09787A
:1025D00060F30201DFF8A00C01700020DFF89C1C02
:1025E0008875DFF8980C407850F00100DFF88C1CFB
:1025F00048700020DFF8801C81F8D8009AE3DFF8EB
:10260000780C007A10F0F801401C10F00700084325
:10261000DFF8641C0872DFF8440CD0F8020030F0D8
:102620008050DFF8381CC1F802000020DFF8481C99
:10263000C1F8C400DFF8400C007A10F0070005284C
:102640000DDBDFF8380C407850F00100DFF82C1C6F
:1026500048700420DFF8201C81F8D8006AE30120CC
:10266000DFF82C1DDFF80C2C926A527812F00F0262
:102670005054DFF8000C806A407810F00F00DFF84B
:10268000F81BC97960F30201DFF8EC0BC17100207F
:10269000DFF8E81B8875DFF8E40B407850F00100A4
:1026A000DFF8D81B48700020DFF8CC1B81F8D80079
:1026B00040E301F0C6F9DFF8C00BC07A012811D160
:1026C000DFF8B40BD0F8B8000090DFF8AC0B436E25
:1026D000DFF8A40B026EDFF8BC1CDFF8500D01F030
:1026E0002BFB15E0DFF8900BC07A002810D1DFF843
:1026F000880BD0F8B8000090DFF87C0B436EDFF851
:10270000780B026EDFF8901CDFF8200D01F014FB4F
:10271000DFF8180D01F02AFB80B201F0A8F90500DE
:10272000EDB2002D23D10020DFF84C1BC1F8C4000E
:10273000DFF8280BD0F8020050F08050DFF81C1BA7
:10274000C1F80200DFF8140B006850F01000DFF849
:102750000C1B0860DFF8040B006850F00400DFF881
:10276000FC1A08600620DFF8141B88750CE00D20A9
:10277000DFF8041B81F8D800DFF8000B407850F038
:102780000100DFF8F81A4870D4E201F05AF9DFF8D6
:10279000E80AB0F88430DFF8E00A807810F0070229
:1027A000DFF8B81CDFF8840C01F0C6FADFF87C0C07
:1027B00001F0DCFA80B201F05AF90500EDB2002D0B
:1027C00019D101F03EF9DFF8B00AB0F88460DFF803
:1027D000A80AD0F88070DFF8548C320039004046E7
:1027E00001F0EAFB72B6DFF8900AB0F8840001F05D
:1027F0003EF9050062B6EDB2002D0CD0DFF87C0A80
:10280000407850F00100DFF8741A48700D20DFF8AE
:10281000681A81F8D8008DE28CE201F012F9DFF835
:10282000580AC06E0090DFF8500AD0F8B830DFF8D0
:10283000480A026EDFF8BC1CDFF8F00B01F07CFAEE
:10284000DFF8E80B01F092FA80B201F010F9050010
:10285000EDB2002D0DD0DFF8240A407850F00100D1
:10286000DFF8181A48700D20DFF80C1A81F8D8002C
:1028700012E01020DFF8041A88750020DFF8F8193C
:10288000C1F8C400DFF8D409D0F8020050F080503D
:10289000DFF8C819C1F802004CE201F0D2F8DFF805
:1028A000D809C36EDFF8D009D0F8B820DFF8481C8B
:1028B000DFF8780B01F040FADFF8700B01F056FA00
:1028C00080B201F0D4F80500EDB2002D0DD0DFF894
:1028D000AC09407850F00100DFF8A01948700D20D5
:1028E000DFF8941981F8D80012E01720DFF88C196E
:1028F00088750020DFF88019C1F8C400DFF85C0992
:10290000D0F8020050F08050DFF85019C1F80200F2
:1029100010E2DFF86C09DFF85C19896A497811F078
:102920000F01085C002844D001F08BF8DFF844095F
:10293000806A407810F00F02DFF8C01BDFF8EC0A65
:1029400001F0FAF9DFF8E40A01F010FA80B201F0C0
:102950008EF80500EDB2002D2FD10020DFF81819F8
:1029600081F8D800DFF8F408006850F01000DFF8B4
:10297000EC180860DFF8FC08806A407810F00F005F
:10298000DFF8F418497960F30301DFF8EC084171CE
:10299000DFF8E808407850F01000DFF8E0184870E1
:1029A000DFF8D808007850F00200DFF8D01808707F
:1029B00003E0DFF84C0B01F03BFBBBE101F041F819
:1029C000DFF8401BDFF8640A01F0B6F9DFF85C0AB3
:1029D00001F0CCF980B201F04AF80500EDB2002D0B
:1029E0000CD10020DFF8901881F8D800DFF86C08CF
:1029F000006850F01000DFF8641808609AE101F0F8
:102A000020F8DFF87408B0F88430DFF86C08026F43
:102A1000DFF8F41ADFF8140A01F08EF9DFF80C0A77
:102A200001F0A4F980B201F022F80500EDB2002D0A
:102A30000DD0DFF84808407850F00100DFF83C186E
:102A400048700D20DFF8301881F8D80060E000F001
:102A5000EFFC0500EDB2002D0CD0DFF82008407827
:102A600050F00100DFF8141848700D20DFF8081846
:102A700081F8D800DFF80008B0F88430DFF8F807F4
:102A8000026FDFF8881ADFF8A40901F055F9DFF8C2
:102A90009C0901F06BF980B200F0E9FF0500EDB28E
:102AA000002D0CD0DFF8D407407850F00100DFF89B
:102AB000CC1748700D20DFF8C01781F8D80000F05F
:102AC000C0FFDFF8B407B0F88460DFF8AC07D0F8D7
:102AD0008070DFF8588932003900404601F06CFA06
:102AE000DFF8480901F042F980B200F0C0FF0500AC
:102AF000EDB2002D0CD0DFF88407407850F00100D3
:102B0000DFF8781748700D20DFF86C1781F8D800CF
:102B100010E100F096FFDFF86007006F002806D193
:102B2000DFF8EC19DFF8040901F006F91FE0DFF81F
:102B30004807006E002809D1DFF83C07026FDFF874
:102B4000D419DFF8E80801F0F7F810E0DFF82807FB
:102B5000D0F8B8000090DFF82007036FDFF81807FF
:102B6000026EDFF8B419DFF8C40801F0E5F8DFF809
:102B7000BC0801F0FBF880B200F079FF0500EDB26F
:102B8000002D18D1DFF8D406006850F00050DFF8AF
:102B9000CC160860DFF8C406006850F48020DFF827
:102BA000BC160860DFF8B406006850F08050DFF80B
:102BB000AC1608600CE0DFF8C406407850F0010065
:102BC000DFF8B81648700D20DFF8AC1681F8D80091
:102BD000B0E000F036FFDFF8A00690F97C0010F1BD
:102BE000010F23D1DFF8900690F97D0010F1010F5D
:102BF0001CD1DFF88406006F002804D0DFF87806C7
:102C0000406F002812D1DFF87006006F00280DD049
:102C1000DFF86406406F002808D1DFF85C06026F19
:102C2000DFF8F818DFF8040801F086F8DFF8FC0791
:102C300001F09CF880B200F01AFF0500EDB2002D03
:102C40000CD0DFF83806407850F00100DFF82C1681
:102C500048700D20DFF8201681F8D8006AE000F0F7
:102C6000F0FEDFF81406D0F8B8000090DFF8080690
:102C7000036FDFF80406026EDFF8F01CDFF8AC0724
:102C800001F05AF8DFF8A40701F070F880B200F004
:102C9000EEFE0500EDB2002D10D1DFF8C005006892
:102CA00050F08060DFF8B4150860DFF8B005006808
:102CB00050F48020DFF8A41508600CE0DFF8BC05B4
:102CC000407850F00100DFF8B41548700D20DFF8AF
:102CD000A81581F8D8002DE0DFF8A005407850F065
:102CE0000100DFF8981548700D20DFF88C1581F889
:102CF000D8000020DFF8841588751BE0DFF87C051C
:102D0000407850F00100DFF8741548700020DFF8BB
:102D1000681581F8D8000020DFF86015887509E093
:102D200008E0DFF83805006850F04000DFF82C15A7
:102D30000860FFE7DFF824050068C0F300400028C2
:102D40000FD0DFF81805006830F48030DFF80C157C
:102D50000860DFF82405D0F8980080B202F0FBFE8E
:102D600039E1DFF8F8040068C0F38050002812D081
:102D7000DFF808050078C0F3C000C0B200280AD010
:102D8000DFF8D804006830F48000DFF8D014086061
:102D900002F02BFF1FE1DFF8C404D0F80100C0F3FC
:102DA000C06000282CD0DFF8B404D0F8010030F067
:102DB0000060DFF8A814C1F80100DFF8BC04B0F827
:102DC0008E000090DFF8B004D0F8AC30DFF8A02B14
:102DD000DFF8A4044078C0F3C200010049B25FF0FC
:102DE000FF3003F06BFB4FF400760027DFF8808B99
:102DF0003A003100404600F0D9FF00F031FAEAE035
:102E0000DFF85804D0F80100C0F30070002831D07A
:102E1000DFF84804D0F8010030F08050DFF83C14AF
:102E2000C1F80100DFF85004B0F88E000090DFF820
:102E30004804D0F8AC30DFF8382BDFF83C04407899
:102E4000C0F3C200010049B2DFF82C0490F903007E
:102E500040F3020040B203F031FB4FF4007600274C
:102E6000DFF80C8B3A003100404600F09FFF00F085
:102E7000F7F9B0E0DFF8E403D0F80100C0F38070A8
:102E800000281CD0DFF8F803DFF8EC13897911F083
:102E90000701085C002807D00221DFF8DC038079F5
:102EA00010F0070000F086FDDFF8B003D0F8010055
:102EB00030F08040DFF8A413C1F801008BE0DFF8A8
:102EC0009C03D0F80100C0F34070002813D0022109
:102ED000DFF8A00A00F02BFF0220DFF8A01308752E
:102EE000DFF87803D0F8010030F00050DFF86C1301
:102EF000C1F801006FE0DFF86403D0F80200C0F30E
:102F0000006000282AD0DFF85403D0F8020030F027
:102F10008070DFF84813C1F80200DFF84003006852
:102F2000C0F34070002804D0DFF8440A00F002FF2C
:102F300007E0DFF84403B0F88A10DFF8340A00F045
:102F4000F8FE4FF400760027DFF8248A3A003100BB
:102F5000404600F02BFF00F083F93CE0BF48D0F87A
:102F60000200C0F34060002818D0DFF8040A00F027
:102F7000E1FE4FF400760027DFF8F4893A003100D3
:102F8000404600F013FF00F06BF9B448D0F802009F
:102F900030F00070B149C1F802001CE0AF48006891
:102FA000C0F38030002808D003F0BDFAAB480068B9
:102FB00030F48040A94908600DE0A8480068C0F3DB
:102FC000C030002807D003F0B6FAA448006830F4F7
:102FD0000040A2490860A948C07D002800F0938005
:102FE000012800F09780022800F09B80032800F061
:102FF0009F80042800F0A380052800F0A780062801
:1030000000F0B280072800F0B680082800F0BA80EF
:1030100009284AD00A2854D00B2858D00C285ED052
:103020000D2800F09A800E282BD00F2800F0F68093
:10303000102800F0AE80112800F0B980122800F0AE
:10304000BD80132800F0C180142800F0E780152807
:1030500000F0A680162800F0BF80172800F0C3807B
:10306000182800F0C780192800F0CB801A2800F03B
:10307000CF801B283BD01C283FD0FF2800F0CE80FB
:10308000CCE07E484078C0F34200C0B202280BD1A9
:103090007A48407810F0F101801C10F00E000843CF
:1030A0007649487003F037FAB8E0DFF86009007835
:1030B000002805D10120DFF85419087003F02FFA19
:1030C000ACE000F032FEFF206C49C875A6E0DFF8E6
:1030D000400903F038FAFF206849C8759EE0DFF820
:1030E000300903F03CFAFF206449C87596E000F00F
:1030F00022FEFF206149C87590E000F01CFEFF2011
:103100005E49C8758AE0FF205C49C875112000F04F
:103110000AFE83E0FF205949C875142000F003FE21
:103120007CE0FF205549C875132000F0FCFD75E0D8
:10313000FF205249C875152000F0F5FD6EE0FF2014
:103140004E49C875162000F0EEFD67E0FF204B49A0
:10315000C8751B2000F0E7FD60E0FF204749C875F7
:103160001C2000F0E0FD59E0FF204449C8751720FD
:1031700000F0D8FD52E0FF204049C875122000F051
:10318000D1FD4BE0FF203D49C875182000F0CAFD75
:1031900044E0FF203949C8751D2000F0C5FD3DE021
:1031A000FF203649C8751E2000F0BEFD36E0FF2026
:1031B0003249C875192000F0B7FD2FE0FF202F49D4
:1031C000C8751A2000F0B0FD28E0FF202B49C87513
:1031D000062000F0A9FD21E0FF202849C8751F2026
:1031E00000F0A4FD1AE0FF202449C875202000F05B
:1031F0009DFD13E0FF202149C875212000F096FDB8
:103200000CE0FF201D49C875222000F08FFD05E06D
:10321000FF201A49C87500F08BFDFFE7BDE8F38178
:103220000020164988601548007850F004001349C2
:10323000087070470020114988601048007810F02D
:10324000FB000E49087001200C49487470470B4878
:10325000007810F0F700094908707047B422002088
:103260000648007850F008000449087070470000D4
:1032700010210020FC200020801D0020882200203A
:10328000C822002080B5DFF818090078C0F380005C
:10329000C0B2002809D0DFF808090078C0F3C000E8
:1032A000C0B2002801D000F0E0F8DFF8F808D0F84C
:1032B0000200C0F38060002811D0DFF8A00700F002
:1032C000DBFE00280BD0DFF8DC08D0F8020030F07D
:1032D0008060DFF8D018C1F80200FFF78CF8DFF843
:1032E000C4080068C0F34010002819D0DFF8340883
:1032F000D0F8C000411CDFF82C28C2F8C01040F202
:103300006C7188420CD3DFF89C08006830F0200014
:10331000DFF8901808600020DFF80818C1F8C00036
:10332000DFF88008D0F80200C0F3C060002828D081
:10333000DFF8F007D0F8BC00411CDFF8E827C2F83E
:10334000BC10B0F5FA6F1CD3DFF858080068C0F362
:103350000020002808D0DFF84C08006850F4807086
:10336000DFF8401808600AE0DFF838080068C0F3AA
:103370000020002803D11B20DFF82418C87500F0B6
:10338000D3FB01BD0121DFF81828D174704700007C
:10339000FA220020DCA90008F4A9000810B50400F6
:1033A000DFF80008006830F40050DFF8F817086014
:1033B000FFF740FF72B6DFF8D817DFF8A00600F07D
:1033C00071FE62B6FFF72CFFDFF8900600F04CFEAE
:1033D000002811D0DFF8CC07D0F8020050F0806050
:1033E000DFF8C017C1F8020001224FF480515FF0EE
:1033F000904001F0B3FA17E0DFF8A8070068C0F3C7
:103400000030002810D10122DFF88417DFF8880788
:1034100001F05AFC002807D1DFF88807006850F453
:103420000050DFF88017086010BD0000F001002098
:10343000DFF86807407810F00100002801D100BFD4
:10344000F6E7DFF85807407810F0FE00DFF84C1779
:103450004870DFF8D00690F8D800704760AB0008DD
:1034600010B5040000F0FCFA10BD80B572B6DFF8AC
:10347000EC0500F036FEDFF8AC16886762B6DFF8C0
:10348000A406806F002804D0DFF89806806FFCF750
:10349000B3FEDFF81007D0F80100C0F30060002889
:1034A00025D0DFF88006D0F8A400401CDFF87416A1
:1034B000C1F8A400DFF86C06D0F8A400332816D3B6
:1034C0000020DFF86016C1F8A400DFF8D806D0F8B5
:1034D000010030F08070DFF8CC16C1F80100DFF891
:1034E000C406006830F01000DFF8B816086001BDAF
:1034F0000000000090A800080CAA000858AD0008C1
:1035000024AA000868AD000874AB000888AB000866
:1035100054AE000878AD000884A7000888AD000804
:1035200010B50400207804285BD005285ED0082858
:1035300061D0092864D00A2867D00B286AD00C28EB
:103540006DD00F2870D0142873D0162876D0172885
:1035500079D018287CD01A2800F07F801B2800F032
:1035600081801F2800F08380202800F08580232898
:1035700000F0BE80242800F0C480262800F0C68019
:10358000282800F0D080292800F0D2802A2800F0D6
:10359000D8802B2800F0DA802C2800F0DC80372837
:1035A00000F0DE803A2800F019813D2800F0868185
:1035B0003E2800F090813F2800F09E81402800F0D6
:1035C0002381422800F0C781432800F09A814428D3
:1035D00000F0A081452800F0AA81462800F0B081C3
:1035E000C2E10720DFF8B415C875BDE10020DFF89F
:1035F000AC15C875B8E10120DFF8A015C875B3E1B6
:103600000220DFF89815C875AEE10320DFF88C15AD
:10361000C875A9E10420DFF88415C875A4E1062067
:10362000DFF87815C8759FE10820DFF87015C875B8
:103630009AE11120DFF86415C87595E11220DFF8D2
:103640005C15C87590E11320DFF85015C8758BE143
:103650000920DFF84815C87586E10A20DFF83C1517
:10366000C87581E10520DFF83415C8757CE10D20AF
:10367000DFF82815C87577E1DFF820054078C0F33A
:103680004200C0B202280BDADFF81005407810F0D3
:10369000F101801C10F00E000843DFF8001548709F
:1036A000DFF8F804007850F01000DFF8F01408702C
:1036B0000E20DFF8E814C875DFF824060068C0F3B0
:1036C0008010002813D0DFF81806006830F04000A2
:1036D000DFF80C160860DFF80806006830F40070A8
:1036E000DFF8FC1508601C20DFF8B014C8753BE15A
:1036F000DFF8EC05006830F48060DFF8E41508605E
:1037000032E11620DFF89414C8752DE1DFF88C043F
:10371000007810F0EF00DFF8841408700F20DFF855
:103720007C14C87520E11020DFF87014C8751BE107
:103730000020DFF8D81208701520DFF86014C87573
:1037400012E11720DFF85414C8750DE11820DFF8D6
:103750004C14C87508E11920DFF84014C87503E15E
:10376000DFF87C050068C0F3405000280FD0DFF878
:103770007005006830F40010DFF864150860DFF8A9
:103780006005006830F48020DFF854150860607828
:1037900010F00F00DFF88C13097860F3C501DFF833
:1037A00084030170DFF83C05DFF878130978C1F372
:1037B000C201C9B2085C00280FD0DFF824050068F8
:1037C00050F48000DFF818150860DFF81405006871
:1037D00050F01000DFF808150860C5E0607810F0C0
:1037E0000F00DFF84013897960F30201DFF834033A
:1037F0008171DFF8EC04D0F8010050F08040DFF870
:10380000E014C1F80100AFE0A088DFF81813C1F898
:10381000A000DFF8CC04006850F40020DFF8C014EA
:103820000860DFF8BC04006850F01000DFF8B01446
:103830000860DFF868030078C0F34010C0B20028C9
:103840001ED1A07801280AD1DFF89404006840084E
:103850004000DFF88C14086000F087F92DE0DFF8F5
:103860008004006830F40020DFF874140860DFF88A
:103870007004006830F01000DFF8641408601CE089
:10388000DFF85C04006850F48020DFF8541408600E
:103890000520DFF89012A1F89200DFF844040068D8
:1038A00050F40010DFF838140860DFF87802D0F820
:1038B000A000DFF87012C1F89C0055E0DFF820048A
:1038C000006850F48040DFF8181408600120DFF829
:1038D0001814087048E0DFF80804006850F400404D
:1038E000DFF8FC1308600020DFF8001408700020E7
:1038F000DFF8F413087037E01A20DFF8A012C8755B
:1039000032E0DFF8DC03006850F40070DFF8D01319
:10391000086029E0DFF8C803006830F40070DFF8C1
:10392000C01308601C20DFF87412C8751CE0DFF8B3
:10393000B003006850F48070DFF8A413086013E04F
:10394000DFF89C03006830F48070DFF8941308609F
:1039500000F0DAF808E0DFF88803006850F0800033
:10396000DFF87C130860FFE710BD0000ACA800087A
:10397000F0150020841D002038B504000D0000F073
:1039800049F86848C0F8B8406648C56617208149BC
:1039900081F8260072B67F48D0E9082311001A008A
:1039A000DFF84C0300F054FA62B6DFF8480300F089
:1039B000EBFA31BD38B504000D0000F02BF8EDB284
:1039C000022D04D11520734981F8260006E0EDB2DE
:1039D000012D03D123206F4981F826006D4890F80E
:1039E000210064F303006B4981F8210072B6694835
:1039F000D0E9082311001A00DFF8F40200F028FAD9
:103A000062B6DFF8F00200F0BFFA31BD02230020F9
:103A1000CF1D00206248007810F0010000280DD171
:103A20005F480078C0F34000C0B2002808D05C486E
:103A30004078C0F30010C0B2002801D100BFE9E710
:103A4000704770B54FF400640025DFF8AC622A00BF
:103A50002100300000F0AAF970BD0000FC20002019
:103A600080B5002002F0FCFDFEF7C5FC01BD10B5DD
:103A700004004A480078C0F30010C0B2002808D102
:103A800046480078C0F38010C0B2002801D105205C
:103A900039E0DFF84C02006810F4407F01D01020BC
:103AA00031E0DFF83C02006850F48050DFF830125B
:103AB0000860A4B2002C05D1DFF8480200F0B8FA83
:103AC0001F2020E04FF47A73220092B2DFF8281210
:103AD000314801F004F8002803D0FFF7C1FF0F20A0
:103AE00011E0DFF8FC01006830F48050DFF8F011DD
:103AF0000860DFF8EC010068C0F34030002801D115
:103B0000FEF779FC002010BD2648D0F8020050F0E6
:103B100000602449C1F8020000200249C1F8BC003D
:103B200070470000801D00201E48D0F8020030F0D1
:103B300000601C49C1F802000020DFF8CC11C1F878
:103B4000BC00704710B50024FFF77BFFDFF8BC1105
:103B5000DFF8A40100F0F0F8DFF89C0100F006F9AE
:103B600080B2FFF784FF040010BD10B50024FFF7FA
:103B700068FFDFF89C11DFF8800100F0DDF8DFF866
:103B8000780100F0F3F880B2FFF771FF040010BD78
:103B9000CE1D0020FC2000205C1F00208822002079
:103BA00088220020B422002070B504000D000026F9
:103BB000FFF747FF2B00220056494F4800F0BCF8A2
:103BC0004D4800F0D3F880B2FFF751FF0600F6B27F
:103BD000002E02D1FFF72CFC06003000C0B270BDF1
:103BE00070B504000D000026FFF72BFF2B0022000C
:103BF0004949414800F0A0F83F4800F0B7F880B2CA
:103C0000FFF735FF0600F6B2002E02D1FFF710FCD9
:103C100006003000C0B270BD38B504000025FFF7C3
:103C200010FF22003549344800F086F8324800F091
:103C30009DF880B2FFF71BFF0500EDB2002D02D109
:103C4000FFF7F6FB05002800C0B232BD38B504000E
:103C50000025FFF7F6FE22002949274800F06CF8FE
:103C6000254800F083F880B2FFF701FF0500EDB2B0
:103C7000002D02D1FFF7DCFB05002800C0B232BDE9
:103C800010B50024FFF7DDFE24491B4800F054F86E
:103C9000194800F06BF880B2FFF7E9FE0400E4B2C7
:103CA000002C02D1FFF7C4FB04002000C0B210BDFD
:103CB00010B50024FFF7C5FE19490F4800F03CF885
:103CC0000D4800F053F880B2FFF7D1FE0400E4B2D3
:103CD000002C02D1FFF7ACFB04002000C0B210BDE5
:103CE000B4220020C8220020032300200423002047
:103CF000102100201C210020F00100209CAB0008B6
:103D0000A4A70008C4A70008801D0020D4AE0008A6
:103D1000DCAE0008B0AB0008C4AB0008E4AE00089D
:103D2000ECAE0008704770477047704770477047A7
:103D300070477047704770470CB41CB5044604A820
:103D400001900A46009401AB694607487844183050
:103D500002F09AFC009A0021117000285CBF0098C4
:103D6000001B16BC5DF80CFB3B00000000F10103DA
:103D7000810704D010F8011B89B18107FAD10268CC
:103D8000B2F10131914311F0803F04BF50F8042F8C
:103D9000F6E710F8011B11B110F8011BFBE7C01A80
:103DA00070470268531C03601170704762F30F2262
:103DB00062F31F42401810F0030308D0C91A1FD342
:103DC000DB0748BF00F8012D28BF20F8022D1300A3
:103DD00030B414461546103928BF20E93C00FAD803
:103DE000490728BF20E90C0048BF40F8042D89008E
:103DF00028BF20F8022D48BF00F8012D30BC7047C5
:103E0000C91818BF00F8012DCB0728BF00F8012DF5
:103E10007047200008231A0012FB01F3838000235F
:103E200003800023C38000234380554B8360704789
:103E30008188C088B0EBD10F01D1012000E00020C3
:103E40007047C088002801D1012000E000207047A1
:103E500076B504002000FFF7EBFF002842D1608810
:103E6000C0080600A06810EBC600BDF804108180F1
:103E7000A06810EBC6009DF802108170A06810EBDE
:103E8000C6009DF80110A26812EBC602527861F3D9
:103E900003024270A06810EBC600A16811EBC601D6
:103EA000497811F00F019DF8012012F0F002114342
:103EB00041709DF80000A16801F83600A06810EB81
:103EC000C6009DF806108171E088401CE080608883
:103ED00008306080A0880500608890FBF5F105FB44
:103EE0001100608073BD70B504002000FFF7A9FFCA
:103EF000002801D0002042E02088C0080600A06809
:103F000010EBC60080881F498880A06810EBC600AF
:103F1000407810F00F001B49497860F303011948FD
:103F20004170A06810EBC6004078C0B20009154986
:103F3000497811F00F0151EA001012494870A06849
:103F400010EBC60080780F498870A06810F8360022
:103F50000C490870A06810EBC60080790949887187
:103F6000208808302080E088401EE080A08805007E
:103F7000208890FBF5F105FB11002080014870BD01
:103F8000F01B0020C02200200021818000218171CF
:103F9000417811F0F00151F009014170092181705F
:103FA00063210170704738B504000D00290020001E
:103FB00003F035FA32BD000062B38B0708D0521E01
:103FC00011F8013B00F8013B00F024808B07F6D18B
:103FD000830740F0208000BF103A07D330B4B1E827
:103FE0003810103AA0E83810F9D230BC530724BF7B
:103FF000B1E80810A0E8081044BF51F8043B40F8AD
:10400000043BD20724BF31F8022B20F8022B44BF17
:104010000B7803707047083A07D3B1E80810083AE4
:1040200040F8043B40F804CBF7D25307E4E7000024
:104030000EB400B582B003A9009102466B4601217F
:10404000034878440A3002F01FFB06BC5DF810FB01
:104050004D6A00008160002202600022C2600022DE
:104060004260804A02617047C068B0F54E7F01DB54
:10407000012000E000207047C068C92801DA012053
:1040800000E000207047C068B0F5806F01D10120CA
:1040900000E000207047C068002801D1012000E046
:1040A00000207047F8B504000D002000FFF7EBFF7B
:1040B000002815D1E068401CE0606068411C616028
:1040C000012621694718320029003800FFF774FFE4
:1040D00060684FF4806190FBF1F202FB11026260B4
:1040E000F1BD2DE9F84F04005F4805002000FFF7FF
:1040F000D2FF002801D00020B1E04FF40076002765
:10410000DFF864813A0031004046FFF74FFE574820
:104110000068C0F38040002800F08580D4F804B027
:10412000E068C8282EDAE0685149A1F890002068BC
:1041300083450BDB20684E49B1F890602169471830
:10414000320039002800FFF737FF16E026682068A4
:10415000D6F58067216910EB01083A004146280036
:10416000FFF72AFF2068D4F81090281A10F5806A0B
:104170005A4649465046FFF71FFF606820600020FE
:10418000E0606BE02068834510DB2068C826216969
:104190004718320039002800FFF70EFF2068C830AA
:1041A00020602068BBEB0000E06037E02068C8308A
:1041B000B0F5806F12DA2068C826216947183200EE
:1041C00039002800FFF7F8FE2068C830206020681A
:1041D000D0F580601BEB0000E0601FE026682068DF
:1041E000D6F58061009121694718009A39002800AE
:1041F000FFF7E2FE2068B6F54E78D4F81090281A42
:1042000010F5806A424649465046FFF7D5FEB6F59E
:104210004E7020602068BBEB0000E060C8201449AD
:10422000A1F890001AE020680126216947183200A1
:1042300039002800FFF7C0FE2068401C2060E068BD
:10424000401EE06001200A49A1F8900020684FF468
:10425000806190FBF1F202FB110222602800BDE8B0
:10426000F28F0000F0110020F0170020B42200208F
:10427000801D002010B4426803685B1A002B0FD425
:1042800003685B1A03600368934203DA0368D31A76
:10429000C3600FE00368D3F58063D318C36009E0FF
:1042A0000368D1F58064E31803600368D3F5806385
:1042B000D318C36010BC704738B503F0C6F8044685
:1042C000208880042ED5656809E04A1B294603F042
:1042D00005F910F1010F18BF00280CD04519E1684D
:1042E00094F903008D42F0D30022002103F0F6F888
:1042F00010F1010F0DD16068E0606061E06220881C
:1043000040F400702080204603F0A0F84FF0FF300A
:1043100032BD6568E5606561E5624DF6FF71208834
:1043200008402080204603F091F8002032BDF8B507
:10433000A0B9C046C04600240A4D08264FF0FF37FA
:10434000286820B1FFF7B8FF002848BF3C462D1D64
:10435000761EF5D1C046C0462046F2BDBDE8F2400B
:10436000AAE70000BC01002010B50400002C01D118
:10437000012014E094F83900002805D1002084F8C9
:104380003800200003F08EF9022084F83900211D46
:10439000206800F0D3F8012084F83900002010BD17
:1043A00001000868C06850F001000A68D060086821
:1043B000006850F001000A6810600020704710B5D6
:1043C00004002068006980071AD52068C06880074B
:1043D00016D57FF002002168086101202076206850
:1043E000806910F0030F03D0200000F0A4F805E06E
:1043F000200000F09FF8200000F09EF800202076BA
:104400002068006940071AD52068C068400716D5A3
:104410007FF004002168086102202076206880690E
:1044200010F4407F03D0200000F085F805E0200064
:1044300000F080F8200000F07FF80020207620684F
:10444000006900071AD52068C068000716D57FF0FC
:10445000080021680861042020762068C06910F0F7
:10446000030F03D0200000F066F805E0200000F004
:1044700061F8200000F060F80020207620680069D4
:10448000C0061AD52068C068C00616D57FF0100097
:1044900021680861082020762068C06910F4407FF8
:1044A00003D0200000F047F805E0200000F042F8BB
:1044B000200000F041F80020207620680069C00745
:1044C0000AD52068C068C00706D57FF001002168C2
:1044D0000861200003F062F92068006900060AD52F
:1044E0002068C068000606D57FF08000216808615A
:1044F000200003F07AF92068006940060AD5206898
:10450000C068400606D57FF04000216808612000A1
:1045100000F013F82068006980060AD52068C0689A
:10452000800606D57FF0200021680861200003F096
:104530005BF910BD704770477047704700220368F1
:104540001A00DFF8C030984212D0B0F1804F0FD07F
:10455000DFF8B43098420BD0DFF8B030984207D083
:10456000DFF8AC30984203D0DFF8A830984203D18E
:1045700032F070024B681A43DFF8883098421ED040
:10458000B0F1804F1BD0DFF88030984217D0DFF8B1
:104590007C30984213D0DFF8783098420FD0DFF8A3
:1045A000743098420BD0DFF87030984207D0DFF8B3
:1045B0006C30984203D0DFF86830984203D132F46F
:1045C0004072CB681A4302608B68C3620B688362D7
:1045D000DFF8303098420FD0DFF8383098420BD0F7
:1045E000DFF83430984207D0DFF83030984203D0FB
:1045F000DFF82C30984201D10B690363012343613A
:1046000070470000002C01400004004000080040FA
:10461000000C0040003401400040014000440140D3
:104620000048014078B40022002300240D68D540E2
:10463000002D00F0EE800D680126964035402B00DD
:10464000002B00F0E4804D68022D02D04D68122D41
:1046500016D1D50810EB85052D6A2C000F2512F018
:104660000706F6B2B600B540AC430D6912F0070676
:10467000F6B2B600B5402C43D50810EB85052C6288
:1046800005682C0003251600F6B27600B540AC4351
:104690000D7915F003051600F6B27600B5402C43EF
:1046A00004604D68012D08D04D68022D05D04D687D
:1046B000112D02D04D68122D19D185682C000325CB
:1046C0001600F6B27600B540AC43CD681600F6B2DF
:1046D0007600B5402C43846045682C000125954048
:1046E000AC434D68C5F3001595402C4344600D79EB
:1046F00015F00305032D0AD1C56A2C00012595404C
:10470000AC434D68C5F3C00595402C43C462C568F1
:104710002C0003251600F6B27600B540AC438D6838
:104720001600F6B27600B5402C43C4604D68ED002B
:104730006DD58F4D2D6855F001058D4E35608C4D32
:104740002D6815F001050095009D8A4D960855F8D5
:1047500026502C000F2512F00306F6B2B600B54025
:10476000AC43B0F1904F01D100251EE0824DA8422C
:1047700001D1012519E0814DA84201D1022514E0A3
:104780007F4DA84201D103250FE07E4DA84201D103
:1047900004250AE07C4DA84201D1052505E07B4DAA
:1047A000A84201D1062500E0072512F00306F6B263
:1047B000B600B5402C436F4D960845F82640744D21
:1047C0002D682C009C434D68ED0300D51C43704DB3
:1047D0002C60704D2D682C009C434D68AD0300D5B6
:1047E0001C436C4D2C606C4D2D682C009C434D6817
:1047F000ED0200D51C43684D2C60684D2D682C00DF
:104800009C434D68AD0200D51C43644D2C60521C86
:104810000CE771BC7047F0B40022002300240D00A7
:10482000D540002D00F09880012595400D402B00CB
:10483000002B00F08F80056803261700FFB27F0071
:10484000BE4035430560D50810EB8505D60810EB52
:104850008606366A0F2712F0070C5FFA8CFC5FEAB7
:104860008C0C17FA0CF7BE432E62856803261700DE
:10487000FFB27F00BE40B543856045680126964083
:10488000B5434560C56803261700FFB27F00BE40F0
:10489000B543C560C56A01269640B543C562354D2E
:1048A000960855F826502C000F2512F00306F6B294
:1048B000B600B5402C40B0F1904F01D100251EE06C
:1048C0002D4DA84201D1012519E02C4DA84201D15E
:1048D000022514E02A4DA84201D103250FE0294DFD
:1048E000A84201D104250AE0274DA84201D105259F
:1048F00005E0264DA84201D1062500E0072512F06B
:104900000306F6B2B600B540AC4223D10F2512F033
:104910000306F6B2B600B5402C00164D960855F8C1
:104920002650A543134E970846F82750184D2D687A
:104930009D43174E3560174D2D689D43154E3560CC
:10494000154D2D689D43144E3560144D2D689D43C3
:10495000124E3560521C62E7F0BC7047D2B2002A9A
:1049600002D089B2816101E089B2816270470000A2
:1049700060100240080001400004004800080048A0
:10498000000C0048001000480014004800180048BF
:104990000004014004040140080401400C040140EB
:1049A00080B5032002F094FF0F2000F005F800F01E
:1049B00002F8002002BD704710B5040012480068DC
:1049C0004FF47A71B0FBF1F002F0A9FF0022210050
:1049D0005FF0FF3002F082FF002010BD0B4800683E
:1049E000401C0A490860704708480068704738B59D
:1049F00004000025FFF7F8FF0500FFF7F5FF401B57
:104A0000A042FAD331BD0000E4010020E4220020DE
:104A100010B50400002C01D1012037E0A069002866
:104A2000FFD194F86900002805D1002084F86800BF
:104A3000200002F069FD242084F8690020680068E5
:104A40004008400021680860200000F06CFA01284E
:104A500001D101201AE0606A002802D0200000F095
:104A60009DFC2068406830F49040216848602068D0
:104A7000806830F02A00216888602068006850F063
:104A8000010021680860200000F0F5FC10BD10B5A1
:104A90000400002C01D1012020E0242084F86900CA
:104AA00020680068400840002168086000202168F4
:104AB000086000202168486000202168886020008C
:104AC00002F0CFFD0020E066002084F8690000209D
:104AD00084F86A00002084F86800002010BD2DE9E9
:104AE000F84304000D0016001F005FF0000994F861
:104AF0006900202857D1002D02D0B6B2002E01D176
:104B0000012051E094F86800012801D102204BE017
:104B1000012084F868000020E066212084F8690004
:104B2000FFF762FF8146A4F85060A4F85260B4F821
:104B30005200002824D0B4F85200401EA4F85200BD
:104B400000974B4600228021200000F0CBFC00287B
:104B500001D0032028E0A068B0F5805F0BD1206968
:104B6000002808D1A846B8F80000C005C00D21688B
:104B70000885AD1CDBE72878216808856D1CD6E721
:104B800000974B4600224021200000F0ABFC00289B
:104B900001D0032008E0202084F86900002084F878
:104BA0006800002000E00220BDE8F2832DE9F04714
:104BB00082B004000D0016001F005FF0000A94F898
:104BC0006A0020287DD1002D02D0B6B2002E01D17E
:104BD000012077E094F86800012801D1022071E0FB
:104BE000012084F868000020E066222084F86A0032
:104BF000FFF7FAFE8246A4F85860A4F85A60A0684D
:104C0000B0F5805F0BD12069002804D140F2FF107D
:104C1000A4F85C001FE0FF20A4F85C001BE0A06883
:104C200000280AD12069002803D1FF20A4F85C00E5
:104C300011E07F20A4F85C000DE0A068B0F1805F77
:104C400009D12069002803D17F20A4F85C0002E08C
:104C50003F20A4F85C00B4F85C008146B4F85A0028
:104C6000002826D0B4F85A00401EA4F85A00009735
:104C7000534600222021200000F034FC002801D0FF
:104C800003201FE0A068B0F5805F0BD120690028E9
:104C900008D1A8462068808C19EA0000A8F8000016
:104CA000AD1CDBE72068808C19EA000028706D1CC1
:104CB000D4E7202084F86A00002084F868000020EF
:104CC00000E00220BDE8F68710B4030093F86A0004
:104CD00020285CD1002902D092B2002A01D1012003
:104CE00056E093F86800012801D1022050E001202D
:104CF00083F868005965A3F85820A3F85A209868EB
:104D0000B0F5805F0BD11869002804D140F2FF1084
:104D1000A3F85C001FE0FF20A3F85C001BE098688C
:104D200000280AD11869002803D1FF20A3F85C00ED
:104D300011E07F20A3F85C000DE09868B0F1805F7F
:104D400009D11869002803D17F20A3F85C0002E094
:104D50003F20A3F85C000020D866222083F86A0078
:104D6000002083F868001868006850F480701C68A0
:104D700020601868806850F001001C68A060186806
:104D8000006850F020001C682060002000E0022035
:104D900010BC70472DE9F04104002068C569206807
:104DA000066815F00F008046B8F1000F12D1A80672
:104DB00005D5B00603D5200000F031FCB0E0E806D0
:104DC00008D5F00606D5102021680862200000F002
:104DD000A9F8A5E0206880680700B8F1000F7AD034
:104DE00040F20110074276D015F00100C0B2002851
:104DF00008D0F00506D5012021680862E06E50F069
:104E00000100E066A8070BD517F00100C0B200282A
:104E100006D0022021680862E06E50F00400E066CF
:104E200068070BD517F00100C0B2002806D0042097
:104E300021680862E06E50F00200E06628070DD598
:104E4000B00604D417F00100C0B2002806D0082034
:104E500021680862E06E50F00800E066E06E00280D
:104E600038D0A80604D5B00602D5200000F0D7FB44
:104E7000E06E000703D420688068400625D5200036
:104E800000F068FB2068806840061AD520688068BA
:104E900030F0400021688860606E00280DD00FF26D
:104EA000D560616E8863606E02F0D8FD002811D075
:104EB000606E616E896B88470CE0200002F07AFC1E
:104EC00008E0200002F076FC04E0200002F072FC12
:104ED0000020E06624E0206880680700E8020FD523
:104EE00078020DD55FF4801021680862202084F8D4
:104EF0006900202084F86A00200002F0DEFD0FE047
:104F0000280605D5300603D5200000F040FB07E059
:104F1000680605D5700603D5200000F070FBFFE79A
:104F2000BDE8F08170472DE9F84304000027102503
:104F300000265FF000095FF000082068DFF83414F5
:104F40008842FFD0A0682169084361690843E1698C
:104F50000843070020680068DFF81C140840384345
:104F6000216808602068406830F44050E1680843D8
:104F700021684860A06907002068DFF8F8138842BC
:104F800001D0206A07432068806830F430603843DD
:104F9000216888602068DFF8E41388421BD1DFF8BD
:104FA000E003006810F00300002805D0022806D0B6
:104FB00008D3032809D00BE001200500B4E002204B
:104FC0000500B1E004200500AEE008200500ABE0DC
:104FD00010200500A8E02068DFF8A81388421CD143
:104FE000DFF89C03006810F00C00002806D00428AD
:104FF0000AD0082805D00C2809D00BE000200500B5
:1050000092E0022005008FE0042005008CE00820DB
:10501000050089E01020050086E02068DFF86813AD
:1050200088421CD1DFF85803006810F030000028D7
:1050300006D010280AD0202805D0302809D00BE04F
:105040000020050070E0022005006DE0042005004E
:105050006AE00820050067E01020050064E0206891
:10506000CA4988421BD1C648006810F0C000002819
:1050700006D040280AD0802805D0C02809D00BE0EF
:105080000020050050E0022005004DE0042005004E
:105090004AE00820050047E01020050044E02068B1
:1050A000BB4988421ED1B648006810F44070002801
:1050B00009D0B0F5807F0CD0B0F5007F06D0B0F5F8
:1050C000407F09D00BE0002005002DE00220050004
:1050D0002AE00420050027E00820050024E0102035
:1050E000050021E02068A34988421DD1A44800683A
:1050F00010F44060002809D0B0F5806F0CD0B0F5F6
:10510000006F06D0B0F5406F09D00BE0002005001D
:105110000AE00220050007E00420050004E0082062
:10512000050001E0102005002068924988427DD1E9
:1051300000200700EDB22800002806D0022808D081
:10514000042809D008280BD00EE003F07FF90700EF
:105150000CE09048070009E003F0C7F8070005E0FD
:105160004FF40040070001E001208046002F00F0CE
:10517000FC80606803214843874205D360684FF490
:1051800080514843B84202D201208046EDE0EDB2A2
:105190002800002806D0022814D004281FD0082890
:1051A0002DD035E003F052F902004FF480736068AF
:1051B00040080021E3FB02016268002303F0D6F9F6
:1051C000070027E060684208002373480021101898
:1051D00059416268002303F0C9F907001AE003F09F
:1051E00084F802004FF48073606840080021E3FBFC
:1051F00002016268002303F0B9F907000AE0606861
:10520000400810F500006168B0FBF1F0070001E014
:1052100001208046B7F5407F05D3B7F5801F02D245
:105220002068C760A1E0012080469EE0E069B0F5FB
:10523000004F4FD1EDB22800002808D0012811D02E
:1052400002281AD0042823D008282CD034E003F0F8
:10525000FDF86168490811EB40006168B0FBF1F0AE
:1052600081462BE003F002F96168490811EB400028
:105270006168B0FBF1F0814620E06068400800F111
:10528000F47010F590406168B0FBF1F0814615E0D4
:1052900003F02BF86168490811EB40006168B0FB2E
:1052A000F1F081460AE06068400810F580306168DE
:1052B000B0FBF1F0814601E0012080464FF6F0702E
:1052C00010EA09000600C9F342000643B6B220689E
:1052D000C6604AE0EDB22800002808D0012812D0AC
:1052E00002281CD0042827D0082831D03BE003F046
:1052F000ADF8616810EB51006168B0FBF1F080B26D
:105300002168C86031E003F0B1F8616810EB51002A
:105310006168B0FBF1F080B22168C86025E0606888
:10532000400800F5740010F510506168B0FBF1F012
:1053300080B22168C86018E002F0D7FF616810EB06
:1053400051006168B0FBF1F080B22168C8600CE0E8
:105350006068400810F500406168B0FBF1F080B271
:105360002168C86001E0012080464046C0B2BDE827
:10537000F283000000800040F369FFEF0038014035
:10538000881002400044004000480040004C0040AB
:10539000005000400024F400000024F490F8241091
:1053A000C90707D50168496831F40031826A1143A1
:1053B0000268516090F82410890707D50168496890
:1053C00031F48031C26A11430268516090F82410B0
:1053D000490707D50168496831F48021026B114300
:1053E0000268516090F82410090707D501684968E0
:1053F00031F40041426B11430268516090F824106F
:10540000C90607D50168896831F48051826B114360
:105410000268916090F82410890607D501688968B0
:1054200031F40051C26B11430268916090F824106E
:10543000490613D50168496831F48011026C1143A3
:1054400002685160016CB1F5801F07D1016849689D
:1054500031F4C001426C11430268516090F824108D
:10546000090607D50168496831F40021826C1143AF
:1054700002685160704738B5040000250020E066DE
:10548000FFF7B2FA05002068006800070DD57FF02D
:105490007E4000902B0000225FF40011200000F0FD
:1054A00021F8002801D003201BE020680068400795
:1054B0000DD57FF07E4000902B0000225FF480012C
:1054C000200000F00FF8002801D0032009E0202080
:1054D00084F86900202084F86A00002084F86800BD
:1054E000002032BD2DE9F04104000D0016001F0020
:1054F000DDF818802068C0692840A84201D1012049
:1055000000E00020F6B2B04221D118F1010FF1D035
:10551000B8F1000F04D0FFF767FAC01B8045E9D24D
:105520002068006830F4D0702168086020688068C6
:105530004008400021688860202084F8690020200D
:1055400084F86A00002084F86800032000E000204E
:10555000BDE8F081202180F86A100168096831F403
:105560009071026811600168896849084900026801
:105570009160704738B50400A56A0020A5F85A006C
:105580000020A5F85200280002F014F931BD0100F6
:1055900091F86900212830D1B1F8520000280DD1CE
:1055A0000868006830F080000B68186008680068C0
:1055B00050F040000B68186000201FE08868B0F5CC
:1055C000805F0DD1086900280AD1C86C02001088DC
:1055D000C005C00D0B681885C86C801CC86405E048
:1055E000C86C431CCB6400780B681885B1F8520076
:1055F000401EA1F85200002000E00220704710B5C4
:1056000004002068006830F0400021680860202015
:1056100084F86900200002F0C7F8002010BDF8B53A
:105620000400B4F85C6094F86A00222837D120683E
:10563000808C0700A068B0F5805F0BD1206900283E
:1056400008D1606D050016EA07002880606D801C97
:10565000606505E0606D411C616516EA0701017037
:10566000B4F85A00401EA4F85A00B4F85A000028B2
:1056700013D12068006830F49070216808602068B9
:1056800080684008400021688860202084F86A0013
:10569000200002F07DF8002008E0002006E02068ED
:1056A000008B50F00800216808830220F2BD000042
:1056B00038B504000025DFF84007FEF7B9FCDFF835
:1056C0003C07FEF7B5FCDFF83807FEF7B1FCDFF862
:1056D0003407FEF7ADFCFCF75DFD012000F036FC61
:1056E000FCF73BFEFEF7CCFA0500EDB2002D02D030
:1056F0002800C0B22EE20121DFF80C07FEF770FA95
:105700000500EDB2002D02D02800C0B222E2206BCD
:1057100000280BD0216BDFF8F406FEF761FA0500D4
:10572000EDB2002D02D02800C0B213E20021DFF854
:10573000E006FEF755FA0500EDB2002D02D0280074
:10574000C0B207E22078002802D001281AD033E046
:105750000021DFF8C006FEF743FA0500EDB2002D88
:1057600002D02800C0B2F5E1DFF8AC16DFF8AC06D5
:10577000FEF71AFA0500EDB2002D02D02800C0B2E3
:10578000E8E119E00121DFF88C06FEF729FA0500AF
:10579000EDB2002D02D02800C0B2DBE1DFF88016A8
:1057A000DFF87806FEF700FA0500EDB2002D02D012
:1057B0002800C0B2CEE1FFE76078002803D00228BD
:1057C0006FD025D3B6E00021DFF85806FEF708FABF
:1057D0000500EDB2002D02D02800C0B2BAE10021D0
:1057E000DFF84406FEF7FCF90500EDB2002D02D00B
:1057F0002800C0B2AEE10021DFF83006FEF7F0F974
:105800000500EDB2002D02D02800C0B2A2E191E067
:105810000121DFF81006FEF7E3F90500EDB2002DD7
:1058200002D02800C0B295E10B21DFF80406FEF794
:10583000D7F90500EDB2002D02D02800C0B289E1F1
:105840000021DFF8F005FEF7CBF90500EDB2002DE1
:1058500002D02800C0B27DE10021DFF8DC05FEF7B0
:10586000BFF90500EDB2002D02D02800C0B271E1F1
:105870000021DFF8B405FEF7B3F90500EDB2002D05
:1058800002D02800C0B265E10021DFF8A005FEF7D4
:10589000A7F90500EDB2002D02D02800C0B259E1F1
:1058A00048E00121DFF87C05FEF79AF90500EDB22A
:1058B000002D02D02800C0B24CE10C21DFF87005A9
:1058C000FEF78EF90500EDB2002D02D02800C0B21F
:1058D00040E10A21DFF85C05FEF782F90500EDB230
:1058E000002D02D02800C0B234E10121DFF84805C4
:1058F000FEF776F90500EDB2002D02D02800C0B207
:1059000028E10121DFF82005FEF76AF90500EDB274
:10591000002D02D02800C0B21CE10021DFF80C05E8
:10592000FEF75EF90500EDB2002D02D02800C0B2EE
:1059300010E1FFE7A078002803280FD8A0780621FF
:1059400001FB00F1DFF8F404FEF74AF90500EDB2BF
:10595000002D02D02800C0B2FCE0FFE7E07800286C
:1059600002280CD8E178DFF8D804FEF739F90500F1
:10597000EDB2002D02D02800C0B2EBE0FFE7606876
:1059800000280BD06168DFF8BC04FEF70DF90500B4
:10599000EDB2002D02D02800C0B2DBE0A0680028E4
:1059A0000BD0A168DFF8A004FEF7FEF80500EDB209
:1059B000002D02D02800C0B2CCE0E06800280BD057
:1059C000E168DFF88804FEF7EFF80500EDB2002D7E
:1059D00002D02800C0B2BDE0206900280BD02169A8
:1059E000DFF86C04FEF7E0F80500EDB2002D02D000
:1059F0002800C0B2AEE0606900280BD06169DFF812
:105A00005404FEF7D1F80500EDB2002D02D02800B5
:105A1000C0B29FE0E06900280BD0E169DFF83804EC
:105A2000FEF7C2F80500EDB2002D02D02800C0B28A
:105A300090E0206A00280BD0216ADFF82004FEF7EE
:105A4000B3F80500EDB2002D02D02800C0B281E00D
:105A5000606A00280FD0606A4FF47A7101FB00F190
:105A6000DFF8FC03FEF7BCF80500EDB2002D02D014
:105A70002800C0B26EE0A06A00280BD0A16ADFF84F
:105A8000E403FEF7ADF80500EDB2002D02D02800CA
:105A9000C0B25FE094F82C0000280CD094F82C10D1
:105AA000DFF88C04FEF79CF80500EDB2002D02D063
:105AB0002800C0B24EE0FDF7C4FFDFF87814DFF82D
:105AC0007804FEF739F9DFF87004FEF74FF980B279
:105AD000FDF7CDFF0500EDB2002D08D1FDF7A8FCC4
