:020000040800F2
:10000000380A002001430008E10D0008E30D000854
:1000100000000000000000000000000000000000E0
:10002000000000000000000000000000ED0D0008CE
:10003000F70D000800000000010E0008170E000870
:10004000EB200008DF270008AB2900084333000835
:100050008B350008873C00087F3D0008473F0008BB
:10006000074000086B4200085F0E0008470E0008BA
:100070007B420008AB42000800000000030E0008AD
:10008000000000004D4300080000000000000000D8
:100090000D0E0008000000004F4300085143000807
:1000A000534300085543000857430008310E000829
:1000B0003B0E0008594300085B4300085D430008FD
:1000C00010B50400002C01D1012033E0A069002804
:1000D000FFD16920205C002805D1002068216054F0
:1000E000200000F0DBFD02206921605420680068D8
:1000F0000121884321680860200000F0FFFA606A4F
:10010000002802D0200000F0C9FC206840680A499D
:10011000014020684160206880682A218843216866
:100120008860206800680121014320680160200088
:1001300000F082FC10BD0000FFB7FFFF10B5040007
:10014000002C01D101201DE00220692160542068AB
:100150000068012188432168086000202168086048
:10016000002021684860002021688860200000F09D
:10017000F2FD0020E0660020692160540020682123
:100180006054002010BDF8B505000C0016001F00DB
:100190006920285C012803D06920285C222863D1CB
:1001A000002C02D0B6B2002E01D101205DE0682003
:1001B000285C012801D1022057E001206821685401
:1001C0000020E8666920285C222803D132206921BA
:1001D000685402E012206921685450202E525220A7
:1001E0002E525220285A002824D05220285A401E2D
:1001F000522168523B0000228021280000F0C6FCFA
:10020000002801D0032030E0A868802149018842FD
:100210000BD12869002808D1009400980088C005F7
:10022000C00D29688862A41CDBE7207829688862F1
:10023000641CD6E73B0000224021280000F0A6FC09
:10024000002801D0032010E06920285C322803D167
:1002500022206921685402E00120692168540020AD
:1002600068216854002000E00220F2BDF8B582B099
:1002700004000D0016006920205C012804D06920CC
:10028000205C122800D08AE0002D02D0B6B2002EE9
:1002900001D1012084E06820205C012801D10220E6
:1002A0007EE00120682160540020E0666920205C27
:1002B000122803D132206921605402E022206921F2
:1002C0006054582026525A202652A06880214901A5
:1002D00088420AD12069002803D16B485C21605212
:1002E00020E0FF205C2160521CE0A06800280AD1B9
:1002F0002069002803D1FF205C21605212E07F209A
:100300005C2160520EE0A06880214905884209D135
:100310002069002803D17F205C21605202E03F2049
:100320005C2160525C20205A07005A20205A002885
:1003300025D05A20205A401E5A216052029B00228A
:100340002021200000F022FC002801D0032027E01B
:10035000A0688021490188420AD12069002807D17C
:1003600000952068406A384000990880AD1CDCE7A1
:100370002068406A3900014029706D1CD5E769206A
:10038000205C322803D112206921605402E0012050
:1003900069216054002068216054002000E00220A0
:1003A000FEBD10B503006920185C012803D0692048
:1003B000185C122866D1002902D092B2002A01D11D
:1003C000012060E06820185C012801D102205AE079
:1003D000012068241855596558201A525A201A527B
:1003E000986880246401A0420AD11869002803D1CA
:1003F00025485C24185320E0FF205C2418531CE09F
:10040000986800280AD11869002803D1FF205C24CD
:10041000185312E07F205C2418530EE09868802463
:100420006405A04209D11869002803D17F205C240B
:10043000185302E03F205C2418530020D86669203E
:10044000185C122803D132206924185502E02220BA
:1004500069241855186800688024640004431868EB
:1004600004601868806801240443186884600020D0
:10047000682418551868006820240443186804602C
:10048000002000E0022010BDFF01000010B50400B4
:100490002068C069C0070DD520680068C00509D56F
:1004A000012021680862E06E01210143E16601201C
:1004B000692160542068C06980070DD52068806874
:1004C000C00709D5022021680862E06E04210143BB
:1004D000E1660120692160542068C06940070DD59C
:1004E00020688068C00709D5042021680862E06E92
:1004F00002210143E1660120692160542068C0693E
:1005000000070DD520688068C00709D5082021683C
:100510000862E06E08210143E16601206921605410
:10052000E06E002802D0200000F07CFC2068C0694A
:10053000C0020DD520688068400209D580204003A4
:1005400021680862012069216054200000F09EFCAF
:100550002068C069800606D520680068800602D53C
:10056000200000F06EF82068C069000606D52068FB
:100570000068000602D5200000F00CF82068C06971
:10058000400606D520680068400602D5200000F02D
:1005900040F810BD00B501006920085C122803D0A6
:1005A0006920085C322832D15220085A00280DD127
:1005B00008680068802398430B6818600868006822
:1005C0004023034308680360002021E088688023FB
:1005D0005B0198420DD1086900280AD1C86C02005D
:1005E0001088C005C00D0B689862C86C801CC86478
:1005F00006E0C86C03005B1CCB6400780B68986253
:100600005220085A401E5223C852002000E0022007
:1006100000BD10B5040020680068402188432168AF
:1006200008606920205C322803D1222069216054AF
:1006300002E0012069216054200000F0F2FB00205C
:1006400010BD70B504005C20265A6920205C222869
:1006500003D06920205C32284BD1A0688021490159
:1006600088420CD12069002809D1606D05002068FE
:10067000406A30402880606D801C606508E0606DD5
:100680000100491C61652168496A32000A40027014
:100690005A20205A401E5A2160525A20205A0028BF
:1006A00025D12068C0698006FBD42068006820211D
:1006B0008843216808606920205C322803D1122019
:1006C000692160540EE0206800680B4901402068F1
:1006D00001602068806801218843216888600120CA
:1006E00069216054200000F09BFB002002E0002004
:1006F00000E0022070BD0000FFFEFFFFFEB5040019
:10070000002002900025002600272068B749884273
:10071000FFD0A0682169014360690843E169014392
:10072000029120680068B24901400298084321689C
:10073000086020684068AF490140E06808432168CC
:100740004860A06902902068A849884203D00298B6
:10075000216A0143029120688068B34901400298F0
:100760000843216888602068B049884218D1B048A1
:1007700000688007800F002805D0022806D008D323
:10078000032809D00BE0012005004BE00220050002
:1007900048E00420050045E00820050042E041E073
:1007A0002068A449884219D1A14800680C21014061
:1007B000002906D004290AD0082905D00C2909D01F
:1007C0000BE0002005002DE0022005002AE00420B7
:1007D000050027E00820050024E023E02068834985
:1007E00088421FD192480068C021090101400029B8
:1007F0000CD08020C00081420ED0802000018142B8
:1008000007D0C0200001814209D00BE00020050084
:1008100008E00220050005E00420050002E00820B1
:100820000500FFE720687149884268D12800002848
:1008300006D002281CD004283AD0082850D05DE009
:1008400000F04DFF00F07CFF0022904B00F088FF8D
:1008500000900191606800F073FF02000B000098A7
:10086000019901F03FF801F09FF82168C860DAE0D3
:1008700087480068C0060DD5606800F061FF02007F
:100880000B000020834901F02DF801F08DF821685C
:10089000C8600CE0606800F053FF02000B0000200D
:1008A0007D4901F01FF801F07FF82168C860BAE0C7
:1008B00000F098FE00F044FF0022744B00F050FF5F
:1008C00000900191606800F03BFF02000B0000986F
:1008D000019901F007F801F067F82168C860A2E00B
:1008E000606800F02DFF02000B000020A34900F01B
:1008F000F9FF01F059F82168C86094E093E0E069DD
:100900008021090288424AD12800002808D0012805
:100910000FD0022816D0042824D008282BD031E08C
:1009200000F0DDFE02214843616801F054F8070041
:1009300028E000F0E3FE02214843616801F04BF833
:1009400007001FE052480068C00605D58C48616862
:1009500001F041F8070004E08A48616801F03BF8C3
:1009600007000FE000F03EFE02214843616801F0FD
:1009700032F8070006E080204002616801F02BF8A1
:100980000700FFE78048384006003807000FC0B274
:100990004008C0B20643B6B22068C66043E02800F3
:1009A000002808D001280ED0022814D004282AD00C
:1009B000082830D037E000F092FE616801F00BF8B3
:1009C0002168C8602FE000F099FE616801F003F82B
:1009D0002168C86027E02E480068C0060CD5A248F0
:1009E000616800F0F8FF2168C8600BE00048004033
:1009F000F369FFEFFFCFFFFF9C48616800F0EBFF5A
:100A00002168C8600FE000F0EDFD616800F0E3FFD1
:100A10002168C86007E080200002616800F0DBFF09
:100A20002168C860FFE7F7BDFFF4FFFF0038014011
:100A30004C1002400044004010B5040020680068DB
:100A400000070AD58A4B002280218903200000F08C
:100A50009DF8002801D0032017E0206800684007B7
:100A60000AD5834B00228021C903200000F08EF8B4
:100A7000002801D0032008E00020682160540020F5
:100A8000E066012069216054002010BD0000704024
:100A9000001002408084CE418084EE4100B52421C4
:100AA000415CC90707D501684968724A0A40816AF2
:100AB0001143026851602421415C890707D5016810
:100AC00049686D4A0A40C16A114302685160242195
:100AD000415C490707D501684968684A0A40016BCB
:100AE0001143026851602421415C090707D5016860
:100AF0004968634A0A40416B1143026851602421EE
:100B0000415CC90607D5016889685E4A0A40816B65
:100B10001143026891602421415C890607D5016870
:100B20008968594A0A40C16B1143026891602421C7
:100B3000415C490614D501684968544A0A40016C71
:100B4000114302685160016C80225203914207D127
:100B5000016849684E4A0A40416C1143026851607D
:100B60002421415C090607D501684968494A0A40C1
:100B7000816C11430268516000BD000000006041BB
:100B800000127A000048E801F0FF0000F4B504000C
:100B90000F001D00002600F0A2FF06006846007846
:100BA00000282FD12068C0693840B8425AD00020B0
:100BB000C0438542F6D0002D04D000F090FF801B8A
:100BC0008542EFD220680068802188432168086050
:100BD0002068006820218843216808602068006838
:100BE0002D49014020680160206880680121884308
:100BF00021688860012069216054002068216054C8
:100C0000032030E02068C0693840B8422AD1002073
:100C1000C0438542F6D0002D04D000F060FF801B59
:100C20008542EFD2206800688021884321680860EF
:100C300020680068202188432168086020680068D7
:100C400015490140206801602068806801218843BF
:100C50002168886001206921605400206821605467
:100C6000032000E00020F2BD00093D000024F40054
:100C7000F0550000FFFFFDFFFFFFFEFFFFFFFBFF42
:100C8000FF7FFFFFFFEFFFFFFFDFFFFFFFFFEFFF34
:100C9000FFFF9FFFFFFFF7FFFFFEFFFF10B586B0CE
:100CA00004003E48844254D13D480068012101437C
:100CB0003B4801603A4800680100C907C90F00912C
:100CC00000983748006801210143354801603448E5
:100CD00000680100C907C90F0091009831480068F9
:100CE0008021C90101432F4801602E48006801217D
:100CF00001432C4801608020800001900220029076
:100D000000200390042005900320049001A9A02056
:100D1000C00500F0EBFE8020C0000190042005908B
:100D200001A9A020C00500F0E1FE80204001019053
:100D3000012003900420059001A9A020C00500F027
:100D4000D5FE002203211B2001F0E7F81B2001F053
:100D5000EEF806B010BD10B50400104884421BD157
:100D6000114800688021C90101430F4801600E4805
:100D700000680E4901400C48016080218900A020D4
:100D8000C00500F09CFF8021C900A020C00500F034
:100D900096FF1B2001F0D2F810BD00003C0300209C
:100DA0002C1002403410024024100240FFBFFFFF0D
:100DB0000068410A0800C007C00F70470068410C76
:100DC0000800C007C00F70474168802292000A43A4
:100DD000426070474168802292020A434260704735
:100DE000704780B5002001F0C5F8FBE780B5002012
:100DF00001F0C0F801BD80B5002001F0BBF801BDD5
:100E0000704780B51C4801F0C9F801BD80B51B488A
:100E100001F0C4F801BD80B500F05BFE01BD704774
:100E20007047704710B50400200001F0FBFB10BDB7
:100E300080B51348FFF72AFB01BD80B51148006853
:100E4000FFF724FB01BD80B50F48FFF7B7FF01286E
:100E500004D10D48FFF7BEFF01F04CFA01BD80B58B
:100E60000948FFF7A5FF012804D10748FFF7ACFFA9
:100E700001F06AFA01BD000058050020900500202D
:100E80003C0300202C06002000000240704702684E
:100E9000531C036011707047F8B5040000252078DA
:100EA000C00771D59A4800680C210140082909D073
:100EB000974800680C2101400C290CD19448006827
:100EC000C00308D59348006880035DD5606800289A
:100ED0005AD101209AE2606880214902884207D1F4
:100EE0008C4800688021490201438A4801602CE057
:100EF0006068A021C902884214D186480068BD49B3
:100F0000014084480160834800688021C902014390
:100F1000804801607F4800688021490201437D4884
:100F2000016012E07B480068B249014079480160E5
:100F30007848006880214902084000900098754870
:100F40000068AD49014073480160606800280DD019
:100F500000F0C5FD05006F480068800314D400F060
:100F6000BEFD401B6528F6D303204FE200F0B7FD1D
:100F7000050068480068800306D500F0B0FD401BFE
:100F80006528F6D3032041E2207880075BD56048CE
:100F900000680C210140042909D05D4800680C213B
:100FA00001400C2916D15A480068C00312D4594890
:100FB0000068400704D5E068012801D0012025E23F
:100FC000C1480068C1490140206900020843BE4988
:100FD000086038E0E06800281FD04E48006809210A
:100FE0008843E16801434B48016000F078FD05004B
:100FF00048480068400706D400F071FD401B0328F4
:10100000F6D3032002E2B0480068B04901402069ED
:1010100000020843AC49086015E03E480068092119
:101020008843E16801433B48016000F058FD05003A
:1010300038480068400706D500F051FD401B0328E2
:10104000F6D30320E2E12078C00665D53048006879
:101050000C21014000291DD12E480068800504D5CF
:10106000E069002801D10120D0E197480068AF492C
:101070000140606A08439449086093480068000290
:10108000000A216A090601438F480160032000F02D
:101090000EFD41E0E069002826D01E48006880214E
:1010A000490001431B48016000F019FD0500194883
:1010B0000068800506D400F012FD401B0328F6D31B
:1010C0000320A3E18048006898490140606A084312
:1010D0007D4908607C4800680002000A216A090610
:1010E00001437948016017E00A480068BC490140A3
:1010F0000848016000F0F3FC050006480068800520
:101100000AD500F0ECFC401B0328F6D303207DE158
:101110000C10024000100240207800072AD56069B8
:10112000002813D0BA48006801210143B848016083
:1011300000F0D5FC0500B648006880071AD400F01E
:10114000CEFC401B0328F6D303205FE1B0480068C3
:1011500001218843AE49086000F0C1FC0500AC489D
:101160000068800706D500F0BAFC401B0328F6D3C0
:1011700003204BE12078800640D5A06900281FD0CD
:10118000A448006801210143A2480160A248006808
:1011900001210143A0480160A0480068A049014323
:1011A0009E48016000F09BFC05009A48006880079B
:1011B00024D400F094FC401B0328F6D3032025E13F
:1011C0009448006801218843924908609348006868
:1011D000944901409148016000F081FC05008D4870
:1011E000006880070AD500F07AFC401B0328F6D37C
:1011F00003200BE1FFFFFEFFFFFFFBFF207840070E
:1012000000D4A7E00027002687480068C00008D463
:101210008548006880214905014383480160012019
:10122000070082480068C00516D480480068802105
:10123000490001437D4801600120060000F04FFC99
:1012400005007A480068C00506D400F048FC401B41
:101250006528F6D30320D9E0A068802149008842A0
:1012600007D16B480068802149000143684801604C
:101270003AE0A06800280CD1654800685849014050
:101280006348016062480068694901406048016044
:101290002AE0A068A021C900884219D15C480068F2
:1012A0004F4901405A480160594800688021C900EF
:1012B00001435748016056480068802149000143B6
:1012C0005348016010E000BF04100240FFE0FFFF40
:1012D0004F480068424901404D4801604C48006851
:1012E000534901404A480160A06800280ED000F030
:1012F000F6FB050046480068800519D400F0EFFBB6
:10130000401B4C498842F5D303207FE000F0E7FB07
:1013100005003F48006880050AD500F0E0FB401B4F
:1013200044498842F5D3032070E000BFFF1FFFFF50
:10133000F6B2012E05D13D480068294901403B48DD
:101340000160FFB2012F05D1374800689F49014075
:1013500035480160A06A002857D09D4800680C21DC
:1013600001400C294FD0A06A022834D19B48006864
:10137000984901409948016000F0B1FB0500974889
:101380000068800106D500F0AAFB401B0328F6D3B5
:1013900003203BE08E4800688F490140206B0843E2
:1013A000616B0143E06A0843894908608B48006823
:1013B0008021490401438948016000F090FB050049
:1013C00086480068800120D400F089FB401B032878
:1013D000F6D303201AE0814800687E4902E000BF8E
:1013E000FFFEFFFF01407D48016000F078FB050033
:1013F0007A480068800108D500F071FB401B032883
:10140000F6D3032002E0012000E00020F2BD00003E
:1014100050100240081002403410024020000140E9
:1014200001200000FEDFFFFF381002400070004086
:10143000FFFBFFFF8913000070B505000C000026BC
:10144000674800680100C907C90FA1420FD264486C
:1014500000680121884320436149086060480068B2
:101460000100C907C90FA14201D00120ACE02878D2
:10147000800707D556480068F0218843A9680143D2
:10148000534801602878C0076CD56868022805D1E8
:1014900052480068800319D4012095E0686800284C
:1014A00005D14E480068800510D401208CE06868A2
:1014B000032805D149480068800107D4012083E052
:1014C00046480068400701D401207DE0404800689C
:1014D00003218843696801433D48016000F0FFFA39
:1014E0000600686802280DD1394800680C210140C7
:1014F000082937D000F0F3FA801B7F498842F3D3E4
:10150000032061E0686803280DD1314800680C2190
:1015100001400C2926D000F0E2FA801B764988426F
:10152000F3D3032050E0686800280DD128480068F4
:101530000C210140002915D000F0D1FA801B6E4922
:101540008842F3D303203FE0214800680C2101408A
:10155000042907D000F0C3FA801B67498842F3D3FF
:10156000032031E01E4800680100C907C90FA142ED
:101570000FD31B48006801218843204318490860A5
:10158000174800680100C907C90FA14201D0012016
:101590001AE02878400707D50D4800685D490140EA
:1015A000E86808430A4908602878000708D5084811
:1015B0000068594901402869C0000843044908608F
:1015C000032000F074FA002070BD0000FFFFFFEF61
:1015D0000C100240FFFFFFFEFFFF02FF0010024061
:1015E00000200240F8B500240025002000900026CD
:1015F00000274C480068400B4007400F0600474852
:1016000000680C210140002906D004290DD00829CA
:1016100015D00C2916D048E001203100491C884023
:10162000802109024843070047E03D480068C006A2
:1016300002D53D48070001E03C4807003DE03C483A
:1016400007003AE035480068F021890301400C00AA
:1016500032480068C021090401400D003548A10C42
:10166000445CAD0D6D1C2D48006880214902084086
:1016700000900098002811D129480068C00606D5BE
:1016800029486043290000F0A6F907000CE027482C
:101690006043290000F09FF9070005E024486043FB
:1016A000290000F098F9070007E001203100491CEB
:1016B000884080210902484307003800F2BD80B508
:1016C000FFF790FF1C49154A126812091207120F02
:1016D000895CC840194908601848006802BD80B597
:1016E000FFF7EDFF14490D4A1268120A5207520F14
:1016F000895CC84002BD00008913000080B5FFF777
:10170000DEFF0D49054A1268D20A5207520F895C62
:10171000C84002BDFFF8FFFFFFC7FFFF0C100240EB
:10172000001002400410024000093D000024F400B3
:1017300000127A001C430008F04200085801002003
:10174000010000BF42221201D21E004207D002D483
:10175000521E0018FCD5C10A4005120589187047B1
:10176000F0B50E005E400125ED072E40B446AE0AEE
:10177000DF184C18F44208D2F7420ED2640D01D0A3
:101780007F0D12D100206146F0BD05D1F74201D88E
:101790007F0D05D10020C143F0BDFBD1640DF9D010
:1017A0000020C143490549088FE0E419C902DB0262
:1017B00029432B43DB0A460DC00231438E4630B429
:1017C00087B295B27D432E0CADB2140C7C43A419A4
:1017D000260C240425439CB27C43A419190C79439C
:1017E000270CC919A4B20F043C43090C000C97B292
:1017F00047432E0CBE193543ADB2170C4743360C88
:10180000BF19A6B2BF193E043543240C3E0C36194D
:101810009FB24743BF19BCB23E0C89191F0C474306
:101820007F183E043443390C704680B297B2474368
:101830002E0CBE193543ADB2170C4743360CBF19F9
:10184000A6B2BF193E043543240C3E0C36199FB294
:101850004743BF19BCB23E0C89191F0C47437F1880
:101860003E043443390C77463F0C90B278432E0C3B
:1018700080190604ADB22E43050CA0B22D18120C2F
:101880007A435019020C80B2240CA4189AB27A43FD
:10189000121914042043120C89181B0C7B43C9181D
:1018A00030BCEF0A394203D1B61940414941641EA8
:1018B0006F12BF0DE41B0BDBFF19BC4211DA2405CC
:1018C00000274208AE417841614166463143F0BD90
:1018D000641C05D1401C6141CF0201D34908F4E7E3
:1018E00050E75DE7F0B40E005E400125ED072E40A5
:1018F000B446AE0ADF184C18F4423BD2F74241D24C
:10190000640D43D07F0D38D0E41BC902DB022943AC
:101910002B43CF0ADB0A0600B61A9F4104D2641E8D
:10192000B6197F41B6185F416812800D241800185F
:10193000844222DAE80C0021B6197F41B61A9F4191
:1019400002D2B6185F413F1C40414941F4D3241CE8
:1019500021DD2405B6197F41B61A9F4105D33743CF
:10196000C60737430026012F704161416646314367
:10197000F0BC7047FCD1F74205D20020C1434905B5
:101980004908F3E704D00020C143F1E77F0DFAD006
:1019900000206146ECE72442FAD1401C61410F036C
:1019A000F6D30020E2E720004A1812D2400DC90207
:1019B00008430121C9070843520D40210901521A69
:1019C000521C06D452421F3201D4D0407047C01777
:1019D0007047002070470022030A8B420BD2030994
:1019E0008B4219D243088B422ED2411A00D20146B3
:1019F000524110467047FF2209023FD012068B4227
:101A000005D3121209028B4201D3121209020309F3
:101A10008B4219D300E0090AC3098B4201D3CB01E1
:101A2000C01A524183098B4201D38B01C01A524123
:101A300043098B4201D34B01C01A524103098B4227
:101A400001D30B01C01A5241C3088B4201D3CB0012
:101A5000C01A524183088B4201D38B00C01A5241F5
:101A600043088B4201D34B00C01A5241884200D335
:101A7000401A5241CFD201461046704708B500F0D7
:101A8000ADFE08BD80B517480068402101431548E8
:101A9000016014480068022188431249086003204D
:101AA00000F005F800F002F8002002BD704710B504
:101AB0000400FFF704FEFA218900FFF78CFF00F015
:101AC00044FA002221000020C04300F026FA002042
:101AD00010BD05480068401C034908607047024873
:101AE000006870470020024028060020F0B5020080
:101AF0000023002400250868D840002800D1DDE03C
:101B0000086801269E4006403400002C00D1D3E036
:101B10004868022802D0486812281BD1D808042639
:101B200070431018006A05000F201E007607760F1C
:101B300004277E43B040854308691E007607760F70
:101B400004277E43B04028430500D808042670438C
:101B5000101805624868012808D04868022805D096
:101B60004868112802D0486812281CD190680500E6
:101B700003201E0002277E43B0408543C8681E0034
:101B800002277E43B0402843050095605068050059
:101B900001209840854348680600F606F60F9E40EF
:101BA0002E43350055601068050003201E000227F3
:101BB0007E43B040854308798007800F1E000227CE
:101BC0007E43B040284305001560D068050003201F
:101BD0001E0002277E43B040854388681E0002270E
:101BE0007E43B04028430500D5604868C00063D5F7
:101BF0008B480068012606438948066089489E088C
:101C000004277E43805905000F201E00B607B60F3B
:101C100004277E43B0408543A020C005824201D105
:101C2000002014E08048824201D101200FE07F486B
:101C3000824201D102200AE07D48824201D1032084
:101C400005E07C48824201D1052000E006201E000C
:101C5000B607B60F04277E43B040284305007148FD
:101C60009E0804277E438551734800680500A543FC
:101C70004868C00300D525436F4805606F48006879
:101C80000500A5434868800300D525436B480560DF
:101C90006B4800680500A5434868C00200D525438D
:101CA00067480560674800680500A54348688002EA
:101CB00000D52543634805605B1C1CE7F0BDF8B503
:101CC0000022002300240D00D540002D00D19CE00F
:101CD000012595400D402B00002B00D193E00668B4
:101CE0000327BC46150002277D436746AF40BE432D
:101CF0000660D5080426754345190095D5080426C5
:101D0000754345192F6A0F25AC4615006E07760FEF
:101D100004256E436546B540AF43009D2F6286683B
:101D20000327BC46150002277D436746AF40BE43EC
:101D30008660456801269640B5434560C66803271E
:101D4000BC46150002277D436746AF40BE43C660D0
:101D5000344D960804277E43AD592C000F251600FC
:101D6000B607B60F04277E43B54025402C00A025BA
:101D7000ED05A84201D1002514E02B4DA84201D168
:101D800001250FE0294DA84201D102250AE0284D86
:101D9000A84201D1032505E0264DA84201D1052521
:101DA00000E006251600B607B60F04277E43B540AF
:101DB000AC4228D10F251600B607B60F04277E4384
:101DC000B5402C00174D960804277E43AE59A64314
:101DD000144FBC46950804277D4367467E51164D37
:101DE0002D689D43144E3560144D2D689D43134E50
:101DF0003560134D2D689D43114E3560114D2D6892
:101E00009D43104E3560521C5DE7F1BD00B5D2B266
:101E1000002A02D089B2816101E089B2816200BDED
:101E20003410024008000140000400500008005037
:101E3000000C0050001C005000040140040401404C
:101E4000080401400C0401400121C206D20E914059
:101E5000414A116070470121C206D20E91403F4AAB
:101E600011607047F0B540B2002821D53C4C40B21B
:101E70000207120F083A950804225543384A40B227
:101E800003071B0F083B9B0804267343D258FF230C
:101E90008607B60F08277E43B3409A438B01DBB217
:101EA0008607B60F08277E43B340134363511AE0F9
:101EB0002C4A40B2830804246343D258FF2384078A
:101EC000A40F08256C43A3409A438B01DBB284071F
:101ED000A40F08256C43A3401343224A40B2840850
:101EE00004256C431351F0BD10B50400601E802121
:101EF0004904884201D301200EE0601E1A4908609F
:101F000003210020C043FFF7ADFF00201749086000
:101F1000072017490860002010BD70B504000D00AF
:101F200016002900200040B2FFF79CFF70BD10B5DD
:101F30000400200040B2FFF787FF10BD10B5040079
:101F4000200040B2FFF787FF10BD10B5040020004D
:101F5000FFF7CAFF10BD000000E100E080E100E0F3
:101F60001CED00E000E400E014E000E018E000E018
:101F700010E000E010B5040001220648E4B202219E
:101F80006143415A0448E4B204236343C058FFF755
:101F90003DFF10BDA61900085401002010B5040033
:101FA0002068006980071BD52068C068800717D5A6
:101FB0000220C043216808610120207520688069E3
:101FC0008007800F002803D0200000F08BF805E088
:101FD000200000F086F8200000F085F80020207531
:101FE0002068006940071CD52068C068400718D5E4
:101FF0000420C043216808610220207520688069A0
:10200000C02189000140002903D0200000F06AF8B7
:1020100005E0200000F065F8200000F064F80020E2
:1020200020752068006900071BD52068C06800077C
:1020300017D50820C0432168086104202075206856
:10204000C0698007800F002803D0200000F04AF804
:1020500005E0200000F045F8200000F044F80020E2
:10206000207520680069C0061CD52068C068C006BD
:1020700018D51020C0432168086108202075206809
:10208000C069C02189000140002903D0200000F070
:1020900029F805E0200000F024F8200000F023F8E3
:1020A0000020207520680069C0070AD52068C06834
:1020B000C00706D50120C043216808612000FEF753
:1020C000AEFE2068006940060AD52068C068400658
:1020D00006D54020C04321680861200000F004F8C4
:1020E00010BD7047704770477047FEE7BD4A5218F1
:1020F000521E1278825801231343BA4A5218521EB4
:1021000012788350704710B4B64B5B185B1E1B7877
:10211000C318B44C6418641E247804196468240C31
:10212000240414435C6010BC704730B5039C102C31
:1021300018D1AC4D6D186D1E2D784519ED68A94D5F
:102140006D186D1E2D784519EA60A64D6D186D1E2F
:102150002D784519AD68A34D6D186D1E2D78451964
:10216000AB6017E09F4D6D186D1E2D784519AD6859
:102170009C4D6D186D1E2D784519AA60994D6D18EE
:102180006D1E2D784519ED68964D6D186D1E2D78D4
:102190004519EB6030BD934A5218521E127882588E
:1021A000022313438F4A5218521E127883507047ED
:1021B00038B58D480068012101438B4801608A4889
:1021C00000680100C907C90F0091009804208749E1
:1021D000486000208549886000208449C86000204C
:1021E0008249086100208149486100207F49886157
:1021F00020207E49C861802040017C490862B9489E
:102200007A490860794800F0EBFA002801D000F024
:1022100019FA002200210B20FFF77FFE0B20FFF7A9
:1022200086FEB14DB14C0020009023002A0005210C
:10223000CD48FFF77AFF01220521CB48FFF763FF66
:102240000521C948FFF7A7FF0521C748FFF74EFF43
:1022500065480068012101436348016062480068E5
:102260000100C907C90F009100980320A0494860E8
:1022700000209F49886000209D49C86000209C493B
:10228000086100209A49486100209949886120200E
:102290009749C86180204001954908629548944952
:1022A0000860934800F09CFA002801D000F0CAF9B9
:1022B000002200210A20FFF730FE0A20FFF737FE38
:1022C000AA480500AA4804000020009023002A0024
:1022D0000321A548FFF729FF01220321A248FFF7A8
:1022E00012FF0321A048FFF756FF03219E48FFF786
:1022F000FDFE31BD00B50120A449087000209D49B4
:10230000C8667A489B49C86401209B49088001201F
:102310009A4908809A480078222803D132209849A7
:10232000087002E012209649087000209749087052
:10233000904800680068802101438E480068016071
:1023400000209249087000BD00B501209F4909682E
:102350006831087000209D490968C86684489B4917
:102360000968C86401209949096850310880012032
:1023700096490968523108809448006869300078AD
:10238000222805D13220914909686931087004E09A
:1023900012208E4909686931087000208B4909684C
:1023A000683108708948006800680068802101432E
:1023B000864800680068016000BD80B571484078BB
:1023C000F12101406F48417000206F49087000F012
:1023D00093F800F00DF80A217D4800F0C7FAFFF7E6
:1023E000E7FE01BD3C43000830100240E00400203D
:1023F00000B56448007808210143624801706148D3
:102400000078802101435F4801705E480078BF2159
:1024100001405C4801705B484078F1210140594817
:10242000417000205749487400205649C874002064
:102430005449887400205349486052484078FE212E
:10244000014050484170FF204E49C87502204D4957
:10245000087502204B49487500204A4988750020BC
:102460004849C8605C4800F095FA5B490122024384
:10247000100000F09BFA584800F08CFA56490222EE
:102480000243100000F092FA524800F083FA5149DA
:10249000524A0240100000F089FA4F48C079DF210B
:1024A00001404D48C1714C488079012101434A489F
:1024B00081714948C079EF2101404748C1714648C0
:1024C000C079BF2101404448C1714348C0794006EA
:1024D000400E4149C8714048007AFE2101403E4803
:1024E000017200BD5800024024440040370600201D
:1024F0001C0500203000024070B53948C079C72162
:1025000001403748C1710020364908600020364933
:102510000860002035490860002035490860002027
:10252000344908600020344908800020334908609D
:102530000020334908600020324908600020284903
:102540004873002030490860002030490880052089
:102550002F490880012400252E4E2A00210030003A
:1025600000F02EFA70BD0000000002402438014047
:10257000AE0100203C0300208C0300208E030020CD
:10258000A5030020FC05002034060020A403002041
:1025900080B5002280214901A020C005FFF736FC4C
:1025A00001221D491D48FDF7FCFE002803D01C48F0
:1025B00000F030FA09E0084800F0ECF90649802202
:1025C00092010243100000F0F1F901BD2C06002039
:1025D000B00400201606002014060020FFFFFFEFC5
:1025E0006001002004020020F80100200002002009
:1025F0001002002008020020F00100201402002038
:102600001C0200202002002024020020EC010020F7
:10261000F201002036060020AE0100203C0300201D
:102620002842000810B5040000F00CF810BD70B589
:1026300001240025374E2A002100300000F0C0F9A7
:1026400070BD000080B50020FFF794FC01BD10B5FF
:1026500004002F480078C0B200090100C907C90F63
:1026600000290AD12A480078C0B280090100C907B0
:10267000C90F002901D1052048E0284800F08AF957
:1026800001008905C90F002907D1244800F082F90B
:102690000100C905C90F002901D0102036E01F48EC
:1026A00000F078F902001D4980204001104300F03D
:1026B0007DF9A4B2002C04D1174800F0ABF91F201B
:1026C00024E0FA239B00220092B212491448FDF73D
:1026D0005AFD002806D0FFF7B5FF124800F09AF91E
:1026E0000F2013E00D4800F055F902000B490E4889
:1026F000104000F05BF9094800F04CF90100890432
:10270000C90F002901D1FFF743FF002010BD0000D1
:10271000FC050020350600200842000814060020B1
:102720003C0300207C420008FFEFFFFF70B506006D
:102730000D000024FFF77BFF2B00320024490E48D8
:1027400000F07AF90C4800F093F9FA239B0002009C
:1027500092B209491F48FDF716FD002803D0FFF784
:1027600071FF0F2005E0062000F008F804002000AB
:10277000C0B270BD0000000035060020F0B591B079
:102780000500402600276C463A003100200000F08A
:1027900017F90024ADB2412D15DAFA239B002A0067
:1027A00092B269460B48FDF761FD002803D0FFF7A0
:1027B00049FF0F2009E008A1684600F061F90028F0
:1027C00001D10D2001E02000C0B211B0F0BD000029
:1027D000BC4200083C0300204F4B00007047FEE75E
:1027E00000B501000022002901D10120A0E0252030
:1027F000085C002802D100202423C854022025238D
:10280000C85408680068020010004A4A02401000DC
:102810008A68CB6813430A691A434B6913438A6970
:102820001A43CB6913430A6A1A43024308680260D9
:102830000868414B98420CD1404800680F239843E8
:102840003E4B18603D4800684B6803433B480360BB
:102850006AE008683A4B98420DD138480068F02386
:102860009843364B1860354800684B681B0103439A
:102870003248036058E00868324B98420DD12F4827
:102880000068314B03402D4803602C4800684B68BA
:102890001B0203432948036046E008682B4B98421B
:1028A0000DD1264800682A4B034024480360234882
:1028B00000684B681B0303432048036034E008684A
:1028C000244B98420DD11D480068234B03401B4800
:1028D00003601A4800684B681B04034317480360F1
:1028E00022E008681D4B98420DD1144800681C4B2B
:1028F000034012480360114800684B681B050343FE
:102900000E48036010E00868164B98420CD10B4843
:102910000068154B034009480360084800684B688D
:102920001B0603430548036001202523C8540020EB
:1029300000BD00000FC0FFFF08000240A8000240D9
:102940001C00024030000240FFF0FFFF4400024044
:10295000FF0FFFFF58000240FFFFF0FF6C00024036
:10296000FFFF0FFF80000240FFFFFFF010B40823BD
:102970001A0013000C0063438380002303800023AC
:10298000C38000234380024B836010BC704700006B
:10299000AC030020C3788278417800781B021A4388
:1029A00009021204084310437047FEE7844608708A
:1029B000000A4870000A8870000AC87060467047B4
:1029C0001206130A1A43130C1A4300BF094205D01A
:1029D000830705D00270401C491EF9D170470000E2
:1029E000130030B414001500103902D310393CC064
:1029F000FCD2490700D30CC000D504C0890002D323
:102A00000280801C002900D5027030BC7047000095
:102A10000022E5E70EB400B582B003A900916B4631
:102A200002000121034878440A3000F031F802998D
:102A300006B00847611800000CB41CB5040004A8D7
:102A40000190009401AB0A006946084878441C30A4
:102A500000F01EF80021009A1170002801D400989F
:102A6000001B02B0019910BC03B0084723E4FFFF2C
:102A7000010000E0491C0A78002AFBD1081A7047BF
:102A800038B505000C002100280000F015FC32BD0F
:102A9000F9B595B014004A487844FF3025300CC889
:102AA00013A80CC0099108AD0020E86101E000986E
:102AB000241800206946C88013AB0022D2432100AD
:102AC00001A8801C00F014FC0090012805DA207891
:102AD000411E8941C943C90F00916846C088252815
:102AE000009E00D1761E012E0EDB27003978099852
:102AF000159A90470990002800D1EEE1E869401C42
:102B0000E8617F1C761EF1D16846C088252804D173
:102B1000002028616861A86108E06846C088002834
:102B2000C5D1E869DBE1010001200843641C21787C
:102B30002029F8D023290ED02B2904D02D2907D005
:102B400030290BD00DE001000220084380B2EDE7F0
:102B500001000420F9E701000820F6E70100102039
:102B6000F3E72A2912D116990968169A11600A68A2
:102B7000091D169B19606A62002A05D551426962D7
:102B800001000420084380B2641C12E00021696245
:102B90000AE06A6A0B4B9A4205D093009A185200D9
:102BA000511830396962641C21780A00303A0A2AC7
:102BB000EFD321782E2907D00021C943296225E0CF
:102BC00084170000FFFFFF7F641C21782A290AD1A7
:102BD00016990968169A11600A68091D169B1960F2
:102BE0002A62641C12E0002129620AE02A6ABD4BB5
:102BF0009A4205D093009A18520051183039296230
:102C0000641C21780A00303A0A2AEFD328852678F6
:102C1000310000BFB4A000F079FB002801D0641C93
:102C200000E000262A202E54285C682806D120784F
:102C3000682803D162202A216854641C02A8E86035
:102C40002678641C252E15D0582E4BD0632E00D12B
:102C5000A9E0642E00D184E0692E00D181E06F2EBE
:102C600040D0702E31D0732E0AD0752E3AD0782EE7
:102C700038D0C0E001202861252069460872C5E0EF
:102C80002A20285C6C28169800681699086017D0CE
:102C90000668001D16990860AE602F6A002F03D5E4
:102CA0003000FFF7E5FE09E03A000021300000F0B7
:102CB00037FB002801D0801B00E038006861A5E0E8
:102CC0000268001D169908608EE016980068169933
:102CD00008600168001D169A1060089102A8A8609B
:102CE00078215CE02A20285C6C2801D1169810E03D
:102CF000712801D1169802E06A28169809D1026855
:102D0000D21D072082431698026003CA169B1A60E0
:102D100005E0016801600868091D169A11600890B5
:102D20002A20285C682802D1089880B203E0622833
:102D300002D10898C0B208902820285C000729D545
:102D40000898002826D020203043782822D12869EE
:102D5000302102AA1154401C411C296102A90E54C1
:102D600018E016992A20285C00F0C2F80890002884
:102D700002D528692D2109E0288D810702D528690F
:102D80002B2103E0C00705D52869202102AA115490
:102D9000401C286102A829694018A860310008A8D1
:102DA00000F0F6F932E02A20285C6C280CD00120D3
:102DB000286116980068169908600168001D169A27
:102DC00010606846017221E0169800681699086044
:102DD0000168001D169A106068460180002069464F
:102DE0004880C04328626A4608A9159800F0A6F8F2
:102DF00000280BD571E00120286125206946087262
:102E0000002E03D00220286102A84670686A296952
:102E1000401AA969401A6969401A00902820285C64
:102E2000400710D4202069460871002608E00123DD
:102E300001AA08A9159800F027FA00284DD1761CA0
:102E400000988642F3DB2F6902AE0BE031780998D7
:102E5000159A9047099000283FD0E869401CE86126
:102E6000761C7F1E002FF1D1302069460871AF69B2
:102E7000002608E0012301AA08A9159800F004FA29
:102E800000282AD1761CBE42F4DB6F69AE680BE0E5
:102E900031780998159A9047099000281DD0E86963
:102EA000401CE861761C7F1E002FF1D12820285C91
:102EB000400700D4FDE5202069460871002600E0A7
:102EC000761C0098864200DBF3E5012301AA08A9DD
:102ED000159800F0D9F90028F2D00020C04317B0AF
:102EE000F0BD0000FFFFFF7F686C747A4C000000AB
:102EF000622815D068280CD06C2818D0742816D0F9
:102F00007A2814D10A680A601068121D0A6000212C
:102F100070470A680A601068121D0A6000B20BE070
:102F20000A680A601068121D0A6040B204E00A686C
:102F30000A601068121D0A60C1177047F4B598B096
:102F400007000C00206A002800D58E48019000F090
:102F5000F3F9616A081804908BA003C806AA03C29B
:102F60002820205C400702D40498412805D208A8F4
:102F700003904020049000260EE000F0E3F9039057
:102F80000028F8D10020C043FAE01898801C18905F
:102F900001980099401A01900198012800DA93E005
:102FA00006AA1898018802A8401C00F027FA009091
:102FB000002800D596E018980088002804D10098D1
:102FC000401E009000D58DE00198009988427BDB7F
:102FD00020690499009A8218914264D200216162AA
:102FE0004142A069081A6169401A05902820205CB6
:102FF000400710D4202069460872002508E001230C
:1030000002AA2100380000F03FF900286AD16D1CA7
:1030100005988542F3DB2669039D0AE029786068FC
:10302000B847606000285DD0E069401CE0616D1C1D
:10303000761E002EF2D1302069460872A66900255E
:1030400008E0012302AA2100380000F01DF9002841
:1030500048D16D1CB542F4DB6669A5680AE02978A1
:103060006068B847606000283CD0E069401CE061BF
:103070006D1C761E002EF2D12820205C400710D552
:10308000202069460872002508E0012302AA2100D9
:10309000380000F0F9F8002824D16D1C059885420D
:1030A000F3DB00202061009A02A9491C03982369E0
:1030B000C01800F0AFF920690099401820611898F5
:1030C0000088002800D060E7606A2169401AA16981
:1030D000401A6169401A01902820205C400711D4F1
:1030E00000250CE00026F64343E020216068B84745
:1030F00060600028F6D0E069401CE0616D1C01981A
:103100008542F2DB2369039A2100380000F0BCF805
:103110000028E7D1A0690090002509E0302160680F
:10312000B84760600028DDD0E069401CE0616D1C9C
:1031300000988542F2DB6369A2682100380000F044
:10314000A3F80028CED12820205C40070ED500250A
:1031500009E020216068B84760600028C2D0E069BB
:10316000401CE0616D1C01988542F2DB002020616B
:103170006062039808A9884201D000F079F9300014
:1031800019B0F0BDFFFFFF7F00000000000000004D
:10319000F2B582B00400E06800906846007A6F28BB
:1031A00001D1082506E020220243782A01D00A2511
:1031B00000E01025182721680E00642801D0692836
:1031C00003D1002901D570420600002E0DD1206ADE
:1031D00000280AD1082D31D12820205C00072DD5E8
:1031E000172730200099C87528E07F1E019730000E
:1031F0002900FEF7F0FB3031C9B23A2903DB6846FB
:10320000007A513809180098C15530002900FEF79E
:10321000E2FB060004D0A0680099C9198842E4D3F3
:10322000082D0BD12820205C000707D50098C05D31
:10323000302803D07F1E30200099C8551820C01BAD
:1032400060610099C919A160216A884206DA081AEA
:10325000A061208D0B490140218510E000290ED589
:103260002821615C14220A40102A08D1616A22696F
:10327000891AA269891A0F1A012F00DBA76103B00E
:10328000F0BD0000EFFF000079B50E0014001D0036
:10329000002005E0F069401CF0610020641C6D1EF8
:1032A000002D08D021787068009A9047706000283F
:1032B000F0D10020C04376BD70B40A78002A08D14E
:1032C00014E05B1C1E78A6420AD001E0002C0CD052
:1032D000401C04789442F9D1002806D003000D0068
:1032E0006D1C2C78002CECD100E0002070BC7047E5
:1032F000F8B504000F0015001E0000F0FDF83300C3
:103300002A003900200000F00BF9F2BDC9B200E03C
:10331000401C02788A4202D0002AF9D1002070476E
:10332000C9B201E0401C521E002A03D003788B4230
:10333000F8D170470020704780B500F0DDF801201B
:1033400002BDFEE770B505002C000F340720844352
:10335000C046C046A54233D2082C04D2082402E05D
:10336000083000F085F82448026811000CD1011DD6
:103370000A68002A20D01368A34212D2111DF7E771
:103380001D68A5420DD2191D0B68002BF8D11268DB
:10339000011D00E0191D0B6893420DD01D68A54268
:1033A000F8D300290CD00D682A681300083BA3420B
:1033B0000AD26A680A600FE000F0D0F80028CFD186
:1033C000C046C046002070BD2B190B606E685E6061
:1033D000121B0B681A602C600968002904D04A6827
:1033E000002A01D0091D00E000210160C046C0464E
:1033F0000835280070BD00002006002070B50400CC
:103400000D00160000F078F832002900200000F0CE
:103410007DF870BD124207D08B0706D00B78491C8F
:103420000370401C521EF7D87047830706D00B78F4
:10343000491C0370401C521EF9D1704770B4103AF9
:1034400003D378C9103A78C0FBD2530701D318C907
:1034500018C001D508C908C0D20704D30B8803805F
:10346000891C801C002A01D50B78037070BC704742
:10347000002800D1704738B50838040020680828B3
:1034800036D3400734D1C046C0461A4841680029A7
:1034900001D08C4203D26160446019E019004B688E
:1034A000002B01D0A342F9D30B68CD18AC421DD339
:1034B000A54204D122689A180A600C0008E04A6804
:1034C000002A03D02368E3189A420FD362604C604D
:1034D000616800290AD02268A3188B4206D1002314
:1034E000036008681018206048686060C046C046E5
:1034F00031BD00002006002080B5034800F044F8EC
:10350000806902BD0000000008000020002804D1EE
:103510000EA003C803C2002070470170012070474D
:10352000002904D10BA003C803C300207047002A60
:1035300002D10120C0437047002801D00A780280E0
:103540000978481E8041C043C00F7047000000004A
:1035500000000000000000000000000007490868AB
:10356000002801D0002070470548072290430860DA
:1035700004499143091A0160704700BF30060020DA
:103580003F0A0020380C00207047FEE710B50024E9
:10359000FEF778FA00F036F8E120400200F000F97A
:1035A000E120400200F02DF900F08DF8E121490200
:1035B0006C4800F063F86B4800F062F96A48FFF766
:1035C00029FA6A48FFF726FA6948FFF723FA69489B
:1035D000FFF720FA6848FFF71DFA6448FFF71AFA68
:1035E0006648FFF717FA664800F050F90400E4B2A5
:1035F000002C04D06348FFF70DFA002001E000BF63
:10360000FDE710BD00B593B05F4800688021490513
:1036100001435D4801605D4800685D4901408020CC
:1036200000010843594908600220059001200890D4
:103630001020099002200F90002010908020C002DE
:1036400011908020C003129005A8FDF725FC0F20E3
:10365000009001200190002002908020C000039083
:103660000020049001216846FDF7E6FE4948006805
:10367000012101434748016013B000BD38B5050082
:103680000C00454828606C600020A8600020E860BD
:10369000002028610020A8610C2068612800FCF748
:1036A0004DFD002801D0FEF7CDFF2800FCF708FDF6
:1036B000002801D0FEF7C6FF28688068402101433A
:1036C0002868816031BD00B587B0344800680121A9
:1036D000014332480160314800680100C907C90F41
:1036E000009100982D480068012101432B4801609A
:1036F0002A4800680100C907C90F009100982248B4
:1037000000688021890201431F4801602148006848
:10371000012101431F480160042001900220029012
:1037200001200390032004900420059001A9A0200B
:10373000C005FEF7DBF9082001900020029002206E
:1037400002900420059001A9A020C005FEF7CEF943
:10375000012200211C20FEF7E0FB1C20FEF7E7FB06
:1037600007B000BDCC0200200840000888400008D7
:10377000C4400008004100083C41000848400008DF
:10378000C8050020D04200083810024000700040F8
:10379000FFE7FFFF34100240004400402C100240BD
:1037A00010B504002F48304908602F4844600020BD
:1037B0002D49886000202C49C86000202A490861F2
:1037C00080204000284988610C202749486100205A
:1037D0002549C8612448FCF7B1FC002801D0FEF758
:1037E00031FF2148FCF76CFC002801D0FEF72AFFCE
:1037F0001D4800688068402101431B4800688160C3
:1038000010BD38B50400194800781021014317484D
:10381000017021001648FEF789FF0500FEF707FF3B
:1038200014491548FFF708F91348FFF721F980B24A
:10383000FEF70DFF0500FEF7FAFE10490E48FFF7F0
:10384000FBF80D48FFF714F980B2FEF700FF050002
:10385000EDB2002D02D12000FFF7A2FFFEF798FE87
:1038600031BD0000003801403C030020FC05002071
:10387000E0420008344300083506002010430008E9
:1038800001490860704700BF2C06002038B50400CD
:103890000025FEF792FD2800C0B232BDF8B5040045
:1038A0000E001500207880075CD0200000F09EF804
:1038B000002857D1002E02D003CE083E2D180098C4
:1038C00001283CD12088C00416D522003D32A169D0
:1038D000200000F0ABF80700626A002A00D12269DC
:1038E000E168200000F0A2F8E91B0D1AA26AE16865
:1038F000200000F09BF82D1A002D28D12088C0212F
:10390000890108420ED06068E0602061A0626061B9
:103910006068E06220003D30A06120002430E0615A
:1039200000206062002E04D0083603CE2200303220
:1039300003C220880F49014021800020F2BD0228E7
:1039400005D000280AD10020C04385420AD0009A41
:1039500029000320205600F06FF805000020C04326
:103960008542CBD100F08EF8232101600020C043B6
:10397000F2BD00BFFFCE000070B500F08BF8040070
:10398000208880042DD565680026F64308E04A1B90
:10399000290000F08FF8B0420DD000280BD02D1870
:1039A00003202056E1688D42F1D30022002100F06F
:1039B00081F8B0420DD16068E0606061E06220880B
:1039C0008021890001432180200000F064F830004C
:1039D00070BD6568E5606561E56220881149014058
:1039E0002180200000F057F8002070BDF8B50028B5
:1039F00015D1C046C04600240B4D08260027FF43C2
:103A00002868002804D0FFF7B7FF002800D53C0045
:103A10002D1D761EF4D1C046C0462000F2BDFFF732
:103A2000ABFFF2BDFFDF000034010020914201D264
:103A3000501A70470020704730B583B004000D0065
:103A4000012A02D100F08DF807E0022A07D1009484
:103A50000020019069460C20ABBE2D1801E0002A21
:103A60000CD10094019569460A20ABBE002805D10F
:103A700000222100280000F052F801E00020C0439D
:103A800003B030BD80B50248FFF77EFD02BD0000E7
:103A90005C0100207047704701B50023DB43012221
:103AA000694603480068FCF76EFB009802BD000001
:103AB0002C060020F8B504000F001500012C04D0DE
:103AC000022C02D00020C04309E000200600AE42D4
:103AD00004D2B85DFFF7E0FF761CF8E72800F2BDDE
:103AE00030B4002100242E4A13001D68854204D101
:103AF000E300D218116051600FE0641C9D6885429C
:103B0000F6D0641C1D698542F2D0641C9D69854213
:103B1000EED0641C2033102CE7D330BC704770B457
:103B200000241F4B1D002E688E4208D10100E400C6
:103B30001B19012A01D15A68891859600FE0641CC9
:103B4000AE688E42F2D0641C2E698E42EED0641CA8
:103B5000AE698E42EAD0641C2035102CE3D370BCD1
:103B6000704710B400220E490B001C68844203D138
:103B7000D0000818406810E0521C9C688442F7D0BE
:103B8000521C1C698442F3D0521C9C698442EFD0C1
:103B9000521C2033102AE8D3002010BC70470000CC
:103BA0004C020020816807E00268116851185368D0
:103BB000CB18C36008320260C2689142F4D04A1C3C
:103BC000826008787047F0B587B001000831029133
:103BD00002685208D20089180391002504950595C2
:103BE00001684908C9004418083440686946C30799
:103BF000DB0F4B704008C00020180190002735E013
:103C000002A8FFF7CFFF46B20AE002980168401809
:103C10000490029949684018059002980830029073
:103C2000049805998842F0D001786A461170401CCA
:103C30000490BD4210D10198844201D100F01EF8D9
:103C4000256868464078002801D048462D186068ED
:103C50002F180834BD42EED06846007828706D1CDD
:103C6000002E08D5761CE4D1BD42C9D1019884420A
:103C7000C6D107B0F0BD761ED2D5F5E780B50120DC
:103C800000F002F801BDFEE780B5C046C046024A1A
:103C900011001820ABBEFBE72600020038B5040077
:103CA000E0686169884254D321882B4A0A40022A7D
:103CB00009D0080402D58020800001E08420C001E2
:103CC000084320803FE0C025ED012940A94207D1EB
:103CD000A168884204D32000FFF788FE002832D173
:103CE0002088E90808421ED1616820003D308142E9
:103CF00019D180208000FFF725FB6060002806D1E5
:103D000020003D306060E060401CA0600BE0218836
:103D100040220A432280E060802189004118A1608E
:103D2000A0626068E06260682061A06860612078DD
:103D300040070BD502220021200000F00FF80021DF
:103D4000C943884202D10020C04332BD20880543C8
:103D50002580002032BD00BF0290000070B50D002C
:103D60001600FFF797FE040033002A000021FFF73A
:103D700095FD05002000FFF78EFE280070BDFEE7D0
:103D800010B500210278120626D50023214A1468B6
:103D9000844202D19B00D1501BE00123546884422D
:103DA000F8D0022394688442F4D00323D468844278
:103DB000F0D0042314698442ECD005235469844272
:103DC000E8D0062394698442E4D00723D46984426E
:103DD000E0D0FFF74DFB10BD0180C943C170010069
:103DE0003D31416001003D31C16001003D31016163
:103DF00001003D31816201003D31416101003D31F1
:103E0000C16201003D31816101002431C16110BDF9
:103E1000000000003401002016480068802149009D
:103E200001431448016014480068144901401248D5
:103E3000016010480068124901400E4801601148B5
:103E40000068012188430F4908600A4800680E494C
:103E5000014008480160084800680C4901400648D4
:103E6000016000200A4908608020000509490860B7
:103E700070470000001002400C1002400C40FF8808
:103E8000F6FFF6FE08100240FFFFFBFFFFFF02FFF8
:103E90001010024008ED00E070B5040020788007A3
:103EA00003D003202056002809D5C046C046200074
:103EB000FFF766FFC046C0460026F64329E0200013
:103EC000FFF794FD0600C046C0462078400602D5A4
:103ED0006068FFF7CDFA00256560032020560228B0
:103EE00005D900F018F8002801D00026F643A06B91
:103EF000002809D000F01CF8002801D00026F64365
:103F0000A06BFFF7B5FAA5632000FFF739FFC046A5
:103F1000C046300070BD10B582B002000092694604
:103F20000220ABBE04001000FFF7DAFD200016BD32
:103F300000B583B00090FEF79BFD019069460E200E
:103F4000ABBE03B000BDFEE710B5184C20680028DA
:103F500001D0FFF7A1FF6068002801D0FFF79CFFA8
:103F6000A068002801D0FFF797FFE068002801D083
:103F7000FFF792FF2069002801D0FFF78DFF6069ED
:103F8000002801D0FFF788FFA069002801D0FFF7C3
:103F900083FFE069002801D0FFF77EFF00220021A7
:103FA0000020C043FFF786FD10BD00BF3401002094
:103FB00038B504000800FFF76DFD0500E868696981
:103FC000884204D32800FFF769FE002810D4E8686F
:103FD000411CE96004702888010504D440050DD512
:103FE000E4B20A2C0AD12800FFF700FD002805D012
:103FF0002800FFF750FD0020C04332BD2800FFF726
:104000004AFDE0B232BDFEE70D0A0A2F2A2A2A2A0B
:104010002A2A2A2A2A2A2A2A2A2A2A2A2A2A2A2A00
:104020002A2A2A2A2A2A2A2A2A2A2A2A2A2A2A2AF0
:104030002A2A2A2A2A2A2A2A2A2A2A2A2A2A2A2AE0
:104040002A2A2A2A0A0000000D202A2A2A2A2A2A95
:104050002A2A2A2A2A2A2A2A2A2A2A2A2A2A2A2AC0
:104060002A2A2A2A2A2A2A2A2A2A2A2A2A2A2A2AB0
:104070002A2A2A2A2A2A2A2A2A2A2A2A2A2A2A2AA0
:104080002A2F0A0D0A0000000D202A2020202020BF
:104090002020202020202020202020202020202020
:1040A0002020202020202020202020202020202010
:1040B0002020202020202020202020202020202000
:1040C000202A0A000D202A20582D435542452D57FD
:1040D0004946493120457870616E73696F6E20538F
:1040E0006F6674776172652076332E302E32202011
:1040F000202020202020202020202020202A0A00EC
:104100000D202A20436F6E736F6C65204170706CB8
:1041100069636174696F6E20202020202020202098
:10412000202020202020202020202020202020208F
:104130002020202020202020202A0A000D202A20B4
:1041400053656E6420415420636F6D6D616E6473BE
:1041500020746F2053505746206D6F64756C652036
:104160006469726563746C792020202020202020EF
:1041700020202020202A0A0070B40121002313E00F
:104180000468001D0C4202D04D466D1E6419236068
:10419000241D121F042AFAD22500960701D5238078
:1041A000AD1C0A4000D02B700268001D002AE7D128
:1041B00070BC704710B5074979441831064C7C44EF
:1041C000163404E0081D0A68891888470100A142D6
:1041D000F8D110BD08000000300000009DFFFFFF77
:1041E000D80400006001002000000000DBF9FFFFA0
:1041F00002000000020000006801000081000000D1
:1042000000000020600100004552524F5220696EAC
:104210002055534152545F5472616E736D69745FDF
:1042200041545F436D64210048414C5F55415254F5
:10423000785F526563656976655F4954204572729F
:104240006F72000000F00BF8002801D0FFF7B2FFFA
:104250000020C046C046FFF799F900F002F801209F
:10426000704780B500F002F801BDFEE70746FFF792
:104270006BFE3846FFF708FDFBE7FEE748414C5F61
:10428000554152545F5472616E736D69742045726A
:10429000726F720038B505000C00200000F006F8BF
:1042A000A04200D00025280032BDFEE780B50249BB
:1042B000FFF77EFE02BD00BFB400002041542B5327
:1042C0002E534346473D25732C25640D0000000006
:1042D0004572726F7220696E20436F6E6669670067
:1042E000636F6E736F6C65315F737065656400003A
:1042F000000000000102030401020304060708098C
:104300000148804701480047193E0008294300083A
:1043100041542B4346554E3D300D00000304060822
:104320000C10182030000000C046C046C046C046F1
:10433000FFF788FF415426570D000000081C304449
:10434000586C80000000000000000000FEE7FEE75F
:10435000FEE7FEE7FEE7FEE7FEE7FEE7FEE700001A
:104360008C001F01040000B1000020B2000020B149
:10437000000020B1000020B1000020B10000209812
:10438000000020E0001F020401014C0400209C04F6
:1043900000204C0400204C0400204C040020F100BC
:1043A0000020D8000020E0001F02080202FC0300E9
:1043B000204C040020FC030020FC030020FC030030
:1043C000203101002018010020E0000B74000020C3
:1043D000B4000020F4000020E900035080841EFB9C
:0143E00000DC
:040000050800432983
:00000001FF
