:020000040800F2
:10000000D82600200DB20008556E0008576E000873
:10001000616E00086B6E0008756E0008000000003D
:100020000000000000000000000000007F6E0008DB
:10003000896E000800000000936E0008A96E000899
:10004000E9B30008EDB30008F1B30008F5B3000808
:10005000F9B30008FDB3000801B4000805B40008B6
:1000600009B400080DB4000811B4000815B4000864
:1000700019B400081DB4000821B4000825B4000814
:1000800029B400082DB4000831B4000800000000B5
:1000900000000000000000000000000035B400086F
:1000A00039B400083DB4000841B4000845B4000864
:1000B0009F6E0008956E000849B400084DB4000812
:1000C00051B4000855B4000859B400085DB40008E4
:1000D00061B40008E56E0008EF6E00080000000043
:1000E00065B4000869B400086DB4000800000000A1
:1000F00000000000000000000000000071B40008D3
:100100000000000075B4000879B400087DB4000850
:1001100000000000000000000000000000000000DF
:1001200081B4000885B4000889B400088DB40008C3
:1001300091B4000800000000000000000000000072
:1001400000000000000000000000000095B400085E
:1001500099B400089DB40008A1B40008A5B4000833
:10016000A9B40008ADB400080000000000000000C1
:10017000000000000000000000000000000000007F
:1001800000000000B1B40008000000000000000002
:10019000B5B400082DE9F0410400002503F05FFC30
:1001A000E4B222001349144803F0D6FDFF2013499E
:1001B000C875114803F0EAFD80B203F066FC050043
:1001C000EDB2002D02D02800C0B210E001260027B9
:1001D000DFF82C803A003100404603F0F7FD074875
:1001E000C07D0E2801D000BFF9E72800C0B2BDE8ED
:1001F000F0810000B4B20008F00100205822002075
:100200006F2200202DE9F04F8BB004000025002064
:10021000029020780500DFF8500D0068C0F38040A0
:1002200000280FD1EDB2002D0CD0DFF8400DDFF823
:10023000401D09680D54DFF8380D0068401CDFF8D8
:10024000301D0860DFF82C0D03F0AEFEDFF81C0D4A
:10025000DFF81C1D0968081810F8020C0D2840F082
:100260000E84DFF8080DDFF8081D0968081810F87B
:10027000010C0A2840F00384DFF8EC0C0068C0F39E
:100280000070002840F0FB83DFF8E40D007810F0E8
:100290000100002840F0F383DFF8D81DDFF8CC0C14
:1002A00003F091FE002863D002F0D0FF72B6DFF8B1
:1002B000BC0C01F0B3FC62B602F0BEFFDFF8A80C84
:1002C0000068C00F002810D172B6DFF8B00DD0E979
:1002D000082311001A00DFF8A80D03F0C9FD62B66B
:1002E000DFF8900C03F060FE1AE0DFF87C0C006889
:1002F000C0F34000002813D1DFF8780C03F054FE5F
:10030000DFF8640C006840004008DFF85C1C0860FF
:10031000DFF8540C006850F00200DFF84C1C086055
:10032000DFF8440CD0F80100C0F34060002807D18A
:10033000DFF8340C006840004008DFF82C1C08602F
:100340000020DFF82C1C0860DFF81C0C006810F09F
:100350000260B0F1026F09D1DFF80C0C006830F0D8
:100360000060DFF8041C086000F06CBC01F03FBCCA
:10037000DFF8101DDFF8F40B03F025FE002800F075
:10038000C481DFF8041DDFF8E40B03F01CFE060057
:1003900000282CD030798DF8040070798DF8050094
:1003A0009DF804000A219DF8052001FB0020DFF8DC
:1003B000CC1C91F8211060F30301DFF8C00C80F829
:1003C00021100F20DFF8B41C81F8260072B6DFF888
:1003D000AC0CD0E9082311001A00DFF8A40C03F0DC
:1003E00047FD62B6DFF88C0B03F0DEFD6BE1DFF852
:1003F0009C1CDFF8780B03F0E6FD0600002800F0F7
:10040000A980707A8DF80000B07A8DF80100F07A3A
:100410008DF80200307B8DF803009DF801000D2857
:1004200007D19DF800003038DFF8641CC1F898004F
:1004300044E09DF802000D280DD19DF800000A212E
:100440009DF8012001FB0020B0F50470DFF8401C8E
:10045000C1F8980032E09DF803000D2814D19DF8F2
:10046000000064219DF801200A235A4301FB00206B
:100470009DF8021050FA81F0DFF8181C0818DFF818
:10048000101CC1F8980019E09DF800004FF47A7133
:100490009DF8012064235A4301FB00209DF80210BF
:1004A0000A2202FB01009DF8031050FA81F0DFF8E8
:1004B000E81B0818DFF8D81BC1F89800DFF8D00B4C
:1004C000D0F89800002808D0DFF89C0A006850F4A3
:1004D0008030DFF8941A0860F5E0DFF8B40BD0F84C
:1004E0009800002840F0EF80DFF8A40BDFF8A01B95
:1004F0000978C1F3C201C9B2081890F8D9000028E0
:100500001FD0DFF8980BDFF8881B0978C1F3C20110
:10051000C9B2085C002808D00221DFF8740B00780B
:10052000C0F3C200C0B203F051FADFF8640BDFF889
:10053000601B0978C1F3C201C9B20818002180F814
:10054000D910DFF8240A006830F01000DFF8181A1C
:100550000860B8E015A1DFF8140A03F034FD0600C6
:10056000002825D00320DFF8141B81F82600300076
:1005700003F00CFCB0F10B0716F10308DFF8209B29
:100580003A004146484603F027FD72B6DFF8EC2AF0
:10059000D2E908010A000100DFF8E40A03F068FC70
:1005A00062B6DFF8D00903F0FFFC8CE0203D2000AC
:1005B000DFF8BC0A0078C0F34000C0B2002865D064
:1005C000DFF8AC0A4078C0F30010C0B2002872D047
:1005D000DFF8BC0AC079C0F3C200C0B200280DD059
:1005E000DFF8AC0AC07910F0C70110F03800083805
:1005F00010F038000843DFF8981AC871DFF8700A65
:10060000007810F0FD00DFF8681A08700020DFF8AD
:100610008C1ADFF87C2A527912F00F025054DFF85E
:10062000700A407910F00F00DFF8641A0871DFF8E3
:10063000400A407810F0EF00DFF8341A48700220CA
:10064000DFF82C1A0875DFF82009807910F0010016
:1006500000280AD0DFF81009D0F8010050F000504F
:10066000DFF80419C1F8010007E0DFF8FC08807921
:1006700050F00100DFF8F0188871DFF8EC0800682E
:1006800030F01000DFF8E018086014E00220DFF816
:10069000EC1981F8260072B6DFF8E009D0E90823EA
:1006A00011001A00DFF8D80903F0E2FB62B6DFF8A8
:1006B000C40803F079FCDFF8B809007810F0FD00F9
:1006C000DFF8AC1908700020DFF8A41808604FF4B8
:1006D00000775FF00008DFF89498424639004846FA
:1006E00003F074FBDFF88008006810F00260B0F1DE
:1006F000026F08D1DFF87008006830F00060DFF8A2
:10070000681808609EE201F072BADFF8F41CDFF8A6
:100710005C0803F058FC002800F0EA80DFF8E41CD5
:10072000DFF8480803F04FFC002836D0DFF8D80C7B
:1007300003F08EFCDFF83809007810F0FD00DFF8D8
:1007400030190870DFF82809407810F0EF00DFF862
:1007500020194870DFF81008807910F00100002897
:1007600007D1DFF80408807950F00100DFF8F817AE
:1007700088710120DFF81819DFF81429527912F076
:100780000F02511881F8D900DFF8DC07006830F05B
:100790001000DFF8D417086088E0DFF8701CDFF87D
:1007A000CC0703F010FC002807D1DFF8641CDFF849
:1007B000BC0703F008FC002831D0DFF8AC07006864
:1007C000C0F3C040002871D0DFF89C07006830F407
:1007D0000020DFF894170860DFF88C07006830F01D
:1007E0001000DFF884170860DFF87C07006830F439
:1007F0000010DFF874170860DFF86C07006830F449
:100800008020DFF8641708600020DFF88418A1F862
:100810008E000020DFF87818C1F8AC0046E0DFF861
:10082000F41BDFF8480703F0CEFB002803D0DFF805
:10083000E80B03F00DFC0820DFF8401881F82600D3
:1008400072B6DFF83808D0E9082311001A00DFF883
:10085000300803F00DFB62B6DFF8180703F0A4FBC5
:10086000DFF804070068C0F30010002807D0DFF8A5
:10087000F806006830F01000DFF8EC160860DFF8CA
:10088000E806D0F80200C0F3007000280ED0DFF8B0
:10089000D806D0F8020030F08050DFF8CC16C1F84E
:1008A00002000020DFF8E817C1F8C4000020DFF8DC
:1008B000C01608604FF400775FF00008DFF8AC96D0
:1008C00042463900484603F081FADFF89C0600688A
:1008D00010F00260B0F1026F08D1DFF88C060068FA
:1008E00030F00060DFF880160860ABE101F07FB9FE
:1008F000DFF8F01DDFF8740603F065FB002859D01F
:10090000DFF8E41DDFF8640603F05DFB0600002E4F
:1009100004D00020DFF87817487203E00120DFF8E8
:10092000701748729DA1DFF8440603F04CFB0600E7
:10093000002E04D00020DFF85817887203E0012051
:10094000DFF84C1788720420DFF8301781F8260092
:1009500072B6DFF82807D0E9082311001A00DFF883
:10096000200703F085FA62B6DFF8080603F01CFBE7
:100970000020DFF8FC1508604FF400775FF00008F6
:10098000DFF8E89542463900484603F01FFADFF8E1
:10099000D805006810F00260B0F1026F08D1DFF8EE
:1009A000C805006830F00060DFF8BC15086049E158
:1009B00001F01DB9DFF8B005006810F00260B0F179
:1009C000026F3BD1DFF8A005D0F80100C0F38060D2
:1009D000002833D1DFF8B806B0F89000002814D012
:1009E00072B6DFF8AC06B0F89010DFF8900603F0AE
:1009F00051FC62B6DFF89806B0F890705FF000081E
:100A000042463900200003F0E1F9DFF85C05D0F838
:100A1000020050F00050DFF85015C1F80200DFF876
:100A20004805006830F00060DFF83C150860DFF82A
:100A300040050068DFF85816A1F89400DFF830068A
:100A4000007810F00100002840F0FC80DFF820065C
:100A50000078C0F34010C0B2002800F0F3800020FE
:100A6000DFF80C1508604FF400775FF00008DFF83E
:100A7000FC9442463900484603F0A8F9E2E0DFF86A
:100A8000E8040068C0F38000002800F08980DFF8E7
:100A9000741DDFF8D80403F096FA002850D1DFF86F
:100AA000681DDFF8C80403F08EFA002848D1DFF88B
:100AB0005C1DDFF8B80403F086FA002840D1DFF8A7
:100AC000501DDFF8A80403F07EFA002838D1DFF8C3
:100AD000441DDFF8980403F076FA002830D1DFF8DF
:100AE000381DDFF8880403F06EFA002828D1DFF8FB
:100AF0002C1DDFF8780403F066FA002820D1DFF817
:100B0000201DDFF8680403F05EFA002818D1DFF832
:100B1000141DDFF8580403F056FA002810D1DFF84E
:100B2000081DDFF8480403F04EFA002808D1DFF86A
:100B3000FC1CDFF8380403F046FA002800F082803D
:100B4000DFF82404006850F08050DFF81C140860BF
:100B5000DFF81404006850F48020DFF80C140860FB
:100B6000DFF80404006830F00400DFF8FC130860CC
:100B70000520DFF81C15A1F89200DFF8EC03D0F88F
:100B8000020030F08050DFF8E013C1F802000020CE
:100B9000DFF8FC14C1F8C40001F029B86F757400C7
:100BA000DFF8C803DFF8C8130968081810F8010C4B
:100BB00009281CD1DFF8B403DFF8B413096808185A
:100BC00010F8020C3A2812D1DFF8A003DFF8A013C6
:100BD0000968081810F8030C312808D1DFF88803D9
:100BE000006850F08040DFF8801308602AE0DFF8EA
:100BF0007803C07910F0010000280ED0DFF86C03F4
:100C0000DFF86C130968081810F8010C002819D1D6
:100C10000020DFF85C13086014E0DFF8540300687C
:100C2000B0F5FF7F0ED90020DFF8441308604FF4C1
:100C300000775FF00008DFF83493424639004846F9
:100C400003F0C4F8C8480068C0F38040C00740F112
:100C50000A81C548D0F80200C0F34070C00700F117
:100C60000281DFF82C04B0F89000DFF82414A1F81A
:100C70009400BF480068DFF81814B1F8941010FA17
:100C800081F0B0F5007F25D3B9480068DFF8001483
:100C9000B1F8941010FA81F0A0F2FF1772B6390083
:100CA000DFF8D80303F0F6FA62B65FF00008B04848
:100CB0000068201A00F2FF1942463900484603F046
:100CC00085F840F2FF10AA490968401ADFF8C013FE
:100CD000A1F89400DFF8B803B0F89470DFF8148E30
:100CE000A248A349096811EB00093A004146484669
:100CF00003F072F99E480068DFF89413B1F894107D
:100D000010FA81F09A49086099480068012804D1D6
:100D1000964800780D2800F06A87DFF8DC1D9348BC
:100D200003F051F900280ED08F48006830F00060C1
:100D30008D4908608C48D0F8010030F080608A4905
:100D4000C1F801008FE0CA480078C00700F18B802D
:100D500085480068C0F30070C00700F184808348B4
:100D60000078002800F07F80804800780D287AD134
:100D70007E4840780A2876D1C548D0F89C000228E1
:100D800071D07948D0F8010050F080607649C1F800
:100D90000100B9A1DFF8640D03F015F90600002881
:100DA0003BD07248301A871CDFF8541DDFF84C0D19
:100DB00003F009F900280BD0B2496C48381803F049
:100DC00002F90600002E03D06848301A801D070083
:100DD00067480068C01B002817D072B664480068D6
:100DE000C11BA64803F056FA62B661480068B0EB32
:100DF00007085FF000095D4817EB000A4A464146C4
:100E0000504602F0E3FF5A4807605748D0F8010007
:100E100030F080605449C1F801005348006850F038
:100E20000060514908605248006840F2FF11884252
:100E300019D14D48D0F80100C0F38060002812D0CD
:100E40004948D0F8010030F080604749C1F80100FE
:100E50004548006830F000604349086040F2FF10E8
:100E60008B49A1F894004048006810F00260B0F58A
:100E7000001F40F0D3827E48007850F001007C498A
:100E800008708348D0F8A8008149B1F8941010FA8E
:100E900081F07F49C1F8A800DFF85C1C33487C4A28
:100EA000B2F892201018401F03F08DF80600002EB3
:100EB00000F0F8802D482E490968081810F8020C37
:100EC0000D2840F0EF80294829490968081810F8D2
:100ED000010C0A2840F0E680DFF8181D234803F0D3
:100EE00072F8060000281BD0F07E00280DD01F48A5
:100EF000371A1F48006817F11B01B0EB010872B6E2
:100F000041465E4803F0C6F962B65948407850F051
:100F10000100574948700D205D4981F8D80047E02D
:100F2000DFF8E014114803F04EF80600002823D043
:100F3000F07D00280DD00D48371A0D48006817F1D4
:100F40001701B0EB010872B641464C4803F0A2F914
:100F500062B601204E494E4A527912F00F025118E2
:100F600081F8D90024E000BF84220020F01900207D
:100F7000C02200206C200020DFF87C1CDFF87C0CF5
:100F800003F021F80600002812D0F07D00280FD0D1
:100F9000DFF8680C371ADFF8680C006817F11701E2
:100FA000B0EB010872B64146344803F073F962B6FB
:100FB00000203749C1F8A80000203549C1F8980041
:100FC00000203349C1F89C0005203149A1F8920066
:100FD000DFF8300C006830F40010DFF8281C0860DF
:100FE000DFF8200C006830F01000DFF8181C0860F3
:100FF000DFF8100C006830F48020DFF8081C08606F
:1010000000201B4948601A48007810F0FE0018497B
:101010000870DFF8F00B0068C0F3C040002815D05E
:10102000DFF8E00B006830F40020DFF8D81B086020
:1010300000201749C1F8A000DFF8C80B006850F085
:101040000100DFF8C01B086002F08AFDDFF8B00B7A
:1010500007685FF00008DFF8A49B42463900484665
:1010600002F0B4FE0020DFF8981B086000F0BFBD5E
:101070005822002048B300080D0A00004C20002030
:101080006020002050B3000858B30008C0B2000828
:10109000801D002030EBFFFFB02FFFFF98220020C3
:1010A0008E1D0020DFF8580B0068062808D3002E9C
:1010B00006D1DFF84C0B0068DFF8501BA1F8920056
:1010C000DFF8480BD0F8A800DFF8401BD1F89C10DF
:1010D0008842C0F02081DFF8340BD0F89C00DFF8A4
:1010E0002C1BD1F8A810884225D2DFF8200BD0F8AD
:1010F000A800DFF8181BD1F89C10471A72B6390007
:10110000DFF8340E03F0C6F862B65FF00008DFF8CF
:10111000EC0ADFF8EC1A0968C91B11EB000942461A
:101120003900484602F052FEDFF8D40A0068C01BBE
:10113000DFF8CC1A0860DFF8C80A0068DFF8CC1ABC
:10114000A1F88E00DFF8C40AD0F89C00DFF8BC1AC2
:10115000C1F8AC00DFF8A80A0768DFF8A08ADFF85A
:10116000B09A3A004146484602F036FF0020DFF8C8
:10117000901A08600020DFF8941AC1F8A800002037
:10118000DFF8881AC1F898000020DFF8801AC1F84B
:101190009C000020DFF8741AA1F894000520DFF805
:1011A0006C1AA1F89200DFF85C0A006830F0006069
:1011B000DFF8501A0860DFF84C0A006830F480202D
:1011C000DFF8401A0860DFF8440AC07850F00700E2
:1011D000DFF8381AC870DFF82C0A0068C0F3C04086
:1011E000002830D00020DFF8241AC1F8A000DFF872
:1011F0001C0A407810F0C700DFF8101A4870DFF8BA
:10120000140A4068002806D0DFF8080A4068401E2B
:10121000DFF8001A4860DFF8FC094068002809D1AF
:10122000DFF8E009006850F00100DFF8D819086025
:1012300002F096FCDFF8CC09006830F48000DFF89B
:10124000C41908601CE0DFF8BC09006850F4800095
:10125000DFF8B0190860DFF8B4090078C0B2C00840
:10126000DFF8A819497860F3C501DFF8A0094170DB
:10127000DFF8A009007850F00200DFF89819087034
:10128000DFF88009006830F40010DFF87819086092
:10129000DFF88009007810F0FE00DFF87819087098
:1012A00001F0E1FFDFF85C090068C0F3C0400028EE
:1012B0001AD0DFF85009D0F8010050F08050DFF864
:1012C0004419C1F80100DFF83C09006830F0100053
:1012D000DFF830190860DFF82C09006830F40020CE
:1012E000DFF82019086009E0DFF81809D0F80100DC
:1012F00050F00060DFF80C19C1F801004FF40077DE
:101300005FF00008DFF8F49842463900484602F0E2
:101310005DFD00F06CBCDFF8E8080068B0F5FF7F09
:101320006DD90520DFF8E418A1F89200DFF8DC0899
:10133000D0F89C00DFF8D418C1F8AC0040F2FF10E0
:10134000DFF8C818A1F88E00DFF8B4080768DFF8E6
:10135000AC88DFF8BC983A004146484602F03CFEB3
:101360000020DFF89C1808600520DFF8A018A1F81D
:101370009200DFF89808C07850F00700DFF88C186A
:10138000C87001F070FF4FF400795FF0000ADFF8D9
:101390006CB852464946584602F018FDDFF864081A
:1013A0000068C0F3C040002812D0DFF86008407821
:1013B00010F0C700DFF854184870DFF84808D0F87C
:1013C000010050F08050DFF83C18C1F8010016E031
:1013D000DFF838080078C0B2C008DFF83018497864
:1013E00060F3C501DFF824084170DFF81808D0F871
:1013F000010050F00060DFF80C18C1F80100F6E3BE
:1014000060B3000890AE0008A8A8000864AA00080D
:101410003CA9000868B3000838AC0008DFF8E4070E
:101420000068C0F30070002800F00282DFF8E407D3
:10143000007850F00100DFF8DC170870DFF8D817EB
:10144000DFF8B807DFF8C427B2F892201018401F61
:1014500002F0B9FD0600002800F0AB80F07900280A
:1014600023D0DFF89807371ADFF894070068B91D12
:10147000B0EB010872B64146DFF8BC0A02F00AFF81
:1014800062B65FF00009DFF87407381810F1070A38
:101490004A464146504602F099FCDFF8640700686E
:1014A000B0EB0800DFF858170860DFF85407006851
:1014B000DFF85817A1F88E00DFF844070768DFF857
:1014C0003C87DFF84C973A004146484602F084FDDD
:1014D000DFF82C070068DFF83417A1F88A00DFF87E
:1014E0003407407850F00100DFF828174870DFF823
:1014F0001407006830F48020DFF808170860DFF870
:101500000407006830F08050DFF8F816086001F03A
:10151000AAFE0020DFF8F41681F8D800DFF8F40600
:10152000007810F0FE00DFF8EC160870DFF8D40643
:10153000006830F00060DFF8CC160860DFF8C40601
:10154000006830F01000DFF8BC1608600520DFF8F6
:10155000BC16A1F89200DFF8A806D0F800905FF062
:10156000000ADFF898B652464946584602F02EFC6B
:101570000020DFF88C160860DFF888060068C0F3EA
:10158000407000280AD0DFF87C06D0F8020050F046
:101590000070DFF87016C1F802009BE0DFF8640607
:1015A000D0F8020050F08070DFF85816C1F8020041
:1015B00090E0DFF8841BDFF84406DFF85026B2F82D
:1015C00092201018401F02F0FEFC0600002800F0D8
:1015D0008180DFF83006006830F48020DFF82416C0
:1015E0000860DFF81806DFF818160968081810F800
:1015F000020C0D286ED1DFF80406DFF80416096826
:10160000081810F8010C0A2864D1DFF808064078A1
:1016100050F00100DFF8FC1548700D20DFF8EC15E4
:1016200081F8D800DFF8EC05007810F0FE00DFF854
:10163000E4150870DFF8CC05006830F48020DFF88E
:10164000C4150860DFF8BC05006830F00060DFF802
:10165000B41508600020DFF8A81508600520DFF841
:10166000AC15A1F89200DFF89C05006830F08050BE
:10167000DFF890150860DFF88C05006830F0100086
:10168000DFF8801508604FF400775FF00008DFF89E
:101690006C9542463900484602F098FBDFF8640535
:1016A0000068C0F3407000280AD0DFF85805D0F871
:1016B000020030F00070DFF84C15C1F8020009E0BC
:1016C000DFF84005D0F8020030F08070DFF8341504
:1016D000C1F80200DFF828050068062806D30120BB
:1016E00005E000BF70B3000878B300080020002EAA
:1016F00001D1012100E00021C0B2084206D0DFF88C
:1017000000050068DFF80415A1F89200DFF8F00486
:10171000006840F2FF11884272D1DFF8E4040068EB
:101720000A90DFF8D8040990DFF8E4740A9A09995E
:10173000380002F051FC06200890DFF8000A0790FC
:10174000DFF8FC79089A0799380002F045FC06207A
:10175000069000200590DFF8E479059A0699380094
:1017600002F034FB4FF40070049000200390DFF887
:101770008C74039A0499380002F028FB0627DFF8DE
:10178000C089DFF878943A004146484602F024FCCC
:101790005FF006095FF0000ADFF8A4B95246494637
:1017A000584602F013FB0620DFF8541408600520A9
:1017B000DFF85814A1F8920040F2F910DFF84C1449
:1017C000A1F88A0001F04FFDDFF838040068C0F38B
:1017D000407000280AD0DFF82C04D0F8020050F046
:1017E0000070DFF82014C1F8020009E0DFF81404EB
:1017F000D0F8020050F08070DFF80814C1F8020041
:10180000F5E100BF80B3000888B300082CB00008E1
:1018100090B3000840B00008ECB10008FCB100082B
:10182000A8AE00081CAD000854B00008C0AE000807
:10183000DFF8D003006810F09040B0F1804F40F026
:101840008281DFF8B803DFF8B8130968081810F8C8
:10185000020C0D2840F06481DFF8A003DFF8A0132C
:101860000968081810F8010C0A2840F05981DFF8BF
:10187000D40802F06CFDDFF89403407BDFF88C1392
:10188000097B884280F0DA80DFF8BC18DFF86C034F
:1018900002F099FB0600002E10D0B0798DF8000000
:1018A000F0798DF801009DF800000A219DF80120D3
:1018B00001FB00201038DFF894180870DFF88C085E
:1018C0000078DFF88C180968D04A527B2C2303FB80
:1018D00002110870DFF87C18C84802F074FB06009B
:1018E000002E0FD0F0798DF80000307A8DF80100CD
:1018F0009DF800000A219DF8012001FB0020B0F5B1
:1019000004700290DFF848080068C049497B2C2227
:1019100002FB0100029949424160DFF83C18B748D8
:1019200002F051FB0600002E26D00720DFF82C180D
:101930000870DFF828080078805D27281CD0DFF8C1
:1019400010080068B149497B2C2202FB0100DFF836
:101950000C1809780818DFF804180978895D4170B7
:10196000DFF8F8070078401CDFF8F0170870DFF8A0
:10197000EC0700782328DCD1DFF8E4179F4802F059
:1019800022FB0600002E0BD0DFF8C40700689F4939
:10199000497B2C2202FB0100012180F826100AE07D
:1019A000DFF8AC0700689949497B2C2202FB010053
:1019B000002180F82610DFF8AC17904802F003FBF6
:1019C0000600002E0BD0DFF8880700688F49497B9E
:1019D0002C2202FB0100012180F827100AE0DFF829
:1019E000700700688949497B2C2202FB0100002115
:1019F00080F82710DFF87017804802F0E4FA06003C
:101A0000002E0BD0DFF8480700688049497B2C2264
:101A100002FB0100012180F828100AE0DFF83007FE
:101A200000687A49497B2C2202FB0100002180F8E2
:101A300028107648407B401C74494873DFF8F8163C
:101A40006E4802F0C0FA0600002E24D04FF4007752
:101A50005FF00008DFF8A49142463900484602F0E2
:101A6000B5F90020664908606A48407850F00100E6
:101A7000684948706348006830F0804061490860F8
:101A80006048006830F480605E4908600D205F495E
:101A900081F8D800ABE0DFF8D416584802F093FA8A
:101AA00000282FD05748006830F4806055490860FE
:101AB0000020564948730020514908605548407835
:101AC00050F00100534948704E48006830F08040A3
:101AD0004C49086000204D4981F8D8004FF4007748
:101AE0005FF00008DFF8149142463900484602F0E2
:101AF0006DF97CE0F017002098B30008F21900207F
:101B0000CCB2000800203E4908604FF400775FF037
:101B10000008DFF8E89042463900484602F056F9DE
:101B200037480068B0F5FF7F0DD9002034490860C0
:101B30004FF400775FF00008DFF8C09042463900AC
:101B4000484602F043F92F48006810F04060B0F1B9
:101B5000806F4CD12CA002F07BFADFF814162748D6
:101B600002F031FA060000282DD02648006830F433
:101B7000802024490860214821490968081810F884
:101B8000020C0D281FD11D481D490968081810F8BE
:101B9000010C0A2817D1DFF8DC0502F059FA1948C0
:101BA000006830F080601749086000201449086020
:101BB0004FF400775FF00008DFF8409042463900AC
:101BC000484602F003F90E48006840F2FF118842CF
:101BD0000DD100200A4908604FF400775FF000083B
:101BE000DFF8189042463900484602F0EFF80BB093
:101BF000BDE8F08F38AD0008D8AE0008F01900201D
:101C0000C0220020842200202A000000801D002025
:101C1000F01500205822002050B300082DE9FC47A1
:101C20000400250026004FF0FF08002E00F08182FE
:101C3000DFF84415280002F0C6F90600002E00F077
:101C4000788270798DF80400B0798DF805009DF8E0
:101C500005003A2804D19DF80400303880460BE096
:101C60009DF804000A2110FB01F09DF8051050FAC0
:101C700081F0B0F504708046AF4880F820800120E4
:101C8000AD4981F826000FFA88F84046002803285D
:101C900040F22B82001F012840F24182801E012861
:101CA00040F22382801E012840F23982801E00F01B
:101CB0002982401E012840F23282801E012840F213
:101CC0001482801E00F02B82401E032840F20D82F9
:101CD000001F00F02482401E00F00782401E0128F1
:101CE00040F21D82C01E00F00082401E012840F21A
:101CF0001682801E00F09F81801E00F0F681401E3B
:101D0000012840F20C82801E012840F2EE81801EE4
:101D1000012840F20482801E00F0E781401E00F09E
:101D2000FE81401E00F0E181401E042840F2F78150
:101D3000401F012840F2D981001F052840F2D581BB
:101D4000801F20D0801E00F0AA81401E2FD0401E90
:101D500000F01381401E00F02C81401E012840F24B
:101D60009281C01E31D0801E00F0BF81401E00F065
:101D7000A681401E00F0AE81001F00F07081801E21
:101D800000F0B381CCE1DFF8F413280002F01BF976
:101D9000060070798DF800009DF80000664991F802
:101DA000211060F30301644880F82110B8E1B07D90
:101DB0008DF800009DF800005F4991F8211060F354
:101DC00003015D4880F82110AAE1DFF8B403006840
:101DD000C00F002804D0DFF8AC0302F039F9A8E105
:101DE000DFF89C03D0F80100C0F30060002805D0A4
:101DF0000020DFF89413C1F8A40011E0DFF880039D
:101E0000006850F01000DFF878130860DFF8700306
:101E1000D0F8010050F08070DFF86413C1F80100C1
:101E2000DFF85813280002F0CEF80600002E00F06C
:101E3000A38070798DF800009DF8000030383E498D
:101E400081F82200307A8DF80000707A8DF8010058
:101E5000B07A8DF80200F07A8DF803009DF800004A
:101E60003A2806D1F0798DF80000307A8DF801001B
:101E70002EE09DF801003A2809D1F0798DF8000094
:101E8000307A8DF80100707A8DF8020020E09DF81C
:101E900002003A280CD1F0798DF80000307A8DF8E4
:101EA0000100707A8DF80200B07A8DF803000FE01F
:101EB0009DF803003A280BD1F0798DF80000307AB4
:101EC0008DF80100707A8DF80200B07A8DF8030069
:101ED0009DF801003A2805D19DF8000030381649D8
:101EE000888444E09DF802003A280DD19DF8000056
:101EF0000A2110FB01F09DF8011050FA81F0B0F5B5
:101F000004700D49888432E09DF803003A2815D109
:101F10009DF80000642110FB01F09DF801100A22D9
:101F200011FB02009DF8021050FA81F041F2D041FD
:101F3000401A014988841AE04C2000209DF80000D6
:101F40004FF47A7110FB01F09DF80110642211FB2F
:101F500002009DF802100A2211FB02009DF80310F6
:101F600050FA81F000F53C50B030884988848848A8
:101F70004068401C86494860D2E08548007850F0AF
:101F80008000834908708248007810F0DF008049A3
:101F9000087000207E4948607948006830F00200EF
:101FA000774908607648006850F00040744908603E
:101FB000B6E07748007810F07F00754908707448E3
:101FC000007850F02000724908706D48006830F0C9
:101FD00002006B4908606A48006850F00040684998
:101FE000086067480078C00708D569480078C0B223
:101FF000C009C0B2002801D101F0B2FD60480068FC
:10200000C0F3C040002815D005205F49A1F8920018
:102010005B48006850F480205949086058480068BF
:1020200050F40010564908605748D0F8A0005649AF
:10203000C1F89C0074E05749280001F0C4FF060075
:1020400011200700222F06DAB85D4F49791881F870
:102050003E007F1CF6E70B204D49C87560E04E49F5
:10206000280001F0B0FF060011200700222F06DA39
:10207000B85D4549791881F83E007F1CF6E70C20D1
:102080004349C8754CE03E480068C00F002805D0A1
:102090003B480068400040083949086040E00020A3
:1020A0003E4908703648006830F002003449086044
:1020B0003348006850F000403149086030E00A20A1
:1020C000324981F826002E48C07950F001002C4991
:1020D000C87125E009202D4981F826002848C079DB
:1020E00010F0FE002649C8711AE02548006830F05B
:1020F0000200234908602248006850F0004020494F
:1021000008600DE01E480068C0F30010002805D0EC
:102110001B48006830F010001949086000E0FFE734
:102120004FF400795FF0000A52464946280001F05A
:102130004DFEBDE8F387000060B30008E9170020FA
:10214000A02200203C010020A0B30008D6220020DD
:10215000BC220020A8B30008B0B30008D52200209C
:10216000B8B30008C0B30008C8B30008D0B3000873
:10217000D8B2000868B0000848B30008D8B3000817
:1021800084220020E0B30008801D00204C200020A5
:1021900058220020E4B20008F0B20008D222002049
:1021A00070B54FF48061DFF8900201F063FFDFF853
:1021B0008C02407810F0F100DFF8801248700020A7
:1021C0009F49087000F022F900F08AF800F016F834
:1021D00032219C4801F02EFE01F02EF80824002543
:1021E000994E2A002100300001F0F0FD974802F0DE
:1021F000E7F8002801D001F041FC70BD8F4800785D
:1022000050F008008D4908708C48007850F080002C
:102210008A4908708948007810F0BF008749087023
:102220008648407810F0F1008449487000208349C6
:10223000487400208149C8740020804988740020B7
:102240007E4948607D48407810F0FE007B49487028
:10225000FF207A49C875022078490875022077491D
:10226000487500207549887500207449C860784811
:10227000006850F00100764908607548006850F029
:102280000200734908607248D0F8020030F08050B4
:102290006F49C1F802006E48C07910F0DF006C4948
:1022A000C8716B48807950F00100694988716848AD
:1022B000C07910F0EF006649C8716548C07910F028
:1022C000BF006349C8716248C07910F07F0060495F
:1022D000C8715F48007A10F0FE005D4908727047CF
:1022E00070B55C48C07910F0C7005A49C871002029
:1022F0005849C1F8A40000205649C1F898000020B0
:102300005449C1F8A00000205249C1F8B000002093
:102310005049C1F8A80000204E49A1F890000020C3
:102320004C49C1F8B40000204A49C1F8BC00002063
:102330004849C1F8C000002046494873002045497B
:10234000C1F8C40000204349A1F88C000520414990
:10235000A1F892004FF4006400253F4E2A002100AE
:10236000300001F033FD70BD80B5002000903B4887
:10237000006850F00400394908603848006810F0DF
:10238000040000900098002000903448006850F04D
:102390000100324908603148006810F001000090E7
:1023A00000984FF480502449086301202249486373
:1023B00001202149886303201F49C863284929480F
:1023C00002F028F900201E490870FF201B49C8753B
:1023D00000224FF48051234802F0A1FAC82002F0F5
:1023E000F7FA01224FF480511E4802F098FA322089
:1023F00002F0EEFA4FF480511A4802F0EEF90F485D
:10240000C07D0E2801D000BFF9E701BD80B50022D4
:102410004FF48051144802F082FA01221349144803
:1024200002F020FC002805D10948006850F4005053
:102430000749086001BD00004C2000205822002000
:10244000D22200206020002098220020502100206D
:1024500084220020801D0020F00900203038024036
:102460007C2000200008024000000240CE1D002019
:10247000102100202DE9F04182B004000025DFF892
:10248000F40D0068C0F30010002840F05F8472B6BD
:10249000DFF8F40D01F037FDDFF8F01D886262B659
:1024A000DFF8E80D806A002800F05084DFF8DC0DCA
:1024B000806A807901283BD0022800F02B84032811
:1024C00000F02884042800F02584062800F0FD8010
:1024D000082800F00D84092800F02F840A2800F055
:1024E0002B840C2800F021830D2800F07E830E2819
:1024F00000F091820F2842D0102800F09A81142811
:1025000000F04F81152800F01082162800F083801B
:10251000172800F0CE811B2800F08A811C2800F0CB
:1025200059821D280BD0242800F0A58300F00EBC92
:10253000DFF8580D806A00F0FFFF00F007BCDFF8FD
:102540004C0D806A407810F00F00DFF8441D0978C8
:1025500060F30201DFF8380D01700020DFF8341D50
:102560008875DFF8300D407850F00100DFF8241D49
:1025700048700020DFF8181D81F8D800E6E3DFF886
:10258000100DC07910F0C701083010F03800084372
:10259000DFF8FC1CC871DFF8F80CC079C0F3C2008A
:1025A000C0B209280DDBDFF8EC0C407850F00100D8
:1025B000DFF8E01C48700420DFF8D41C81F8D80054
:1025C000C4E30120DFF8D01DDFF8C02C926A5278F6
:1025D00012F00F025054DFF8B40C806A407810F00B
:1025E0000F00DFF8AC1C097860F30201DFF8A00CE3
:1025F00001700020DFF89C1C8875DFF8980C40788B
:1026000050F00100DFF88C1C48700020DFF8801CBF
:1026100081F8D8009AE3DFF8780C007A10F0F8011E
:10262000401C10F007000843DFF8641C0872DFF854
:10263000440CD0F8020030F08050DFF8381CC1F8AC
:1026400002000020DFF8481CC1F8C400DFF8400C8D
:10265000007A10F0070005280DDBDFF8380C407811
:1026600050F00100DFF82C1C48700420DFF8201C1B
:1026700081F8D8006AE30120DFF8201DDFF80C2C78
:10268000926A527812F00F025054DFF8000C806A00
:10269000407810F00F00DFF8F81BC97960F30201F1
:1026A000DFF8EC0BC1710020DFF8E81B8875DFF85C
:1026B000E40B407850F00100DFF8D81B4870002090
:1026C000DFF8CC1B81F8D80040E301F0C8F9DFF84F
:1026D000C00BC07A012811D1DFF8B40BD0F8B800D4
:1026E0000090DFF8AC0B436EDFF8A40B026EDFF84E
:1026F000BC1CDFF8500D01F02FFB15E0DFF8900B4C
:10270000C07A002810D1DFF8880BD0F8B80000900C
:10271000DFF87C0B436EDFF8780B026EDFF8901C5D
:10272000DFF8200D01F018FBDFF8180D01F02EFB8B
:1027300080B201F0AAF90500EDB2002D23D10020EE
:10274000DFF84C1BC1F8C400DFF8280BD0F80200FA
:1027500050F08050DFF81C1BC1F80200DFF8140BAA
:10276000006850F01000DFF80C1B0860DFF8040B65
:10277000006850F00400DFF8FC1A08600620DFF85B
:10278000141B88750CE00D20DFF8041B81F8D800BD
:10279000DFF8000B407850F00100DFF8F81A4870BD
:1027A000D4E201F05CF9DFF8E80AB0F88430DFF831
:1027B000E00A807810F00702DFF8B81CDFF8840C1C
:1027C00001F0CAFADFF87C0C01F0E0FA80B201F007
:1027D0005CF90500EDB2002D19D101F040F9DFF8E8
:1027E000B00AB0F88460DFF8A80AD0F88070DFF88B
:1027F000548C32003900404601F0EEFB72B6DFF82F
:10280000900AB0F8840001F040F9050062B6EDB21C
:10281000002D0CD0DFF87C0A407850F00100DFF882
:10282000741A48700D20DFF8681A81F8D8008DE21C
:102830008CE201F014F9DFF8580AC06E0090DFF85E
:10284000500AD0F8B830DFF8480A026EDFF8BC1C36
:10285000DFF8F00B01F080FADFF8E80B01F096FAF0
:1028600080B201F012F90500EDB2002D0DD0DFF8B5
:10287000240A407850F00100DFF8181A48700D2043
:10288000DFF80C1A81F8D80012E01020DFF8041AE3
:1028900088750020DFF8F819C1F8C400DFF8D40902
:1028A000D0F8020050F08050DFF8C819C1F80200DB
:1028B0004CE201F0D4F8DFF8D809C36EDFF8D00994
:1028C000D0F8B820DFF8481CDFF8780B01F044FAA4
:1028D000DFF8700B01F05AFA80B201F0D6F805006B
:1028E000EDB2002D0DD0DFF8AC09407850F00100BA
:1028F000DFF8A01948700D20DFF8941981F8D8008E
:1029000012E01720DFF88C1988750020DFF8801995
:10291000C1F8C400DFF85C09D0F8020050F0805024
:10292000DFF85019C1F8020010E2DFF86C0ADFF896
:102930005C19896A497811F00F01085C002844D0BD
:1029400001F08DF8DFF84409806A407810F00F023A
:10295000DFF8C01BDFF8EC0A01F0FEF9DFF8E40A4B
:1029600001F014FA80B201F090F80500EDB2002DEC
:102970002FD10020DFF8181981F8D800DFF8F4080B
:10298000006850F01000DFF8EC180860DFF8FC0871
:10299000806A407810F00F00DFF8F418497960F38E
:1029A0000301DFF8EC084171DFF8E808407850F0E7
:1029B0001000DFF8E0184870DFF8D808007850F011
:1029C0000200DFF8D018087003E0DFF84C0B01F0CC
:1029D0003FFBBBE101F043F8DFF8401BDFF8640A7E
:1029E00001F0BAF9DFF85C0A01F0D0F980B201F029
:1029F0004CF80500EDB2002D0CD10020DFF8901846
:102A000081F8D800DFF86C08006850F01000DFF89B
:102A1000641808609AE101F022F8DFF87408B0F851
:102A20008430DFF86C08026FDFF8F41ADFF8140A5C
:102A300001F092F9DFF80C0A01F0A8F980B201F078
:102A400024F80500EDB2002D0DD0DFF848084078DD
:102A500050F00100DFF83C1848700D20DFF8301806
:102A600081F8D80060E000F0EFFC0500EDB2002D29
:102A70000CD0DFF82008407850F00100DFF814187F
:102A800048700D20DFF8081881F8D800DFF800083A
:102A9000B0F88430DFF8F807026FDFF8881ADFF843
:102AA000A40901F059F9DFF89C0901F06FF980B22F
:102AB00000F0EBFF0500EDB2002D0CD0DFF8D407DD
:102AC000407850F00100DFF8CC1748700D20DFF897
:102AD000C01781F8D80000F0C2FFDFF8B407B0F8E3
:102AE0008460DFF8AC07D0F88070DFF858893200D6
:102AF0003900404601F070FADFF8480901F046F964
:102B000080B200F0C2FF0500EDB2002D0CD0DFF85E
:102B10008407407850F00100DFF8781748700D20E6
:102B2000DFF86C1781F8D80010E100F098FFDFF8AB
:102B30006007006F002806D1DFF8EC19DFF8040900
:102B400001F00AF91FE0DFF84807006E002809D1FC
:102B5000DFF83C07026FDFF8D419DFF8E80801F06E
:102B6000FBF810E0DFF82807D0F8B8000090DFF895
:102B70002007036FDFF81807026EDFF8B419DFF8DB
:102B8000C40801F0E9F8DFF8BC0801F0FFF880B2F2
:102B900000F07BFF0500EDB2002D18D1DFF8D40660
:102BA000006850F00050DFF8CC160860DFF8C4066B
:102BB000006850F48020DFF8BC160860DFF8B40627
:102BC000006850F08050DFF8AC1608600CE0DFF8C9
:102BD000C406407850F00100DFF8B81648700D20A8
:102BE000DFF8AC1681F8D800B0E000F038FFDFF86D
:102BF000A00690F97C0010F1010F23D1DFF89006B8
:102C000090F97D0010F1010F1CD1DFF88406006FF0
:102C1000002804D0DFF87806406F002812D1DFF8D2
:102C20007006006F00280DD0DFF86406406F0028A2
:102C300008D1DFF85C06026FDFF8F818DFF8040847
:102C400001F08AF8DFF8FC0701F0A0F880B200F08C
:102C50001CFF0500EDB2002D0CD0DFF838064078DF
:102C600050F00100DFF82C1648700D20DFF8201618
:102C700081F8D8006AE000F0F2FEDFF81406D0F820
:102C8000B8000090DFF80806036FDFF80406026E54
:102C9000DFF8F01CDFF8AC0701F05EF8DFF8A407FE
:102CA00001F074F880B200F0F0FE0500EDB2002DE6
:102CB00010D1DFF8C005006850F08060DFF8B4156F
:102CC0000860DFF8B005006850F48020DFF8A41534
:102CD00008600CE0DFF8BC05407850F00100DFF838
:102CE000B41548700D20DFF8A81581F8D8002DE044
:102CF000DFF8A005407850F00100DFF89815487023
:102D00000D20DFF88C1581F8D8000020DFF884153D
:102D100088751BE0DFF87C05407850F00100DFF893
:102D2000741548700020DFF8681581F8D80000207D
:102D3000DFF86015887509E008E0DFF838050068FD
:102D400050F04000DFF82C150860FFE7DFF824059D
:102D50000068C0F3004000280FD0DFF818050068B5
:102D600030F48030DFF80C150860DFF82405D0F867
:102D7000980080B202F02BFD39E1DFF8F80400681A
:102D8000C0F38050002812D0DFF808050078C0F3A7
:102D9000C000C0B200280AD0DFF8D804006830F4C0
:102DA0008000DFF8D014086002F05BFD1FE1DFF85F
:102DB000C404D0F80100C0F3C06000282CD0DFF8B4
:102DC000B404D0F8010030F00060DFF8A814C1F8B6
:102DD0000100DFF8BC04B0F88E000090DFF8B0040A
:102DE000D0F8AC30DFF8A02BDFF8A4044078C0F3B3
:102DF000C200010049B25FF0FF3003F0BFF94FF4A9
:102E000000760027DFF8808B3A003100404600F062
:102E1000DDFF00F031FAEAE0DFF85804D0F80100F5
:102E2000C0F30070002831D0DFF84804D0F801006A
:102E300030F08050DFF83C14C1F80100DFF8500496
:102E4000B0F88E000090DFF84804D0F8AC30DFF81E
:102E5000382BDFF83C044078C0F3C200010049B2CF
:102E6000DFF82C0490F9030040F3020040B203F0B5
:102E700085F94FF400760027DFF80C8B3A0031001B
:102E8000404600F0A3FF00F0F7F9B0E0DFF8E403FC
:102E9000D0F80100C0F3807000281CD0DFF8F804DF
:102EA000DFF8EC13897911F00701085C002807D0DE
:102EB0000221DFF8DC03807910F0070000F086FDC6
:102EC000DFF8B003D0F8010030F08040DFF8A41341
:102ED000C1F801008BE0DFF89C03D0F80100C0F3DB
:102EE0004070002813D00221DFF8A00A00F02FFF65
:102EF0000220DFF8A0130875DFF87803D0F801008E
:102F000030F00050DFF86C13C1F801006FE0DFF81B
:102F10006403D0F80200C0F3006000282AD0DFF874
:102F20005403D0F8020030F08070DFF84813C1F885
:102F30000200DFF840030068C0F34070002804D0AE
:102F4000DFF8440A00F006FF07E0DFF84403B0F8BA
:102F50008A10DFF8340A00F0FCFE4FF400760027F8
:102F6000DFF8248A3A003100404600F02FFF00F0DD
:102F700083F93CE0BF48D0F80200C0F3406000286D
:102F800018D0DFF8040A00F0E5FE4FF400760027C1
:102F9000DFF8F4893A003100404600F017FF00F0F6
:102FA0006BF9B448D0F8020030F00070B149C1F8B4
:102FB00002001CE0AF480068C0F38030002808D051
:102FC00003F011F9AB48006830F48040A94908606B
:102FD0000DE0A8480068C0F3C030002807D003F017
:102FE0000AF9A448006830F40040A2490860A948E2
:102FF000C07D002800F09380012800F0978002280F
:1030000000F09B80032800F09F80042800F0A3803C
:10301000052800F0A780062800F0B280072800F0FD
:10302000B680082800F0BA8009284AD00A2854D06F
:103030000B2858D00C285ED00D2800F09A800E285E
:103040002BD00F2800F0F680102800F0AE80112859
:1030500000F0B980122800F0BD80132800F0C18074
:10306000142800F0E780152800F0A680162800F04C
:10307000BF80172800F0C380182800F0C7801928E7
:1030800000F0CB801A2800F0CF801B283BD01C28F2
:103090003FD0FF2800F0CE80CCE07E484078C0F3DF
:1030A0004200C0B202280BD17A48407810F0F101FA
:1030B000801C10F00E0008437649487003F08BF82E
:1030C000B8E0DFF864090078002805D10120DFF8B6
:1030D0005819087003F083F8ACE000F036FEFF20CA
:1030E0006C49C875A6E0DFF8440903F08CF8FF20AE
:1030F0006849C8759EE0DFF8340903F090F8FF20B6
:103100006449C87596E000F026FEFF206149C87545
:1031100090E000F020FEFF205E49C8758AE0FF20A5
:103120005C49C875112000F00EFE83E0FF2059496C
:10313000C875142000F007FE7CE0FF205549C875D3
:10314000132000F000FE75E0FF205249C8751520DD
:1031500000F0F9FD6EE0FF204E49C875162000F022
:10316000F2FD67E0FF204B49C8751B2000F0EBFD26
:1031700060E0FF204749C8751C2000F0E4FD59E0DD
:10318000FF204449C875172000F0DCFD52E0FF2005
:103190004049C875122000F0D5FD4BE0FF203D49A5
:1031A000C875182000F0CEFD44E0FF203949C875ED
:1031B0001D2000F0C9FD3DE0FF203649C8751E20E6
:1031C00000F0C2FD36E0FF203249C875192000F03A
:1031D000BBFD2FE0FF202F49C8751A2000F0B4FD79
:1031E00028E0FF202B49C875062000F0ADFD21E046
:1031F000FF202849C8751F2000F0A8FD1AE0FF2015
:103200002449C875202000F0A1FD13E0FF202149CA
:10321000C875212000F09AFD0CE0FF201D49C875FB
:10322000222000F093FD05E0FF201A49C87500F048
:103230008FFDFFE7BDE8F38100201649886015483F
:10324000007850F0040013490870704700201149BD
:1032500088601048007810F0FB000E4908700120CB
:103260000C49487470470B48007810F0F700094982
:1032700008707047842200200648007850F008004B
:103280000449087070470000602000204C20002096
:10329000801D00205822002080B5DFF82409007826
:1032A000C0F38000C0B2002809D0DFF8140900780C
:1032B000C0F3C000C0B2002801D000F0E2F8DFF88F
:1032C0000409D0F80200C0F38060002811D0DFF8B4
:1032D000A80700F0E1FE00280BD0DFF8E808D0F8DE
:1032E000020030F08060DFF8DC18C1F80200FFF760
:1032F0008DF8DFF8D0080068C0F34010002819D01E
:10330000DFF83C08D0F8C000411CDFF83428C2F8D0
:10331000C01040F26C7188420CD3DFF8A808006836
:1033200030F02000DFF89C1808600020DFF810184B
:10333000C1F8C000DFF88C08D0F80200C0F3C0600C
:10334000002828D0DFF8F807D0F8BC00411CDFF8CF
:10335000F027C2F8BC10B0F5FA6F1CD3DFF8640890
:103360000068C0F30020002808D0DFF85808006883
:1033700050F48070DFF84C1808600AE0DFF8440869
:103380000068C0F30020002803D11B20DFF83018AC
:10339000C87500F0D7FB01BD98220020CA2200208A
:1033A0000121DFF81C28D1747047000030AE0008FE
:1033B00048AE000810B50400DFF80808006830F4D3
:1033C0000050DFF800180860FFF740FF72B6DFF822
:1033D000DC17DFF8A40600F075FE62B6FFF72CFFDD
:1033E000DFF8940600F050FE002811D0DFF8D40773
:1033F000D0F8020050F08060DFF8C817C1F8020072
:1034000001224FF48051DFF8B00701F088FA17E08D
:10341000DFF8B0070068C0F30030002810D10122A7
:10342000DFF88817DFF8940701F01CFC002807D1AB
:10343000DFF89007006850F40050DFF88817086044
:1034400010BD0000F0010020DFF86407407810F0A4
:103450000100002801D100BFF6E7DFF854074078EB
:1034600010F0FE00DFF848174870DFF8D40690F837
:10347000D8007047B4AF000810B5040000F0FEFAA1
:1034800010BD80B572B6DFF8F00500F03AFEDFF847
:10349000B016886762B6DFF8A806806F002804D0EF
:1034A000DFF89C06806FFCF7ADFEDFF81807D0F858
:1034B0000100C0F30060002825D0DFF88406D0F8B2
:1034C000A400401CDFF87816C1F8A400DFF87006ED
:1034D000D0F8A400332816D30020DFF86416C1F812
:1034E000A400DFF8E006D0F8010030F08070DFF8CB
:1034F000D416C1F80100DFF8CC06006830F01000E7
:10350000DFF8C016086001BD00000000E4AC000850
:1035100060AE0008ACB1000878AE0008BCB100088D
:10352000C8AF0008DCAF0008A8B20008CCB10008A2
:10353000D8AB0008DCB1000810B5040020780428DE
:103540005BD005285ED0082861D0092864D00A28FD
:1035500067D00B286AD00C286DD00F2870D01428A3
:1035600073D0162876D0172879D018287CD01A283E
:1035700000F07F801B2800F081801F2800F08380EE
:10358000202800F08580232800F0BE80242800F049
:10359000C480262800F0C680282800F0D080292882
:1035A00000F0D2802A2800F0D8802B2800F0DA80A2
:1035B0002C2800F0DC80372800F0DE803A2800F06C
:1035C00019813D2800F086813E2800F090813F2837
:1035D00000F09E81402800F02381422800F0C7813E
:1035E000432800F09A81442800F0A081452800F08B
:1035F000AA81462800F0B081C2E10720DFF8B015AB
:10360000C875BDE10020DFF8A815C875B8E1012034
:10361000DFF89C15C875B3E10220DFF89415C87572
:10362000AEE10320DFF88815C875A9E10420DFF8B2
:103630008015C875A4E10620DFF87415C8759FE1F0
:103640000820DFF86C15C8759AE11120DFF86015C5
:10365000C87595E11220DFF85815C87590E1132060
:10366000DFF84C15C8758BE10920DFF84415C875E3
:1036700086E10A20DFF83815C87581E10520DFF8FA
:103680003015C8757CE10D20DFF82415C87577E189
:10369000DFF81C054078C0F34200C0B202280BDA04
:1036A000DFF80C05407810F0F101801C10F00E00DE
:1036B0000843DFF8FC144870DFF8F404007850F099
:1036C0001000DFF8EC1408700E20DFF8E414C87561
:1036D000DFF82C060068C0F38010002813D0DFF854
:1036E0002006006830F04000DFF814160860DFF8AC
:1036F0001006006830F40070DFF8041608601C2023
:10370000DFF8AC14C8753BE1DFF8F405006830F46D
:103710008060DFF8EC15086032E11620DFF89014C5
:10372000C8752DE1DFF88804007810F0EF00DFF8AD
:10373000801408700F20DFF87814C87520E110207D
:10374000DFF86C14C8751BE10020DFF8DC1208708C
:103750001520DFF85C14C87512E11720DFF850144B
:10376000C8750DE11820DFF84814C87508E1192064
:10377000DFF83C14C87503E1DFF884050068C0F386
:10378000405000280FD0DFF87805006830F40010B2
:10379000DFF86C150860DFF86805006830F48020F9
:1037A000DFF85C150860607810F00F00DFF8901308
:1037B000097860F3C501DFF888030170DFF844057C
:1037C000DFF87C130978C1F3C201C9B2085C002894
:1037D0000FD0DFF82C05006850F48000DFF82015CA
:1037E0000860DFF81C05006850F01000DFF81015C5
:1037F0000860C5E0607810F00F00DFF844138979A5
:1038000060F30201DFF838038171DFF8F404D0F8C7
:10381000010050F08040DFF8E814C1F80100AFE08B
:10382000A088DFF81C13C1F8A000DFF8D4040068FA
:1038300050F40020DFF8C8140860DFF8C404006802
:1038400050F01000DFF8B8140860DFF86403007867
:10385000C0F34010C0B200281ED1A07801280AD1C0
:10386000DFF89C04006840084000DFF8941408600A
:1038700000F089F92DE0DFF88804006830F40020BA
:10388000DFF87C140860DFF87804006830F010007E
:10389000DFF86C1408601CE0DFF86404006850F482
:1038A0008020DFF85C1408600520DFF89412A1F88E
:1038B0009200DFF84C04006850F40010DFF8401468
:1038C0000860DFF87C02D0F8A000DFF87412C1F8BD
:1038D0009C0055E0DFF82804006850F48040DFF8D1
:1038E000201408600120DFF82014087048E0DFF899
:1038F0001004006850F40040DFF804140860002051
:10390000DFF8081408700020DFF8FC13087037E0B7
:103910001A20DFF89C12C87532E0DFF8E403006873
:1039200050F40070DFF8D813086029E0DFF8D00306
:10393000006830F40070DFF8C81308601C20DFF85E
:103940007012C8751CE0DFF8B803006850F480708E
:10395000DFF8AC13086013E0DFF8A403006830F46C
:103960008070DFF89C13086000F0DCF808E0DFF8F6
:103970009003006850F08000DFF884130860FFE7D0
:1039800010BD000000AD0008F0150020841D0020CF
:1039900038B504000D0000F04BF86948C0F8B84095
:1039A0006748C5661720834981F8260072B68148AA
:1039B000D0E9082311001A00DFF8540300F058FA88
:1039C00062B6DFF8500300F0EFFA31BD38B50400FD
:1039D0000D0000F02DF8EDB2022D04D1152075492F
:1039E00081F8260006E0EDB2012D03D123207149B4
:1039F00081F826006F4890F8210064F303006D49B8
:103A000081F8210072B66B48D0E9082311001A0032
:103A1000DFF8FC0200F02CFA62B6DFF8F80200F0E2
:103A2000C3FA31BD00000000D2220020CF1D0020CB
:103A30006348007810F0010000280DD1604800783C
:103A4000C0F34000C0B2002808D05D484078C0F301
:103A50000010C0B2002801D100BFE9E7704770B57F
:103A60004FF400640025DFF8B0622A002100300026
:103A700000F0ACF970BD00004C20002080B50020A3
:103A800002F052FCFEF7C2FC01BD10B5040048482C
:103A90000078C0F30010C0B2002808D14448007874
:103AA000C0F38010C0B2002801D1052039E0DFF852
:103AB0005002006810F4407F01D0102031E0DFF8A0
:103AC0004002006850F48050DFF834120860A4B25D
:103AD000002C05D1DFF84C0200F0BAFA1F2020E0DC
:103AE0004FF47A73220092B2DFF82C12334800F0C0
:103AF000D7FF002803D0FFF7C1FF0F2011E0DFF848
:103B00000002006830F48050DFF8F4110860DFF83C
:103B1000F0010068C0F34030002801D1FEF776FCC8
:103B2000002010BD2748D0F8020050F00060254961
:103B3000C1F8020000200249C1F8BC007047000033
:103B4000801D00201F48D0F8020030F000601D49A1
:103B5000C1F802000020DFF8D011C1F8BC007047A6
:103B600010B50024FFF77BFFDFF8C011DFF8A801D4
:103B700000F0F2F8DFF8A00100F008F980B2FFF7DA
:103B800084FF040010BD10B50024FFF768FFDFF8C4
:103B9000A011DFF8840100F0DFF8DFF87C0100F00D
:103BA000F5F880B2FFF771FF040010BDCE1D0020B4
:103BB000582200204C20002000000240102100204C
:103BC000582200208422002070B504000D00002639
:103BD000FFF745FF2B00220056494F4800F0BCF884
:103BE0004D4800F0D3F880B2FFF74FFF0600F6B261
:103BF000002E02D1FFF728FC06003000C0B270BDD5
:103C000070B504000D000026FFF729FF2B002200ED
:103C10004949414800F0A0F83F4800F0B7F880B2A9
:103C2000FFF733FF0600F6B2002E02D1FFF70CFCBF
:103C300006003000C0B270BD38B504000025FFF7A3
:103C40000EFF22003549344800F086F8324800F073
:103C50009DF880B2FFF719FF0500EDB2002D02D1EB
:103C6000FFF7F2FB05002800C0B232BD38B50400F2
:103C70000025FFF7F4FE22002949274800F06CF8E0
:103C8000254800F083F880B2FFF7FFFE0500EDB293
:103C9000002D02D1FFF7D8FB05002800C0B232BDCD
:103CA00010B50024FFF7DBFE24491B4800F054F850
:103CB000194800F06BF880B2FFF7E7FE0400E4B2A9
:103CC000002C02D1FFF7C0FB04002000C0B210BDE1
:103CD00010B50024FFF7C3FE19490F4800F03CF867
:103CE0000D4800F053F880B2FFF7CFFE0400E4B2B5
:103CF000002C02D1FFF7A8FB04002000C0B210BDC9
:103D00008422002098220020D3220020D4220020E8
:103D1000602000206C200020F0010020F0AF00089F
:103D2000F8AB000818AC0008801D002028B300087C
:103D300030B3000804B0000818B0000838B3000819
:103D400040B300087047704770477047704770472E
:103D500070477047704770470CB41CB5044604A800
:103D600001900A46009401AB694607487844183030
:103D700002F0EEFA009A0021117000285CBF009852
:103D8000001B16BC5DF80CFB3B00000000F10103BA
:103D9000810704D010F8011B89B18107FAD10268AC
:103DA000B2F10131914311F0803F04BF50F8042F6C
:103DB000F6E710F8011B11B110F8011BFBE7C01A60
:103DC00070470268531C03601170704762F30F2242
:103DD00062F31F42401810F0030308D0C91A1FD322
:103DE000DB0748BF00F8012D28BF20F8022D130083
:103DF00030B414461546103928BF20E93C00FAD8E3
:103E0000490728BF20E90C0048BF40F8042D89006D
:103E100028BF20F8022D48BF00F8012D30BC7047A4
:103E2000C91818BF00F8012DCB0728BF00F8012DD5
:103E30007047200008231A0012FB01F3838000233F
:103E400003800023C38000234380554B8360704769
:103E50008188C088B0EBD10F01D1012000E00020A3
:103E60007047C088002801D1012000E00020704781
:103E700076B504002000FFF7EBFF002842D16088F0
:103E8000C0080600A06810EBC600BDF804108180D1
:103E9000A06810EBC6009DF802108170A06810EBBE
:103EA000C6009DF80110A26812EBC602527861F3B9
:103EB00003024270A06810EBC600A16811EBC601B6
:103EC000497811F00F019DF8012012F0F002114322
:103ED00041709DF80000A16801F83600A06810EB61
:103EE000C6009DF806108171E088401CE080608863
:103EF00008306080A0880500608890FBF5F105FB24
:103F00001100608073BD70B504002000FFF7A9FFA9
:103F1000002801D0002042E02088C0080600A068E8
:103F200010EBC60080881F498880A06810EBC6008F
:103F3000407810F00F001B49497860F303011948DD
:103F40004170A06810EBC6004078C0B20009154966
:103F5000497811F00F0151EA001012494870A06829
:103F600010EBC60080780F498870A06810F8360002
:103F70000C490870A06810EBC60080790949887167
:103F8000208808302080E088401EE080A08805005E
:103F9000208890FBF5F105FB11002080014870BDE1
:103FA000F01B0020902200200021818000218171DF
:103FB000417811F0F00151F009014170092181703F
:103FC00063210170704738B504000D0029002000FE
:103FD00002F090FD32BD000062B38B0708D0521E84
:103FE00011F8013B00F8013B00F024808B07F6D16B
:103FF000830740F0208000BF103A07D330B4B1E807
:104000003810103AA0E83810F9D230BC530724BF5A
:10401000B1E80810A0E8081044BF51F8043B40F88C
:10402000043BD20724BF31F8022B20F8022B44BFF7
:104030000B7803707047083A07D3B1E80810083AC4
:1040400040F8043B40F804CBF7D25307E4E7000004
:104050000EB400B582B003A9009102466B4601215F
:10406000034878440A3002F073F906BC5DF810FB8F
:10407000816E00008160002202600022C260002286
:104080004260804A02617047C068B0F54E7F01DB34
:10409000012000E000207047C068C92801DA012033
:1040A00000E000207047C068B0F5806F01D10120AA
:1040B00000E000207047C068002801D1012000E026
:1040C00000207047F8B504000D002000FFF7EBFF5B
:1040D000002815D1E068401CE0606068411C616008
:1040E000012621694718320029003800FFF774FFC4
:1040F00060684FF4806190FBF1F202FB1102626094
:10410000F1BD2DE9F84F04005F4805002000FFF7DE
:10411000D2FF002801D00020B1E04FF40076002744
:10412000DFF864813A0031004046FFF74FFE574800
:104130000068C0F38040002800F08580D4F804B007
:10414000E068C8282EDAE0685149A1F8900020689C
:1041500083450BDB20684E49B1F890602169471810
:10416000320039002800FFF737FF16E02668206884
:10417000D6F58067216910EB01083A004146280016
:10418000FFF72AFF2068D4F81090281A10F5806AEB
:104190005A4649465046FFF71FFF606820600020DE
:1041A000E0606BE02068834510DB2068C826216949
:1041B0004718320039002800FFF70EFF2068C8308A
:1041C00020602068BBEB0000E06037E02068C8306A
:1041D000B0F5806F12DA2068C826216947183200CE
:1041E00039002800FFF7F8FE2068C83020602068FA
:1041F000D0F580601BEB0000E0601FE026682068BF
:10420000D6F58061009121694718009A390028008D
:10421000FFF7E2FE2068B6F54E78D4F81090281A21
:1042200010F5806A424649465046FFF7D5FEB6F57E
:104230004E7020602068BBEB0000E060C82014498D
:10424000A1F890001AE02068012621694718320081
:1042500039002800FFF7C0FE2068401C2060E0689D
:10426000401EE06001200A49A1F8900020684FF448
:10427000806190FBF1F202FB110222602800BDE890
:10428000F28F0000F0110020F0170020842200209F
:10429000801D002010B4426803685B1A002B0FD405
:1042A00003685B1A03600368934203DA0368D31A56
:1042B000C3600FE00368D3F58063D318C36009E0DF
:1042C0000368D1F58064E31803600368D3F5806365
:1042D000D318C36010BC704738B502F021FC044607
:1042E000208880042ED5656809E04A1B294602F023
:1042F0005FFC10F1010F18BF00280CD04519E168D0
:1043000094F903008D42F0D30022002102F050FC0A
:1043100010F1010F0DD16068E0606061E0622088FB
:1043200040F400702080204602F0FBFB4FF0FF308D
:1043300032BD6568E5606561E5624DF6FF71208814
:1043400008402080204602F0ECFB002032BDF8B58A
:10435000A0B9C046C04600240A4D08264FF0FF37DA
:10436000286820B1FFF7B8FF002848BF3C462D1D44
:10437000761EF5D1C046C0462046F2BDBDE8F240EB
:10438000AAE70000BC01002010B50400002C01D1F8
:10439000012014E094F83900002805D1002084F8A9
:1043A0003800200002F00BFD022084F83900211DA6
:1043B000206800F0D3F8012084F83900002010BDF7
:1043C00001000868C06850F001000A68D060086801
:1043D000006850F001000A6810600020704710B5B6
:1043E00004002068006980071AD52068C06880072B
:1043F00016D57FF002002168086101202076206830
:10440000806910F0030F03D0200000F0A4F805E04D
:10441000200000F09FF8200000F09EF80020207699
:104420002068006940071AD52068C068400716D583
:104430007FF00400216808610220207620688069EE
:1044400010F4407F03D0200000F085F805E0200044
:1044500000F080F8200000F07FF80020207620682F
:10446000006900071AD52068C068000716D57FF0DC
:10447000080021680861042020762068C06910F0D7
:10448000030F03D0200000F066F805E0200000F0E4
:1044900061F8200000F060F80020207620680069B4
:1044A000C0061AD52068C068C00616D57FF0100077
:1044B00021680861082020762068C06910F4407FD8
:1044C00003D0200000F047F805E0200000F042F89B
:1044D000200000F041F80020207620680069C00725
:1044E0000AD52068C068C00706D57FF001002168A2
:1044F0000861200002F0E4FC2068006900060AD58B
:104500002068C068000606D57FF080002168086139
:10451000200002F0FCFC2068006940060AD52068F3
:10452000C068400606D57FF0400021680861200081
:1045300000F013F82068006980060AD52068C0687A
:10454000800606D57FF0200021680861200002F077
:10455000DDFC10BD7047704770477047002203684C
:104560001A00DFF8943098420CD0B0F1804F09D097
:10457000DFF88830984205D0214B984202D0214B79
:10458000984201D1012300E00023DBB2002B03D0CD
:1045900032F070024B681A43174B984214D0B0F1B6
:1045A000804F11D0154B98420ED0154B98420BD02E
:1045B000144B984208D0144B984205D0134B9842A4
:1045C00002D0134B984201D1012300E00023DBB25B
:1045D000002B03D032F44072CB681A4302608B6820
:1045E000C3620B688362044B984201D10B69036379
:1045F00001234361704700000000014000040040B7
:1046000000080040000C0040004001400044014010
:1046100000480140F8B400230024002500263200A1
:10462000102A80F0D8800126964033000E681E4084
:1046300034009C4240F0CD804E68022E02D04E687D
:10464000122E16D1D60810EB8606366A35000F26D4
:1046500012F00707FFB2BF00BE40B5430E6912F06B
:104660000707FFB2BF00BE403543D60810EB8606F1
:1046700035620668350003261700FFB27F00BE4092
:10468000B5430E7916F003061700FFB27F00BE4057
:10469000354305604E68012E08D04E68022E05D0C5
:1046A0004E68112E02D04E68122E19D18668350040
:1046B00003261700FFB27F00BE40B543CE68170047
:1046C000FFB27F00BE403543856046683500012655
:1046D0009640B5434E68C6F3001696403543456094
:1046E000C668350003261700FFB27F00BE40B54301
:1046F0008E681700FFB27F00BE403543C5604E682C
:10470000F60066D5002600968A4E366856F4804636
:10471000884F3E60874E366816F480460096009EAD
:10472000854E970856F8276035000F2612F00307CC
:10473000FFB2BF00BE40B543804EB04201D100265B
:1047400014E07F4EB04201D101260FE07D4EB04211
:1047500001D102260AE07C4EB04201D1032605E0D9
:104760007A4EB04201D1042600E00726F6B212F0DC
:104770000307FFB2BF00BE4035436F4E970846F8AF
:104780002750734E36683500A5434E68F60300D5B2
:1047900025436F4E35606F4E36683500A5434E6831
:1047A000B60300D525436B4E35606B4E3668350039
:1047B000A5434E68F60200D52543674E3560674E27
:1047C00036683500A5434E68B60200D52543634ED2
:1047D0003560521C24E7F1BC7047F0B5002200237D
:1047E000002400263500102D80F098800126AE4070
:1047F000320012EA01063300934240F08D800668D1
:104800000327AC465FFA8CFC5FEA4C0C17FA0CF7F6
:10481000BE430660EE0810EB8606EF0810EB870734
:104820003F6A5FF00F0C15F0070E5FFA8EFE5FEA2D
:104830008E0E1CFA0EFC37EA0C07376286680327D7
:10484000AC465FFA8CFC5FEA4C0C17FA0CF7BE43DF
:10485000866046680127AF40BE434660C6680327AE
:10486000AC465FFA8CFC5FEA4C0C17FA0CF7BE43BF
:10487000C660314EAF0856F8276034000F2615F099
:104880000307FFB2BF00BE4034402C4EB04201D1FE
:10489000002614E02A4EB04201D101260FE0294E35
:1048A000B04201D102260AE0274EB04201D10326D0
:1048B00005E0264EB04201D1042600E00726F6B2FC
:1048C00015F00307FFB2BF00BE40B44224D10F264B
:1048D00015F00307FFB2BF00BE403400164EAF080C
:1048E00056F82760A643144F5FEA950C47F82C60F2
:1048F000174E36689E43164F3E60164E36689E43EE
:10490000144F3E60144E36689E43134F3E60134E64
:1049100036689E43114F3E606D1C64E7F0BDD2B215
:10492000002A02D089B2816102E089B20B0483615E
:10493000704700004438024008380140000002403F
:104940000004024000080240000C02400010024037
:10495000003C0140043C0140083C01400C3C01404B
:1049600080B52248006850F40070204908601F4854
:10497000006850F480601D4908601C48006850F4CD
:1049800080701A490860032002F034FB0F2000F009
:1049900004F802F06FFB002002BD10B504001448BB
:1049A00000684FF47A71B0FBF1F002F04AFB00228C
:1049B00021005FF0FF3002F023FB002010BD0D4806
:1049C0000068401C0B49086070470A48006870473F
:1049D00011B581B00024FFF7F8FF0400FFF7F5FFE1
:1049E000001B01998842F9D313BD0000003C02402E
:1049F000E4010020B422002010B50400002C01D1F5
:104A0000012033E0A0690028FFD194F83900002884
:104A100005D1002084F83800200002F0DFF82420BF
:104A200084F839002068C06830F400502168C860FC
:104A3000200000F0E9FA2068006930F49040216815
:104A400008612068406930F02A00216848612068C8
:104A5000C06850F400502168C8600020E063202046
:104A600084F83900202084F83A00002010BD10B5E9
:104A70000400002C01D1012011E0242084F8390029
:104A8000200002F07DF90020E063002084F8390066
:104A9000002084F83A00002084F83800002010BD7F
:104AA0002DE9F84304000D0016001F005FF0000917
:104AB00094F8390020285FD1002D02D0B6B2002E24
:104AC00001D1012059E094F83800012801D10220D9
:104AD00053E0012084F838000020E063212084F8AE
:104AE0003900FFF772FF8146A684E684E08C002837
:104AF0002FD0E08C401EE084A068B0F5805F18D114
:104B000000974B4600228021200000F092F90028F7
:104B100001D0032031E0A846B8F80000C005C00D60
:104B2000216848602069002801D1AD1CDEE76D1CBA
:104B3000DCE700974B4600228021200000F079F945
:104B4000002801D0032018E02878216848606D1CF7
:104B5000CCE700974B4600224021200000F069F985
:104B6000002801D0032008E0202084F8390000202C
:104B700084F83800002000E00220BDE8F2832DE92F
:104B8000F84304000D0016001F005FF0000994F8C0
:104B90003A00202863D1002D02D0B6B2002E01D1F8
:104BA00001205DE094F83800012801D1022057E08F
:104BB000012084F838000020E063222084F83A00C5
:104BC000FFF703FF8146A685E685E08D00283ED0ED
:104BD000E08D401EE085A068B0F5805F1DD1009794
:104BE0004B4600222021200000F023F9002801D0AC
:104BF000032035E0A8462069002807D120684068D6
:104C0000C005C00DA8F80000AD1CDEE720684068B4
:104C1000C0B2A8F800006D1CD7E700974B460022F1
:104C20002021200000F005F9002801D0032017E022
:104C30002069002804D12068406828706D1CC4E7F2
:104C40002068406810F07F0028706D1CBDE72020B0
:104C500084F83A00002084F83800002000E00220A8
:104C6000BDE8F28310B4030093F83A00202828D15D
:104C7000002902D092B2002A01D1012022E093F84B
:104C80003800012801D102201CE0012083F83800FF
:104C900099629A85DA850020D863222083F83A0049
:104CA000002083F838001868406950F001001C6843
:104CB00060611868C06850F490701C68E060002063
:104CC00000E0022010BC70472DE9F8430400206882
:104CD00005682068C668206847695FF000085FF0D3
:104CE000000915F00F008046B8F1000F18D1A80692
:104CF00005D5B00603D5200000F036F996E0E806A9
:104D00000ED5F0060CD500200090206800680090B9
:104D10002068406800900098200000F089F885E045
:104D2000B8F1000F72D0F80702D416F4907F6DD05E
:104D300015F00100C0B2002805D0F00503D5E06BE6
:104D400050F00100E063680708D517F00100C0B219
:104D5000002803D0E06B50F00200E063A80708D5FC
:104D600017F00100C0B2002803D0E06B50F004003F
:104D7000E063280708D517F00100C0B2002803D06F
:104D8000E06B50F00800E063E06B00283DD0A8061F
:104D900004D5B00602D5200000F0E6F8206840698E
:104DA000800910F001008146E06B000702D4B9F1E0
:104DB000000F25D0200000F074F8206840694006FC
:104DC0001AD52068406930F0400021684861606B66
:104DD00000280DD00FF2ED00616B0865606B02F0EA
:104DE000BBF9002811D0606B616B096D88470CE03E
:104DF000200002F071F808E0200002F06DF804E0F5
:104E0000200002F069F80020E0630FE0280605D5D5
:104E1000300603D5200000F060F807E0680605D5ED
:104E2000700603D5200000F08FF8FFE7BDE8F1839E
:104E300070472DE9F04104000D0016001F00DDF859
:104E40001880206800682840A84201D1012000E0B5
:104E50000020F6B2B04221D118F1010FF1D0B8F123
:104E6000000F04D0FFF7B1FDC01B8045E9D22068D8
:104E7000C06830F4D0702168C8602068406940087C
:104E8000400021684861202084F83900202084F8FF
:104E90003A00002084F83800032000E00020BDE83C
:104EA000F0810168C96831F490710268D1600168CD
:104EB00049694908490002685161202180F83A1087
:104EC0007047000038B50400A56B0020E88500207D
:104ED000E884280002F000F831BD010091F83900A3
:104EE00021282FD18868B0F5805F11D1086A0200AF
:104EF0001088C005C00D0B6858600869002803D1F0
:104F0000086A801C086209E0086A401C086205E023
:104F1000086A431C0B6200780B685860C88C401EFE
:104F2000C884C88C00280BD10868C06830F08000A5
:104F30000B68D8600868C06850F040000B68D86003
:104F4000002000E00220704710B504002068C0680F
:104F500030F040002168C860202084F8390020002B
:104F600001F0B4FF002010BD38B5040094F83A00F9
:104F7000222847D1A068B0F5805F15D1A06A05004E
:104F80002069002808D120684068C005C00D28802D
:104F9000A06A801CA06219E020684068C0B2288026
:104FA000A06A401CA06211E02069002806D1A06A16
:104FB000411CA16221684968017007E0A06A411C98
:104FC000A1622168496811F07F010170E08D401EE7
:104FD000E085E08D002813D12068C06830F490701F
:104FE0002168C86020684069400840002168486125
:104FF000202084F83A00200001F05CFF002002E04D
:10500000002000E0022032BD2DE9F8430400002515
:1050100020680069050035F44055E06805432068C4
:1050200005612068C0680500BC480540A06821698A
:10503000084361690843E169084305432068C56086
:1050400020684069050035F44075A0690543206873
:105050004561E069B0F5004F40F0B0802068B0498C
:10506000884203D02068AF49884253D102F0D6FB72
:10507000814602F0D3FB804602F0D0FB070002F02D
:10508000CDFB060002F0CAFB192101FB09F16268A1
:105090005200B1FBF2F16422B1FBF2F1192202FBE2
:1050A00008F263685B00B2FBF3F2192303FB07F31A
:1050B00067687F00B3FBF7F36427B3FBF7F364275C
:1050C00007FB1322D20032326423B2FBF3F212F058
:1050D000F802520012EB0111192202FB06F263687A
:1050E0005B00B2FBF3F21923584363685B00B0FB2B
:1050F000F3F06423B0FBF3F0642303FB1020C00043
:1051000032306422B0FBF2F010F007004018216842
:10511000886000E102F072FB814602F06FFB80467E
:1051200002F06CFB070002F069FB060002F066FB70
:10513000192101FB09F162685200B1FBF2F164220E
:10514000B1FBF2F1192202FB08F263685B00B2FBCB
:10515000F3F2192303FB07F367687F00B3FBF7F350
:105160006427B3FBF7F3642707FB1322D200323224
:105170006423B2FBF3F212F0F802520012EB0111B9
:10518000192202FB06F263685B00B2FBF3F21923FB
:10519000584363685B00B0FBF3F06423B0FBF3F0AB
:1051A000642303FB1020C00032306422B0FBF2F015
:1051B00010F00700401821688860ACE0206858496A
:1051C000884203D020685749884252D102F026FB1A
:1051D000814602F023FB804602F020FB070002F02C
:1051E0001DFB060002F01AFB192101FB09F16268A0
:1051F0009200B1FBF2F16422B1FBF2F1192202FB41
:1052000008F263689B00B2FBF3F2192303FB07F378
:105210006768BF00B3FBF7F36427B3FBF7F36427BA
:1052200007FB1322120132326423B2FBF3F212F0B5
:10523000F00212EB0111192202FB06F263689B00D7
:10524000B2FBF3F21923584363689B00B0FBF3F001
:105250006423B0FBF3F0642303FB10200001323021
:105260006422B0FBF2F010F00F0040182168886053
:1052700051E002F0C3FA814602F0C0FA804602F023
:10528000BDFA070002F0BAFA060002F0B7FA1921D7
:1052900001FB09F162689200B1FBF2F16422B1FBFB
:1052A000F2F1192202FB08F263689B00B2FBF3F2F1
:1052B000192303FB07F36768BF00B3FBF7F3642709
:1052C000B3FBF7F3642707FB132212013232642386
:1052D000B2FBF3F212F0F00212EB0111192202FB01
:1052E00006F263689B00B2FBF3F21923584363682C
:1052F0009B00B0FBF3F06423B0FBF3F0642303FBEB
:105300001020000132306422B0FBF2F010F00F00E8
:10531000401821688860BDE8F1830000F369FFFF51
:10532000001001400014014038B504000025DFF8EA
:105330004007FEF78DFEDFF83C07FEF789FEDFF839
:105340003807FEF785FEDFF83407FEF781FEFCF72D
:1053500027FF012000F036FCFDF706F8FEF7A0FC61
:105360000500EDB2002D02D02800C0B22EE20121CE
:10537000DFF80C07FEF744FC0500EDB2002D02D06B
:105380002800C0B222E2206B00280BD0216BDFF88E
:10539000F406FEF735FC0500EDB2002D02D0280022
:1053A000C0B213E20021DFF8E006FEF729FC050099
:1053B000EDB2002D02D02800C0B207E2207800280C
:1053C00002D001281AD033E00021DFF8C006FEF732
:1053D00017FC0500EDB2002D02D02800C0B2F5E1A7
:1053E000DFF8AC16DFF8AC06FEF7EEFB0500EDB219
:1053F000002D02D02800C0B2E8E119E00121DFF859
:105400008C06FEF7FDFB0500EDB2002D02D0280052
:10541000C0B2DBE1DFF88016DFF87806FEF7D4FBD8
:105420000500EDB2002D02D02800C0B2CEE1FFE7AA
:105430006078002803D002286FD025D3B6E0002181
:10544000DFF85806FEF7DCFB0500EDB2002D02D0B8
:105450002800C0B2BAE10021DFF84406FEF7D0FB15
:105460000500EDB2002D02D02800C0B2AEE100214F
:10547000DFF83006FEF7C4FB0500EDB2002D02D0C8
:105480002800C0B2A2E191E00121DFF81006FEF78A
:10549000B7FB0500EDB2002D02D02800C0B295E1A7
:1054A0000B21DFF80406FEF7ABFB0500EDB2002D83
:1054B00002D02800C0B289E10021DFF8F005FEF734
:1054C0009FFB0500EDB2002D02D02800C0B27DE1A7
:1054D0000021DFF8DC05FEF793FB0500EDB2002D9F
:1054E00002D02800C0B271E10021DFF8B405FEF758
:1054F00087FB0500EDB2002D02D02800C0B265E1A7
:105500000021DFF8A005FEF77BFB0500EDB2002DC2
:1055100002D02800C0B259E148E00121DFF87C0543
:10552000FEF76EFB0500EDB2002D02D02800C0B2E0
:105530004CE10C21DFF87005FEF762FB0500EDB2CF
:10554000002D02D02800C0B240E10A21DFF85C053E
:10555000FEF756FB0500EDB2002D02D02800C0B2C8
:1055600034E10121DFF84805FEF74AFB0500EDB202
:10557000002D02D02800C0B228E10121DFF820056B
:10558000FEF73EFB0500EDB2002D02D02800C0B2B0
:105590001CE10021DFF80C05FEF732FB0500EDB23F
:1055A000002D02D02800C0B210E1FFE7A07800284B
:1055B00003280FD8A078062101FB00F1DFF8F404DE
:1055C000FEF71EFB0500EDB2002D02D02800C0B290
:1055D000FCE0FFE7E078002802280CD8E178DFF84B
:1055E000D804FEF70DFB0500EDB2002D02D0280017
:1055F000C0B2EBE0FFE7606800280BD06168DFF81D
:10560000BC04FEF7E1FA0500EDB2002D02D028003F
:10561000C0B2DBE0A06800280BD0A168DFF8A004CE
:10562000FEF7D2FA0500EDB2002D02D02800C0B27C
:10563000CCE0E06800280BD0E168DFF88804FEF7D2
:10564000C3FA0500EDB2002D02D02800C0B2BDE0C3
:10565000206900280BD02169DFF86C04FEF7B4FA4A
:105660000500EDB2002D02D02800C0B2AEE06069A6
:1056700000280BD06169DFF85404FEF7A5FA050095
:10568000EDB2002D02D02800C0B29FE0E0690028F2
:105690000BD0E169DFF83804FEF796FA0500EDB2A9
:1056A000002D02D02800C0B290E0206A00280BD064
:1056B000216ADFF82004FEF787FA0500EDB2002D1D
:1056C00002D02800C0B281E0606A00280FD0606A72
:1056D0004FF47A7101FB00F1DFF8FC03FEF790FA5A
:1056E0000500EDB2002D02D02800C0B26EE0A06A25
:1056F00000280BD0A16ADFF8E403FEF781FA050069
:10570000EDB2002D02D02800C0B25FE094F82C006A
:1057100000280CD094F82C10DFF88C04FEF770FAF7
:105720000500EDB2002D02D02800C0B24EE0FEF719
:1057300096F9DFF87814DFF87804FEF70DFBDFF850
:105740007004FEF723FB80B2FEF79FF90500EDB26F
:10575000002D08D1FDF778FE0500EDB2002D02D036
:105760002800C0B232E0FEF77AF9DFF84814DFF81B
:105770004004FEF7F1FADFF83804FEF707FB80B2C9
:10578000FEF783F90500EDB2002D08D1FDF75CFEB0
:105790000500EDB2002D02D02800C0B216E0206B4B
:1057A000002804D0206B02F092F8FCF72FFEFCF7E3
:1057B000DBFD002000F006FADFF8FC03FEF748FCF2
:1057C000DFF8FC03FEF7C3FD2800C0B232BD38B5D8
:1057D0000400002500F040F9A4B22300DFF8DC0348
:1057E0000078C0F3C202D2B2DFF84814DFF8C00379
:1057F000FEF7B2FADFF8B803FEF7C8FA80B2FEF798
:1058000044F90500EDB2002D28D1DFF890040068BE
:10581000C0F30010002807D1DFF88004006850F0C2
:105820001000DFF878140860A4B2DFF89003C0F825
:105830009C400520DFF88413A1F89200DFF85C0497
:10584000006850F48020DFF854140860DFF84C043E
:10585000006850F40010DFF8441408602800C0B25B
:1058600032BD80B5FEF7FBF800F0F6F8DFF8C803AC
:10587000DFF848130978C1F3C201C9B2085C0028F7
:1058800021D0DFF818040068C0F30010002807D109
:10589000DFF80804006850F01000DFF8001408601A
:1058A000DFF818030078C0F3C202D2B2DFF8501458
:1058B000DFF85004FEF750FADFF84804FEF766FA06
:1058C00080B2FEF7E2F801BD70B504000D000026BD
:1058D00029002000FEF75CF8FDF7B6FD0600300059
:1058E000C0B270BD70B504000D000026DFF81804CA
:1058F0000078002801D10520ADE0A4B2002C01D130
:105900000220A8E072B6DFF89403D0F8010050F04E
:105910000070DFF88813C1F80100DFF88003006829
:1059200050F00040DFF87413086062B6DFF8DC0363
:10593000007810F00100002804D1DFF8D00340689F
:10594000002801D000BFF1E700F086F8DFF84C0333
:10595000006840084000DFF844130860DFF8AC033B
:105960000078C0F34010C0B2002833D1FEF70BF925
:10597000DFF898030078C0F34010C0B2002806D1C9
:10598000DFF884030078002801D000BFF0E7DFF8DB
:105990007803007800281DD1DFF80003006850F07C
:1059A0000100DFF8F812086072B6DFF8F002006854
:1059B00040004008DFF8E4120860DFF8E002D0F8A9
:1059C000010030F00070DFF8D412C1F8010062B6B7
:1059D000022040E04FF47A73220092B22900DFF8EF
:1059E0003003FFF75DF8002803D0FEF747F80F20DB
:1059F0000600DFF818030078C0B2C009C0B2002862
:105A00000BD1FEF7ADF8DFF804030078C0B2C0098F
:105A1000C0B2002801D100BFF5E7DFF880020068BE
:105A200050F00100DFF87412086072B6DFF86C0203
:105A3000006840004008DFF864120860DFF85C028C
:105A4000D0F8010030F00070DFF85012C1F801000A
:105A500062B63000C0B270BDDFF8B0020078C0B2EC
:105A6000C009C0B2002801D100BFF5E770470000AF
:105A7000E8AD000874AC0008B8AB000850AF0008EF
:105A8000BCB00008CCB0000854B20008DCB000087C
:105A900060B2000864AF00086CB20008ECB0000807
:105AA000FCB000080CB1000800AE000878AF000898
:105AB00018AE00081CB1000878B2000884B20008D3
:105AC00090B2000810B3000818B300089CB2000898
:105AD0002CB100083CB1000890AC00084CB10008A3
