:020000040800F2
:10000000A81800200D9C0008956E0008976E000847
:1000100000000000000000000000000000000000E0
:10002000000000000000000000000000A16E0008B9
:10003000AB6E000800000000B56E0008CB6E000833
:10004000077900086F7B00089F7B0008D37C0008BD
:100050002F7E0008AB850008D387000803880008BE
:10006000DF8A0008A78C00086F8E0008DF8F000869
:10007000479700085797000800000000B76E000877
:1000800000000000EF9800080000000000000000E1
:10009000C16E000800000000D59D0008D79D000833
:1000A000D99D0008DB9D0008DD9D0008076F000852
:1000B000116F0008DF9D0008E19D0008E39D000826
:1000C000F1B5002403F0E5FB6846027812491348B5
:1000D00003F060FDFF201249C875104803F076FD5B
:1000E00080B203F0F0FB0400E4B2002C02D0200048
:1000F000C0B20FE0012500260A4F32002900380067
:1001000003F06CFD0648C07D0E2801D000BFF9E762
:100110002000C0B2F2BD0000A09C000868050020CD
:10012000281400203F140020F1B58EB0002069464D
:100130008872002004900E98007869468872D3482F
:1001400003F076FD01004903C90F00290ED168466E
:10015000807A00280AD06846807ACD49CD4A126854
:100160008854CC480068401CCA490860CA4803F05B
:1001700041FEC748C74909684018801E00780D280D
:1001800001D000F01BFCC248C24909684018401E5B
:1001900000780A2801D000F011FCBC4803F048FDAB
:1001A0000100C900C90F002901D000F007FCBB48BD
:1001B00000780100C907C90F002901D000F0FEFB3B
:1001C000B749B34803F025FE002867D002F06AFF64
:1001D00072B6AF4801F08AFC62B602F057FFAB4836
:1001E00003F026FDC00F00280CD172B6AA4803C840
:1001F0000A000100D54803F04EFD62B6A64803F0A0
:10020000F9FD1BE0A14803F013FD01008907C90FA8
:10021000002913D1A04803F0EDFD9C4803F008FD30
:100220009A494000400803F0FDFD984803F000FDA6
:10023000020096490220104303F0F4FDCC4803F07D
:10024000F7FC01008901C90F002907D18F4803F08D
:10025000EFFC8E494000400803F0E4FD00208D498A
:1002600008608A4803F0E4FC01008902C90F0029F4
:1002700012D0864803F0DCFC01000901C90F0029F7
:100280000AD0824803F0D4FC02008049D7481040CD
:1002900003F0C8FD00F05DFC01F0F2FBD4497C489E
:1002A00003F0B7FD002800D1AEE1D249784803F051
:1002B000B0FD0400002825D06846217901726079DC
:1002C00002A94870CC480178F02008406946097AB4
:1002D0000A22514302AA527889180907090F0143DB
:1002E000C54801700F20C549087072B66A4803C836
:1002F0000A000100954803F0CEFC62B6664803F0A0
:1003000079FD4CE1BE49624803F083FD04000028FA
:1003100000D197E06846617A0170A07A694648701A
:10032000E07A69468870207B6946C87068464078E4
:100330000D2805D1684600783038D14908603AE088
:10034000684680780D280BD1684600780A2148431A
:10035000694649784018CB494018C94908602AE0E5
:100360006846C0780D2810D168460078642148435B
:10037000694649780A2251434018694689784018ED
:10038000C1494018BE49086015E068460078FA2166
:1003900089004843694649786422514340186946B8
:1003A00089780A22514340186946C9784018D649CD
:1003B0004018B3490860B248006800280AD03348A2
:1003C00003F036FC0200314980204002104303F064
:1003D00029FDE4E0AA480068002800D0DFE0CB480F
:1003E000CA490978C9B2C9084907490F4018D93024
:1003F000007800281DD0C648C4490978C9B2C90888
:100400004907490F405C002808D00221BF48007806
:10041000C0B2C0084007400F03F0F4F9BB48BB4925
:100420000978C9B2C9084907490F4018D9300021D5
:100430000170164803F0FCFB14491022904303F0AE
:10044000F1FCACE0B3A1124803F0E3FC0400002887
:1004500028D0032069490870200003F0B7FB05008D
:100460000B3D2600F61CAC4F2A003100380003F08B
:10047000E3FC72B6084803C80A000100334803F0E1
:100480000AFC62B6044803F0B5FC88E0541400206E
:10049000680D002090140020C412002028140020B1
:1004A0002C9D00089D480078C0B240080100C90793
:1004B000C90F00295ED099484078C0B200090100F8
:1004C000C907C90F002964D09048C079C0B2C008DC
:1004D0004007400F00280BD08C48C079C72101404D
:1004E00038220240083A3820104008438749C87132
:1004F0008A480078FD210140884801700020844925
:10050000824A52791207120F8854804840790007B6
:10051000000F7E49087181484078EF2101407F48F3
:10052000417002207D4908757D4880790100C90726
:10053000C90F00290CD00E4803F07AFB02000C49C9
:1005400080208005104303F06DFC07E0B812002006
:10055000734880790121014371488171704803F02B
:1005600067FB6F491022904303F05CFC11E000BF71
:100570005514002002202149087072B6C74803C8EC
:100580000A000100C64803F086FB62B6C34803F0C8
:1005900031FC62480078FD21014060480170002074
:1005A000C04908608025AD000026BF4F32002900F9
:1005B000380003F013FB5A4803F03AFB01008902AC
:1005C000C90F00291ED0564803F032FB0100090173
:1005D000C90F002916D0524803F02AFB02005049E7
:1005E0000248104003F01EFCB3E200BFFFFFFFF71C
:1005F000349D00083C9D0008C5120020CA1200204E
:10060000AC9C000801F03CFAA849A74803F001FCA3
:10061000002800D1EAE0A649A34803F0FAFB00282D
:1006200034D0A44803F036FC3C480078FD2101405A
:100630003A48017039484078EF210140374841700D
:10064000374880790100C907C90F002905D134480E
:100650008079012101433248817101202B492B4AC5
:1006600052791207120F8918D93108702C4803F0FB
:10067000DFFA2B491022904303F0D4FB8EE000BF39
:1006800000100020F0FDFFFF30EBFFFFBC49864863
:1006900003F0BFFB002805D1BA49834803F0B9FB3A
:1006A00000283FD01E4803F0C3FA01000903C90F18
:1006B000002973D01A4803F0BBFA02001849B24867
:1006C000104003F0AFFB164803F0B2FA14491022B1
:1006D000904303F0A7FB124803F0AAFA0200104966
:1006E000AA48104003F09EFB0D4803F0A1FA020057
:1006F0000B49A748104003F095FB0020A54908804E
:100700000020A549086049E0B02FFFFF680F0020D6
:1007100068140020203D2000760F002028140020BF
:10072000541400209D49604803F073FB002802D058
:100730009B4803F0AFFB08209A49087072B65748EF
:1007400003C80A000100564803F0A5FA62B65348F0
:1007500003F050FB944803F06BFA0100C906C90F7F
:10076000002907D0904803F063FA8F491022904384
:1007700003F058FB8D4803F05BFA0100C900C90F74
:1007800000290BD0894803F053FA020087498848B2
:10079000104003F047FB00208649086000204149D3
:1007A00008608025AD0000263F4F32002900380048
:1007B00003F014FA7C4803F03BFA01008902C90FE8
:1007C000002911D0784803F033FA01000901C90F5C
:1007D000002909D0744803F02BFA020072497648C8
:1007E000104003F01FFBB4E101F04AF9CA492E485A
:1007F00003F00FFB002861D0C8492B4803F009FB28
:100800000400002C03D00020C549487202E00120FA
:10081000C3494872C3A1244803F0FBFA0400002C2A
:1008200003D00020BE49887202E00120BC498872D2
:1008300004205C49087072B6184803C80A00010019
:10084000174803F028FA62B6144803F0D3FA0020E0
:10085000144908608025AD000026134F320029009E
:10086000380003F0BBF9504803F0E2F901008902B7
:10087000C90F002920D04C4803F0DAF90100090122
:10088000C90F002918D0484803F0D2F902004649A0
:100890004948104003F0C6FA5BE100BFC4120020D3
:1008A000B812002090140020680D0020449D00081C
:1008B000609800089892000801F0E2F83A4803F0C6
:1008C000B7F901008902C90F00293AD0364803F070
:1008D000AFF901000901C90F002932D0924803F095
:1008E000A7F901004901C90F00292AD1C74800888A
:1008F00000280FD072B6C54801888C4803F0FEFB73
:1009000062B6C248058800260E9F320029003800D2
:1009100003F064F9254803F08BF902002349802095
:100920008005104303F07EFA1F4803F081F90200AE
:100930001D492148104003F075FAC1480068C149BB
:100940000880C14800780100C907C90F002900D0FC
:10095000FFE0BD480078C0B240090100C907C90FD7
:10096000002900D1F5E00020B54908608025AD00E0
:100970000026B64F32002900380003F02FF9E8E0D6
:10098000549400082C930008FFFFF7FFFFFFDFFFE0
:10099000FFFFFBFFF60F0020141000204C9D000805
:1009A00004960008CA120020541400205614002097
:1009B000FFFFFFEF2C100020FFFFFFF7A44803F01C
:1009C00037F901004907C90F00296FD0A1499F4895
:1009D00003F01FFA00283CD19F499C4803F019FA04
:1009E000002836D19D49994803F013FA002830D1E8
:1009F0009B49964803F00DFA00282AD1994993485B
:100A000003F007FA002824D19749904803F001FA2F
:100A100000281ED195498D4803F0FBF9002818D114
:100A200093498A4803F0F5F9002812D19149874883
:100A300003F0EFF900280CD18F49844803F0E9F95D
:100A4000002806D18D49814803F0E3F9002800D140
:100A50007FE07F4803F0ECF802007D4980204005EC
:100A6000104303F0DFF97A4803F0E2F80200784916
:100A70008020C002104303F0D5F9754803F0D8F880
:100A800073490422904303F0CDF905207C49088086
:100A90007C4803F0CDF802007A497B48104003F00F
:100AA000C1F900207949086000F0EAFF674864490D
:100AB00009684018401E007809281AD16348604927
:100AC00009684018801E00783A2812D15F485C49B6
:100AD00009684018C01E007831280AD15C4803F02C
:100AE000A7F802005A498020C005104303F09AF984
:100AF0002FE0D348C0790100C907C90F002917D0DA
:100B000052484F4909684018401E0078002820D1FB
:100B100000204B4908601CE0549D00085C9D0008C3
:100B2000680F00206F75740055140020A412002077
:100B300043480068D34988420BD3002040490860ED
:100B40008025AD000026414F32002900380003F017
:100B500045F8BB4803F06CF801004903C90F0029B0
:100B600000D12DE1474803F063F801008900C90F67
:100B7000002900D024E12548008832490880304807
:100B800000683049098840188021890088421ED3B6
:100B90002B4800682B4909884018CC49451872B683
:100BA0002900CB4803F0AAFA62B600260E98244921
:100BB0000968401AB349471832002900380003F089
:100BC0000DF8B0481E490968401A1E4908801D48A2
:100BD0000588C04E1D481A49096847182A00310087
:100BE000380003F029F916480068164909884018AA
:100BF0001349086012480068012805D1134800789D
:100C00000D2801D100F03CFFB34901E0F80F0020AE
:100C10000E4803F0FEF800283AD0894803F008F89F
:100C200002008749AD48104003F0FCF8AC4802F0E0
:100C3000FFFF0200AA49AB48104003F0F3F8BFE001
:100C400090140020FC0F002028140020680D0020C4
:100C500054140020649D00086C9D0008189A000838
:100C6000749D00082C9A0008EC9B0008FC9B00086F
:100C700078980008E8960008409A000890980008C4
:100C8000FA0F002056140020FFFFFFEF2C10002069
:100C9000CF4800780100C907C90F002900D08FE0B4
:100CA000674802F0C5FF0100C900C90F002900D044
:100CB00086E0C8480078002800D181E0C548007867
:100CC0000D287DD1C34840780A2879D1C2480068F0
:100CD000022875D0824802F0ABFF020080498020D4
:100CE000C004104303F09EF8BCA1BD4803F091F886
:100CF0000400002838D0B748251AAD1CB949B848B7
:100D000003F087F800280BD0B749B248401903F028
:100D100080F80400002C03D0AE48201A801D050086
:100D2000B2480068401B002815D072B6AF48006872
:100D3000411B674803F0E2F962B6AC480068401B0B
:100D400001900026A348471932000199380002F0AB
:100D500045FFA6480560624802F06AFF020060494C
:100D60006048104003F05EF8354802F061FF020071
:100D7000334980200005104303F054F89B48006875
:100D8000404988421CD1564802F052FF01004901F7
:100D9000C90F002914D0524802F04AFF02005049FE
:100DA0005048104003F03EF8254802F041FF020091
:100DB00023494A48104003F035F83248DC4908809E
:100DC0001F4802F035FF01000901C90F002900D0BA
:100DD000A0E21B4802F02CFF01008902C90F002984
:100DE00000D197E27A4800780121014378480170E8
:100DF000D0480068CE4909884018CE490860364975
:100E00007448CD4A12888018401F03F002F804008D
:100E1000002C00D1ECE06F48744909684018801E2E
:100E200000780D2800D0E3E06A487049096840184E
:100E3000401E00780A2800D0DAE0C04902E000BF76
:100E400054140020634802F0E4FF040000281BD083
:100E5000E07E00280CD05F48251A6448016828000D
:100E60001B300E1A72B63100194803F047F962B60A
:100E70005748407801210143554841700D20D84919
:100E8000087048E0FF010000D649524802F0C1FF57
:100E90000400002828D0E07D00280CD04D48251AF9
:100EA00052480168280017300E1A72B631000848FF
:100EB00003F024F962B60120D649D64A52791207C6
:100EC000120F8918D931087025E000BF01FEFFFF1D
:100ED000A4120020680B00207C9D0008FFFFFFF794
:100EE00055140020FFFFFFFBCB493A4802F091FF69
:100EF000040000280FD0E07D00280CD03548251ACA
:100F00003A480168280017300E1A72B63100C348FB
:100F100003F0F4F862B60020864908600020C0495A
:100F2000086000202C490860052083490880BD48DE
:100F300002F07EFE0200BB49BB48104002F072FF87
:100F4000B84802F075FEB7491022904302F06AFFDC
:100F5000B44802F06DFE0200B249B448104002F0FD
:100F600061FF00201A49486019480078FE210140BD
:100F700017480170AB4802F05BFE01000903C90F7E
:100F8000002916D0A74802F053FE0200A549D84810
:100F9000104002F047FF0020D6490860A14802F047
:100FA00047FE02009F490120104302F03BFF02F080
:100FB00007FD0E4805680026064F3200290038005C
:100FC00002F00CFE00200949086000F059FD00BF46
:100FD00028140020680D0020041000200D0A0000D5
:100FE0006A0D0020B89C0008349D00089014002071
:100FF000C1480068062805D3002C03D1BE4800680C
:101000004D4908804B480068BC490968884200D2B5
:101010000EE1BA4800684749096888421AD2454833
:101020000068B6490968451A72B629007B4803F082
:1010300065F862B60026B248AF490968491B4718EF
:1010400032002900380002F0C9FDAB480068401B9F
:10105000A9490860A8480068AA490880A74800680C
:10106000A9490860A4480568A54EA84F2A00310088
:10107000380002F0E1FE00209F49086000202D4961
:10108000086000206649086000209C490860002034
:1010900027490880052028490880624802F0C8FDD9
:1010A000020060499A48104002F0BCFE5D4802F020
:1010B000BFFD02005B495D48104002F0B3FE554899
:1010C000C078072101435348C170564802F0B0FD73
:1010D00001000903C90F002932D0002085490860AA
:1010E0004C484078C72101404A484170E248406876
:1010F000002804D0E0484068401EDF494860DE48D0
:10110000406800280AD1474802F092FD0200454994
:101110000120104302F086FE02F052FC414802F02A
:1011200087FD02003F49D548104002F07BFE22E0D7
:10113000FC0F002010100020FA0F00200497000878
:10114000384802F075FD020036498020C003104384
:1011500002F068FE2F484078C72101402D480078F2
:10116000382202400A432B484270C34800780221CB
:101170000143C14801702B4802F05AFD0200294981
:101180002948104002F04EFEBB480078FE21014085
:10119000B948017001F093FF224802F049FD0100B7
:1011A0000903C90F00291FD0B54802F041FD020014
:1011B000B34980204005104302F034FE194802F084
:1011C00037FD18491022904302F02CFE154802F01A
:1011D0002FFD020013494648104002F023FE0DE0A7
:1011E0004010002060980008A54802F021FD020090
:1011F000A34980200005104302F014FE8025AD00B5
:1012000000263F4F32002900380002F0E7FC00F0D2
:1012100037FC00BF680F0020A8980008A412002027
:101220000010002054140020FFFFDFFFFFFFFBFF32
:1012300031480068D649884259D30520D5490880ED
:101240002E48006830490860D1482E4908802A4855
:10125000006801902A4803902C4D019A03992800B8
:1012600002F0EAFD0020244908600520C9490880F1
:10127000C948C07807210143C748C17001F01FFF6A
:101280008025AD0000261E4F32002900380002F0F4
:10129000A5FCC24802F0CCFC01000903C90F0029DB
:1012A00010D0BD484078C7210140BB484170744808
:1012B00002F0BEFC0200724980204005104302F09B
:1012C000B1FD14E0B4484078C7210140B24800782D
:1012D000382202400A43B0484270694802F0A8FC34
:1012E0000200674980200005104302F09BFDC7E320
:1012F000FFFFF7FF081000209014002004100020CA
:10130000680D0020F60F002014100020680900204E
:10131000FFFFFFF7A14802F08BFC0100C900C90FD5
:10132000002900D1D0E154480078012101435248FE
:1013300001709B49D748974A12888018401F02F0D5
:1013400068FD0400002800D19CE0E07900281ED050
:10135000D048251AD04801682800801D081A01903D
:1013600072B60199CD4802F0C9FE62B601980390A9
:101370000026C8484719FF1D32000399380002F0C3
:101380002DFCC54800680199401AC3490860C2484D
:101390000068C3490880C04800680190BD480390B8
:1013A000C04D019A0399280002F046FDBA48006832
:1013B000BD49088030484078012101432E484170E2
:1013C000764802F035FC02007449B848104002F03B
:1013D00029FD724802F02CFC02007049B44810400C
:1013E00002F020FD01F06BFE0020B2490870224897
:1013F0000078FE21014020480170684802F018FC86
:1014000002006649AC48104002F00CFD634802F04F
:101410000FFC62491022904302F004FD05205D4953
:1014200008809D48056800269A4F32002900380040
:1014300002F0D4FB002098490860584802F0F8FBFD
:1014400001008900C90F00290AD09C4802F0F0FB76
:1014500002009A4980208004104302F0E3FC91E0EE
:10146000964802F0E5FB02009449802040041043B6
:1014700002F0D8FC86E000BF28140020FFFFBFFF69
:10148000551400208E498348424A12888018401F14
:1014900002F0BFFC0400002874D0404802F0C8FBF2
:1014A00002003E498148104002F0BCFC79487A496C
:1014B00009684018801E00780D2863D17548764968
:1014C00009684018401E00780A285BD17D484078A2
:1014D000012101437B4841700D207649087079480D
:1014E0000078FE210140774801702C4802F0A0FBF3
:1014F00002002A496D48104002F094FC274802F08F
:1015000097FB020025496C48104002F08BFC00203C
:101510006149086005201F490880204802F088FBC7
:1015200002001E496248104002F07CFC1B4802F099
:101530007FFB1A491022904302F074FC8025AD0015
:101540000026544F32002900380002F047FB1348B0
:1015500002F06EFB01008900C90F002909D057482D
:1015600002F066FB02005549C748104002F05AFCE1
:1015700008E0524802F05CFB02005049C3481040AA
:1015800002F050FC4448006806280BD301200AE012
:10159000FF010000FA0F0020680F00205414002003
:1015A000349D00080020002C01D1012100E0002121
:1015B000C0B2084203D038480068D4490880364891
:1015C0000068D349884264D13348006801903148AB
:1015D0000390344D019A0399280002F02DFC062057
:1015E0000C90CC480B90CC4D0C9A0B99280002F033
:1015F00023FC06200A9000200990C64D099A0A99FA
:10160000280002F0EBFA802080000890002007906C
:10161000204D079A0899280002F0E0FA062006906B
:10162000BD4805901B4D069A0599280002F004FC60
:1016300006260025B84F2A003100380002F0CEFA05
:101640000620154908600520B0490880FF20FA30BF
:101650001549088001F033FDB04802F0E9FA0100B5
:101660008900C90F00290AD0144802F0E1FA0200EB
:10167000124980208004104302F0D4FB09E00F4897
:1016800002F0D6FA02000D4980204004104302F017
:10169000C9FBF5E1680D002090140020A412002081
:1016A000F60F002068090020F20F0020FFFFFBFF6B
:1016B000FFFFFFEF40100020FFFFFFF75614002050
:1016C000449D000828140020944802F0B1FA01005B
:1016D0000901C90F002900D076E1904802F0A8FA6C
:1016E00001004900C90F002900D16DE18C488D49E6
:1016F00009684018801E00780D2800D053E1884802
:10170000884909684018401E00780A2800D04AE13C
:10171000854802F051FDDB48407BDA49097B88426D
:1017200000D3C4E0D8497E4802F073FB0400002CCB
:101730000FD06846A1790170E07969464870684623
:1017400000780A2148436946497840181038CF4943
:101750000870CE480078CE490968CA4A527B2C23CB
:101760005A438854CB496E4802F053FB0400002CC6
:101770000FD06846E1790170207A69464870684662
:1017800000780A214843694649784018C249401800
:101790000490BF480068BB49497B2C225143401844
:1017A00004994A424260BD495D4802F032FB0400A0
:1017B000002C1ED00720BA490870B9480078205C78
:1017C000272816D0B2480068AE49497B2C225143E5
:1017D0004018B34909784018B1490978615C4170F3
:1017E000AF480078401CAE490870AD480078232807
:1017F000E3D1AC494A4802F00CFB0400002C0AD0AB
:10180000A34800689F49497B2C2251434018263049
:101810000121017009E09E4800689A49497B2C2209
:10182000514340182630002101709F493C4802F086
:10183000F0FA0400002C0AD0954800689149497BD1
:101840002C225143401827300121017009E09048B3
:1018500000688C49497B2C225143401827300021D5
:10186000017092492E4802F0D4FA0400002C0FD0E7
:10187000874800688349497B2C225143401828300F
:10188000012101700EE000BFFFFFFFFDFFFFFFFE23
:101890007F4800687B49497B2C22514340182830FF
:1018A000002101707748407B401C7649487380498D
:1018B0001B4802F0AEFA0400002C37D08025AD00A2
:1018C0000026174F32002900380002F087F9002067
:1018D00014490860774840780121014375484170F8
:1018E0000E4802F0A5F902000C497348104002F0BE
:1018F00099FA0A4802F09CF9020008496F48104022
:1019000002F090FA0D206E490870B9E0FA0F00203D
:10191000FF010000610B002070140020541400200F
:10192000680D002090140020B4000020654966482E
:1019300002F06FFA00282AD0644802F079F9020018
:1019400062495E48104002F06DFA00204D4948732C
:1019500000205F49086057484078012101435548FD
:1019600041705A4802F064F9020058495248104048
:1019700002F058FA0020524908708025AD00002678
:10198000514F32002900380002F028F978E0002099
:101990004F4908608025AD0000264B4F32002900DA
:1019A000380002F01BF94A4800684A4988420BD3C4
:1019B0000020474908608025AD000026424F3200D4
:1019C0002900380002F00AF9404802F031F901001C
:1019D0000901C90F002953D13C4802F029F901003F
:1019E0004901C90F00294BD03BA002F053FA3B49F3
:1019F000354802F00EFA0400002830D0334802F0D7
:101A000017F9020031493648104002F00BFA2E480F
:101A10002F4909684018801E00780D281FD12A48D8
:101A20002B4909684018401E00780A2817D12D4814
:101A300002F030FA254802F0FBF8020023492A4858
:101A4000104002F0EFF90020214908608025AD0028
:101A500000261D4F32002900380002F0BFF81C4854
:101A600000681C4988420BD1002019490860802574
:101A7000AD000026144F32002900380002F0AEF805
:101A80000FB0F0BD680F0020849D0008A71400204F
:101A90008C1400208C9D0008F0FDFFFF949D000831
:101AA000A61400209C9D0008A49D0008AC9D000881
:101AB000449D000828140020FFFFFFBFFFFBFFFF2D
:101AC00040100020B49D0008680D00205414002030
:101AD00090140020FF0100002A000000C49C0008B0
:101AE000FFFFFBFF549A0008FFFFFFFBF1B584B036
:101AF000049E049DFF27002D00D1A9E2BC493000BF
:101B000002F087F90500002D00D1A1E2684669794D
:101B10000171A87901A9487001A840783A2804D138
:101B200068460079303807000AE0684600790A21E3
:101B3000414301A84078081884218900401A070011
:101B40003800AC4908700120AB4908703FB238003A
:101B50000028032800D84CE2001F012800D86CE2BE
:101B6000801E012800D844E2801E012800D864E2CB
:101B7000801E00D150E2401E012800D85DE2801E88
:101B8000012800D835E2801E00D156E2401E03280D
:101B900000D82EE2001F00D14FE2401E00D128E203
:101BA000401E012800D848E2C01E00D121E2401E9C
:101BB000012800D841E2801E00D1ADE1801E00D195
:101BC00017E2401E012800D837E2801E012800D805
:101BD0000FE2801E012800D82FE2801E00D108E20B
:101BE000401E00D129E2401E00D102E2401E04281E
:101BF00000D822E2401F012800D8FAE1001F052882
:101C000000D8F6E1801F20D0801E00D1C7E1401E21
:101C10002FD0401E00D10DE1401E00D12CE1401E0E
:101C2000012800D8ACE1C01E32D0801E00D1E0E116
:101C3000401E00D1C9E1401E00D1D0E1001F00D1FB
:101C40007EE1801E00D1D4E1F8E1C749300002F006
:101C5000E0F80500684669790170C4480178F02011
:101C60000840694609780907090F0143BF48017018
:101C7000E4E16846A97D0170BC480178F020084085
:101C8000694609780907090F0143B8480170D5E191
:101C9000B74801F0CDFFC00F002803D0B54802F0CF
:101CA000F9F8D5E1B44801F0C3FF0100C901C90F3B
:101CB000002903D00020B149086012E0AC4801F0CF
:101CC000B7FF0200AA491020104302F0ABF8AA485F
:101CD00001F0AEFF0200A84980204004104302F04A
:101CE000A1F8A149300002F094F80500002D00D1C0
:101CF0009FE0684669790170684600783038D549B8
:101D000008706846297A0170687A69464870A87A2E
:101D100069468870E87A6946C870684600783A284B
:101D200006D16846E9790170287A694648702EE044
:101D3000684640783A2809D16846E9790170287ADE
:101D400069464870687A6946887020E068468078FD
:101D50003A280CD16846E9790170287A69464870BA
:101D6000687A69468870A87A6946C8700FE0684644
:101D7000C0783A280BD16846E9790170287A69461B
:101D80004870687A69468870A87A6946C87068465B
:101D900040783A2805D1684600783038AE498884C2
:101DA00042E0684680783A280CD1684600780A21DB
:101DB000414368464078081884218900401AA649A2
:101DC000888431E06846C0783A2817D1684601789F
:101DD00064204843694649780A224A438018694684
:101DE000897840189D49401A9B4988841CE000BFAF
:101DF0002C9D0008C4120020CA12002068460178F9
:101E0000FA20800048436946497864224A43801892
:101E1000694689780A224A4380186946C978401879
:101E20008F4940188C4988848E484068401C8D49F1
:101E3000486003E18B4800788021014389480170A4
:101E400088480078DF2101408648017000208549DC
:101E50004860474801F0ECFE45490222904301F0FA
:101E6000E1FF434801F0E4FE020041498020000602
:101E7000104301F0D7FFE1E07A4800784006400EB9
:101E8000784908707748007820210143754801702F
:101E9000374801F0CDFE36490222904301F0C2FFDF
:101EA000334801F0C5FE020031498020000610438E
:101EB00001F0B8FF2E4801F0BBFEC00708D5694805
:101EC0000078C0B2C009C0B2002801D101F078FD8D
:101ED000274801F0ADFE01000903C90F00291AD0FF
:101EE000052061490880224801F0A2FE0200204935
:101EF0008020C002104301F095FF1D4801F098FEBC
:101F000002001B4980208003104301F08BFF5748DB
:101F100000685749086091E05649300001F079FFA8
:101F2000050011200400222C06DA285D5249091907
:101F30003E310870641CF6E70B204A49C8757DE005
:101F40004E49300001F065FF050011200400222CED
:101F500006DA285D484909193E310870641CF6E725
:101F60000C204049C87569E0BC9D0008C5120020DE
:101F700054140020C49D0008551400200C100020AB
:101F80003F4801F055FEC00F002807D03C4801F043
:101F90004FFE3B494000400801F044FF4EE0002066
:101FA00038490870364801F043FE35490222904313
:101FB00001F038FF324801F03BFE0200304980203A
:101FC0000006104301F02EFF38E00A202E49087069
:101FD0002B48C079012101432948C1712EE0092015
:101FE000294908702648C079FE2101402448C17162
:101FF00024E0234801F01CFE21490222904301F015
:1020000011FF1F4801F014FE02001D498020000648
:10201000104301F007FF11E0194801F009FE01002B
:10202000C906C90F002907D0154801F001FE14495F
:102030001022904301F0F6FE00E0FFE780208000D0
:10204000039000200290029A0399300001F0C6FD2F
:1020500005B0F0BDC6120020A4120020D01400006C
:10206000B02F000028140020FA0F002008100020D4
:1020700004100020D09C0008680F0020DC9C0008A1
:1020800054140020A2140020CA12002070B5802130
:10209000C9006C4801F010FF6B484078F121014005
:1020A0006948417000206949087000F025F900F086
:1020B00092F800F016F80A21654801F0C9FD00F019
:1020C000E5FF082500248B4E22002900300001F096
:1020D00085FD964802F0ADF8002801D001F0ECFB38
:1020E00070BD00B55848007808210143564801707A
:1020F00055480078802101435348017052480078C8
:10210000BF210140504801704F484078F121014003
:102110004D48417000204C49487400204A49C87419
:102120000020494988740020474948604648407863
:10213000FE21014044484170FF204349C8750220F8
:102140004149087502204049487500203E4988757C
:1021500000203D49C860764801F06AFD74490122BB
:102160000243100001F05EFE714801F061FD70490C
:1021700002220243100001F055FE6E4801F058FDA6
:102180006C496D4A0240100001F04CFE6848C0796D
:10219000DF2101406648C171654880790121014312
:1021A000634881716248C079EF2101406048C17184
:1021B0005F48C079BF2101405D48C1715C48C0796A
:1021C0004006400E5A49C8715948007AFE21014024
:1021D0005748017200BD70B55848C079C721014009
:1021E0005648C171002056490860002055490860D2
:1021F00000205549086000205449086000205449D7
:1022000008600020534908800020534908600020DE
:10221000524908600020524908600020474948732D
:1022200000205049086000204F49088005204F4990
:102230000880012400254E4E2A002100300001F0C4
:10224000CDFC70BDA412002028140020A214002090
:10225000B812002080B54748006804210143454872
:1022600001604448006804210840009000984148FB
:102270000068012101433F4801603E4800680100B9
:10228000C907C90F00910098802040013A490863AE
:1022900001203949486301203749886303203649C2
:1022A000C8633649364802F0B7F80020354908704F
:1022B000FF203549C875002280214901304802F0CD
:1022C0003BFAC82002F086FA0122802149012C48FD
:1022D00002F032FA322002F07DFA802149012848CA
:1022E00002F083F92848C07D0E2801D000BFF9E72D
:1022F00001BD00006814002080B500228021490142
:10230000A020C00502F018FA01222049204802F05E
:10231000E4FB002809D1064801F08AFC0449802228
:1023200092010243100001F07DFD01BD2813002041
:102330005414002056140020FFFFFFEF680F002008
:102340000C100020001000200810002018100020A1
:1023500010100020F80F00201C1000202410002076
:10236000281000202C100020F40F0020FA0F00206D
:10237000A51400202C100240A4120020D41200202A
:1023800000080050A214002028140020B60F0020DE
:1023900044110020F1B582B00024A74801F048FCA8
:1023A0000100C906C90F002900D0CBE372B6A348CB
:1023B00001F0C6FCA249886262B6A148806A002882
:1023C00000D1BFE39E48806A8079401E34D0401E11
:1023D000022800D895E3001F00D1D5E0801E00D16F
:1023E00082E3401E00D19EE3401E00D19AE3801E8E
:1023F00000D1A6E2401E00D102E3401E00D138E227
:10240000401E39D0401E00D153E1001F00D119E118
:10241000401E00D1B4E1401E6DD0401E00D17AE1D3
:10242000001F00D144E1401E00D105E2401E08D04B
:10243000C01F00D11EE385E38148806A00F090FF51
:1024400080E37F48806A40780007000FC949097817
:10245000F8220A404007400F1043C6490870002088
:10246000C5498875C448407801210143C24841707C
:102470000020C249087065E3BE48C079C721014009
:102480000830382202400A43BA48C271B948C079BC
:10249000C0B2C0084007400F092809DBB6484078A1
:1024A00001210143B44841700420B449087049E354
:1024B0000120D849624A926A52781207120F885452
:1024C0005F48806A40780007000FAA490978F8221F
:1024D0000A404007400F1043A64908700020A64953
:1024E0008875A548407801210143A3484170002028
:1024F000A249087026E39F48007AF8210140401C59
:102500004007400F08439B490872C34801F090FB05
:102510000200C149C148104001F084FC0020C049BC
:1025200008609448007A4007400F052809DB92486C
:102530004078012101439048417004208F49087080
:1025400000E30120B7493E4A926A52781207120FFF
:1025500088543B48806A40780007000F8549C97954
:10256000F8220A404007400F10438249C8710020FA
:102570008149887580484078012101437E48417037
:1025800000207E490870DDE201F083F97948C07AC5
:1025900001280BD1A448006800907648436E754826
:1025A000026EA249A24801F0F5FA0EE07148C07A25
:1025B00000280AD19C48006800906E48436E6D4820
:1025C000026E9C499A4801F0E5FA994801F0FEFA3A
:1025D00080B201F078F90400E4B2002C22D100208E
:1025E0008F4908608C4801F023FB02008A49802053
:1025F0004005104301F016FC0F4801F019FB0200E2
:102600000D491020104301F00DFC0B4801F010FBA8
:10261000020009490420104301F004FC0620564939
:10262000887508E00D20554908705348407801210D
:1026300001435148417085E254140020B812002033
:10264000A412002001F025F9C94803884948807880
:102650004207520FC749764801F09CFA744801F0CE
:10266000B5FA80B201F02FF90400E4B2002C12D1C7
:1026700001F00FF9BE480688D94805686C4F320052
:102680002900380001F0D8FB72B6B948008801F083
:102690001AF9040062B6E4B2002C08D0364840783B
:1026A00001210143344841700D203449087049E24A
:1026B00048E201F0EEF82F48C06E00905A480368D7
:1026C0002C48026EC7495A4801F064FA584801F094
:1026D0007DFA80B201F0F7F80400E4B2002C09D0D2
:1026E0002548407801210143234841700D202349AA
:1026F00008700FE0102020498875002048490860C4
:10270000454801F095FA02004349802040051043F6
:1027100001F088FB16E201F0BCF81648C36E42488F
:102720000268B149424801F035FA414801F04EFAD9
:1027300080B201F0C8F80400E4B2002C09D00E48C1
:102740004078012101430C4841700D200B4908706D
:102750000FE01720084988750020314908602E488D
:1027600001F066FA02002C4980204005104301F078
:1027700059FBE7E1680F00202814002040100020DA
:102780002448D749896A49780907090F405C00281D
:102790003BD001F07EF8D248806A40780207120FE1
:1027A000D049234801F0F6F9214801F00FFA80B230
:1027B00001F089F80400E4B2002C29D10020D749A7
:1027C0000870D74801F034FA0200D54910201043B0
:1027D00001F028FBC248806A40780007000FD74903
:1027E0004979F0220A400007000F1043D34948718D
:1027F000D348407810210143D1484170D048007837
:1028000002210143CE48017002E0DA4801F042FBA8
:1028100098E100BF6814002056140020FFFFFFEF6E
:102820002C1000209A14002020100020009800088E
:10283000680500201898000801F02BF8CE49CF4811
:1028400001F0A8F9CD4801F0C1F980B201F03BF8E0
:102850000400E4B2002C0BD10020B0490870B0484D
:1028600001F0E6F90200AE491020104301F0DAFA57
:1028700068E101F00EF83E480388B048026FCF4986
:10288000BE4801F087F9BD4801F0A0F980B201F01F
:102890001AF80400E4B2002C09D0A94840780121BC
:1028A0000143A74841700D209C49087048E000F0A2
:1028B000E7FC0400E4B2002C08D0A14840780121D4
:1028C00001439F4841700D209449087028480388AF
:1028D0009A48026FBA49A94801F05CF9A74801F08B
:1028E00075F980B200F0EFFF0400E4B2002C08D0CC
:1028F0009348407801210143914841700D20874958
:10290000087000F0C6FF1A480688354805689B4FD6
:1029100032002900380001F08FFA984801F056F98A
:1029200080B200F0D0FF0400E4B2002C08D084484C
:10293000407801210143824841700D207749087099
:1029400000E100F0A6FF7D48006F002804D19D49FA
:102950008A4801F01FF91AE07848006E00280BD170
:102960007648026F9849854801F014F90FE000BFDE
:10297000EC0F0020A09900089448006800906F4870
:10298000036F6E48026E92497C4801F003F97B4860
:1029900001F01CF980B200F096FF0400E4B2002CB4
:1029A00024D15F4801F044F902005D498020800590
:1029B000104301F037FA5A4801F03AF90200584939
:1029C0008020C002104301F02DFA554801F030F983
:1029D0000200534980204005104301F023FA0EE025
:1029E000E80F0020B096000830980008544840785E
:1029F00001210143524841700D2048490870A1E06F
:102A000000F047FF4D487C2140560021C9438842D1
:102A10001CD14A487D2140560021C943884215D126
:102A20004648006F002803D04448406F00280DD16D
:102A30004248006F002809D04048406F002805D167
:102A40003E48026FD8494D4801F0A4F84B4801F0C8
:102A5000BDF880B200F037FF0400E4B2002C08D0CB
:102A60003748407801210143354841700D202B49FA
:102A7000087067E000F00DFF5448006800902F4890
:102A8000036F2E48026ED3493C4801F083F83B485F
:102A900001F09CF880B200F016FF0400E4B2002CB4
:102AA00014D11F4801F0C4F802001D498020C00461
:102AB000104301F0B7F91A4801F0BAF802001849BA
:102AC0008020C002104301F0ADF908E01C484078B6
:102AD000012101431A4841700D201049087031E06E
:102AE000A4120020AC9B0008154840780121014346
:102AF000134841700D20094908700020104988755D
:102B000020E00F484078012101430D48417000202A
:102B10000249087000200A49887513E0401000201F
:102B2000541400200EE0AC4801F082F80200AA49DB
:102B30004020104301F076F904E000BF680F002048
:102B400028140020A44801F073F80100C903C90F3C
:102B5000002915D0A04801F06BF802009E499F485B
:102B6000104001F05FF99E48006880B202F098FEC4
:102B700051E100BF48980008BC9B00086805002090
:102B8000954801F055F801004902C90F002921D0EC
:102B900094480078C0B2C0080100C907C90F0029D5
:102BA00018D08D4801F044F802008B498E4810403F
:102BB00001F038F902F0BEFE2DE100BFB499000823
:102BC000C8990008949C0008CC9B000820100020A5
:102BD000A4950008854801F02BF801000901C90FF0
:102BE000002926D0814801F023F802007F49C4481B
:102BF000104001F017F9C34800880090C2480368EC
:102C0000C24AC3484078C0B2C0084007400F010024
:102C100049B20020C04303F0D7FA8026B600002551
:102C2000BA4F2A003100380000F0D8FF00F050FA07
:102C3000F1E06E4800F0FCFF0100C900C90F002957
:102C400029D06A4800F0F4FF02006849B1481040FA
:102C500001F0E8F8AB4800880090AB480368AB4A45
:102C6000AB484078C0B2C0084007400F010049B2ED
:102C7000A748C0784007401740B203F0A5FA802665
:102C8000B6000025A14F2A003100380000F0A6FF51
:102C900000F01EFABFE0554800F0CAFF01004900ED
:102CA000C90F002918D09C48994989794907490FCB
:102CB000405C002806D00221954880794007400FEB
:102CC00000F0A0FD494800F0B3FF020047499348D7
:102CD000104001F0A7F89EE0444800F0A9FF010071
:102CE0008900C90F002910D002218D4800F04DFF46
:102CF00002203C4908753D4800F09AFF02003B491C
:102D00008848104001F08EF885E0874800F090FF79
:102D10000100C901C90F002925D0834800F088FFB0
:102D2000020081498148104001F07CF82A4800F0F7
:102D30007FFF01008900C90F002903D0734800F00C
:102D400027FF04E07A480188704800F020FF8026C1
:102D5000B60000256D4F2A003100380000F03EFF1C
:102D600000F0B6F957E0704800F062FF01008901F9
:102D7000C90F00291AD0654800F00AFF8026B60066
:102D80000025624F2A003100380000F027FF00F0D4
:102D90009FF9654800F04CFF02006349C0481040AD
:102DA00001F040F837E000BFDC9B00080A4800F063
:102DB0003FFF01004904C90F002919D003F037FA79
:102DC000054800F035FF02000349C048104001F0FB
:102DD00029F820E0CC96000854140020FFFFFEFFE5
:102DE0000010002028140020FFFFBFFF5514002012
:102DF000BB4800F01DFF01000904C90F00290AD0DB
:102E000003F01DFAB64800F013FF0200B449B548BC
:102E1000104001F007F8B448C07D002800D1A9E0B7
:102E2000012800D1ADE0022800D1B1E0032800D193
:102E3000B5E0042800D1B9E0052800D1BDE006289E
:102E400000D1C8E0072800D1CCE0082800D1D0E0AC
:102E500009284BD00A286DD00B2871D00C2876D0C9
:102E60000D2800D1B0E00E282BD00F2800D10CE1A6
:102E7000102800D1C4E0112800D1CFE0122800D1E1
:102E8000D3E0132800D1D7E0142800D1FDE01528A5
:102E900000D1BCE0162800D1D5E0172800D1D9E038
:102EA000182800D1DDE0192800D1E1E01A2800D16E
:102EB000E5E01B2852D01C2856D0FF2800D1E4E0C2
:102EC000E3E089484078C0B240084007400F02283C
:102ED0000BD185484078F1210140801C0E22024030
:102EE0000A438148427003F09AF9CEE0BF48007867
:102EF000002804D10120BD49087003F094F9C4E012
:102F0000FFFFFFF7F60F00201410002068090020D3
:102F1000680F0020FFFFFFEF68140020FFFFFFBFD6
:102F20006C0F0020FFFFFFDF56140020FFFFFFFEA5
:102F3000F20F002000F027FEFF206B49C875A4E0C7
:102F4000AB4803F084F9FF206749C8759DE0A848A5
:102F500003F089F9FF206449C87596E000F019FE76
:102F6000FF206149C87590E000F013FEFF205E4924
:102F7000C8758AE0FF205C49C875112000F001FE89
:102F800083E0FF205849C875142000F0FAFD7CE06A
:102F9000FF205549C875132000F0F3FD75E0FF20B0
:102FA0005149C875152000F0ECFD6EE0FF204E4938
:102FB000C875162000F0E5FD67E0FF204A49C87596
:102FC0001B2000F0DEFD60E0FF204749C8751C2093
:102FD00000F0D7FD59E0FF204349C875172000F0E5
:102FE000CFFD52E0FF204049C875122000F0C8FD17
:102FF0004BE0FF203C49C875182000F0C1FD44E0BB
:10300000FF203949C8751D2000F0BCFD3DE0FF20C0
:103010003549C8751E2000F0B5FD36E0FF20324965
:10302000C875192000F0AEFD2FE0FF202E49C875AD
:103030001A2000F0A7FD28E0FF202B49C8750620C4
:1030400000F0A0FD21E0FF202749C8751F2000F0F7
:103050009BFD1AE0FF202449C875202000F094FD54
:1030600013E0FF202049C875212000F08DFD0CE001
:10307000FF201D49C875222000F086FD05E0FF20D5
:103080001949C87500F082FDFFE7F7BD0020164919
:103090008860154800780421014313480170704787
:1030A000FFFFFFFD0020104988600F480078FB21DA
:1030B00001400D48017001200B49487470470A48CF
:1030C0000078F7210140084801707047FFBFFFFFFB
:1030D000054800780821014303480170704700004B
:1030E00054140020FF7FFFFF2814002080B58C4877
:1030F0000078C0B280080100C907C90F00290AD0B2
:1031000087480078C0B2C0080100C907C90F00296C
:1031100001D000F0CDF8834800F08AFD010049019C
:10312000C90F00290FD0804800F0DAFE00280AD02D
:103130007C4800F07DFD7B497C4A0240100000F095
:1031400071FEFFF7D9F87A4800F072FD0100890698
:10315000C90F002913D0774800680100491C754A3F
:103160001160754988420AD3714800F061FD7049C9
:103170002022904300F056FE00206E490860694806
:1031800000F056FD01000901C90F002929D06B4844
:1031900000680100491C694A1160FA21C90088428F
:1031A0001FD3634800F044FD0100C905C90F002981
:1031B0000AD05F4800F03CFD5D4980225200024386
:1031C000100000F02FFE0AE0594800F031FD010028
:1031D000C905C90F002902D11B205149C87500F04B
:1031E000E1FB01BD01214E4AD1747047A2140020B9
:1031F000B70F002010B504004D4800F019FD4C49F0
:103200004F4A0240100000F00DFEFFF74BFF72B670
:103210004C49454800F07EFE62B6FFF737FF424852
:1032200000F054FE002811D03E4800F001FD0200DD
:103230003C498020C004104300F0F4FD01228021AD
:103240004901A020C00501F077FA18E0384800F0E5
:10325000EFFC0100C904C90F002910D1012239492E
:10326000394801F03AFC002809D1314800F0E0FC6F
:1032700002002F4980208001104300F0D3FD10BDD3
:1032800000B5274840780100C907C90F002901D1BE
:1032900000BFF6E722484078FE21014020484170F7
:1032A0002A48007800BD10B5040000F005FB10BDF1
:1032B00080B572B61C4800F04BFE2549886762B69F
:1032C0002348806F002803D02148806FFCF72CFF33
:1032D000204800F0ADFC0100C901C90F00291CD035
:1032E0001D480068401C1C4908601B4800683328C2
:1032F00013D3002018490860164800F099FC1549BE
:10330000164A0240100000F08DFD094800F090FCC4
:1033100007491022904300F085FD01BD0000000028
:103320002814002056140020A4120020FFFFFFFBE9
:1033300054140020281000206C07000024100020E6
:10334000FFDFFFFFB60F00204411002040100020D7
:10335000680F0020551400200C100020FFFFFFFE16
:1033600010B504002078042857D0052859D0082823
:103370005BD009285DD00A285FD00B2861D00C28CB
:1033800063D00F2865D0142867D0162869D0172875
:103390006BD018286DD01A286FD01B2871D01F2829
:1033A00073D0202875D0232800D1AAE0242800D18A
:1033B000B1E0262800D1B2E0282800D1B9E02928C0
:1033C00000D1BAE02A2800D1BEE02B2800D1BFE00E
:1033D0002C2800D1C0E0372800D1C1E03A2800D124
:1033E00003E13D2800D172E13E2800D17DE13F2874
:1033F00000D18BE1402800D10EE1422800D1BBE191
:10340000432800D186E1442800D18EE1452800D12F
:1034100098E1462800D1A0E1B8E10720D549C87558
:10342000B4E10020D349C875B0E10120D149C87585
:10343000ACE10220CF49C875A8E10320CD49C87589
:10344000A4E10420CB49C875A0E10620C949C8758C
:103450009CE10820C749C87598E11120C549C87585
:1034600094E11220C349C87590E11320C149C87581
:103470008CE10920BF49C87588E10A20BD49C8759B
:1034800084E10520BB49C87580E10D20B949C875A4
:103490007CE1B8484078C0B240084007400F02289D
:1034A00009DAB4484078F1210140801C0E22024024
:1034B0000A43B0484270AF48007810210143AD483C
:1034C00001700E20AB49C875B44800F0B1FB010093
:1034D0004906C90F002913D0B04800F0A9FBAF4935
:1034E0004022904300F09EFCAC4800F0A1FB02009B
:1034F000AA49A748104000F095FC1C209D49C875BA
:1035000044E1A64800F094FB0200A449A148104001
:1035100000F088FC3AE116209649C87536E19548D6
:103520000078EF210140934801700F209149C87540
:103530002CE110208F49C87528E1002096490870B9
:1035400015208C49C87521E117208A49C8751DE1ED
:1035500018208849C87519E119208649C87515E1F0
:103560008E4800F065FB01008902C90F002911D0C7
:103570008A4800F05DFB020088498948104000F04D
:1035800051FC864800F054FB0200844985481040F5
:1035900000F048FC60780007000F83490978C722D3
:1035A0000A40C0003821014011437F4801707F4824
:1035B0007D490978C9B2C9084907490F405C00280C
:1035C00012D0764800F034FB020074498020C0031A
:1035D000104300F027FC714800F02AFB02006F49FD
:1035E0001020104300F01EFCD0E060780007000FB0
:1035F0006D498979F8220A404007400F10436A4913
:1036000088716B4800F014FB020069498020C005F6
:10361000104300F007FCB9E0A088664908605F48E5
:1036200000F006FB02005D4980200003104300F01B
:10363000F9FB5A4800F0FCFA0200584910201043E8
:1036400000F0F0FB4B480078C0B240090100C90708
:10365000C90F00291FD1A07801280AD14F4800F0D6
:10366000E7FA4E490122904300F0DCFB00F0B8F984
:103670002CE04A4800F0DCFA020048494E4810406D
:1036800000F0D0FB454800F0D3FA444910229043A3
:1036900000F0C8FB1AE0414800F0CAFA02003F49B6
:1036A0008020C002104300F0BDFB05204349088084
:1036B0003A4800F0BDFA02003849802080031043E8
:1036C00000F0B0FB3B4800683D4908605EE03348CD
:1036D00000F0AEFA020031498020C001104300F032
:1036E000A1FB01203749087050E02C4800F0A0FAF7
:1036F00002002A4980200002104300F093FB0020C2
:103700003149087000202F4908703FE01A201949FC
:10371000C8753BE0214800F08BFA02001F49802069
:103720008000104300F07EFB30E01C4800F080FA7F
:1037300002001A491648104000F074FB1C200D4985
:10374000C87523E0154800F073FA02001349802081
:103750004000104300F066FB18E0104800F068FAE3
:1037600002000E491948104000F05CFB00F008F917
:103770000CE000BF28140020084800F059FA0200AD
:1037800006498020104300F04DFBFFE710BD00000C
:10379000FFFDFFFFFFFBFFFFA214002054140020D9
:1037A000FFFFDFFFFFFFFBFF680F00206814002012
:1037B0005514002008100020FFFFF7FFFA0F00202B
:1037C00004100020A3140020A4140020FFFEFFFF1B
:1037D00038B505000C0000F03FF8344805601D487E
:1037E000C46617203249087072B62F4803C80A0011
:1037F0000100304800F04FFA62B62B4800F0FAFAA8
:1038000031BD000038B505000C0000F025F8E4B229
:10381000022C03D115202649087005E0E4B2012CE2
:1038200002D12320224908705D480078F021014030
:103830002807000F08435A49087072B61A4803C88F
:103840000A0001001B4800F026FA62B6164800F094
:10385000D1FA31BD680F002000B569480078010039
:10386000C907C90F002911D165480078C0B24008C6
:103870000100C907C90F00290AD061484078C0B2C9
:1038800000090100C907C90F002901D100BFE4E701
:1038900000BD70B58024E40000255A4E2A002100A6
:1038A000300000F09BF970BDC412002020100020F1
:1038B000CA120020B812002080B5002002F028FDB6
:1038C000FEF71AFD01BD10B504004D480078C0B2E6
:1038D00000090100C907C90F00290AD1484800782A
:1038E000C0B280090100C907C90F002901D1052014
:1038F00045E0954800F09CF901008905C90F0029B1
:1039000007D1914800F094F90100C905C90F0029B9
:1039100001D0102033E08C4800F08AF902008A4977
:1039200080204001104300F07DFAA4B2002C04D1A5
:10393000774800F0AFFA1F2021E0FA239B00220015
:1039400092B23049734800F0BAFF002803D0FFF765
:10395000B3FF0F2013E07C4800F06AF902007A49B7
:103960007A48104000F05EFA774800F061F90100F3
:103970008904C90F002901D1FEF7BEFC002010BD4B
:1039800000B5734800F054F97149802212050243D2
:10399000100000F047FA00207149086000BD0000E7
:1039A000C512002000B56A4800F042F96849694A2A
:1039B0000240100000F036FA00206949086000BD9E
:1039C00010B50024FFF765FF6349664800F0E2F890
:1039D000644800F0FBF880B2FFF775FF040010BDEB
:1039E00010B50024FFF755FF5C495E4800F0D2F89F
:1039F0005C4800F0EBF880B2FFF765FF040010BDF3
:103A0000281400206805002070B506000D00002471
:103A1000FFF73FFF2B0032005349524800F0BAF83D
:103A2000504800F0D3F880B2FFF74DFF0400E4B235
:103A3000002C02D1FFF724FC04002000C0B270BDAE
:103A400070B506000D000024FFF723FF2B003200A5
:103A50004649444800F09EF8424800F0B7F880B26A
:103A6000FFF731FF0400E4B2002C02D1FFF708FC9D
:103A700004002000C0B270BD38B505000024FFF777
:103A800008FF2A003A49374800F084F8354800F02A
:103A90009DF880B2FFF717FF0400E4B2002C02D1BA
:103AA000FFF7EEFB04002000C0B232BD38B50500C0
:103AB0000024FFF7EEFE2A002E492A4800F06AF89B
:103AC000284800F083F880B2FFF7FDFE0400E4B25E
:103AD000002C02D1FFF7D4FB04002000C0B232BD9D
:103AE00010B50024FFF7D5FE23491E4800F052F818
:103AF0001C4800F06BF880B2FFF7E5FE0400E4B26A
:103B0000002C02D1FFF7BCFB04002000C0B210BDA6
:103B1000E49500084411002010B50024FFF7B9FE19
:103B20001649104800F036F80E4800F04FF880B201
:103B3000FFF7C9FE0400E4B2002C02D1FFF7A0FB9E
:103B400004002000C0B210BD54140020FFEFFFFF9E
:103B500056140020FFFFFFF70C9D0008149D00087D
:103B60002410002068050020F0990008049A00083D
:103B7000DC990008C49500081C9D0008249D0008DD
:103B8000704770477047704770477047704770477D
:103B9000704770470CB41CB5040004A80190009451
:103BA00001AB0A006946084878441C3002F0C4FBA7
:103BB0000021009A1170002801D40098001B02B067
:103BC000019910BC03B008477F000000010000E02D
:103BD000491C0A78002AFBD1081A70471206130AFA
:103BE0001A43130C1A4300BF094205D0830705D0BE
:103BF0000270401C491EF9D170470000130030B418
:103C000014001500103902D310393CC0FCD249070A
:103C100000D30CC000D504C0890002D30280801CF0
:103C2000002900D5027030BC704700000022E5E793
:103C3000C3788278417800781B021A430902120483
:103C40000843104370470268531C036011707047AB
:103C500010B408231A0013000C0063438380002370
:103C600003800023C38000234380604B836010BC2B
:103C7000704700B58188C088C908884201D10120F9
:103C800000E0002000BD00B5C088002801D101205F
:103C900000E0002000BD76B504002000FFF7E9FF3A
:103CA00000284CD16088C0080500A068082169433D
:103CB0004018694689888180A068082169434018B6
:103CC000694689788170A068082169434018A16815
:103CD00008226A4389184A78F02111406A465278CE
:103CE0001207120F0A434270A06808216943401866
:103CF000A16808226A43891849780907090F6A46AA
:103D00005278F02313400B43437068460078A16853
:103D100008226A438854A06808216943401869460C
:103D200089798171E088401CE0806088083060807B
:103D3000A08806006088310002F028FF618073BD12
:103D400070B504002000FFF79EFF002801D000207E
:103D50004AE02088C0080500A0680821694340188F
:103D6000808823498880A0680821694340184078EA
:103D70000007000F1E494978F0220A400007000F93
:103D800010431B494870A0680821694340184078D7
:103D9000C0B20009164949780907090F0001084314
:103DA00013494870A0680821694340188078104979
:103DB0008870A06808216943405C0D490870A068BC
:103DC00008216943401880790949887120880830A2
:103DD0002080E088401EE080A08806002088310016
:103DE00002F0D4FE2180024870BD0000B411002012
:103DF0006014002000218180002181714178F0222F
:103E00000A40092111434170092181706321017029
:103E1000704738B505000C002100280002F010FFA3
:103E200032BD200084460870000A4870000A88707D
:103E3000000AC87060467047124207D08B0706D050
:103E40000B78491C0370401C521EF7D8704783073B
:103E500006D00B78491C0370401C521EF9D17047E4
:103E600070B4103A03D378C9103A78C0FBD2530724
:103E700001D318C918C001D508C908C0D20704D396
:103E80000B880380891C801C002A01D50B780370E5
:103E900070BC70470EB400B582B003A900916B46A8
:103EA00002000121034878440A3002F045FA0299E1
:103EB00006B00847255A00008160002202600022F7
:103EC000C26000224260884A0261704700B5C06843
:103ED000CE218900884201DB012000E0002000BDE6
:103EE00000B5C068C92801DA012000E0002000BD4B
:103EF00000B5C0688021C900884201D1012000E0DE
:103F0000002000BD00B5C068002801D1012000E0FC
:103F1000002000BDF8B504000D002000FFF7E8FF09
:103F2000002814D1E068401CE06060680100491C72
:103F30006160012621690F18320029003800FFF75F
:103F40007BFF60688021C90002F020FE6160F1BD46
:103F5000F0B585B00400654800902000FFF7D2FF5F
:103F6000002801D00020BCE08025AD0000265F4F76
:103F7000320029003800FFF731FE5D48FFF758FE98
:103F800001004903C90F002900D190E06768E0688B
:103F9000C82833DAE06857490880206887420CDB7C
:103FA000206854490988019121690D18009E019AE1
:103FB00029003000FFF740FF1BE0256820688021C2
:103FC000C900491B0191216908180290009E019ABD
:103FD00002993000FFF730FF2068216903910099B2
:103FE000081A8021C90046183A0003993000FFF7EB
:103FF00023FF606820600020E06071E02068874255
:1040000011DB2068C825216908180190009E2A004C
:1040100001993000FFF710FF2068C8302060206849
:10402000381AE0603FE02068C8308021C90088422B
:1040300014DA2068C825216908180190009E2A001A
:1040400001993000FFF7F8FE2068C830206080201A
:10405000C0002168401AC019E06024E0256820688B
:104060008021C900491B0191216908180390009E15
:10407000019A03993000FFF7DFFE20681E494919B5
:104080000291216904910099081A8021C9004618FB
:10409000029A04993000FFF7CFFE174840192060BC
:1040A0002068381AE060C8201249088018E02068AB
:1040B000012521690E18009F2A0031003800FFF702
:1040C000BBFE2068401C2060E068401EE0600120CC
:1040D0000849088020688021C90002F057FD21604E
:1040E000009805B0F0BD000068010020680B0020BA
:1040F00054140020F80F0020C8FCFFFF10B54268E0
:1041000003685B1A002B10D403685B1A0360036812
:10411000934203DA0368D31AC36012E08023DB0002
:1041200004681B1B9B18C3600BE003688024E40039
:10413000641A1B1903608023DB0004681B1B9B1897
:10414000C36010BD70B502F097FD040020888004A4
:104150002DD565680026F64308E04A1B290002F0C9
:10416000D3FDB0420DD000280BD02D1803202056CF
:10417000E1688D42F1D30022002102F0C5FDB0427A
:104180000DD16068E0606061E06220888021890074
:1041900001432180200002F070FD300070BD656891
:1041A000E5606561E56220881149014021802000B9
:1041B00002F063FD002070BDF8B5002815D1C0469F
:1041C000C04600240B4D08260027FF43286800281E
:1041D00004D0FFF7B7FF002800D53C002D1D761E48
:1041E000F4D1C046C0462000F2BDFFF7ABFFF2BDE0
:1041F000FFDF00003401002010B50400002C01D1C5
:10420000012015E03520205C002805D10020342154
:104210006054200002F00DFE022035216054210080
:10422000091D206800F0BBF80120352160540020F2
:1042300010BD01000868C068012202430868C2601E
:104240000868006801220243086802600020704785
:1042500010B504002068006980071BD52068C0687D
:10426000800717D50220C04321680861012020750E
:10427000206880698007800F002803D0200000F0AC
:104280008BF805E0200000F086F8200000F085F8AB
:10429000002020752068006940071CD52068C06890
:1042A000400718D50420C04321680861022020750A
:1042B00020688069C02189000140002903D02000C6
:1042C00000F06AF805E0200000F065F8200000F03A
:1042D00064F8002020752068006900071BD520685D
:1042E000C068000717D50820C04321680861042072
:1042F00020752068C0698007800F002803D0200047
:1043000000F04AF805E0200000F045F8200000F039
:1043100044F80020207520680069C0061CD520687C
:10432000C068C00618D51020C04321680861082065
:1043300020752068C069C02189000140002903D090
:10434000200000F029F805E0200000F024F820000B
:1043500000F023F80020207520680069C0070AD506
:104360002068C068C00706D50120C04321680861E5
:10437000200002F0B6FD2068006940060AD52068DA
:10438000C068400606D54020C0432168086120006F
:1043900000F004F810BD704770477047704700B5D3
:1043A000002203681A008023DB05984205D0174BD2
:1043B000984202D0164B984201D1012300E000231D
:1043C000DBB2002B04D070239A4313004A681A43CF
:1043D0008023DB05984205D00C4B984202D00C4B51
:1043E000984201D1012300E00023DBB2002B05D06D
:1043F0001300084A1A401300CA681A4302608B6807
:10440000C3620B6883620123436100BD0008014061
:1044100000140140FFFCFFFFF0B502000023002460
:1044200000250868D840002800D1DDE00868012692
:104430009E4006403400002C00D1D3E0486802289A
:1044400002D0486812281BD1D808042670431018DF
:10445000006A05000F201E007607760F04277E43B2
:10446000B040854308691E007607760F04277E4317
:10447000B04028430500D808042670431018056290
:104480004868012808D04868022805D048681128E3
:1044900002D0486812281CD19068050003201E0035
:1044A00002277E43B0408543C8681E0002277E4332
:1044B000B0402843050095605068050001209840F1
:1044C000854348680600F606F60F9E402E433500E9
:1044D00055601068050003201E0002277E43B0408F
:1044E000854308798007800F1E0002277E43B04075
:1044F000284305001560D068050003201E00022730
:104500007E43B040854388681E0002277E43B0404A
:1045100028430500D5604868C00063D58B48006813
:10452000012606438948066089489E0804277E4381
:10453000805905000F201E00B607B60F04277E43E2
:10454000B0408543A020C005824201D1002014E084
:104550008048824201D101200FE07F48824201D190
:1045600002200AE07D48824201D1032005E07C4818
:10457000824201D1052000E006201E00B607B60FDA
:1045800004277E43B0402843050071489E08042755
:104590007E438551734800680500A5434868C00301
:1045A00000D525436F4805606F4800680500A543A6
:1045B0004868800300D525436B4805606B48006858
:1045C0000500A5434868C00200D52543674805603B
:1045D000674800680500A5434868800200D5254368
:1045E000634805605B1C1CE7F0BDF8B500220023A2
:1045F00000240D00D540002D00D19CE00125954000
:104600000D402B00002B00D193E006680327BC4629
:10461000150002277D436746AF40BE430660D508BC
:104620000426754345190095D50804267543451998
:104630002F6A0F25AC4615006E07760F04256E43D2
:104640006546B540AF43009D2F6286680327BC4690
:10465000150002277D436746AF40BE43866045682C
:1046600001269640B5434560C6680327BC46150041
:1046700002277D436746AF40BE43C660344D96086F
:1046800004277E43AD592C000F251600B607B60F40
:1046900004277E43B54025402C00A025ED05A84207
:1046A00001D1002514E02B4DA84201D101250FE0D6
:1046B000294DA84201D102250AE0284DA84201D186
:1046C000032505E0264DA84201D1052500E0062579
:1046D0001600B607B60F04277E43B540AC4228D17A
:1046E0000F251600B607B60F04277E43B5402C00F1
:1046F000174D960804277E43AE59A643144FBC4677
:10470000950804277D4367467E51164D2D689D43CD
:10471000144E3560144D2D689D43134E3560134D76
:104720002D689D43114E3560114D2D689D43104EEF
:104730003560521C5DE7F1BD00B5D2B2002A02D04F
:1047400089B2816101E089B2816200BD341002400A
:10475000080001400004005000080050000C005008
:10476000001C005000040140040401400804014002
:104770000C04014080B51E480068402101431C48DC
:1047800001601B4800680221884319490860032022
:1047900000F005F800F002F8002002BD704710B5E7
:1047A000040002F0D8FFFA21890002F0F2F903F0C8
:1047B00094F8002221000020C04303F076F8002086
:1047C00010BD0C480068401C0A4908607047094841
:1047D0000068704711B581B00024FFF7F8FF0400AE
:1047E000FFF7F5FF001B01998842F9D313BD0000C4
:1047F000002002408414002010B50400002C01D1D8
:10480000012033E0A0690028FFD16920205C002846
:1048100005D1002068216054200002F08BFA0220AC
:10482000692160542068006801218843216808607C
:10483000200000F0FFFA606A002802D0200000F09B
:10484000C9FC206840680A4901402068416020682E
:1048500080682A21884321688860206800680121D7
:10486000014320680160200000F082FC10BD0000C0
:10487000FFB7FFFF10B50400002C01D101201DE09F
:104880000220692160542068006801218843216862
:10489000086000202168086000202168486000202E
:1048A00021688860200002F0A2FA0020E066002063
:1048B00069216054002068216054002010BDF8B5C3
:1048C00005000C0016001F006920285C012803D099
:1048D0006920285C222863D1002C02D0B6B2002EB9
:1048E00001D101205DE06820285C012801D102206F
:1048F00057E00120682168540020E8666920285CA0
:10490000222803D132206921685402E01220692153
:10491000685450202E5252202E525220285A0028DD
:1049200024D05220285A401E522168523B000022B7
:104930008021280000F0C6FC002801D0032030E0D0
:10494000A8688021490188420BD12869002808D134
:10495000009400980088C005C00D29688862A41CD6
:10496000DBE7207829688862641CD6E73B000022D8
:104970004021280000F0A6FC002801D0032010E010
:104980006920285C322803D122206921685402E082
:10499000012069216854002068216854002000E04B
:1049A0000220F2BDF8B582B004000D0016006920A7
:1049B000205C012804D06920205C122800D08AE005
:1049C000002D02D0B6B2002E01D1012084E0682073
:1049D000205C012801D102207EE001206821605482
:1049E0000020E0666920205C122803D13220692172
:1049F000605402E0222069216054582026525A2037
:104A00002652A0688021490188420AD120690028E5
:104A100003D16B485C21605220E0FF205C21605292
:104A20001CE0A06800280AD12069002803D1FF20DB
:104A30005C21605212E07F205C2160520EE0A06891
:104A400080214905884209D12069002803D17F20AF
:104A50005C21605202E03F205C2160525C20205AC1
:104A600007005A20205A002825D05A20205A401EDC
:104A70005A216052029B00222021200000F022FCDB
:104A8000002801D0032027E0A06880214901884246
:104A90000AD12069002807D100952068406A384073
:104AA00000990880AD1CDCE72068406A39000140AD
:104AB00029706D1CD5E76920205C322803D11220B3
:104AC0006921605402E001206921605400206821BE
:104AD0006054002000E00220FEBD10B503006920F4
:104AE000185C012803D06920185C122866D10029BF
:104AF00002D092B2002A01D1012060E06820185C47
:104B0000012801D102205AE0012068241855596576
:104B100058201A525A201A52986880246401A042E0
:104B20000AD11869002803D125485C24185320E0D5
:104B3000FF205C2418531CE0986800280AD11869EB
:104B4000002803D1FF205C24185312E07F205C244E
:104B500018530EE0986880246405A04209D11869B2
:104B6000002803D17F205C24185302E03F205C24FE
:104B700018530020D8666920185C122803D132200F
:104B80006924185502E02220692418551868006825
:104B90008024640004431868046018688068012455
:104BA0000443186884600020682418551868006859
:104BB0002024044318680460002000E0022010BD97
:104BC000FF01000010B504002068C069C0070DD5C2
:104BD00020680068C00509D5012021680862E06EE0
:104BE00001210143E1660120692160542068C06908
:104BF00080070DD520688068C00709D5022021688C
:104C00000862E06E04210143E166012069216054DD
:104C10002068C06940070DD520688068C00709D5A5
:104C2000042021680862E06E02210143E166012050
:104C3000692160542068C06900070DD5206880682C
:104C4000C00709D5082021680862E06E08210143E9
:104C5000E166012069216054E06E002802D0200046
:104C600002F04BF92068C069C0020DD52068806849
:104C7000400209D580204003216808620120692193
:104C80006054200002F03EFE2068C069800606D510
:104C900020680068800602D5200000F06EF82068C9
:104CA000C069000606D520680068000602D520000D
:104CB00000F00CF82068C069400606D5206800683E
:104CC000400602D5200000F040F810BD00B50100FC
:104CD0006920085C122803D06920085C322832D190
:104CE0005220085A00280DD1086800688023984394
:104CF0000B68186008680068402303430868036075
:104D0000002021E0886880235B0198420DD108696A
:104D100000280AD1C86C02001088C005C00D0B68BD
:104D20009862C86C801CC86406E0C86C03005B1CF9
:104D3000CB6400780B6898625220085A401E5223B8
:104D4000C852002000E0022000BD10B50400206819
:104D5000006840218843216808606920205C32286F
:104D600003D122206921605402E0012069216054AE
:104D7000200002F0BCF8002010BD70B504005C20DB
:104D8000265A6920205C222803D06920205C322822
:104D90004BD1A0688021490188420CD120690028AC
:104DA00009D1606D05002068406A30402880606D40
:104DB000801C606508E0606D0100491C6165216828
:104DC000496A32000A4002705A20205A401E5A2175
:104DD00060525A20205A002825D12068C0698006D8
:104DE000FBD420680068202188432168086069207E
:104DF000205C322803D11220692160540EE0206823
:104E000000680B490140206801602068806801212A
:104E1000884321688860012069216054200002F0E5
:104E20005AF8002002E0002000E0022070BD0000DF
:104E3000FFFEFFFFFEB504000020029000250026C3
:104E400000272068B7498842FFD0A0682169014344
:104E500060690843E1690143029120680068B24932
:104E60000140029808432168086020684068AF4903
:104E70000140E068084321684860A069029020680A
:104E8000A849884203D00298216A01430291206810
:104E90008068B3490140029808432168886020680F
:104EA000B049884218D1B04800688007800F0028B8
:104EB00005D0022806D008D3032809D00BE0012032
:104EC00005004BE00220050048E00420050045E015
:104ED0000820050042E041E02068A449884219D139
:104EE000A14800680C210140002906D004290AD0FD
:104EF000082905D00C2909D00BE0002005002DE081
:104F0000022005002AE00420050027E00820050013
:104F100024E023E02068834988421FD1924800683A
:104F2000C0210901014000290CD08020C00081422D
:104F30000ED080200001814207D0C02000018142B4
:104F400009D00BE00020050008E00220050005E084
:104F50000420050002E008200500FFE720687149F1
:104F6000884268D12800002806D002281CD00428D6
:104F70003AD0082850D05DE002F0FDFB02F0C4FCFE
:104F80000022904B02F0D0FC00900191606802F08A
:104F9000BBFC02000B000098019902F087FD02F0B3
:104FA000E7FD2168C860DAE087480068C0060DD5D3
:104FB000606802F0A9FC02000B000020834902F0A7
:104FC00075FD02F0D5FD2168C8600CE0606802F054
:104FD0009BFC02000B0000207D4902F067FD02F0FF
:104FE000C7FD2168C860BAE002F048FB02F08CFC03
:104FF0000022744B02F098FC00900191606802F06E
:1050000083FC02000B000098019902F04FFD02F0B2
:10501000AFFD2168C860A2E0606802F075FC020084
:105020000B000020A34902F041FD02F0A1FD216820
:10503000C86094E093E0E0698021090288424AD187
:105040002800002808D001280FD0022816D00428F4
:1050500024D008282BD031E002F08DFB02214843F8
:10506000616801F096FD070028E002F093FB022141
:105070004843616801F08DFD07001FE05248006859
:10508000C00605D58C48616801F083FD070004E087
:105090008A48616801F07DFD07000FE002F0EEFA3A
:1050A00002214843616801F074FD070006E080209A
:1050B0004002616801F06DFD0700FFE7804838405D
:1050C00006003807000FC0B24008C0B20643B6B2AF
:1050D0002068C66043E02800002808D001280ED0D0
:1050E000022814D004282AD0082830D037E002F053
:1050F00042FB616801F04DFD2168C8602FE002F0BD
:1051000049FB616801F045FD2168C86027E02E4831
:105110000068C0060CD5A248616801F03AFD21681C
:10512000C8600BE000480040F369FFEFFFCFFFFFCE
:105130009C48616801F02DFD2168C8600FE002F015
:105140009DFA616801F025FD2168C86007E08020B4
:105150000002616801F01DFD2168C860FFE7F7BD2E
:10516000FFF4FFFF003801404C10024000440040B3
:1051700010B504002068006800070AD58A4B002299
:1051800080218903200000F09DF8002801D0032031
:1051900017E02068006840070AD5834B0022802171
:1051A000C903200000F08EF8002801D0032008E099
:1051B0000020682160540020E066012069216054CD
:1051C000002010BD00007040001002408084CE41DD
:1051D0008084EE4100B52421415CC90707D50168F0
:1051E0004968724A0A40816A114302685160242169
:1051F000415C890707D5016849686D4A0A40C16A60
:105200001143026851602421415C490707D50168B8
:105210004968684A0A40016B1143026851602421C1
:10522000415C090707D501684968634A0A40416B38
:105230001143026851602421415CC90607D5016809
:1052400089685E4A0A40816B11430268916024219B
:10525000415C890607D501688968594A0A40C16BD3
:105260001143026891602421415C490614D501680C
:105270004968544A0A40016C114302685160016C4C
:1052800080225203914207D1016849684E4A0A4080
:10529000416C1143026851602421415C090607D525
:1052A00001684968494A0A40816C114302685160AB
:1052B00000BD00000000604100127A000048E801D3
:1052C000F0FF0000F4B504000F001D000026FFF7FA
:1052D0007EFA06006846007800282FD12068C06951
:1052E0003840B8425AD00020C0438542F6D0002D45
:1052F00004D0FFF76CFA801B8542EFD2206800686B
:105300008021884321680860206800682021884344
:1053100021680860206800682D490140206801600C
:105320002068806801218843216888600120692104
:105330006054002068216054032030E02068C06978
:105340003840B8422AD10020C0438542F6D0002D13
:1053500004D0FFF73CFA801B8542EFD2206800683A
:1053600080218843216808602068006820218843E4
:1053700021680860206800681549014020680160C4
:1053800020688068012188432168886001206921A4
:105390006054002068216054032000E00020F2BD2A
:1053A00000093D000024F400F0550000FFFFFDFF60
:1053B000FFFFFEFFFFFFFBFFFF7FFFFFFFEFFFFF92
:1053C000FFDFFFFFFFFFEFFFFFFF9FFFFFFFF7FF85
:1053D000FFFEFFFF38B504000025B048FEF75AFD78
:1053E000AF48FEF757FDAF48FEF754FDAE48FEF755
:1053F00051FDFCF74BFE012000F02CFCFCF72AFFCE
:10540000FEF76EFB0500EDB2002D02D02800C0B201
:1054100023E20121A548FEF713FB0500EDB2002DA4
:1054200002D02800C0B218E2206B00280AD0216BFD
:10543000AD48FEF705FB0500EDB2002D02D02800B7
:10544000C0B20AE20021A948FEF7FAFA0500EDB25F
:10545000002D02D02800C0B2FFE12078002802D041
:10546000012817D02DE00021AF48FEF7E9FA05002A
:10547000EDB2002D02D02800C0B2EEE1AB49AC483D
:10548000FEF7C2FA0500EDB2002D02D02800C0B22E
:10549000E3E116E00121A448FEF7D2FA0500EDB2DF
:1054A000002D02D02800C0B2D7E1B249A048FEF7D3
:1054B000ABFA0500EDB2002D02D02800C0B2CCE15D
:1054C000FFE76078002803D0022866D022D3A7E047
:1054D0000021A948FEF7B4FA0500EDB2002D02D074
:1054E0002800C0B2B9E10021B348FEF7A9FA0500CF
:1054F000EDB2002D02D02800C0B2AEE10021AF48CD
:10550000FEF79EFA0500EDB2002D02D02800C0B2D1
:10551000A3E185E001219848FEF792FA0500EDB27B
:10552000002D02D02800C0B297E10B21A448FEF75D
:1055300087FA0500EDB2002D02D02800C0B28CE140
:105540000021B948FEF77CFA0500EDB2002D02D02B
:105550002800C0B281E10021B448FEF771FA0500CD
:10556000EDB2002D02D02800C0B276E100219248B1
:10557000FEF766FA0500EDB2002D02D02800C0B299
:105580006BE100218D48FEF75BFA0500EDB2002DBE
:1055900002D02800C0B260E142E001217648FEF767
:1055A0004FFA0500EDB2002D02D02800C0B254E140
:1055B0000C218348FEF744FA0500EDB2002D02D01D
:1055C0002800C0B249E10A219748FEF739FA0500E0
:1055D000EDB2002D02D02800C0B23EE10121934877
:1055E000FEF72EFA0500EDB2002D02D02800C0B261
:1055F00033E101217048FEF723FA0500EDB2002DDA
:1056000002D02800C0B228E100216C48FEF718FA49
:105610000500EDB2002D02D02800C0B21DE1FFE769
:10562000A078002803280DD8A178062041438B4894
:10563000FEF706FA0500EDB2002D02D02800C0B238
:105640000BE1FFE7E078002802280BD8E1788448D6
:10565000FEF7F6F90500EDB2002D02D02800C0B229
:10566000FBE0FFE7606800280AD061687D48FEF72C
:10567000CBF90500EDB2002D02D02800C0B2ECE05D
:10568000A068002814D0A1687748FEF7BDF905008E
:10569000EDB2002D0CD02800C0B2DEE0B8970008B3
:1056A00040960008849500083C990008BC9A0008C0
:1056B000E06800280AD0E1686C48FEF7A5F905000B
:1056C000EDB2002D02D02800C0B2C6E0206900284B
:1056D0000ED021696648FEF797F90500EDB2002D5E
:1056E00006D02800C0B2B8E0CC9A0008409C000860
:1056F000606900280AD061695E48FEF785F90500F7
:10570000EDB2002D02D02800C0B2A6E0E06900286A
:1057100010D0E1695848FEF777F90500EDB2002D89
:1057200008D02800C0B298E0DC9A00084C9C000821
:1057300050990008206A00280AD0216A4F48FEF7D5
:1057400063F90500EDB2002D02D02800C0B284E05C
:10575000606A002812D0616AFA20800041434848FC
:10576000FEF76EF90500EDB2002D07D02800C0B29B
:1057700073E000BF589C0008EC9A0008A06A00285B
:105780000AD0A16A3F48FEF75BF90500EDB2002D93
:1057900002D02800C0B260E02C20205C002811D08C
:1057A0002C20215C3848FEF74BF90500EDB2002DA6
:1057B00008D02800C0B250E0FC9A00080C9B0008FA
:1057C000D0970008FEF765F830493148FEF7E2F956
:1057D0002F48FEF7FBF980B2FEF775F80500EDB231
:1057E000002D08D1FDF74CFD0500EDB2002D02D0D3
:1057F0002800C0B231E0FEF74CF826492448FEF7F5
:10580000C9F92348FEF7E2F980B2FEF75CF805001B
:10581000EDB2002D0CD1FDF733FD0500EDB2002DEA
:1058200006D02800C0B218E064990008E897000884
:10583000206B002804D0206B02F0D4F9FCF75CFD4B
:10584000FCF708FD002000F005FA1348FEF722FBE4
:105850001248FEF7B1FC2800C0B232BD1C9B000804
:10586000649C0008709C00087C9C0008F49C000864
:10587000FC9C0008889C00082C9B00083C9B0008AE
:105880005C9600084C9B0008789900087896000800
:1058900068050020049D000894960008B4000020CC
:1058A00038B50500002400F045F9ADB22B003A48A8
:1058B0000078C0B2C0084207520FA4499C48FEF7C6
:1058C00069F99B48FEF782F980B2FDF7FCFF0400FE
:1058D000E4B2002C2AD19E48FEF7AAF90100C906BD
:1058E000C90F002908D19A48FEF7A2F90200984989
:1058F00010201043FEF796FAADB2964805600520D9
:10590000954908809248FEF793F90200904980205B
:10591000C0021043FEF786FA8D48FEF789F90200AF
:105920008B49802080031043FEF77CFA2000C0B230
:1059300032BD000080B5FDF7ACFF00F0FBF8174862
:1059400015490978C9B2C9084907490F405C0028C0
:1059500020D01348FEF76CF90100C906C90F0029D1
:1059600008D10F48FEF764F90D49102202431000D8
:10597000FEF758FA08480078C0B2C0084207520F34
:1059800076497748FEF706F97548FEF71FF980B2A9
:10599000FDF799FF01BD0000680F0020681400208A
:1059A0005414002070B504000E00002531002000C2
:1059B000FDF70EFFFDF764FC05002800C0B270BDC6
:1059C00070B505000E00002466480078002801D15B
:1059D0000520ABE0ADB2002D01D10220A6E072B6E9
:1059E0006148FEF725F960498022920402431000C5
:1059F000FEF718FA5648FEF71BF9020054498020BA
:105A000000061043FEF70EFA62B65848007801000F
:105A1000C907C90F002903D154484068002801D0A4
:105A200000BFF2E700F086F84948FEF701F948495F
:105A300001229043FEF7F6F94C480078C0B24009C5
:105A40000100C907C90F002932D1FDF7C9FF474836
:105A50000078C0B240090100C907C90F002905D16B
:105A600040480078002801D000BFF0E73D480078AA
:105A700000281DD13648FEF7DBF80200344901202A
:105A80001043FEF7CFF972B63148FEF7D1F830492E
:105A900040004008FEF7C6F93348FEF7C9F8020097
:105AA000314933481040FEF7BDF962B602203DE0AF
:105AB000FA239B002A0092B231002E48FEF7FFFE27
:105AC000002803D0FDF7F8FE0F20040027480078D7
:105AD000C0B2C009C0B200280AD1FDF771FF234847
