:020000040800F2
:10000000A81A0020D99C00085D6E00085F6E0008E9
:1000100000000000000000000000000000000000E0
:10002000000000000000000000000000696E0008F1
:10003000736E0008000000007D6E0008936E0008DB
:10004000CF780008377B0008677B00081B7E00081C
:10005000777F0008F38600081B8900084B89000899
:10006000278C0008EF8D0008378F0008A790000844
:10007000BF970008CF970008000000007F6E0008BF
:100080000000000067990008000000000000000068
:10009000896E000800000000C59E0008C79E000889
:1000A000C99E0008CB9E0008CD9E0008CF6E0008B8
:1000B000D96E0008CF9E0008D19E0008D39E00088C
:1000C000F1B5002403F0EFFB6846027812491348AB
:1000D00003F0A2FDFF201249C875104803F0B8FDD7
:1000E00080B203F0F8FB0400E4B2002C02D0200040
:1000F000C0B20FE0012500260A4F32002900380067
:1001000003F0AEFD0648C07D0E2801D000BFF9E720
:100110002000C0B2F2BD0000849D00087C050020D4
:100120000016002017160020F1B58EB00020694699
:100130008872002004900E98007869468872D3482F
:1001400003F0B8FD01004903C90F00290ED168462C
:10015000807A00280AD06846807ACD49CD4A126854
:100160008854CC480068401CCA490860CA4803F05B
:1001700083FEC748C74909684018801E00780D28CB
:1001800001D000F01BFCC248C24909684018401E5B
:1001900000780A2801D000F011FCBC4803F08AFD69
:1001A0000100C900C90F002901D000F007FCBB48BD
:1001B00000780100C907C90F002901D000F0FEFB3B
:1001C000B749B34803F067FE002867D002F06AFF22
:1001D00072B6AF4801F08AFC62B602F057FFAB4836
:1001E00003F068FDC00F00280CD172B6AA4803C8FE
:1001F0000A000100D54803F090FD62B6A64803F05E
:100200003BFE1BE0A14803F055FD01008907C90F23
:10021000002913D1A04803F02FFE9C4803F04AFDAB
:100220009A494000400803F03FFE984803F042FD21
:10023000020096490220104303F036FECC4803F03A
:1002400039FD01008901C90F002907D18F4803F04A
:1002500031FD8E494000400803F026FE00208D4904
:1002600008608A4803F026FD01008902C90F0029B1
:1002700012D0864803F01EFD01000901C90F0029B4
:100280000AD0824803F016FD02008049D74810408A
:1002900003F00AFE00F05DFC01F0F2FBD4497C485B
:1002A00003F0F9FD002800D1AEE1D249784803F00F
:1002B000F2FD0400002825D068462179017260799A
:1002C00002A94870CC480178F02008406946097AB4
:1002D0000A22514302AA527889180907090F0143DB
:1002E000C54801700F20C549087072B66A4803C836
:1002F0000A000100954803F010FD62B6664803F05D
:10030000BBFD4CE1BE49624803F0C5FD0400002876
:1003100000D197E06846617A0170A07A694648701A
:10032000E07A69468870207B6946C87068464078E4
:100330000D2805D1684600783038D14908603AE088
:10034000684680780D280BD1684600780A2148431A
:10035000694649784018CB494018C94908602AE0E5
:100360006846C0780D2810D168460078642148435B
:10037000694649780A2251434018694689784018ED
:10038000C1494018BE49086015E068460078FA2166
:1003900089004843694649786422514340186946B8
:1003A00089780A22514340186946C9784018D649CD
:1003B0004018B3490860B248006800280AD03348A2
:1003C00003F078FC0200314980204002104303F022
:1003D0006BFDE4E0AA480068002800D0DFE0CB48CD
:1003E000CA490978C9B2C9084907490F4018D93024
:1003F000007800281DD0C648C4490978C9B2C90888
:100400004907490F405C002808D00221BF48007806
:10041000C0B2C0084007400F03F000FABB48BB4918
:100420000978C9B2C9084907490F4018D9300021D5
:100430000170164803F03EFC14491022904303F06B
:1004400033FDACE0B3A1124803F025FD0400002801
:1004500028D0032069490870200003F0F9FB05004B
:100460000B3D2600F61CAC4F2A003100380003F08B
:1004700025FD72B6084803C80A000100334803F09E
:100480004CFC62B6044803F0F7FC88E054160020E8
:10049000800F002090160020DC14002000160020A1
:1004A000189E00089D480078C0B240080100C907A6
:1004B000C90F00295ED099484078C0B200090100F8
:1004C000C907C90F002964D09048C079C0B2C008DC
:1004D0004007400F00280BD08C48C079C72101404D
:1004E00038220240083A3820104008438749C87132
:1004F0008A480078FD210140884801700020844925
:10050000824A52791207120F8854804840790007B6
:10051000000F7E49087181484078EF2101407F48F3
:10052000417002207D4908757D4880790100C90726
:10053000C90F00290CD00E4803F0BCFB02000C4987
:1005400080208005104303F0AFFC07E0D0140020AA
:10055000734880790121014371488171704803F02B
:10056000A9FB6F491022904303F09EFC11E000BFED
:100570005516002002202149087072B6C74803C8EA
:100580000A000100C64803F0C8FB62B6C34803F086
:1005900073FC62480078FD21014060480170002032
:1005A000C04908608025AD000026BF4F32002900F9
:1005B000380003F055FB5A4803F07CFB0100890228
:1005C000C90F00291ED0564803F074FB0100090131
:1005D000C90F002916D0524803F06CFB02005049A5
:1005E0000248104003F060FCB3E200BFFFFFFFF7DA
:1005F000209E0008289E0008DD140020E214002040
:10060000909D000801F03CFAA849A74803F043FC7C
:10061000002800D1EAE0A649A34803F03CFC0028EA
:1006200034D0A44803F078FC3C480078FD21014018
:100630003A48017039484078EF210140374841700D
:10064000374880790100C907C90F002905D134480E
:100650008079012101433248817101202B492B4AC5
:1006600052791207120F8918D93108702C4803F0FB
:1006700021FB2B491022904303F016FC8EE000BFB3
:1006800018120020F0FDFFFF30EBFFFFBC49864849
:1006900003F001FC002805D1BA49834803F0FBFBB5
:1006A00000283FD01E4803F005FB01000903C90FD5
:1006B000002973D01A4803F0FDFA02001849B24825
:1006C000104003F0F1FB164803F0F4FA144910222D
:1006D000904303F0E9FB124803F0ECFA02001049E2
:1006E000AA48104003F0E0FB0D4803F0E3FA0200D3
:1006F0000B49A748104003F0D7FB0020A54908800C
:100700000020A549086049E0B02FFFFF80110020BC
:1007100068160020203D20008E11002000160020C9
:10072000541600209D49604803F0B5FB002802D014
:100730009B4803F0F1FB08209A49087072B65748AD
:1007400003C80A000100564803F0E7FA62B65348AE
:1007500003F092FB944803F0ADFA0100C906C90FFB
:10076000002907D0904803F0A5FA8F491022904342
:1007700003F09AFB8D4803F09DFA0100C900C90FF0
:1007800000290BD0894803F095FA02008749884870
:10079000104003F089FB0020864908600020414991
:1007A00008608025AD0000263F4F32002900380048
:1007B00003F056FA7C4803F07DFA01008902C90F64
:1007C000002911D0784803F075FA01000901C90F1A
:1007D000002909D0744803F06DFA02007249764886
:1007E000104003F061FBB4E101F04AF9CA492E4818
:1007F00003F051FB002861D0C8492B4803F04BFBA4
:100800000400002C03D00020C549487202E00120FA
:10081000C3494872C3A1244803F03DFB0400002CE7
:1008200003D00020BE49887202E00120BC498872D2
:1008300004205C49087072B6184803C80A00010019
:10084000174803F06AFA62B6144803F015FB00205B
:10085000144908608025AD000026134F320029009E
:10086000380003F0FDF9504803F024FA0100890232
:10087000C90F002920D04C4803F01CFA01000901DF
:10088000C90F002918D0484803F014FA020046495D
:100890004948104003F008FB5BE100BFDC14002076
:1008A000D014002090160020800F0020309E0008F9
:1008B000D8980008DC93000801F0E2F83A4803F009
:1008C000F9F901008902C90F00293AD0364803F02E
:1008D000F1F901000901C90F002932D0924803F053
:1008E000E9F901004901C90F00292AD1C748008848
:1008F00000280FD072B6C54801888C4803F040FC30
:1009000062B6C248058800260E9F320029003800D2
:1009100003F0A6F9254803F0CDF902002349802011
:100920008005104303F0C0FA1F4803F0C3F902002A
:100930001D492148104003F0B7FAC1480068C14979
:100940000880C14800780100C907C90F002900D0FC
:10095000FFE0BD480078C0B240090100C907C90FD7
:10096000002900D1F5E00020B54908608025AD00E0
:100970000026B64F32002900380003F071F9E8E094
:100980008C950008F4940008FFFFF7FFFFFFDFFFDE
:10099000FFFFFBFF0E1200202C120020389E0008E3
:1009A0007C960008E2140020541600205616002001
:1009B000FFFFFFEF44120020FFFFFFF7A44803F002
:1009C00079F901004907C90F00296FD0A1499F4853
:1009D00003F061FA00283CD19F499C4803F05BFA80
:1009E000002836D19D49994803F055FA002830D1A6
:1009F0009B49964803F04FFA00282AD19949934819
:100A000003F049FA002824D19749904803F043FAAB
:100A100000281ED195498D4803F03DFA002818D1D1
:100A200093498A4803F037FA002812D19149874840
:100A300003F031FA00280CD18F49844803F02BFAD7
:100A4000002806D18D49814803F025FA002800D1FD
:100A50007FE07F4803F02EF902007D4980204005A9
:100A6000104303F021FA7A4803F024F90200784990
:100A70008020C002104303F017FA754803F01AF9FA
:100A800073490422904303F00FFA05207C49088043
:100A90007C4803F00FF902007A497B48104003F0CC
:100AA00003FA00207949086000F0EAFF67486449CA
:100AB00009684018401E007809281AD16348604927
:100AC00009684018801E00783A2812D15F485C49B6
:100AD00009684018C01E007831280AD15C4803F02C
:100AE000E9F802005A498020C005104303F0DCF900
:100AF0002FE0D348C0790100C907C90F002917D0DA
:100B000052484F4909684018401E0078002820D1FB
:100B100000204B4908601CE0409E0008489E0008E9
:100B2000801100206F75740055160020BC14002041
:100B300043480068D34988420BD3002040490860ED
:100B40008025AD000026414F32002900380003F017
:100B500087F8BB4803F0AEF801004903C90F00292C
:100B600000D12DE1474803F0A5F801008900C90F25
:100B7000002900D024E12548008832490880304807
:100B800000683049098840188021890088421ED3B6
:100B90002B4800682B4909884018CC49451872B683
:100BA0002900CB4803F0ECFA62B600260E982449DF
:100BB0000968401AB349471832002900380003F089
:100BC0004FF8B0481E490968401A1E4908801D4860
:100BD0000588C04E1D481A49096847182A00310087
:100BE000380003F06BF91648006816490988401868
:100BF0001349086012480068012805D1134800789D
:100C00000D2801D100F03CFFB34901E01012002093
:100C10000E4803F040F900283AD0894803F04AF81A
:100C200002008749AD48104003F03EF9AC4803F09C
:100C300041F80200AA49AB48104003F035F9BFE083
:100C4000901600201412002000160020800F0020B3
:100C500054160020509E0008589E0008F49A000880
:100C6000609E0008089B0008B89C0008C89C00080B
:100C7000F0980008609700081C9B0008089900087D
:100C80001212002056160020FFFFFFEF4412002032
:100C9000CF4800780100C907C90F002900D08FE0B4
:100CA000674803F007F80100C900C90F002900D008
:100CB00086E0C8480078002800D181E0C548007867
:100CC0000D287DD1C34840780A2879D1C2480068F0
:100CD000022875D0824802F0EDFF02008049802092
:100CE000C004104303F0E0F8BCA1BD4803F0D3F802
:100CF0000400002838D0B748251AAD1CB949B848B7
:100D000003F0C9F800280BD0B749B248401903F0E6
:100D1000C2F80400002C03D0AE48201A801D050044
:100D2000B2480068401B002815D072B6AF48006872
:100D3000411B674803F024FA62B6AC480068401BC8
:100D400001900026A348471932000199380002F0AB
:100D500087FFA6480560624802F0ACFF02006049C8
:100D60006048104003F0A0F8354802F0A3FF0200ED
:100D7000334980200005104303F096F89B48006833
:100D8000404988421CD1564802F094FF01004901B5
:100D9000C90F002914D0524802F08CFF02005049BC
:100DA0005048104003F080F8254802F083FF02000D
:100DB00023494A48104003F077F83248DC4908805C
:100DC0001F4802F077FF01000901C90F002900D078
:100DD000A0E21B4802F06EFF01008902C90F002942
:100DE00000D197E27A4800780121014378480170E8
:100DF000D0480068CE4909884018CE490860364975
:100E00007448CD4A12888018401F03F044F804004B
:100E1000002C00D1ECE06F48744909684018801E2E
:100E200000780D2800D0E3E06A487049096840184E
:100E3000401E00780A2800D0DAE0C04902E000BF76
:100E400054160020634803F026F8040000281BD045
:100E5000E07E00280CD05F48251A6448016828000D
:100E60001B300E1A72B63100194803F089F962B6C8
:100E70005748407801210143554841700D20D84919
:100E8000087048E0FF010000D649524803F003F81B
:100E90000400002828D0E07D00280CD04D48251AF9
:100EA00052480168280017300E1A72B631000848FF
:100EB00003F066F962B60120D649D64A5279120784
:100EC000120F8918D931087025E000BF01FEFFFF1D
:100ED000BC140020800D0020689E0008FFFFFFF773
:100EE00055160020FFFFFFFBCB493A4802F0D3FF25
:100EF000040000280FD0E07D00280CD03548251ACA
:100F00003A480168280017300E1A72B63100C348FB
:100F100003F036F962B60020864908600020C04917
:100F2000086000202C490860052083490880BD48DE
:100F300002F0C0FE0200BB49BB48104002F0B4FF03
:100F4000B84802F0B7FEB7491022904302F0ACFF58
:100F5000B44802F0AFFE0200B249B448104002F0BB
:100F6000A3FF00201A49486019480078FE2101407B
:100F700017480170AB4802F09DFE01000903C90F3C
:100F8000002916D0A74802F095FE0200A549D848CE
:100F9000104002F089FF0020D6490860A14802F005
:100FA00089FE02009F490120104302F07DFF02F0FC
:100FB0000FFD0E4805680026064F32002900380054
:100FC00002F04EFE00200949086000F059FD00BF04
:100FD00000160020800F00201C1200200D0A0000C7
:100FE000820F00209C9D0008209E00089016002083
:100FF000C1480068062805D3002C03D1BE4800680C
:101000004D4908804B480068BC490968884200D2B5
:101010000EE1BA4800684749096888421AD2454833
:101020000068B6490968451A72B629007B4803F082
:10103000A7F862B60026B248AF490968491B4718AD
:1010400032002900380002F00BFEAB480068401B5C
:10105000A9490860A8480068AA490880A74800680C
:10106000A9490860A4480568A54EA84F2A00310088
:10107000380002F023FF00209F49086000202D491E
:10108000086000206649086000209C490860002034
:1010900027490880052028490880624802F00AFE96
:1010A000020060499A48104002F0FEFE5D4802F0DE
:1010B00001FE02005B495D48104002F0F5FE554814
:1010C000C078072101435348C170564802F0F2FD31
:1010D00001000903C90F002932D0002085490860AA
:1010E0004C484078C72101404A484170E248406876
:1010F000002804D0E0484068401EDF494860DE48D0
:10110000406800280AD1474802F0D4FD0200454952
:101110000120104302F0C8FE02F05AFC414802F0E0
:10112000C9FD02003F49D548104002F0BDFE22E053
:101130001412002028120020121200207C970008B0
:10114000384802F0B7FD020036498020C003104342
:1011500002F0AAFE2F484078C72101402D480078B0
:10116000382202400A432B484270C34800780221CB
:101170000143C14801702B4802F09CFD020029493F
:101180002948104002F090FEBB480078FE21014043
:10119000B948017001F093FF224802F08BFD010075
:1011A0000903C90F00291FD0B54802F083FD0200D2
:1011B000B34980204005104302F076FE194802F042
:1011C00079FD18491022904302F06EFE154802F096
:1011D00071FD020013494648104002F065FE0DE023
:1011E00058120020D8980008A54802F063FD0200BC
:1011F000A34980200005104302F056FE8025AD0073
:1012000000263F4F32002900380002F029FD00F08F
:1012100037FC00BF8011002020990008BC1400207A
:101220001812002054160020FFFFDFFFFFFFFBFF16
:1012300031480068D649884259D30520D5490880ED
:101240002E48006830490860D1482E4908802A4855
:10125000006801902A4803902C4D019A03992800B8
:1012600002F02CFE0020244908600520C9490880AE
:10127000C948C07807210143C748C17001F01FFF6A
:101280008025AD0000261E4F32002900380002F0F4
:10129000E7FCC24802F00EFD01000903C90F002956
:1012A00010D0BD484078C7210140BB484170744808
:1012B00002F000FD0200724980204005104302F058
:1012C000F3FD14E0B4484078C7210140B2480078EB
:1012D000382202400A43B0484270694802F0EAFCF2
:1012E0000200674980200005104302F0DDFDC7E3DE
:1012F000FFFFF7FF20120020901600201C12002094
:10130000800F00200E1200202C120020800B0020E5
:10131000FFFFFFF7A14802F0CDFC0100C900C90F93
:10132000002900D1D0E154480078012101435248FE
:1013300001709B49D748974A12888018401F02F0D5
:10134000AAFD0400002800D19CE0E07900281ED00E
:10135000D048251AD04801682800801D081A01903D
:1013600072B60199CD4802F00BFF62B60198039066
:101370000026C8484719FF1D32000399380002F0C3
:101380006FFCC54800680199401AC3490860C2480B
:101390000068C3490880C04800680190BD480390B8
:1013A000C04D019A0399280002F088FDBA480068F0
:1013B000BD49088030484078012101432E484170E2
:1013C000764802F077FC02007449B848104002F0F9
:1013D0006BFD724802F06EFC02007049B448104088
:1013E00002F062FD01F06BFE0020B2490870224855
:1013F0000078FE21014020480170684802F05AFC44
:1014000002006649AC48104002F04EFD634802F00D
:1014100051FC62491022904302F046FD05205D49CF
:1014200008809D48056800269A4F32002900380040
:1014300002F016FC002098490860584802F03AFC77
:1014400001008900C90F00290AD09C4802F032FC33
:1014500002009A4980208004104302F025FD91E0AB
:10146000964802F027FC0200944980204004104373
:1014700002F01AFD86E000BF00160020FFFFBFFF4C
:10148000551600208E498348424A12888018401F12
:1014900002F001FD0400002874D0404802F00AFC6C
:1014A00002003E498148104002F0FEFC79487A492A
:1014B00009684018801E00780D2863D17548764968
:1014C00009684018401E00780A285BD17D484078A2
:1014D000012101437B4841700D207649087079480D
:1014E0000078FE210140774801702C4802F0E2FBB1
:1014F00002002A496D48104002F0D6FC274802F04D
:10150000D9FB020025496C48104002F0CDFC0020B8
:101510006149086005201F490880204802F0CAFB85
:1015200002001E496248104002F0BEFC1B4802F057
:10153000C1FB1A491022904302F0B6FC8025AD0091
:101540000026544F32002900380002F089FB13486E
:1015500002F0B0FB01008900C90F002909D05748EB
:1015600002F0A8FB02005549C748104002F09CFC5D
:1015700008E0524802F09EFB02005049C348104068
:1015800002F092FC4448006806280BD301200AE0D0
:10159000FF010000121200208011002054160020CC
:1015A000209E00080020002C01D1012100E0002134
:1015B000C0B2084203D038480068D4490880364891
:1015C0000068D349884264D13348006801903148AB
:1015D0000390344D019A0399280002F06FFC062015
:1015E0000C90CC480B90CC4D0C9A0B99280002F033
:1015F00065FC06200A9000200990C64D099A0A99B8
:10160000280002F02DFB8020800008900020079029
:10161000204D079A0899280002F022FB0620069028
:10162000BD4805901B4D069A0599280002F046FC1E
:1016300006260025B84F2A003100380002F010FBC2
:101640000620154908600520B0490880FF20FA30BF
:101650001549088001F033FDB04802F02BFB010072
:101660008900C90F00290AD0144802F023FB0200A8
:10167000124980208004104302F016FC09E00F4854
:1016800002F018FB02000D4980204004104302F0D4
:101690000BFCF5E1800F002090160020BC14002008
:1016A0000E120020800B00200A120020FFFFFBFF1B
:1016B000FFFFFFEF58120020FFFFFFF75616002034
:1016C000309E000800160020944802F0F3FA010052
:1016D0000901C90F002900D076E1904802F0EAFA2A
:1016E00001004900C90F002900D16DE18C488D49E6
:1016F00009684018801E00780D2800D053E1884802
:10170000884909684018401E00780A2800D04AE13C
:10171000854802F093FDDB48407BDA49097B88422B
:1017200000D3C4E0D8497E4802F0B5FB0400002C89
:101730000FD06846A1790170E07969464870684623
:1017400000780A2148436946497840181038CF4943
:101750000870CE480078CE490968CA4A527B2C23CB
:101760005A438854CB496E4802F095FB0400002C84
:101770000FD06846E1790170207A69464870684662
:1017800000780A214843694649784018C249401800
:101790000490BF480068BB49497B2C225143401844
:1017A00004994A424260BD495D4802F074FB04005E
:1017B000002C1ED00720BA490870B9480078205C78
:1017C000272816D0B2480068AE49497B2C225143E5
:1017D0004018B34909784018B1490978615C4170F3
:1017E000AF480078401CAE490870AD480078232807
:1017F000E3D1AC494A4802F04EFB0400002C0AD069
:10180000A34800689F49497B2C2251434018263049
:101810000121017009E09E4800689A49497B2C2209
:10182000514340182630002101709F493C4802F086
:1018300032FB0400002C0AD0954800689149497B8E
:101840002C225143401827300121017009E09048B3
:1018500000688C49497B2C225143401827300021D5
:10186000017092492E4802F016FB0400002C0FD0A4
:10187000874800688349497B2C225143401828300F
:10188000012101700EE000BFFFFFFFFDFFFFFFFE23
:101890007F4800687B49497B2C22514340182830FF
:1018A000002101707748407B401C7649487380498D
:1018B0001B4802F0F0FA0400002C37D08025AD0060
:1018C0000026174F32002900380002F0C9F9002025
:1018D00014490860774840780121014375484170F8
:1018E0000E4802F0E7F902000C497348104002F07C
:1018F000DBFA0A4802F0DEF9020008496F4810409E
:1019000002F0D2FA0D206E490870B9E012120020E0
:10191000FF010000790D00207016002054160020F1
:10192000800F002090160020B40000206549664812
:1019300002F0B1FA00282AD0644802F0BBF9020094
:1019400062495E48104002F0AFFA00204D494873EA
:1019500000205F49086057484078012101435548FD
:1019600041705A4802F0A6F9020058495248104006
:1019700002F09AFA0020524908708025AD00002636
:10198000514F32002900380002F06AF978E0002057
:101990004F4908608025AD0000264B4F32002900DA
:1019A000380002F05DF94A4800684A4988420BD382
:1019B0000020474908608025AD000026424F3200D4
:1019C0002900380002F04CF9404802F073F9010098
:1019D0000901C90F002953D13C4802F06BF90100FD
:1019E0004901C90F00294BD03BA002F095FA3B49B1
:1019F000354802F050FA0400002830D0334802F095
:101A000059F9020031493648104002F04DFA2E488B
:101A10002F4909684018801E00780D281FD12A48D8
:101A20002B4909684018401E00780A2817D12D4814
:101A300002F072FA254802F03DF9020023492A48D3
:101A4000104002F031FA0020214908608025AD00E5
:101A500000261D4F32002900380002F001F91C4811
:101A600000681C4988420BD1002019490860802574
:101A7000AD000026144F32002900380002F0F0F8C3
:101A80000FB0F0BD80110020709E0008A416002049
:101A90008C160020789E0008F0FDFFFF809E000855
:101AA000A3160020889E0008909E0008989E0008BB
:101AB000309E000800160020FFFFFFBFFFFBFFFF66
:101AC00058120020A09E0008800F0020541600200D
:101AD00090160020FF0100002A000000A89D0008C9
:101AE000FFFFFBFF309B0008FFFFFFFBF1B584B059
:101AF000049E049DFF27002D00D1A9E2BC493000BF
:101B000002F0C9F90500002D00D1A1E2684669790B
:101B10000171A87901A9487001A840783A2804D138
:101B200068460079303807000AE0684600790A21E3
:101B3000414301A84078081884218900401A070011
:101B40003800AC4908700120AB4908703FB238003A
:101B50000028032800D84CE2001F012800D86CE2BE
:101B6000801E012800D844E2801E012800D864E2CB
:101B7000801E00D150E2401E012800D85DE2801E88
:101B8000012800D835E2801E00D156E2401E03280D
:101B900000D82EE2001F00D14FE2401E00D128E203
:101BA000401E012800D848E2C01E00D121E2401E9C
:101BB000012800D841E2801E00D1ADE1801E00D195
:101BC00017E2401E012800D837E2801E012800D805
:101BD0000FE2801E012800D82FE2801E00D108E20B
:101BE000401E00D129E2401E00D102E2401E04281E
:101BF00000D822E2401F012800D8FAE1001F052882
:101C000000D8F6E1801F20D0801E00D1C7E1401E21
:101C10002FD0401E00D10DE1401E00D12CE1401E0E
:101C2000012800D8ACE1C01E32D0801E00D1E0E116
:101C3000401E00D1C9E1401E00D1D0E1001F00D1FB
:101C40007EE1801E00D1D4E1F8E1C749300002F006
:101C500022F90500684669790170C4480178F020CE
:101C60000840694609780907090F0143BF48017018
:101C7000E4E16846A97D0170BC480178F020084085
:101C8000694609780907090F0143B8480170D5E191
:101C9000B74802F00FF8C00F002803D0B54802F093
:101CA0003BF9D5E1B44802F005F80100C901C90FBC
:101CB000002903D00020B149086012E0AC4801F0CF
:101CC000F9FF0200AA491020104302F0EDF8AA48DB
:101CD00001F0F0FF0200A84980204004104302F008
:101CE000E3F8A149300002F0D6F80500002D00D13C
:101CF0009FE0684669790170684600783038D549B8
:101D000008706846297A0170687A69464870A87A2E
:101D100069468870E87A6946C870684600783A284B
:101D200006D16846E9790170287A694648702EE044
:101D3000684640783A2809D16846E9790170287ADE
:101D400069464870687A6946887020E068468078FD
:101D50003A280CD16846E9790170287A69464870BA
:101D6000687A69468870A87A6946C8700FE0684644
:101D7000C0783A280BD16846E9790170287A69461B
:101D80004870687A69468870A87A6946C87068465B
:101D900040783A2805D1684600783038AE498884C2
:101DA00042E0684680783A280CD1684600780A21DB
:101DB000414368464078081884218900401AA649A2
:101DC000888431E06846C0783A2817D1684601789F
:101DD00064204843694649780A224A438018694684
:101DE000897840189D49401A9B4988841CE000BFAF
:101DF000189E0008DC140020E214002068460178D8
:101E0000FA20800048436946497864224A43801892
:101E1000694689780A224A4380186946C978401879
:101E20008F4940188C4988848E484068401C8D49F1
:101E3000486003E18B4800788021014389480170A4
:101E400088480078DF2101408648017000208549DC
:101E50004860474801F02EFF45490222904302F0B6
:101E600023F8434801F026FF020041498020000684
:101E7000104302F019F8E1E07A4800784006400E7D
:101E8000784908707748007820210143754801702F
:101E9000374801F00FFF36490222904302F004F860
:101EA000334801F007FF020031498020000610434B
:101EB00001F0FAFF2E4801F0FDFEC00708D5694881
:101EC0000078C0B2C009C0B2002801D101F080FD85
:101ED000274801F0EFFE01000903C90F00291AD0BD
:101EE000052061490880224801F0E4FE02002049F3
:101EF0008020C002104301F0D7FF1D4801F0DAFE38
:101F000002001B4980208003104301F0CDFF574899
:101F100000685749086091E05649300001F0BBFF66
:101F2000050011200400222C06DA285D5249091907
:101F30003E310870641CF6E70B204A49C8757DE005
:101F40004E49300001F0A7FF050011200400222CAB
:101F500006DA285D484909193E310870641CF6E725
:101F60000C204049C87569E0A89E0008DD140020D7
:101F700054160020B09E00085516002024120020A0
:101F80003F4801F097FEC00F002807D03C4801F001
:101F900091FE3B494000400801F086FF4EE00020E2
:101FA00038490870364801F085FE354902229043D1
:101FB00001F07AFF324801F07DFE020030498020B6
:101FC0000006104301F070FF38E00A202E49087027
:101FD0002B48C079012101432948C1712EE0092015
:101FE000294908702648C079FE2101402448C17162
:101FF00024E0234801F05EFE21490222904301F0D3
:1020000053FF1F4801F056FE02001D4980200006C4
:10201000104301F049FF11E0194801F04BFE0100A7
:10202000C906C90F002907D0154801F043FE14491D
:102030001022904301F038FF00E0FFE7802080008D
:10204000039000200290029A0399300001F008FEEC
:1020500005B0F0BDDE140020BC140020D014000038
:10206000B02F0000001600201212002020120020C5
:102070001C120020B49D000880110020C09D0008A3
:10208000541600209F160020E214002070B5802115
:10209000C9006C4801F052FF6B484078F1210140C3
:1020A0006948417000206949087000F025F900F086
:1020B00092F800F016F80A21654801F00BFE00F0D6
:1020C000E5FF082500248B4E22002900300001F096
:1020D000C7FD964802F0EFF8002801D001F0F4FBAC
:1020E00070BD00B55848007808210143564801707A
:1020F00055480078802101435348017052480078C8
:10210000BF210140504801704F484078F121014003
:102110004D48417000204C49487400204A49C87419
:102120000020494988740020474948604648407863
:10213000FE21014044484170FF204349C8750220F8
:102140004149087502204049487500203E4988757C
:1021500000203D49C860764801F0ACFD7449012279
:102160000243100001F0A0FE714801F0A3FD704988
:1021700002220243100001F097FE6E4801F09AFD22
:102180006C496D4A0240100001F08EFE6848C0792B
:10219000DF2101406648C171654880790121014312
:1021A000634881716248C079EF2101406048C17184
:1021B0005F48C079BF2101405D48C1715C48C0796A
:1021C0004006400E5A49C8715948007AFE21014024
:1021D0005748017200BD70B55848C079C721014009
:1021E0005648C171002056490860002055490860D2
:1021F00000205549086000205449086000205449D7
:1022000008600020534908800020534908600020DE
:10221000524908600020524908600020474948732D
:1022200000205049086000204F49088005204F4990
:102230000880012400254E4E2A002100300001F0C4
:102240000FFD70BDBC140020001600209F1600205A
:10225000D014002080B54748006804210143454858
:1022600001604448006804210840009000984148FB
:102270000068012101433F4801603E4800680100B9
:10228000C907C90F00910098802040013A490863AE
:1022900001203949486301203749886303203649C2
:1022A000C8633649364802F0F9F80020354908700D
:1022B000FF203549C875002280214901304802F0CD
:1022C0007DFAC82002F0C8FA0122802149012C4879
:1022D00002F074FA322002F0BFFA80214901284846
:1022E00002F0C5F92848C07D0E2801D000BFF9E7EB
:1022F00001BD00006816002080B500228021490140
:10230000A020C00502F05AFA01222049204802F01C
:1023100026FC002809D1064801F0CCFC04498022A3
:1023200092010243100001F0BFFD01BD0015002025
:102330005416002056160020FFFFFFEF80110020EA
:102340002412002018120020201200203012002039
:102350002812002010120020341200203C1200200D
:1023600040120020441200200C1200201212002003
:10237000A21600202C100240BC140020EC140020F7
:10238000000800509F16002000160020CE110020EB
:102390005C130020F1B582B00024A74801F08AFC4C
:1023A0000100C906C90F002900D0CBE372B6A348CB
:1023B00001F008FDA249886262B6A148806A00283F
:1023C00000D1BFE39E48806A8079401E34D0401E11
:1023D000022800D895E3001F00D1D5E0801E00D16F
:1023E00082E3401E00D19EE3401E00D19AE3801E8E
:1023F00000D1A6E2401E00D102E3401E00D138E227
:10240000401E39D0401E00D153E1001F00D119E118
:10241000401E00D1B4E1401E6DD0401E00D17AE1D3
:10242000001F00D144E1401E00D105E2401E08D04B
:10243000C01F00D11EE385E38148806A00F090FF51
:1024400080E37F48806A40780007000FC949097817
:10245000F8220A404007400F1043C6490870002088
:10246000C5498875C448407801210143C24841707C
:102470000020C249087065E3BE48C079C721014009
:102480000830382202400A43BA48C271B948C079BC
:10249000C0B2C0084007400F092809DBB6484078A1
:1024A00001210143B44841700420B449087049E354
:1024B0000120D849624A926A52781207120F885452
:1024C0005F48806A40780007000FAA490978F8221F
:1024D0000A404007400F1043A64908700020A64953
:1024E0008875A548407801210143A3484170002028
:1024F000A249087026E39F48007AF8210140401C59
:102500004007400F08439B490872C34801F0D2FBC3
:102510000200C149C148104001F0C6FC0020C0497A
:1025200008609448007A4007400F052809DB92486C
:102530004078012101439048417004208F49087080
:1025400000E30120B7493E4A926A52781207120FFF
:1025500088543B48806A40780007000F8549C97954
:10256000F8220A404007400F10438249C8710020FA
:102570008149887580484078012101437E48417037
:1025800000207E490870DDE201F08DF97948C07ABB
:1025900001280BD1A448006800907648436E754826
:1025A000026EA249A24801F037FB0EE07148C07AE2
:1025B00000280AD19C48006800906E48436E6D4820
:1025C000026E9C499A4801F027FB994801F040FBB4
:1025D00080B201F080F90400E4B2002C22D1002086
:1025E0008F4908608C4801F065FB02008A49802011
:1025F0004005104301F058FC0F4801F05BFB02005E
:102600000D491020104301F04FFC0B4801F052FB24
:10261000020009490420104301F046FC06205649F7
:10262000887508E00D20554908705348407801210D
:1026300001435148417085E254160020D014002017
:10264000BC14002001F02FF9C9480388494880785C
:102650004207520FC749764801F0DEFA744801F08C
:10266000F7FA80B201F037F90400E4B2002C12D17D
:1026700001F019F9BE480688D94805686C4F320048
:102680002900380001F01AFC72B6B948008801F040
:1026900022F9040062B6E4B2002C08D03648407833
:1026A00001210143344841700D203449087049E24A
:1026B00048E201F0F8F82F48C06E00905A480368CD
:1026C0002C48026EC7495A4801F0A6FA584801F052
:1026D000BFFA80B201F0FFF80400E4B2002C09D088
:1026E0002548407801210143234841700D202349AA
:1026F00008700FE0102020498875002048490860C4
:10270000454801F0D7FA02004349802040051043B4
:1027100001F0CAFB16E201F0C6F81648C36E424843
:102720000268B149424801F077FA414801F090FA55
:1027300080B201F0D0F80400E4B2002C09D00E48B9
:102740004078012101430C4841700D200B4908706D
:102750000FE01720084988750020314908602E488D
:1027600001F0A8FA02002C4980204005104301F036
:102770009BFBE7E18011002000160020581200208A
:102780002448D749896A49780907090F405C00281D
:102790003BD001F088F8D248806A40780207120FD7
:1027A000D049234801F038FA214801F051FA80B2AB
:1027B00001F091F80400E4B2002C29D10020D7499F
:1027C0000870D74801F076FA0200D549102010436E
:1027D00001F06AFBC248806A40780007000FD749C1
:1027E0004979F0220A400007000F1043D34948718D
:1027F000D348407810210143D1484170D048007837
:1028000002210143CE48017002E0DA4801F084FB66
:1028100098E100BF6816002056160020FFFFFFEF6A
:1028200044120020981600203812002078980008E2
:102830007C0500209098000801F035F8CE49CF487B
:1028400001F0EAF9CD4801F003FA80B201F043F853
:102850000400E4B2002C0BD10020B0490870B0484D
:1028600001F028FA0200AE491020104301F01CFBD1
:1028700068E101F018F83E480388B048026FCF497C
:10288000BE4801F0C9F9BD4801F0E2F980B201F09B
:1028900022F80400E4B2002C09D0A94840780121B4
:1028A0000143A74841700D209C49087048E000F0A2
:1028B000E7FC0400E4B2002C08D0A14840780121D4
:1028C00001439F4841700D209449087028480388AF
:1028D0009A48026FBA49A94801F09EF9A74801F049
:1028E000B7F980B200F0F7FF0400E4B2002C08D082
:1028F0009348407801210143914841700D20874958
:10290000087000F0D0FF1A480688354805689B4FCC
:1029100032002900380001F0D1FA984801F098F906
:1029200080B200F0D8FF0400E4B2002C08D0844844
:10293000407801210143824841700D207749087099
:1029400000E100F0B0FF7D48006F002804D19D49F0
:102950008A4801F061F91AE07848006E00280BD12E
:102960007648026F9849854801F056F90FE000BF9C
:10297000041200207C9A00089448006800906F4878
:10298000036F6E48026E92497C4801F045F97B481E
:1029900001F05EF980B200F09EFF0400E4B2002C6A
:1029A00024D15F4801F086F902005D49802080054E
:1029B000104301F079FA5A4801F07CF902005849B5
:1029C0008020C002104301F06FFA554801F072F9FF
:1029D0000200534980204005104301F065FA0EE0E3
:1029E0000012002028970008A89800085448407852
:1029F00001210143524841700D2048490870A1E06F
:102A000000F051FF4D487C2140560021C9438842C7
:102A10001CD14A487D2140560021C943884215D126
:102A20004648006F002803D04448406F00280DD16D
:102A30004248006F002809D04048406F002805D167
:102A40003E48026FD8494D4801F0E6F84B4801F086
:102A5000FFF880B200F03FFF0400E4B2002C08D081
:102A60003748407801210143354841700D202B49FA
:102A7000087067E000F017FF5448006800902F4886
:102A8000036F2E48026ED3493C4801F0C5F83B481D
:102A900001F0DEF880B200F01EFF0400E4B2002C6A
:102AA00014D11F4801F006F902001D498020C0041E
:102AB000104301F0F9F91A4801F0FCF80200184936
:102AC0008020C002104301F0EFF908E01C48407874
:102AD000012101431A4841700D201049087031E06E
:102AE000BC140020689C000815484078012101436F
:102AF000134841700D20094908700020104988755D
:102B000020E00F484078012101430D48417000202A
:102B10000249087000200A49887513E05812002005
:102B2000541600200EE0AC4801F0C4F80200AA4997
:102B30004020104301F0B8F904E000BF80110020EC
:102B400000160020A44801F0B5F80100C903C90F20
:102B5000002915D0A04801F0ADF802009E499F4819
:102B6000104001F0A1F99E48006880B202F0DAFE40
:102B700051E100BFC0980008789C00087C05002047
:102B8000954801F097F801004902C90F002921D0AA
:102B900094480078C0B2C0080100C907C90F0029D5
:102BA00018D08D4801F086F802008B498E481040FD
:102BB00001F07AF902F000FF2DE100BF909A0008C1
:102BC000A49A0008789D0008889C0008381200200C
:102BD0001C960008854801F06DF801000901C90F35
:102BE000002926D0814801F065F802007F49C448D9
:102BF000104001F059F9C34800880090C2480368AA
:102C0000C24AC3484078C0B2C0084007400F010024
:102C100049B20020C04300F0F8FF8026B60000252E
:102C2000BA4F2A003100380001F01AF800F050FACB
:102C3000F1E06E4801F03EF80100C900C90F00291B
:102C400029D06A4801F036F802006849B1481040BE
:102C500001F02AF9AB4800880090AB480368AB4A02
:102C6000AB484078C0B2C0084007400F010049B2ED
:102C7000A748C0784007401740B200F0C6FF802642
:102C8000B6000025A14F2A003100380000F0E8FF0F
:102C900000F01EFABFE0554801F00CF801004900B1
:102CA000C90F002918D09C48994989794907490FCB
:102CB000405C002806D00221954880794007400FEB
:102CC00000F0ACFD494800F0F5FF02004749934889
:102CD000104001F0E9F89EE0444800F0EBFF0100ED
:102CE0008900C90F002910D002218D4800F08EFF05
:102CF00002203C4908753D4800F0DCFF02003B49DA
:102D00008848104001F0D0F885E0874800F0D2FFF5
:102D10000100C901C90F002925D0834800F0CAFF6E
:102D2000020081498148104001F0BEF82A4800F0B5
:102D3000C1FF01008900C90F002903D0734800F0CA
:102D400069FF04E07A480188704803F033FA80266E
:102D5000B60000256D4F2A003100380000F080FFDA
:102D600000F0B6F957E0704800F0A4FF01008901B7
:102D7000C90F00291AD0654800F04CFF8026B60024
:102D80000025624F2A003100380000F069FF00F092
:102D90009FF9654800F08EFF02006349C04810406B
:102DA00001F082F837E000BF989C00080A4800F064
:102DB00081FF01004904C90F002919D000F028FF44
:102DC000054800F077FF02000349C048104001F0B9
:102DD0006BF820E04497000854160020FFFFFEFF28
:102DE0001812002000160020FFFFBFFF551600201C
:102DF000BB4800F05FFF01000904C90F00290AD099
:102E000000F007FFB64800F055FF0200B449B5488E
:102E1000104001F049F8B448C07D002800D1A9E075
:102E2000012800D1ADE0022800D1B1E0032800D193
:102E3000B5E0042800D1B9E0052800D1BDE006289E
:102E400000D1C8E0072800D1CCE0082800D1D0E0AC
:102E500009284BD00A286DD00B2871D00C2876D0C9
:102E60000D2800D1B0E00E282BD00F2800D10CE1A6
:102E7000102800D1C4E0112800D1CFE0122800D1E1
:102E8000D3E0132800D1D7E0142800D1FDE01528A5
:102E900000D1BCE0162800D1D5E0172800D1D9E038
:102EA000182800D1DDE0192800D1E1E01A2800D16E
:102EB000E5E01B2852D01C2856D0FF2800D1E4E0C2
:102EC000E3E089484078C0B240084007400F02283C
:102ED0000BD185484078F1210140801C0E22024030
:102EE0000A438148427003F050F9CEE0BF480078B1
:102EF000002804D10120BD49087003F04EF9C4E058
:102F0000FFFFFFF70E1200202C120020800B002084
:102F100080110020FFFFFFEF68160020FFFFFFBFBA
:102F200084110020FFFFFFDF56160020FFFFFFFE89
:102F30000A12002000F065FEFF206B49C875A4E06E
:102F4000AB4800F05FFEFF206749C8759DE0A848C8
:102F500000F059FEFF206449C87596E000F05BFE62
:102F6000FF206149C87590E000F055FEFF205E49E2
:102F7000C8758AE0FF205C49C875112000F03FFE4B
:102F800083E0FF205849C875142000F038FE7CE02B
:102F9000FF205549C875132000F031FE75E0FF2071
:102FA0005149C875152000F02AFE6EE0FF204E49F9
:102FB000C875162000F023FE67E0FF204A49C87557
:102FC0001B2000F01CFE60E0FF204749C8751C2054
:102FD00000F015FE59E0FF204349C875172000F0A6
:102FE0000DFE52E0FF204049C875122000F006FE99
:102FF0004BE0FF203C49C875182000F0FFFD44E07D
:10300000FF203949C8751D2000F0FAFD3DE0FF2082
:103010003549C8751E2000F0F3FD36E0FF20324927
:10302000C875192000F0ECFD2FE0FF202E49C8756F
:103030001A2000F0E5FD28E0FF202B49C875062086
:1030400000F0DEFD21E0FF202749C8751F2000F0B9
:10305000DBFD1AE0FF202449C875202000F0D4FDD4
:1030600013E0FF202049C875212000F0CDFD0CE0C1
:10307000FF201D49C875222000F0C6FD05E0FF2095
:103080001949C87500F0C3FDFFE7F7BD00201649D8
:103090008860154800780421014313480170704787
:1030A000FFFFFFFD0020104988600F480078FB21DA
:1030B00001400D48017001200B49487470470A48CF
:1030C0000078F7210140084801707047FFBFFFFFFB
:1030D000054800780821014303480170704700004B
:1030E00054160020FF7FFFFF0016002080B58C489B
:1030F0000078C0B280080100C907C90F00290AD0B2
:1031000087480078C0B2C0080100C907C90F00296C
:1031100001D000F0CDF8834800F0CCFD010049015A
:10312000C90F00290FD0804800F01CFF00280AD0EA
:103130007C4800F0BFFD7B497C4A0240100000F053
:10314000B3FEFFF7D9F87A4800F0B4FD0100890614
:10315000C90F002913D0774800680100491C754A3F
:103160001160754988420AD3714800F0A3FD704987
:103170002022904300F098FE00206E4908606948C4
:1031800000F098FD01000901C90F002929D06B4802
:1031900000680100491C694A1160FA21C90088428F
:1031A0001FD3634800F086FD0100C905C90F00293F
:1031B0000AD05F4800F07EFD5D4980225200024344
:1031C000100000F071FE0AE0594800F073FD0100A4
:1031D000C905C90F002902D11B205149C87500F04B
:1031E000E9FB01BD01214E4AD17470479F160020B2
:1031F000CF11002010B504004D4800F05BFD4C4994
:103200004F4A0240100000F04FFEFFF74BFF72B62E
:103210004C49454800F0C0FE62B6FFF737FF424810
:1032200000F096FE002811D03E4800F043FD020059
:103230003C498020C004104300F036FE012280216A
:103240004901A020C00501F0B9FA18E0384800F0A3
:1032500031FD0100C904C90F002910D101223949EB
:10326000394801F07CFC002809D1314800F022FDEA
:1032700002002F4980208001104300F015FE10BD90
:1032800000B5274840780100C907C90F002901D1BE
:1032900000BFF6E722484078FE21014020484170F7
:1032A0002A48007800BD10B5040000F00DFB10BDE9
:1032B00080B572B61C4800F08DFE2549886762B65D
:1032C0002348806F002803D02148806FFCF72CFF33
:1032D000204800F0EFFC0100C901C90F00291CD0F3
:1032E0001D480068401C1C4908601B4800683328C2
:1032F00013D3002018490860164800F0DBFC15497C
:10330000164A0240100000F0CFFD094800F0D2FC40
:1033100007491022904300F0C7FD01BD00000000E6
:103320000016002056160020BC140020FFFFFFFBF3
:1033300054160020401200206C0700003C120020B0
:10334000FFDFFFFFCE1100205C1300205812002089
:10335000801100205516002024120020FFFFFFFEE0
:1033600010B504002078042857D0052859D0082823
:103370005BD009285DD00A285FD00B2861D00C28CB
:1033800063D00F2865D0142867D0162869D0172875
:103390006BD018286DD01A286FD01B2871D01F2829
:1033A00073D0202875D0232800D1AAE0242800D18A
:1033B000B1E0262800D1B2E0282800D1B9E02928C0
:1033C00000D1BAE02A2800D1BEE02B2800D1BFE00E
:1033D0002C2800D1C0E0372800D1C1E03A2800D124
:1033E00003E13D2800D172E13E2800D17DE13F2874
:1033F00000D18BE1402800D10EE1422800D1BBE191
:10340000432800D186E1442800D18EE1452800D12F
:1034100098E1462800D1A0E1B8E10720D549C87558
:10342000B4E10020D349C875B0E10120D149C87585
:10343000ACE10220CF49C875A8E10320CD49C87589
:10344000A4E10420CB49C875A0E10620C949C8758C
:103450009CE10820C749C87598E11120C549C87585
:1034600094E11220C349C87590E11320C149C87581
:103470008CE10920BF49C87588E10A20BD49C8759B
:1034800084E10520BB49C87580E10D20B949C875A4
:103490007CE1B8484078C0B240084007400F02289D
:1034A00009DAB4484078F1210140801C0E22024024
:1034B0000A43B0484270AF48007810210143AD483C
:1034C00001700E20AB49C875C44800F0F3FB010041
:1034D0004906C90F002913D0C04800F0EBFBBF49D3
:1034E0004022904300F0E0FCBC4800F0E3FB020007
:1034F000BA49A748104000F0D7FC1C209D49C87568
:1035000044E1B64800F0D6FB0200B449A14810409F
:1035100000F0CAFC3AE116209649C87536E1954894
:103520000078EF210140934801700F209149C87540
:103530002CE110208F49C87528E1002096490870B9
:1035400015208C49C87521E117208A49C8751DE1ED
:1035500018208849C87519E119208649C87515E1F0
:103560009E4800F0A7FB01008902C90F002911D075
:103570009A4800F09FFB020098499948104000F0DB
:1035800093FC964800F096FB020094499548104041
:1035900000F08AFC60780007000F93490978C72281
:1035A0000A40C0003821014011438F4801708F4804
:1035B0008D490978C9B2C9084907490F405C0028FC
:1035C00012D0864800F076FB020084498020C003B8
:1035D000104300F069FC814800F06CFB02007F4959
:1035E0001020104300F060FCD0E060780007000F6E
:1035F0007D498979F8220A404007400F10437A49F3
:1036000088717B4800F056FB020079498020C00594
:10361000104300F049FCB9E0A088764908606F4883
:1036200000F048FB02006D4980200003104300F0C9
:103630003BFC6A4800F03EFB020068491020104342
:1036400000F032FC4B480078C0B240090100C907C5
:10365000C90F00291FD1A07801280AD15F4800F0C6
:1036600029FB5E490122904300F01EFC00F0C0F9E6
:103670002CE05A4800F01EFB020058495E481040FA
:1036800000F012FC554800F015FB544910229043FD
:1036900000F00AFC1AE0514800F00CFB02004F4910
:1036A0008020C002104300F0FFFB05205349088032
:1036B0004A4800F0FFFA0200484980208003104386
:1036C00000F0F2FB4B4800684D4908605EE043485B
:1036D00000F0F0FA020041498020C001104300F0E0
:1036E000E3FB01204749087050E03C4800F0E2FA53
:1036F00002003A4980200002104300F0D5FB002070
:103700004149087000203F4908703FE01A201949DC
:10371000C8753BE0314800F0CDFA02002F49802007
:103720008000104300F0C0FB30E02C4800F0C2FAEB
:1037300002002A491648104000F0B6FB1C200D4933
:10374000C87523E0254800F0B5FA0200234980201F
:103750004000104300F0A8FB18E0204800F0AAFA4F
:1037600002001E492948104000F09EFB00F010F9AD
:103770000CE000BF00160020184800F09BFA020081
:1037800016498020104300F08FFBFFE710BD0000BA
:10379000FFFDFFFFFFFBFFFF9F160020F8B50600AF
:1037A0000D0014001F0000F061F80F4806660E4877
:1037B0004566174804600C48C77206201549087012
:1037C00072B63E4803C80A000100134800F0A5FA8B
:1037D00062B63A4800F050FBF1BD000054160020DC
:1037E000FFFFDFFFFFFFFBFF8011002068160020B6
:1037F0005516002020120020FFFFF7FF12120020B4
:103800001C120020A0160020A1160020FFFEFFFFC2
:1038100038120020E2140020D014002038B5050032
:103820000C0000F023F8E4B2022C03D11520244947
:10383000087005E0E4B2012C02D123202049087071
:103840005B480078F02101402807000F08435849E1
:10385000087072B6194803C80A000100194800F040
:103860005CFA62B6154800F007FB31BD00B5684848
:1038700000780100C907C90F002911D164480078F8
:10388000C0B240080100C907C90F00290AD060482A
:103890004078C0B200090100C907C90F002901D151
:1038A00000BFE4E700BD70B58024E4000025594E58
:1038B0002A002100300000F0D3F970BDDC14002094
:1038C000E2140020D014002080B5002002F001FD99
:1038D000FEF712FD01BD10B504004D480078C0B2DE
:1038E00000090100C907C90F00290AD1484800781A
:1038F000C0B280090100C907C90F002901D1052004
:1039000045E0AF4800F0D6F901008905C90F00294C
:1039100007D1AB4800F0CEF90100C905C90F002955
:1039200001D0102033E0A64800F0C4F90200A449F9
:1039300080204001104300F0B7FAA4B2002C04D15B
:10394000914800F0E9FA1F2021E0FA239B002200B1
:1039500092B230498D4800F0F4FF002803D0FFF701
:10396000B3FF0F2013E0964800F0A4F90200944939
:103970009448104000F098FA914800F09BF901003B
:103980008904C90F002901D1FEF7B6FC002010BD43
:1039900000B58D4800F08EF98B4980221205024354
:1039A000100000F081FA00208B49086000BD000083
:1039B000DD14002000B5844800F07CF98249834A78
:1039C0000240100000F070FA00208349086000BD3A
:1039D00010B50024FFF767FF7D49804800F01CF90F
:1039E0007E4800F035F980B2FFF775FF040010BD86
:1039F00010B50024FFF757FF7649784800F00CF91E
:103A0000764800F025F980B2FFF765FF040010BD8D
:103A1000001600207C050020F3B583B00024FFF7DA
:103A200042FF039A6E496D4800F0F6F86B4800F0CB
:103A30000FF980B2FFF74FFF0400E4B2002C18D159
:103A4000FFF71EFC04001B4800F002F900900098EC
:103A50000290184D049E029A2900300000F02EFAC0
:103A6000009801900026134F32000199380000F0B1
:103A7000F7F82000C0B205B0F0BD000070B5060038
:103A80000D000024FFF70FFF2B003200554953486B
:103A900000F0C2F8514800F0DBF880B2FFF71BFFDE
:103AA0000400E4B2002C02D1FFF7EAFB040020007E
:103AB000C0B270BD8E11002070B506000D0000244C
:103AC000FFF7F1FE2B0032004749444800F0A4F80C
:103AD000424800F0BDF880B2FFF7FDFE0400E4B2FA
:103AE000002C02D1FFF7CCFB04002000C0B270BD57
:103AF00038B505000024FFF7D6FE2A003B493748B9
:103B000000F08AF8354800F0A3F880B2FFF7E3FE32
:103B10000400E4B2002C02D1FFF7B2FB0400200045
:103B2000C0B232BD38B505000024FFF7BCFE2A0044
:103B30002F492A4800F070F8284800F089F880B230
:103B4000FFF7C9FE0400E4B2002C02D1FFF798FB96
:103B500004002000C0B232BD10B50024FFF7A3FE60
:103B600024491E4800F058F81C4800F071F880B253
:103B7000FFF7B1FE0400E4B2002C02D1FFF780FB96
:103B800004002000C0B210BD5C9600085C13002049
:103B900010B50024FFF787FE1749104800F03CF8E5
:103BA0000E4800F055F880B2FFF795FE0400E4B22D
:103BB000002C02D1FFF764FB04002000C0B210BD4E
:103BC00054160020FFEFFFFF56160020FFFFFFF7FF
:103BD000F89D0008009E00083C1200207C05002093
:103BE000A89C0008CC9A0008E09A0008B89A00083F
:103BF0003C960008089E0008109E00087047704719
:103C000070477047704770477047704770477047FC
:103C100070477047704770470CB41CB5040004A887
:103C20000190009401AB0A006946084878441C30B2
:103C300002F066FB0021009A1170002801D4009860
:103C4000001B02B0019910BC03B008477F000000C0
:103C5000010000E0491C0A78002AFBD1081A7047CD
:103C60001206130A1A43130C1A4300BF094205D067
:103C7000830705D00270401C491EF9D1704700002F
:103C8000130030B414001500103902D310393CC0B1
:103C9000FCD2490700D30CC000D504C0890002D370
:103CA0000280801C002900D5027030BC70470000E3
:103CB0000022E5E7C3788278417800781B021A4336
:103CC000090212040843104370470268531C036042
:103CD0001170704710B408231A0013000C006343DE
:103CE0008380002303800023C38000234380604B34
:103CF000836010BC704700B58188C088C9088842BD
:103D000001D1012000E0002000BD00B5C0880028DE
:103D100001D1012000E0002000BD76B504002000A4
:103D2000FFF7E9FF00284CD16088C0080500A068B3
:103D3000082169434018694689888180A068082164
:103D400069434018694689788170A06808216943F1
:103D50004018A16808226A4389184A78F021114066
:103D60006A4652781207120F0A434270A06808216F
:103D700069434018A16808226A43891849780907ED
:103D8000090F6A465278F02313400B43437068468C
:103D90000078A16808226A438854A0680821694312
:103DA0004018694689798171E088401CE08060880C
:103DB00008306080A08806006088310002F0CAFEEA
:103DC000618073BD70B504002000FFF79EFF0028DE
:103DD00001D000204AE02088C0080500A068082122
:103DE00069434018808823498880A0680821694376
:103DF000401840780007000F1E494978F0220A4019
:103E00000007000F10431B494870A0680821694350
:103E100040184078C0B20009164949780907090FCF
:103E20000001084313494870A068082169434018FD
:103E3000807810498870A06808216943405C0D496A
:103E40000870A06808216943401880790949887181
:103E5000208808302080E088401EE080A08806008E
:103E60002088310002F076FE2180024870BD0000FB
:103E7000CC13002060160020002181800021817178
:103E80004178F0220A4009211143417009218170D3
:103E900063210170704738B505000C00210028002F
:103EA00002F0B2FE32BD200084460870000A48705D
:103EB000000A8870000AC87060467047124207D036
:103EC0008B0706D00B78491C0370401C521EF7D894
:103ED0007047830706D00B78491C0370401C521EA4
:103EE000F9D1704770B4103A03D378C9103A78C04A
:103EF000FBD2530701D318C918C001D508C908C09F
:103F0000D20704D30B880380891C801C002A01D5AA
:103F10000B78037070BC70470EB400B582B003A973
:103F200000916B4602000121034878440A3002F0F8
:103F3000E7F9029906B00847195A0000816000228B
:103F400002600022C26000224260884A026170471B
:103F500000B5C068CE218900884201DB012000E065
:103F6000002000BD00B5C068C92801DA012000E0CA
:103F7000002000BD00B5C0688021C900884201D181
:103F8000012000E0002000BD00B5C068002801D17C
:103F9000012000E0002000BDF8B504000D00200065
:103FA000FFF7E8FF002814D1E068401CE06060687B
:103FB0000100491C6160012621690F1832002900A7
:103FC0003800FFF77BFF60688021C90002F0C2FD66
:103FD0006160F1BDF0B585B0040065480090200037
:103FE000FFF7D2FF002801D00020BCE08025AD0003
:103FF00000265F4F320029003800FFF731FE5D4890
:10400000FFF758FE01004903C90F002900D190E0D5
:104010006768E068C82833DAE06857490880206894
:1040200087420CDB206854490988019121690D18E9
:10403000009E019A29003000FFF740FF1BE0256831
:1040400020688021C900491B01912169081802904C
:10405000009E019A02993000FFF730FF2068216925
:1040600003910099081A8021C90046183A00039963
:104070003000FFF723FF606820600020E06071E0FF
:104080002068874211DB2068C82521690818019043
:10409000009E2A0001993000FFF710FF2068C83009
:1040A00020602068381AE0603FE02068C830802136
:1040B000C900884214DA2068C825216908180190CF
:1040C000009E2A0001993000FFF7F8FE2068C830F2
:1040D00020608020C0002168401AC019E06024E000
:1040E000256820688021C900491B019121690818B1
:1040F0000390009E019A03993000FFF7DFFE2068CD
:104100001E4949190291216904910099081A8021D8
:10411000C9004618029A04993000FFF7CFFE1748ED
:10412000401920602068381AE060C82012490880D1
:1041300018E02068012521690E18009F2A0031002F
:104140003800FFF7BBFE2068401C2060E068401E7E
:10415000E06001200849088020688021C90002F041
:10416000F9FC2160009805B0F0BD00007C01002042
:10417000800D00205416002010120020C8FCFFFF04
:1041800010B5426803685B1A002B10D403685B1AF1
:1041900003600368934203DA0368D31AC36012E032
:1041A0008023DB0004681B1B9B18C3600BE00368C3
:1041B0008024E400641A1B1903608023DB00046878
:1041C0001B1B9B18C36010BD70B502F039FD0400C5
:1041D000208880042DD565680026F64308E04A1B38
:1041E000290002F075FDB0420DD000280BD02D182B
:1041F00003202056E1688D42F1D30022002102F015
:1042000067FDB0420DD16068E0606061E0622088C7
:104210008021890001432180200002F012FD30003E
:1042200070BD6568E5606561E562208811490140FF
:104230002180200002F005FD002070BDF8B50028A7
:1042400015D1C046C04600240B4D08260027FF4369
:104250002868002804D0FFF7B7FF002800D53C00ED
:104260002D1D761EF4D1C046C0462000F2BDFFF7DA
:10427000ABFFF2BDFFDF00003401002010B50400E9
:10428000002C01D1012015E03520205C002805D14B
:10429000002034216054200002F0AFFD02203521BF
:1042A00060542100091D206800F0BBF80120352171
:1042B0006054002010BD01000868C068012202435C
:1042C0000868C2600868006801220243086802604A
:1042D0000020704710B504002068006980071BD5D6
:1042E0002068C068800717D50220C0432168086194
:1042F00001202075206880698007800F002803D086
:10430000200000F08BF805E0200000F086F8200087
:1043100000F085F8002020752068006940071CD552
:104320002068C068400718D50420C0432168086190
:104330000220207520688069C02189000140002981
:1043400003D0200000F06AF805E0200000F065F8D6
:10435000200000F064F80020207520680069000744
:104360001BD52068C068000717D50820C043216806
:104370000861042020752068C0698007800F00282C
:1043800003D0200000F04AF805E0200000F045F8D6
:10439000200000F044F80020207520680069C00665
:1043A0001CD52068C068C00618D51020C0432168FD
:1043B0000861082020752068C069C021890001407B
:1043C000002903D0200000F029F805E0200000F0CB
:1043D00024F8200000F023F80020207520680069F0
:1043E000C0070AD52068C068C00706D50120C043B1
:1043F00021680861200002F058FD2068006940062D
:104400000AD52068C068400606D54020C043216810
:104410000861200000F004F810BD70477047704735
:10442000704700B5002203681A008023DB0598421C
:1044300005D0174B984202D0164B984201D1012368
:1044400000E00023DBB2002B04D070239A4313005A
:104450004A681A438023DB05984205D00C4B9842EA
:1044600002D00C4B984201D1012300E00023DBB2C3
:10447000002B05D01300084A1A401300CA681A43DB
:1044800002608B68C3620B6883620123436100BDD5
:104490000008014000140140FFFCFFFFF0B50200DE
:1044A0000023002400250868D840002800D1DDE062
:1044B000086801269E4006403400002C00D1D3E05D
:1044C0004868022802D0486812281BD1D808042660
:1044D00070431018006A05000F201E007607760F43
:1044E00004277E43B040854308691E007607760F97
:1044F00004277E43B04028430500D80804267043B3
:10450000101805624868012808D04868022805D0BC
:104510004868112802D0486812281CD1906805000C
:1045200003201E0002277E43B0408543C8681E005A
:1045300002277E43B040284305009560506805007F
:1045400001209840854348680600F606F60F9E4015
:104550002E43350055601068050003201E00022719
:104560007E43B040854308798007800F1E000227F4
:104570007E43B040284305001560D0680500032045
:104580001E0002277E43B040854388681E00022734
:104590007E43B04028430500D5604868C00063D51D
:1045A0008B480068012606438948066089489E08B2
:1045B00004277E43805905000F201E00B607B60F62
:1045C00004277E43B0408543A020C005824201D12C
:1045D000002014E08048824201D101200FE07F4892
:1045E000824201D102200AE07D48824201D10320AB
:1045F00005E07C48824201D1052000E006201E0033
:10460000B607B60F04277E43B04028430500714823
:104610009E0804277E438551734800680500A54322
:104620004868C00300D525436F4805606F4800689F
:104630000500A5434868800300D525436B48056005
:104640006B4800680500A5434868C00200D52543B3
:1046500067480560674800680500A5434868800210
:1046600000D52543634805605B1C1CE7F0BDF8B529
:104670000022002300240D00D540002D00D19CE035
:10468000012595400D402B00002B00D193E00668DA
:104690000327BC46150002277D436746AF40BE4353
:1046A0000660D5080426754345190095D5080426EB
:1046B000754345192F6A0F25AC4615006E07760F16
:1046C00004256E436546B540AF43009D2F62866862
:1046D0000327BC46150002277D436746AF40BE4313
:1046E0008660456801269640B5434560C668032745
:1046F000BC46150002277D436746AF40BE43C660F7
:10470000344D960804277E43AD592C000F25160022
:10471000B607B60F04277E43B54025402C00A025E0
:10472000ED05A84201D1002514E02B4DA84201D18E
:1047300001250FE0294DA84201D102250AE0284DAC
:10474000A84201D1032505E0264DA84201D1052547
:1047500000E006251600B607B60F04277E43B540D5
:10476000AC4228D10F251600B607B60F04277E43AA
:10477000B5402C00174D960804277E43AE59A6433A
:10478000144FBC46950804277D4367467E51164D5D
:104790002D689D43144E3560144D2D689D43134E76
:1047A0003560134D2D689D43114E3560114D2D68B8
:1047B0009D43104E3560521C5DE7F1BD00B5D2B28D
:1047C000002A02D089B2816101E089B2816200BD14
:1047D000341002400800014000040050000800505E
:1047E000000C0050001C0050000401400404014073
:1047F000080401400C04014080B51E4800684021B7
:1048000001431C4801601B48006802218843194984
:104810000860032000F005F800F002F8002002BD57
:10482000704710B5040002F07AFFFA21890002F007
:1048300094F903F036F8002221000020C04303F071
:1048400018F8002010BD0C480068401C0A49086098
:10485000704709480068704711B581B00024FFF720
:10486000F8FF0400FFF7F5FF001B01998842F9D318
:1048700013BD0000002002408416002010B5040083
:10488000002C01D1012033E0A0690028FFD169206C
:10489000205C002805D1002068216054200002F02F
:1048A0002DFA0220692160542068006801218843A4
:1048B00021680860200000F0FFFA606A002802D03A
:1048C000200000F0C9FC206840680A4901402068C7
:1048D0004160206880682A218843216888602068B8
:1048E00000680121014320680160200000F082FC83
:1048F00010BD0000FFB7FFFF10B50400002C01D170
:1049000001201DE002206921605420680068012117
:104910008843216808600020216808600020216821
:104920004860002021688860200002F044FA0020DE
:10493000E066002069216054002068216054002056
:1049400010BDF8B505000C0016001F006920285C9A
:10495000012803D06920285C222863D1002C02D0D2
:10496000B6B2002E01D101205DE06820285C01284C
:1049700001D1022057E00120682168540020E86638
:104980006920285C222803D132206921685402E082
:1049900012206921685450202E5252202E5252204B
:1049A000285A002824D05220285A401E52216852EA
:1049B0003B0000228021280000F0C6FC002801D026
:1049C000032030E0A8688021490188420BD1286982
:1049D000002808D1009400980088C005C00D2968FF
:1049E0008862A41CDBE7207829688862641CD6E70B
:1049F0003B0000224021280000F0A6FC002801D046
:104A0000032010E06920285C322803D1222069218C
:104A1000685402E00120692168540020682168542C
:104A2000002000E00220F2BDF8B582B004000D00C5
:104A300016006920205C012804D06920205C12281F
:104A400000D08AE0002D02D0B6B2002E01D10120A4
:104A500084E06820205C012801D102207EE0012052
:104A6000682160540020E0666920205C122803D190
:104A700032206921605402E02220692160545820CC
:104A800026525A202652A0688021490188420AD124
:104A90002069002803D16B485C21605220E0FF2090
:104AA0005C2160521CE0A06800280AD1206900281F
:104AB00003D1FF205C21605212E07F205C21605214
:104AC0000EE0A06880214905884209D120690028AC
:104AD00003D17F205C21605202E03F205C216052C4
:104AE0005C20205A07005A20205A002825D05A203E
:104AF000205A401E5A216052029B00222021200091
:104B000000F022FC002801D0032027E0A0688021CB
:104B1000490188420AD12069002807D10095206800
:104B2000406A384000990880AD1CDCE72068406A84
:104B30003900014029706D1CD5E76920205C3228BE
:104B400003D112206921605402E0012069216054E0
:104B5000002068216054002000E00220FEBD10B556
:104B600003006920185C012803D06920185C122812
:104B700066D1002902D092B2002A01D1012060E062
:104B80006820185C012801D102205AE00120682425
:104B90001855596558201A525A201A52986880247C
:104BA0006401A0420AD11869002803D125485C2479
:104BB000185320E0FF205C2418531CE0986800285C
:104BC0000AD11869002803D1FF205C24185312E091
:104BD0007F205C2418530EE0986880246405A0426E
:104BE00009D11869002803D17F205C24185302E002
:104BF0003F205C2418530020D8666920185C1228D6
:104C000003D132206924185502E022206924185566
:104C100018680068802464000443186804601868F9
:104C200080680124044318688460002068241855B3
:104C3000186800682024044318680460002000E01D
:104C4000022010BDFF01000010B504002068C069FB
:104C5000C0070DD520680068C00509D5012021686E
:104C60000862E06E01210143E16601206921605480
:104C70002068C06980070DD520688068C00709D505
:104C8000022021680862E06E04210143E1660120F0
:104C9000692160542068C06940070DD5206880688C
:104CA000C00709D5042021680862E06E0221014393
:104CB000E1660120692160542068C06900070DD5B4
:104CC00020688068C00709D5082021680862E06E66
:104CD00008210143E166012069216054E06E00284B
:104CE00002D0200002F0EDF82068C069C0020DD5A6
:104CF00020688068400209D580204003216808624E
:104D0000012069216054200002F0E0FD2068C069A4
:104D1000800606D520680068800602D5200000F0D5
:104D20006EF82068C069000606D520680068000695
:104D300002D5200000F00CF82068C069400606D5B6
:104D400020680068400602D5200000F040F810BD41
:104D500000B501006920085C122803D06920085CB6
:104D6000322832D15220085A00280DD10868006834
:104D7000802398430B681860086800684023034349
:104D800008680360002021E0886880235B01984266
:104D90000DD1086900280AD1C86C02001088C0052E
:104DA000C00D0B689862C86C801CC86406E0C86CB3
:104DB00003005B1CCB6400780B6898625220085A91
:104DC000401E5223C852002000E0022000BD10B552
:104DD0000400206800684021884321680860692039
:104DE000205C322803D122206921605402E0012096
:104DF00069216054200002F05EF8002010BD70B5FB
:104E000004005C20265A6920205C222803D06920F7
:104E1000205C32284BD1A0688021490188420CD106
:104E20002069002809D1606D05002068406A304083
:104E30002880606D801C606508E0606D0100491C81
:104E400061652168496A32000A4002705A20205A7E
:104E5000401E5A2160525A20205A002825D120682D
:104E6000C0698006FBD4206800682021884321683F
:104E700008606920205C322803D112206921605427
:104E80000EE0206800680B4901402068016020683E
:104E9000806801218843216888600120692160546D
:104EA000200001F0FCFF002002E0002000E00220D2
:104EB00070BD0000FFFEFFFFFEB504000020029061
:104EC0000025002600272068B7498842FFD0A06847
:104ED0002169014360690843E16901430291206847
:104EE0000068B249014002980843216808602068C0
:104EF0004068AF490140E068084321684860A06904
:104F000002902068A849884203D00298216A014390
:104F1000029120688068B3490140029808432168E3
:104F200088602068B049884218D1B048006880077E
:104F3000800F002805D0022806D008D3032809D006
:104F40000BE0012005004BE00220050048E00420B2
:104F5000050045E00820050042E041E02068A44942
:104F6000884219D1A14800680C210140002906D0CF
:104F700004290AD0082905D00C2909D00BE000200B
:104F800005002DE0022005002AE00420050027E0AE
:104F90000820050024E023E02068834988421FD1CF
:104FA00092480068C0210901014000290CD08020EE
:104FB000C00081420ED080200001814207D0C02075
:104FC0000001814209D00BE00020050008E002202A
:104FD000050005E00420050002E008200500FFE7C9
:104FE00020687149884268D12800002806D002282C
:104FF0001CD004283AD0082850D05DE002F09FFB76
:1050000002F066FC0022904B02F072FC00900191CD
:10501000606802F05DFC02000B000098019902F04C
:1050200029FD02F089FD2168C860DAE08748006840
:10503000C0060DD5606802F04BFC02000B0000209A
:10504000834902F017FD02F077FD2168C8600CE08B
:10505000606802F03DFC02000B0000207D4902F078
:1050600009FD02F069FD2168C860BAE002F0EAFAC1
:1050700002F02EFC0022744B02F03AFC00900191E9
:10508000606802F025FC02000B000098019902F014
:10509000F1FC02F051FD2168C860A2E0606802F0F6
:1050A00017FC02000B000020A34902F0E3FC02F011
:1050B00043FD2168C86094E093E0E0698021090223
:1050C00088424AD12800002808D001280FD00228A1
:1050D00016D0042824D008282BD031E002F02FFB72
:1050E00002214843616801F038FD070028E002F022
:1050F00035FB02214843616801F02FFD07001FE0E6
:1051000052480068C00605D58C48616801F025FD4D
:10511000070004E08A48616801F01FFD07000FE006
:1051200002F090FA02214843616801F016FD070081
:1051300006E080204002616801F00FFD0700FFE7F4
:105140008048384006003807000FC0B24008C0B29F
:105150000643B6B22068C66043E02800002808D0A5
:1051600001280ED0022814D004282AD0082830D0D4
:1051700037E002F0E4FA616801F0EFFC2168C860F2
:105180002FE002F0EBFA616801F0E7FC2168C860EB
:1051900027E02E480068C0060CD5A248616801F0DF
:1051A000DCFC2168C8600BE000480040F369FFEFB9
:1051B000FFCFFFFF9C48616801F0CFFC2168C86009
:1051C0000FE002F03FFA616801F0C7FC2168C86097
:1051D00007E080200002616801F0BFFC2168C86020
:1051E000FFE7F7BDFFF4FFFF003801404C1002401D
:1051F0000044004010B504002068006800070AD58C
:105200008A4B002280218903200000F09DF80028AD
:1052100001D0032017E02068006840070AD5834BBF
:1052200000228021C903200000F08EF8002801D060
:10523000032008E00020682160540020E06601207F
:1052400069216054002010BD000070400010024031
:105250008084CE418084EE4100B52421415CC907A1
:1052600007D501684968724A0A40816A1143026899
:1052700051602421415C890707D5016849686D4A5E
:105280000A40C16A1143026851602421415C490708
:1052900007D501684968684A0A40016B11430268F2
:1052A00051602421415C090707D501684968634AB8
:1052B0000A40416B1143026851602421415CC906D8
:1052C00007D5016889685E4A0A40816B114302680C
:1052D00091602421415C890607D501688968594A93
:1052E0000A40C16B1143026891602421415C490668
:1052F00014D501684968544A0A40016C1143026898
:105300005160016C80225203914207D101684968C3
:105310004E4A0A40416C1143026851602421415CAD
:10532000090607D501684968494A0A40816C11435A
:105330000268516000BD00000000604100127A0068
:105340000048E801F0FF0000F4B504000F001D0064
:105350000026FFF77EFA06006846007800282FD165
:105360002068C0693840B8425AD00020C043854206
:10537000F6D0002D04D0FFF76CFA801B8542EFD2E7
:1053800020680068802188432168086020680068E0
:105390002021884321680860206800682D49014069
:1053A0002068016020688068012188432168886046
:1053B000012069216054002068216054032030E0FE
:1053C0002068C0693840B8422AD10020C0438542D5
:1053D000F6D0002D04D0FFF73CFA801B8542EFD2B7
:1053E0002068006880218843216808602068006880
:1053F0002021884321680860206800681549014021
:1054000020680160206880680121884321688860E5
:10541000012069216054002068216054032000E0CD
:105420000020F2BD00093D000024F400F05500000A
:10543000FFFFFDFFFFFFFEFFFFFFFBFFFF7FFFFF03
:10544000FFEFFFFFFFDFFFFFFFFFEFFFFFFF9FFF0C
:10545000FFFFF7FFFFFEFFFF38B504000025B0484F
:10546000FEF75AFDAF48FEF757FDAF48FEF754FD73
:10547000AE48FEF751FDFCF709FE012000F0A8FB45
:10548000FCF7E8FEFEF768FB0500EDB2002D02D048
:105490002800C0B223E20121A548FEF70DFB05005C
:1054A000EDB2002D02D02800C0B218E2206B002817
:1054B0000AD0216BAD48FEF7FFFA0500EDB2002DD2
:1054C00002D02800C0B20AE20021A948FEF7F4FA8F
:1054D0000500EDB2002D02D02800C0B2FFE1207817
:1054E000002802D0012817D02DE00021AF48FEF798
:1054F000E3FA0500EDB2002D02D02800C0B2EEE1C3
:10550000AB49AC48FEF7BAFA0500EDB2002D02D067
:105510002800C0B2E3E116E00121A448FEF7CCFA6E
:105520000500EDB2002D02D02800C0B2D7E1B2498B
:10553000A048FEF7A3FA0500EDB2002D02D0280026
:10554000C0B2CCE1FFE76078002803D0022866D023
:1055500022D3A7E00021A948FEF7AEFA0500EDB27C
:10556000002D02D02800C0B2B9E10021B348FEF7F7
:10557000A3FA0500EDB2002D02D02800C0B2AEE1C2
:105580000021AF48FEF798FA0500EDB2002D02D0D9
:105590002800C0B2A3E185E001219848FEF78CFA0B
:1055A0000500EDB2002D02D02800C0B297E10B211A
:1055B000A448FEF781FA0500EDB2002D02D02800C4
:1055C000C0B28CE10021B948FEF776FA0500EDB2D1
:1055D000002D02D02800C0B281E10021B448FEF7BE
:1055E0006BFA0500EDB2002D02D02800C0B276E1C2
:1055F00000219248FEF760FA0500EDB2002D02D0BE
:105600002800C0B26BE100218D48FEF755FA050075
:10561000EDB2002D02D02800C0B260E142E00121CD
:105620007648FEF749FA0500EDB2002D02D02800B9
:10563000C0B254E10C218348FEF73EFA0500EDB2FA
:10564000002D02D02800C0B249E10A219748FEF798
:1056500033FA0500EDB2002D02D02800C0B23EE1C1
:1056600001219348FEF728FA0500EDB2002D02D083
:105670002800C0B233E101217048FEF71DFA050091
:10568000EDB2002D02D02800C0B228E100216C4804
:10569000FEF712FA0500EDB2002D02D02800C0B2CC
:1056A0001DE1FFE7A078002803280DD8A178062087
:1056B00041438B48FEF700FA0500EDB2002D02D001
:1056C0002800C0B20BE1FFE7E078002802280BD8E1
:1056D000E1788448FEF7F0F90500EDB2002D02D024
:1056E0002800C0B2FBE0FFE7606800280AD06168CC
:1056F0007D48FEF7C3F90500EDB2002D02D0280069
:10570000C0B2ECE0A068002814D0A1687748FEF78A
:10571000B5F90500EDB2002D0CD02800C0B2DEE0D6
:1057200030980008B8960008FC950008189A000800
:10573000A89B0008E06800280AD0E1686C48FEF7E2
:105740009DF90500EDB2002D02D02800C0B2C6E0E0
:10575000206900280ED021696648FEF78FF9050000
:10576000EDB2002D06D02800C0B2B8E0B89B00080A
:10577000249D0008606900280AD061695E48FEF730
:105780007DF90500EDB2002D02D02800C0B2A6E0E0
:10579000E069002810D0E1695848FEF76FF905006C
:1057A000EDB2002D08D02800C0B298E0C89B0008D8
:1057B000309D00082C9A0008206A00280AD0216A2F
:1057C0004F48FEF75BF90500EDB2002D02D028002E
:1057D000C0B284E0606A002812D0616AFA208000BA
:1057E00041434848FEF768F90500EDB2002D07D0A7
:1057F0002800C0B273E000BF3C9D0008D89B0008A1
:10580000A06A00280AD0A16A3F48FEF755F90500B2
:10581000EDB2002D02D02800C0B260E02C20205C48
:10582000002811D02C20215C3848FEF745F90500EE
:10583000EDB2002D08D02800C0B250E0E89B00086F
:10584000F89B000848980008FEF72DF830493148C9
:10585000FEF7E2F92F48FEF7FBF980B2FEF73BF8BE
:105860000500EDB2002D08D1FDF70AFD0500EDB2EF
:10587000002D02D02800C0B231E0FEF714F826490E
:105880002448FEF7C9F92348FEF7E2F980B2FEF793
:1058900022F80500EDB2002D0CD1FDF7F1FC05005A
:1058A000EDB2002D06D02800C0B218E0409A0008E2
:1058B00060980008206B002804D0206B02F076F975
:1058C000FCF71AFDFCF7C6FC002000F081F9134834
:1058D000FEF722FB1248FEF7B1FC2800C0B232BD31
:1058E000089C0008489D0008549D0008609D000821
:1058F000E09D0008E89D00086C9D0008189C0008C9
:10590000289C0008D4960008389C0008549A000887
:10591000F09600087C050020F09D00080C97000818
:10592000B400002038B50500002400F07FF8ADB2C7
:105930002B003A480078C0B2C0084207520F4149D4
:105940003948FEF769F93848FEF782F980B2FDF769
:10595000C2FF0400E4B2002C2AD13B48FEF7AAF9AA
:105960000100C906C90F002908D13748FEF7A2F97E
:105970000200354910201043FEF796FAADB23348C5
:1059800005600520324908802F48FEF793F9020090
:105990002D498020C0021043FEF786FA2A48FEF700
:1059A00089F902002849802080031043FEF77CFA21
:1059B0002000C0B232BD000080B5FDF774FF00F0DA
:1059C00035F8174815490978C9B2C9084907490F78
:1059D000405C002820D01348FEF76CF90100C9068E
:1059E000C90F002908D10F48FEF764F90D491022AC
:1059F00002431000FEF758FA08480078C0B2C00809
:105A00004207520F13491448FEF706F91248FEF7F1
:105A10001FF980B2FDF75FFF01BD0000801100207B
:105A200068160020541600207C05002000B50B48A5
:105A30000078C0B2C009C0B2002801D100BFF6E7AB
:105A400000BD0000689A0008541600201C120020B7
:105A500012120020489C00087C050020001600203F
:105A6000F8B505000E001700002D01D0002E01D161
:105A7000022018E000241E4800780100C907C90F61
:105A8000002903D11A484068002801D000BFF2E77E
:105A900000233A0031002800FDF780FEFDF7F0FBFF
:105AA00004002000C0B2F2BDF8B505000E001700DA
:105AB000002D01D0002E01D1022018E000240C4856
:105AC00000780100C907C90F002903D108484068C0
:105AD000002801D000BFF2E701233A00310028007E
